:020000040800F2
:1000000000F40120AD010008872A000859260008E5
:10001000852A0008ED0B0008E947000800000000F1
:100020000000000000000000000000002D2E00086D
:10003000050D000800000000B12D00087B2E00080F
:10004000C7010008C7010008C7010008C701000870
:10005000C7010008C7010008070D0008C701000814
:100060000D0D0008C7010008C7010008C7010008FE
:10007000C7010008C7010008C7010008C701000840
:10008000C7010008C7010008C7010008C701000830
:10009000C7010008C7010008C7010008C701000820
:1000A000C7010008C7010008C7010008C701000810
:1000B000C70100087D2F0008C7010008C70100081C
:1000C000C7010008C7010008C7010008C7010008F0
:1000D000C7010008C7010008C7010008C7010008E0
:1000E000C7010008C7010008C7010008C7010008D0
:1000F000C7010008C7010008C7010008C7010008C0
:10010000C7010008C7010008C7010008C7010008AF
:10011000C7010008C7010008C7010008C70100089F
:10012000C7010008C7010008C7010008C70100088F
:10013000C7010008C7010008C7010008C70100087F
:10014000C7010008C7010008C70100081D2D0008ED
:10015000C7010008C7010008C7010008C70100085F
:10016000C7010008C7010008C7010008C70100084F
:10017000C7010008C7010008C7010008000000000F
:10018000C7010008C7010008DFF80CD000F076F8BE
:1001900000480047C54D000800F4012030BF72B68A
:1001A000704762B6704780F30888704706488047FA
:1001B00006480047FEE7FEE7FEE7FEE7FEE7FEE74C
:1001C000FEE7FEE7FEE7FEE7292F000889010008A9
:1001D00040EA01039B0703D009E008C9121F08C0C9
:1001E000042AFAD203E011F8013B00F8013B521E49
:1001F000F9D27047D2B201E000F8012B491EFBD2C0
:1002000070470022F6E710B513460A460446194621
:10021000FFF7F0FF204610BD2DE9F05F05460020F6
:1002200092469B4688460646814640241BE0284667
:1002300041464746224600F042F853465A46C01A05
:10024000914110D311461846224600F029F82D1A84
:1002500067EB01084F4622460120002100F020F8FC
:1002600017EB00094E41201EA4F10104DFDC4846D3
:1002700031462A464346BDE8F09F0000064C074D34
:1002800006E0E06840F0010394E807009847103466
:10029000AC42F6D3FFF77CFF185100083851000834
:1002A000202A04DB203A00FA02F100207047914036
:1002B000C2F1200320FA03F3194390407047202A2B
:1002C00004DB203A21FA02F00021704721FA02F300
:1002D000D040C2F12002914008431946704770B5E2
:1002E0008D1810F8014B14F0030201D110F8012B06
:1002F000231106D110F8013B03E010F8016B01F85F
:10030000016B521EF9D1ABB110F8012B04F00C04B3
:100310008A1A0C2C03D0A2EB84129B1C08E010F864
:10032000014BA2EB0422F8E712F8014B01F8014B54
:100330005B1EF9D5A942D4D3002070BD70B5234807
:1003400086B00025016841F00401016000680124C5
:1003500000F004000590042000901D48CDE9010440
:100360001C4E6946304600F007FF0820CDE9000426
:100370000320CDE902406946304600F0FDFE03222D
:100380000221082001F04AF8082001F03BF802F0B1
:10039000E1F900F075F8052000F01AFE002002F0E7
:1003A00075F901460CA004F021FA00F0CFF91048CD
:1003B00044718571C571012002F068F901460DA0F4
:1003C00004F014FA00F020F806B070BD3038024096
:1003D00000002110000802404157393133362063B4
:1003E0006869702049443A30782534780D0A000055
:1003F00000010020415739313336204743523A300B
:10040000782534780D0A000010B54FF44C51572070
:1004100002F05FF90321582002F05BF91C21502003
:1004200002F057F9FC21552002F053F94AF2FF215E
:10043000612002F04EF94AF2FF31612002F049F9E1
:100440004AF2FF41612002F044F90321BDE8104067
:10045000012002F03EB90000084810B500690128EB
:1004600002D0022805D102E000F058FA01E000F0C5
:10047000F7F9BDE81040322002F008B90001002071
:1004800010B5094C00220821204600F04DFF052040
:1004900000F09EFD01220821204600F045FFBDE846
:1004A00010400A2000F094BD000802402DE9F04FF2
:1004B000934E95B0DFF84CA2B0796D46A0B3002002
:1004C0004FEA0A0151F8202045F82020401CC0B214
:1004D0000328F7D303211E2002F0FBF8002709AC04
:1004E00007F13600C0B202F0D1F844F827007F1CB3
:1004F000FFB2062FF4D3022002F0C8F8814B00218E
:10050000F2791833170004D053F8217054F821C041
:10051000674443F82170491CC9B20629F2D3B34697
:100520000026012A0ED0D1E0FFE7132002F0AEF83A
:100530000090142002F0AAF80190152002F0A6F80D
:100540000290C7E700219BF806404FF0020E0122FF
:100550000DF11C0902FA01F7074269D153F8217025
:100560004FF47A7CBCEBA70F2DDDCF074FEA510784
:1005700055F827800AD0C8F3072CBCF1100F02D021
:1005800008F47F4709E008F0FF0C17E008F0FF0CC3
:10059000BCF1100F0BD008F0FF077FB34F085FEAE4
:1005A000C17855F827C005D04FF4807804E008F4EE
:1005B0007F4C03E04FF00108ACEB080C45F827C076
:1005C00009F801E025E040F6B83CBCEBA70F1EDAC5
:1005D000CF074FEA510704D035F82770C7F3072734
:1005E00001E015F827701F2F11D04F085FEAC1787E
:1005F00055F827C003D04FF4807802E007E04FF0B1
:100600000108C44445F827C009F8012001E009F8B1
:1006100001606CB13A4F19F801C014377F5CBC45DA
:1006200006D04F0809F801605AF827C045F827C0DE
:10063000491CC9B206298DD35F468BF8056000219D
:100640004FEA060302FA01FC1CEA000F05D119F873
:1006500001C0BCF1000F00D00123491CC9B206291A
:10066000F0D37B7153EA04003AD03A72BBB3002155
:10067000012002F02EF8002435F8240081B204F1A4
:100680001300C0B202F025F8641CE4B2032CF3D3CB
:100690000321012002F01DF8B979032926D0184B57
:1006A00000204A461433145C1C54401CC0B2062877
:1006B000F9D300204FEA0A0255F8203042F82030E2
:1006C000401CC0B20328F7D3491CB9719BF807102E
:1006D00089B18BF80760012015B0BDE8F08F01E00B
:1006E0003E72C3E7BE718BF8076002E07E71BE7197
:1006F000FE710020F0E701218BF80710EBE7000006
:1007000000010020C029002010B54FF44C515720A3
:1007100001F0DFFF0321582001F0DBFF1C215020F6
:1007200001F0D7FFFC21552001F0D3FF48F28231C0
:10073000052001F0CEFF8421062001F0CAFF03212D
:10074000BDE81040012001F0C4BF000010B5002139
:10075000012001F0BEFF1C21502001F0BAFF002152
:10076000512001F0B6FF4FF44C51572001F0B1FF7A
:100770000321582001F0ADFF0021592001F0A9FF0D
:1007800000215A2001F0A5FF00215B2001F0A1FF0C
:10079000A121522001F09DFF4FF4C051182001F01B
:1007A00098FF2321022001F094FF8421112001F001
:1007B00090FF40F28721122001F08BFF41F21114CB
:1007C0002146142001F085FF2146152001F081FF0C
:1007D00040F60A2421460C2001F07BFF21460D2023
:1007E00001F077FF21460E2001F073FF40F2022155
:1007F0001B2001F06EFF40F202411C2001F069FF56
:100800001C21072001F065FF8021032001F061FF1A
:100810000521192001F05DFF0021212001F059FF81
:100820000021202001F055FF3221272001F051FF47
:1008300000212C2001F04DFF41F63211222001F061
:1008400048FF00212D2001F044FF0321012001F089
:1008500040FF02490220086110BD00000001002095
:1008600070B52D4C6079E8B1FFF720FE6079002863
:1008700017D1207A18B10021012001F02AFF1C2194
:10088000032001F026FF10212D2001F022FF207A05
:1008900018B10321012001F01CFFFFF735FF0120F3
:1008A000207070BDE0680028FBD12E2001F0EEFE24
:1008B0000646322001F0EAFE0546312001F0E6FE50
:1008C0000446102E01D100F099F8E8060AD52CB1A3
:1008D000102CE6D1BDE8704000F0AEB8BDE8704025
:1008E00000F0B0B828070AD52CB1082CD9D1BDE842
:1008F000704000F04FB8BDE8704000F065B8680780
:10090000CFD52CB1042CCCD1BDE8704000F0B8B8E4
:10091000BDE8704000F0CCB80001002010B51C4CC0
:100920006079D8B1FFF7C2FD607900282ED1207A16
:1009300018B10021012001F0CCFE0021032001F0BC
:10094000C8FE10212D2001F0C4FE207A00281DD001
:100950000021BDE81040012001F0BBBEE068002886
:1009600014D12E2001F092FE102807D0012809D0C2
:1009700002280BD1BDE8104000F074B8BDE810406B
:1009800000F03CB8BDE8104000F0ACB810BD00006D
:100990000001002010B5054C2078002804D004A0E8
:1009A00003F024FF0120E07010BD000000010020D2
:1009B0004157393133362072696768742070726527
:1009C0007373200A0000000010B5054C2078002841
:1009D00004D004A003F00AFF0120E07010BD000065
:1009E000000100204157393133362072696768743D
:1009F0002072656C65617365200A000010B5054CB6
:100A00002078002804D004A003F0F0FE012020711B
:100A100010BD0000000100204157393133362063FA
:100A2000656E74657220646F75626C6520636C69B5
:100A3000636B200A00000000014803F0D7BE0000ED
:100A40009C0A000801A003F0D1BE000041573931D3
:100A50003336206C6566742072656C656173650A57
:100A60000000000001A003F0C1BE00004157393171
:100A70003336206C65667420736C6970200A000040
:100A800010B5054C2078002804D004A003F0AEFE79
:100A90000120607010BD0000000100204157393175
:100AA0003336206C656674207072657373200A009B
:100AB00010B5054C2078002804D004A003F096FE61
:100AC0000120607010BD0000000100204157393145
:100AD0003336206C6566742072656C6561736520C1
:100AE0000A00000001A003F081BE00004157393127
:100AF000333620726967687420736C6970200A004D
:100B00002DE9F04792468946044600252CE020381E
:100B1000A208C6B23B2A05D9002409F118002246D2
:100B200000F0FF0902F11F00C1B21C32D0B202F086
:100B30007EF909F11700C1B2484602F089F902F0C6
:100B400098F9DFF83080002706EB460607EB061120
:100B500018F8010000F08CF87F1CFFB2302FF5D39D
:100B60006D1C0C34EDB2E4B21AF805000028CED1A9
:100B7000BDE8F0879A0E00202DE9F047924689469D
:100B8000044600252AE02038A208C6B23D2A05D92D
:100B9000002409F11000224600F0FF0902F11D00B7
:100BA000C1B21C32D0B202F042F909F10F00C1B259
:100BB000484602F04DF902F05CF9DFF82C8000277E
:100BC00007EB061118F8010000F052F87F1CFFB285
:100BD000102FF5D36D1C0834EDB2E4B21AF80500FD
:100BE0000028D0D1BDE8F0879A080020FEE7002059
:100BF0007047000003490248086000207047000069
:100C00002C210020BC000020044810B5D0F81802A8
:100C1000402103F0C5F9002010BD00002C21002068
:100C20000F4810B5016886B041F00101016000680D
:100C3000012400F0010005900A486946CDE9004012
:100C40000948029400F098FA01220221062000F0DF
:100C5000E5FB062000F0D6FB0448047006B010BD8A
:100C60003038024000002110000002400001002046
:100C70002DE9FC5F00240546A0464FF00F094FF018
:100C8000F00A4FF0FF0B6E460DF1040715F0C0009F
:100C900006D0402807D0802808D0C0280BD108E013
:100CA00006F8048007E006F8049004E006F804A0C3
:100CB00001E006F804B0A806000E10F0C00106D04E
:100CC000402907D0802908D0C0290BD108E007F8B7
:100CD000048007E007F8049004E007F804A001E0AE
:100CE00007F804B08006050E305D012101F0DAFF3F
:100CF000385D012101F0D6FF641CE4B2022CC5D39B
:100D0000BDE8FC9F7047012000F02ABA042000F0E3
:100D100027BA0000002229B101291FD0022920D0C2
:100D20004FF4407210490B6823F440730B600B685A
:100D300013430B600A6822F0F8020A600A68F8237D
:100D400093FAA3F3B3FA83F3984040F0020002430E
:100D50000A60086840F48030086070474FF4807281
:100D6000E0E74FF40072DDE7103C024013480168F1
:100D700089050FD5016821F400710160016841F413
:100D800000610160016821F400610160016841F4C3
:100D900000710160016849050FD5016821F4806187
:100DA0000160016841F480510160016821F48051C3
:100DB0000160016841F4806101607047003C0240BD
:100DC00008490A6822F440720A600A6842F0040284
:100DD0000A600A684FF4803343EA002002430A6045
:100DE00070470000103C0240064A136823F4407329
:100DF000136013681360136843F0010313600170FC
:100E000070470000103C0240084910B50C6824F4FB
:100E100040740C600C6844F440740C600C6844F03E
:100E200001040C600260436010BD0000103C0240F1
:100E3000074A136823F440731360136843F4807304
:100E40001360136843F001031360018070470000D2
:100E5000103C0240074A136823F440731360136880
:100E600043F400731360136843F0010313600160DF
:100E700070470000103C024017490868C206174836
:100E800005D5C26942F01002C26110220A600A68E8
:100E9000920605D5C26942F00802C26120220A60AA
:100EA0000A68520605D5C26942F00402C2614022B6
:100EB0000A600A68120605D5C26942F00202C261E0
:100EC00080220A600A68920705D5C26942F02002B2
:100ED000C2610220086070470C3C02400C210020D7
:100EE00070B5114904460020C86100F023FA064697
:100EF0000E4D09E0601C07D024B100F01BFA801BE6
:100F0000A04201D9032070BD2868C003F2D428682C
:100F1000C00701D001202860286810F0F200F2D04C
:100F2000FFF7AAFF012070BD0C2100200C3C0240FD
:100F30002DE9F04781460E4602F11C00C1B206F1D0
:100F40001C001F461546C0B2DDF8208001F06FFF7F
:100F50004146384601F07CFF01F08BFFAE1B0024B8
:100F6000A8EB0707761C7F1C0FE0002509E0012194
:100F7000484601F097FE0121484601F093FE6D1CA2
:100F8000EDB2AE42F3DC641CE4B2A742EDDCBDE896
:100F9000F08770B506467721002001F048FF7F21D9
:100FA000002001F055FF01F064FF0024002501211D
:100FB000304601F077FE0121304601F073FE6D1CD2
:100FC000EDB2782DF3D3641CE4B2802CEED370BD67
:100FD00031B500F0AFF9009C0546601C00D0641CE0
:100FE00000F0A8F9401BA042FAD338BD2DE9F04724
:100FF000044622480F46017E01290AD0012180467D
:1010000001764CF250394846FFF76AFF020003D0E0
:101010002FE00220BDE8F0874FF0FF3038602068F5
:10102000174D012801D0A6681CE0207C6168FFF7FD
:10103000C7FE4846FFF754FF0246286820F0040028
:10104000286014E0217C3046FFF764FE4846FFF735
:1010500047FF0200286820F0FA00286001D03E60B7
:1010600005E0761CD4E902100844B042EAD8FFF744
:101070007DFE002188F818101046CBE70C210020D7
:10108000103C02400348016841F00041016000202B
:1010900070470000103C02402DE9F0471B4E05460A
:1010A0001446307E1F468946012808D0012030763C
:1010B0004CF250384046FFF713FF18B114E00220FD
:1010C000BDE8F0879DB1012D16D0022D19D0224622
:1010D0003B464846FFF798FE4046FFF701FF0C49A4
:1010E0000A6822F001020A6000213176E8E7E1B2E5
:1010F0004846FFF779FEEFE7A1B24846FFF798FEB2
:10110000EAE721464846FFF7A5FEE5E70C21002067
:10111000103C024006480068002807DA04480549E8
:101120000C380160044901600020704701207047BD
:10113000103C024023016745AB89EFCD10B5044652
:101140006420FFF745FF012C05D0042C07D1BDE832
:101150001040FFF781B9BDE8104001F07FBA10BD23
:10116000044910B50A68024202D00860FFF7E6FFA2
:1011700010BD0000143C01402DE9F84FDFF87CB1B0
:1011800000224FF001084FF0030A4FF00F090BF156
:10119000040E00BF0B6808FA02F42340A3426ED18C
:1011A0004D68022D01D0122D0ED1D50800EB850C13
:1011B000DCF820505607F70E09FA07F6B5430E691A
:1011C000BE402E43CCF82060066855000F790AFA1D
:1011D00005FC07F0030726EA0C06AF40374307601B
:1011E0004E68012E05D0022E03D0112E01D0122EF2
:1011F0000ED18668CF6826EA0C06AF403743876079
:101200004668A6430C79C4F3001494403443446008
:10121000C6688C6826EA0C06AC403443C4604C684F
:10122000E40065D5364C256845F480452560246882
:1012300022F0030504F480440094324C2E19D6F8B1
:10124000084895072F0F09FA07F5AC432E4DA84221
:1012500001D1002524E02D4DA84201D101251FE038
:101260002B4DA84201D102251AE02A4DA84201D1F6
:10127000032515E0284DA84202D1042510E037E0EF
:10128000264DA84201D105250AE0254DA84201D1ED
:10129000062505E0234DA84201D1072500E00825D9
:1012A000BD402543C6F80858DBF800405D464E684F
:1012B0009C43F60300D51C432C60DEF800407546C5
:1012C0004E689C43B60300D51C432C600B4D08357B
:1012D0002C684E689C43F60200D51C432C60074DD9
:1012E0000C352C684E689C43B60200D51C432C601C
:1012F000521C102AFFF44EAFBDE8F88F003C0140AD
:101300004438024000300140000002400004024026
:1013100000080240000C024000100240001402408D
:1013200000180240001C02400AB1816170470904A4
:10133000FBE70000014800687047000084000020BF
:1013400002480168491C01607047000084000020C9
:101350000B4810B5016841F400710160016841F467
:1013600080610160016841F480710160052000F036
:1013700075F8002000F006F800F018F8002010BD05
:10138000003C024010B5044607484FF47A710068EB
:10139000B0FBF1F000F0D3FF00222146501E00F018
:1013A0003DF8002010BD00000000002010B5032013
:1013B00000F054F8002211466FF00B0000F02EF8F8
:1013C000002211466FF00A0000F028F800221146B2
:1013D0006FF0090000F022F800221146501F00F0C3
:1013E0001DF800221146101F00F018F800221146C7
:1013F000901E00F013F80022BDE810401146501E68
:1014000000F00CB800F01F0201219140400980005B
:1014100000F1E020C0F8001170470000F0B40E4B5E
:101420001B680C46C3F30223C3F10705042D00D942
:101430000425191D072901D2002300E0DB1E012627
:1014400006FA05F1491E214099409E40761E16403D
:101450003143F0BC01F018BB0CED00E0064900F090
:10146000070208684FF6FF03184040EA0220034ACB
:1014700010430860704700000CED00E00000FA0522
:101480000068416200207047F0B500680023446A9C
:1014900031B1856A4FF4827604EB15444D1E0AE0A3
:1014A00044EA024181620FE006EB8307C7595B1CE7
:1014B00004EB1744DBB2AB42F6DB4FF4807303EB73
:1014C000810144EA024242500020F0BDD0F8EC0312
:1014D00002F027BAC1EBC10200EB8202D0F8EC03A4
:1014E000526C02F094B9C1EBC10200EB8202D0F859
:1014F000EC03D2F8042202F0DFB9D0F8EC0302F0DA
:1015000012BA10B504460A460B0601F07F00C0EB84
:10151000C00104EB810101D5383101E001F5FC7116
:101520000870D009487094F8B803012809D0012048
:1015300084F8B803206802F049FD002084F8B8035D
:1015400010BD022010BD70B50A460446090602F01F
:101550007F0005D5C0EBC00104EB8101383105E007
:10156000C2EBC20104EB810101F5FC7100258D7015
:101570000870D009487094F8B803012809D00120F8
:1015800084F8B803206802F002FF84F8B853002002
:1015900070BD022070BD70B504460D460E0601F008
:1015A0007F00C0EBC00104EB810101D5383101E0BF
:1015B00001F5FC71ED0908704D708A60CB7000D0A8
:1015C000C8800025022B00D10D7194F8B8030128C2
:1015D00009D0012084F8B803206802F035FC2846C1
:1015E00084F8B85370BD022070BD70B50C4601F090
:1015F0007F05C5EBC50100EB8101C1F80C32C1F8D4
:1016000004220023C1F8103281F8F93181F8F85131
:10161000036901F5FC71012B00D10A616206027CAD
:10162000006803D002F014FF002070BD02F0F0FD4E
:10163000FAE770B50D460446090605F07F0005D5AA
:10164000C0EBC00104EB8101383105E0C5EBC501F9
:1016500004EB810101F5FC7101228A700870E80930
:10166000487094F8B803012807D084F8B82320689C
:1016700002F0BFFE680602D007E0022070BD217CA8
:1016800004F56F72206802F063FE002084F8B8034E
:1016900070BD70B50C4601F07F05C5EBC50100EBD0
:1016A0008101CB644A6400230B65012381F8393042
:1016B00001F8385F0369012B00D10A616206027CE0
:1016C000006803D002F0C4FE002070BD02F0A0FD4F
:1016D000FAE700002DE9F84F0446006800260546A9
:1016E00003F00AF8002875D1206803F02EF80028CE
:1016F00070D0206803F029F8800704D5206841697C
:1017000001F002014161206803F01FF8010304F5B4
:101710006F704FF0010B4FF0000A00904DD520681C
:1017200002F0F5FF074646E0F80742D0F1B2206824
:1017300003F003F88046C00728D005EB4612C2F834
:1017400008BB2069012811D1C6EBC60004EB80015B
:10175000D2F8102BD1F80002C2F31202821AC1F89B
:101760001022D1F804221044C1F80402F1B220463C
:10177000FFF7B9FE2069012808D13EB9D4F80C0260
:1017800020B920680121009A02F0E2FD5FEA0870AA
:1017900007D5204600F0DCFA05EB46110820C1F819
:1017A000080B5FEAC86004D505EB46111020C1F8AC
:1017B000080B7F08761C002FB6D1206802F0C5FF09
:1017C00040034FF040095ED5206802F099FF0746BC
:1017D000002656E0D2E1F80751D0F1B2206802F0BD
:1017E0009DFF8046C00724D0D5F834280BFA06F0B8
:1017F0008243C5F8342805EB4610C0F808B92069C3
:10180000012807D1C6EBC60004EB8000D0E9101216
:1018100011444164F1B22046FFF75CFE20690128C3
:1018200007D136B9E06C20B920680121009A02F096
:101830008FFD5FEA087004D505EB46110820C1F85A
:1018400008095FEAC86004D505EB46111020C1F80D
:1018500008095FEA486003D505EB4611C1F808990D
:101860005FEA887004D505EB46110220C1F808092B
:101870005FEA086003D53146204601F055FA7F083B
:10188000761C002FA7D1206802F05FFF00280DDA38
:10189000D5F8040820F00100C5F80408204600F03F
:1018A0003DFA2168486900F000404861206802F074
:1018B0004CFF00050BD5D5F80808C00702D020461C
:1018C00000F062FA2068416901F40061416120681A
:1018D00002F03BFFC0044CD5D5F8040820F001000D
:1018E000C5F804081021206802F0D6FE0020FF2170
:1018F00007E000BF05EB4012C2F80819C2F8081B48
:10190000401C62688242F5D84FF0FF30C5F81808D5
:10191000D5F81C0840F00110C5F81C08206B60B118
:10192000D5F8840840F00B00C5F88408D5F84408C1
:1019300040F00B00C5F844080BE0D5F8140840F05F
:101940000B00C5F81408D5F8100840F00B00C5F8D6
:101950001008D5F8000820F4FE60C5F80008217CC6
:101960002068009A02F0F4FC2168486900F4805075
:101970004861206802F0E9FE80047DD5206802F00D
:10198000A3FA2068C16821F47051C160206802F098
:1019900095FE78B10320C4F81490E06000F0CAFA14
:1019A0007749784A014491420AD22068C16841F4DB
:1019B000705158E04FF40070C4F80CA0606136E03C
:1019C0007149724A0144914204D22068C16841F4CD
:1019D000605148E06E496F4A0144914204D2206848
:1019E000C16841F450513EE06B496C4A0144914258
:1019F00004D22068C16841F4405134E06849694A22
:101A00000144914204D22068C16841F430512AE077
:101A10006549664A0144914204D22068C16841F494
:101A2000205120E06249421862498A4204D220686B
:101A3000C16841F4105116E05F49604A0144914287
:101A400004D22068C16841F400510CE05C490844AC
:101A50005C4988422068C16803D241F4E05102E049
:101A60000AE041F4C051C160204600F047F9206807
:101A7000416901F400514161206802F066FEC00630
:101A800036D52168886920F010008861D5F820805B
:101A900008F00F00C0EBC00004EB8007C8F3434020
:101AA00007F5FC77022802D0062812D01BE047F683
:101AB000F07018EA000F16D0C8F30A1290462846B4
:101AC000F96802F046FEF8684044F860B86940449E
:101AD00008E008222846009902F03BFEB969C8F3E5
:101AE0000A100844B8612068816941F010018161E1
:101AF000206802F02AFE000707D5204600F012F900
:101B00002068416901F008014161206802F01DFE72
:101B1000C00208D5F1B2204600F056F820684169AD
:101B200001F480114161206802F00FFE800208D5A7
:101B3000F1B2204600F04CF82068416901F4001130
:101B40004161206802F001FE400007D52046FFF702
:101B5000BDFC2068416901F080414161206802F0CC
:101B6000F4FD40070AD520684568680702D520467D
:101B7000FFF7C3FC2068416829434160BDE8F88F46
:101B8000405327FF00350C00401E1BFF40420F0052
:101B900000DC0BFF804F1200808CF9FE20D6130072
:101BA00060B6E5FE60E3160000D3CEFE40771B0072
:101BB000C05BB3FEC091210000CA91FE20753800C1
:101BC000E05459FEE09C4100D0F8EC0301F004BF62
:101BD000D0F8EC0301F002BFF0B58BB004004FF079
:101BE000000556D0032084F8B903204600F054F8CD
:101BF000206802F007FB04F1100128220F46684616
:101C0000FEF7E6FA94E80F0002F078F90021206868
:101C100002F0AFFD01260020C5EBC50104EB8101F8
:101C200081F8396001F8385FCD80C8708860C8607D
:101C30006D1C48610F2DEFD300214FF4827300BF5C
:101C4000C1EBC10204EB820203EB810582F8F901CA
:101C500082F8F811D18782F8FB01C2F80002C2F8BD
:101C60000402C2F80C0222685051491C0F29E7D324
:101C7000282239466846FEF7ABFA94E80F0002F0D6
:101C800021FA84F8B963206802F010FA00200BB042
:101C9000F0BD0120FBE7000000B5006887B0B0F19F
:101CA000A04F25D14FF4C050009002200190002099
:101CB0000290032003900A20049069460D48FFF724
:101CC0005BFA0D48016841F0800101600A4810305C
:101CD000016841F4804101600068002200F4804006
:101CE000059011464320FFF799FB4320FFF78AFB3D
:101CF00007B000BD000002403438024010B5044671
:101D0000C068012100B90021D4F8EC0301F0BCFE49
:101D1000D4F8EC03BDE8104001F085BED0F8EC0328
:101D200001F0A0BED0F8EC0301F0A2BE10B504464D
:101D300090F8B803012809D0012084F8B80320687E
:101D400002F02DFD002084F8B80310BD022010BD64
:101D5000D0F8EC2300F56F71104601F0A8BE10B565
:101D6000044690F8B80301280CD0012084F8B80389
:101D7000206802F08FF9206802F078FC002084F8D7
:101D8000B80310BD022010BD10B50446D0F8EC0316
:101D900001F0DAFE2068D0F8001E41F00101C0F821
:101DA000001E206A002804D00248016841F00601A4
:101DB000016010BD10ED00E02DE9F047DFF86491FF
:101DC00005460F46D9F8000000F00F01F8B2804632
:101DD000B94208D2014689F80010D9F8000000F095
:101DE0000F00B84274D128784F4C800705D5206881
:101DF000A96820F0F000084320602878C00759D077
:101E000049496868083901281AD002281BD00328DC
:101E100019D00968890700295ADA216821F00301DD
:101E200001432160FFF786FA6968064641F288306F
:101E3000012911D002291DD00329824627D035E07F
:101E400009688903E7E709688901E4E7FFF772FA9F
:101E5000811B514501D926E082462068C0F38100EC
:101E60000128F3D126E000BFFFF764FA811B51453A
:101E700001D918E082462068C0F381000228F3D11E
:101E800018E000BFFFF756FA811B51450BD82068B8
:101E9000C0F381000328F5D10CE000BFFFF74AFA38
:101EA000811B514502D90320BDE8F087206810F05E
:101EB0000C0FF3D1D9F80010484601F00F01B942D8
:101EC00008D980F80080006800F00F00B84201D007
:101ED0000120E9E72878400705D52068E96820F463
:101EE000E050084320602878000706D5206829695B
:101EF00020F4604040EAC100206000F051F8216801
:101F0000F02292FAA2F201F0F001B2FA82F2D1408C
:101F1000064A515CC840064908600020FFF732FAC3
:101F20000020C1E7003C0240083802400051000890
:101F300000000020014800687047000000000020F9
:101F400008480949006809684FF4E05292FAA2F281
:101F500001F4E051B2FA82F2D140044A515CC84027
:101F600070470000000000200838024010510008AF
:101F700008480949006809684FF4604292FAA2F2E1
:101F800001F46041B2FA82F2D140044A515CC84087
:101F9000704700000000002008380240105100087F
:101FA00030B51948006810F00C01184812D04410E0
:101FB00004290ED008290DD11349091F0A6802F01F
:101FC0003F030A68550247F6C07204D5B4FBF3F02C
:101FD00003E0204630BDB0FBF3F00B680968134006
:101FE00092FAA2F2B2FA82F2D34058434FF440324E
:101FF00092FAA2F201F44031B2FA82F2D140491CC5
:102000004900B0FBF1F030BD083802400024F40074
:102010002DE9F84F0546DFF8FC920078A9F1040B92
:10202000C007ABF1040449D0D9F800104846C1F309
:102030008101012908D00068C0F3810002280AD17B
:10204000DBF80000400206D52068800336D56868BA
:1020500000286ED032E06868B0F5803F10D0B0F54F
:10206000A02F206810D020F480302060206820F459
:10207000802020606868A0B1FFF75CF906460CE09C
:10208000206840F48030F4E740F480202060F7E7D7
:10209000FFF750F9801B642871D820688003F7D5BA
:1020A0000CE0FFF747F9064605E000BFFFF742F9ED
:1020B000801B6428F0D820688003F7D42878964FD6
:1020C00080074FF0010A4FF0000841D5D9F8001001
:1020D000484611F00C0F08D00068C0F381000228B8
:1020E0000AD1DBF80000400206D42068800713D52F
:1020F000E86801281DD10FE0E868D8B1C7F800A052
:10210000FFF718F9064604E0FFF714F9801B0228D0
:10211000C2D820688007F7D52068F82292FAA2F288
:102120002969B2FA82F220F0F80091400843206059
:102130000EE0ECE0C7F80080FFF7FCF8064604E08C
:10214000FFF7F8F8801B022819D820688007F7D419
:102150002878000724D57148696989B1C0F800A0C2
:10216000FFF7E8F8064604E0FFF7E4F8801B0228D2
:1021700005D868486C3000688007F5D510E07AE033
:10218000C0F80080FFF7D6F8064604E0FFF7D2F863
:10219000801B02286FD85F486C3000688007F5D438
:1021A0002878400753D55B483830016841F08051AA
:1021B0000160006800F0805000905948016841F4C7
:1021C00080710160FFF7B6F8064604E0FFF7B2F849
:1021D000801B02284FD852480068C005F6D54D4EE6
:1021E000A868683601280FD00528306810D020F084
:1021F00001003060306820F004003060A868B8B199
:10220000FFF798F800900FE0306840F00100F4E725
:1022100040F004003060F7E7FFF78CF80099411AAE
:1022200041F2883081426AD830688007F4D50EE0E8
:10223000FFF780F8009007E0FFF77CF80099411A5B
:1022400041F2883081425AD830688007F4D4A869B6
:10225000E8B3D9F80010C1F38101022957D0022850
:10226000C7F8608003D0FFF765F805464AE0FFF73E
:1022700061F8064605E042E0FFF75CF8801B0228A3
:102280003DD820688001F7D4D5E90701084347F617
:10229000C07292FAA2F2696AB2FA82F29140AA6A14
:1022A0004FF0FF3303EB52024FF4403393FAA3F3A2
:1022B000B3FA83F39A40114308434FF0706292FAE5
:1022C000A2F2E96AB2FA82F29140084300E01CE00F
:1022D000CBF80000C7F860A0FFF72CF8054604E033
:1022E000FFF728F8401B022809D820688001F7D59D
:1022F0000BE000BFFFF71EF8401B022802D90320A5
:10230000BDE8F88F20688001F4D40020F8E70120B0
:10231000F6E700000838024000004742800E4742BE
:10232000007000404FF0E0210428086903D020F03D
:1023300004000861704740F00400FAE7704710B5E8
:10234000401EB0F1807F01D3012010BD4FF0E0248A
:1023500060610F21601700F097FB0020A06107204B
:102360002061002010BD10B5FFF7E8FF10BD7047D9
:10237000704710B5040003D094F8390010B107E09D
:10238000012010BD002084F83800204600F00CF831
:10239000022084F83900211D206800F011FE012080
:1023A00084F83900002010BD08B500680B49884248
:1023B00012D10B48016841F002010160006803225C
:1023C00000F00200009001211D20FFF727F8BDE872
:1023D00008401D20FFF716B808BD000000040040AB
:1023E000403802400168CA6842F00102CA600068D1
:1023F000016841F00101016000207047704770B52D
:102400000446006801694FF00005C943890715D4E7
:10241000C168C943890711D4E91E016101202076F2
:10242000206880698007204602D0FFF7E7FF04E0BC
:1024300000F098F8204600F096F8257620680169AB
:10244000C943490717D4C168C943490713D46FF07A
:1024500004010161022020762068806910F4407F29
:10246000204602D0FFF7CAFF04E000F07BF82046C8
:1024700000F079F8257620680169C943090716D468
:10248000C168C943090712D46FF008010161042033
:1024900020762068C0698007204602D0FFF7AEFF93
:1024A00004E000F05FF8204600F05DF82576206833
:1024B0000169C943C90617D4C168C943C90613D401
:1024C0006FF010010161082020762068C06910F4C7
:1024D000407F204602D0FFF791FF04E000F042F871
:1024E000204600F040F8257620680169C943C907F5
:1024F00008D1C168C943C90704D1891E01612046BA
:1025000000F032F820680169C943090609D4C1689E
:10251000C943090605D46FF0800101612046FFF729
:1025200026FF20680169C943490609D4C168C94327
:10253000490605D46FF040010161204600F020F803
:1025400020680169C94389060BD4C168C94389065B
:1025500007D46FF0200101612046BDE87040FFF70D
:1025600007BF70BD704770470349884203D10348D5
:102570000168491C01607047F029002000210020FB
:10258000704770B5040004D094F83900002510B1EC
:1025900006E0012070BD84F83850204600F022F893
:1025A000242084F839002068C16821F40051C160FA
:1025B000204600F065FD2068016921F49041016129
:1025C0002068416921F02A0141612068C16841F415
:1025D0000051C160E563202084F8390084F83A0096
:1025E000002070BD30B50068164D02210122032382
:1025F000072487B0A8420ED11348056845F010059E
:102600000560006800F010000590C0208DE81F00F4
:1026100069460E4811E00E4DA84210D10A48001F2D
:10262000056845F400350560006800F40030059049
:102630000C208DE81F0069460648FEF79DFD07B097
:1026400030BD000000100140443802400004024048
:102650000044004000000240FEE7000010B5054CB9
:102660002078002804D004A002F0C0F80120A07057
:1026700010BD000000010020D6D0BCE4B0B4BCFC0A
:10268000B0B4CFC2A3A1A3A1A3A10A0010B5044670
:1026900000F008F9582000F0D5F800F045F9204680
:1026A00000F0D0F800F040F900F01CF900F0FAF862
:1026B000592000F0C7F800F037F9012000F08EF83B
:1026C0000402002000F08AF8044300F00BF92046D1
:1026D00010BD70B50C46054600F0E4F8582000F037
:1026E000B1F800F021F9284600F0ACF800F01CF930
:1026F000200A00F0A7F800F017F9E0B200F0A2F805
:1027000000F012F900F0EEF8BDE870400A20FEF784
:102710005FBC000070B50D4C0025C4F8A8520C48F1
:10272000016821F440010160016841F48001016009
:10273000C4F8AC52022004F52A7402F0A9FA012070
:102740002060022002F0A4FA256070BD00804042A3
:10275000000402400E4810B5016886B041F0020145
:1027600001600068012400F0020005904FF4406011
:10277000CDE900040320CDE9024069460548FEF793
:10278000FBFC0548C0F8AC42C0F8A84206B010BD3A
:1027900030380240000402400080404270B50D4CC9
:1027A0000025C4F8A8520C48016821F440010160DA
:1027B000016841F4800101600126C4F8AC62022086
:1027C00004F52A7402F064FA2660022002F060FA2E
:1027D000256070BD00804042000402402DE9F047B2
:1027E000814616480024016821F440010160016817
:1027F0000160134E254627464FF00108C6F8A8721F
:10280000022002F045FAC6F8A8826006040ED6F847
:102810002C0208B1641CE4B2012002F039FA6D1CEC
:10282000EDB2082DEAD3B9F1000F04D0FFF772FF23
:102830002046BDE8F087FFF7B1FFF9E7000402404A
:10284000008040422DE9F04106461448016821F419
:1028500040010160016841F480010160104C0027D3
:10286000C4F8A8723D464FF00108F009C4F8AC0264
:102870007006060E022002F00BFAC4F8A8820220AD
:1028800002F006FAC4F8A872022002F001FA6D1CE8
:10289000EDB2082DE9D3BDE8F0810000000402404C
:1028A0000080404270B50D48016821F4400101608C
:1028B000016841F480010160094C0120C4F8AC02B8
:1028C000C4F8A802042004F52A7402F0E1F90025F6
:1028D0006560042002F0DCF9256070BD0004024050
:1028E000008040420E4810B5016821F440010160AB
:1028F000016841F4800101600A4C0020C4F8A8027C
:10290000C4F8AC02042004F52A7402F0C1F90120D5
:1029100020606060BDE81040042002F0B9B90000FA
:10292000000402400080404270B512480024016853
:1029300021F440010160016801600F4D0126C5F8D6
:10294000AC62304602F0A4F9C5F8A862012002F09A
:102950009FF907E0641CE4B2FA2C03D9FFF7C2FF29
:10296000012070BDD5F82C020028F3D1C5F8A802CB
:1029700070BD000000040240008040422DE9F04399
:102980002E4887B00025016841F080010160016890
:1029900001F080010591016841F0010101600168C9
:1029A00001F001010591016841F008010160016831
:1029B00001F008010591016841F002010160006821
:1029C0001F4F00F002000590012230213846FEF72B
:1029D000ABFCDFF87080012255214046FEF7A4FCD5
:1029E000DFF86490012208214846FEF79DFC302064
:1029F000012403268DE8710069463846FEF7BCFBCA
:102A000055208DE8710069464046FEF7B5FB082069
:102A10008DE8710069464846FEF7AEFB01AA0094B6
:102A200082E8700069464846FEF7A6FB00220121B5
:102A30004846FEF779FC07B0BDE8F0833038024025
:102A400000000240000C02400004024010B50022C9
:102A50000849094800F0A6FE0849074801F0A1F816
:102A60000749054800F0D8FCBDE81040024801F0D5
:102A7000E5B80000C80000202C2100200400002040
:102A8000AC000020FEE770470907090E002806DAAF
:102A900000F00F0000F1E02080F8141D704700F1F5
:102AA000E02080F80014704710B57D4C0122102101
:102AB0002046FEF739FC6420FEF78AFA0022102136
:102AC0002046FEF731FC6420FEF782FA0122102135
:102AD0002046FEF729FC0021AE2000F0E3F800219B
:102AE000FD2000F0DFF80121122000F0DBF80021CA
:102AF000B32000F0D7F80121912000F0D3F8002195
:102B0000CA2000F0CFF801213F2000F0CBF80021CF
:102B1000A22000F0C7F80121002000F0C3F8002136
:102B2000A12000F0BFF80121002000F0BBF8002137
:102B3000A02000F0B7F80121142000F0B3F8012123
:102B4000112000F0AFF80021B52000F0ABF8012112
:102B5000002000F0A7F80021AB2000F0A3F801212D
:102B6000084600F09FF80021B42000F09BF80121F6
:102B7000A02000F097F80121F82000F093F8002140
:102B8000C12000F08FF80121EF2000F08BF8002128
:102B9000C72000F087F80121FF2000F083F8002112
:102BA000B82000F07FF801210C2000F07BF8012113
:102BB000182000F077F80121242000F073F801219B
:102BC000302000F06FF801213C2000F06BF801216B
:102BD000482000F067F80121542000F063F801213B
:102BE000602000F05FF801216C2000F05BF801210B
:102BF000782000F057F80121842000F053F80121DB
:102C0000902000F04FF801219C2000F04BF80121AA
:102C1000A82000F047F80121B42000F043F800217B
:102C2000084600F03FF80021B12000F03BF80121F8
:102C3000E22000F037F80021D12000F033F8012124
:102C4000A22000F02FF80121202000F02BF8002115
:102C5000BB2000F027F801211F2000F023F80021FD
:102C6000B62000F01FF80121082000F01BF8002119
:102C7000BE2000F017F80121072000F013F8002112
:102C8000A62000F00FF80021A92000F00BF800208A
:102C9000FEF77FF90021BDE81040AF2000F002B838
:102CA000000C02402DE9F0411A4E054609B10122FF
:102CB00000E0002240213046FEF736FB164F00228E
:102CC00008213846FEF730FB00240022042130465C
:102CD000FEF72AFB280601D5012200E0002201218F
:102CE0003046FEF721FB012204213046FEF71CFB93
:102CF0006806641C050EE4B2082CE6D30122082104
:102D00003846FEF711FB3046BDE8F0410122402174
:102D1000FEF70ABB000C0240000402400148FEF727
:102D2000D9BC0000502300202DE9F84F0F46C1EB1D
:102D3000C70100EB810582460668D5E91301441AF4
:102D4000286C3835A04200D20446E01C4FEA9008B7
:102D500006EB471916E0441AA868A04200D20446C0
:102D6000E01C4FEA90089AF810000090A3B2FAB263
:102D70003046E96801F024FDE8682044E860A8696D
:102D80002044A861D9F8180980B2404505D9D5E991
:102D90000501814201D20028DDD134B90120D6F8E5
:102DA0003418B8408143C6F834180020BDE8F88FC5
:102DB000704730B587B0002504460595FEF7AAF99F
:102DC0000120CDE9024002200490009505A9684643
:102DD000FEF70CF94CF25030FEF782F8FEF752F98C
:102DE00007B030BD70B516460D460446B0F1006F11
:102DF00018D3A00716D1FEF78DF90B4804EB860611
:102E0000844209D30AE00023214602202A68FEF703
:102E100043F918B9241D2D1DB442F4D3BDE8704008
:102E2000FEF730B970BD00000000FF1F704770B59D
:102E30000D46044600211520FFF734FF01212046EE
:102E4000FFF730FF2846BDE870400121FFF72ABF99
:102E500070B50D46044600217520FFF723FF0121C0
:102E60002046FFF71FFF2846BDE870400121FFF70D
:102E700019BF00215C20FFF715BF10B5FEF760FAFF
:102E8000BDE81040FFF76FBA30B5254893B0002574
:102E9000016841F080510160006800F0805011909D
:102EA0002048016841F4804101600068022400F478
:102EB0008040119001200090000401908001CDE934
:102EC0000640082008904FF4A870CDE909040720B7
:102ED0000B906846FFF79CF800B1FEE70CA90F20A5
:102EE00081E831004FF4A0500F904FF480501090C3
:102EF00005210CA8FEF760FF00B1FEE7FFF71AF806
:102F00004FF47A71B0FBF1F0FFF719FA0420FFF7E4
:102F100009FA00221146501EFEF780FA13B030BDA8
:102F200040380240007000401048016841F47001D0
:102F300001600F48016841F0010101600C4A002165
:102F40000832116002680B4B1A400260031D0A4AE6
:102F50001A60026822F48022026005480C30016089
:102F600002495806803908607047000088ED00E08B
:102F700000380240FFFFF6FE103000240148FFF742
:102F80003EBA0000F02900200B4A10B5094BC2E9F7
:102F900000310021C2E9021010461161FFF7E9F982
:102FA0000548FFF71FFA0548016821F0020101609A
:102FB00010BD000000040040F0290020403802400D
:102FC000F0B50268234B244D244E254F254C4FF07D
:102FD000804C984209D0604507D0A84205D0B04245
:102FE00003D0B84201D0A04204D122F0700E4A684A
:102FF00042EA0E0298421BD0604519D0A84217D071
:10300000B04215D0B84213D0A04211D0164DA842FC
:103010000ED0164DA8420BD0154DA84208D0154D24
:10302000A84205D0144DA84202D0144DA84203D1A5
:1030300022F44075CA682A4302608A68C2620A683C
:103040008262984201D0A04201D109690163012145
:103050004161F0BD00000140000400400008004054
:10306000000C0040000401400040014000440140C9
:103070000048014000180040001C004000200040B3
:103080002DE9F04104460068016921F44052E168ED
:10309000114301612168C86849F20C6290432369B9
:1030A000A268E5691A4363692B431A430243CA6065
:1030B0002168486920F44072A06910434861E169C1
:1030C0006425B1F5004F9748974A21684FF03208C0
:1030D0003FD0914201D081427CD1FEF749FF00EB05
:1030E000C00101EB001061688900B0FBF1F6FEF74A
:1030F0003FFF00EBC00101EB001061688900B0FBED
:10310000F1F0B0FBF5F06FF01801484306EB8001D9
:1031100008EB0110B0FBF5F000F0F006FEF728FF19
:1031200000EBC00101EB001061688900B0FBF1F019
:10313000B0FBF5F006EB0016FEF71AFF00EBC0013E
:1031400001EB001061688900B0FBF1F7FEF710FF9A
:10315000D2E0914201D081423DD1FEF709FF00EB60
:10316000C00101EB001061684900B0FBF1F0B0FB59
:10317000F5F00601FEF7FCFE00EBC00101EB0010CC
:1031800061684900B0FBF1F7FEF7F2FE00EBC00109
:1031900001EB001061684900B0FBF1F0B0FBF5F005
:1031A0006FF01801484307EB800108EBC100B0FB4A
:1031B000F5F000F0F80006EB4006FEF7D9FE00EB54
:1031C000C00101EB001061684900B0FBF1F7FEF7A8
:1031D000CFFE3CE055E0FEF7B3FE00EBC00101EB93
:1031E000001061684900B0FBF1F0B0FBF5F006019A
:1031F000FEF7A6FE00EBC00101EB0010616849007C
:10320000B0FBF1F7FEF79CFE00EBC00101EB0010F4
:1032100061684900B0FBF1F0B0FBF5F06FF0180108
:10322000484307EB800108EBC100B0FBF5F000F06C
:10323000F80006EB4006FEF783FE00EBC00101EB51
:10324000001061684900B0FBF1F7FEF779FE00EB72
:10325000C00101EB001061684900B0FBF1F0B0FB68
:10326000F5F06FF01801484307EB800108EBC1004F
:10327000B0FBF5F000F00700216830448860BDE83D
:10328000F081FEF75DFE00EBC00101EB001061680C
:103290008900B0FBF1F6FEF753FE00EBC00101EB35
:1032A000001061688900B0FBF1F0B0FBF5F06FF041
:1032B0001801484306EB800108EB0110B0FBF5F064
:1032C00000F0F006FEF73CFE00EBC00101EB001041
:1032D00061688900B0FBF1F0B0FBF5F006EB001679
:1032E000FEF72EFE00EBC00101EB001061688900C3
:1032F000B0FBF1F7FEF724FE00EBC00101EB00107C
:1033000061688900B0FBF1F0B0FBF5F06FF01801D7
:10331000484307EB800108EB0110B0FBF5F000F02B
:103320000F00A9E70014014000100140D0F8180276
:10333000002180F850100846704770B50546D0F857
:103340001842D5F81C226178D26820789047402333
:1033500022460121284600F056FB002070BD10B522
:103360000446812100F043FA0121204600F03FFA93
:10337000D4F8180250B1D4F81C0204F50674806821
:103380008047206801F0AAFC00202060002010BDCA
:1033900010B5D0F81842E16C012908D1D0F81C0210
:1033A00023786178C268184690470020E0640020C6
:1033B00010BD000029210180004870474000002016
:1033C0000A210180004870477800002070B5064649
:1033D000002540230322812100F002FB4023032229
:1033E0000121304600F0FCFA542001F053FEC6F8EB
:1033F000180278B10446002084F85000D6F81C0268
:1034000040688047402322460121304600F0FBFA05
:10341000284670BD0125FBE702460220002902D0A4
:103420000020C2F81C12704770B500220D78D0F849
:103430001832144615F0600526D0202D4CD14A785C
:10344000921E0A2A1CD2DFE802F010081B1B1B1B6D
:103450001B140C05887818643EE0012203F140013A
:1034600031E04888000A586436E0012203F1440143
:1034700029E00122DA648A79194600F053F82BE03A
:1034800000F045F8022070BD4D78062D04D00A2DBD
:103490001CD00B2D20D11DE04B882225B5EB132F1E
:1034A00007D1CA88212A00D92122D0F81C120C6821
:1034B00008E02125B5EB132F04D1CA88074C092A4F
:1034C00000D90922214600F047F805E0012203F166
:1034D0004801F8E788789864002070BD6C000020EF
:1034E00010B5D0F8142252689047002010BD134642
:1034F00010B50A46002100F086FA002010BD1346E0
:1035000010B50A46002100F028FB002010BD10B5C0
:103510000446802100F0F8FA2046BDE81040002162
:1035200000F0F2BA10B50323C0F80821C0F8F43156
:10353000C0F80C2113460A46002100F064FA00206E
:1035400010BD10B505210023C0F8F4111A46194624
:1035500000F059FA002010BD10B502238261C0F8B6
:10356000F431C26113460A46002100F0F6FA002049
:1035700010BD10B504210023C0F8F4111A461946F5
:1035800000F0EBFA002010BD10B50A46024903A076
:1035900000F0E5F8004810BDC027002043757374A3
:1035A0006F6D2048494420436F6E666967000000D4
:1035B0001220088000487047E800002010B50A4635
:1035C000024903A000F0CBF8004810BDC02700203E
:1035D000437573746F6D2048494420496E74657259
:1035E00066616365000000000420088000487047A1
:1035F000E400002010B50A46024903A000F0AFF82D
:10360000004810BDC027002053544D6963726F6598
:103610006C656374726F6E696373000010B50A465F
:10362000024903A000F09BF8004810BDC02700200D
:103630004E454F44554E20424F4F544C4F41444508
:10364000522048494400000010B50A46024903A030
:1036500000F085F8004810BDC02700203030303021
:10366000303030303030314100000000F8B50446D1
:1036700048880D46010A082954D2DFE801F05304B6
:10368000091753534951D4F81012207C0A6819E0E5
:10369000207C02260028D4F8140205D0C16A6846AE
:1036A0008847014646704AE0816AF8E7C1B20629B8
:1036B00026D2DFE801F0030A0F14191ED4F8101205
:1036C000207C4A686946904718E0D4F81012207CA4
:1036D0008A68F7E7D4F81012207CCA68F2E7D4F8B9
:1036E0001012207C0A69EDE7D4F81012207C4A6998
:1036F000E8E7D4F81012207C8A69E3E701461EE06F
:10370000C1B2D4F814026A46836B20469847F5E7A5
:10371000207C38B9D4F81402416B68468847EDE73D
:10372000207C20B129462046FFF7F1FEF8BDD4F8F1
:103730001402016B68468847014607204870BDF8AF
:1037400000000028F2D0EA88002AEFD0824200D997
:103750000246ADF800202046FFF7FEFEF8BD70B52A
:10376000002300281DD00446002502E06D1CEDB2A8
:10377000641C2678002EF9D1022404EB4504148041
:10378000CC545B1C0322CA5400245B1C06E0CA54C0
:103790005B1CDAB28C54521CD3B2401C0278002A53
:1037A000F5D170BD10B580B1D0F8143213B100233B
:1037B000C0F8143209B1C0F81012012180F8FC11D0
:1037C000027000F0BBF8002010BD022010BD10B543
:1037D0000024D0F82002FDF7B6FE30B1012801D058
:1037E000022801D0022400E00124204610BD10B5BB
:1037F0000024D0F82002FDF784FE30B1012801D06A
:10380000022801D0022400E00124204610BD2DE949
:10381000F0411746044641B1D4F8140242698AB314
:1038200094F8FC01032842D043E0D4F8F4110025B9
:1038300004F11400022933D1D0E902639E4207D972
:10384000F31A83609AB239462046FFF758FE12E019
:103850004068B0FBF3F103FB1101A1B9984212D308
:10386000D4F8F81188420ED2002211462046FFF704
:1038700046FEC4F8F85100231A461946204600F0C7
:10388000C2F80DE012E0D4F81402C16829B194F82E
:10389000FC01032801D1204688472046FFF751FE4E
:1038A00094F80002012804D184F8005201E0204677
:1038B00090470020BDE8F08170B51546044641B13F
:1038C000D4F8140282693AB394F8FC01032824D096
:1038D00025E0D4F8F41104F5827003291FD1D0E952
:1038E00002218A420BD9531A83600846834200D3CF
:1038F00003469AB229462046FFF7F9FD0FE0D4F8B7
:103900001402016929B194F8FC01032801D1204671
:1039100088472046FFF72DFE01E020469047002013
:1039200070BD0020704710B5012180F8FC11D0F85F
:103930001422017952689047002010BD10B501781B
:1039400061BB17490222C1F8EC03C0F820124FF006
:10395000A0400860042048600020C1E90320C1E9BC
:103960000502C861086201224862C1E90B200846CD
:10397000FEF732F920B14FF49A710AA000F035FF3A
:1039800080210748FDF77CFD402200210448FDF717
:103990007BFD802201210248FDF776FD002010BD4D
:1039A000502300202E2E2F5372632F757362645F95
:1039B000636F6E662E6300000A0601F07F01D0F887
:1039C0002002C1EBC10100EB810002D590F83A0062
:1039D000704790F8FA017047002070470020704748
:1039E00070B51D4613460024D0F820022A46FDF784
:1039F000D2FD30B1012801D0022801D0022400E01C
:103A00000124204670BD10B50024D0F82002FDF737
:103A1000ECFD30B1012801D0022801D0022400E0E1
:103A20000124204610BD70B50022044640231146F3
:103A3000FFF7D6FF40252B46002280212046C4F800
:103A40001051FFF7CDFF0120256284F8FC01D4F866
:103A5000180228B1D4F81402217942682046904710
:103A6000002070BD90F8FD1180F8FC110020704717
:103A700010B590F8FC11032904D1D0F81412C969CB
:103A800001B18847002010BD01740020704710B5B7
:103A90000024D0F82002FEF749F930B1012801D006
:103AA000022801D0022400E00124204610BD70B598
:103AB000044600F50270054600F05FF80120C4F8E6
:103AC000F401B4F80E02C4F8F80194F8080210F0FA
:103AD0001F010AD001290DD0022910D000F0800169
:103AE000204600F011F8002070BD2946204600F065
:103AF000AAF8F8E72946204600F08CF9F3E72946B2
:103B0000204600F019F9EEE710B50024D0F82002A5
:103B1000FDF78FFD30B1012801D0022801D0022429
:103B200000E00124204610BD10B50024D0F820028A
:103B3000FEF715F930B1012801D0022801D0022486
:103B400000E00124204610BD90F8FC1180F8FD1122
:103B5000042180F8FC110020704710B50024D0F833
:103B60002002FDF796FD30B1012801D0022801D0D6
:103B7000022400E00124204610BD0A7802704A7831
:103B800042708A78CB7802EB032242800A794B7923
:103B900002EB032282808A79C97902EB0121C1807C
:103BA00070470246002011B1C2F81412704702207B
:103BB000704710B5D0F8142202241AB11268904749
:103BC00000B90024204610BD70B50E461A4D897804
:103BD00004462970012928D894F8FC01022802D053
:103BE000032822D105E099B10320616084F8FC012B
:103BF00009E091B1606888420AD0C1B22046FFF75F
:103C00006FFC297861602046FFF7D3FF02280CD0B3
:103C10002046BDE87040FFF7ACBC022084F8FC01F0
:103C200020466160FFF75CFCF2E731462046BDE8C4
:103C30007040FFF76CBC00008200002010B5FFF759
:103C400073FF002010BD2DE9F04100264B780125BF
:103C500032460A2B43D2DFE803F03C584251420877
:103C600005422A27FFF702FD63E004468888C8B9A9
:103C7000C888B8B9887800F07F0794F8FC01032859
:103C800010D084F8FE7139462046FFF700FF204629
:103C9000FFF76FFC1FB1022084F8FC0149E084F8B3
:103CA000FC5146E020461AE0FFF78EFF41E0CB884A
:103CB000012B14D190F8FC31022B02D0032B0ED132
:103CC00004E08260012200F1080114E00122011DDC
:103CD00011E090F8FC21022A04D0032A02D0FFF759
:103CE00016FC26E0C560D0F8041209B10321C160BA
:103CF000022200F10C01FFF72FFC1AE0044648886D
:103D0000012816D1C4F804520BE0044690F8FC01D7
:103D1000022801D00328C5D14888012809D1C4F858
:103D20000422D4F814028268204690472046FFF708
:103D300020FC3046BDE8F08170B50D460446287879
:103D400000260979C0F34110012806D06878A0B395
:103D500001281FD003283FD107E0D4F814022946D8
:103D6000826820469047002070BD94F8FC0102282C
:103D700017D003282CD1688828B921B1802902D016
:103D80002046FFF7C1FED4F8140229468268204677
:103D9000904713E094F8FC01022802D0032817D1C1
:103DA00003E0C9B180291BD116E06888A0B9480694
:103DB00004D02046FFF70BFDE5E703E02046FFF7C0
:103DC000D8FB09E094F8FC01022807D003280BD0A7
:103DD00029462046FFF79BFB304670BD4806FBD0C6
:103DE0002046FFF791FEF7E7080601F07F0004EB9D
:103DF000001501D5143501E005F582752046FFF761
:103E0000DBFD00B101202860022229462046FFF791
:103E1000A3FBE1E770B5054690F8FC010C460328CA
:103E20000DD1207901280AD8D5F8140282682846D5
:103E30009047E08830B92846FFF79BFB02E0284610
:103E4000FFF765FB002070BD30B54C781D4B01229B
:103E50000D78AA40012CD0F81C4818D044EA024240
:103E6000C0F81C280A7800EB4210D0F8002B12048E
:103E70000BD4D0F8002B0C89C4F30A042243C97870
:103E800043EA81410A43C0F8002B002030BD92B2C2
:103E90001443C0F81C480C7800EB4410D0F80029FB
:103EA0001204F2D4D0F800290D89C5F30A052A437B
:103EB000C978890441EA84510A431A43C0F80029A9
:103EC000E3E7000000800010D0F800196FF30A014A
:103ED000C0F80019D0F80818C1F34101022905D132
:103EE000D0F8001941F00301C0F80019D0F8041807
:103EF00041F48071C0F804180020704770B5044682
:103F0000049D06990D9801290CD0E06840F040000E
:103F1000E060204600F028F84FF48030A063012DC7
:103F200016D01DE0A16B21F48031A163E1680D4A38
:103F30001140E160E16821F44011E160012803D102
:103F4000E06840F48010E060204600F00DF8E6E7FD
:103F5000A06840F00600A060A06840F02000A060CB
:103F6000002070BDBFFFBDFF01220C4902E0521CC2
:103F70008A420BD80369002BF9DA026942F0010288
:103F80000261012204E0521C8A4201D903207047D9
:103F90000369DB07F7D1002070470000400D0300E4
:103FA000F0B5084C00222368B3F5DC3F09D2064D7A
:103FB00003E0875CD618521CAF558A42F9DB5818CB
:103FC0002060F0BDC000002000300020F0B50D469C
:103FD00004464F780126F206D3002D49287804EBD9
:103FE0004010012F14D0D0F8007B27F40047C0F810
:103FF000007B287804EB4010C0F8002B287804EBF5
:104000004010C0F8003B01202A7804EB42122BE05C
:10401000D0F8007927F40047C0F80079287804EB3D
:104020004010C0F80029287804EB4010C0F800398F
:1040300001202A7804EB421202E0401C884211D889
:10404000D2F808395B00F8D41021204600F024FB98
:10405000D4F81C0829788E40B1B2884314E0401C83
:10406000884201D90320F0BDD2F8083BDB06F6D424
:10407000D4F8040840F48060C4F80408D4F81C089C
:1040800029788E4020EA0640C4F81C080020F0BDC4
:10409000400D030010B5D0F8041821F00201C0F85B
:1040A00004180320FCF794FF002010BD10B5D0F8D1
:1040B000041841F00201C0F804180320FCF788FF3F
:1040C000002010BD2DE9F0470E460446DDE90A0A3E
:1040D0000025DDF83C80089F5FEA0801A16B11D044
:1040E00041F40021A1634FF00009C4F8009ED4F808
:1040F0000018C4F80018012807D0D4F8000840F0D0
:10410000030007E041F40011ECE7D4F800080BB11C
:1041100040F00100C4F800081021204600F0BCFA6D
:10412000204600F0A9FA4846C4F81098C4F814983C
:104130004FF0FF31C4F81818C4F81C984FF0904C99
:10414000FF230FE004EB4511D1F80029002A02DA21
:10415000C1F800C901E0C1F80009C1F81009C1F8AF
:1041600008396D1CAE42EDD800210FE004EB41127E
:10417000D2F8005B002D02DAC2F800CB01E0C2F8F1
:10418000000BC2F8100BC2F8083B491C8E42EDD858
:10419000D4F8101821F48071C4F81018012F0AD136
:1041A0001449C4F83018D4F83018134A1143C4F82D
:1041B0003018D4F83018A0616FF0804060611FB9EA
:1041C000A06940F01000A061A0690C490843A061FB
:1041D000BAF1000F03D0A06940F00800A061B8F167
:1041E000010F03D1A06906490843A0610020BDE882
:1041F000F0870000000180000300010000383C80CF
:1042000004000040816821F00101816000207047B6
:1042100030B54D784D4C0B7800EB4313012D28D071
:10422000D3F8105B6FF31205C3F8105B0B7800EB4B
:104230004313D3F8105B2540C3F8105B4B690BB1F7
:104240008B684B610B7800EB4313D3F8104B44F4AD
:104250000024C3F8104B0B7800EB4313D3F8104B3A
:104260008D68C5F312052C43C3F8104B012A5CD0AE
:1042700061E04D69002DD3F810593BD06FF3120562
:10428000C3F810590B7800EB4313D3F810592540AD
:10429000C3F810594C698B689C4200D94B610B786C
:1042A00000EB4313D3F8104944F40024C3F8104939
:1042B0000B7800EB4313D3F810494D69C5F3120591
:1042C00054EA0504C3F810490B7800EB4313D3F804
:1042D000004944F00444C3F80049012A1ED04A6949
:1042E00012B3D0F834280B78012199400A43C0F862
:1042F000342829E02540C3F810590B7800EB43130C
:10430000D3F8104944F40024C3F810490B7800EBAB
:104310004313D3F810496FF31204D3E70A690978FD
:1043200000EB4110C0F814290EE00B7800EB4313AA
:10433000CA68C3F8142B097800EB4110D0F8001BB1
:1043400041F00441C0F8001B002030BDFFFF07E032
:104350000023C0F8103BD0F8103B43F40023C0F812
:10436000103BD0F8103B43F01803C0F8103BD0F8D6
:10437000103B43F0C043C0F8103B012905D1C0F801
:10438000142B4FF08021C0F8001B002070474B78A1
:104390000A7800EB4212012B0BD0D2F8003B23F439
:1043A0000013C2F8003BCA78032A17D0022A15D09E
:1043B0001DE0D2F8003923F40013C2F80039CA789E
:1043C000032A01D0022A12D1097800EB4110D0F85B
:1043D000001941F08051C0F8001908E0097800EB9D
:1043E0004110D0F8001B41F08051C0F8001B0020A4
:1043F00070474B780A7800EB4212012B14D0D2F8A8
:10440000003B002B05DBD2F8003B23F08043C2F8D1
:10441000003B097800EB4110D0F8001B41F400117B
:10442000C0F8001B00207047D2F80039002B05DBD4
:10443000D2F8003923F08043C2F80039097800EB44
:104440004110D0F8001941F40011C0F80019E9E753
:1044500078B54E786FF06045834C0B7800EB4313D2
:10446000012E2FD0D3F8106B6FF31206C3F8106B28
:104470000B7800EB4313D3F8106B2640C3F8106B96
:104480004B69002B7DD08C6823445B1EB3FBF4F397
:104490009BB20C7800EB4414D4F8106B05EAC345CA
:1044A0002E43C4F8106B0C7800EB4414D4F8105B66
:1044B0008E685E43C6F312031D43C4F8105B012AE5
:1044C00073D0B2E04E6966B3D3F810696FF3120689
:1044D000C3F810690B7800EB4313D3F8106926403A
:1044E000C3F810694C698B681C44641EB4FBF3F379
:1044F00005EAC3440B7800EB4313D3F810592C435F
:10450000C3F810490B7800EB4313D3F810494D69F9
:10451000C5F312052C43C3F81049CB78012B16D0F4
:1045200027E0D3F810592540C3F810590B7800EB59
:104530004313D3F8104944F40024C3F810490B780E
:1045400000EB4313D3F810496FF312040FE00B781C
:1045500000EB4313D3F8104924F0C044C3F81049CA
:104560000B7800EB4313D3F8104944F00054C3F820
:104570001049012A12D0CB78012B17D04B692BB3ED
:1045800000E037E0D0F834380D780124AC40234304
:10459000C0F83438CB78012B08D017E00C7800EB4A
:1045A00044140B69C4F81439F4E738E0D0F808383B
:1045B000DB050B7800EB4313D3F8004902D444F039
:1045C000005401E044F08054C3F800490B7800EB3C
:1045D0004313D3F8004944F00444C3F80049CB78AE
:1045E000012B3ED100928A8A93B20A78C96800F002
:1045F000E7F836E00B7800EB4313D3F8104B8D68E7
:10460000C5F312052C43C3F8104B0B7800EB431392
:10461000D3F8104B44F40024C3F8104B4FE70B7849
:1046200000EB4313CA68C3F8142BCA78012A0FD1D0
:10463000D0F80828D2050A7800EB4212D2F8003BE5
:1046400002D443F0005301E043F08053C2F8003B32
:10465000097800EB4110D0F8001B41F00441C0F88C
:10466000001B002078BD0000FFFF07E0816841F0DB
:104670000101816000207047002110220261054A7B
:10468000491C914201D9032070470369DB06F7D426
:1046900000207047400D03000022202343EA8111CF
:1046A00001610549521C8A4201D903207047036900
:1046B0009B06F7D400207047400D03000021D0F87E
:1046C000082812F0060F15D0D0F80828C2F34102CE
:1046D000012A0CD0D0F80828C2F34102032A06D0E0
:1046E000D0F80808C0F34100022802D002E00321FC
:1046F00000E0022108467047406900F00100704761
:10470000D0F81818D0F81C08084080B27047D0F8CC
:104710001818D0F81C080840000C7047D0F8103862
:10472000D0F83428CA4002F0010243EAC21200EB7A
:104730004110D0F808091040704700EB4111D1F842
:10474000081BD0F814080840704741698069084088
:10475000704710B503460020D21C920803F5805321
:1047600003E01C6841F8044B401C9042F9D3084612
:1047700010BD10B5C26822F0C042C260012901D04C
:1047800021B107E0C16841F0005102E0C16841F089
:104790008041C1603220FCF71BFC002010BDD0F826
:1047A000002822F4FE62C0F80028D0F800284FF458
:1047B000FE6303EA01110A43C0F800280020704795
:1047C00030B50024039D6DB9DB1C9B0800EB023063
:1047D00000F5805004E000BF51F8042B0260641C17
:1047E0009C42F9D3002030BDFEE7FEE70FB4054B35
:1047F00010B503A9044A029800F018F810BC5DF83F
:1048000014FB0000CD4C0008FC00002002E008C8AA
:10481000121F08C1002AFAD170477047002001E03A
:1048200001C1121F002AFBD1704700002DE9FF4F84
:104830008DB00F460546002606E025280BD0DDE9A1
:104840000F1290476D1C761C28780028F5D111B006
:104850003046BDE8F08F0024A246A1460122EC4973
:1048600000E0044315F8013F203B02FA03F0084240
:10487000F7D128782A2810D06FF02F022878A0F1DD
:104880003001092914D80AEB8A0102EB410144F0F6
:10489000020400EB010A6D1CF0E701CF5FEA000A99
:1048A00003D544F40054CAF1000A44F002046D1C1C
:1048B00028782E2817D115F8010F44F004042A286F
:1048C0000ED06FF02F022878A0F1300109290AD804
:1048D00009EB890102EB410100EB01096D1CF2E7D4
:1048E00057F8049B6D1C28786C280FD006DC4C28E8
:1048F00017D068280DD06A2814D104E0742810D08D
:104900007A280FD10DE044F400140AE044F4801436
:1049100001E044F440146978814202D104F5801426
:104920006D1C6D1C2A786E2A1FD00CDC632A31D0D6
:1049300004DC002A8BD0582A11D1A3E0642A68D065
:10494000692A0CD165E0732A2ED004DC6F2A73D05B
:10495000702A04D19BE0752A6FD0782A6ED0104659
:10496000DDE90F129047761C50E1C4F30250022893
:1049700006D0032809D0042801CF09D0066045E1FC
:1049800001CFF117C0E9006140E101CF06803DE1B0
:1049900006703BE117F8040B8DF8000000208DF83D
:1049A0000100EB46012003E057F804BB4FF0FF3055
:1049B00061074FF0000102D40DE008F101018846C3
:1049C00049450FDA8045F8DB1BF808100029F4D1BF
:1049D00008E008F1010188468142FADB1BF8081063
:1049E0000029F6D1DDE90F23AAEB08008146214614
:1049F00000F036F9304400EB080604E0DDE90F1260
:104A00001BF8010B9047B8F10108F7D22146484640
:104A1000F7E00A21C4F302534FF0000B0891022B78
:104A200004D001CFC117032B09D00AE0FF1D27F0E6
:104A30000707F7E8020108E032E01FE020E000B2DB
:104A4000C117042B01D140B2C117031E71F100033D
:104A500007DA4FF0000CD0EB0C006CEB01012D23BA
:104A600002E0230504D52B238DF82430012303E035
:104A7000E30701D02023F7E7984658E00A2110E029
:104A800010210EE010204FF0000B08900CE01021D8
:104A90004FF0000B44F004044FF00809089103E0C4
:104AA00008214FF0000B0891C4F30253022B04D0ED
:104AB00001CF0021032B06D006E0FF1D27F00707DA
:104AC000F7E8020103E080B2042B00D1C0B24FF03E
:104AD000000823072BD5702A07D0DDF820C08CF002
:104AE000100C5CEA0B0C05D00EE040238DF824304E
:104AF000012308E050EA010306D030238DF824306A
:104B00008DF8252002239846DDF820C08CF0080C93
:104B10005CEA0B0C0BD150EA010301D1630706D507
:104B200030238DF824304FF00108A9F10109582AEB
:104B300004D038A20B9208AA0A920BE03AA2F9E735
:104B40005B46089AFBF768FB0B9B9B5C0A9A521E1C
:104B50000A92137050EA0102F2D10A98ADEB0000FC
:104B600000F1200B600702D524F4803401E04FF0FF
:104B70000109D94502DDA9EB0B0000E0002000EBA4
:104B80000B0141440890AAEB010AE00306D4DDE9D9
:104B90000F232146504600F063F806444FF0000909
:104BA00008E009A911F80900DDE90F12904709F1A1
:104BB0000109761CC145F4DBE0030CD5DDE90F23C8
:104BC0002146504600F04CF8064404E0DDE90F129F
:104BD00030209047761C0899481E08900029F5DC83
:104BE00008E00A980A990078491C0A91DDE90F1239
:104BF0009047761CBBF10001ABF1010BF1DC2146C3
:104C00005046DDE90F2300F019F806446D1C1BE641
:104C10000928010030313233343536373839616292
:104C20006364656600000000303132333435363756
:104C30003839414243444546000000002DE9F04127
:104C4000044600251E461746880404D405E039466C
:104C50002020B0476D1C641EF9D52846BDE8F081C0
:104C60002DE9F041044600251E469046C80301D5B3
:104C7000302700E02027880404D505E04146384667
:104C8000B0476D1C641EF9D52846BDE8F0810000D0
:104C90002DE9F0414FF0E02607460025B469FDF705
:104CA00049F90949B0FBF1F17943B069A04201D259
:104CB0002A1902E072692B191A44151A04468D420A
:104CC000F3D3BDE8F081000040420F000249486084
:104CD0000A681206FCD570470010014010B5002884
:104CE00021D0114B0022001F196803E0814203D834
:104CF0000A4649680029F9D152B11368841A9C42C6
:104D000004D1006818441060104602E0506000E0D2
:104D1000186039B102680B1A934203D10B681A4428
:104D200002604968416010BD0421002010B501688F
:104D3000074A1140B1F1005F09D14168054C21607B
:104D40000068FBF730FA2068BDE81040004710BD4E
:104D50000000FE2FFC2000202DE9F04700259046A2
:104D600006460C462F464FF40079DFF854A019E0B0
:104D7000E078A178000640EA014061784A4640EABE
:104D8000012114F8040B08434AF825006D1CADB24C
:104D9000954206D100250A493046FEF723F806F56C
:104DA00000663F1D4745E3D3002D06D02A46304616
:104DB000BDE8F0470249FEF715B8BDE8F0870000EE
:104DC00000E8012008B50026B246FCF7C1FAFEF75C
:104DD0005BF8FDF7D3FDFBF723FF774875494FF4E8
:104DE000E13700240160C0E901740C25C460C0E90A
:104DF00004458461C461FDF7C4FB00B1FEE76E4861
:104E00006E4940300160C0E90174C460C0E90445E6
:104E10008461C461FDF7B5FB00B1FEE742F2CF014A
:104E200041F28730FEF7B0F8FDF73EFE64A20A219A
:104E30001420FBF765FE67A22C216820FBF79CFE7F
:104E40006648016841F0020101600168654D01F0AA
:104E5000020100916249644F04E03A7812B10122E4
:104E60006A6002E00A68042AF7DB026822F00202A4
:104E700002600C60686810B95C48FFF757FF6C600F
:104E8000FDF7E4FDFBF75AFA0020FCF782F858A280
:104E90000A213020FBF770FE5BA230210A20FBF7CD
:104EA0006BFE5BA230217020FBF766FE5AA2302118
:104EB000CE20FBF761FEDFF8688188F800403C7087
:104EC000DFF860B18BF80040DFF85C91286850B1E2
:104ED000864207D182460026514654A02C60FFF737
:104EE00085FC00E006463220FCF772F898F80000D6
:104EF000A0B1524653493D48FFF72EFF2D20002117
:104F000000901D2340220846FCF712F84EA21D21F6
:104F10004C20FBF731FE88F8004025E0387820B1BE
:104F20003248FFF703FF38461DE09BF80000D8B178
:104F30004FF0000A4FF4DC314248FBF762F90420DD
:104F4000FDF737FF0520FDF734FF2D2000210090ED
:104F50001D2340220846FBF7EBFF3FA21D215020F6
:104F6000FBF70AFE5846047099F800100029ADD0EE
:104F700089F800400020FCF70CF83BA204214420F3
:104F8000FBF7BEFD3BA224212520FBF7B9FD3AA289
:104F900024217420FBF7B4FD38A22421CE20FBF796
:104FA000AFFD0020FBF7F5FF35A20A211420FBF727
:104FB000A7FD8BE70010014040270020004400407F
:104FC00057656C636F6D6520557365204E656F4442
:104FD000756E000043616E63656C000040380240EE
:104FE00000210020C0000020020100200000010874
:104FF0004669726D776172652055706461746520D1
:105000004D6F64650000000075706461746100009C
:105010006C6F616400000000636C656172000000E9
:105020000101002003010020FA2000206C656E20A1
:105030006F6620636F64653A256442797465730D09
:105040000A0000000030002055706461746520463D
:10505000696E697368000000436C6561722046697F
:105060006E6973680000000050696E3A5F5F5F5FB1
:105070005F5F00002D0000004F4B00002B00000080
:1050800057656C636F6D6520557365204E656F4481
:10509000756E0000F0B50B30154D20F007010024AF
:1050A000144A0FE003688B420BD38B4205D95E1A7A
:1050B00043184768C3E9006700E04368136002C013
:1050C00004E0021D10680028ECD12046002802D11F
:1050D000286808B10020F0BD064A07481060074A5A
:1050E000121A22F00702C0E9002401202860D7E745
:1050F0000821002004210020342A0020302C002028
:105100000000000000000000010203040607080977
:1051100000000000010203043851000800000020D4
:105120000C210000DE020008786000080C2100203D
:10513000F4D201001C480008100A0024F400CD330A
:1051400000085F04100629340008000112911012B3
:105150002D14433B3310610112B528610452C11C68
:10516000201009022900010100C0320904000002D8
:1051700003122013211101000122210007058103E0
:1051800040000107050107A11A116410050A060075
:10519000026B5340015C7016058C0901A1010903E3
:1051A00015002600FF75089540810209040D1004C2
:1051B0009102C098100A88000020F50B0008EF0447
:1051C000C3090C9C1006B1350008E90412F508105B
:1051D000061D360008490412891412BD1040070448
:1051E000030904120170000C1383045057000201DC
:1051F00002030100010110172220013007002000E6
:105200005050506A10045050F802301E5000207860
:10521000C07028F02000C0C810204098180040A09E
:10522000A040A89068003020403811161006404079
:105230002010000412100C10080020A8702070A884
:105240004A20042020F852256A24046040805972C4
:10525000F8C710066060000008501117200B708816
:1052600098A8C8887000206082127010100C083056
:105270004080F800F80810300818200D10305090C9
:10528000F8101000F880F008101006384080F08800
:10529000081120217A11402288032108300578085E
:1052A00010E05C215F41082280A02280A0217F21A4
:1052B0008111A8213A11383210F010117088B8A865
:1052C000B880780020508888F88888005D21031114
:1052D00058100480808068110D110112F0802004A4
:1052E00080F0809831083280203006B888780088B5
:1052F0003734048800704111A01507300E109060FB
:10530000008890A0C0A090880080012007F8008845
:10531000D8A8A82820068888C8A8983031583160B5
:105320005150278888582180213811802270F0251B
:1053300045259A52883031073250102004A8A8D849
:10534000502250BB310821283518154023F0C001E8
:105350002004F00000FE19F02378180111E8159DD3
:10536000359820052040F840076A10FD1004E01031
:10537000708018088080B0C888C8B0882502300ABC
:105380007000080868988898681012F0102405309A
:105390004840F07846007232F03015004A2043163B
:1053A000006A163002240460808001540498006072
:1053B00018195212A80119C413B04801414015E050
:1053C00056000211A225C211AA43B0486016780106
:1053D0001004F00040A71C04404830B003129001B4
:1053E000218845002300004F29AC3501311813985E
:1053F00068311B00F8A912F8DF15F83A408841041B
:105400001610F82210382B40A80E33A85002CD05F4
:105410000325BC11C1212033006CA54D1D031005CF
:105420001414287C023D1B032008103840403848E3
:10543000702819355406200C700814426007182093
:1054400020544834486154330808562210DB432066
:10545000200C25809006107C1028287992FC3411AD
:105460004C4F10303C03BF007CA70326300A2004B9
:10547000000404563E2083033338440132381E4171
:105480005F313318043844040B62440C40041804A0
:1054900004242C090C141424447C040CE50360053A
:1054A0003C2020381860051C20407848127C3C21A4
:1054B000B8413C63443818216C80053C0408708C6A
:1054C000419011FC16180041B3160CFD5C046010ED
:1054D0000CB204727CC14408C02018041820C02BF0
:1054E00012249D430030BF30064C54544C40791672
:1054F00030133C05287C44EC2E04234444903D3575
:10550000041F3C4465044123200400F048F11A487C
:10551000DA300B0000FC445070504044FCB44805A5
:10552000202838286A3130524CCC1005EC44447C99
:10553000483154967C20123CE2198A35502409ECFB
:10554000444850704844E4703DC903332424245037
:1055500006EC6C6C54543C1005EC646454A9D7EC14
:10556000007450067824242438786118421CC01C2A
:105570000544784844920414060000344C406833D3
:105580006458B43690A4619C7148110C11FD4574A7
:1055900011B4116C3A541F13C4441540042844C478
:1055A000242122413C2B7C440355E04D250415CE9B
:1055B0002DE104296615BF21185208011118214553
:1055C0000D100906BC04FC00106106140438443CAC
:1055D000E335AF64044058648045525940170434A1
:1055E0005B412425BF30047C4040302C041C207CCF
:1055F000C20555EE4124730438483538780410004C
:1056000070A040041000789C1D0404E809C0405CB0
:1056100048705048DCC424040000E80835E07004F9
:105620000000D84859F692381890047840E078394C
:10563000DE836C30904C073C4438044478EA0631F1
:10564000A8421C3C12CC3B3E4CB40355825DB803CF
:1056500067EC44801124600648303048CC24300682
:1056600024281810104A677C48803DE3032DDC0392
:105670005E0844045D01043DEF03211D5DCC038FF2
:105680002458CA03A10CBD8A071C05183C3C3CAD3C
:10569000053D530311C6C40566666624B430056C27
:1056A0006CFE6C044D7903500A7CC6C2C07C068631
:1056B000C67C31540B0000C2C60C183060C686A3ED
:1056C0005C0A6C6C3876DCCCCCCC76B603BF306030
:1056D000F504112C31015E18B3031109310173185F
:1056E0003072A006663CFF3C66A373187E6D811481
:1056F0009131031100FED87132230206A05FC080F1
:1057000022045809C6C6CED6D6E6C6C63B4F1838C0
:10571000AC0663187E20412F73C6FE106006063C5F
:105720000606063010070C1C3C6CCCFEB1521E7BEA
:105730001DF80683FC0E201338601073C6C6601275
:10574000FE4041F4718093C67C20210C127E60B330
:105750000C78BA91F15110652031CE1536B206FFA2
:105760008502311C21247170960CE035015406DE4F
:10577000DEDEDCC000200710386CC6C6FE915DA3DB
:10578000031902127C045E6607032C043C66C2DB2C
:10579000075FC266830323F86C1D5C0466666CAB0E
:1057A00003B00BFE6662687868606266FE10900463
:1057B0006060F0404C06DEC6C6663A0303251B3126
:1057C0006F5170463C7E5F1818E3033A1E0E194075
:1057D00055101007E6666C6C78787542E68033F0F9
:1057E000600171709006C6EEFEFED6508007C6E6D8
:1057F000F6FEDECE6021DF256F936C38E08260A07C
:10580000358C7408C6C6D6DE7C0C0E0021E476E624
:10581000B0740560380C06D0B0047E7E5AB062C603
:1058200001B27C1090046C3810205FD6D640032162
:10583000201D21031D250361B0254E923C502C04F0
:10584000FEC6864F036AC2804E3C2F03573030207D
:10585000540B0080C0E070381C0E0602404D3F0320
:1058600064040C0C3CCE0D15E9032C040000FF8FE2
:10587000030E101896057C04780C7CB003240500F8
:10588000E060606E7C046666DC070C1F7CC6DC0989
:1058900069E0121C6A836CCC30395282FE20940677
:1058A000386C6460F060116022762F3404CC7C0C7C
:1058B000D3116084046C7666601D7B04AA38001CDA
:1058C000040606004E0321013A667311303A660160
:1058D0005590DA38302D380723FED60171104ADC96
:1058E000A291A09D700371207A7C0361A06DD30307
:1058F000B004DC7662C02A7C026D300424051030CE
:1059000030FC8F73361C7031DF9510317F8E3CC1B7
:1059100003590181101901A5A849336C047E060CB6
:1059200053032ECC500559001E0E480B2270F47EF6
:105930000EF9042DAD056E187F05211C21245E187B
:105940002709EF76DC0A053DE203000434C6FE00B9
:1059500001D00402000702B20202812459912004FE
:105960000039C00223108002012666200401803124
:10597000024005E03F80F10AC10C9E80EC05130057
:10598000060210073FC06660C63002200F00C60046
:1059900066003E000F8007C0066006121116200543
:1059A00066603FC0265D62061011004820CC60CCC6
:1059B00040CCC0CC80CD804B0032425C1604000C41
:1059C0000009801A403660266066604660C66082C4
:1059D0004001220630061C0022004202100464002E
:1059E000283E1C10380048004C00C400C670C3207C
:1059F000C320C10D057C06C1C067603CB006C51858
:105A0000051D4F100B2000400080018001000302A3
:105A10000211060221181DEB0F10048000802A2DB0
:105A2000E20E1DC7081E184310120CB201123021DD
:105A30001812082232105B6524100404000E023C88
:105A400008C460E4E064C011550C2009110064C072
:105A5000E4E0C460180E15040C08615460057FE092
:105A60007FE090092E3010040C001E02320E9A0EB8
:105A7000151889042160023700014162860C521614
:105A8000605466C0565602DE451482301F7D770D85
:105A900028050E001B006E1F60C0AB07C26002210C
:105AA00005297098041B000E700404131E007E7CF0
:105AB000A588673FC0E3121F5E1C0560C0E060BAA6
:105AC000041D1D10119A5405C0018003101C0430E0
:105AD0000070A40E7406E020FFE0FF021E0F3203E8
