:020000040800F2
:10000000C8E70120AD0100084D580008353B000845
:1000100005440008CD1000082185000800000000FC
:10002000000000000000000000000000056600085D
:10003000B513000800000000E95C0008476B0008E9
:10004000C7010008C7010008C7010008C701000870
:10005000C7010008C701000831200008C7010008D7
:1000600037200008C7010008C7010008C7010008C1
:10007000C7010008C7010008C7010008C701000840
:10008000C7010008C7010008C7010008C701000830
:10009000C7010008C7010008C7010008C701000820
:1000A000C7010008C7010008C7010008C701000810
:1000B000C7010008496C0008C7010008C701000813
:1000C000C7010008C7010008C7010008C7010008F0
:1000D000C7010008C7010008C7010008C7010008E0
:1000E000C7010008C7010008C7010008C7010008D0
:1000F000C7010008C7010008C7010008C7010008C0
:10010000C7010008C7010008C7010008C7010008AF
:10011000C7010008C7010008C7010008C70100089F
:10012000C7010008C7010008C7010008C70100088F
:10013000C7010008C7010008C7010008C70100087F
:10014000C7010008C7010008C7010008555C000886
:10015000C7010008C7010008C7010008C70100085F
:10016000C7010008C7010008C7010008C70100084F
:10017000C7010008C7010008C7010008000000000F
:10018000C7010008C7010008DFF80CD000F090F8A4
:100190000048004705910008C8E7012030BF72B64B
:1001A000704762B6704780F30888704706488047FA
:1001B00006480047FEE7FEE7FEE7FEE7FEE7FEE74C
:1001C000FEE7FEE7FEE7FEE7F56B000889010008A1
:1001D00010B5431A934209D28318881803E010F827
:1001E000011D03F8011D521EF9D210BD40EA0103A2
:1001F0009B0703D009E008C9121F08C0042AFAD2DD
:1002000003E011F8013B00F8013B521EF9D210BD8A
:10021000D2B201E000F8012B491EFBD27047002248
:10022000F6E710B513460A4604461946FFF7F0FFF5
:10023000204610BD30B504460020034600E05B1C9C
:10024000934203D2E05CCD5C401BF8D030BD2DE979
:10025000F05F0546002092469B468846064681464A
:1002600040241BE0284641464746224600F041F81C
:1002700053465A46C01A914110D311461846224699
:1002800000F028F82D1A67EB01084F46224601209E
:10029000002100F01FF817EB00094E41201EA4F1C9
:1002A0000104DFDC484631462A464346BDE8F09F5C
:1002B000064C074D06E0E06840F0010394E80700B3
:1002C00098471034AC42F6D3FFF762FF0CAD00083C
:1002D0002CAD0008202A04DB203A00FA02F10020AD
:1002E00070479140C2F1200320FA03F31943904074
:1002F0007047202A04DB203A21FA02F000217047DF
:1003000021FA02F3D040C2F120029140084319467D
:10031000704770B58D1810F8014B14F0030201D12D
:1003200010F8012B231106D110F8013B03E010F85F
:10033000016B01F8016B521EF9D1ABB110F8012B22
:1003400004F00C048A1A0C2C03D0A2EB84129B1C20
:1003500008E010F8014BA2EB0422F8E712F8014B79
:1003600001F8014B5B1EF9D5A942D4D3002070BD22
:1003700070B50D46044606F063FAC92006F044F94C
:100380001648006808B1EA2070BD05F0BFFC207077
:10039000002000F095FC2078042801D3A84203D95E
:1003A00006F06AFAE42070BD401E10F0FF0504F16B
:1003B00001040ED005F0AAFC6D1E04F8010B15F027
:1003C000FF0503D0002000F07BFCF3E7012000F0E4
:1003D00077FC06F051FA002070BD00007425002063
:1003E00070B50C46054606F02BFAC82006F00CF94D
:1003F0000A4E306858B1EA2070BD287806F004F93A
:10040000306808B1F72070BD641EE4B26D1C002C8A
:10041000F3D106F031FA002070BD000074250020F1
:1004200010B5064C0020C4F8A402502004F529742D
:1004300008F02CF90120206010BD0000008040422F
:100440007CB50D460646002409F016F850B1202070
:10045000CDE9005000231A463146022008F015FC71
:1004600000B9012420467CBD2DE9FC4100240F4643
:1004700080461D4616468DF800406946204608F025
:10048000E2FB60B99DF8000048B1CDE900653B464C
:1004900000224146022008F0A0FC00B901242046B9
:1004A000BDE8FC8170B5234886B00025016841F0A5
:1004B000040101600068012400F00400059004209C
:1004C00000901D48CDE901041C4E6946304602F0FB
:1004D0006BF80820CDE900040320CDE9024069460D
:1004E000304602F061F803220221082002F0AEF942
:1004F000082002F09FF903F041FD00F09BF8052071
:1005000001F086FF002003F0D5FC01460CA008F0A6
:10051000ADF800F0D3F910488470C5700571012062
:1005200003F0C8FC01460DA008F0A0F800F047F861
:1005300006B070BD303802400000211000080240B3
:1005400041573931333620636869702049443A3065
:10055000782534780D0A0000080000204157393111
:100560003336204743523A30782534780D0A00005C
:1005700010B54FF44C51572003F0BFFC0321582015
:1005800003F0BBFC1C21502003F0B7FCFC215520DC
:1005900003F0B3FC4FF42241612003F0AEFC4FF4B2
:1005A0002341612003F0A9FC4FF42441612003F0B2
:1005B000A4FC0321BDE81040012003F09EBC10B54F
:1005C0004FF44C51572003F098FC0321582003F0BE
:1005D00094FC1C21502003F090FCFC21552003F0DA
:1005E0008CFC4AF2FF21612003F087FC4AF2FF31C4
:1005F000612003F082FC4AF2FF41612003F07DFCA0
:100600000321BDE81040012003F077BC084810B575
:10061000C068012802D0022805D102E000F034FAB7
:1006200001E000F0D5F9BDE81040322003F042BCF3
:100630000800002010B5094C00220821204602F0D5
:100640008BF8052001F0E4FE01220821204602F08B
:1006500083F8BDE810400A2001F0DABE000802402D
:100660002DE9F04F934E95B0DFF84CA2F0786D462F
:10067000A0B300204FEA0A0151F8202045F82020BD
:10068000401CC0B20328F7D303211E2003F035FC21
:10069000002709AC07F13600C0B203F00BFC44F8A8
:1006A00027007F1CFFB2062FF4D3022003F002FCC8
:1006B000814B002132791833170004D053F8217090
:1006C00054F821C0674443F82170491CC9B2062977
:1006D000F2D3B3460026012A0ED0D1E0FFE7132063
:1006E00003F0E8FB0090142003F0E4FB01901520D8
:1006F00003F0E0FB0290C7E700219BF803404FF0B6
:10070000020E01220DF11C0902FA01F7074269D11C
:1007100053F821704FF47A7CBCEBA70F2DDDCF0787
:100720004FEA510755F827800AD0C8F3072CBCF1CF
:10073000100F02D008F47F4709E008F0FF0C17E023
:1007400008F0FF0CBCF1100F0BD008F0FF077FB3CF
:100750004F085FEAC17855F827C005D04FF480787C
:1007600004E008F47F4C03E04FF00108ACEB080C08
:1007700045F827C009F801E025E040F6B83CBCEB9D
:10078000A70F1EDACF074FEA510704D035F82770BC
:10079000C7F3072701E015F827701F2F11D04F0866
:1007A0005FEAC17855F827C003D04FF4807802E0A3
:1007B00007E04FF00108C44445F827C009F80120BC
:1007C00001E009F801606CB13A4F19F801C0103727
:1007D0007F5CBC4506D04F0809F801605AF827C075
:1007E00045F827C0491CC9B206298DD35F468BF84E
:1007F000026000214FEA060302FA01FC1CEA000F26
:1008000005D119F801C0BCF1000F00D00123491C2B
:10081000C9B20629F0D3BB7053EA04003AD07A710A
:10082000BBB30021012003F068FB002435F824004D
:1008300081B204F11300C0B203F05FFB641CE4B2A8
:10084000032CF3D30321012003F057FBF97803298C
:1008500026D0184B00204A461033145C1C54401C10
:10086000C0B20628F9D300204FEA0A0255F820301A
:1008700042F82030401CC0B20328F7D3491CF9705D
:100880009BF8041089B18BF80460012015B0BDE815
:10089000F08F01E07E71C3E7FE708BF8046002E028
:1008A000BE70FE703E710020F0E701218BF804104D
:1008B000EBE7000008000020AC2B002010B5002161
:1008C000012003F01AFB1C21502003F016FB00212D
:1008D000512003F012FB4FF44C51572003F00DFB55
:1008E0000321582003F009FB0021592003F005FBE8
:1008F00000215A2003F001FB00215B2003F0FDFAE8
:10090000A121522003F0F9FA4FF4C051182003F04E
:10091000F4FA2321022003F0F0FA8421112003F0DD
:10092000ECFA40F28721122003F0E7FA41F21114A9
:100930002146142003F0E1FA2146152003F0DDFAE8
:1009400040F60A2421460C2003F0D7FA21460D2058
:1009500003F0D3FA21460E2003F0CFFA40F2022131
:100960001B2003F0CAFA40F202411C2003F0C5FA32
:100970001C21072003F0C1FA8021032003F0BDFAF7
:100980000521192003F0B9FA0021212003F0B5FA5E
:100990000021202003F0B1FA3221272003F0ADFA24
:1009A00000212C2003F0A9FA41F63211222003F095
:1009B000A4FA00212D2003F0A0FA0321012003F066
:1009C0009CFA02490220C86010BD00000800002007
:1009D00070B52C4CA078D8B1FFF742FEA078002863
:1009E00015D1607918B10021012003F086FA1C218D
:1009F000032003F082FA10212D2003F07EFA6079A3
:100A000018B10321012003F078FA0120207070BD95
:100A1000A0680028FBD12E2003F04CFA06463220B5
:100A200003F048FA0546312003F044FA0446102E3C
:100A300001D100F0A7F8E8060AD52CB1102CE6D1B8
:100A4000BDE8704000F0C2B8BDE8704000F0CCB81E
:100A500028070AD52CB1082CD9D1BDE8704000F088
:100A60004FB8BDE8704000F071B86807CFD52CB121
:100A7000042CCCD1BDE8704000F0D4B8BDE8704083
:100A800000F0F4B80800002010B51C4CA078D8B1D4
:100A9000FFF7E6FDA07800282ED1607918B100217B
:100AA000012003F02AFA0021032003F026FA102186
:100AB0002D2003F022FA607900281DD00021BDE826
:100AC0001040012003F019BAA068002814D12E208C
:100AD00003F0F0F9102807D0012809D002280BD123
:100AE000BDE8104000F090B8BDE8104000F04AB8F2
:100AF000BDE8104000F0D6B810BD0000080000208E
:100B000070B50A4C207838B1094D286820B109A089
:100B100007F0ACFD0120E8606078002804D0BDE853
:100B20007040502004F028BC70BD00000800002078
:100B3000DC2B0020415739313336207269676874E5
:100B4000207072657373200A000000000548007869
:100B5000002806D004480068002802D003A007F04F
:100B600085BD704708000020DC2B0020415739313B
:100B700033362072696768742072656C65617365CD
:100B8000200A0000074810B50078002808D0064C5D
:100B90002068002804D005A007F068FD012020612E
:100BA00010BD000008000020DC2B00204157393127
:100BB00033362063656E74657220646F75626C6590
:100BC00020636C69636B200A0000000001A007F03D
:100BD0004DBD0000415739313336206C65667420B5
:100BE0007072657373200A0001A007F03FBD00001A
:100BF000415739313336206C6566742072656C65F7
:100C00006173650A0000000001A007F02FBD00001D
:100C1000415739313336206C65667420736C6970C6
:100C2000200A000070B50A4C207838B1094D2868B8
:100C300020B109A007F01AFD012068606078002843
:100C400004D0BDE87040502004F096BB70BD000099
:100C500008000020DC2B0020415739313336206C4E
:100C6000656674207072657373200A000548007809
:100C7000002806D004480068002802D003A007F02E
:100C8000F5BC704708000020DC2B002041573931AB
:100C90003336206C6566742072656C6561736520FF
:100CA0000A00000001A007F0E1BC00004157393103
:100CB000333620726967687420736C6970200A008B
:100CC00010B50A4CC4F8A402032004F5287407F0F8
:100CD000DDFC01202060042007F0D8FC002020600B
:100CE000BDE81040022007F0D1BC00000080404267
:100CF0002DE9F8430024884600940646817998F847
:100D0000060091461D46814288BF0846411C1A468E
:100D1000684605F062FD00281CBF40F2ED30BDE8DA
:100D2000F8834146304600F021FAC01C012707280D
:100D300062D2DFE800F03E2D25352D250400404627
:100D4000009900F0B1FA00993046CC7100F00EFA2B
:100D5000B0F1FF3F04D000284BD002284CD107E06F
:100D600031464046009A05F014FE0098C77143E0F2
:100D700041463046009A05F00CFE0098C4713BE0F5
:100D800041463046009A00F053F80098C47133E0B1
:100D900041463046009A00F04BF80098C7712BE0AE
:100DA00041463046009A00F043F80099F079C87146
:100DB00022E03046009900F077FA00984146C4716D
:100DC00000F0D4F9B0F1FF3F03D090B1022813D165
:100DD00007E031464046009A05F0DBFD0098C471FB
:100DE0000AE041463046009A05F0D3FD0098C771ED
:100DF00002E0009805F04CFC0021484603F0D2F9CF
:100E00004946009800F050FA0099002914BF002DBF
:100E1000BDE8F883EA8889796FF00303494203EB60
:100E2000810111440839E9800094BDE8F88300008D
:100E30002DE9F84F0B46D0F800B009680091002565
:100E4000B0F804C09E88176891462C46B44598BFF8
:100E5000664681794FF0010E4FF000088C4532D87C
:100E6000A1EB0C01002201F1010ABAF1000F2ADD09
:100E70003EEA01011CBF4BF82C80012290F806C00D
:100E8000B0F804A0ACEB0A0C0CF1010C8C451AD99B
:100E90001FFA8AFAD0F800C09244521C4CF82A80FB
:100EA000B0F804A0D0F800C09244521C4CF82A803C
:100EB00090F806C0B0F804A0891CACEB0A0C0CF149
:100EC000010C8C45E4D8B3F804C099798C4534D82A
:100ED000A1EB0C01002201F1010ABAF1000F2CDD97
:100EE0003EEA010103D01A6842F82C80012293F8EF
:100EF00006C0B3F804A0ACEB0A0C0CF1010C8C4555
:100F00001BD900BF1FFA8AFAD3F800C09244521CC2
:100F10004CF82A80B3F804A0D3F800C09244521CC5
:100F20004CF82A8093F806C0B3F804A0891CACEBF7
:100F30000A0C0CF1010C8C45E4D881889A88914206
:100F4000494638BF184600F0AFF9002E48D0009847
:100F5000ABF10403021F391F16F0010F0DD053F837
:100F600004CF52F8040F1CEB000048EB080C4019AA
:100F70004CEB040541F8040F44465FEA560C1BD0C5
:100F8000D3F804A050681AEB000048EB080A451992
:100F90004D604AEB040053F808AF52F8085F1AEBB3
:100FA000050548EB0804281844EB080541F8080F2C
:100FB0004446BCF1010CE3D195B157F82600401C22
:100FC00047F8260007E0761C07EB86000168491CFD
:100FD000016057F8260018B9B9F80400B042F2D2FF
:100FE000B9F8040057F8201000291CBF401CA9F8CC
:100FF0000400BDE8F88F0000F0B599B017460C4624
:10100000054600F0B8F915AE17AB11AA0DA901A855
:10101000009600F0EDFF20200D9511940F902035E3
:101020001390203410900E9514901294CDE91770FF
:101030000848159017AB11AA0DA9009601A800F059
:10104000BBF9A0F54071EB3902D0002019B0F0BD1A
:101050000120FBE78CDA01202DE9F0479246894612
:10106000044600252AE02038A208C6B23D2A05D948
:10107000002409F11000224600F0FF0902F11D00D2
:10108000C1B21C32D0B205F026FB09F10F00C1B28B
:10109000484605F031FB05F051FBDFF82C800027B6
:1010A00007EB061118F8010000F0B4F87F1CFFB23E
:1010B000102FF5D36D1C0834EDB2E4B21AF8050018
:1010C0000028D0D1BDE8F0879F070020FEE7002070
:1010D0007047000003490248086000207047000084
:1010E0004C2C00205C260020044810B5D0F81802D3
:1010F000402106F0DDFD002010BD00004C2C00203A
:101100000F4810B5016886B041F001010160006828
:10111000012400F0010005900A486946CDE900402D
:101120000948029401F040FA01220221062001F050
:101130008DFB062001F07EFB0448047006B010BD54
:10114000303802400000211000000240080000205A
:1011500030B5002306E0C45CCD5CAC4201D0002079
:1011600030BD5B1C9342F6DB012030BD70B490F9BA
:1011700007C091F9072094453FD183888C880122CC
:10118000A34204BF0068096803D9BCF1000F27D04F
:1011900022E003D2BCF1000F2BD027E09D1AA61A43
:1011A00050F8255051F82660B54204D1934224BF2F
:1011B000521C9342F2D2551EAB4202BF002070BCBB
:1011C00070479B1AA21A50F8230051F82210884247
:1011D00009D9BCF1000F03D070BC6FF0010070475B
:1011E00070BC02207047BCF1000F02D070BC01201F
:1011F000704770BC4FF0FF307047BCF1010F05D154
:10120000002A02BF6FF0020070BC7047032070BC60
:10121000704700002DE9FC5F00240546A0464FF012
:101220000F094FF0F00A4FF0FF0B6E460DF1040767
:1012300015F0C00006D0402807D0802808D0C0286C
:101240000BD108E006F8048007E006F8049004E0FB
:1012500006F804A001E006F804B0A806000E10F09D
:10126000C00106D0402907D0802908D0C0290BD161
:1012700008E007F8048007E007F8049004E007F8A6
:1012800004A001E007F804B08006050E305D0121DE
:1012900004F0A4FC385D012104F0A0FC641CE4B25D
:1012A000022CC5D3BDE8FC9F70B483888A790024E2
:1012B0009A4209D202F1010C9C4537BF41F2B54078
:1012C00041F2B54470BC7047C279CA7100228B806C
:1012D000002B09DDD0F800C00D685CF822C045F88D
:1012E00022C0521C9342F5DC8879801A431C002BE3
:1012F00026DD01234FF0000C33EA0000634605D0E1
:10130000D1F800C04CF822304FF0010C8D79AD1AA5
:101310006D1C854214DD00BF0D6802EB0C060CF15C
:10132000010C45F826300D6802EB0C06801C45F8D0
:1013300026308D790CF1010CAD1A6D1C8542EBDC69
:10134000204670BC704782880368012A01BF186874
:1013500000280120704750016FF0030C0CEB820253
:101360004FF000419A5831EA02031EBF0029490894
:10137000401EF8D170470121080304F0B7BC0000FB
:1013800030B585B04FF4C0540120CDE900400020B5
:1013900002900320064D03906946284601F004F9A7
:1013A00000222146284601F0D7F905B030BD0000E3
:1013B00000000240704700002DE9F04FBDB000244E
:1013C0003A942B940668019686680396469D466873
:1013D0000596C66807960669099646690B9686695A
:1013E0000296C6690496466A0896066A0696866A52
:1013F0000A96C06A0C900868379048682C9010686C
:10140000369050682F9088683490C8682E90D3E941
:101410000087D2E902BAD5F80090202010902E1D46
:101420008DF83C400EA805F00DF8002866D13A462C
:1014300041460EA804F065FF00285FD132464946B8
:101440000EA804F0B7FF002858D14FF46060ADF843
:10145000C8002C483190ADF8CA4031A901A800F06D
:10146000E5F800284AD131AA01A93AA800F0BAF952
:1014700004003ED10021349B379A3A9800F01AFAC2
:1014800001212E9B2C9A3A9800F014FA31AA01A956
:101490003A9800F075FA040027D131AA01A92BA8C7
:1014A00000F0BAFB040020D15B460021369A2B984D
:1014B00000F0F0FB0646534601212F9A2B9800F0CE
:1014C000E9FB50EA06040CD101A83C903A983B9005
:1014D00031A80090D5E900013BAB2B9A00F0F2FB5C
:1014E000044631A92BA800F07BFB31A93AA800F0F3
:1014F0007CF831A901A800F03AF820463DB0BDE8DB
:10150000F08F00008CCC012030B504000D464FF068
:10151000000018BF002D27D0216800291CBFA1683A
:10152000002921D0296800291FBF6A68002AAA68FB
:10153000002A19D0227B2A73227B12F0020F18BFD7
:1015400030BD2068FFF7B0FE002818BF30BD6968C5
:101550006068FFF7A9FE002818BF30BDA968A06821
:10156000BDE83040FFF7A0BE41F2544030BD002836
:1015700012BF002941F25440704730B50446006B59
:101580000D4600281FBF016800298168002904BF9B
:1015900041F2534030BD294605F040F9206B294601
:1015A000083005F03BF9206BC16819B10C302946B1
:1015B00005F034F9206B416819B1001D294605F08A
:1015C0002DF9206B016919B11030294605F026F973
:1015D000206B416919B11430294605F01FF9E888DC
:1015E0001838E8800020206330BD002812BF002991
:1015F00041F25440704730B5044600680D4600285B
:1016000004BF41F2534030BD083005F007F92068AF
:101610002946001D05F002F92946206805F0FEF86C
:10162000E8881038E8800020206030BDF0B50E4614
:10163000040014BF002E41F2544500F0CB80206915
:1016400000281CBF6069002839DD442837DC216888
:10165000002934D06168002931DB44292FDCA169DD
:1016600000291CBFE169002929DD442927DC3168F4
:1016700029B3C01C20F00300B28800EB40006023B7
:1016800003EB4000904288BF40F2ED357ED8F088F1
:1016900008442063F0881830F080206B002804BFD5
:1016A00040F2ED30F0BD61690830C91C890832464E
:1016B00005F093F805004FF0000703D086E041F2F3
:1016C000534587E060693246C01C8108206B05F0F5
:1016D00084F8050075D1206B0268D4E9000106F09A
:1016E00021FF206B8268D4E9040106F01BFFE0694A
:1016F0003246C01C8108206B0C3005F06EF80500E6
:101700005BD1206BC268D4E9060106F00BFF206BA9
:101710004760206B0761206B4761A06898B1E06863
:10172000002810DD44280EDAC01C8108206B3246E8
:10173000001D05F052F805003AD1206B4268D4E94B
:10174000020106F0EFFE206A00281CBF606A002834
:1017500040DD44283EDAA16A00291CBFE16A002965
:1017600038DD442936DAC01C8108206B324610303F
:1017700005F033F8050016D1206B0269D4E90801A1
:1017800006F0D0FEE06AC01C810800E022E0206B79
:101790003246143005F021F80500206B1CD01030C3
:1017A000314605F03BF8206B3146001D05F036F858
:1017B000206B31460C3005F031F83146206B05F0D6
:1017C0002DF8206B3146083005F028F8F0881838DD
:1017D000F08027632846F0BD4269D4E90A0106F08B
:1017E000A1FEF7E7002919BF002A002841F2544062
:1017F000704770B50446086B15460E4600281FBF9B
:101800002A68002A8168002904BF41F2534070BD54
:10181000E8888979342301EB410103EB8101AB882E
:101820000144994284BF40F2ED3070BD1044206005
:10183000E8882A461030E880306B8068817920681B
:1018400004F0CBFFD8B9306B2A46806881792068D4
:10185000001D04F0C2FF70B9306B2A4680688179A0
:101860002068083004F0B9FF002820680FD0001D60
:10187000294604F0D3FF2946206804F0CFFFE8880A
:101880001038E8800020206040F2ED3070BD006824
:10189000002102F087FC20680021406802F082FCF1
:1018A00020680121806802F07DFC21680120087316
:1018B000002070BD002818BF002A01D0002B02DADA
:1018C00041F25440704710B404689446002C1FBF86
:1018D0004268002A8068002808D000290CBF2246F0
:1018E000012907D0022908BF024603D010BC41F2EB
:1018F0005440704710BC1946604606F013BE000005
:1019000078B504004FF000000E46009014BF002E82
:1019100041F254452FD0306B00281FBF0269002AC6
:101920004069002808BF41F2534524D01046216881
:10193000FFF7BAFC05001ED1306B61684069FFF704
:10194000B3FC050017D10121A06802F02BFC0B4865
:1019500001218160826802680092521C04D1009AC1
:1019600002600068009028B1D4E900022260A268F9
:10197000C4E901202173284678BD000000300240F0
:101980002DE9F0418AB04FF00008CDF80C801546E3
:101990000E460700CDF80480CDF80880CDF82080F1
:1019A0001ABF002E002D41F2544400F01281306B1A
:1019B000002808BF41F2534400F00B8181680029E0
:1019C0001CBFC268002A20D04268002A1CBF0068E1
:1019D00000281AD0387B022808BF41F2554400F095
:1019E000F880286860B18879EA8800EB400102EB52
:1019F00081014C2202EBC0000844A988884208D922
:101A00000AB040F2ED30BDE8F08141F2574400F0F9
:101A1000E0B82A46314603A8FFF7E4FE040040F090
:101A2000D880306B81683868FFF7A0FB002806DAA1
:101A3000306B81687868FFF799FB002803DB41F27F
:101A4000554400F0C2B838460399FFF75DFD306B8E
:101A50002A4604A9806802F077FE040040F0B580B1
:101A6000306B2A468068817902A804F0B6FE040033
:101A700076D1306B2A468068817901A804F0ADFEEA
:101A800004006FF003076CD1039804AB059900685C
:101A9000024603F06BFB04007CD1039804AB05996C
:101AA0004068024603F062FB040073D1039804AB64
:101AB00082680068014603F059FB04006AD1306B6C
:101AC00002990068FFF7F0FBDDE9012004AB0599FE
:101AD00003F04CFB04005DD10095DDE9030301999F
:101AE0008068024602F08FFC040053D1039804ABD7
:101AF000816800680A4603F039FB04004AD1306B64
:101B000002994068FFF7D0FBDDE9012004AB05999D
:101B100003F02CFB04003DD10095DDE9030301999E
:101B20008068024602F06FFC040033D1039804ABD6
:101B3000D0E90020014603F019FB04002AD1274810
:101B4000012141F255448160816801680891491C76
:101B500008D0039800680146FFF708FB78B917E042
:101B600030E023E00899016000680890002803989D
:101B700006D000680146FFF7F9FA00B908E009E06D
:101B800081680068FFF7F2FA002808BF002401E02E
:101B900041F25244019848B18079E988404207EB0C
:101BA000800008440838E880CDF80480029848B1E5
:101BB0008079E988404207EB800008440838E880D3
:101BC000CDF8088004A803F0B8FA294603A8FFF767
:101BD0000CFD0AB02046BDE8F08100000030024054
:101BE000002812BF002941F25440704730B5044626
:101BF00000680D46002804BF41F2544030BD04F097
:101C00000DFE20682946001D04F008FEE88808380B
:101C1000E8800020206030BD002919BF002A00287C
:101C200041F25440704770B50546086B14460E46A5
:101C300000281FBF21680029C268002A04BF41F2A2
:101C4000534070BDE0889279202303EBC202A38841
:101C500002449A421BD808442860E0882246083093
:101C6000E080306BC0688179286804F0B6FD70B9F7
:101C7000306B2246C06881792868001D04F0ADFDF4
:101C8000002808BF70BD2146286804F0C7FD40F257
:101C9000ED3070BD9446002818BFBCF1000F0AD08B
:101CA0000268002A1CBF4068002804D031B1012915
:101CB00008BF024602D041F25440704719466046C0
:101CC00006F030BC2DE9F0478CB04FF00008CDF89D
:101CD0001880149ECDF804801D4617468A465FEA98
:101CE0000009CDF81C80CDF82C80CDF8288018BFD5
:101CF000002F38D0002D18BF002E34D0686800287F
:101D00001CBF2968002932D0016B00291CBF306834
:101D100000282CD0386800281CBF7A68002A26D0FA
:101D2000CB68002B1CBF0A69002A24D08A68002ACD
:101D30001CBF096800291ED09279F18802EBC2020B
:101D400001EB82019A794FF0B40C0CEBC202114402
:101D5000B288914288BF40F2ED3400F2448181881C
:101D600001290FD10BE041F2544400F03CB941F29B
:101D7000534400F038B941F2574400F034B90168D7
:101D8000096899B11946FFF7F1F9401C0ED17A683C
:101D90009088012802D11068006838B16868006B2B
:101DA000C1681046FFF7E2F9401C03D04FF47B7482
:101DB00000F019B968683246006BC068817907A8DD
:101DC00004F00BFD040040F00E816868006BC068F1
:101DD000FFF7B9FAB0EBCA0F19DA6868006BC06890
:101DE000FFF7B1FAC01DC11700EB5170C4102146B6
:101DF0004846079A06F096FB6868006BC068FFF7D4
:101E0000A2FAC0EBC401079803F0E6FF04E05146D4
:101E10004846079A06F086FB68683246006BC06841
:101E2000817906A804F0D9FC04006FF0030940F0A2
:101E3000CB80686833460699006BC268786802F008
:101E400049FB04007ED16868324602A9006BC06875
:101E500002F07AFC040075D1069A02AB1046039991
:101E600003F084F904006ED10399059859B150B17B
:101E7000039AC1889279524209EB820211440839CF
:101E8000C180CDF80C80079A02AB1046069903F08A
:101E90006DF9040056D1069A02AB3868114603F07A
:101EA00065F904004ED102A803F047F9686832468C
:101EB00002A9006B806802F047FC040075D132462D
:101EC00001A86968FFF78EFC04006BD1696801986E
:101ED000FFF716FD32460BA86968FFF783FC040084
:101EE0005CD10DF1080ACDF800A06B680B9A01993E
:101EF000079803F055FA04004CD1CDF800A0D5E9BD
:101F00000013019A069803F04BFA040042D13246BE
:101F10000AA86968FFF766FC04003BD1CDF800A071
:101F2000DDE90A216B68019802F0C3FD04002DD1A0
:101F30000A9902AA084603F09AFC040026D10A98DE
:101F4000007B01E031E02DE002281DD06868006BC5
:101F5000C1680A980068FFF709F900280A980ADBA7
:101F6000696800683346096B0246C96804F09CFC46
:101F70000400EBD00AE001683868FFF7F7F80028A2
:101F800008BF40F2EB3401D04FF47B7431460AA80D
:101F9000FFF72BFB31460BA8FFF727FB314601A8C3
:101FA000FFF723FB02A803F0C8F80698002818BF23
:101FB000002E09D08079F188404209EB8000084466
:101FC0000838F080CDF818800798002818BF002E38
:101FD00009D08079F188404209EB80000844083834
:101FE000F080CDF81C800CB02046BDE8F0870000E2
:101FF0000D4B036020338360203343602033C36084
:10200000203303612033436120238361C361436232
:1020100003628362C3620548086032304860323030
:102020001060323050607047B29400080CDB012021
:10203000012000F0ADBA042000F0AABA10B590B0AB
:1020400020216846FEF7EBF820220BA108A8FEF736
:10205000BFF8032420236A4600212046FEF704FA35
:10206000641CE4B20E2CF5D3202308AA00210E2014
:10207000FEF7FAF910B010BD0100000000000000EA
:102080000000000000000000000000000000000050
:102090000000000000000000002229B101291FD02B
:1020A000022920D04FF4407210490B6823F440738A
:1020B0000B600B6813430B600A6822F0F8020A6099
:1020C0000A68F82393FAA3F3B3FA83F3984040F035
:1020D000020002430A60086840F4803008607047DC
:1020E0004FF48072E0E74FF40072DDE7103C0240ED
:1020F0001348016889050FD5016821F4007101605A
:10210000016841F400610160016821F4006101602F
:10211000016841F400710160016849050FD501684B
:1021200021F480610160016841F48051016001681F
:1021300021F480510160016841F4806101607047C1
:10214000003C024008490A6822F440720A600A68AA
:1021500042F004020A600A684FF4803343EA002028
:1021600002430A6070470000103C0240064A1368B0
:1021700023F44073136013681360136843F0010382
:102180001360017070470000103C0240084910B510
:102190000C6824F440740C600C6844F440740C60C7
:1021A0000C6844F001040C600260436010BD000044
:1021B000103C0240074A136823F44073136013680D
:1021C00043F480731360136843F0010313600180CC
:1021D00070470000103C0240074A136823F4407324
:1021E0001360136843F400731360136843F0010332
:1021F0001360016070470000103C024017490868F6
:10220000C206174805D5C26942F01002C261102209
:102210000A600A68920605D5C26942F00802C261E6
:1022200020220A600A68520605D5C26942F00402FB
:10223000C26140220A600A68120605D5C26942F0EE
:102240000202C26180220A600A68920705D5C2694B
:1022500042F02002C2610220086070470C3C02403C
:102260002C2C002070B5114904460020C86100F0F4
:1022700079FA06460E4D09E0601C07D024B100F043
:1022800071FA801BA04201D9032070BD2868C003E9
:10229000F2D42868C00701D001202860286810F017
:1022A000F200F2D0FFF7AAFF012070BD2C2C002015
:1022B0000C3C024030B48288012A05D101680968CB
:1022C000002904BF30BC70470021012A12D0521EE1
:1022D0004FF0040C03680CEB810553F821405D5D61
:1022E000640844EAC57443F82140491C521EF1D1E8
:1022F0008188491E026852F821305B0842F821307B
:10230000818801299CBF30BC7047002B04BF491E47
:10231000818030BC70472DE9F04781460E4602F1BE
:102320001C00C1B206F11C001F461546C0B2DDF804
:10233000208004F0D0F94146384604F0DDF904F07D
:10234000FDF9AE1B0024A8EB0707761C7F1C0FE0ED
:10235000002509E00121484603F040FC01214846E0
:1023600003F03CFC6D1CEDB2AE42F3DC641CE4B245
:10237000A742EDDCBDE8F08770B506467721002066
:1023800004F0A9F97F21002004F0B6F904F0D6F991
:10239000002400250121304603F020FC01213046B5
:1023A00003F01CFC6D1CEDB2782DF3D3641CE4B279
:1023B000802CEED370BD10B500F0D4F980B210BD02
:1023C00010B5040002D0607910B106E0012010BD04
:1023D00000202071204600F007F8022060710120E3
:1023E0006071002010BD000008B5006806498842F1
:1023F00008D10648016841F480510160006800F48A
:102400008050009008BD000000300240303802408B
:1024100031B500F0A7F9009C0546601C00D0641C93
:1024200000F0A0F9401BA042FAD338BD2DE9F047D7
:10243000044622480F46017E01290AD00121804628
:1024400001764CF250394846FFF70CFF020003D0EA
:102450002FE00220BDE8F0874FF0FF3038602068A1
:10246000174D012801D0A6681CE0207C6168FFF7A9
:1024700069FE4846FFF7F6FE0246286820F0040091
:10248000286014E0217C3046FFF706FE4846FFF73F
:10249000E9FE0200286820F0FA00286001D03E60C2
:1024A00005E0761CD4E902100844B042EAD8FFF7F0
:1024B0001FFE002188F818101046CBE72C2C0020B6
:1024C000103C02400348016841F0004101600020D7
:1024D00070470000103C02402DE9F0471B4E0546B6
:1024E0001446307E1F468946012808D001203076E8
:1024F0004CF250384046FFF7B5FE18B114E0022008
:10250000BDE8F0879DB1012D16D0022D19D02246CD
:102510003B464846FFF73AFE4046FFF7A3FE0C490C
:102520000A6822F001020A6000213176E8E7E1B290
:102530004846FFF71BFEEFE7A1B24846FFF73AFE19
:10254000EAE721464846FFF747FEE5E72C2C002046
:10255000103C024006480068002807DA0448054994
:102560000C38016004490160002070470120704769
:10257000103C024023016745AB89EFCD012803D011
:10258000042803D1FEF742B801F070BC7047000088
:10259000044910B50A68024202D00860FFF7EEFF56
:1025A00010BD0000143C01402DE9F84FDFF87CB16C
:1025B00000224FF001084FF0030A4FF00F090BF112
:1025C000040E00BF0B6808FA02F42340A3426ED148
:1025D0004D68022D01D0122D0ED1D50800EB850CCF
:1025E000DCF820505607F70E09FA07F6B5430E69D6
:1025F000BE402E43CCF82060066855000F790AFAD9
:1026000005FC07F0030726EA0C06AF4037430760D6
:102610004E68012E05D0022E03D0112E01D0122EAD
:102620000ED18668CF6826EA0C06AF403743876034
:102630004668A6430C79C4F30014944034434460C4
:10264000C6688C6826EA0C06AC403443C4604C680B
:10265000E40065D5364C256845F48045256024683E
:1026600022F0030504F480440094324C2E19D6F86D
:10267000084895072F0F09FA07F5AC432E4DA842DD
:1026800001D1002524E02D4DA84201D101251FE0F4
:102690002B4DA84201D102251AE02A4DA84201D1B2
:1026A000032515E0284DA84202D1042510E037E0AB
:1026B000264DA84201D105250AE0254DA84201D1A9
:1026C000062505E0234DA84201D1072500E0082595
:1026D000BD402543C6F80858DBF800405D464E680B
:1026E0009C43F60300D51C432C60DEF80040754681
:1026F0004E689C43B60300D51C432C600B4D083537
:102700002C684E689C43F60200D51C432C60074D94
:102710000C352C684E689C43B60200D51C432C60D7
:10272000521C102AFFF44EAFBDE8F88F003C014068
:1027300044380240003001400000024000040240E2
:1027400000080240000C0240001002400014024049
:1027500000180240001C02400AB181617047090460
:10276000FBE70000014800687047000024260020B5
:1027700002480168491C01607047000024260020BF
:102780000B4810B5016841F400710160016841F423
:1027900080610160016841F480710160052000F0F2
:1027A00075F8002000F006F800F018F8002010BDC1
:1027B000003C024010B5044607484FF47A710068A7
:1027C000B0FBF1F001F007F800222146501E00F0A6
:1027D0003DF8002010BD00000000002010B50320CF
:1027E00000F054F8002211466FF00B0000F02EF8B4
:1027F000002211466FF00A0000F028F8002211466E
:102800006FF0090000F022F800221146501F00F07E
:102810001DF800221146101F00F018F80022114682
:10282000901E00F013F80022BDE810401146501E23
:1028300000F00CB800F01F02012191404009800017
:1028400000F1E020C0F8001170470000F0B40E4B1A
:102850001B680C46C3F30223C3F10705042D00D9FE
:102860000425191D072901D2002300E0DB1E0126E3
:1028700006FA05F1491E214099409E40761E1640F9
:102880003143F0BC02F0E3BF0CED00E0064900F07C
:10289000070208684FF6FF03184040EA0220034A87
:1028A00010430860704700000CED00E00000FA05DE
:1028B0000068416200207047F0B500680023446A58
:1028C00031B1856A4FF4827604EB15444D1E0AE05F
:1028D00044EA024181620FE006EB8307C7595B1CA3
:1028E00004EB1744DBB2AB42F6DB4FF4807303EB2F
:1028F000810144EA024242500020F0BDD0F8EC03CE
:1029000004F089BEC1EBC10200EB8202D0F8EC03F7
:10291000526C04F0F6BDC1EBC10200EB8202D0F8AC
:10292000EC03D2F8042204F041BED0F8EC0304F02A
:1029300074BE10B504460A460B0601F07F00C0EBDA
:10294000C00104EB810101D5383101E001F5FC71D2
:102950000870D009487094F8B803012809D0012004
:1029600084F8B803206805F0B1F9002084F8B803B2
:1029700010BD022010BD70B50A460446090602F0DB
:102980007F0005D5C0EBC00104EB8101383105E0C3
:10299000C2EBC20104EB810101F5FC7100258D70D1
:1029A0000870D009487094F8B803012809D00120B4
:1029B00084F8B803206805F06AFB84F8B853002057
:1029C00070BD022070BD70B504460D460E0601F0C4
:1029D0007F00C0EBC00104EB810101D5383101E07B
:1029E00001F5FC71ED0908704D708A60CB7000D064
:1029F000C8800025022B00D10D7194F8B80301287E
:102A000009D0012084F8B803206805F0A5F828460D
:102A100084F8B85370BD022070BD70B50C4601F04B
:102A20007F05C5EBC50100EB8101C1F80C32C1F88F
:102A300004220023C1F8103281F8F93181F8F851ED
:102A4000036901F5FC71012B00D10A616206027C69
:102A5000006803D005F07CFB002070BD05F058FA3B
:102A6000FAE770B50D460446090605F07F0005D566
:102A7000C0EBC00104EB8101383105E0C5EBC501B5
:102A800004EB810101F5FC7101228A700870E809EC
:102A9000487094F8B803012807D084F8B823206858
:102AA00005F027FB680602D007E0022070BD217CFC
:102AB00004F56F72206805F0CBFA002084F8B803A3
:102AC00070BD70B50C4601F07F05C5EBC50100EB8C
:102AD0008101CB644A6400230B65012381F83930FE
:102AE00001F8385F0369012B00D10A616206027C9C
:102AF000006803D005F02CFB002070BD05F008FA3B
:102B0000FAE700002DE9F84F044600680026054664
:102B100005F072FC002875D1206805F096FC0028AD
:102B200070D0206805F091FC800704D520684169C9
:102B300001F002014161206805F087FC010304F502
:102B40006F704FF0010B4FF0000A00904DD52068D8
:102B500005F05DFC074646E0F80742D0F1B2206878
:102B600005F06BFC8046C00728D005EB4612C2F882
:102B700008BB2069012811D1C6EBC60004EB800117
:102B8000D2F8102BD1F80002C2F31202821AC1F857
:102B90001022D1F804221044C1F80402F1B22046F8
:102BA000FFF7B9FE2069012808D13EB9D4F80C021C
:102BB00020B920680121009A05F04AFA5FEA0870FE
:102BC00007D5204600F0DCFA05EB46110820C1F8D5
:102BD000080B5FEAC86004D505EB46111020C1F868
:102BE000080B7F08761C002FB6D1206805F02DFC5D
:102BF00040034FF040095ED5206805F001FC074610
:102C0000002656E0D2E1F80751D0F1B2206805F075
:102C100005FC8046C00724D0D5F834280BFA06F00E
:102C20008243C5F8342805EB4610C0F808B920697E
:102C3000012807D1C6EBC60004EB8000D0E91012D2
:102C400011444164F1B22046FFF75CFE206901287F
:102C500007D136B9E06C20B920680121009A05F04F
:102C6000F7F95FEA087004D505EB46110820C1F8B2
:102C700008095FEAC86004D505EB46111020C1F8C9
:102C800008095FEA486003D505EB4611C1F80899C9
:102C90005FEA887004D505EB46110220C1F80809E7
:102CA0005FEA086003D53146204602F0D9FF7F086D
:102CB000761C002FA7D1206805F0C7FB00280DDA8D
:102CC000D5F8040820F00100C5F80408204600F0FB
:102CD0003DFA2168486900F000404861206805F02D
:102CE000B4FB00050BD5D5F80808C00702D0204674
:102CF00000F062FA2068416901F4006141612068D6
:102D000005F0A3FBC0044CD5D5F8040820F0010061
:102D1000C5F804081021206805F03EFB0020FF21C3
:102D200007E000BF05EB4012C2F80819C2F8081B03
:102D3000401C62688242F5D84FF0FF30C5F8180891
:102D4000D5F81C0840F00110C5F81C08206B60B1D4
:102D5000D5F8840840F00B00C5F88408D5F844087D
:102D600040F00B00C5F844080BE0D5F8140840F01B
:102D70000B00C5F81408D5F8100840F00B00C5F892
:102D80001008D5F8000820F4FE60C5F80008217C82
:102D90002068009A05F05CF92168486900F48050C9
:102DA0004861206805F051FB80047DD5206804F05F
:102DB00013FF2068C16821F47051C160206805F0DC
:102DC000FDFA78B10320C4F81490E06000F0CAFA6C
:102DD0007749784A014491420AD22068C16841F497
:102DE000705158E04FF40070C4F80CA0606136E0F8
:102DF0007149724A0144914204D22068C16841F489
:102E0000605148E06E496F4A0144914204D2206803
:102E1000C16841F450513EE06B496C4A0144914213
:102E200004D22068C16841F4405134E06849694ADD
:102E30000144914204D22068C16841F430512AE033
:102E40006549664A0144914204D22068C16841F450
:102E5000205120E06249421862498A4204D2206827
:102E6000C16841F4105116E05F49604A0144914243
:102E700004D22068C16841F400510CE05C49084468
:102E80005C4988422068C16803D241F4E05102E005
:102E90000AE041F4C051C160204600F047F92068C3
:102EA000416901F400514161206805F0CEFAC00685
:102EB00036D52168886920F010008861D5F8208017
:102EC00008F00F00C0EBC00004EB8007C8F34340DC
:102ED00007F5FC77022802D0062812D01BE047F63F
:102EE000F07018EA000F16D0C8F30A129046284670
:102EF000F96805F0AEFAF8684044F860B8694044F3
:102F000008E008222846009905F0A3FAB969C8F339
:102F10000A100844B8612068816941F0100181619C
:102F2000206805F092FA000707D5204600F012F954
:102F30002068416901F008014161206805F085FAC7
:102F4000C00208D5F1B2204600F056F82068416969
:102F500001F480114161206805F077FA800208D5FC
:102F6000F1B2204600F04CF82068416901F40011EC
:102F70004161206805F069FA400007D52046FFF757
:102F8000BDFC2068416901F080414161206805F085
:102F90005CFA40070AD520684568680702D52046D4
:102FA000FFF7C3FC2068416829434160BDE8F88F02
:102FB000405327FF00350C00401E1BFF40420F000E
:102FC00000DC0BFF804F1200808CF9FE20D613002E
:102FD00060B6E5FE60E3160000D3CEFE40771B002E
:102FE000C05BB3FEC091210000CA91FE207538007D
:102FF000E05459FEE09C4100D0F8EC0304F066BBBD
:10300000D0F8EC0304F064BBF0B58BB004004FF0D3
:10301000000556D0032084F8B903204600F054F888
:10302000206804F06FFF04F1100128220F46684663
:10303000FDF7CEF894E80F0004F0E8FD00212068C9
:1030400005F017FA01260020C5EBC50104EB81014C
:1030500081F8396001F8385FCD80C8708860C86039
:103060006D1C48610F2DEFD300214FF4827300BF18
:10307000C1EBC10204EB820203EB810582F8F90186
:1030800082F8F811D18782F8FB01C2F80002C2F879
:103090000402C2F80C0222685051491C0F29E7D3E0
:1030A000282239466846FDF793F894E80F0004F0AB
:1030B00089FE84F8B963206804F078FE00200BB024
:1030C000F0BD0120FBE7000000B5006887B0B0F15B
:1030D000A04F25D14FF4C050009002200190002055
:1030E0000290032003900A20049069460D48FFF7E0
:1030F0005BFA0D48016841F0800101600A48103018
:10310000016841F4804101600068002200F48040C1
:10311000059011464320FFF799FB4320FFF78AFBF8
:1031200007B000BD000002403438024010B504462C
:10313000C068012100B90021D4F8EC0304F01EFBA3
:10314000D4F8EC03BDE8104004F0E7BAD0F8EC0383
:1031500004F002BBD0F8EC0304F004BB10B5044645
:1031600090F8B803012809D0012084F8B80320683A
:1031700005F095F9002084F8B80310BD022010BDB9
:10318000D0F8EC2300F56F71104604F00ABB10B5BF
:10319000044690F8B80301280CD0012084F8B80345
:1031A000206804F0F7FD206805F0E0F8002084F8BE
:1031B000B80310BD022010BD10B50446D0F8EC03D2
:1031C00004F03CFB2068D0F8001E41F00101C0F87B
:1031D000001E206A002804D00248016841F0060160
:1031E000016010BD10ED00E02DE9F047DFF86491BB
:1031F00005460F46D9F8000000F00F01F8B28046EE
:10320000B94208D2014689F80010D9F8000000F050
:103210000F00B84274D128784F4C800705D520683C
:10322000A96820F0F000084320602878C00759D032
:1032300049496868083901281AD002281BD0032898
:1032400019D00968890700295ADA216821F0030199
:1032500001432160FFF786FA6968064641F288302B
:10326000012911D002291DD00329824627D035E03B
:1032700009688903E7E709688901E4E7FFF772FA5B
:10328000811B514501D926E082462068C0F38100A8
:103290000128F3D126E000BFFFF764FA811B5145F6
:1032A00001D918E082462068C0F381000228F3D1DA
:1032B00018E000BFFFF756FA811B51450BD8206874
:1032C000C0F381000328F5D10CE000BFFFF74AFAF4
:1032D000811B514502D90320BDE8F087206810F01A
:1032E0000C0FF3D1D9F80010484601F00F01B94294
:1032F00008D980F80080006800F00F00B84201D0C3
:103300000120E9E72878400705D52068E96820F41E
:10331000E050084320602878000706D52068296916
:1033200020F4604040EAC100206000F051F82168BC
:10333000F02292FAA2F201F0F001B2FA82F2D14048
:10334000064A515CC840064908600020FFF732FA7F
:103350000020C1E7003C0240083802409A9400086F
:1033600000000020014800687047000000000020B5
:1033700008480949006809684FF4E05292FAA2F23D
:1033800001F4E051B2FA82F2D140044A515CC840E3
:10339000704700000000002008380240AA9400088E
:1033A00008480949006809684FF4604292FAA2F29D
:1033B00001F46041B2FA82F2D140044A515CC84043
:1033C000704700000000002008380240AA9400085E
:1033D00030B51948006810F00C01184812D044109C
:1033E00004290ED008290DD11349091F0A6802F0DB
:1033F0003F030A68550247F6C07204D5B4FBF3F0E8
:1034000003E0204630BDB0FBF3F00B6809681340C1
:1034100092FAA2F2B2FA82F2D34058434FF4403209
:1034200092FAA2F201F44031B2FA82F2D140491C80
:103430004900B0FBF1F030BD083802400024F40030
:103440002DE9F84F0546DFF8FC920078A9F1040B4E
:10345000C007ABF1040449D0D9F800104846C1F3C5
:103460008101012908D00068C0F3810002280AD137
:10347000DBF80000400206D52068800336D5686876
:1034800000286ED032E06868B0F5803F10D0B0F50B
:10349000A02F206810D020F480302060206820F415
:1034A000802020606868A0B1FFF75CF906460CE058
:1034B000206840F48030F4E740F480202060F7E793
:1034C000FFF750F9801B642871D820688003F7D576
:1034D0000CE0FFF747F9064605E000BFFFF742F9A9
:1034E000801B6428F0D820688003F7D42878964F92
:1034F00080074FF0010A4FF0000841D5D9F80010BD
:10350000484611F00C0F08D00068C0F38100022873
:103510000AD1DBF80000400206D42068800713D5EA
:10352000E86801281DD10FE0E868D8B1C7F800A00D
:10353000FFF718F9064604E0FFF714F9801B02288C
:10354000C2D820688007F7D52068F82292FAA2F244
:103550002969B2FA82F220F0F80091400843206015
:103560000EE0ECE0C7F80080FFF7FCF8064604E048
:10357000FFF7F8F8801B022819D820688007F7D4D5
:103580002878000724D57148696989B1C0F800A07E
:10359000FFF7E8F8064604E0FFF7E4F8801B02288E
:1035A00005D868486C3000688007F5D510E07AE0EF
:1035B000C0F80080FFF7D6F8064604E0FFF7D2F81F
:1035C000801B02286FD85F486C3000688007F5D4F4
:1035D0002878400753D55B483830016841F0805166
:1035E0000160006800F0805000905948016841F483
:1035F00080710160FFF7B6F8064604E0FFF7B2F805
:10360000801B02284FD852480068C005F6D54D4EA1
:10361000A868683601280FD00528306810D020F03F
:1036200001003060306820F004003060A868B8B154
:10363000FFF798F800900FE0306840F00100F4E7E1
:1036400040F004003060F7E7FFF78CF80099411A6A
:1036500041F2883081426AD830688007F4D50EE0A4
:10366000FFF780F8009007E0FFF77CF80099411A17
:1036700041F2883081425AD830688007F4D4A86972
:10368000E8B3D9F80010C1F38101022957D002280C
:10369000C7F8608003D0FFF765F805464AE0FFF7FA
:1036A00061F8064605E042E0FFF75CF8801B02285F
:1036B0003DD820688001F7D4D5E90701084347F6D3
:1036C000C07292FAA2F2696AB2FA82F29140AA6AD0
:1036D0004FF0FF3303EB52024FF4403393FAA3F35E
:1036E000B3FA83F39A40114308434FF0706292FAA1
:1036F000A2F2E96AB2FA82F29140084300E01CE0CB
:10370000CBF80000C7F860A0FFF72CF8054604E0EE
:10371000FFF728F8401B022809D820688001F7D558
:103720000BE000BFFFF71EF8401B022802D9032060
:10373000BDE8F88F20688001F4D40020F8E701206C
:10374000F6E700000838024000004742800E47427A
:103750000070004070B5040008D02079012807D01F
:10376000012525716079002620B107E0012070BD98
:10377000022070BD2671204600F00CF80220607116
:103780002068016841F00401016065712671002024
:1037900070BD000008B500680649884208D1064897
:1037A000016841F040010160006800F040000090B5
:1037B00008BD000000080650343802404FF0E021F8
:1037C0000428086903D020F004000861704740F025
:1037D0000400FAE7704710B5401EB0F1807F01D3B6
:1037E000012010BD4FF0E02460610F21601702F04E
:1037F0002EF80020A06107202061002010BD10B528
:10380000FFF7E8FF10BD7047704710B5040003D004
:1038100094F8390010B107E0012010BD002084F8B1
:103820003800204600F00CF8022084F83900211DF1
:10383000206803F02BFA012084F83900002010BD25
:1038400008B500680B49884212D10B48016841F065
:10385000020101600068032200F0020000900121D3
:103860001D20FEF7F3FFBDE808401D20FEF7E2BF74
:1038700008BD000000040040403802400168CA68EA
:1038800042F00102CA600068016841F00101016074
:1038900000207047704770B50446006801694FF01A
:1038A0000005C943890715D4C168C943890711D4E4
:1038B000E91E01610120207620688069800720468A
:1038C00002D0FFF7E7FF04E000F098F8204600F090
:1038D00096F8257620680169C943490717D4C1685D
:1038E000C943490713D46FF0040101610220207617
:1038F0002068806910F4407F204602D0FFF7CAFF9D
:1039000004E000F07BF8204600F079F82576206886
:103910000169C943090716D4C168C943090712D40C
:103920006FF008010161042020762068C0698007DB
:10393000204602D0FFF7AEFF04E000F05FF820461B
:1039400000F05DF8257620680169C943C90617D4DF
:10395000C168C943C90613D46FF010010161082082
:1039600020762068C06910F4407F204602D0FFF71F
:1039700091FF04E000F042F8204600F040F8257680
:1039800020680169C943C90708D1C168C943C9078B
:1039900004D1891E0161204600F032F820680169D7
:1039A000C943090609D4C168C943090605D46FF0A3
:1039B000800101612046FFF726FF20680169C943A5
:1039C000490609D4C168C943490605D46FF04001CE
:1039D0000161204600F020F820680169C94389068A
:1039E0000BD4C168C943890607D46FF02001016177
:1039F0002046BDE87040FFF707BF70BD70477047B5
:103A00000349884203D103480168491C016070479B
:103A1000F02B00202C250020704770B5040004D046
:103A200094F83900002510B106E0012070BD84F83B
:103A30003850204600F022F8242084F8390020680D
:103A4000C16821F40051C160204603F07FF920686D
:103A5000016921F4904101612068416921F02A0146
:103A600041612068C16841F40051C160E5632020D4
:103A700084F8390084F83A00002070BD30B5006841
:103A8000164D022101220323072487B0A8420ED13C
:103A90001348056845F010050560006800F0100047
:103AA0000590C0208DE81F0069460E4811E00E4DBC
:103AB000A84210D10A48001F056845F4003505608A
:103AC000006800F4003005900C208DE81F00694666
:103AD0000648FEF769FD07B030BD00000010014048
:103AE000443802400004024000440040000002400C
:103AF00070B50C461546810801F11F02D01E114613
:103B000002F0E9FD04F10B00C1B2204602F0F4FD21
:103B100002F014FE064E002405EB450504EBC5003B
:103B2000305CFDF777FB641CE4B2182CF6D370BD53
:103B30009F1F0020FEE7000002480068401C00D0E4
:103B400001207047000001082DE9F04F89B00546BB
:103B500005F0FAF9002873D02888574C40BAA0F530
:103B6000807004F10806013817D0544FA12830D0D6
:103B7000214601F12C0801F16C0907F1410A4FF4CB
:103B8000DC3BA2283FD0B0F5857F63D04CA000BFBE
:103B900004F06CFD09B0BDE8F08F68886085E879B5
:103BA000696860F31F6149A0216004F05FFD202275
:103BB00005F108013046FCF70BFB2068B0F5C83F63
:103BC00003D2012000F0AAF8E4E7002000F0A6F8F4
:103BD0006DE0AE88B6F5006F02D941A004F046FD55
:103BE0006888218D81420AD106EBC60000EB0610E1
:103BF00007EB40003222A91DFCF7EAFACAE73DA014
:103C000004F034FD53E020236A462C48216802F07A
:103C10008DFB202231466846FDF79AFA88B1402292
:103C2000791C4046FCF7D4FA216820234A465046C6
:103C3000413902F07BFB6946012000F0B7F8A9E7A3
:103C400038E059461D48FCF7EAFA6946002000F0C2
:103C5000ADF82CE06D884A4641462A48FDF7CCF97C
:103C6000E8B1042002F01CFC052002F019FC2268D7
:103C7000254C51462046413A05F0E2F929460120FB
:103C800000F0CEF84FF4FA70FEF7C2FBFDF778FBB8
:103C90000020FEF771FB204605F0BCF97AE7594693
:103CA0000648FCF7BCFA2946002000F0B9F804F0F9
:103CB0001BFC6FE715A06BE700CC01200030002053
:103CC000556E6B6E6F7720436D640A0062696E20DB
:103CD00066696C652073697A653A25640A0000009C
:103CE0006572726F722050616765496E6465780A0B
:103CF000000000006572726F722053657269616C1A
:103D000049440A0033250020000001084372632063
:103D10004572726F722121210A00000030B591B006
:103D2000054640216846FCF77AFA01248DF80040E8
:103D3000FEF741FB1B49322208858DF80200000A7C
:103D40008DF8030008683130B0FBF2F04860ADB187
:103D500010218DF8011000218DF804108DF8051048
:103D60008DF80600000A0F498DF80700202208315F
:103D700002A8FCF72DFA0C48047002E0E0208DF850
:103D800001003E226946002005F0ACF88DF83E00A7
:103D9000000A8DF83F004021684603F0CFFE11B0C5
:103DA00030BD000000CC01203025002030B591B09E
:103DB0000C46054640216846FCF731FA01208DF893
:103DC00000000DB1112000E0122014498DF801000F
:103DD0002022488D8DF80200000A8DF80300002093
:103DE0008DF804008DF8050088888DF80600000A1B
:103DF0008DF80700214602A8FCF7EAF93E22694641
:103E0000002005F06FF88DF83E00000A8DF83F00A5
:103E10004021684603F092FE11B030BD00CC012075
:103E200030B591B00C46054640216846FCF7F7F9DD
:103E300002208DF800000DB1C32000E0C4208DF8F1
:103E400001008DF80240200A8DF803003E226946E9
:103E5000002005F047F88DF83E00000A8DF83F007D
:103E60004021684603F06AFE11B030BD70B50A4CBF
:103E7000207838B1094D286820B109A004F0F6FB7C
:103E80000120A8606078002804D0BDE87040502070
:103E900001F072BA70BD000008000020DC2B002089
:103EA000D6D0BCE4B0B4BCFCB0B4CFC2A3A1A3A133
:103EB000A3A10A0010B5044600F008F9582000F04C
:103EC000D5F800F045F9204600F0D0F800F040F9B0
:103ED00000F01CF900F0FAF8592000F0C7F800F0E3
:103EE00037F9012000F08EF80402002000F08AF873
:103EF000044300F00BF9204610BD70B50C46054692
:103F000000F0E4F8582000F0B1F800F021F928465C
:103F100000F0ACF800F01CF9200A00F0A7F800F05F
:103F200017F9E0B200F0A2F800F012F900F0EEF894
:103F3000BDE870400A20FEF76BBA000070B50D4C6A
:103F40000025C4F8A8520C48016821F44001016022
:103F5000016841F480010160C4F8AC52022004F50C
:103F60002A7405F009F801202060022005F004F809
:103F7000256070BD00804042000402400E4810B52C
:103F8000016886B041F0020101600068012400F080
:103F9000020005904FF44060CDE900040320CDE914
:103FA000024069460548FEF7FFFA0548C0F8AC42F2
:103FB000C0F8A84206B010BD3038024000040240EC
:103FC0000080404270B50D4C0025C4F8A8520C4842
:103FD000016821F440010160016841F48001016041
:103FE0000126C4F8AC62022004F52A7404F0C4FF70
:103FF0002660022004F0C0FF256070BD00804042B2
:10400000000402402DE9F04781461648002401686B
:1040100021F44001016001680160134E25462746E6
:104020004FF00108C6F8A872022004F0A5FFC6F8F8
:10403000A8826006040ED6F82C0208B1641CE4B213
:10404000012004F099FF6D1CEDB2082DEAD3B9F1FF
:10405000000F04D0FFF772FF2046BDE8F087FFF79E
:10406000B1FFF9E700040240008040422DE9F04131
:1040700006461448016821F440010160016841F4DA
:1040800080010160104C0027C4F8A8723D464FF033
:104090000108F009C4F8AC027006060E022004F014
:1040A0006BFFC4F8A882022004F066FFC4F8A8726F
:1040B000022004F061FF6D1CEDB2082DE9D3BDE8CC
:1040C000F0810000000402400080404270B50D48BD
:1040D000016821F440010160016841F48001016040
:1040E000094C0120C4F8AC02C4F8A802042004F56D
:1040F0002A7404F041FF00256560042004F03CFFB1
:10410000256070BD00040240008040420E4810B59A
:10411000016821F440010160016841F480010160FF
:104120000A4C0020C4F8A802C4F8AC02042004F52C
:104130002A7404F021FF012020606060BDE8104077
:10414000042004F019BF0000000402400080404237
:1041500070B512480024016821F440010160016833
:1041600001600F4D0126C5F8AC62304604F004FF33
:10417000C5F8A862012004F0FFFE07E0641CE4B269
:10418000FA2C03D9FFF7C2FF012070BDD5F82C022D
:104190000028F3D1C5F8A80270BD00000004024059
:1041A0000080404270B48279002302B39C4612F032
:1041B00001024FF0040405D0D0F800C0CCF8043060
:1041C0004FF0010C8579954211D900BF056804EBC9
:1041D0008C060CF1010CAB51056804EB8C06921CAB
:1041E000AB51857992B20CF1010C9542EED80122C7
:1041F0008280002904DBC3710068016070BC7047D5
:10420000C27100684942016070BC704770B50546D4
:1042100014210748FCF703F8054C012D04D0FCF7E6
:10422000A7F90020206070BDFCF7C9F90120F9E76B
:10423000DC2B00202DE9F00700293FD083886FF0A8
:104240000308026808EB830C002752F80C20C1F128
:104250002004E24018BF1746012B19D000225B1E34
:104260006FF007098588D0F800C0AE1A08EB860504
:1042700009EB86065CF805A05CF806600AFA01FA0C
:10428000E6404AEA0606521C4CF805605B1EE9D17E
:104290000268136803FA01F111607FB181888379A4
:1042A0004A1C9A4282BF41F2B540BDE8F007704710
:1042B000026842F821708188491C8180BDE8F007BE
:1042C000002070472DE9F0433C4887B00024016886
:1042D00041F080010160016801F0800105910168F1
:1042E00041F001010160016801F0010105910168DF
:1042F00041F008010160016801F0080105910168C1
:1043000041F0020101600068DFF8B49000F00200A3
:104310000590012230214846FEF71EFA294F01225E
:1043200055213846FEF718FADFF89C800122082153
:104330004046FEF711FA302001250326CDE900059D
:10434000CDE9024669464846FEF72EF95520CDE9EB
:104350000005CDE9024669463846FEF725F90820F2
:10436000CDE90005CDE9024669464046FEF71CF955
:1043700003960095CDE9015469464046FEF714F9CD
:10438000002201214046FEF7E7F96802CDE900046A
:10439000694648460294FEF707F9F702009703962C
:1043A000CDE9015469464846FEF7FEF80022394639
:1043B0004846FEF7D1F907B0BDE8F0833038024037
:1043C00000000240000C02400004024010B5002230
:1043D0000849094803F060F80849074803F05BFA08
:1043E0000749054802F07EFEBDE81040024803F090
:1043F0009FBA0000702B00204C2C0020A425002028
:104400004C260020FEE770B51D46049E1446334638
:10441000FCF76EFC28B1A279A188521C914218BF0A
:1044200070BD29462046FCF7A1FE002805DB224688
:1044300033462946104602F037FAA088A17988420F
:104440008CBF41F2B540002070BD2DE9F047044615
:104450008088002617468846012802D1216809680D
:1044600011B300281CBF0022111F11D0A38825689A
:10447000A3EB020C01EB8C0955F82C3055F8099090
:104480005B0043EAD973521C45F82C30401EEDD135
:104490002068016849000160A088216851F8201057
:1044A000012904BF401CA08041462046FCF75EFE67
:1044B000002806DB22463B464146104602F0F4F94E
:1044C0000646A088A17988428CBF41F2B5403046AB
:1044D000BDE8F0872DE9F04387B0002581460095BF
:1044E00001950395029510681646884600781C468B
:1044F00010F0010F02BF41F2B64007B0BDE8F083F3
:10450000B1791A46684602F068F900281CBF07B066
:10451000BDE8F083B179224601A802F05EF96FF0A0
:104520000307002840F0D180B0792246411C03A83F
:1045300002F053F9002840F0BA80B0792246411CBD
:1045400002A802F04AF9002874D148460099FCF705
:10455000ABFE00286FD130460199FCF7A5FE00287C
:1045600069D101210398FFF71DFE00210298FFF792
:1045700019FE00988188012903D10068006800288D
:104580005AD000980168097811F0010F16D1FDF793
:1045900091FE03980168097811F0010F07D02346B6
:1045A00002463146FCF7A4FB002864D102E0FDF787
:1045B00081FEE6E70398FDF77DFEE2E701980168DA
:1045C000097811F0010F0DD001460098FCF7CEFDDF
:1045D0000028234621DB009A0199104602F064F975
:1045E00048BB15E0FDF766FE02980168097811F0F6
:1045F000010F06D0234602463146FCF779FBD0B9BD
:1046000002E0FDF757FED9E70298FDF753FED5E724
:10461000039A23461046029909E0019A0099104630
:1046200002F042F938B9029A23461046039902F083
:104630003BF99EE72DE01EE00298C179012907D1E0
:10464000234602463146FCF753FB0028F4D012E023
:1046500031460298FCF78AFD002808DB029A2346BF
:104660001046314602F020F90028F1D003E041461F
:104670000298FCF719FE0299002918BF002C08D0F7
:104680008979E288494207EB810111440839E180C8
:1046900002950399002918BF002C08D08979E28877
:1046A000494207EB810111440839E18003950199E2
:1046B000002918BF002C08D08979E288494207EB0D
:1046C000810111440839E18001950099002912BF48
:1046D000002C07B0BDE8F083E2888979494207EBF6
:1046E000810111440839E180009507B0BDE8F083ED
:1046F000F8B5002500950F46144606468179D26824
:10470000684602F06AF800281CBF40F2ED30F8BDA0
:1047100001210098FFF746FD23463A4630460099AE
:1047200000F024FD009AE168002A14BF0029F8BDBA
:10473000CB8892796FF0030C52420CEB82021A4440
:10474000083ACA800095F8BD2DE9F74F84B00020E3
:10475000009004980C46069A8079811C201D02F076
:104760003CF800284DD10498206000216068FFF7D4
:1047700019FD049861684FF0010C8088401C888006
:10478000606801680498808841F820C00498006837
:104790000268604602F00301022928BF03200421B9
:1047A00007230F2502FB00F61E408E4228BF084457
:1047B00049008CEA430302FB00F61E408E4228BFEC
:1047C000084449008CEA43036D1EEBD14042A060CF
:1047D0000498069A8079411C684601F0FEFF2D1F5F
:1047E00080B161680698002918BF002841D08979F6
:1047F000C288494205EB810111440839C18000207B
:10480000606036E000990498FCF74EFD0098FCF7D4
:104810009AFDC0F1200000F01F00014601900098B1
:10482000FFF708FD6068069B0246009902F03CF81D
:1048300020B361680698002918BF002809D089793B
:10484000C288494205EB810111440839C18000202A
:10485000606000990698002918BF002809D089795E
:10486000C288494205EB810111440839C18000200A
:10487000009007B040F2ED30BDE8F08F00200290CC
:1048800004988088002840F2F2800198C0F120004E
:104890000390616804980A6880888B8805EB800023
:1048A0008E791758012003F1010CB4453CD8012B37
:1048B00004BF1268002A37D04FF00008012B1CBF3C
:1048C00000225B1E13D000BFB1F804C00E68ACEB31
:1048D00002098444ACEB020C05EB890905EB8C0C56
:1048E00056F80990521C46F80C905B1EECD10A68F1
:1048F000136842F820300023012813BF02460A68DB
:10490000C2F8008090420CD9D1F800C0921C4CF83B
:104910002380D1F800C05B1C4CF823805B1C9042C4
:10492000F2D88A8810448880002F18BF6FF00706DD
:104930007ED000990498FCF7B7FC0098B7B300212B
:10494000B0F804C0D0F800A00A46BCF1000F30D087
:10495000AAF104031CF0010F05D053F8041FA1FBBA
:1049600007211A600022B0F804C05FEA5C0C18BF8F
:104970004FF000090FD0D3F804809346E8FB071BE3
:1049800059609A684946E2FB07B143F808BF4A46B6
:10499000BCF1010CEFD1828859B190F806C0531CCC
:1049A00063459CBF83804AF8221002E0FFE701F0D4
:1049B0006FFEDDE90002E2B3B0F804C0016805EB68
:1049C0008C034FF0000BCB580399CB4018BF9B468C
:1049D000BCF1010F1CBF0023ACF1010C19D000BFCA
:1049E000B0F804800768A8EB030905EB890806EB1B
:1049F000890957F808A057F809900AFA02FA29FA23
:104A000001F94AEA09095B1C47F80890BCF1010C5E
:104A1000E6D101680B6803FA02F20A60BBF1000FED
:104A20000DD0818883794A1C9A4208D8026801E037
:104A300014E004E042F821B08188491C818060685C
:104A4000069B0246009901F02FFF606801680498F8
:104A5000808851F82070002F7FF46BAF0298401CC3
:104A6000029004988188029881423FF612AF009923
:104A70000698002918BF002809D08979C2884942C0
:104A800005EB810111440839C18000200090606865
:104A90000499FCF76BFB002805DD6068069B024665
:104AA000049901F001FF0698E06007B00020BDE81E
:104AB000F08F2DE9FF4F85B04FF00009129D07469A
:104AC000CDF80090CDF80490CDF80890286888467D
:104AD00016468079EA68411C684601F07EFE0400B3
:104AE00040F0A2812868EA688079411C01A801F0A1
:104AF00074FE04006FF0030A40F086812868EA68BB
:104B00008079411C02A801F068FE040040F06C812D
:104B1000387B10F0020F98F80C0009D010F0020F4B
:104B200019BF022030733146404640F04D8105E008
:104B300010F0020F1CBF3146384603D0FCF7E4FCEE
:104B400000F042B910F0010F07D031683868FCF767
:104B5000ABFB04001FD000F037B9D8F808002B4693
:104B60000146009A00F002FB040040F02D813268FB
:104B70002B463868009900F0F9FA2B46D8F808005F
:104B8000029A009900F0F2FA72682B46786802994E
:104B900000F0ECFA03E071687868FCF785FBB86810
:104BA0002B460146009A00F0E1FA040040F00C8127
:104BB000DDE900122B46D8F8000000F0D7FA316882
:104BC0002A6804920198EA688346134603925A467B
:104BD00001F06AFE002818BF04460AD19BF80700BE
:104BE000012809D1DDE903315A461046FCF780F867
:104BF0000446002C40F0E880009A2B46B868114625
:104C000000F0B4FA009A2B46D8F80400114600F0E0
:104C1000ADFA71682A680492EA68DDF808B01346B4
:104C2000039200985A4601F03FFE002804BF9BF80B
:104C30000700012805D1DDE903315A461046FCF78B
:104C400057F801988188012902D10068006858B19D
:104C500098F80C0010F0010F17D0B168B868FCF795
:104C600023FB04001AD0AFE002988188012902D109
:104C70000068006808B10220A5E02B46314638469E
:104C8000089A00F0D5F804469EE0B268D8F80810FB
:104C90002B46B86800F06AFA04007ED1B0682B4653
:104CA0000246019900F062FA040076D1DDE90021A4
:104CB0002B46084600F05AFA019A2B4610460099F6
:104CC00000F054FA009A2B463168104600F04EFA74
:104CD00070682B460246019900F048FA02992B466B
:104CE0003268084600F042FA3068D5F80C80074672
:104CF000019943463A46D5F800B001F0D5FD0400CD
:104D000009D1F879012808D13A4643465946104658
:104D1000FBF7EEFF0446002C56D1DDE90001FCF75D
:104D2000C3FAEA6829680198FFF78FFB04004BD1AA
:104D30003068EF68044601993B462246D5F800806A
:104D400001F0B2FD002804BFE079012805D1224618
:104D50003B4641461046FBF7CBFF019CEF680098AD
:104D600031683B462246D5F8008001F09DFD0028C1
:104D700004BFE079012805D122463B464146104652
:104D8000FBF7B6FF019A2B461046029900F0EEF9A8
:104D9000040019D10198716800E015E0D5F80C8085
:104DA0000F4643463A46D5F800B001F07DFD002895
:104DB00004BFF879012805D13A46434659461046C2
:104DC000FBF796FF042030730299E868002918BFAA
:104DD000002809D08979C28849420AEB810111442F
:104DE0000839C180CDF808900199E868002918BFFA
:104DF000002809D08979C28849420AEB810111440F
:104E00000839C180CDF804900099E868002918BFDE
:104E1000002809D08979C28849420AEB81011144EE
:104E20000839C180CDF8009009B02046BDE8F08F68
:104E30002DE9F04F83B04FF000080746CDF8088009
:104E4000CDF8048018680E46914680791C46811C76
:104E500001A8DA6801F0C1FC050040F06A81206811
:104E6000E2688079811C02A801F0B7FC05006FF0B0
:104E7000030A40F04E81C11E0198FFF793F9387B79
:104E800010F0020F1CBF0220307340F0328104206A
:104E90003073B86823460146029A00F067F90500AE
:104EA00040F02781D7E901102346B26800F05EF98F
:104EB000E2682168B068FFF7C8FA050040F0198180
:104EC000019AE36821681046FBF712FFD9F8300019
:104ED00001680198FCF74AF948B1029A2346104646
:104EE000014600F043F9050040F0038140E0DDE9B0
:104EF0000191D4F80CB038685B464A46256801F049
:104F0000D3FC48B999F80700012808D14A465B4606
:104F100029461046FBF7ECFE050040F0EA80E06809
:104F200000902368326838680299FFF76CFA050030
:104F300040F0DF80DDE901122346306800F016F909
:104F4000050040F0D680DDE90110FCF7ADF9E2681C
:104F500021680198FFF779FA050040F0CA80E068FF
:104F60000090029A236811460198FFF74CFA2AE054
:104F7000D9F83000616823460068019A00F0F6F81D
:104F8000029A23461146019800F0F0F8386823464B
:104F90000146019A00F0EAF8E0680090029A23685E
:104FA00010460199FFF72FFAE26821680198FFF790
:104FB0004CFAE0680090029A236810460199FFF7C6
:104FC00022FA05007ED1786832682346014600F057
:104FD000CDF8050076D1306823460146019A00F0ED
:104FE000C5F8E26821680198FFF72FFAE2682168A6
:104FF0000198FFF72AFAE26821680198FFF725FA7D
:10500000E26821683068FFF720FAE26821683068BA
:10501000FFF71BFAD6E900122346386800F0A6F81D
:10502000050066D1029923463268084600F09EF8D2
:10503000D6E90001D4F80C9007464B463A46D4F81E
:1050400000B001F031FC002804BFF879012805D137
:105050003A464B4659461046FBF74AFED6E9000150
:10506000D4F80C9007464B463A46D4F800B001F00D
:105070001BFC002804BFF879012805D13A464B46AD
:1050800059461046FBF734FED6E90010D4F80C90D0
:1050900007464B463A46D4F800B001F005FC00281C
:1050A00004BFF879012805D13A464B4659461046C7
:1050B000FBF71EFE716823460A46029800F056F878
:1050C000706800E015E0E768064601993B46024635
:1050D000D4F8009001F0E8FB00280ABFF0790546FB
:1050E000012806D132463B4649461046FBF700FEF2
:1050F00005460299E068002918BF002809D089797F
:10510000C28849420AEB810111440839C180CDF8B7
:1051100008800199E068002918BF002809D0897922
:10512000C28849420AEB810111440839C180CDF897
:10513000048003B02846BDE8F08F0023036083603D
:105140004268002A1ABFC1680029704710B49279DA
:10515000B1F806C052426FF0030404EB82026244CD
:10516000083ACA80436010BC704700002DE9FF4F29
:1051700087B0002000900A980D4600688488016876
:105180000491296803910A99896806910A9980799E
:10519000CA68411C684601F020FB00281EBF40F28F
:1051A000ED300BB0BDE8F08F00210098FEF7FAFF5C
:1051B000009800680190AA88A24215D2039800EBDB
:1051C0008200001FA11A11F0010F02D0002140F847
:1051D000041FA988611A491018BF002204D0426038
:1051E00040F8082F491EFAD10798828894422AD99C
:1051F0000021A01A002826DD401E012333EA00000A
:1052000004D0079B1B6843F822100121079A92885B
:10521000A21A824288BF002215D9079B801CD3F8AE
:1052200000C09B880B44491C4CF82320079BD3F8F3
:1052300000C09B880B44491C4CF82320079B9B888B
:10524000E31A8342E9D800200290002C59D9019832
:1052500000EB8400059007980168029851F82080BF
:10526000039802680198D0F8009000200146E8FBFE
:105270000291069A012C09FB02F7049A1268E7FBD7
:10528000029028D9039A151D019A131D049A661ECF
:1052900002F1040C5FF0000255F8049BA8FB09AB77
:1052A000D3F8009019EB010142EB020E1AEB010951
:1052B0004BEB0E015CF804AB10EB0900AAFB07AB4B
:1052C00042EB020E1AEB00094BEB0E0043F8049C74
:1052D0001B1D761EE0D1019A52F824300022591885
:1052E00042EB0203091842EB0200059A42F8041C43
:1052F0001918019840F824100298401C029084422A
:10530000A9D80098611C818089B2012908D9019A25
:1053100002EB810252F8042C002A08BF491EF2D089
:105320000A990968FBF722FF002809DB0A98099A05
:105330000168009801F02DFB099A0021D17103E06A
:1053400009990098FBF7B0FF0A99009AC968002AEA
:1053500012BF00290BB0BDE8F08FCB8892796FF0B7
:10536000030C52420CEB82021A44083ACA80002114
:1053700000910BB0BDE8F08F70B5084C05460122D6
:1053800011462046FDF7E8F92846FDF741F820468A
:10539000BDE8704000220121FDF7DEB900040240A3
:1053A0002DE9FF4F9FB0054600202C9C18900290DD
:1053B0000190039019900E46E26802A82299FCF72A
:1053C00011FA070040F0888130460299FCF79CF8FA
:1053D000029E307B10F0020F19D13068234602463E
:1053E0006168FFF7C3FE78B97068234602466168BA
:1053F000FFF7BCFEB068234602466168FFF7B6FEC1
:10540000317B41F004013173070040F06181A879DC
:10541000E268411C18A801F0E0F9070040F058814B
:10542000A879E268411C19A801F0D7F9070040F0FB
:105430003D8100211898FEF7B5FE00211998FEF76E
:10544000B1FEA748DDE9181C00F556720DF1100EEB
:1054500092E8CC0FAEE8CC0F00F55E72D0F8940362
:1054600092E8CC070DF1400B1790ABE8CC07002376
:10547000AA88012618460DF1100EB3EB421F4FD239
:10548000D5F800A0420900F01F075AF8228006FA5A
:1054900007F737EA08080CBF4FF001094FF0000981
:1054A00000F101084FEA581B08F01F085AF82BA01A
:1054B00006FA08F838EA0A080CBF4FF001084FF066
:1054C00000084FEA890949EA430343EA080810AB98
:1054D00053F828305EF82880B8F1FF3F0BD0B8F1C0
:1054E000010F18D1D1F8008058F8229049EA070737
:1054F00048F822700FE0D1F8008058F8229049EA6D
:10550000070948F82290DCF8008058F8229049EA10
:10551000070748F82270AA88401CB0EB421FAFD39F
:105520005EF83320B2F1FF3F21D0012A0CD0A888C9
:105530008880A888ACF80400E26801A82299FCF7EA
:1055400051F9070079D12CE0AA88521C8A80AA88D8
:10555000521CACF804200A68410900F01F0052F800
:10556000213006FA00F0184342F82100E4E7AA8847
:10557000521C8A80AA88521CACF804200A6841098F
:1055800000F01F0052F8213006FA00F0034342F801
:105590002130DCF8002052F82130184342F8210075
:1055A000CAE7019802210173E26803A82299FCF777
:1055B00019F9070064D1DDE9027529463846D4F8A7
:1055C0000C80FBF7A1FF38B922986A687968006BF4
:1055D0004346806801F068F907004DD11898791E9C
:1055E000808811EB401542D4DDE921122346019851
:1055F000FFF71EFC07003FD101992198FBF784FFBC
:10560000189805F01F020168680906FA02F351F8BC
:10561000201033EA010114BF00210121199A1268F8
:1056200052F8200033EA00000CBF012000200129BD
:105630001BD118B101280BD017E025E00094DDE95B
:105640000101DDE92123FFF734FA070014D108E056
:105650000094DDE9212303990198FFF72AFA070056
:105660000AD101992198FBF74FFF6D1EBCD52199F6
:105670000198FBF749FF074603A8E168FBF7B5FF70
:1056800001A8E168FBF7B1FF1999E068002918BF8C
:1056900000280BD08979C2884B426FF0030101EBDF
:1056A000830111440839C180002019901899E068DD
:1056B000002918BF00280BD08979C2884B426FF0AF
:1056C000030101EB830111440839C18000201890C7
:1056D00002A8E168FBF789FF23B03846BDE8F08FE8
:1056E00074A900082DE9F0410020FCF745FE40A216
:1056F00004213420FBF7B0FC42A22C211820FBF738
:10570000ABFC42A22C217C20FBF7A6FC3DA22C2165
:10571000B820FBF7A1FC3E4CA06800285BD0DFF866
:10572000F480002588F800502846FEF76FFD002021
:10573000FCF722FE38A204215420FBF78DFC4FF425
:10574000FA60FCF765FE00264FF47A77FF20FCF73D
:1057500013FE3846FCF75CFE0020FCF70DFE3846D1
:10576000FCF756FE761C052EF0DB2BA204215420FC
:10577000FBF772FC2BA218213820FBF76DFC2EA240
:105780002C211E20FBF768FC2CA22C217020FBF79B
:1057900063FC2CA22C21CE20FBF75EFC0120FEF73F
:1057A00035FD294E606828B16560012211463046FA
:1057B000FCF7D2FFE06828B1E56000220121304605
:1057C000FCF7CAFFA0680028ECD0A560012188F88A
:1057D00000100C4606E0E068012802D0606801284D
:1057E0009AD100240020FCF7C7FD2046BDE8F081D7
:1057F000456E746572204E656F44756E20546573F6
:1058000074203F0043616E63656C00004F4B0000E5
:10581000DC2B0020090000204E656F44756E20547B
:10582000657374004D6F746F7220616E64204B65F8
:1058300079205465737400004F6E000045786974D8
:10584000000000004F666600000402407047090730
:10585000090E002806DA00F00F0000F1E02080F8C1
:10586000141D704700F1E02080F800147047F8B56F
:105870000646007B0C46154610F0030F05D0214666
:105880003046BDE8F840FBF73FBE0027009710F018
:10589000040F15D0A168B068FEF72AFF002818BFD2
:1058A000F8BD21683068FBF7FFFC002818BFF8BD81
:1058B00061687068FBF7F8FC002818BFF8BD11E0BC
:1058C000226869682B463068FFF750FC002818BF33
:1058D000F8BD626869682B467068FFF747FC0028CE
:1058E00018BFF8BDEB68A0682A680146FEF7F2FD14
:1058F000002818BFF8BDA0682B4602466968FFF76C
:1059000035FC002818BFF8BD2868EA688179684628
:1059100000F063FF002818BFF8BD2B46A068009A6E
:105920000146FFF723FC6FF0030678B1009AE9689F
:10593000002A14BF0029F8BDCB889279524206EBA9
:1059400082021A44083ACA800097F8BD20682B46A4
:1059500002460099FFF70AFCA0682B460246009910
:10596000FFF704FCE868009949B140B18979C28821
:10597000494206EB810111440839C1800097D4E9FE
:1059800001102B460A46FFF7F1FB002818BFF8BDAF
:105990000020217B11F0020F16D111F0040F13D05B
:1059A00020682A460146FEF7A3FE68B960682A46C9
:1059B0000146FEF79DFEA0682A460146FEF798FEC6
:1059C000217B21F004022273A26801211268116078
:1059D000A26812685760A26891802173F8BD000028
:1059E00010B57D4C012210212046FCF7B5FE642045
:1059F000FCF70EFD002210212046FCF7ADFE6420CE
:105A0000FCF706FD012210212046FCF7A5FE00212F
:105A1000AE2000F0E3F80021FD2000F0DFF80121C6
:105A2000122000F0DBF80021B32000F0D7F80121AC
:105A3000912000F0D3F80021CA2000F0CFF8012116
:105A40003F2000F0CBF80021A22000F0C7F8012190
:105A5000002000F0C3F80021A12000F0BFF80121D0
:105A6000002000F0BBF80021A02000F0B7F80121D1
:105A7000142000F0B3F80121112000F0AFF800214C
:105A8000B52000F0ABF80121002000F0A7F80021BC
:105A9000AB2000F0A3F80121084600F09FF8002198
:105AA000B42000F09BF80121A02000F097F801211C
:105AB000F82000F093F80021C12000F08FF80121B8
:105AC0007F2000F08BF80021C72000F087F801212B
:105AD000FF2000F083F80021B82000F07FF80121BA
