:020000040800F2
:1000000090510120AD0100085D6200080542000822
:10001000CD4D0008011100082D98000800000000D7
:100020000000000000000000000000008D6F0008CC
:1000300041140008000000003B670008E774000856
:10004000C7010008C7010008C7010008C701000870
:10005000C7010008C7010008F1200008C701000817
:10006000FB200008C7010008C7010008C7010008FD
:10007000C7010008C7010008C7010008C701000840
:10008000C7010008C7010008C7010008C701000830
:10009000C7010008C7010008C7010008C701000820
:1000A000C7010008C7010008C7010008C701000810
:1000B000C7010008C7010008C7010008C701000800
:1000C000C7010008C7010008C7010008C7010008F0
:1000D000C7010008C7010008C7010008C7010008E0
:1000E000C7010008C7010008C7010008C7010008D0
:1000F000C7010008C7010008C7010008C7010008C0
:10010000C7010008C7010008C7010008C7010008AF
:10011000C7010008C7010008C7010008C70100089F
:10012000C7010008C7010008C7010008C70100088F
:10013000C7010008C7010008C7010008C70100087F
:10014000C7010008C7010008C70100088966000848
:10015000C7010008C7010008C7010008C70100085F
:10016000C7010008C7010008C7010008C70100084F
:10017000C7010008C7010008C7010008000000000F
:10018000C7010008C7010008DFF80CD000F060F8D4
:1001900000480047F1A000089051012030BF72B61E
:1001A000704762B6704780F30888704706488047FA
:1001B00006480047FEE7FEE7FEE7FEE7FEE7FEE74C
:1001C000FEE7FEE7FEE7FEE7D575000889010008B7
:1001D00010B5431A934209D28318881803E010F827
:1001E000011D03F8011D521EF9D210BD40EA0103A2
:1001F0009B0703D009E008C9121F08C0042AFAD2DD
:1002000003E011F8013B00F8013B521EF9D210BD8A
:10021000D2B201E000F8012B491EFBD27047002248
:10022000F6E710B513460A4604461946FFF7F0FFF5
:10023000204610BD30B504460020034600E05B1C9C
:10024000934203D2E05CCD5C401BF8D030BD00008F
:10025000064C074D06E0E06840F0010394E8070013
:1002600098471034AC42F6D3FFF792FF58BD000810
:1002700078BD000870B58C1810F8015B15F0070305
:1002800001D110F8013B2A1106D110F8012B03E02F
:1002900010F8016B01F8016B5B1EF9D12B0705D437
:1002A0000023521E0DD401F8013BFAE710F8013B80
:1002B000CB1A921C03E013F8015B01F8015B521E9C
:1002C000F9D5A142D8D3002070BD000008B500BF09
:1002D000002000900748006840F0020005490860CF
:1002E0000846006800F00200009000BF00BF09F05F
:1002F000C1FD08BD3038024070B504460E4606F018
:1003000069FFC92006F044FE1648006808B1EA20DB
:1003100070BD06F023FA2070002000F097FC2578CD
:10032000042D01DBB54203DD06F074FFE420EFE7A6
:10033000681EC5B2641C0EE006F010FA04F8010B4A
:10034000681EC0B2050003D0002000F07FFC02E070
:10035000012000F07BFC002DEED106F05BFF0020B9
:10036000D6E700005400002070B504460D4606F0A4
:1003700031FFC82006F00CFE0B48006808B1EA20E7
:1003800070BD0AE0207806F003FE0748006808B157
:10039000F720F5E7641C681EC5B2002DF2D106F007
:1003A00039FF0020ECE700005400002010B50020C9
:1003B00004490860502009F0E1FA01200249C1F81F
:1003C000A40210BDA4824042008040422DE9FC41BD
:1003D00004460D460026002700BF0AF072F808B94F
:1003E00000BF0EE0202000231A462146CDE9005030
:1003F000022009F0DDFB07460FB1002600E00126D0
:1004000000BF00BF3046BDE8FC812DE9FC47044633
:100410000D4616461F464FF00008C14600BF0AF0C1
:100420003FF808B900BF11E02B4600222146022008
:10043000CDE9006709F0A6FC8146B9F1000F02D0B2
:100440004FF0000801E04FF0010800BF00BF404638
:10045000BDE8FC8700B587B000BF002001901E48B2
:10046000006840F004001C4908600846006800F07D
:100470000400019000BF00BF0420029017480390C1
:100480000120049002A9164802F08EF9082002907B
:100490000120039004900320059002A9104802F067
:1004A00083F903220121082002F00BFB082002F04F
:1004B000FBFA04F0B5F900F091F8052002F084F899
:1004C00000F054FA0120074908700020064908701E
:1004D0000649087007B000BD303802400000211006
:1004E00000080240840000208500002086000020D3
:1004F00010B54FF44C51572004F044F90321582013
:1005000004F040F91C21502004F03CF9FC21552056
:1005100004F038F94FF42241612004F033F94FF42C
:100520002341612004F02EF94FF42441612004F0AE
:1005300029F90321012004F025F910BD10B54FF46D
:100540004C51572004F01EF90321582004F01AF9E9
:100550001C21502004F016F9FC21552004F012F95A
:100560004AF2FF21612004F00DF94AF2FF316120C7
:1005700004F008F94AF2FF41612004F003F9032175
:10058000012004F0FFF810BD10B5322004F0D6F8B9
:100590000446204610BD000010B509480068012837
:1005A00002D0022806D102E000F0CEFA03E000F00B
:1005B00067FA00E000BF00BFFFF7E6FF10BD0000D4
:1005C0009400002010B500220821034802F0ECF945
:1005D000052001F0F9FF10BD0008024010B500220F
:1005E0000821074802F0E0F9052001F0EDFF0122A3
:1005F0000821034802F0D8F90A2001F0E5FF10BDF8
:100600000008024030B58FB0D148007860B913209F
:1006100004F094F80190142004F090F80290152052
:1006200004F08CF803900BE0002407E0C94850F870
:10063000240001A941F82400601CC4B2032CF5DB9E
:1006400003211E2004F09EF8002409E004F1360185
:10065000C8B204F073F807A941F82400601CC4B2C2
:10066000062CF3DB022004F069F80546002410E0B4
:10067000B948007808B9002006E0B84850F82400CE
:1006800007A951F824100844B44941F82400601C1B
:10069000C4B2062CECDBB048007801286FD10024EE
:1006A000DBE00120A0402840002869D1AB4850F889
:1006B00024004FF47A71B1EBA00F70DD204604EBFB
:1006C000D0714910A4EB410199B1611001AA32F82F
:1006D000211001F47F41B1F5805F0AD1601001A9BA
:1006E00011F82000611042F8210002200DA90855E0
:1006F0009CE0204604EBD0714910A4EB410151B1BC
:10070000611001AA32F8211001F47F4119B90020CB
:100710000DA908558AE0204604EBD0714910A4EBDE
:10072000410191B9611001AA12F8211010290CD1D0
:10073000601001A931F8200000F47F40611042F8F8
:10074000210002200DA9085570E0204604EBD0716D
:100750004910A4EB410141B9611001AA12F821101E
:1007600019B900200DA9085560E0204604EBD071AE
:100770004910A4EB410121B14FF4807102E0D7E0B0
:1007800069E00121621001AB53F82220511A621076
:1007900043F8221002200DA9085547E0FFE76F48F3
:1007A00050F8240040F6B831B1EBA00F3BDA2046F8
:1007B00004EBD0714910A4EB410161B1611001AAB1
:1007C00032F8211001F47F41B1F5F85F03D1002028
:1007D0000DA908552AE0204604EBD0714910A4EB7E
:1007E000410149B9611001AA12F821101F2903D152
:1007F00000200DA9085519E0204604EBD0714910DE
:10080000A4EB410111B14FF4807100E001216210AD
:1008100001AB53F822201144621043F8221001204A
:100820000DA9085502E000200DA908554848007898
:10083000002810DD0DA8005D4949095D88420AD0F5
:1008400000200DA908556010424951F820006110A0
:1008500001AA42F82100601CC4B2062CFFF621AFA9
:1008600000204049087000240BE00120A0402840EF
:1008700028B90DA8005D10B101203A490870601C2C
:10088000C4B2062CF1DB3748007830B93048007824
:1008900018B900203449087002E00120324908707C
:1008A0003048007830B90020294908702A4908707A
:1008B0000FB030BD0021012003F064FF00240AE0E6
:1008C00001AA32F8242091B204F11302D0B203F04D
:1008D00059FF601CC4B2032CF2DB0321012003F09A
:1008E00051FF1B480078032807D100201D490870DC
:1008F0001749087018490870DAE7002405E00DA8C8
:10090000005D17490855601CC4B2062CF7DB0024B3
:1009100007E001A850F824000E4941F82400601CAB
:10092000C4B2032CF5DB0A480078401C0849087063
:1009300009480078012805DA07480078401C064974
:10094000087002E00020044908700120B0E70000B0
:1009500085000020B80F002086000020D00F002066
:1009600088000020840000208700002010B50021AE
:10097000012003F007FF1C21502003F003FF00219A
:10098000512003F0FFFE4FF44C51572003F0FAFEC4
:100990000321582003F0F6FE0021592003F0F2FE57
:1009A00000215A2003F0EEFE00215B2003F0EAFE56
:1009B000A121522003F0E6FE4FF4C051182003F0AD
:1009C000E1FE2321022003F0DDFE8421112003F04B
:1009D000D9FE40F28721122003F0D4FE41F211111A
:1009E000142003F0CFFE41F21111152003F0CAFECE
:1009F00040F60A210C2003F0C5FE40F60A210D2026
:100A000003F0C0FE40F60A210E2003F0BBFE40F2C8
:100A100002211B2003F0B6FE40F202411C2003F02D
:100A2000B1FE1C21072003F0ADFE8021032003F05E
:100A3000A9FE0521192003F0A5FE0021212003F0C5
:100A4000A1FE0021202003F09DFE3221272003F08B
:100A500099FE00212C2003F095FE41F63211222050
:100A600003F090FE00212D2003F08CFE03210120D5
:100A700003F088FE02200149086010BD94000020A8
:100A800070B52D480078F0B1FFF7BCFD2A4800781A
:100A9000C0B92A48007818B10021012003F072FE85
:100AA0001C21032003F06EFE10212D2003F06AFEAE
:100AB0002248007818B10321012003F063FE0120D1
:100AC0001F49087070BD1F48006808BB2E2003F046
:100AD00035FE0646322003F031FE0546312003F094
:100AE0002DFE0446102E01D100F08BF805F0100009
:100AF00040B114B900F087F81BE0102C19D100F0B8
:100B000081F816E005F0080040B114B900F078F85B
:100B10000FE0082C0DD100F055F80AE005F00400B4
:100B200038B114B900F090F803E0042C01D100F0C2
:100B30006DF800BFC6E70000840000208700002099
:100B4000980000209000002010B51B480078D8B114
:100B5000FFF758FD18480078A8B91848007818B170
:100B60000021012003F00EFE0021032003F00AFE05
:100B700010212D2003F006FE1048007818B1002146
:100B8000012003F0FFFD10BD0D48006888B92E203C
:100B900003F0D4FD0446102C02D100F032F808E036
:100BA000012C02D100F051F803E0022C01D100F039
:100BB0002BF800BFE7E7000084000020870000203A
:100BC0009000002010B50B48007858B10A48007812
:100BD00000F0010030B10848007820F0080008302B
:100BE000054908700548007810B1502005F0AAF8B2
:100BF00010BD0000980000204E0000205000002092
:100C000070477047704770477047000010B50B4839
:100C1000007858B10A48007800F0010030B1084867
:100C2000007820F00200801C054908700548007813
:100C300010B1502005F086F810BD0000980000208B
:100C40004E000020500000207047704710B5044649
:100C500009480460032008F091FE01200749C1F80B
:100C6000A002042008F08AFE00200349091F086042
:100C7000022008F083FE10BDA48240420080404262
:100C80002DE9F8430024884600940646817998F8B7
:100C9000060091461D46814288BF0846411C1A46FF
:100CA000684606F064FA00281CBF40F2ED30BDE84B
:100CB000F8834146304600F081FAC01C012707281E
:100CC00062D2DFE800F03E2D25352D250400404698
:100CD000009900F01DFB00993046CC7100F06EFACF
:100CE000B0F1FF3F04D000284BD002284CD107E0E0
:100CF00031464046009A06F01CFB0098C77143E05D
:100D000041463046009A06F014FB0098C4713BE05F
:100D100041463046009A00F053F80098C47133E021
:100D200041463046009A00F04BF80098C7712BE01E
:100D300041463046009A00F043F80099F079C871B6
:100D400022E03046009900F0E3FA00984146C47171
:100D500000F034FAB0F1FF3F03D090B1022813D174
:100D600007E031464046009A06F0E3FA0098C47165
:100D70000AE041463046009A06F0DBFA0098C77157
:100D800002E0009806F052F90021484603F084FE84
:100D90004946009800F0BCFA0099002914BF002DC4
:100DA000BDE8F883EA8889796FF00303494203EBD1
:100DB000810111440839E9800094BDE8F8830000FE
:100DC0002DE9F84F0B46D0F800B0096800910025D6
:100DD000B0F804C09E88176891462C46B44598BF69
:100DE000664681794FF0010E4FF000088C4532D8ED
:100DF000A1EB0C01002201F1010ABAF1000F2ADD7A
:100E00003EEA01011CBF4BF82C80012290F806C07D
:100E1000B0F804A0ACEB0A0C0CF1010C8C451AD90B
:100E20001FFA8AFAD0F800C09244521C4CF82A806B
:100E3000B0F804A0D0F800C09244521C4CF82A80AC
:100E400090F806C0B0F804A0891CACEB0A0C0CF1B9
:100E5000010C8C45E4D8B3F804C099798C4534D89A
:100E6000A1EB0C01002201F1010ABAF1000F2CDD07
:100E70003EEA010103D01A6842F82C80012293F85F
:100E800006C0B3F804A0ACEB0A0C0CF1010C8C45C5
:100E90001BD900BF1FFA8AFAD3F800C09244521C33
:100EA0004CF82A80B3F804A0D3F800C09244521C36
:100EB0004CF82A8093F806C0B3F804A0891CACEB68
:100EC0000A0C0CF1010C8C45E4D881889A88914277
:100ED000494638BF184600F01BFA002E48D000984B
:100EE000ABF10403021F391F16F0010F0DD053F8A8
:100EF00004CF52F8040F1CEB000048EB080C40191B
:100F00004CEB040541F8040F44465FEA560C1BD035
:100F1000D3F804A050681AEB000048EB080A451902
:100F20004D604AEB040053F808AF52F8085F1AEB23
:100F3000050548EB0804281844EB080541F8080F9C
:100F40004446BCF1010CE3D195B157F82600401C92
:100F500047F8260007E0761C07EB86000168491C6D
:100F6000016057F8260018B9B9F80400B042F2D26F
:100F7000B9F8040057F8201000291CBF401CA9F83C
:100F80000400BDE8F88F0000F0B599B005460C46A6
:100F90001646002700F023FA03A801AB05AA09A909
:100FA00000900DA801F072F820200B900C9009958C
:100FB00005F120000A9094F86C0000EBD071491004
:100FC000079194F86C0000EBD0714910089104F17E
:100FD0002C00059094F86C0000EBD0714A1004F1DD
:100FE0002C0111440691202002900196094803909B
:100FF00003A801AB05AA09A900900DA800F021FAE9
:10100000074640F2EB30874202D1012019B0F0BD13
:101010000020FBE7000E00202DE9F04704460D46B6
:1010200016464FF0000AD046C1463BE02046E11785
:1010300004EB9171C1F3870716F80800203800F01F
:10104000FF0A3D2F08DD00242046E11704EB9171D3
:101050008F1005F11000C5B207F11D02D1B2521E6A
:10106000D0B206F006F805F10F00C1B2284606F02E
:1010700010F806F01EF84FF0000909E009EB0A111C
:101080000B4A505C00F0EDF809F1010000F0FF0997
:10109000B9F1100FF2DB08F1010000F0FF0804F1D4
:1010A0000800C4B216F808000028BFD1BDE8F087D8
:1010B000A200002008B501F08BFC06F01BFA03F03B
:1010C0008FFD03F081FD03F035FE00F035F803F0ED
:1010D0003DFEFFF7FBF803F05FFE05F095F93820C1
:1010E000082325221A210090044806F006F801235F
:1010F00030223821682008F0DBFE08BDB00800204F
:1011000000BFFEE700207047024803490860002046
:1011100070470000F00801209C08002070B50446CC
:101120000D460449D1F81802402107F087FD002040
:1011300070BD0000F008012000B587B000BF00209E
:1011400001901248006840F001001049086008460C
:10115000006800F00100019000BF00BF0120029074
:101160000B4803900120049002A90A4801F01CFBDF
:1011700001220221062001F0A4FC062001F094FCCB
:1011800001200549087007B000BD0000303802405A
:1011900000002110000002409800002030B50346F6
:1011A0000C46002106E0585C655CA84201D0002096
:1011B00030BD491C9142F6DB0120F9E770B490F98B
:1011C00007C091F9072094453FD183888C8801227C
:1011D000A34204BF0068096803D9BCF1000F27D0FF
:1011E00022E003D2BCF1000F2BD027E09D1AA61AF3
:1011F00050F8255051F82660B54204D1934224BFDF
:10120000521C9342F2D2551EAB4202BF002070BC6A
:1012100070479B1AA21A50F8230051F822108842F6
:1012200009D9BCF1000F03D070BC6FF0010070470A
:1012300070BC02207047BCF1000F02D070BC0120CE
:10124000704770BC4FF0FF307047BCF1010F05D103
:10125000002A02BF6FF0020070BC7047032070BC10
:1012600070472DE9FC410646354600244CE005F068
:10127000C008B8F1000F09D0B8F1400F0AD0B8F19A
:10128000800F0BD0B8F1C00F10D10BE0002001A9E6
:1012900008550CE00F2001A9085508E0F02001A92D
:1012A000085504E0FF2001A9085500E000BF00BF79
:1012B000A806050E05F0C00737B1402F08D0802FD3
:1012C0000AD0C02F10D10BE000200DF804000CE074
:1012D0000F200DF8040008E0F0200DF8040004E0F1
:1012E000FF200DF8040000E000BF00BFA806050EB7
:1012F00001A9085D012105F083F91DF80400012111
:1013000005F07EF9601CC4B2022CB0DBBDE8FC81A4
:1013100070B483888A7900249A4209D202F1010CC0
:101320009C4537BF41F2B54041F2B54470BC7047AF
:10133000C279CA7100228B80002B09DDD0F800C071
:101340000D685CF822C045F822C0521C9342F5DCBF
:101350008879801A431C002B26DD01234FF0000CF6
:1013600033EA0000634605D0D1F800C04CF82230C3
:101370004FF0010C8D79AD1A6D1C854214DD00BF54
:101380000D6802EB0C060CF1010C45F826300D68D7
:1013900002EB0C06801C45F826308D790CF1010C0F
:1013A000AD1A6D1C8542EBDC204670BC704782880C
:1013B0000368012A01BF1868002801207047500106
:1013C0006FF0030C0CEB82024FF000419A5831EAA7
:1013D00002031EBF00294908401EF8D170470121B1
:1013E000080305F0ABB9000010B5002004490870EF
:1013F0000449087070210448FEF711FF10BD000079
:101400004F0000204E000020480F002000B585B09E
:101410004FF4C05000900120019000200290032062
:1014200003906946054801F0BFF900224FF4C0510E
:10143000024801F0B9FA05B000BD0000000002400A
:1014400070472DE9F04FADF6746D04460E46174611
:101450009946DDF8988E0025AB4600200D900C9043
:10146000059004900390029021681091A168129158
:1014700061681491E16816912169189161691A9166
:10148000A1691191E1691391616A1791216A15911E
:10149000A16A1991E16A1B913168099171680891FB
:1014A0003968079179680691B1680591F1680491EE
:1014B000B9680391F9680291D9F800A0D9F804B08D
:1014C00008F1040359465046D8F8002002F044FEC3
:1014D000054625B128460DF6746DBDE8F08F4FF432
:1014E0006060ADF83C000020ADF83E001DA80E90F5
:1014F0000EA910A800F0E8F805460DB12846EAE765
:101500000EAA10A90DA800F0BBF9054605B143E0ED
:101510000021059B099A0D9800F01AFA0121049BFD
:10152000089A0D9800F014FA0EAA10A90D9800F070
:1015300075FA054605B12AE00EAA10A90CA800F01C
:10154000B9FB054605B122E00021039B079A0C98E0
:1015500000F0EEFB05460121029B069A0C9800F074
:10156000E7FB054305B10DE010A80B900D990A911A
:101570000EA800900AABD8E900010C9A00F0F0FB2D
:10158000054600BF0EA90CA800F078FB00BF0EA90D
:101590000DA800F078F800BF0EA910A800F035F8EB
:1015A000284698E730B504000D464FF0000018BFFC
:1015B000002D27D0216800291CBFA168002921D057
:1015C000296800291FBF6A68002AAA68002A19D062
:1015D000227B2A73227B12F0020F18BF30BD2068D5
:1015E000FFF796FE002818BF30BD69686068FFF7F6
:1015F0008FFE002818BF30BDA968A068BDE8304044
:10160000FFF786BE41F2544030BD002812BF0029CA
:1016100041F25440704730B50446006B0D46002837
:101620001FBF016800298168002904BF41F25340AF
:1016300030BD294605F0BCFD206B2946083005F079
:10164000B7FD206BC16819B10C30294605F0B0FD1B
:10165000206B416819B1001D294605F0A9FD206BDA
:10166000016919B11030294605F0A2FD206B4169CE
:1016700019B11430294605F09BFDE8881838E88038
:101680000020206330BD002812BF002941F25440E1
:10169000704730B5044600680D46002804BF41F28B
:1016A000534030BD083005F083FD20682946001DF9
:1016B00005F07EFD2946206805F07AFDE88810389F
:1016C000E8800020206030BDF0B50E46040014BF55
:1016D000002E41F2544500F0CB80206900281CBF49
:1016E0006069002839DD442837DC2168002934D0BE
:1016F0006168002931DB44292FDCA16900291CBF66
:10170000E169002929DD442927DC316829B3C01C9F
:1017100020F00300B28800EB4000602303EB4000A0
:10172000904288BF40F2ED357ED8F08808442063AF
:10173000F0881830F080206B002804BF40F2ED30B4
:10174000F0BD61690830C91C8908324605F00FFDFB
:1017500005004FF0000703D086E041F2534587E0D3
:1017600060693246C01C8108206B05F000FD050051
:1017700075D1206B0268D4E9000108F059F8206B9C
:101780008268D4E9040108F053F8E0693246C01CCD
:101790008108206B0C3005F0EAFC05005BD1206B62
:1017A000C268D4E9060108F043F8206B4760206B5B
:1017B0000761206B4761A06898B1E068002810DDE0
:1017C00044280EDAC01C8108206B3246001D05F04B
:1017D000CEFC05003AD1206B4268D4E9020108F042
:1017E00027F8206A00281CBF606A002840DD4428D2
:1017F0003EDAA16A00291CBFE16A002938DD4429CC
:1018000036DAC01C8108206B3246103005F0AFFC80
:10181000050016D1206B0269D4E9080108F008F828
:10182000E06AC01C810800E022E0206B32461430E0
:1018300005F09DFC0500206B1CD01030314605F0F2
:10184000B7FC206B3146001D05F0B2FC206B314621
:101850000C3005F0ADFC3146206B05F0A9FC206B87
:101860003146083005F0A4FCF0881838F080276372
:101870002846F0BD4269D4E90A0107F0D9FFF7E72D
:10188000002919BF002A002841F25440704770B562
:101890000446086B15460E4600281FBF2A68002A1A
:1018A0008168002904BF41F2534070BDE8888979FE
:1018B000342301EB410103EB8101AB8801449942E0
:1018C00084BF40F2ED3070BD10442060E8882A46A5
:1018D0001030E880306B80688179206805F047FC23
:1018E000D8B9306B2A46806881792068001D05F0E0
:1018F0003EFC70B9306B2A468068817920680830D8
:1019000005F035FC002820680FD0001D294605F0A1
:101910004FFC2946206805F04BFCE8881038E88029
:101920000020206040F2ED3070BD0068002103F01F
:10193000B3F820680021406803F0AEF82068012168
:10194000806803F0A9F8216801200873002070BDA9
:10195000002818BF002A01D0002B02DA41F25440BF
:10196000704710B404689446002C1FBF4268002AD8
:101970008068002808D000290CBF2246012907D022
:10198000022908BF024603D010BC41F25440704700
:1019900010BC1946604607F04BBF000078B5040044
:1019A0004FF000000E46009014BF002E41F2544547
:1019B0002FD0306B00281FBF0269002A4069002821
:1019C00008BF41F2534524D010462168FFF7A0FC20
:1019D00005001ED1306B61684069FFF799FC050076
:1019E00017D10121A06803F057F80B48012181604D
:1019F000826802680092521C04D1009A026000685A
:101A0000009028B1D4E900022260A268C4E9012054
:101A10002173284678BD0000003002402DE9F041D6
:101A20008AB04FF00008CDF80C8015460E4607002E
:101A3000CDF80480CDF80880CDF820801ABF002EA4
:101A4000002D41F2544400F01281306B002808BF91
:101A500041F2534400F00B81816800291CBFC26829
:101A6000002A20D04268002A1CBF006800281AD033
:101A7000387B022808BF41F2554400F0F8802868FE
:101A800060B18879EA8800EB400102EB81014C22C9
:101A900002EBC0000844A988884208D90AB040F285
:101AA000ED30BDE8F08141F2574400F0E0B82A463D
:101AB000314603A8FFF7E4FE040040F0D880306B05
:101AC00081683868FFF77AFB002806DA306B816896
:101AD0007868FFF773FB002803DB41F2554400F000
:101AE000C2B838460399FFF75DFD306B2A4604A95A
:101AF000806803F00FFB040040F0B580306B2A468D
:101B00008068817902A805F032FB040076D1306B41
:101B10002A468068817901A805F029FB04006FF04E
:101B200003076CD1039804AB05990068024604F0E2
:101B300003F804007CD1039804AB05994068024681
:101B400003F0FAFF040073D1039804AB82680068C5
:101B5000014603F0F1FF04006AD1306B029900687E
:101B6000FFF7D6FBDDE9012004AB059903F0E4FFA4
:101B700004005DD10095DDE9030301998068024608
:101B800003F026F9040053D1039804AB8168006880
:101B90000A4603F0D1FF04004AD1306B0299406835
:101BA000FFF7B6FBDDE9012004AB059903F0C4FFA4
:101BB00004003DD10095DDE90303019980680246E8
:101BC00003F006F9040033D1039804ABD0E90020F8
:101BD000014603F0B1FF04002AD12748012141F258
:101BE00055448160816801680891491C08D00398B8
:101BF00000680146FFF7E2FA78B917E030E023E029
:101C000008990160006808900028039806D00068D1
:101C10000146FFF7D3FA00B908E009E081680068DF
:101C2000FFF7CCFA002808BF002401E041F252443B
:101C3000019848B18079E988404207EB8000084468
:101C40000838E880CDF80480029848B18079E988A6
:101C5000404207EB800008440838E880CDF808804F
:101C600004A803F050FF294603A8FFF70CFD0AB0B3
:101C70002046BDE8F081000000300240002812BF7D
:101C8000002941F25440704730B5044600680D46C3
:101C9000002804BF41F2544030BD05F089FA2068A5
:101CA0002946001D05F084FAE8880838E8800020FD
:101CB000206030BD002919BF002A002841F254409D
:101CC000704770B50546086B14460E4600281FBFC6
:101CD00021680029C268002A04BF41F2534070BD48
:101CE000E0889279202303EBC202A38802449A423F
:101CF0001BD808442860E08822460830E080306B1A
:101D0000C0688179286805F032FA70B9306B2246D4
:101D1000C06881792868001D05F029FA002808BFED
:101D200070BD2146286805F043FA40F2ED3070BDE1
:101D30009446002818BFBCF1000F0AD00268002AA0
:101D40001CBF4068002804D031B1012908BF0246F9
:101D500002D041F2544070471946604607F068BD12
:101D60002DE9F0478CB04FF00008CDF81880149E94
:101D7000CDF804801D4617468A465FEA0009CDF873
:101D80001C80CDF82C80CDF8288018BF002F38D0CB
:101D9000002D18BF002E34D0686800281CBF2968A9
:101DA000002932D0016B00291CBF306800282CD0DC
:101DB000386800281CBF7A68002A26D0CB68002B20
:101DC0001CBF0A69002A24D08A68002A1CBF09683F
:101DD00000291ED09279F18802EBC20201EB820148
:101DE0009A794FF0B40C0CEBC2021144B2889142C4
:101DF00088BF40F2ED3400F24481818801290FD17F
:101E00000BE041F2544400F03CB941F2534400F07D
:101E100038B941F2574400F034B90168096899B102
:101E20001946FFF7CBF9401C0ED17A68908801283B
:101E300002D11068006838B16868006BC16810464C
:101E4000FFF7BCF9401C03D04FF47B7400F019B9C4
:101E500068683246006BC068817907A805F087F989
:101E6000040040F00E816868006BC068FFF79FFABD
:101E7000B0EBCA0F19DA6868006BC068FFF797FA11
:101E8000C01DC11700EB5170C41021464846079A87
:101E900007F0CEFC6868006BC068FFF788FAC0EBFB
:101EA000C401079804F0DBFC04E051464846079A59
:101EB00007F0BEFC68683246006BC068817906A8EE
:101EC00005F055F904006FF0030940F0CB80686815
:101ED00033460699006BC268786802F0E0FF0400A0
:101EE0007ED16868324602A9006BC06803F012F91F
:101EF000040075D1069A02AB1046039903F01CFE4C
:101F000004006ED10399059859B150B1039AC18864
:101F10009279524209EB820211440839C180CDF80E
:101F20000C80079A02AB1046069903F005FE0400E8
:101F300056D1069A02AB3868114603F0FDFD040045
:101F40004ED102A803F0DFFD6868324602A9006B9B
:101F5000806803F0DFF8040075D1324601A8696893
:101F6000FFF78EFC04006BD169680198FFF716FD3E
:101F700032460BA86968FFF783FC04005CD10DF1C1
:101F8000080ACDF800A06B680B9A0199079803F036
:101F9000EBFE04004CD1CDF800A0D5E90013019A66
:101FA000069803F0E1FE040042D132460AA86968AF
:101FB000FFF766FC04003BD1CDF800A0DDE90A2163
:101FC0006B68019803F05BFA04002DD10A9902AA0C
:101FD000084604F061F9040026D10A98007B01E06C
:101FE00031E02DE002281DD06868006BC1680A98B6
:101FF0000068FFF7E3F800280A980ADB69680068C0
:102000003346096B0246C96805F01EF90400EBD09F
:102010000AE001683868FFF7D1F8002808BF40F2ED
:10202000EB3401D04FF47B7431460AA8FFF72BFB49
:1020300031460BA8FFF727FB314601A8FFF723FB2A
:1020400002A803F060FD0698002818BF002E09D0F2
:102050008079F188404209EB800008440838F0801C
:10206000CDF818800798002818BF002E09D0807975
:10207000F188404209EB800008440838F080CDF830
:102080001C800CB02046BDE8F087000030B5039CF2
:102090000D4D05600D4D85600D4D45600D4DC560C4
:1020A0000D4D05610D4D456120258561C561456278
:1020B00005628562C5620A4D0D600A4D4D600A4D8C
:1020C00015600A4D556030BDFEA400081EA500082D
:1020D0003EA500085EA500087EA500089EA5000894
:1020E000800E0020B20E0020E40E0020160F00200B
:1020F00010B5012000F04AFB10BD10B5042000F01F
:1021000045FB10BD10B590B0202108A8FEF787F858
:1021100020220CA16846FEF75BF80024032407E0A8
:10212000202308AA00212046FEF76FF9601CC4B2E4
:102130000E2CF5DB20236A4600210E20FEF765F900
:1021400010B010BD01000000000000000000000001
:10215000000000000000000000000000000000007F
:102160000000000010B5002201B909E0012901D1E9
:102170000A0205E0022901D10A0201E04FF440728F
:10218000114B1B6823F440730F4C236023461B68DC
:102190001343236023461B6823F0F8032360234680
:1021A0001B68F82494FAA4F4B4FA84F400FA04F452
:1021B00044F002042343044C236023461B6843F489
:1021C0008033236010BD0000103C02401C480068B2
:1021D00000F40070B0B11A48006820F4007018498B
:1021E000086000BF0846006840F4006008600846C8
:1021F000006820F40060086000BF0846006840F4F2
:10220000007008600E48006800F48060B0B10C48AF
:10221000006820F480600A49086000BF0846006832
:1022200040F4805008600846006820F48050086040
:1022300000BF0846006840F48060086070470000F6
:10224000003C02400A4A126822F44072084B1A60AD
:102250001A46126842F004021A601A4612684FF4D5
:10226000803343EA00231A43014B1A607047000091
:10227000103C0240074A126822F44072054B1A6073
:102280001A4612681A601A46126842F001021A6071
:1022900001707047103C024010B50949096821F4EB
:1022A0004071074C21602146096841F4407121606A
:1022B0002146096841F0010121600260436010BDC0
:1022C000103C0240084A126822F44072064B1A6021
:1022D0001A46126842F480721A601A46126842F076
:1022E00001021A6001807047103C0240084A1268DF
:1022F00022F44072064B1A601A46126842F40072C9
:102300001A601A46126842F001021A6001607047B2
:10231000103C02402348006800F0100040B1224801
:10232000C06940F010002049C86110201D490860B4
:102330001C48006800F0200040B11B48C06940F014
:1023400008001949C861202016490860154800682E
:1023500000F0400040B11448C06940F00400124948
:10236000C86140200F4908600E48006800F08000F6
:1023700040B10D48C06940F002000B49C86180209F
:10238000084908600748006800F0020040B10648AC
:10239000C06940F020000449C8610220014908607A
:1023A000704700000C3C0240D008012070B5044684
:1023B000002500201449C86100F0FCFA054609E038
:1023C000601C38B124B100F0F5FA401BA04201D9DD
:1023D000032070BD0D48006800F480300028EFD164
:1023E0000A48006800F0010010B1012007490860A8
:1023F0000648006800F0F20018B1FFF78BFF0120DB
:10240000E7E70020E5E70000D00801200C3C02408F
:1024100030B48288012A05D101680968002904BF07
:1024200030BC70470021012A12D0521E4FF0040C1C
:1024300003680CEB810553F821405D5D640844EAB4
:10244000C57443F82140491C521EF1D18188491EB0
:10245000026852F821305B0842F821308188012956
:102460009CBF30BC7047002B04BF491E818030BC2C
:1024700070472DE9F04782460C4615461E46089FD8
:1024800005F11C02D1B204F11C02D0B204F0F1FD3E
:102490003946304604F0FDFD04F00BFE4FF0000815
:1024A00016E04FF000090BE00121504604F0A8F8B7
:1024B0000121504604F0A4F809F1010000F0FF09E1
:1024C000281B401C4845EFDC08F1010000F0FF0824
:1024D000B81B401C4045E4DCBDE8F08770B50646FB
:1024E0007721002004F0C5FD7F21002004F0D1FDFC
:1024F00004F0DFFD00240FE0002509E00121304653
:1025000004F07EF80121304604F07AF8681CC5B268
:10251000782DF3DB601CC4B2802CEDDB70BD10B5F0
:1025200000F048FA0446A0B210BD10B504460CB93C
:10253000012010BD607920B900202071204600F0F4
:1025400007F802206071012060710020F1E70000AF
:1025500008B50A4A016891420FD100BF00210091DD
:102560000749096841F48051054A1160114609681C
:1025700001F48051009100BF00BF08BD003002404F
:102580003038024010B54FF0FF300E49086000208F
:102590000860401E091D086000200860401E0949AF
:1025A0001039086000200860401E091D08600020E6
:1025B0000860401E091D08600020086000F03AFA1B
:1025C000002010BD2038024031B500F0F3F9054677
:1025D000009C601C00B1641C00BF00F0EBF9401BC4
:1025E000A042FAD338BD00002DE9F04104460E4662
:1025F0000127002500BF2548007E012802D10220C6
:10260000BDE8F08101202149087600BF4CF250302E
:10261000FFF7CCFE0746002F31D1401E3060206806
:1026200001280FD1207C6168FFF70CFE4CF250307E
:10263000FFF7BCFE07461648006820F00400144966
:1026400008601AE0A56812E0217C2846FFF78AFDA1
:102650004CF25030FFF7AAFE07460D48006820F004
:10266000FA000B4908600FB1356005E06D1CD4E934
:1026700002100844A842E7D800BFFFF7A7FD00BF3B
:1026800000200249087600BF3846B9E7D00801208B
:10269000103C02400348006840F0004001490860D7
:1026A00000207047103C02402DE9F04106460F46DD
:1026B00014461D464FF0010800BF1F48007E012848
:1026C00002D10220BDE8F08101201B49087600BF3D
:1026D0004CF25030FFF76AFE8046B8F1000F23D16C
:1026E00026B9E1B23846FFF7C5FD12E0012E04D14C
:1026F000A1B23846FFF7E6FD0BE0022E04D12146D9
:102700003846FFF7F3FD04E022462B463846FFF734
:10271000C3FD4CF25030FFF749FE80460748006881
:1027200020F001000549086000BF0020024908763A
:1027300000BF4046C6E70000D0080120103C024020
:102740000748006800F0004030B1064804490C39E1
:1027500008600548086001E0012070470020FCE7A0
:10276000103C024023016745AB89EFCD10B504460C
:10277000012C04D0042C05D1FDF70EFF03E001F07D
:10278000BFFF00E000BF00BF10BD000010B5044651
:1027900004480068204020B1024804602046FFF74A
:1027A000E5FF10BD143C0140F8B502460B4600257C
:1027B000002400200021DCE0012606FA01F51E6855
:1027C00006EA0504AC4273D15E68022E02D05E6850
:1027D000122E13D1CF0802F1200656F827004E071B
:1027E000F70E0F26BE40B0434F07FF0E1E69BE40D6
:1027F0003043CF0802F1200646F8270010684F004A
:102800000326BE40B0431E7906F003064F00BE40CB
:10281000304310605E68012E08D05E68022E05D03D
:102820005E68112E02D05E68122E13D190684F00A0
:102830000326BE40B0434F00DE68BE403043906088
:10284000506801268E40B0431E79C6F300168E40B4
:1028500030435060D0684F000326BE40B0434F0065
:102860009E68BE403043D0605E6806F08056B6F188
:10287000805F7DD100BF00260096404E366846F44A
:1028800080463E4F3E603E46366806F480460096DF
:1028900000BF00BF3A4E8F0856F827008E07370F4B
:1028A0000F26BE40B043374EB24202D1002624E08C
:1028B0005EE0354EB24201D101261EE0334EB242F7
:1028C00001D1022619E0324EB24201D1032614E0B2
:1028D000304EB24201D104260FE02F4EB24201D158
:1028E00005260AE02D4EB24201D1062605E02C4E07
:1028F000B24201D1072600E008268F073F0FBE40F5
:1029000030431F4E8F0846F82700264E3068A043FC
:102910005E6806F48036B6F5803F00D12043214E34
:102920003060361D3068A0435E6806F40036B6F5A8
:10293000003F00D120431B4E361D3060361D3068ED
:10294000A0435E6806F48016B6F5801F00D12043D0
:10295000144E08363060361D3068A0435E6806F4B9
:102960000016B6F5001F00D120430E4E0C36306025
:10297000491C1029FFF420AFF8BD00004438024084
:1029800008380140000002400004024000080240F4
:10299000000C0240001002400014024000180240E7
:1029A000001C0240003C01400AB1816101E00B04BF
:1029B0008361704701480068704700007408002078
:1029C00002480068401C01490860704774080020F4
:1029D00010B50D48006840F400700B4908600846C7
:1029E000006840F4806008600846006840F4807029
:1029F0000860052000F0A4F8002000F007F800F0BF
:102A00001AF8002010BD0000003C024070B50446DA
:102A1000074800684FF47A71B0FBF1F5284601F0E1
:102A2000EEFA00222146501E00F04BF8002070BD47
:102A300000000020704710B5032000F081F800224C
:102A400011466FF00B0000F03CF8002211466FF0C9
:102A50000A0000F036F8002211466FF0090000F07D
:102A600030F800221146501F00F02BF800221146CA
:102A7000101F00F026F800221146901E00F021F8E9
:102A800000221146501E00F01CF810BD00BF00F0DF
:102A90001F0201219140034A430942F8231000BF5D
:102AA0007047000080E100E000BF00F01F0201213C
:102AB00091404209920002F1E022C2F8001100BFE9
:102AC00070472DE9F05F80460D461646002703F05B
:102AD000C7FB074639462A46334601F00700C0F1D6
:102AE000070ABAF1040F02D94FF0040A01E0C0F15D
:102AF000070AD14600F1040ABAF1070F02D24FF0DB
:102B0000000A01E0A0F1030AD4464FF0010A0AFAD4
:102B100009FAAAF1010A0AEA020A0AFA0CFA4FF0C3
:102B2000010B0BFA0CFBABF1010B0BEA030B4AEAAE
:102B30000B042146404603F09BFBBDE8F09F0000DC
:102B400000BF00F00702064B19684FF6FF0319405B
:102B5000044B0B4343EA0221014B196000BF70474D
:102B60000CED00E00000FA0502461068416200200A
:102B70007047F0B503461446002500221868426AE3
:102B800021B942EA04401E68B06219E01868806A00
:102B900002EB1042002508E0186800F5827050F83A
:102BA000250002EB1042681CC5B2481EA842F3DCA7
:102BB00042EA0447186800F582704E1E40F82670FD
:102BC0000020F0BD10B50446D4F8EC0305F06CFB12
:102BD00010BD70B504460D46C5EBC50304F13801C0
:102BE00001EB8301CA682946D4F8EC0305F0ACFA7E
:102BF00070BD70B504460D46C5EBC50304F5FC7108
:102C000001EB8301CA682946D4F8EC0305F009FBFF
:102C100070BD10B50446D4F8EC0305F048FB10BDB8
:102C200070B504460D4605F08000802808D105F0F7
:102C30007F00C0EBC00104F1380000EB810607E023
:102C400005F07F00C0EBC00104F5FC7000EB8106CD
:102C500005F07F00307005F08000C009707000BF83
:102C600094F8B803012801D1022070BD012084F836
:102C7000B80300BF3146206805F0F4FF00BF002014
:102C800084F8B80300BF00BFEFE770B504460D46F7
:102C900005F08000802808D105F07F00C0EBC0015E
:102CA00004F1380000EB810605E0C5EBC50104F531
:102CB000FC7000EB81060020B07005F07F003070E2
:102CC000C5F3C010707000BF94F8B803012801D19B
:102CD000022070BD012084F8B80300BF314620688F
:102CE00006F034FA00BF002084F8B80300BF00BF2C
:102CF000EFE72DE9F04705460E4690461F464FF098
:102D0000000906F08000802808D106F07F00C0EBA3
:102D1000C00105F1380000EB810407E006F07F00F8
:102D2000C0EBC00105F5FC7000EB810406F07F00EC
:102D3000207006F08000C0096070C4F80880E77059
:102D4000607808B12078E080022F01D10020207146
:102D500000BF95F8B803012802D10220BDE8F08732
:102D6000012085F8B80300BF2146286805F084FEDD
:102D700000BF002085F8B80300BF4846EEE72DE904
:102D8000F04104460E461746984606F07F00C0EB19
:102D9000C00104F5FC7000EB8105EF60C5F81480FC
:102DA0000020A861687006F07F0028702069012863
:102DB00000D12F6106F07F0028B9227C29462068C7
:102DC00006F0CCF804E0227C2946206806F048FA98
:102DD0000020BDE8F08170B504460D4605F0800086
:102DE000802808D105F07F00C0EBC00104F1380055
:102DF00000EB810605E0C5EBC50104F5FC7000EBB6
:102E000081060120B07005F07F003070C5F3C0105E
:102E1000707000BF94F8B803012801D1022070BD82
:102E2000012084F8B80300BF3146206806F0D2F9CB
:102E300005F07F0028B9217C04F56F72206806F048
:102E400063F900BF002084F8B80300BF00BFE6E7C5
:102E50002DE9F04104460E461746984606F07F00DD
:102E6000C0EBC00104F1380000EB8105EF60C5F84C
:102E700014800020A8610120687006F07F0028708F
:102E80002069012800D12F6106F07F0028B9227C3B
:102E90002946206806F062F804E0227C2946206872
:102EA00006F0DEF90020BDE8F08100002DE9FC5FAE
:102EB000044626684FF0000B002001908146002553
:102EC00000908046F74F206806F08AFB00286CD1FE
:102ED000206806F0BDFB08B9BDE8FC9F206806F03D
:102EE000B7FB00F00200022805D12068406900F01D
:102EF000020021684861206806F0AAFB00F4002067
:102F0000B0F5002F7ED10025206806F077FB0190F8
:102F100075E0019800F0010000286CD0E9B220684B
:102F200006F08BFB814609F00100E8B3012106F5AC
:102F3000306000EB45108160206901282BD1C5EB82
:102F4000C50104F5FC7000EB8100816806F5306076
:102F500000EB45100069C0F31200091AC5EBC50269
:102F600004F5FC7000EB82008161C5EBC50104F53E
:102F7000FC7000EB8100C5EBC502C16804F5FC7074
:102F800000EB820080680144C5EBC50204F5FC70CB
:102F900000EB8200C160E9B22046FFF72AFE2069FB
:102FA000012811D105B901E00EE0B2E2C5EBC5017F
:102FB00004F5FC7000EB8100406928B904F56F72DC
:102FC0000121206806F0A0F809F00800082808D1BF
:102FD000204600F0E7FB082106F5306000EB4510C5
:102FE000816009F01000102805D1102106F530602D
:102FF00000EB451081606D1C01984008019001981C
:10300000002800E000E084D1206806F021FB00F4F5
:103010008020B0F5802F7DD1206806F0E6FA01907F
:10302000002585E0019800F0010000287CD0E9B27D
:10303000206806F0ECFA814609F00100F0B30120A7
:10304000A840009040F6340080590099884340F62B
:1030500034018851012106F5106000EB45108160B4
:103060002069012815D1C5EBC50104F1380000EB3A
:103070008100C5EBC502C16804F1380000EB820095
:1030800080680144C5EBC50204F1380000EB820002
:10309000C160E9B22046FFF79CFD2069012810D1EC
:1030A00065B9C5EBC50104F1380000EB810040694A
:1030B00020B904F56F720121206800E001E006F0FC
:1030C00023F809F00800082805D1082106F510604A
:1030D00000EB4510816009F01000102805D1102187
:1030E00006F5106000EB4510816009F040004028B3
:1030F00005D1402106F5106000EB4510816009F014
:103100000200022805D1022106F5106000EB4510EF
:10311000816001E010E007E009F08000802803D121
:103120002946204603F0B8FA6D1C0198400801902A
:10313000019800287FF476AF206806F089FA00F045
:103140000040B0F1004F10D140F60400805920F04B
:10315000010140F604008151204600F0FCFA20688D
:10316000406900F0004021684861206806F070FA6C
:1031700000F40060B0F5006F0ED140F608008059F1
:1031800000F0010010B1204600F030FB20684069DB
:1031900000F4006021684861206806F059FA00F4E4
:1031A0008050B0F5805F5CD140F60400805920F07B
:1031B000010140F6040081511021206806F0D6F983
:1031C0004FF0000B0CE0FF2106F5106000EB4B10F8
:1031D000816006F5306000EB4B1081600BF1010B54
:1031E00060685845EFD84FF0FF3140F61800815124
:1031F000001D805940F0011140F61C008151206BE8
:1032000070B1D6F8840840F00B01C6F8841840F677
:103210004400805940F00B0140F6440081510EE01B
:1032200040F61400805940F00B0140F61400815123
:10323000001F805940F00B014FF401608151D6F816
:10324000000820F4FE60C6F80008217C04F56F72C7
:10325000206805F059FF2068406900F4805021681B
:103260004861206806F0F4F900F40050B0F5005F02
:103270006FD1206805F062FC2068C06820F47050AF
:103280002168C860206806F089F968B90021E1600A
:103290004FF4007161612068C06840F410502168EB
:1032A000C86084E00095BA0A0321E16040216161B1
:1032B00000F09EFB07469848874209D3974887420B
:1032C00006D22068C06840F470502168C8606EE083
:1032D0009248874209D39248874206D22068C06844
:1032E00040F460502168C86061E08D48874209D38E
:1032F0008C48874206D22068C06840F4505021684C
:10330000C86054E08748874209D38748874206D27D
:103310002068C06840F440502168C86047E0824897
:10332000874209D38148874206D22068C06840F4AA
:1033300030502168C8603AE07C4887420AD37C4814
:10334000874207D22068C06840F420502168C860D6
:103350002DE035E07648874209D37648874206D289
:103360002068C06840F410502168C8601FE07148B0
:10337000874209D37048874206D22068C06840F46B
:1033800000502168C86012E06B48874209D36B483F
:10339000874206D22068C06840F4E0502168C860C7
:1033A00005E02068C06840F4C0502168C86020462D
:1033B00000F0B8F92068406900F4005021684861C5
:1033C000206806F045F900F01000102845D120686B
:1033D000806920F0100021688861D6F8208008F00C
:1033E0000F00C0EBC00104F5FC7000EB810AC8F3CC
:1033F000434002281AD147F6F07008EA000030B3C3
:10340000C8F30A123046DAF80C1006F027F9C8F3B0
:103410000A11DAF80C000844CAF80C00C8F30A11C3
:10342000DAF818000844CAF8180010E0C8F343405E
:1034300006280CD1082204F56F71304606F00EF90B
:10344000C8F30A11DAF818000844CAF8180020680E
:10345000806940F0100021688861206806F0F8F863
:1034600000F00800082808D1204600F07BF9206809
:10347000406900F0080021684861206806F0E8F81B
:1034800000F48010B0F5801F09D1E9B2204600F0A9
:1034900057F82068406900F480102168486120686E
:1034A00006F0D6F800F40010B0F5001F09D1E9B21B
:1034B000204600F04EF82068406900F400102168B2
:1034C0004861206806F0C4F800F08040B0F1804FF9
:1034D00008D12046FFF776FB2068406900F0804065
:1034E00021684861206806F0B3F800F00400042861
:1034F0000FD12068D0F8048008F00400042802D11D
:103500002046FFF786FB2068406840EA08002168F3
:10351000486000BFE0E40000C0ACD800C0E1E400B7
:103520000024F40080730601A0491A01002D310126
:1035300040A44C0100366E0120ABA6010048E80112
:1035400070B504460D462946D4F8EC0304F01CFF80
:1035500070BD70B504460D462946D4F8EC0304F05E
:1035600016FF70BD30B58BB00446002514B901209C
:103570000BB030BD032084F8B903204600F094F866
:10358000206805F0E3FC282204F110016846FCF7EE
:103590001FFE94E80F0005F0F3FA0021206806F002
:1035A0006EF8002530E00121C5EBC50204F13800BA
:1035B00000EB82004170C5EBC50204F1380000F851
:1035C0002250C5EBC50200EB8200C5800021C5EB8F
:1035D000C50204F1380000EB8200C170C5EBC502E2
:1035E00004F1380000EB82008160C5EBC50204F1F4
:1035F000380000EB8200C160C5EBC50204F1380061
:1036000000EB820041616D1C0F2DCCD3002536E00C
:103610000021C5EBC50204F5FC7000EB820041708F
:10362000C5EBC50204F5FC7000F82250C5EBC502DD
:1036300004F1380000EB8200C580C5EBC50204F53B
:10364000FC7000EB8200C170C5EBC50204F5FC7094
:1036500000EB82008160C5EBC50204F5FC7000EB55
:103660008200C160C5EBC50204F5FC7000EB82006E
:103670004161206800F5827040F825106D1C0F2D07
:10368000C6D3282204F110016846FCF7A1FD94E896
:103690000F0005F08BFB012084F8B903206805F0CA
:1036A00076FB002064E7000010B586B00446206871
:1036B000B0F1A04F30D14FF4C050019002200290E1
:1036C00000200390032004900A20059001A91348CC
:1036D000FFF76AF800BF1248006840F08000104908
:1036E000086000BF002000900D481030006840F4D2
:1036F00080400B49103108600846006800F48040A3
:10370000009000BF00BF00BF012200214320FFF74F
:10371000D8F94320FFF7C8F906B010BD00000240F9
:103720003438024070B504460125E06810B1022823
:1037300004D101E0002503E0012501E0012500BFDF
:1037400000BF2946D4F8EC0304F0C0FED4F8EC0323
:1037500004F082FE70BD10B50446D4F8EC0304F00A
:103760009DFE10BD10B50446D4F8EC0304F09DFE98
:1037700010BD70B504460D4600BF94F8B80301288B
:1037800001D1022070BD012084F8B80300BF294692
:10379000206805F08CFF00BF002084F8B80300BF4C
:1037A00000BFEFE710B5044604F56F71D4F8EC03E1
:1037B00004F0B2FE10BD10B5044600BF94F8B80383
:1037C000012801D1022010BD012084F8B80300BFF8
:1037D000206805F0CDFA206805F0AAFE00BF0020A1
:1037E00084F8B80300BF00BFEDE7000010B5044641
:1037F000D4F8EC0304F007FF2068D0F8000E40F086
:1038000001002168C1F8000E206A28B10348006851
:1038100040F006000149086010BD000010ED00E016
:1038200070B504460D4600266D48006800F00F0094
:10383000A84209D26A490D700846006800F00F00DE
:10384000A84201D0012070BD207800F002000228BB
:1038500007D16448006820F0F000A168084361497E
:103860000860207800F00100002877D06068012807
:1038700007D15C4808380068C0F34040B8B901205F
:10388000E1E76068022802D06068032807D1554844
:1038900008380068C0F3406048B90120D3E75148B8
:1038A00008380068C0F3400008B90120CBE74D4854
:1038B000006820F00300616808434A490860FFF788
:1038C00079F806466068012810D108E0FFF772F821
:1038D000801B41F28831884201D90320B3E7414877
:1038E000006800F00C000428F0D137E0606802287E
:1038F00010D108E0FFF75EF8801B41F28831884262
:1039000001D903209FE73748006800F00C00082821
:10391000F0D123E06068032810D108E0FFF74AF8EF
:10392000801B41F28831884201D903208BE72D4862
:10393000006800F00C000C28F0D10FE008E0FFF761
:1039400039F8801B41F28831884201D903207AE797
:103950002448006800F00C000028F0D120480068DE
:1039600000F00F00A84209D91D490D7008460068F3
:1039700000F00F00A84201D0012064E7207800F099
:103980000400042807D11748006820F4E050E168DB
:10399000084314490860207800F00800082808D17E
:1039A0001048006820F46040216940EAC1000D49D8
:1039B000086000F04FF80B49096801F0F001F022AF
:1039C00092FAA2F2B2FA82F2D140074A515CC840A0
:1039D000064908600020FFF719F8002033E70000CF
:1039E000003C024008380240E6A400080000002025
:1039F00001480068704700000000002000B5FFF794
:103A0000F7FF0749096801F4E0514FF4E05292FAD8
:103A1000A2F2B2FA82F2D140024A515CC84000BD23
:103A200008380240F6A4000800B5FFF7E1FF074997
:103A3000096801F460414FF4604292FAA2F2B2FACE
:103A400082F2D140024A515CC84000BD08380240B1
:103A5000F6A4000870B50021002200230020274CA6
:103A6000246804F00C0424B1042C04D0082C41D1A7
:103A700003E0234840E023483EE0204C241F246814
:103A800004F03F011D4C241F246804F4800484B119
:103A90001C4CB4FBF1F5194C241F246847F6C07682
:103AA000344096FAA6F6B6FA86F6F44005FB04F220
:103AB0000FE0134CB4FBF1F5104C241F246847F6BB
:103AC000C076344096FAA6F6B6FA86F6F44005FBC0
:103AD00004F20A4C241F246804F440344FF44035A7
:103AE00095FAA5F5B5FA85F5EC40641C6300B2FBC8
:103AF000F3F001E0024800BF00BF70BD083802408B
:103B00000024F40000127A0038B50446002520781D
:103B100000F00100002874D0F748006800F00C00A5
:103B200004280DD0F448006800F00C00082813D1D8
:103B3000F148001F006800F48000B0F5800F0BD141
:103B4000ED4808380068C0F34040002859D060684C
:103B5000002856D1012038BD00BF6068B0F5803F15
:103B600008D1E5480838006840F48030E249083957
:103B700008601EE06068B0F5A02F0DD1DE4808385F
:103B8000006840F48020DC49083908600846006875
:103B900040F4803008600CE0D7480838006820F412
:103BA0008030D549083908600846006820F4802034
:103BB000086000BF606890B1FEF7FCFE054606E0B5
:103BC000FEF7F8FE401B642801D90320C3E7CA486A
:103BD00008380068C0F340400028F1D011E0FEF73B
:103BE000E9FE054606E0FEF7E5FE401B642801D924
:103BF0000320B0E7C04808380068C0F34040002800
:103C0000F1D1207800F00200022869D1BA4800689A
:103C100000F00C0058B1B848006800F00C0008280B
:103C200021D1B548001F006800F48000D8B9B2481F
:103C300008380068C0F3400020B1E068012801D0D6
:103C4000012088E7AC480838006820F0F800F82226
:103C500092FAA2F2B2FA82F2216991400843A6498F
:103C6000083908603CE0E06828B30120A3490860F7
:103C7000FEF7A0FE054606E0FEF79CFE401B02286C
:103C800001D9032067E79C4808380068C0F340006A
:103C90000028F1D098480838006820F0F800F82291
:103CA00092FAA2F2B2FA82F2216991400843924953
:103CB0000839086014E0002090490860FEF77AFE99
:103CC000054606E0FEF776FE401B022801D90320D8
:103CD00041E7894808380068C0F340000028F1D166
:103CE000207800F0080008282CD16069A8B10120D4
:103CF00083490860FEF75EFE054606E0FEF75AFEC1
:103D0000401B022801D9032025E77B486C3000685E
:103D1000C0F340000028F1D014E00020784908608A
:103D2000FEF748FE054606E0FEF744FE401B02286B
:103D300001D903200FE770486C300068C0F34000E1
:103D40000028F1D1207800F0040004287FD100BFC2
:103D50000020009068483830006840F08050664984
:103D6000383108600846006800F08050009000BFBD
:103D700000BF6448006840F4807062490860FEF744
:103D800019FE054606E0FEF715FE401B022801D984
:103D90000320E0E65B48006800F480700028F2D061
:103DA00000BFA068012808D153486830006840F07F
:103DB00001005149683108601DE0A06805280DD157
:103DC0004D486830006840F004004B496831086095
:103DD0000846006840F0010008600CE04648683082
:103DE000006820F001004449683108600846006816
:103DF00020F00400086000BFA068A0B1FEF7DAFD63
:103E0000054608E0FEF7D6FD401B41F288318842A6
:103E100001D903209FE6384868300068C0F34000AD
:103E20000028EFD013E0FEF7C5FD054608E0FEF7D9
:103E3000C1FD401B41F28831884201D903208AE646
:103E40002D4868300068C0F340000028EFD1A06919
:103E5000F0B32948006800F00C00082871D0A06970
:103E6000022858D1002025490866FEF7A3FD054623
:103E700006E0FEF79FFD401B022801D903206AE6F9
:103E80001D4808380068C0F340600028F1D1D4E92B
:103E90000701084347F6C07292FAA2F2B2FA82F220
:103EA000616A914008430122A16AC2EB51014FF4BB
:103EB000403292FAA2F2B2FA82F2914008434FF0F5
:103EC000706292FAA2F2B2FA82F2E16A914000E0E4
:103ED00039E008430849091F0860012007490866BE
:103EE000FEF768FD05460FE0FEF764FD401B022863
:103EF0000AD903202FE6000008380240000047429C
:103F0000800E47420070004010480068C0F34060D7
:103F10000028E9D017E000200D490866FEF74AFDA9
:103F2000054606E0FEF746FD401B022801D90320A6
:103F300011E606480068C0F340600028F2D102E0B4
:103F4000FFE7012007E6002005E6000000380240F8
:103F50000000474210B504460CB9012010BD00BF57
:103F60002079012801D10220F8E70120207100BF4B
:103F7000607920B900202071204600F011F802205D
:103F800060712068006840F004002168086001202A
:103F9000607100BF0020207100BF00BFDEE700009D
:103FA00008B50A4A016891420FD100BF0021009173
:103FB0000749096841F04001054A11601146096846
:103FC00001F04001009100BF00BF08BD000806508D
:103FD00034380240042808D14FF0E021096941F04B
:103FE00004014FF0E022116107E04FF0E021096980
:103FF00021F004014FF0E02211617047704770B565
:1040000004462546681EB0F1807F01D301200FE0F1
:10401000681E4FF0E02148610F214FF0FF3002F0A1
:1040200027F900204FF0E021886107200861002077
:1040300070BD10B5FFF7E2FF10BD10B504460CB916
:10404000012010BDA06900B100E000BF94F8390064
:1040500028B9002084F83800204600F027F82420F2
:1040600084F839002068C06820F400502168C860D6
:10407000204603F0E1FA2068006920F490402168AE
:1040800008612068406920F02A00216848612068A2
:10409000C06840F400502168C8600020E063202020
:1040A00084F8390084F83A000020CAE710B586B0D9
:1040B00004462449206888421ED100BF0020009099
:1040C0002148006840F010001F4908600846006859
:1040D00000F01000009000BF00BFC020019002203F
:1040E000029001200390032004900720059001A96D
:1040F0001648FEF759FB23E01549206888421FD176
:1041000000BF002000901048001F006840F40030FD
:104110000D49091F08600846006800F4003000904F
:1041200000BF00BF0C2001900220029001200390EC
:10413000032004900720059001A90648FEF734FBF0
:1041400006B010BD00100140443802400004024097
:1041500000440040000002402DE9F0419EB00546B9
:104160000E4617469846002400208DF808002020AF
:10417000039001A802F086FE04461CB120461EB042
:10418000BDE8F0813246294601A802F0FEFD044652
:104190000CB12046F3E74246394601A802F029FE59
:1041A00004460CB12046EAE72046E8E72DE9F04155
:1041B00004460D4617462046E11704EB9171C1F302
:1041C000870808F11F02D1B2D21ED0B202F051FF0F
:1041D00005F10B00C1B2284602F05BFF02F069FF57
:1041E000002609E007EB470106EBC101044A505CD9
:1041F000FDF737F8701CC6B2182EF3DBBDE8F0816E
:10420000A306002000BFFEE710B5044802F083FEBD
:10421000401C08B9002010BD0120FCE70000020886
:104220002DE9F04790B004460E463146204605F091
:104230007DFE00287ED06078217840EA0127A078B2
:10424000E17840EA0125A7F2011038B1A12836D063
:10425000A2285FD0B0F5007F6DD1DDE0A078E178D5
:1042600040EA01209B4948852079617940EA012094
:10427000A17940EA0140E17940EA0160954908608E
:1042800000209549088040F2CD419448FBF7C7FFD4
:10429000202204F108018F480830FBF799FF8D4870
:1042A0000068B0F5704F03D2012000F04DF905E031
:1042B000002000F049F9012005F02CFA05E12079F1
:1042C000617940EA012840F2CC40804502DD0620B9
:1042D00005F020FA7F48008DA84217D17E49098851
:1042E00001EBC10202EB01117D4A02EB41003222D7
:1042F000A11DFBF76DFF01217848774A1288815490
:1043000075480088401C7449088002E0022005F0CE
:1043100001FADAE06F48202308AA0168704802F029
:1043200049FD05F0C5FE002863D020226949083107
:1043300008A801E0CBE0C7E0FCF730FF002845D03B
:104340006848008830BB66480078624981F86C0094
:10435000084690F86C206249491C2C30FBF738FF66
:104360005C4800685B4B93F86C30C01A421E594899
:1043700090F86C305A48401C19185B4802F0DCFD7C
:1043800054480068534991F86C10401A401E574930
:1043900008600FE04F490A6854490968524BC81831
:1043A0004F4902F0C9FD4B4800685049096808446C
:1043B0004E4908604B48028808A9012000F02CF9FA
:1043C00048480088401C4749088024E04FF4704169
:1043D0004348FBF724FF4348028808A9002000F067
:1043E0001BF94FF4FA70FEF7EFF8032005F092F98D
:1043F00011E04FF470413A48FBF711FF3948028849
:1044000008A9002000F008F94FF4FA70FEF7DCF874
:10441000052005F07FF958E02079617940EA01280C
:10442000A079E17940EA012994F8280094F829104C
:1044300040EA012A20236A462C4801682A4802F0F3
:10444000B9FCB8F1000F02D1B9F1000F0CD04FF454
:1044500070412348FBF7E3FE2946002000F024F9D1
:10446000042005F057F930E06A461A492048FCF765
:104470008BFDB0B151461F4802F050FD2946012086
:1044800000F012F9FCF79EF84FF4FA70FEF79CF872
:10449000FCF7BCFF0020FEF721F8134805F0B4FD3F
:1044A00011E0052002F01CFD062002F019FD4FF47A
:1044B00070410B48FBF7B3FE2946002000F0F4F8EA
:1044C000042005F027F900E000BF00BF00BF10B0D6
:1044D000BDE8F087480F00204600002000040120BE
:1044E000001000204C0000200000020848000020BE
:1044F00005000020FEFF050830B591B00024FEF74E
:104500000EF80546402101A8FBF789FE03208DF82F
:10451000040011208DF80500E8B28DF80600280A85
:104520008DF807003E2201A9002005F0E1FC0446B9
:10453000E0B28DF84200200A8DF84300402101A826
:1045400004F088FA11B030BD30B591B004460025B2
:10455000402101A8FBF763FE01208DF80400FDF760
:10456000DEFF2A490885084690F828008DF80600E5
:104570000846008D000A8DF80700084600683130B3
:104580003221B0FBF1F02149486054B310208DF87E
:10459000050000208DF808008DF809000846007914
:1045A0008DF80A0008468088000A8DF80B0020224A
:1045B000083103A8FBF70CFE15480088A0B90020BD
:1045C000FDF78CFF2820182321221E21009011487E
:1045D00002F093FD012310222821782005F068FCC9
:1045E00002E0E0208DF805003E2201A9002005F040
:1045F0007FFC0546E8B28DF84200280A8DF843009A
:10460000402101A804F026FA11B030BD480F002067
:104610004C000020300D0020F0B591B004460F464C
:1046200015460026402101A8FBF7F9FD01208DF871
:1046300004001CB111208DF8050002E012208DF855
:104640000500184890F82A008DF806001548408D9E
:10465000000A8DF80700E8B28DF8080000208DF8F8
:104660000900104800798DF80A000E488088000A79
:104670008DF80B002022394603A8FBF7A9FD3E2246
:1046800001A9002005F034FC0646F0B28DF8420086
:10469000300A8DF84300402101A804F0DBF911B085
:1046A000F0BD0000480F002070B590B005460C46E4
:1046B000002640216846FBF7B2FD03208DF800007C
:1046C0001DB1A1208DF8010002E0E1208DF801006C
:1046D000E0B28DF80200200A8DF803003E22694600
:1046E000002005F005FC0646F0B28DF83E00300AC9
:1046F0008DF83F004021684604F0ACF910B070BD61
:1047000010B50B48007858B10A48007800F0010055
:1047100030B10848007820F00400001D05490870F9
:104720000548007810B1502001F00CFB10BD0000CE
:10473000980000204E0000205000002070B5054673
:10474000002400F02DF9582000F0F6F800F074F97C
:10475000284600F0F1F800F06FF900F047F900F09A
:104760001FF9592000F0E8F800F066F9012000F088
:10477000ADF80402002000F0A9F8044300F036F977
:10478000204670BD70B506460C4600F009F9582069
:1047900000F0D2F800F050F9304600F0CDF800F00B
:1047A0004BF9201200F0C8F800F046F92546E11751
:1047B00004EB11610912A4EB0121C8B200F0BCF8AE
:1047C00000F03AF900F012F90A20FDF7FDFE70BD85
:1047D00010B500200F4908600F48006820F4400021
:1047E0000D4908600846006840F480000860002019
:1047F0000A49C1F8AC02022005F0BAFB01200549C4
:104800000860022005F0B4FB00200449C1F8A802AA
:1048100010BD0000A88240420004024000804042D7
:1048200000B587B000BF002001901048006840F03C
:1048300002000E4908600846006800F0020001907E
:1048400000BF00BF4FF4406002900120039004902D
:104850000320059002A90648FDF7A6FF012005499F
:1048600008600549C1F8A80207B000BD3038024011
:1048700000040240AC8240420080404210B500205B
:104880000F4908600F48006820F440000D49086097
:104890000846006840F48000086001200A49C1F819
:1048A000AC02022005F064FB0120054908600220EB
:1048B00005F05EFB00200449C1F8A80210BD00000D
:1048C000A8824042000402400080404270B5054684
:1048D00000241648006820F4400014490860084687
:1048E00000680860002616E00020114908600220D8
:1048F00005F03EFB01200F49C1F8A8026006040E36
:104900000B487C38006808B1601CC4B2012005F077
:104910002FFB701CC6B2082EE6DB15B9FFF7AEFF01
:1049200001E0FFF755FF204670BD00000004024083
:10493000A88240420080404270B504461548006895
:1049400020F44000134908600846006840F48000E5
:104950000860002010490860002517E0E0090E49B2
:10496000091D08606006040E022005F001FB01200D
:104970000A49C1F8A802022005F0FAFA0020064907
:104980000860022005F0F4FA681CC5B2082DE5DBCA
:1049900070BD000000040240A882404200804042F6
:1049A00010B50F48006820F440000D490860084623
:1049B000006840F48000086001200A4908600A4944
:1049C000C1F8A802042005F0D3FA002005490860C8
:1049D000042005F0CDFA00200349C1F8A80210BD5B
:1049E00000040240AC8240420080404210B50F48B3
:1049F000006820F440000D4908600846006840F453
:104A00008000086000200A4908600A49C1F8AC0229
:104A1000042005F0ADFA0120054908600549C1F8F8
:104A2000AC02042005F0A4FA10BD0000000402400E
:104A3000A88240420080404210B50024134800681C
:104A400020F4400011490860084600680860012011
:104A50000F49086005F08CFA01200E49C1F8A80240
:104A600005F086FA07E0601CC4B2FA2C03DDFFF7FC
:104A7000BDFF012010BD0648803800680028F2D133
:104A80000349091F086000BFF4E70000000402406A
:104A9000AC8240420080404270B48279002302B36D
:104AA0009C4612F001024FF0040405D0D0F800C07B
:104AB000CCF804304FF0010C8579954211D900BF34
:104AC000056804EB8C060CF1010CAB51056804EB96
:104AD0008C06921CAB51857992B20CF1010C954277
:104AE000EED801228280002904DBC37100680160D6
:104AF00070BC7047C27100684942016070BC704769
:104B000010B504460B4800210170012C09D1FBF7B8
:104B100015FD0848007820F00100401C0549087088
:104B200007E0FBF7E5FC0348007820F001000149AD
:104B3000087010BD4E0000202DE9F00700293FD07D
:104B400083886FF00308026808EB830C002752F893
:104B50000C20C1F12004E24018BF1746012B19D0E8
:104B600000225B1E6FF007098588D0F800C0AE1ADE
:104B700008EB860509EB86065CF805A05CF8066084
:104B80000AFA01FAE6404AEA0606521C4CF80560A9
:104B90005B1EE9D10268136803FA01F111607FB16D
:104BA000818883794A1C9A4282BF41F2B540BDE8B0
:104BB000F0077047026842F821708188491C8180A3
:104BC000BDE8F0070020704710B5034803490860AE
:104BD0000846FDF7AAFC10BD00300240B00D0020D1
:104BE00000B587B000BF002001904E48006840F03B
:104BF00080004C4908600846006800F08000019081
:104C000000BF00BF00BF002001900846006840F0D0
:104C1000010008600846006800F00100019000BF34
:104C200000BF00BF002001900846006840F0080067
:104C300008600846006800F00800019000BF00BF4F
:104C400000BF002001900846006840F002000860A4
:104C50000846006800F00200019000BF00BF01227A
:104C600030213148FDF7A0FE012255212F48FDF7E4
:104C70009BFE012208212E48FDF796FE302002906F
:104C800001200390002004900320059002A92648EB
:104C9000FDF78AFD5520029001200390002004902A
:104CA0000320059002A92148FDF77EFD082002900F
:104CB00001200390002004900320059002A91C48C5
:104CC000FDF772FD01200290039000200490032064
:104CD000059002A91648FDF767FD0022012114483E
:104CE000FDF762FE4FF400700290002003900490E4
:104CF00002A90D48FDF758FD4FF4C0500290012065
:104D00000390002004900320059002A90648FDF7B7
:104D10004BFD00224FF4C0510348FDF745FE07B09C
:104D200000BD00003038024000000240000C02408C
:104D30000004024010B50348034908600846FFF725
:104D400009F910BD00080650440F012010B50C48A9
:104D50000C4908604FF4E130486000210948816047
:104D6000C16001610C21416100218161C161FFF7D6
:104D700064F920B14FF4837103A004F0FCFD10BD71
:104D800000100140040F01202E2E2F5372632F6D4F
:104D900061696E2E6300000010B5002207490848C3
:104DA00003F075F90749064803F07CFC06490448FE
:104DB00002F079FE024803F03DFD10BDC40D002055
:104DC000F0080120F4070020A008002000BFFEE743
:104DD00070B51D46049E14463346FBF751FF28B1BB
:104DE000A279A188521C914218BF70BD2946204665
:104DF000FCF7E4F9002805DB224633462946104635
:104E000002F022FAA088A17988428CBF41F2B54015
:104E1000002070BD2DE9F047044680880026174623
:104E20008846012802D12168096811B300281CBFF7
:104E30000022111F11D0A3882568A3EB020C01EBFF
:104E40008C0955F82C3055F809905B0043EAD9736A
:104E5000521C45F82C30401EEDD1206801684900F5
:104E60000160A088216851F82010012904BF401C6E
:104E7000A08041462046FCF7A1F9002806DB224627
:104E80003B464146104602F0DFF90646A088A1796C
:104E900088428CBF41F2B5403046BDE8F0872DE92D
:104EA000F04387B000258146009501950395029552
:104EB00010681646884600781C4610F0010F02BFA5
:104EC00041F2B64007B0BDE8F083B1791A466846B2
:104ED00002F04DF900281CBF07B0BDE8F083B1799E
:104EE000224601A802F043F96FF00307002840F0C2
:104EF000D180B0792246411C03A802F038F900287D
:104F000040F0BA80B0792246411C02A802F02FF985
:104F1000002874D148460099FCF7FAF900286FD1AF
:104F200030460199FCF7F4F9002869D10121039872
:104F3000FFF7B2FD00210298FFF7AEFD00988188CF
:104F4000012903D10068006800285AD00098016840
:104F5000097811F0010F16D1FDF75AFA039801688C
:104F6000097811F0010F07D0234602463146FBF7BE
:104F700087FE002864D102E0FDF74AFAE6E70398CD
:104F8000FDF746FAE2E701980168097811F0010F90
:104F90000DD001460098FCF711F90028234621DBCB
:104FA000009A0199104602F04FF948BB15E0FDF751
:104FB0002FFA02980168097811F0010F06D02346F4
:104FC00002463146FBF75CFED0B902E0FDF720FA5D
:104FD000D9E70298FDF71CFAD5E7039A2346104655
:104FE000029909E0019A0099104602F02DF938B9AA
:104FF000029A23461046039902F026F99EE72DE017
:105000001EE00298C179012907D1234602463146A4
:10501000FBF736FE0028F4D012E031460298FCF788
:10502000CDF8002808DB029A23461046314602F0EC
:105030000BF90028F1D003E041460298FCF768F92B
:105040000299002918BF002C08D08979E2884942CA
:1050500007EB810111440839E18002950399002989
:1050600018BF002C08D08979E288494207EB8101FA
:1050700011440839E18003950199002918BF002CDB
:1050800008D08979E288494207EB81011144083947
:10509000E18001950099002912BF002C07B0BDE8FE
:1050A000F083E2888979494207EB8101114408398C
:1050B000E180009507B0BDE8F083F8B500250095C4
:1050C0000F46144606468179D268684602F04FF8CA
:1050D00000281CBF40F2ED30F8BD01210098FFF719
:1050E000DBFC23463A463046009900F025FD009A45
:1050F000E168002A14BF0029F8BDCB8892796FF0CF
:10510000030C52420CEB82021A44083ACA80009502
:10511000F8BD00002DE9F74F84B0002000900498FE
:105120000C46069A8079811C201D02F020F8002888
:105130004DD10498206000216068FFF7ADFC049811
:1051400061684FF0010C8088401C888060680168AD
:105150000498808841F820C004980068026860467E
:1051600002F00301022928BF0320042107230F2591
:1051700002FB00F61E408E4228BF084449008CEA1C
:10518000430302FB00F61E408E4228BF084449003C
:105190008CEA43036D1EEBD14042A0600498069A4E
:1051A0008079411C684601F0E2FF2D1F80B16168E3
:1051B0000698002918BF002841D08979C288494241
:1051C00005EB810111440839C1800020606036E0A0
:1051D00000990498FCF79CF80098FCF7E8F8C0F1F7
:1051E000200000F01F00014601900098FFF7A4FC8A
:1051F0006068069B0246009902F026F820B36168B9
:105200000698002918BF002809D08979C288494228
:1052100005EB810111440839C180002060600099CC
:105220000698002918BF002809D08979C288494208
:1052300005EB810111440839C1800020009007B0BE
:1052400040F2ED30BDE8F08F002002900498808895
:10525000002840F2F2800198C0F1200003906168BC
:1052600004980A6880888B8805EB80008E7917582F
:10527000012003F1010CB4453CD8012B04BF126896
:10528000002A37D04FF00008012B1CBF00225B1E04
:1052900013D000BFB1F804C00E68ACEB020984441F
:1052A000ACEB020C05EB890905EB8C0C56F8099068
:1052B000521C46F80C905B1EECD10A68136842F849
:1052C00020300023012813BF02460A68C2F800807C
:1052D00090420CD9D1F800C0921C4CF82380D1F830
:1052E00000C05B1C4CF823805B1C9042F2D88A887B
:1052F00010448880002F18BF6FF007067ED00099F9
:105300000498FCF705F80098B7B30021B0F804C082
:10531000D0F800A00A46BCF1000F30D0AAF1040377
:105320001CF0010F05D053F8041FA1FB07211A60E0
:105330000022B0F804C05FEA5C0C18BF4FF000090F
:105340000FD0D3F804809346E8FB071B59609A6896
:105350004946E2FB07B143F808BF4A46BCF1010CDD
:10536000EFD1828859B190F806C0531C63459CBFA9
:1053700083804AF8221002E0FFE701F057FEDDE9E2
:105380000002E2B3B0F804C0016805EB8C034FF0F3
:10539000000BCB580399CB4018BF9B46BCF1010FC3
:1053A0001CBF0023ACF1010C19D000BFB0F8048081
:1053B0000768A8EB030905EB890806EB890957F88C
:1053C00008A057F809900AFA02FA29FA01F94AEAFC
:1053D00009095B1C47F80890BCF1010CE6D1016893
:1053E0000B6803FA02F20A60BBF1000F0DD081884E
:1053F00083794A1C9A4208D8026801E014E004E06C
:1054000042F821B08188491C81806068069B024671
:10541000009901F019FF606801680498808851F8CC
:105420002070002F7FF46BAF0298401C029004980C
:105430008188029881423FF612AF009906980029B0
:1054400018BF002809D08979C288494205EB81013B
:1054500011440839C1800020009060680499FBF76E
:10546000ADFE002805DD6068069B0246049901F048
:10547000EBFE0698E06007B00020BDE8F08F2DE954
:10548000FF4F85B04FF00009129D0746CDF8009000
:10549000CDF80490CDF808902868884616468079A3
:1054A000EA68411C684601F062FE040040F0A281F7
:1054B0002868EA688079411C01A801F058FE0400C0
:1054C0006FF0030A40F086812868EA688079411C01
:1054D00002A801F04CFE040040F06C81387B10F013
:1054E000020F98F80C0009D010F0020F19BF02202B
:1054F00030733146404640F04D8105E010F0020F18
:105500001CBF3146384603D0FCF74CF800F042B9D6
:1055100010F0010F07D031683868FBF7F9FE04007E
:105520001FD000F037B9D8F808002B460146009A82
:1055300000F002FB040040F02D8132682B463868F1
:10554000009900F0F9FA2B46D8F80800029A009961
:1055500000F0F2FA72682B467868029900F0ECFAD3
:1055600003E071687868FBF7D3FEB8682B46014604
:10557000009A00F0E1FA040040F00C81DDE900122D
:105580002B46D8F8000000F0D7FA31682A68049258
:105590000198EA688346134603925A4601F054FE86
:1055A000002818BF04460AD19BF80700012809D13A
:1055B000DDE903315A461046FBF762FB0446002C36
:1055C00040F0E880009A2B46B868114600F0B4FA23
:1055D000009A2B46D8F80400114600F0ADFA716825
:1055E0002A680492EA68DDF808B01346039200982E
:1055F0005A4601F029FE002804BF9BF80700012845
:1056000005D1DDE903315A461046FBF739FB019815
:105610008188012902D10068006858B198F80C000F
:1056200010F0010F17D0B168B868FBF771FE0400E5
:105630001AD0AFE002988188012902D10068006881
:1056400008B10220A5E02B4631463846089A00F002
:10565000D5F804469EE0B268D8F808102B46B86822
:1056600000F06AFA04007ED1B0682B460246019928
:1056700000F062FA040076D1DDE900212B460846ED
:1056800000F05AFA019A2B461046009900F054FA9D
:10569000009A2B463168104600F04EFA70682B468F
:1056A0000246019900F048FA02992B4632680846F2
:1056B00000F042FA3068D5F80C800746019943465D
:1056C0003A46D5F800B001F0BFFD040009D1F879E1
:1056D000012808D13A46434659461046FBF7D0FA0E
:1056E0000446002C56D1DDE90001FBF711FEEA6803
:1056F00029680198FFF78EFB04004BD13068EF68F2
:10570000044601993B462246D5F8008001F09CFDF5
:10571000002804BFE079012805D122463B464146D6
:105720001046FBF7ADFA019CEF68009831683B46E4
:105730002246D5F8008001F087FD002804BFE079FB
:10574000012805D122463B4641461046FBF798FA10
:10575000019A2B461046029900F0EEF9040019D187
:105760000198716800E015E0D5F80C800F464346BB
:105770003A46D5F800B001F067FD002804BFF8797B
:10578000012805D13A46434659461046FBF778FAB8
:10579000042030730299E868002918BF002809D056
:1057A0008979C28849420AEB810111440839C180D4
:1057B000CDF808900199E868002918BF002809D0A1
:1057C0008979C28849420AEB810111440839C180B4
:1057D000CDF804900099E868002918BF002809D086
:1057E0008979C28849420AEB810111440839C18094
:1057F000CDF8009009B02046BDE8F08F2DE9F04FBC
:1058000083B04FF000080746CDF80880CDF804803B
:1058100018680E46914680791C46811C01A8DA68FA
:1058200001F0A5FC050040F06A812068E2688079FB
:10583000811C02A801F09BFC05006FF0030A40F0F8
:105840004E81C11E0198FFF727F9387B10F0020F37
:105850001CBF0220307340F0328104203073B868DE
:1058600023460146029A00F067F9050040F02781BF
:10587000D7E901102346B26800F05EF9E2682168BA
:10588000B068FFF7C7FA050040F01981019AE36894
:1058900021681046FBF7F4F9D9F830000168019847
:1058A000FBF78CFC48B1029A23461046014600F0F3
:1058B00043F9050040F0038140E0DDE90191D4F8AF
:1058C0000CB038685B464A46256801F0BDFC48B913
:1058D00099F80700012808D14A465B462946104638
:1058E000FBF7CEF9050040F0EA80E06800902368FD
:1058F000326838680299FFF76BFA050040F0DF80E4
:10590000DDE901122346306800F016F9050040F089
:10591000D680DDE90110FBF7FBFCE2682168019805
:10592000FFF778FA050040F0CA80E0680090029A1C
:10593000236811460198FFF74BFA2AE0D9F83000A6
:10594000616823460068019A00F0F6F8029A23463F
:105950001146019800F0F0F8386823460146019A94
:1059600000F0EAF8E0680090029A23681046019976
:10597000FFF72EFAE26821680198FFF74BFAE0681A
:105980000090029A236810460199FFF721FA05005A
:105990007ED1786832682346014600F0CDF80500D4
:1059A00076D1306823460146019A00F0C5F8E268D6
:1059B00021680198FFF72EFAE26821680198FFF745
:1059C00029FAE26821680198FFF724FAE268216861
:1059D0003068FFF71FFAE26821683068FFF71AFAAB
:1059E000D6E900122346386800F0A6F8050066D113
:1059F000029923463268084600F09EF8D6E9000175
:105A0000D4F80C9007464B463A46D4F800B001F063
:105A10001BFC002804BFF879012805D13A464B4603
:105A200059461046FBF72CF9D6E90001D4F80C9042
:105A300007464B463A46D4F800B001F005FC002872
:105A400004BFF879012805D13A464B46594610461D
:105A5000FBF716F9D6E90010D4F80C9007464B4630
:105A60003A46D4F800B001F0EFFB002804BFF87903
:105A7000012805D13A464B4659461046FBF700F936
:105A8000716823460A46029800F056F8706800E0F4
:105A900015E0E768064601993B460246D4F80090B7
:105AA00001F0D2FB00280ABFF0790546012806D193
:105AB00032463B4649461046FBF7E2F80546029956
:105AC000E068002918BF002809D08979C2884942B6
:105AD0000AEB810111440839C180CDF80880019991
