:020000040806EC
:1000000018540020AD010608FD560608DD4206081A
:1000100041440608A1280608E37306080000000012
:10002000000000000000000000000000316E060823
:10003000F32C060800000000855806089372060895
:10004000C7010608C7010608C7010608C701060858
:10005000C7010608C7010608C7010608C701060848
:10006000C7010608C7010608C7010608C701060838
:10007000C7010608C7010608C7010608C701060828
:10008000C7010608C7010608C7010608C701060818
:10009000C7010608C7010608C7010608C701060808
:1000A000C7010608C7010608C7010608C7010608F8
:1000B000C7010608C7010608C7010608C7010608E8
:1000C000C7010608C7010608C7010608C7010608D8
:1000D000C7010608C7010608FD720608C701060821
:1000E000C7010608C7010608C7010608C7010608B8
:1000F000C7010608C7010608C7010608C7010608A8
:10010000C7010608C7010608C7010608C701060897
:10011000C7010608C7010608C7010608C701060887
:10012000C7010608C7010608C7010608C701060877
:10013000C7010608C7010608C7010608C701060867
:10014000C7010608C7010608C7010608C701060857
:10015000C7010608C7010608C7010608C701060847
:10016000C7010608C7010608C7010608C701060837
:10017000C7010608C7010608C7010608C701060827
:10018000C7010608C7010608DFF80CD000F098FB8D
:1001900000480047A58806081854002030BF72B6F2
:1001A000704762B6704780F30888704706488047FA
:1001B00006480047FEE7FEE7FEE7FEE7FEE7FEE74C
:1001C000FEE7FEE7FEE7FEE79572060889010608EE
:1001D00010B5431A934209D28318881803E010F827
:1001E000011D03F8011D521EF9D210BD40EA0103A2
:1001F0009B0703D009E008C9121F08C0042AFAD2DD
:1002000003E011F8013B00F8013B521EF9D210BD8A
:10021000D2B201E000F8012B491EFBD27047002248
:10022000F6E710B513460A4604461946FFF7F0FFF5
:10023000204610BD2DE9FE4F804681EA0300C00F25
:100240000C46009021F0004123F00045B8EB02007D
:10025000A94105D24046214690461C460B4602461F
:1002600023F00040104347D0270DC7F30A00C3F323
:100270000A510290401A019040286BDAC3F3130030
:1002800040F4801B0098924620B10023D2EB030A71
:1002900063EB0B0B01985946C0F14002504600F049
:1002A000ACF906460D4650465946019A00F0C4F98D
:1002B00010EB08006141002487EA115284EAE773D9
:1002C0001A4340D0009A62B3019A012A4FEA0752BA
:1002D00015DC001B61EB02014FF0004202EA0752FD
:1002E000CDE90042001C41F5801132462B4600F05A
:1002F000FBF903B0BDE8F08F40462146F9E7001B4B
:1003000061EB0201001C41F5801300185B412018CD
:10031000A2F5001747EB030140EAD570B6196D410D
:1003200011E06D084FEA360645EAC0754FEA0752FC
:10033000001B61EB0201001C41F5801149084FEAE6
:1003400030000019514132462B4603B0BDE8F04F52
:1003500000F0BBB90098012240000023D0EB02025C
:1003600063EBE073009821464FEAE074B8EB0000BD
:1003700061EB0401E9E783F000435BE781F00041B2
:1003800058E72DE9FE4F81EA030404F0004421F010
:10039000004100944FF0000B23F0004350EA0104A9
:1003A0005ED052EA03045BD0C3F30A54C1F30A558A
:1003B0002C44A4F2F3340194A0FB0254C1F31301C2
:1003C00041F48011C3F3130343F4801301FB02448F
:1003D00000FB034E840A970A44EA815447EA835794
:1003E000A4FB076802958D0A05FB07854FEA932C4D
:1003F00004FB0C542705029D4FEA065847EA1637BE
:10040000B5EB08056EEB070C870E920E47EA8117D5
:1004100042EA8312A7FB0201B6EB0B0164EB000476
:100420002B0D43EA0C335E1844EB1C50DA46514660
:10043000E7FB0201C5F313044FEA0B3343EA1453FD
:100440004FEA0432019C43EA0603A4F10C0402942F
:10045000009CCDE900B400F047F903B0BDE8F08F8F
:1004600000200146F9E7F0B4CA17CB0F50405140C5
:10047000C61841F100054FEAC372314628004FF01B
:10048000960303D0B623F0BC00F0F1B8304600214B
:10049000F9E70EB5C10F80EAE0700844CA070021F1
:1004A00040F233438DE80E000A460B4600F01CF97B
:1004B00003B000BD3EB5CA17CB0F002450405140D9
:1004C000C0186141DA0740F233430094CDE90123BB
:1004D0002246234600F008F903B030BD10B500F005
:1004E000004420F00040C20DC0F3160040F40000AC
:1004F0007F2A02DA0020014610BD0021962A03DC83
:10050000C2F19602D04002E0963A00F076F8002C54
:10051000F2D00023D0EB030063EB010110BD70B5F6
:10052000C1F30A5201F000450024C1F3130140F267
:10053000FF3341F480119A4202DA0020014670BD77
:1005400040F233439A42A2F2334203DC524200F0BB
:1005500063F801E000F051F82C43F0D00023D0EB19
:10056000030063EB010170BDC1F30A52C1F3130133
:1005700040F2FF3341F480119A4202DA0020014632
:10058000704740F233439A42A2F2334202DC5242B5
:1005900000F042B800F031B82DE9F05F05460020C8
:1005A00092469B4688460646814640241BE02846E4
:1005B00041464746224600F02FF853465A46C01A95
:1005C000914110D311461846224600F016F82D1A14
:1005D00067EB01084F4622460120002100F00DF88C
:1005E00017EB00094E41201EA4F10104DFDC484650
:1005F00031462A464346BDE8F09F202A04DB203AD4
:1006000000FA02F1002070479140C2F1200320FA65
:1006100003F3194390407047202A04DB203A21FA63
:1006200002F00021704721FA02F3D040C2F120020B
:100630009140084319467047202A06DBCB17203A21
:1006400041FA02F043EAE07306E041FA02F3D040D7
:10065000C2F1200291400843194670470029A8BF03
:100660007047401C490008BF20F00100704710B4DB
:10067000B0FA80FC00FA0CF050EA010404BF10BC90
:10068000704749B1CCF1200421FA04F411FA0CF1BD
:1006900018BF012121430843A3EB0C01CB1D4FEAF6
:1006A00000614FEA102042BF002010BC704700EBF1
:1006B000C35010440029A4BF10BC7047401C49001F
:1006C00008BF20F0010010BC704710B5141E73F174
:1006D000000408DA401C41F1000192185B411A4302
:1006E00001D120F0010010BD2DE9F04D92469B464E
:1006F00011B1B1FA81F202E0B0FA80F220329046F4
:10070000FFF77BFF04460F4640EA0A0041EA0B016F
:1007100053465A46084313D0114653EA010019D0F4
:10072000C8F140025046FFF777FF05460E46504697
:1007300059464246FFF761FF084305D0012004E017
:1007400020463946BDE8F08D0020054346EAE076B4
:100750002C4337430A986305E40AA0EB0800002203
:10076000FD0A44EA47540A3002D500200146E9E771
:10077000010510196941DDE9084500196941BDE825
:10078000F04DA2E72DE9F04D81EA030404F0004B9F
:1007900021F0004514464FF0000A23F0004150EAD2
:1007A000050220D054EA01021DD0C5F30A570246C3
:1007B000C5F31303C1F31300C1F30A5640F48015C7
:1007C00043F48013A7EB0608101BD64608F2FD3849
:1007D00073EB050002D308F1010801E092185B41B8
:1007E000B8F1000F03DA00200146BDE8F08D0020CB
:1007F0004FF48011064684460EE0171B73EB050785
:1008000005D3121B63EB050306434CEA010C4908B0
:100810004FEA300092185B4150EA0107EDD152EAED
:10082000030012D082EA040083EA0501084305D0E0
:10083000101BAB4106D20122002306E000224FF03C
:10084000004302E06FF0010253101AEB06004CEB7C
:10085000085110EB0A0041EB0B01BDE8F04DFFF72A
:1008600034BF70B521F0004303430CD0C1F30A55E7
:100870000024D5EB040564EB0403D617AD1AB3418D
:1008800002DB0020014670BD201841EB025170BD13
:1008900030B5041E71F1000404DB4FF00044404207
:1008A00064EB0101141E73F1000405DB1C464FF0DC
:1008B0000043524263EB0403994208BF904230BDAB
:1008C000064C074D06E0E06840F0010394E807009D
:1008D00098471034AC42F6D3FFF75AFC50A50608EF
:1008E00070A506082DE9F04D00231A461B1A8A410F
:1008F00003DB00200146BDE8F08DC1F30A52C1F3CD
:10090000130141F480154FF0000BD10702D10018FC
:100910006D41521E0027044640F2FF11384601EB9C
:10092000620A3E468046024600204FF48011FFF7DF
:1009300073FEC2197141BB1846EB0100B4EB030C06
:1009400075EB000C04D3E41A65EB000517460E4660
:10095000241908F101006D4180463428E3DDF919BE
:1009600046EB0600091BA84103D24FF0FF321346A5
:1009700001E0002213461BEB070046EB0A51BDE8DD
:10098000F04DFFF7A2BE00002DE9F80FC04B4FF06D
:10099000010C4FF00508C3F808C0D3F808C0D3F81D
:1009A00000C0CDF800C01CF1010C0AD04368D2F899
:1009B00004C0006883EA0C07136880EA030C6346EE
:1009C0000FE0DDF800C0C3F800C01B68009353B10E
:1009D0004368D2F804C0006883EA0C0713684340F8
:1009E0009C4664460FE00368D2F800C0946883EA2E
:1009F0000C074368D2F804C083EA0C0C8368C06813
:100A00006340D4684440A3483D0E04F0FF0950F809
:100A10002560CCF3074550F8299050F8255007F091
:100A2000FF0A86EA3525C3F3072650F82AA050F8B6
:100A300026600CF0FF0B4FEA364686EA39667540B1
:100A40001669C3F307496E404FEA1C6550F82990B8
:100A500050F82550CCF3072C85EA3925C4F3072933
:100A600050F82CC050F8299050F82BB04FEA394973
:100A700089EA3A6985EA0905D2F81490C4F3074A6D
:100A800085EA09054FEA136950F82AA050F8299021
:100A9000240E89EA3A29C7F3072AC7F30747DBB2CE
:100AA00050F82AA050F8244050F8277050F823300E
:100AB0004FEA3A4A4FEA3C4C8AEA3B6A84EA3724D6
:100AC0008CEA336389EA0A0984EA030CD2F818A095
:100AD000D3692032A8F1010889EA0A098CEA0304E3
:100AE000B8F1000F69DD330EC5F3074C50F8233021
:100AF00050F82CC0E7B283EA3C23C9F3072C50F826
:100B0000277050F82CC006F0FF0A4FEA3C4C8CEAE4
:100B1000376C83EA0C03D2F800C050F82AA083EAAD
:100B20000C072B0EC9F3074C50F8233050F82CC09B
:100B300005F0FF0B83EA3C23C4F3072CC5F307251C
:100B400050F82CC050F825504FEA3C4C8CEA3A6CD7
:100B500083EA0C03D2F804C0C4F3074A83EA0C0CFE
:100B60004FEA196350F82AA050F82330240E83EA84
:100B70003A23C6F3072AC6F3074650F8244050F834
:100B8000266050F82AA084EA362409F0FF0650F8BF
:100B90002BB050F826604FEA3A4A4FEA35458AEAC8
:100BA0003B6A85EA366583EA0A036C40D2F808A0FE
:100BB000D56883EA0A036C4026E7374850FA84F385
:100BC00000EB166C1B789CF800C0C9F3072743EABA
:100BD0000C63C5F3074CC75D10F80CC04FEA0C4C12
:100BE0004CEA072C43EA0C03D2F800C083EA0C035A
:100BF0000B6050FA86F300EB156C1B789CF800C074
:100C0000C4F3072743EA0C63C9F3074CC75D10F828
:100C10000CC04FEA0C4C4CEA072C43EA0C03D2F808
:100C200004C083EA0C034B6050FA85F300EB196CA7
:100C30001B789CF800C0C6F3072743EA0C6CC4F38A
:100C40000743C75DC35C1B0443EA07234CEA030365
:100C5000D2F808C083EA0C038B6050FA89F300EBEA
:100C6000146C1B789CF800C0C5F3072443EA0C639E
:100C7000C6F3074CD26810F80CC0005D4FEA0C4C6C
:100C80004CEA002018435040C860BDE8F80F704798
:100C9000003002404C8F0608248D06082DE9F00331
:100CA000D0E900C38268C068184CC1E90220E1E8BD
:100CB00004C30A26A4F5007505EB1067C0F30748C6
:100CC0003F7815F8088047EA0867C0F3072815F849
:100CD00008804FEA084855FA80F999F8009048EAE8
:100CE000092847EA080787EA0C0C54F8047B8CEAC9
:100CF000070C83EA0C035A405040C1E90220E1E8A6
:100D000004C3761ED8D1BDE8F0037047248F0608CF
:100D10002DE9F8430024884600940646817998F826
:100D2000060091461D46814288BF0846411C1A466E
:100D3000684606F018F900281CBF40F2ED30BDE807
:100D4000F8834146304601F0B3FDC01C0127072857
:100D500062D2DFE800F03E2D25352D250400404607
:100D6000009901F0F9FD00993046CC7101F0A0FD29
:100D7000B0F1FF3F04D000284BD002284CD107E04F
:100D800031464046009A06F096F90098C77143E054
:100D900041463046009A06F08EF90098C4713BE057
:100DA00041463046009A00F053F80098C47133E091
:100DB00041463046009A00F04BF80098C7712BE08E
:100DC00041463046009A00F043F80099F079C87126
:100DD00022E03046009901F0BFFD00984146C47101
:100DE00001F066FDB0F1FF3F03D090B1022813D1AE
:100DF00007E031464046009A06F05DF90098C4715C
:100E00000AE041463046009A06F055F90098C7714D
:100E100002E0009806F084F80021484603F094FAB6
:100E20004946009801F098FD0099002914BF002D53
:100E3000BDE8F883EA8889796FF00303494203EB40
:100E4000810111440839E9800094BDE8F88300006D
:100E50002DE9F84F0B46D0F800B009680091002545
:100E6000B0F804C09E88176891462C46B44598BFD8
:100E7000664681794FF0010E4FF000088C4532D85C
:100E8000A1EB0C01002201F1010ABAF1000F2ADDE9
:100E90003EEA01011CBF4BF82C80012290F806C0ED
:100EA000B0F804A0ACEB0A0C0CF1010C8C451AD97B
:100EB0001FFA8AFAD0F800C09244521C4CF82A80DB
:100EC000B0F804A0D0F800C09244521C4CF82A801C
:100ED00090F806C0B0F804A0891CACEB0A0C0CF129
:100EE000010C8C45E4D8B3F804C099798C4534D80A
:100EF000A1EB0C01002201F1010ABAF1000F2CDD77
:100F00003EEA010103D01A6842F82C80012293F8CE
:100F100006C0B3F804A0ACEB0A0C0CF1010C8C4534
:100F20001BD900BF1FFA8AFAD3F800C09244521CA2
:100F30004CF82A80B3F804A0D3F800C09244521CA5
:100F40004CF82A8093F806C0B3F804A0891CACEBD7
:100F50000A0C0CF1010C8C45E4D881889A889142E6
:100F6000494638BF184601F0F7FC002E48D00098DB
:100F7000ABF10403021F391F16F0010F0DD053F817
:100F800004CF52F8040F1CEB000048EB080C40198A
:100F90004CEB040541F8040F44465FEA560C1BD0A5
:100FA000D3F804A050681AEB000048EB080A451972
:100FB0004D604AEB040053F808AF52F8085F1AEB93
:100FC000050548EB0804281844EB080541F8080F0C
:100FD0004446BCF1010CE3D195B157F82600401C02
:100FE00047F8260007E0761C07EB86000168491CDD
:100FF000016057F8260018B9B9F80400B042F2D2DF
:10100000B9F8040057F8201000291CBF401CA9F8AB
:101010000400BDE8F88F00002DE9F047A0B00746B6
:10102000884615461E46DDF8A0904FF0000A01F0F4
:1010300059FD0AA808AB0CAA10A9009014A802F048
:10104000DFFF0897CDF824801448069014480490D8
:101050000CA804A910AB06AACDE90109009108A9C2
:1010600014A801F009FF8246DDE90E010844306052
:10107000002408E00C98005D28550D98005D0E993D
:1010800021446854641C306800EBD071B4EB610FEC
:10109000F0DB504620B0BDE8F08700004804002097
:1010A000000300202DE9F04106460C461546611C60
:1010B000304601F01FFE07466DB194F8400000EB8A
:1010C000D0714910A0EB410111B10320207004E060
:1010D0000220207001E0042020703846BDE8F08135
:1010E0002DE9F04104460D4616461F4601F0FAFC74
:1010F0003B4632462946204603F0C6F88046404625
:10110000BDE8F08107B5ADF53C7D0020B990B89001
:10111000B790B6901121A2A8FFF781F8F8480168AE
:10112000A1914FF48C7154A8FFF779F8BC9800781E
:10113000B590BE99B5980860BC984078B490BE99B7
:10114000B4984860B59840287ED008DC70B101287A
:101150007BD002287AD0202841F08C819CE1802825
:1011600075D0D02874D0D128F6D1FDE3B4980028EA
:101170006FD19FEDE41B9FEDE50B06F001FA8DEDBD
:10118000440BBC984079C117539000EB11700111CA
:101190005398A0EB01104190FFF77BF943914290E7
:1011A0009DED440B53EC102B9DED420B51EC100BBD
:1011B000FFF7E7F89FEDD71B9FEDD40B49914890BF
:1011C00006F0DEF98DED400BBC984079C1175290C6
:1011D00000EB117000113D90FFF75BF9CDE93E0186
:1011E0009DED400B53EC102B9DED3E0B51EC100B85
:1011F000FFF7C7F89FEDC91B9FEDC40B45914490C5
:1012000006F0BEF98DED3C0BBC980079C1175190EA
:1012100000EB117001115198A0EB01103990FFF70C
:1012200038F9CDE93A019DED3C0B53EC102B9DEDC7
:101230003A0B51EC100BFFF7A4F89FEDBA1B9FED92
:10124000B30B4191409005E03DE108E10DE1FCE385
:10125000FCE300E106F094F98DED380BBC980079C1
:10126000C117509000EB117000113590FFF711F984
:10127000CDE936019DED380B53EC102B9DED360B6F
:1012800051EC100BFFF77DF89FEDA81B9FED9F0B16
:10129000CDE93C0106F074F98DED340BBC98C078B3
:1012A000C1174F9000EB117001114F98A0EB011086
:1012B0003190FFF7EEF8CDE932019DED340B53ECA0
:1012C000102B9DED320B51EC100BFFF75AF89FEDF0
:1012D000991B9FED8E0BCDE9380106F051F98DED8C
:1012E000300BBC98C078C1174E9000EB1170001104
:1012F0002D90FFF7CEF8CDE92E019DED300B53EC8C
:10130000102B9DED2E0B51EC100BFFF73AF89FEDD3
:101310008B1B9FED7E0BCDE9340106F031F98DED8D
:101320002C0BBC988078C1174D9000EB1170011107
:101330004D98A0EB01102990FFF7ABF8CDE92A01F9
:101340009DED2C0B53EC102B9DED2A0B51EC100B4B
:10135000FFF717F89FED7B1B9FED6C0BCDE930017C
:1013600006F00EF98DED2C0BBC988078C1174C90CF
:1013700000EB117000112990FFF78BF8CDE92A01DD
:101380009DED2C0B53EC102B9DED2A0B51EC100B0B
:10139000FEF7F7FFCDE92E019DED300B53EC102B3E
:1013A0009DED2E0B51EC100BFEF744FFCDE9320101
:1013B0009DED340B53EC102B9DED320B51EC100BCB
:1013C000FEF738FFCDE936019DED380B53EC102BBD
:1013D0009DED360B51EC100BFEF72CFFCDE93A01D9
:1013E0009DED3C0B53EC102B9DED3A0B51EC100B8B
:1013F000FEF720FFCDE93E019DED400B53EC102B95
:101400009DED3E0B51EC100BFEF714FF4391429003
:101410009DED440B53EC102B9DED420B51EC100B4A
:10142000FEF708FF479146909DED480B53EC102BBB
:101430009DED460B51EC100BFEF7FCFE4B914A90D4
:101440009DED4A0B51EC100BFFF78EF8559154901F
:101450000420B890DCE301200DF53F7D00BDB49879
:10146000012801DD0120F7E7F4E7B49890B90020E6
:10147000BB9009E0BB98811CBC98425C56A8BB9904
:101480004254BB98401CBB90BB982228F2DB222020
:10149000B890DFE70120DFE7B49890B90020BB9057
:1014A00009E0BB98801CBC990A5C67A8BB994254B0
:1014B000BB98401CBB90BB984028F2DB4020B89002
:1014C000C8E70120C8E7B49800287DD1BC9880788F
:1014D0007790B898401CB890B898801CBC99085C6C
:1014E000B690B898C01C53904FF480620146B69BEA
:1014F000BC9804F0DDFBB790B79838BB0120ABE790
:10150000208D060800000000000000000000000020
:1015100000003040000000000000F03F000000002C
:101520000000004000000000000008400000000033
:101530000000104000000000000014400000000007
:10154000000018400000000000001C40FFE7B698B3
:1015500005F04AF9401CB8990844B890B799B89872
:101560000844B8901FED191B1FED180B06F008F882
:101570008DED3C0BB8980930BC99085CC1175390AD
:1015800000EB117001115398A0EB01103990FEF798
:1015900080FFCDE93A019DED3C0B53EC102B9DED06
:1015A0003A0B51EC100BFEF7ECFE1FED261B1FED66
:1015B000290B4191409005F0E3FF8DED380BB89871
:1015C0000930BC99085C00E023E3C117529000EB9E
:1015D000117000113590FEF75CFFCDE936019DEDED
:1015E000380B53EC102B9DED360B51EC100BFEF726
:1015F000C8FE1FED361B1FED3B0BCDE93C0105F08E
:10160000BFFF8DED340BB8980830BC99085CC1174A
:10161000519000EB117001115198A0EB0110319025
:10162000FEF737FFCDE932019DED340B53EC102B63
:101630009DED320B51EC100BFEF7A3FE1FED471B87
:101640001FED4E0BCDE9380105F09AFF8DED300B03
:10165000B8980830BC99085CC117509000EB117025
:1016600000112D90FEF715FFCDE92E019DED300BF9
:1016700053EC102B9DED2E0B51EC100BFEF781FE61
:101680001FED561B1FED5F0BCDE9340105F078FF10
:101690008DED2C0BB898C01DBC99085CC1174F90FC
:1016A00000EB117001114F98A0EB01102990FEF78B
:1016B000F0FECDE92A019DED2C0B53EC102B9DED96
:1016C0002A0B51EC100BFEF75CFE1FED661B1FEDA5
:1016D000710BCDE9300105F053FF8DED280BB89863
:1016E000C01DBC99085CC1174E9000EB1170001131
:1016F0002590FEF7CEFECDE926019DED280B53EC9B
:10170000102B9DED260B51EC100BFEF73AFE1FED52
:10171000751B1FED820BCDE92C0105F031FF8DED1E
:10172000240BB898801DBC99085CC1174D9000EB44
:10173000117001114D98A0EB01102190FEF7A9FE48
:10174000CDE922019DED240B53EC102B9DED220BD6
:1017500051EC100BFEF715FE1FED861B1FED950BD0
:10176000CDE9280105F00CFF8DED200BB898801D08
:10177000BC99085CC1174C9000EB117000111D90D2
:10178000FEF787FECDE91E019DED200B53EC102BDB
:101790009DED1E0B51EC100BFEF7F3FD9FEDFE1BB4
:1017A0001FEDA60BCDE9240105F0EAFE8DED1C0B23
:1017B000B898401DBC99085CC1174B9000EB1170A4
:1017C00001114B98A0EB01101990FEF762FECDE9D4
:1017D0001A019DED1C0B53EC102B9DED1A0B51ECD7
:1017E000100BFEF7CEFD9FEDEE1B1FEDB80BCDE904
:1017F000200105F0C5FE8DED180BB898401DBC9971
:10180000085CC1174A9000EB117000111590FEF7AB
:1018100040FECDE916019DED180B53EC102B9DED0C
:10182000160B51EC100BFEF7ACFD9FEDDF1B1FED0F
:10183000C90BCDE91C0105F0A3FE8DED140BB89882
:10184000001DBC99085CC117499000EB1170011193
:101850004998A0EB01101190FEF71BFECDE9120193
:101860009DED140B53EC102B9DED120B51EC100B56
:10187000FEF787FD9FEDCE1B1FEDDC0BCDE91801B8
:1018800005F07EFE8DED100BB898001DBC99085C2C
:10189000C117489000EB117000110D90FEF7F9FD93
:1018A000CDE90E019DED100B53EC102B9DED0E0BB1
:1018B00051EC100BFEF765FD9FEDBF1B1FEDED0B0F
:1018C000CDE9140105F05CFE8DED0C0BB898C01C41
:1018D000BC99085CC117479000EB11700111479843
:1018E000A0EB01100990FEF7D4FDCDE90A019DEDB2
:1018F0000C0B53EC102B9DED0A0B51EC100BFEF76B
:1019000040FD9FEDAF1B9FEDB00BCDE9100105F041
:1019100037FE8DED080BB898C01CBC99085CC11748
:10192000469000EB117000110590FEF7B2FDCDE975
:1019300006019DED080B53EC102B9DED060B51ECB1
:10194000100BFEF71EFD9FEDA21B9FED9F0BCDE937
:101950000C0105F015FE8DED040BB898801CBC99A8
:10196000085CC117459000E014E200EB1170011112
:101970004598A0EB01100190FEF78BFDCDE9020127
:101980009DED040B53EC102B9DED020B51EC100B55
:10199000FEF7F7FC9FED901B9FED8B0BCDE9080147
:1019A00005F0EEFD8DED040BB898801CBC99085C29
:1019B000C117449000EB117000110190FEF769FD12
:1019C000CDE902019DED040B53EC102B9DED020BB4
:1019D00051EC100BFEF7D5FCCDE906019DED080B8F
:1019E00053EC102B9DED060B51EC100BFEF722FC77
:1019F000CDE90A019DED0C0B53EC102B9DED0A0B6C
:101A000051EC100BFEF716FCCDE90E019DED100B0D
:101A100053EC102B9DED0E0B51EC100BFEF70AFC56
:101A2000CDE912019DED140B53EC102B9DED120B23
:101A300051EC100BFEF7FEFBCDE916019DED180BE6
:101A400053EC102B9DED160B01E0E4E0E8E051ECC7
:101A5000100BFEF7EFFBCDE91A019DED1C0B53ECCB
:101A6000102B9DED1A0B51EC100BFEF7E3FBCDE9AB
:101A70001E019DED200B53EC102B9DED1E0B51EC28
:101A8000100BFEF7D7FBCDE922019DED240B53ECA3
:101A9000102B9DED220B51EC100BFEF7CBFBCDE98B
:101AA00026019DED280B53EC102B9DED260B51ECE0
:101AB000100BFEF7BFFBCDE92A019DED2C0B53EC7B
:101AC000102B9DED2A0B51EC100BFEF7B3FBCDE96B
:101AD0002E019DED300B53EC102B9DED2E0B51EC98
:101AE000100BFEF7A7FBCDE932019DED340B53EC53
:101AF000102B9DED320B51EC100BFEF79BFBCDE94B
:101B000036019DED380B53EC102B9DED360B51EC4F
:101B1000100BFEF78FFBCDE93A019DED3C0B53EC2A
:101B2000102B9DED3A0B51EC100BFEF783FBCDE92A
:101B30003E019DED400B53EC102B9DED3E0B51EC07
:101B4000100BFEF777FB439142909DED420B51EC59
:101B5000100BFEF709FD79917890B8980830B8908D
:101B6000B898801CBC99085C7A90B898401CB890D2
:101B70000020BB900BE0B899BB980844801CBC992E
:101B80000A5C7BA8BB994254BB98401CBB90BB9895
:101B90002128F0DBB89823E000000000000020407E
:101BA000000000000000224000000000000024406F
:101BB0000000000000002640000000000000284057
:101BC0000000000000002A4000000000000030403B
:101BD0000000000000002C400000000000002E402B
:101BE0002130B8900020BB900CE0B899BB98084415
:101BF000801CBC990A5C0DF22E20BB994254BB9804
:101C0000401CBB90BB981428EFDBB8981430B890F8
:101C1000FDE3012020E4B49808B101201CE4F6E3C0
:101C2000B498012801DD012016E40020BB900AE0F1
:101C3000BB98801CBC990A5C0DF25620BB9942549B
:101C4000BB98401CBB90BB980328F1DBB4980128DB
:101C500003D1BC984079979001E000209790B89804
:101C6000001DB890B898801CBC99085CB690B898D4
:101C7000C01C5390FC220146B69BBC9804F018F897
:101C8000B790B79808B9012005E4B69804F0ACFD08
:101C9000401CB8990844B890B799B8980844B890CF
:101CA000B898801CBC99085CB690B898C01C53903A
:101CB000FC220146B69BBC9803F0FAFFB790B79898
:101CC00008B901201BE4B69804F08EFD401CB899B9
:101CD0000844B890B799B8980844B890B898801C50
:101CE000BC99085CB690B898C01C5390FC22014681
:101CF000B69BBC9803F0DCFFB790B79808B90120F9
:101D000088E7B69804F070FD401CB8990844B89074
:101D1000B799B8980844B890B898801CBC99085CEA
:101D2000B690B898C01C5390FC220146B69BBC9854
:101D300003F0BEFFB790B79808B901206AE7B698DC
:101D400004F052FD401CB8990844B890B799B8986F
:101D50000844B890B898801CBC99085CB690B898B4
:101D6000C01C53904FF480320146B69BBC9803F0E0
:101D70009FFFB790B79808B901204BE7B69804F0D9
:101D800033FD401CB8990844B890B799B8980844F6
:101D9000B89074E3B498012801DD01203AE7B898BF
:101DA000801CBC99085CB690B898C01C53904FF446
:101DB00080320146B69BBC9803F07AFFB790B79883
:101DC00008B9012026E7B69804F00EFD401CB8992A
:101DD0000844B890B799B8980844B890B4980128C6
:101DE0007ED19FEDFE1B1FED880B05F0C9FB8DED2D
:101DF0003C0BB8980930BC99085CC117539000EBB4
:101E0000117001115398A0EB01103990FEF741FBBE
:101E1000CDE93A019DED3C0B53EC102B9DED3A0BB7
:101E200051EC100BFEF7ADFA9FEDEE1B1FED9A0B78
:101E30004191409005F0A4FB8DED380BB898093026
:101E4000BC99085CC117529000EB117000113590DD
:101E5000FEF71FFBCDE936019DED380B53EC102B3F
:101E60009DED360B51EC100BFEF78BFA9FEDDF1B4F
:101E70001FEDAB0BCDE93C0105F082FB8DED340B82
:101E8000B8980830BC99085CC117519000EB1170EC
:101E900001115198A0EB01103190FEF7FAFACDE94B
:101EA00032019DED340B53EC102B9DED320B51ECB8
:101EB000100BFEF766FA9FEDCF1B1FEDBD0BCDE9B2
:101EC000380105F05DFB8DED300BB8980830BC99FA
:101ED000085CC117509000EB117000112D9000E0CC
:101EE000C4E2FEF7D6FACDE92E019DED300B53EC9E
:101EF000102B9DED2E0B51EC100BFEF742FA9FEDCF
:101F0000BF1B1FEDCF0BCDE9340105F039FB8DED83
:101F10002C0BB898C01DBC99085CC1174F9000EB02
:101F2000117001114F98A0EB01102990FEF7B1FA42
:101F3000CDE92A019DED2C0B53EC102B9DED2A0BC6
:101F400051EC100BFEF71DFA9FEDAE1B1FEDE20BDF
:101F5000CDE9300105F014FB8DED280BB898C01DBC
:101F6000BC99085CC1174E9000EB117000112590D0
:101F7000FEF78FFACDE926019DED280B53EC102BCF
:101F80009DED260B51EC100BFEF7FBF99FED9F1B0F
:101F90001FEDF30BCDE92C0105F0F2FA8DED240BCA
:101FA000B898801DBC99085CC1174D9000EB11706A
:101FB00001114D98A0EB01102190FEF76AFACDE9CE
:101FC00022019DED240B53EC102B9DED220B51ECC7
:101FD000100BFEF7D6F99FED8F1B9FED900BCDE90F
:101FE000280105F0CDFA8DED200BB898801DBC9925
:101FF000085CC1174C9000EB117000111D90FEF7AA
:1020000048FACDE91E019DED200B53EC102B9DED00
:102010001E0B51EC100BFEF7B4F99FED821B9FEDE8
:102020007F0BCDE9240105F0ABFA8DED1C0BB898C0
:10203000401DBC99085CC1174B9000EB1170011159
:102040004B98A0EB01101990FEF723FACDE91A0185
:102050009DED1C0B53EC102B9DED1A0B51EC100B4E
:10206000FEF78FF99FED711B9FED6C0BCDE9200101
:1020700005F086FA8DED180BB898401DBC99085CE8
:10208000C1174A9000EB117000111590FEF701FA8C
:10209000CDE916019DED180B53EC102B9DED160BA1
:1020A00051EC100BFEF76DF99FED621B9FED5B0B82
:1020B000CDE91C0105F064FA8DED140BB898001DF4
:1020C000BC99085CC117499000EB11700111499847
:1020D000A0EB01101190FEF7DCF9CDE912019DEDA6
:1020E000140B53EC102B9DED120B51EC100BFEF763
:1020F00048F99FED521B9FED490BCDE9180105F002
:102100003FFA8DED100BB898001DBC99085CC11703
:10211000489000EB117000110D90FEF7BAF9CDE96F
:102120000E019DED100B53EC102B9DED0E0B51ECA1
:10213000100BFEF726F99FED431B9FED380BCDE901
:10214000140105F01DFA8DED0C0BB898C01CBC995C
:10215000085CC117479000EB117001114798A0EB84
:1021600001100990FEF795F9CDE90A019DED0C0BE0
:1021700053EC102B9DED0A0B51EC100BFEF701F9FF
:102180009FED321B9FED250BCDE9100105F0F8F90D
:102190008DED080BB898C01CBC99085CC11746901F
:1021A00000EB117000110590FEF773F9CDE90601FF
:1021B0009DED080B53EC102B9DED060B51EC100B15
:1021C000FEF7DFF89FED231B9FED140BCDE90C010B
:1021D00005F0D6F98DED040BB8983FE00000000043
:1021E00000000000000000000000F03F00000000C0
:1021F0000000004000000000000008400000000057
:10220000000010400000000000001440000000002A
:10221000000018400000000000001C40000000000A
:1022200000003040000000000000204000000000DE
:1022300000002240000000000000244000000000D8
:1022400000002640000000000000284000000000C0
:1022500000002A400000000000002C40801CBC99B7
:10226000085CC117459000EB117001114598A0EB77
:1022700001100190FEF70DF9CDE902019DED040B6F
:1022800053EC102B9DED020B51EC100BFEF779F87F
:102290009FEDE51B1FED1F0BCDE9080105F070F95F
:1022A0008DED040BB898801CBC99085CC117449054
:1022B00000EB117000110190FEF7EBF8CDE902017F
:1022C0009DED040B53EC102B9DED020B51EC100B0C
:1022D000FEF757F8CDE906019DED080B53EC102BE6
:1022E0009DED060B51EC100BFDF7A4FFCDE90A01A3
:1022F0009DED0C0B53EC102B9DED0A0B51EC100BCC
:10230000FDF798FFCDE90E019DED100B53EC102B5E
:102310009DED0E0B51EC100BFDF78CFFCDE912017A
:102320009DED140B53EC102B9DED120B51EC100B8B
:10233000FDF780FFCDE916019DED180B53EC102B36
:102340009DED160B51EC100BFDF774FFCDE91A0152
:102350009DED1C0B53EC102B9DED1A0B51EC100B4B
:10236000FDF768FFCDE91E019DED200B53EC102B0E
:102370009DED1E0B51EC100BFDF75CFFCDE922012A
:102380009DED240B53EC102B9DED220B51EC100B0B
:10239000FDF750FFCDE926019DED280B53EC102BE6
:1023A0009DED260B51EC100BFDF744FFCDE92A0102
:1023B0009DED2C0B53EC102B9DED2A0B51EC100BCB
:1023C000FDF738FFCDE92E019DED300B53EC102BBE
:1023D0009DED2E0B51EC100BFDF72CFFCDE93201DA
:1023E0009DED340B53EC102B9DED320B51EC100B8B
:1023F000FDF720FFCDE936019DED380B53EC102B96
:102400009DED360B51EC100BFDF714FF00E036E0AC
:10241000CDE93A019DED3C0B53EC102B9DED3A0BB1
:1024200051EC100BFDF706FFCDE93E019DED400B91
:1024300053EC102B9DED3E0B51EC100BFDF7FAFE0B
:10244000439142909DED420B51EC100BFEF767F863
:1024500099919890B8980830B89000221146989BAE
:1024600099989A1A884104DA01200DE40020989086
:10247000999004E06EA005F05BF8012004E400BF31
:10248000B898801CBC99085CB390BE99B398C8609A
:10249000B898C01CBC99085CB290BE99B29808610B
:1024A000B898001DB9900020BB901DE00020BA90A4
:1024B00010E0BA99B99801442222BB9802FB00119E
:1024C000BC98415CBA98C0F11F00A9AA1154BA98EF
:1024D000401CBA90BA982028EBDB2021A9A8FDF770
:1024E0009EFEBB98401CBB90B299BB988842DDDB36
:1024F0002222B299B99802FB0100B990B999BC980F
:10250000405CB190BE99B1984861B998401CB990AF
:102510000020BB9076E00020BA9014E0BA99B998F8
:1025200001443C22BB9802FB0011BC98425CBE985F
:102530004A30BB9900EB4111BA98C0F11F000A5410
:10254000BA98401CBA90BA982028E7DBBE984A3067
:10255000BB9900EB4110539001F046FEBE99087202
:102560000020BA9011E0B99820303C22BB9902FBC0
:102570000101BA980144BC98415CBA98C0F10700C7
:10258000A7AA1154BA98401CBA90BA980828EADB56
:10259000A7A800F049FA8DED530A5398FDF79EFF66
:1025A000BE9A9032BB9B02EBC30203C20020BA90DA
:1025B00010E0B99828303C22BB9902FB0101BA987F
:1025C0000144BC98415CBA98401CA1AA1154BA9825
:1025D000401CBA90BA981428EBDB9AAA1521A1A83E
:1025E00000F096F8BB9800EBC00101EB0011BE981B
:1025F0001830084419229AA95390FDF7E9FDBB98B9
:10260000401CBB90B199BB98884284DB3C22B199B5
:10261000B99802FB0100B990BD99B998884201D1DF
:10262000002022E7012020E70000000000002E40EB
:1026300054797065204572726F722121210000006B
:1026400070B5044600252046422C40D00EDCA0F197
:102650003000122849D2DFE800F0222426282A2C54
:102660002E303234484848484848483762282DD0F0
:102670000CDC452834D004DC43282BD0442834D14A
:102680002BE046282FD061282FD11CE0632820D0D2
:10269000642821D0652822D0662826D122E0002592
:1026A00027E0012525E0022523E0032521E004257C
:1026B0001FE005251DE006251BE0072519E008257C
:1026C00017E0092515E000BF0A2512E000BF0B2521
:1026D0000FE000BF0C250CE000BF0D2509E000BF96
:1026E0000E2506E000BF0F2503E003A004F020FF45
:1026F00000BF00BF284670BD4E6F7420612061731B
:1027000063696920636861722121210D0A0000005C
:10271000F0B591B006460F461546202000906B4656
:1027200009AA39463046FEF7DBFC6B4601AA202198
:1027300009A8FEF7D5FC002403E0305D2855601C95
:10274000C4B2152CF9DB002406E001A8015D04F1F8
:1027500015002954601CC4B2042CF6DB11B0F0BD86
:1027600070B485880468012D02BF2368002B012303
:1027700012D0AB006FF0030606EB85054FF07F4CDF
:1027800054F8054014EA0C0F06D1BCF1000F1CBF31
:102790004FEA1C2C5B1EF5D1DC174FF0000C03EB4D
:1027A00094740CE00568CCF1000603EB860655F83E
:1027B0002C500E442DBA46F8045C0CF1010CBCEB15
:1027C000A40FEFDB13F0030F1FD0006803F0030525
:1027D00003F0030450F82C0013F0010C03D00D4457
:1027E00005F8010C000AA4EB0C0CBCF1000F0CDD89
:1027F00001EB0C04ACF1020C04F8010C000A04F823
:10280000020C000ABCF1000FF2DC002A18BF1360B2
:1028100070BC7047002812BF002941F2B8407047D1
:10282000F8B50F46818800241646012905D10268B3
:102830001268002A08BF012312D08B006FF0030535
:10284000026805EB81014FF07F4C555815EA0C0FDB
:1028500006D1BCF1000F1CBF4FEA1C2C5B1EF5D14A
:102860000093B342C4BF41F2B540F8BDB919C91ACB
:102870006A46FFF775FF0098311A00290EDD781EB1
:1028800011F0010F18BF00F8014F0099711A49109B
:1028900004D0447000F8024F491EFAD10020F8BD60
:1028A00000BFFEE701200149886070470030024008
:1028B00070B490F907C091F9072094453FD18388FF
:1028C0008C880122A34204BF0068096803D9BCF1C7
:1028D000000F27D022E003D2BCF1000F2BD027E05D
:1028E0009D1AA61A50F8255051F82660B54204D119
:1028F000934224BF521C9342F2D2551EAB4202BFF8
:10290000002070BC70479B1AA21A50F8230051F89F
:102910002210884209D9BCF1000F03D070BC6FF0BF
:102920000100704770BC02207047BCF1000F02D05C
:1029300070BC0120704770BC4FF0FF307047BCF195
:10294000010F05D1002A02BF6FF0020070BC704772
:10295000032070BC7047000070B483888A7900241B
:102960009A4209D202F1010C9C4537BF41F2B540B1
:1029700041F2B54470BC7047C279CA7100228B80A5
:10298000002B09DDD0F800C00D685CF822C045F8C6
:1029900022C0521C9342F5DC8879801A431C002B1C
:1029A00026DD01234FF0000C33EA0000634605D01A
:1029B000D1F800C04CF822304FF0010C8D79AD1ADF
:1029C0006D1C854214DD00BF0D6802EB0C060CF196
:1029D000010C45F826300D6802EB0C06801C45F80A
:1029E00026308D790CF1010CAD1A6D1C8542EBDCA3
:1029F000204670BC704782880368012A01BF1868AE
:102A000000280120704750016FF0030C0CEB82028C
:102A10004FF000419A5831EA02031EBF00294908CD
:102A2000401EF8D1704700002DE9F0412DED0E8BCE
:102A300084B0074600210D460E469FED270AF0EEB2
:102A4000408A002000900190029003906A4608217D
:102A5000384601F045FC00242CE02046FDF719FD26
:102A600041EC1E0BB0EE4E1AF0EE6E1A9FED1B0BF2
:102A700004F086FDB0EE40CAF0EE60CAC4F10F016A
:102A80001DF80100FFF7DCFD8046FDF702FD53EC69
:102A90001C2BFDF776FC41EC1A0B28463146FDF75E
:102AA00009FD53EC1A2BFDF7C5FBFDF738FD054674
:102AB0000E46641C102CD0DB28463146FDF7D3FCB3
:102AC00000EE100A80EE288AB0EE480A04B0BDEC91
:102AD0000E8BBDE8F081000020BCBE4C0000000061
:102AE000000030400121080302F0CEBE2DE9F04F76
:102AF000ADF5017D91460D4680461E46B0225A49ED
:102B000050A8FDF765FB0024202E1EBF6FF00300C8
:102B10000DF5017DBDE8F08F05F1190717F00F0FD6
:102B200004D007F00F00C0F11004274428BA049025
:102B300030BA05902A4641466E4606A8FDF748FB86
:102B4000802170194FF0000801766CB1183014F034
:102B5000010F18BF00F8018F610805D080F80180CF
:102B600000F8028F491EF9D1CDF80080CDF804801D
:102B7000CDF80C800024CDF808800DF5A07B6E46C2
:102B80001CADCDF87080CDF87480CDF87880CDF88C
:102B90007C80B8EB171F38BF0DF5F87A17D20020EC
:102BA0005FEA041101EB800255F82030B25812BAE6
:102BB0005A404AF82020401C0428F3D35A4629469C
:102BC0007CA8FDF7E1FE641CB4EB171FE7D39DF86A
:102BD00003000024401C8DF803000DF5A07B6E4619
:102BE0000DF1700A20ADCDF88080CDF88480CDF84D
:102BF0008880CDF88C80B8EB171F38BF0DF5F878BA
:102C000017D200205FEA041101EB800255F8203052
:102C1000B25812BA5A4048F82020401C0428F3D376
:102C20005A4629467CA8FDF7AFFE641CB4EB171F7B
:102C3000E7D324A91CA8FEF731F824AA49460AF1D3
:102C40001000FDF7A1FE99E80F0020AC0FC424AAE4
:102C500009F110010AF11000FDF796FE0DF5017D56
:102C60000020BDE8F08F0000CCA306082DE9F0415C
:102C700088B016468846044600256F46E068401C2A
:102C8000E0600AD1A068401CA06006D16068401CCA
:102C9000606002D12068401C206007EB05114246AD
:102CA0002046FDF771FE6D1C022DE7DB00983168B0
:102CB0004840206101987168484060610298B1689D
:102CC0004840A0610398F1684840E0610498316988
:102CD0004840206005987169484060600698B16975
:102CE0004840A0600798F1694840E06008B0BDE83E
:102CF000F0817047F0B5A3B007460E4600240020CF
:102D000004900390029032215248FDF788FA322154
:102D10005148FDF784FAFFF7E5FE4E4814904E48FF
:102D2000159018A802F0FCFD044614B1002023B051
:102D3000F0BD4A4805900020ADF81A004FF46060DD
:102D4000ADF81800464807904648099046480B9051
:102D500046480D9046480F90464811902020089014
:102D60000A900E900C901090129005A907A800F000
:102D700029FA044604B167E005AA07A902A800F0F1
:102D8000FDFA044604B15AE007A9029800F00CFCD1
:102D9000044604B153E005AA07A904A800F0EEFA1E
:102DA000044604B14BE005AA07A903A800F04EFBB6
:102DB000044604B13EE020223946039800F034FC7A
:102DC000044604B131E005A807AB009002A807C88B
:102DD00000F074FB044604B127E005AA07A9049893
:102DE00000F034FC044616AB0021149A049800F05D
:102DF0008BF9044617AB0121159A049800F084F969
:102E000004438CB9002503E01498405D70556D1C97
:102E1000202DF9DB002505E01598415D05F1200026
:102E200031546D1C202DF7DB00BF05A903A800F06D
:102E300053F900BF05A904A800F02DF900BF05A9AA
:102E400007A800F0EAF800BF18A802F09FFD20468E
:102E50006DE70000E81200201A130020C8040020CB
:102E60003E8A06085E8A06087E8A06089E8A06084A
:102E7000BE8A0608DE8A06082DE9F04FA1B0044696
:102E800088461646DDE92B790025AB4600200690E2
:102E900005900490D8F800A0D8F804B0331D594626
:102EA0005046326801F0F0F905461DB1284621B0C0
:102EB000BDE8F08F16A802F033FD05460DB10020E5
:102EC000F5E73B4807900020ADF822004FF4606022
:102ED000ADF8200020680990A0680B9060680D9004
:102EE000E0680F902069119060691390A0690A90C2
:102EF000E0690C90606A1090206A0E90A06A1290AF
:102F0000E06A149007A909A800F05CF9054605B12C
:102F100048E007AA09A905A800F098FA054605B1F6
:102F20003BE020224946059800F07EFB054605B1AE
:102F30002EE007AA09A904A800F026FD054605B160
:102F400026E009A802900598019016A8039007A80A
:102F5000009001ABD6E90001049A00F053FD05464C
:102F600005B110E007F1080300213A68049800F069
:102F7000B9FC054607F10C0301217A68049800F0BA
:102F8000B1FC054300BF07A904A800F08FFC00BFF7
:102F900007A905A800F0A0F800BF07A906A800F03F
:102FA0007AF800BF16A802F0F1FC28467FE700007F
:102FB000C804002030B504000D464FF0000018BFD3
:102FC000002D27D0216800291CBFA168002921D02D
:102FD000296800291FBF6A68002AAA68002A19D038
:102FE000227B2A73227B12F0020F18BF30BD2068AB
:102FF000FFF7B2FC002818BF30BD69686068FFF7B2
:10300000ABFC002818BF30BDA968A068BDE83040FF
:10301000FFF7A2BC41F2544030BD002812BF002986
:1030200041F25440704730B50446006B0D4600280D
:103030001FBF016800298168002904BF41F2534085
:1030400030BD294603F0B0FF206B2946083003F05D
:10305000ABFF206BC16819B10C30294603F0A4FF07
:10306000206B416819B1001D294603F09DFF206BBC
:10307000016919B11030294603F096FF206B4169B0
:1030800019B11430294603F08FFFE8881838E8801A
:103090000020206330BD002812BF002941F25440B7
:1030A000704730B5044600680D46002804BF41F261
:1030B000534030BD083003F077FF20682946001DDB
:1030C00003F072FF2946206803F06EFFE88810388D
:1030D000E8800020206030BD002812BF002941F2A6
:1030E0005440704730B5054600680C46002804BFC0
:1030F00041F2564030BD03F057FFE088001FE080EA
:103100000020286030BD000038B5144600221D465E
:103110000092002818BF002C20D0002D1CBF026890
:10312000002A1BD04368002B1CBF8368002B15D0DE
:10313000927992002A60A1B1012917D0022918BF03
:1031400041F2544017D01E4A0121916091681168E4
:1031500000914B1CA4F1010119D111E041F254403E
:1031600038BD00682146FFF755FBECE74068214673
:10317000FFF750FBE7E780682146FFF74BFBE2E7EC
:10318000009B136012680092002A08BF38BD2278A5
:1031900002F05F0222702B6882F055025B1E04EB86
:1031A00063031A702A6894F800C0535C4CF0AA0CB0
:1031B00083EA0C03535429684910296038BD000084
:1031C00000300240F0B50E46040014BF002E41F25C
:1031D000544500F0CB80206900281CBF606900289E
:1031E00039DD442837DC2168002934D061680029A2
:1031F00031DB44292FDCA16900291CBFE1690029CA
:1032000029DD442927DC316829B3C01C20F00300E4
:10321000B28800EB4000602303EB4000904288BF7F
:1032200040F2ED357ED8F08808442063F0881830ED
:10323000F080206B002804BF40F2ED30F0BD6169E2
:103240000830C91C8908324603F08DFE05004FF096
:10325000000703D086E041F2534587E060693246BB
:10326000C01C8108206B03F07EFE050075D1206B29
:103270000268D4E9000104F0B7F8206B8268D4E951
:10328000040104F0B1F8E0693246C01C8108206BEB
:103290000C3003F068FE05005BD1206BC268D4E9F6
:1032A000060104F0A1F8206B4760206B0761206BDA
:1032B0004761A06898B1E068002810DD44280EDA64
:1032C000C01C8108206B3246001D03F04CFE050037
:1032D0003AD1206B4268D4E9020104F085F8206AF3
:1032E00000281CBF606A002840DD44283EDAA16A3D
:1032F00000291CBFE16A002938DD442936DAC01CE8
:103300008108206B3246103003F02DFE050016D1E7
:10331000206B0269D4E9080104F066F8E06AC01C79
:10332000810800E022E0206B3246143003F01BFEDF
:103330000500206B1CD01030314603F035FE206BA9
:103340003146001D03F030FE206B31460C3003F097
:103350002BFE3146206B03F027FE206B31460830F0
:1033600003F022FEF0881838F08027632846F0BD6D
:103370004269D4E90A0104F037F8F7E7002919BFD8
:10338000002A002841F25440704770B50446086B8B
:1033900015460E4600281FBF2A68002A81680029AA
:1033A00004BF41F2534070BDE8888979342301EBB2
:1033B000410103EB8101AB880144994284BF40F293
:1033C000ED3070BD10442060E8882A461030E88057
:1033D000306B80688179206803F0C5FDD8B9306B07
:1033E0002A46806881792068001D03F0BCFD70B911
:1033F000306B2A46806881792068083003F0B3FD7D
:10340000002820680FD0001D294603F0CDFD294675
:10341000206803F0C9FDE8881038E88000202060AB
:1034200040F2ED3070BD0068002100F08DFF206893
:103430000021406800F088FF20680121806800F0CA
:1034400083FF216801200873002070BD002919BF87
:10345000002A002841F25440704730B50446086BFA
:1034600000281FBF1368002BD0F80CC0BCF1000F60
:1034700004BF41F2534030BDD0889CF806C01025EF
:1034800005EB8C0C95888444AC450CD8181820604A
:1034900009D0D088001DD080086BC0688179206871
:1034A00003F061FD10B140F2ED3030BD2068002125
:1034B000006800F049FF002030BD00002DE9F04118
:1034C00086B014460C9A1F460E465FEA000818BFE5
:1034D000002E29D0002C1CBF002F002A24D0386BCE
:1034E000002802BF41F2534006B0BDE8F081836876
:1034F000002B19BF0068002841F2574006B008BFF2
:10350000BDE8F0813068002819BF0068002841F24A
:10351000564006B008BFBDE8F08102A9184601F088
:1035200033F9050005D011E006B041F25440BDE882
:10353000F08102A800903B4622464146306801F0E7
:103540003BFF050006D002A801F017FE06B0284692
:10355000BDE8F081214602AA084602F0DBF80546E4
:1035600002A801F00AFE002DF0D1207B10F0020F1E
:1035700018BF41F25845E9D10A4801212173816001
:10358000816801684A1C02D10160006828B1D4E951
:1035900000012160A168C4E9011006B00020BDE867
:1035A000F08100000030024078B504004FF00000C8
:1035B0000E46009014BF002E41F254452FD0306BC0
:1035C00000281FBF0269002A4069002808BF41F295
:1035D000534524D010462168FFF7BEF905001ED1DF
:1035E000306B61684069FFF7B7F9050017D1012119
:1035F000A06800F0A9FE0B48012181608268026882
:103600000092521C04D1009A02600068009028B118
:10361000D4E900022260A268C4E90120217328468F
:1036200078BD00000030024094460B46002812BFCF
:10363000002B41F2544070470268002A04BF41F257
:10364000564070476146184603F0CEBE2DE9F04162
:103650008AB04FF00008CDF80C8015460E460700E2
:10366000CDF80480CDF80880CDF820801ABF002E58
:10367000002D41F2544400F01281306B002808BF45
:1036800041F2534400F00B81816800291CBFC268DD
:10369000002A20D04268002A1CBF006800281AD0E7
:1036A000387B022808BF41F2554400F0F8802868B2
:1036B00060B18879EA8800EB400102EB81014C227D
:1036C00002EBC0000844A988884208D90AB040F239
:1036D000ED30BDE8F08141F2574400F0E0B82A46F1
:1036E000314603A8FFF74AFE040040F0D880306B53
:1036F00081683868FFF7DCF8002806DA306B8168EB
:103700007868FFF7D5F8002803DB41F2554400F054
:10371000C2B838460399FFF74DFC306B2A4604A91E
:10372000806801F031F8040040F0B580306B2A4623
:103730008068817902A803F016FC040076D1306B12
:103740002A468068817901A803F00DFC04006FF01F
:1037500003076CD1039804AB05990068024601F099
:1037600025FD04007CD1039804AB0599406802460E
:1037700001F01CFD040073D1039804AB826800685B
:10378000014601F013FD04006AD1306B0299006814
:10379000FFF7E2F8DDE9012004AB059901F006FD31
:1037A00004005DD10095DDE90303019980680246BC
:1037B00000F048FE040053D1039804AB8168006810
:1037C0000A4601F0F3FC04004AD1306B02994068CC
:1037D000FFF7C2F8DDE9012004AB059901F0E6FC32
:1037E00004003DD10095DDE903030199806802469C
:1037F00000F028FE040033D1039804ABD0E9002088
:10380000014601F0D3FC04002AD12748012141F2EE
:1038100055448160816801680891491C08D003986B
:1038200000680146FFF744F878B917E030E023E07C
:1038300008990160006808900028039806D0006885
:103840000146FFF735F800B908E009E08168006833
:10385000FFF72EF8002808BF002401E041F252448F
:10386000019848B18079E988404207EB800008441C
:103870000838E880CDF80480029848B18079E9885A
:10388000404207EB800008440838E880CDF8088003
:1038900004A801F072FC294603A8FFF7FCFB0AB05C
:1038A0002046BDE8F081000000300240002812BF31
:1038B000002941F25440704730B5044600680D4677
:1038C000002804BF41F2544030BD03F06DFB206876
:1038D0002946001D03F068FBE8880838E8800020CE
:1038E000206030BD38B5144600221D4600920028E5
:1038F00018BF002C1AD0002D1FBF0268002A436891
:10390000002B13D0927992002A6091B1012918BF3F
:1039100041F2544012D01B4A012191609168116814
:1039200000914B1CA4F1010114D10CE041F2544070
:1039300038BD00682146FEF76DFFECE74068214680
:10394000FEF768FFE7E7009B136012680092002A09
:1039500008BF38BD207800F05F0020702A6880F032
:103960005500521E04EB6202107028682378425CF6
:1039700043F0AA035A40425428684010286041F29C
:10398000544038BD00300240002919BF002A0028E9
:1039900041F25440704770B50546086B14460E4618
:1039A00000281FBF21680029C268002A04BF41F215
:1039B000534070BDE0889279202303EBC202A388B4
:1039C00002449A421BD808442860E0882246083006
:1039D000E080306BC0688179286803F0C4FA70B960
:1039E000306B2246C06881792868001D03F0BBFA5D
:1039F000002808BF70BD2146286803F0D5FA40F2C0
:103A0000ED3070BD2DE9FF4F97B000200190099077
:103A1000039002900490069017981D4600281CBF42
:103A2000199800283DD0002D1CBF2498002838D0BC
:103A3000686800281FBF29680029A968002934D0B8
:103A40002499096800291CBF006B00282DD0C1688B
:103A500000291CBF0269002A2BD08268002A1CBFE3
:103A60000068002825D024989279C08802EB420291
:103A700000EBC202887902EB001101F19C0224994B
:103A800089888A4288BF40F2ED3B00F2F880411CF1
:103A900003A8249A03F067FA5FEA000B40F0EF8076
:103AA0000BE041F2544B00F0EAB841F2534B00F006
:103AB000E6B841F2574B00F0E2B86868249A006B10
:103AC000C068817902A803F04EFA5FEA000B6FF03C
:103AD00003077DD1696806A8249AFFF74FFC5FEAC7
:103AE000000B76D1696804A8249AFFF747FC5FEAC7
:103AF000000B6DD169680498FFF756FD68680CA942
:103B0000249A006B806800F03FFE5FEA000B7DD1D5
:103B10006868039C006BC0680B90D5F80880FEF7BE
:103B20006AFF06461F30C11700EBD160C0F3471A89
:103B3000C0F34F194FEA8900139006F01F00C0F13F
:103B400020004FF0FF3121FA00F01190A17940469A
:103B50008A4502D941F2B54B76E00021E171A4F823
:103B6000049006F01F0B2268139B01F033FF0246FE
:103B7000A088401EBBF1000F07D02168119B51F8AF
:103B800020C00CEA030341F82030A088012808D99E
:103B9000216807EB8003C958002904BF401EA0809C
:103BA000F3D00AB193464FE020460B99FEF780FE12
:103BB0000028CBDA03988188012903D101680968BC
:103BC0000029A5D00CA900916B68069A049901E020
:103BD00041E044E001F0F0FB5FEA000B34D10699CC
:103BE0000CAA084601F096FD5FEA000B2CD106985E
:103BF0000068C079012812D169680698249B096B76
:103C00000068C9680246FDF783F800E01FE05FEA3C
:103C1000000B19D106980068C0790128ECD06868BB
:103C2000006BC16806980068FEF742FE00280698FF
:103C3000006828DB69680246249B096BC96803F0A9
:103C4000C5F95FEA000BEAD00CA801F096FA04A8C7
:103C50002499FFF720FA06A82499FFF71CFA039984
:103C60002498002918BF002809D08979C2884942C0
:103C700007EB810111440839C180002003901BB07B
:103C80005846BDE8F08F8188012904D1006800689A
:103C900000283FF43DAF0CA801F06FFA04A8249966
:103CA000FFF7F9F968680399249B006BC26808461E
:103CB00000F02FFC5FEA000BCDD106980299006856
:103CC000FEF74AFE06A82499FFF7E5F96868249AEA
:103CD000006BC068817901A803F045F95FEA000B29
:103CE00040F07B816868249A006BC068817909A8DC
:103CF00003F039F95FEA000B40F05F8168680CA9B6
:103D0000249A006BC06800F03FFD5FEA000B40F0B2
:103D10004481029A0CAB10460D9901F047FA044613
:103D200028680D990CAB0068019A01F03FFA039ADC
:103D300004430CAB10460D9901F038FA50EA040B1D
:103D400040F02881DDE901010CAB099A01F02EFA5F
:103D50005FEA000B40F01E816868006BC368B3F82F
:103D600004C0BCF1010F05D118680068002808BF25
:103D700001210ED01A6807EB8C044FEA4C1112593E
:103D80004FF0004030EA02041EBF00284008491EE0
:103D9000F8D11898B1EBC00F7DDABCF1010F05D155
:103DA00018680068002808BF01220ED0196807EBC8
:103DB0008C034FEA4C12C9584FF0004030EA01031F
:103DC0001EBF00284008521EF8D1D01DC11700EBBD
:103DD0005170C01018900146019A179803F004FB27
:103DE00069680198096BCB68B3F804C0BCF1010F96
:103DF00005D119680968002908BF01210FD04FEAD1
:103E00004C111B6807EB8C0C4FF0004253F80C3040
:103E100032EA030C1EBF002A5208491EF8D1189A34
:103E2000D1EBC20160D020295ED28288012A45D020
:103E300000234FF0010C3CEA02020DD00368C1F1EF
:103E40002006D3F800C05C682CFA01FCB4404CEAB0
:103E5000040CC3F800C00123B0F804C0ACF1010C9D
:103E6000944584BF4FF0040CC1F1200426D90668A4
:103E70000CEB830956F8238056F8099028FA01F8CC
:103E800009FA04F948EA090846F8238006685B1C29
:103E900056F8238000E022E00CEB830928FA01F8B1
:103EA00056F8099009FA04F948EA090846F8238007
:103EB00086885B1C921C761E9642D8D8828803683E
:103EC00007EB820253F802C03CFA01FC43F802C03F
:103ED000818809D101291CBF491E818004E0014667
:103EE000019A179803F080FA019A0CAB10460D99CD
:103EF00001F05CF95FEA000B4CD16A680198249EDE
:103F0000126B04460999D2F80C8033462246FCF71E
:103F1000FFFE5FEA000B04D0A179A088491C88420B
:103F200038D141462046FEF7C3FC002805DB224677
:103F300033464146104603F049F8A088A1798842EB
:103F400002D941F2B54B25E0039A0CAB104601991A
:103F500001F02CF903990CAA084600F0E8FB02993D
:103F60000CAA084600F0E3FB03988188012904D1DC
:103F70000068006800283FF4CBAD199801680298EA
:103F8000FEF7EAFC0446199841680398FEF7E4FC42
:103F900040EA040B0CA801F0F0F8029924980029DB
:103FA00018BF002809D08979C288494207EB8101EE
:103FB00011440839C18000200290019924980029F9
:103FC00018BF002809D08979C288494207EB8101CE
:103FD00011440839C18000200190099924980029D2
:103FE00018BF00283FF43BAE8979C288494207EBED
:103FF000810111440839C180002009902FE600009A
:1040000030B5039C0D4D05600D4D85600D4D45602F
:104010000D4DC5600D4D05610D4D45612025856136
:10402000C561456205628562C5620A4D0D600A4D33
:104030004D600A4D15600A4D556030BD3E8A060838
:104040005E8A06087E8A06089E8A0608BE8A0608D8
:10405000DE8A0608E81200201A130020B0130020A0
:10406000E213002030B10749096841F48061054A34
:10407000116005E00349096821F48061014A11607B
:1040800070470000003C024009201349096801F410
:104090008031B1F5803F01D101201CE00E49096853
:1040A00001F0100109B1062015E00B49096801F47F
:1040B000807109B102200EE00749096801F0EF01A3
:1040C00009B1072007E00449096801F0020109B1BC
:1040D000082000E0092070470C3C024003480068BB
:1040E00040F000400149086070470000103C024069
:1040F00030B502460C46092500F034F80546092D76
:1041000019D10E48006820F440700C490860084638
:10411000006840F4007008600846006840F0010044
:104120000860146000F01EF805460448006820F09E
:10413000010002490860284630BD0000103C0240E2
:104140000548006800F0004028B1044802490C39D5
:104150000860034808607047103C0240230167452F
:10416000AB89EFCD08B509200090FFF78DFF0090D7
:1041700002E0FFF789FF00909DF800000128F8D0C9
:104180009DF8000008BD30B48288012A05D101687D
:104190000968002904BF30BC70470021012A12D0F1
:1041A000521E4FF0040C03680CEB810553F82140BC
:1041B0005D5D640844EAC57443F82140491C521E01
:1041C000F1D18188491E026852F821305B0842F81B
:1041D0002130818801299CBF30BC7047002B04BF6F
:1041E000491E818030BC704730B591B00546202211
:1041F00015A109A8FBF7ECFF20221BA101A8FBF7E2
:10420000E7FF002406E0285D09A9095D884200D087
:1042100002E0641C202CF6DB00BF202C02D1002021
:1042200011B030BD002406E0285D01A9095D884277
:1042300000D002E0641C202CF6DB00BF202C01D152
:104240000120EDE7FF20EBE7602C79718B16E4424B
:10425000DE58778E148D0B1084E3B2DFFD5DE6B778
:10426000B16CEE7969282DE7C56F33FC6ECFCD0CAC
:10427000225C4AB356FEE59390AF8560BE0E930F65
:10428000AEBE74A6DAFF7C9B2DE9F0419EB00546D8
:104290000E4617469846002400208DF8080020207E
:1042A000039001A802F04AFD04461CB120461EB04E
:1042B000BDE8F0813246294601A802F0E2FC04463E
:1042C0000CB12046F3E74246394601A802F0EEFC65
:1042D00004460CB12046EAE72046E8E700BFFEE7C7
:1042E000F0B503460D4600202AE01C5CE61704EBFF
:1042F00016763611195CCF1701EB17773F11092F8E
:1043000001DC302700E037273E4402F810601C5CD7
:10431000E61704EB16763611A4EB0616195CCF17D8
:1043200001EB17773F11A1EB0717092F01DC3027AD
:1043300000E037273E44F7B24600761C9755401CF4
:10434000A842D2DBF0BD000070B48279002302B332
:104350009C4612F001024FF0040405D0D0F800C0D2
:10436000CCF804304FF0010C8579954211D900BF8B
:10437000056804EB8C060CF1010CAB51056804EBED
:104380008C06921CAB51857992B20CF1010C9542CE
:10439000EED801228280002904DBC371006801602D
:1043A00070BC7047C27100684942016070BC7047C0
:1043B0002DE9F00700293FD083886FF003080268D9
:1043C00008EB830C002752F80C20C1F12004E240D6
:1043D00018BF1746012B19D000225B1E6FF007098A
:1043E0008588D0F800C0AE1A08EB860509EB860672
:1043F0005CF805A05CF806600AFA01FAE6404AEAB1
:104400000606521C4CF805605B1EE9D10268136871
:1044100003FA01F111607FB1818883794A1C9A42C5
:1044200082BF41F2B540BDE8F0077047026842F82C
:1044300021708188491C8180BDE8F0070020704709
:1044400000BFFEE770B51D46049E14463346FCF7D8
:104450005FFC28B1A279A188521C914218BF70BD9F
:1044600029462046FEF724FA002805DB224633467B
:104470002946104602F0AAFDA088A17988428CBF87
:1044800041F2B540002070BD2DE9F0470446808818
:10449000002617468846012802D12168096811B311
:1044A00000281CBF0022111F11D0A3882568A3EB90
:1044B000020C01EB8C0955F82C3055F809905B0083
:1044C00043EAD973521C45F82C30401EEDD12068C8
:1044D000016849000160A088216851F82010012975
:1044E00004BF401CA08041462046FEF7E1F90028A9
:1044F00006DB22463B464146104602F067FD064673
:10450000A088A17988428CBF41F2B5403046BDE811
:10451000F0872DE9F04387B000258146009501958D
:104520000395029510681646884600781C4610F0E0
:10453000010F02BF41F2B64007B0BDE8F083B17988
:104540001A46684602F00FFD00281CBF07B0BDE800
:10455000F083B179224601A802F005FD6FF0030750
:10456000002840F0D180B0792246411C03A802F017
:10457000FAFC002840F0BA80B0792246411C02A81B
:1045800002F0F1FC002874D148460099FEF7E4F9E6
:1045900000286FD130460199FEF7DEF9002869D175
:1045A00001210398FFF7D0FE00210298FFF7CCFE0F
:1045B00000988188012903D10068006800285AD03A
:1045C00000980168097811F0010F16D1FFF7DBFDA3
:1045D00003980168097811F0010F07D023460246BD
:1045E0003146FCF795FB002864D102E0FFF7CBFDD4
:1045F000E6E70398FFF7C7FDE2E70198016809784D
:1046000011F0010F0DD001460098FEF751F9002876
:10461000234621DB009A0199104602F0D7FC48BBE3
:1046200015E0FFF7B0FD02980168097811F0010F5D
:1046300006D0234602463146FCF76AFBD0B902E0B9
:10464000FFF7A1FDD9E70298FFF79DFDD5E7039A93
:1046500023461046029909E0019A0099104602F09B
:10466000B5FC38B9029A23461046039902F0AEFC15
:104670009EE72DE01EE00298C179012907D123466B
:1046800002463146FCF744FB0028F4D012E03146E4
:104690000298FEF70DF9002808DB029A234610461F
:1046A000314602F093FC0028F1D003E04146029825
:1046B000FEF752F90299002918BF002C08D0897919
:1046C000E288494207EB810111440839E1800295F3
:1046D0000399002918BF002C08D08979E288494243
:1046E00007EB810111440839E18003950199002904
:1046F00018BF002C08D08979E288494207EB810174
:1047000011440839E18001950099002912BF002C5D
:1047100007B0BDE8F083E2888979494207EB81015F
:1047200011440839E180009507B0BDE8F083F8B581
:10473000002500950F46144606468179D2686846E2
:1047400002F011FC00281CBF40F2ED30F8BD012141
:104750000098FFF7F9FD23463A463046009900F0ED
:1047600025FD009AE168002A14BF0029F8BDCB8816
:1047700092796FF0030C52420CEB82021A44083A11
:10478000CA800095F8BD00002DE9F74F84B00020E5
:10479000009004980C46069A8079811C201D02F036
:1047A000E2FB00284DD10498206000216068FFF7EB
:1047B000CBFD049861684FF0010C8088401C888014
:1047C000606801680498808841F820C004980068F7
:1047D0000268604602F00301022928BF0320042179
:1047E00007230F2502FB00F61E408E4228BF084417
:1047F00049008CEA430302FB00F61E408E4228BFAC
:10480000084449008CEA43036D1EEBD14042A0608E
:104810000498069A8079411C684602F0A4FB2D1F7B
:1048200080B161680698002918BF002841D08979B5
:10483000C288494205EB810111440839C18000203A
:10484000606036E000990498FEF786F80098FEF75D
:10485000D2F8C0F1200000F01F000146019000983E
:10486000FFF7A6FD6068069B0246009902F0AEFBCA
:1048700020B361680698002918BF002809D08979FB
:10488000C288494205EB810111440839C1800020EA
:10489000606000990698002918BF002809D089791E
:1048A000C288494205EB810111440839C1800020CA
:1048B000009007B040F2ED30BDE8F08F002002908C
:1048C00004988088002840F2F2800198C0F120000E
:1048D0000390616804980A6880888B8805EB8000E3
:1048E0008E791758012003F1010CB4453CD8012BF7
:1048F00004BF1268002A37D04FF00008012B1CBFFC
:1049000000225B1E13D000BFB1F804C00E68ACEBF0
:1049100002098444ACEB020C05EB890905EB8C0C15
:1049200056F80990521C46F80C905B1EECD10A68B0
:10493000136842F820300023012813BF02460A689A
:10494000C2F8008090420CD9D1F800C0921C4CF8FB
:104950002380D1F800C05B1C4CF823805B1C904284
:10496000F2D88A8810448880002F18BF6FF007069D
:104970007ED000990498FDF7EFFF0098B7B30021AF
:10498000B0F804C0D0F800A00A46BCF1000F30D047
:10499000AAF104031CF0010F05D053F8041FA1FB7A
:1049A00007211A600022B0F804C05FEA5C0C18BF4F
:1049B0004FF000090FD0D3F804809346E8FB071BA3
:1049C00059609A684946E2FB07B143F808BF4A4676
:1049D000BCF1010CEFD1828859B190F806C0531C8C
:1049E00063459CBF83804AF8221002E0FFE702F093
:1049F00097FADDE90002E2B3B0F804C0016805EB04
:104A00008C034FF0000BCB580399CB4018BF9B464B
:104A1000BCF1010F1CBF0023ACF1010C19D000BF89
:104A2000B0F804800768A8EB030905EB890806EBDA
:104A3000890957F808A057F809900AFA02FA29FAE2
:104A400001F94AEA09095B1C47F80890BCF1010C1E
:104A5000E6D101680B6803FA02F20A60BBF1000FAD
:104A60000DD0818883794A1C9A4208D8026801E0F7
:104A700014E004E042F821B08188491C818060681C
:104A8000069B0246009902F0A1FA6068016804984A
:104A9000808851F82070002F7FF46BAF0298401C83
:104AA000029004988188029881423FF612AF0099E3
:104AB0000698002918BF002809D08979C288494280
:104AC00005EB810111440839C18000200090606825
:104AD0000499FDF7EDFE002805DD6068069B02469F
:104AE000049902F073FA0698E06007B00020BDE870
:104AF000F08F2DE9FF4F85B04FF00009129D07465A
:104B0000CDF80090CDF80490CDF80890286888463C
:104B100016468079EA68411C684602F024FA0400CF
:104B200040F0A2812868EA688079411C01A802F05F
:104B30001AFA04006FF0030A40F086812868EA68D8
:104B40008079411C02A802F00EFA040040F06C814A
:104B5000387B10F0020F98F80C0009D010F0020F0B
:104B600019BF022030733146404640F04D8105E0C8
:104B700010F0020F1CBF3146384603D0FEF71AFA78
:104B800000F042B910F0010F07D031683868FDF726
:104B9000E3FE04001FD000F037B9D8F808002B4618
:104BA0000146009A00F002FB040040F02D813268BB
:104BB0002B463868009900F0F9FA2B46D8F808001F
:104BC000029A009900F0F2FA72682B46786802990E
:104BD00000F0ECFA03E071687868FDF7BDFEB86894
:104BE0002B460146009A00F0E1FA040040F00C81E7
:104BF000DDE900122B46D8F8000000F0D7FA316842
:104C00002A6804920198EA688346134603925A463A
:104C100002F0DCF9002818BF04460AD19BF807000F
:104C2000012809D1DDE903315A461046FCF770F836
:104C30000446002C40F0E880009A2B46B8681146E4
:104C400000F0B4FA009A2B46D8F80400114600F0A0
:104C5000ADFA71682A680492EA68DDF808B0134674
:104C6000039200985A4602F0B1F9002804BF9BF85D
:104C70000700012805D1DDE903315A461046FCF74B
:104C800047F801988188012902D10068006858B16D
:104C900098F80C0010F0010F17D0B168B868FDF754
:104CA0005BFE04001AD0AFE002988188012902D18E
:104CB0000068006808B10220A5E02B46314638465E
:104CC000089A00F0D5F804469EE0B268D8F80810BB
:104CD0002B46B86800F06AFA04007ED1B0682B4613
:104CE0000246019900F062FA040076D1DDE9002164
:104CF0002B46084600F05AFA019A2B4610460099B6
:104D000000F054FA009A2B463168104600F04EFA33
:104D100070682B460246019900F048FA02992B462A
:104D20003268084600F042FA3068D5F80C80074631
:104D3000019943463A46D5F800B002F047F904001D
:104D400009D1F879012808D13A4643465946104618
:104D5000FBF7DEFF0446002C56D1DDE90001FDF72C
:104D6000FBFDEA6829680198FFF78EFB04004BD130
:104D70003068EF68044601993B462246D5F800802A
:104D800002F024F9002804BFE079012805D1224669
:104D90003B4641461046FBF7BBFF019CEF6800987D
:104DA00031683B462246D5F8008002F00FF9002812
:104DB00004BFE079012805D122463B464146104612
:104DC000FBF7A6FF019A2B461046029900F0EEF978
:104DD000040019D10198716800E015E0D5F80C8045
:104DE0000F4643463A46D5F800B002F0EFF80028E7
:104DF00004BFF879012805D13A4643465946104682
:104E0000FBF786FF042030730299E868002918BF79
:104E1000002809D08979C28849420AEB81011144EE
:104E20000839C180CDF808900199E868002918BFB9
:104E3000002809D08979C28849420AEB81011144CE
:104E40000839C180CDF804900099E868002918BF9E
:104E5000002809D08979C28849420AEB81011144AE
:104E60000839C180CDF8009009B02046BDE8F08F28
:104E70002DE9F04F83B04FF000080746CDF80880C9
:104E8000CDF8048018680E46914680791C46811C36
:104E900001A8DA6802F067F8050040F06A8120682E
:104EA000E2688079811C02A802F05DF805006FF0CD
:104EB000030A40F04E81C11E0198FFF745FA387B86
:104EC00010F0020F1CBF0220307340F0328104202A
:104ED0003073B86823460146029A00F067F905006E
:104EE00040F02781D7E901102346B26800F05EF94F
:104EF000E2682168B068FFF7C7FA050040F0198141
:104F0000019AE36821681046FBF702FFD9F83000E8
:104F100001680198FDF7CCFC48B1029A234610467F
:104F2000014600F043F9050040F0038140E0DDE96F
:104F30000191D4F80CB038685B464A46256802F007
:104F400045F848B999F80700012808D14A465B4658
:104F500029461046FBF7DCFE050040F0EA80E068D9
:104F600000902368326838680299FFF76BFA0500F1
:104F700040F0DF80DDE901122346306800F016F9C9
:104F8000050040F0D680DDE90110FDF7E5FCE268A0
:104F900021680198FFF778FA050040F0CA80E068C0
:104FA0000090029A236811460198FFF74BFA2AE015
:104FB000D9F83000616823460068019A00F0F6F8DD
:104FC000029A23461146019800F0F0F8386823460B
:104FD0000146019A00F0EAF8E0680090029A23681E
:104FE00010460199FFF72EFAE26821680198FFF751
:104FF0004BFAE0680090029A236810460199FFF787
:1050000021FA05007ED1786832682346014600F017
:10501000CDF8050076D1306823460146019A00F0AC
:10502000C5F8E26821680198FFF72EFAE268216866
:105030000198FFF729FAE26821680198FFF724FA3E
:10504000E26821683068FFF71FFAE268216830687B
:10505000FFF71AFAD6E900122346386800F0A6F8DE
:10506000050066D1029923463268084600F09EF892
:10507000D6E90001D4F80C9007464B463A46D4F8DE
:1050800000B001F0A3FF002804BFF879012805D182
:105090003A464B4659461046FBF73AFED6E9000120
:1050A000D4F80C9007464B463A46D4F800B001F0CD
:1050B0008DFF002804BFF879012805D13A464B46F8
:1050C00059461046FBF724FED6E90010D4F80C90A0
:1050D00007464B463A46D4F800B001F077FF002867
:1050E00004BFF879012805D13A464B465946104687
:1050F000FBF70EFE716823460A46029800F056F848
:10510000706800E015E0E768064601993B460246F4
:10511000D4F8009001F05AFF00280ABFF079054644
:10512000012806D132463B4649461046FBF7F0FDC2
:1051300005460299E068002918BF002809D089793E
:10514000C28849420AEB810111440839C180CDF877
:1051500008800199E068002918BF002809D08979E2
:10516000C28849420AEB810111440839C180CDF857
:10517000048003B02846BDE8F08F002303608360FD
:105180004268002A1ABFC1680029704710B492799A
:10519000B1F806C052426FF0030404EB820262448D
:1051A000083ACA80436010BC704700002DE9FF4FE9
:1051B00087B0002000900A980D4600688488016836
:1051C0000491296803910A99896806910A9980795E
:1051D000CA68411C684601F0C6FE00281EBF40F2A6
:1051E000ED300BB0BDE8F08F00210098FFF7ACF870
:1051F000009800680190AA88A24215D2039800EB9B
:105200008200001FA11A11F0010F02D0002140F806
:10521000041FA988611A491018BF002204D04260F7
:1052200040F8082F491EFAD10798828894422AD95B
:105230000021A01A002826DD401E012333EA0000C9
:1052400004D0079B1B6843F822100121079A92881B
:10525000A21A824288BF002215D9079B801CD3F86E
:1052600000C09B880B44491C4CF82320079BD3F8B3
:1052700000C09B880B44491C4CF82320079B9B884B
:10528000E31A8342E9D800200290002C59D90198F2
:1052900000EB8400059007980168029851F820807F
:1052A000039802680198D0F8009000200146E8FBBE
:1052B0000291069A012C09FB02F7049A1268E7FB97
:1052C000029028D9039A151D019A131D049A661E8F
:1052D00002F1040C5FF0000255F8049BA8FB09AB37
:1052E000D3F8009019EB010142EB020E1AEB010911
:1052F0004BEB0E015CF804AB10EB0900AAFB07AB0B
:1053000042EB020E1AEB00094BEB0E0043F8049C33
:105310001B1D761EE0D1019A52F824300022591844
:1053200042EB0203091842EB0200059A42F8041C02
:105330001918019840F824100298401C02908442E9
:10534000A9D80098611C818089B2012908D9019AE5
:1053500002EB810252F8042C002A08BF491EF2D049
:105360000A990968FDF7A4FA002809DB0A98099A46
:105370000168009801F09FFE099A0021D17103E0B5
:1053800009990098FDF7E8FA0A99009AC968002A75
:1053900012BF00290BB0BDE8F08FCB8892796FF077
:1053A000030C52420CEB82021A44083ACA800021D4
:1053B00000910BB0BDE8F08F2DE9FF4F9FB005467F
:1053C00000202C9C189002900190039019900E469A
:1053D000E26802A82299FDF7D1FF070040F088811A
:1053E00030460299FDF7E6FD029E307B10F0020F79
:1053F00019D13068234602466168FFF7D7FE78B9B5
:105400007068234602466168FFF7D0FEB068234605
:1054100002466168FFF7CAFE317B41F00401317337
:10542000070040F06181A879E268411C18A801F0EA
:105430009AFD070040F05881A879E268411C19A83C
:1054400001F091FD070040F03D8100211898FEF722
:105450007BFF00211998FEF777FFA748DDE9181CAC
:1054600000F556720DF1100E92E8CC0FAEE8CC0F9D
:1054700000F55E72D0F8940392E8CC070DF1400B72
:105480001790ABE8CC070023AA88012618460DF137
:10549000100EB3EB421F4FD2D5F800A0420900F026
:1054A0001F075AF8228006FA07F737EA08080CBFE8
:1054B0004FF001094FF0000900F101084FEA581BB5
:1054C00008F01F085AF82BA006FA08F838EA0A086C
:1054D0000CBF4FF001084FF000084FEA890949EA74
:1054E000430343EA080810AB53F828305EF82880DD
:1054F000B8F1FF3F0BD0B8F1010F18D1D1F80080FF
:1055000058F8229049EA070748F822700FE0D1F8CE
:10551000008058F8229049EA070948F82290DCF800
:10552000008058F8229049EA070748F82270AA88B4
:10553000401CB0EB421FAFD35EF83320B2F1FF3F07
:1055400021D0012A0CD0A8888880A888ACF8040053
:10555000E26801A82299FDF711FF070079D12CE03C
:10556000AA88521C8A80AA88521CACF804200A68B7
:10557000410900F01F0052F8213006FA00F01843EC
:1055800042F82100E4E7AA88521C8A80AA88521CAB
:10559000ACF804200A68410900F01F0052F82130DD
:1055A00006FA00F0034342F82130DCF8002052F8FC
:1055B0002130184342F82100CAE701980221017303
:1055C000E26803A82299FDF7D9FE070064D1DDE95E
:1055D000027529463846D4F80C80FDF7EBFC38B943
:1055E00022986A687968006B4346806801F0EEFC97
:1055F00007004DD11898791E808811EB401542D4D0
:10560000DDE9211223460198FFF732FC07003FD164
:1056100001992198FDF7CEFC189805F01F0201684A
:10562000680906FA02F351F8201033EA010114BFA9
:1056300000210121199A126852F8200033EA000073
:105640000CBF0120002001291BD118B101280BD06B
:1056500017E025E00094DDE90101DDE92123FFF7F2
:1056600048FA070014D108E00094DDE921230399EA
:105670000198FFF73EFA07000AD101992198FDF73A
:1056800099FC6D1EBCD521990198FDF793FC074646
:1056900003A8E168FDF7FFFC01A8E168FDF7FBFC4A
:1056A0001999E068002918BF00280BD08979C288B1
:1056B0004B426FF0030101EB830111440839C180B3
:1056C000002019901899E068002918BF00280BD015
:1056D0008979C2884B426FF0030101EB83011144C9
:1056E0000839C1800020189002A8E168FDF7D3FCBA
:1056F00023B03846BDE8F08F24A1060870470000AB
:1057000002490143024A1160704700000000FA0597
:105710000CED00E0F8B50646007B0C46154610F08F
:10572000030F05D021463046BDE8F840FDF742BCE6
:105730000027009710F0040F15D0A168B068FEF79D
:10574000F6FF002818BFF8BD21683068FDF704F99E
:10575000002818BFF8BD61687068FDF7FDF80028E3
:1057600018BFF8BD11E0226869682B463068FFF762
:105770001DFD002818BFF8BD626869682B46706877
:10578000FFF714FD002818BFF8BDEB68A0682A6871
:105790000146FEF7BEFE002818BFF8BDA0682B46E4
:1057A00002466968FFF702FD002818BFF8BD2868A7
:1057B000EA688179684601F0D6FB002818BFF8BD79
:1057C0002B46A068009A0146FFF7F0FC6FF0030635
:1057D00078B1009AE968002A14BF0029F8BDCB8887
:1057E0009279524206EB82021A44083ACA80009724
:1057F000F8BD20682B4602460099FFF7D7FCA06849
:105800002B4602460099FFF7D1FCE868009949B1A0
:1058100040B18979C288494206EB810111440839B7
:10582000C1800097D4E901102B460A46FFF7BEFC61
:10583000002818BFF8BD0020217B11F0020F16D1FF
:1058400011F0040F13D020682A460146FEF76FFFBF
:1058500068B960682A460146FEF769FFA0682A46D3
:105860000146FEF764FF217B21F004022273A26847
:10587000012112681160A26812685760A2689180C5
:105880002173F8BD7047000029B1064A126802432F
:10589000044B1A6004E0034A12688243014B1A6009
:1058A000704700003038024029B1064A12680243AE
:1058B000044B1A6004E0034A12688243014B1A60E9
:1058C000704700003438024029B1064A126802438A
:1058D000044B1A6004E0034A12688243014B1A60C9
:1058E000704700001438024030B10749096841F0A0
:1058F0000401054A116005E00349096821F004012B
:10590000014A1160704700000008065010B50121DF
:105910004020FFF7D9FF00214020FFF7D5FF10BD41
:1059200030B58FB0044641F2717520220EA101A856
:10593000FAF74EFC14A00068009001A809902020FE
:105940000A90CDF82CD004200C9000200E900D90E1
:105950002246002109A800F027F9054615B128467E
:105960000FB030BD2846FBE79D201A189B6D1AA783
:105970000E79576F36B6AA8855FD4A7F97E9716947
:10598000B6608878E19C8BA50001020310B5002861
:1059900004BF41F2747010BD816A01291CBF41F23D
:1059A000717010BD416A11B1012911D10AE00021C5
:1059B000016041608160C160016141618161C161DB
:1059C000016205E0FFF7A2FF00214020FFF76CFF16
:1059D000002010BD2DE9F84340F2FF141D46164685
:1059E0000F465FEA0008ADF8004002D02EB9002D46
:1059F00003DD41F27470BDE8F883D8F82800002870
:105A000004BF41F27170BDE8F883D8F8240090B16A
:105A100001281CBF41F27270BDE8F8830120FFF736
:105A200063FF604A4FF0000C101F042D5BDB00BFCA
:105A3000ADF8004039E00024B4EB154FB8BF4FF487
:105A4000803915DA002F06EB0441CDF8009004BF31
:105A500000231A46404618BFD7E9002302F0F2FDA2
:105A6000002818BFBDE8F883641CB4EB154FE9DBD0
:105A7000C4F1000005EB0040009047B1D7E90023D6
:105A800006EB0441404602F0DDFDBDE8F88300234B
:105A900006EB04411A46404602F0D4FDBDE8F88307
:105AA000BDF80010491EADF80010016811F0010F9B
:105AB0000BD1016811F0020F07D1016811F0040F3A
:105AC00003D1BDF800100029EAD1016811F0010FDF
:105AD00061D0116809BA46F80C100CF1040C0CF1F5
