:020000040806EC
:10000000B0360020AD010608AD7906087F64060809
:10001000AD660608713A0608299806080000000037
:1000200000000000000000000000000079920608B7
:100030007740060800000000597B0608D79606089E
:10004000C7010608C7010608C7010608C701060858
:10005000C7010608C7010608C7010608C701060848
:10006000C7010608C7010608C7010608C701060838
:10007000C7010608C7010608C7010608C701060828
:10008000C7010608C7010608C7010608C701060818
:10009000C7010608C7010608C7010608C701060808
:1000A000C7010608C7010608C7010608C7010608F8
:1000B000C7010608C7010608C7010608C7010608E8
:1000C000C7010608C7010608C7010608C7010608D8
:1000D000C7010608C7010608C7010608C7010608C8
:1000E000C7010608C7010608C7010608C7010608B8
:1000F000C7010608C7010608C7010608C7010608A8
:10010000C7010608C7010608C7010608C701060897
:10011000C7010608C7010608C7010608C701060887
:10012000C7010608C7010608C7010608C701060877
:10013000C7010608C7010608C7010608C701060867
:10014000C7010608C7010608C7010608C701060857
:10015000C7010608C7010608C7010608C701060847
:10016000C7010608C7010608C7010608C701060837
:10017000C7010608C7010608C701060800000000FD
:10018000C7010608C7010608DFF80CD000F038FBED
:100190000048004761B60608B036002030BF72B68E
:1001A000704762B6704780F30888704706488047FA
:1001B00006480047FEE7FEE7FEE7FEE7FEE7FEE74C
:1001C000FEE7FEE7FEE7FEE7C59706088901060899
:1001D0002DE9F05F0546002092469B46884606467C
:1001E000814640241BE0284641464746224600F00F
:1001F000E9F953465A46C01A914110D311461846A0
:10020000224600F0D0F92D1A67EB01084F4622462E
:100210000120002100F0C7F917EB00094E41201E14
:10022000A4F10104DFDC484631462A464346BDE8D6
:10023000F09F10B5431A934209D28318881803E03F
:1002400010F8011D03F8011D521EF9D210BD40EA3D
:1002500001039B0703D009E008C9121F08C0042A44
:10026000FAD203E011F8013B00F8013B521EF9D22B
:1002700010BDD2B201E000F8012B491EFBD270473D
:100280000022F6E710B513460A4604461946FFF762
:10029000F0FF204610BD30B504460020034600E0C4
:1002A0005B1C934203D2E05CCD5C401BF8D030BDB8
:1002B0002DE9FE4F804681EA0300C00F0C460090F6
:1002C00021F0004123F00045B8EB0200A94105D21E
:1002D0004046214690461C460B46024623F000400D
:1002E000104347D0270DC7F30A00C3F30A51029009
:1002F000401A019040286BDAC3F3130040F4801BCE
:100300000098924620B10023D2EB030A63EB0B0B5B
:1003100001985946C0F14002504600F044F90646A3
:100320000D4650465946019A00F05CF910EB080062
:100330006141002487EA115284EAE7731A4340D0EE
:10034000009A62B3019A012A4FEA075215DC001B9A
:1003500061EB02014FF0004202EA0752CDE9004290
:10036000001C41F5801132462B4600F05CF903B0C9
:10037000BDE8F08F40462146F9E7001B61EB020122
:10038000001C41F5801300185B412018A2F50017EE
:1003900047EB030140EAD570B6196D4111E06D08D5
:1003A0004FEA360645EAC0754FEA0752001B61EB7B
:1003B0000201001C41F5801149084FEA3000001984
:1003C000514132462B4603B0BDE8F04F00F01CB956
:1003D0000098012240000023D0EB020263EBE0739F
:1003E000009821464FEAE074B8EB000061EB04018D
:1003F000E9E783F000435BE781F0004158E72DE92E
:10040000FE4F81EA030404F0004421F0004100940F
:100410004FF0000B23F0004350EA01045ED052EA93
:1004200003045BD0C3F30A54C1F30A552C44A4F26D
:10043000F3340194A0FB0254C1F3130141F4801181
:10044000C3F3130343F4801301FB024400FB034E88
:10045000840A970A44EA815447EA8357A4FB076851
:1004600002958D0A05FB07854FEA932C04FB0C547B
:100470002705029D4FEA065847EA1637B5EB0805EF
:100480006EEB070C870E920E47EA811742EA831241
:10049000A7FB0201B6EB0B0164EB00042B0D43EA52
:1004A0000C335E1844EB1C50DA465146E7FB020160
:1004B000C5F313044FEA0B3343EA14534FEA0432F3
:1004C000019C43EA0603A4F10C040294009CCDE9CC
:1004D00000B400F0A8F803B0BDE8F08F002001469A
:1004E000F9E70EB5C10F80EAE0700844CA070021A1
:1004F00040F233438DE80E000A460B4600F093F8B5
:1005000003B000BD3EB5CA17CB0F00245040514088
:10051000C0186141DA0740F233430094CDE901236A
:100520002246234600F07FF803B030BD70B5C1F31A
:100530000A5201F000450024C1F3130140F2FF33D9
:1005400041F480119A4202DA0020014670BD40F267
:1005500033439A42A2F2334203DC524200F032F8B3
:1005600001E000F020F82C43F0D00023D0EB030092
:1005700063EB010170BDC1F30A52C1F3130140F2F4
:10058000FF3341F480119A4202DA0020014670479D
:1005900040F233439A42A2F2334202DC524200F06C
:1005A00011B8AFF30080202A04DB203A00FA02F1F0
:1005B000002070479140C2F1200320FA03F3194351
:1005C00090407047202A04DB203A21FA02F00021F3
:1005D000704721FA02F3D040C2F120029140084353
:1005E00019467047202A06DBCB17203A41FA02F061
:1005F00043EAE07306E041FA02F3D040C2F1200280
:10060000914008431946704710B5141E73F1000459
:1006100008DA401C41F1000192185B411A4301D1F4
:1006200020F0010010BD2DE9F04D92469B4611B11E
:10063000B1FA81F202E0B0FA80F220329046FFF780
:10064000B2FF04460F4640EA0A0041EA0B01534656
:100650005A46084313D0114653EA010019D0C8F195
:1006600040025046FFF7AEFF05460E46504659463B
:100670004246FFF798FF084305D0012004E02046DA
:100680003946BDE8F08D0020054346EAE0762C436C
:1006900037430A986305E40AA0EB08000022FD0A2C
:1006A00044EA47540A3002D500200146E9E7010533
:1006B00010196941DDE9084500196941BDE8F04DAF
:1006C000A2E72DE9F04D81EA030404F0004B21F08C
:1006D000004514464FF0000A23F0004150EA05029D
:1006E00020D054EA01021DD0C5F30A570246C5F3D3
:1006F0001303C1F31300C1F30A5640F4801543F409
:100700008013A7EB0608101BD64608F2FD3873EBE2
:10071000050002D308F1010801E092185B41B8F12D
:10072000000F03DA00200146BDE8F08D00204FF4F1
:100730008011064684460EE0171B73EB050705D3B0
:10074000121B63EB050306434CEA010C49084FEA10
:10075000300092185B4150EA0107EDD152EA0300E4
:1007600012D082EA040083EA0501084305D0101B79
:10077000AB4106D20122002306E000224FF00043E5
:1007800002E06FF0010253101AEB06004CEB085127
:1007900010EB0A0041EB0B01BDE8F04DFFF734BF51
:1007A00070B521F0004303430CD0C1F30A55002477
:1007B000D5EB040564EB0403D617AD1AB34102DB95
:1007C0000020014670BD201841EB025170BD0000B1
:1007D00030B5041E71F1000404DB4FF000444042C8
:1007E00064EB0101141E73F1000405DB1C464FF09D
:1007F0000043524263EB0403994208BF904230BD6C
:10080000064C074D06E0E06840F0010394E807005D
:1008100098471034AC42F6D3FFF7BAFC80D50608EF
:10082000A0D506082DE9F04D00231A461B1A8A416F
:1008300003DB00200146BDE8F08DC1F30A52C1F38D
:10084000130141F480154FF0000BD10702D10018BD
:100850006D41521E0027044640F2FF11384601EB5D
:10086000620A3E468046024600204FF48011FFF7A0
:10087000A9FEC2197141BB1846EB0100B4EB030C91
:1008800075EB000C04D3E41A65EB000517460E4621
:10089000241908F101006D4180463428E3DDF9197F
:1008A00046EB0600091BA84103D24FF0FF32134666
:1008B00001E0002213461BEB070046EB0A51BDE89E
:1008C000F04DFFF7A1BE00002DE9F80F02F1A003E3
:1008D000BB4A4FF0010C4FF00508C2F808C0D2F82F
:1008E00008C0D2F800C0CDF800C01CF1010C07D13F
:1008F000DDF800C0C2F800C012680092002A7CD067
:100900004268D3F804C080689C6882EA0C0294466E
:1009100080EA04076446AB484FEA1C65203B50F868
:100920002560C4F3074502F0FF0A50F8255050F83F
:100930002AA086EA3525C2F3072604F0FF0B50F8FB
:10094000266050F82BB04FEA3649FEB2A8F10108F4
:1009500050F8266089EA366675401E69CCF307496F
:100960006E403D0E50F8299050F8255085EA392503
:10097000C4F30729240E50F8299050F824404FEA78
:10098000394989EA3A6985EA09095D69C7F3074A7D
:1009900089EA05054FEA126950F82AA050F8299013
:1009A000C2F3074289EA3A29CCF3072A50F82220F9
:1009B0000CF0FF0C84EA3222C7F3072450F82AA077
:1009C00050F8244050F82CC04FEA3A4A4FEA3444D9
:1009D0008AEA3B6A84EA3C6C89EA0A0982EA0C02E8
:1009E000D3F818A0D3F81CC089EA0A0982EA0C04DB
:1009F000B8F1000F78DD320E00E064E0C4F3074C7C
:100A000050F8222050F82CC009F0FF0A82EA3C225C
:100A1000C9F3072C50F82AA050F82CC004F0FF0BA3
:100A20004FEA3C4705F0FF0C50F82BB050F82CC0B3
:100A300087EA3C6C82EA0C0C1A68C6F307478CEA1A
:100A4000020C2A0E50F8277050F8222082EA372232
:100A5000C4F30727240E50F8277050F824404FEABB
:100A6000374787EA3A677A405F68C5F3074A5740D5
:100A70004FEA196250F82AA050F82220C5F3072542
:100A800082EA3A22C6F3072AC9F30749F6B250F8B8
:100A90002AA050F8255050F8299050F826604FEAC7
:100AA0003A4A4FEA35458AEA3B6A84EA392485EABC
:100AB000366582EA0A026C40D3F808A0DD6882EA53
:100AC0000A026C4028E70268D3F800C05C6882EA3A
:100AD0000C0C426882EA040782689C68C068624025
:100AE000DC68444017E7FFE7374850FA85F200EB2F
:100AF000166C12789CF800C0C9F3072742EA0C6212
:100B0000C4F3074CC75D10F80CC04FEA0C4C4CEA1C
:100B1000072C42EA0C02D3F800C082EA0C020A60F9
:100B200050FA89F200EB156C12789CF800C0C4F3FF
:100B3000072742EA0C62C6F3074CC75D10F80CC0E9
:100B40004FEA0C4C4CEA072C42EA0C02D3F804C0E2
:100B500082EA0C024A6050FA84F200EB196C1278B7
:100B60009CF800C0C6F3072742EA0C6CC5F30742A5
:100B7000C75D825C120442EA07224CEA0202D3F803
:100B800008C082EA0C028A6050FA86F200EB146C0C
:100B900012789CF800C0C5F3072442EA0C62C9F33E
:100BA000074C10F80CC0005D4FEA0C4C4CEA0020DA
:100BB0001043DA685040C860BDE8F80F7047000085
:100BC0000030024080C3060858BE06082DE9F80F21
:100BD000C04B4FF0010C4FF00508C3F808C0D3F824
:100BE00008C0D3F800C0CDF800C01CF1010C0AD039
:100BF0004368D2F804C0006883EA0C07136880EAEF
:100C0000030C63460FE0DDF800C0C3F800C01B68AA
:100C1000009353B14368D2F804C0006883EA0C071C
:100C2000136843409C4664460FE00368D2F800C056
:100C3000946883EA0C074368D2F804C083EA0C0C7A
:100C40008368C0686340D4684440A3483D0E04F004
:100C5000FF0950F82560CCF3074550F8299050F86B
:100C6000255007F0FF0A86EA3525C3F3072650F81A
:100C70002AA050F826600CF0FF0B4FEA364686EAB1
:100C8000396675401669C3F307496E404FEA1C6523
:100C900050F8299050F82550CCF3072C85EA3925D7
:100CA000C4F3072950F82CC050F8299050F82BB005
:100CB0004FEA394989EA3A6985EA0905D2F8149078
:100CC000C4F3074A85EA09054FEA136950F82AA0D8
:100CD00050F82990240E89EA3A29C7F3072AC7F366
:100CE0000747DBB250F82AA050F8244050F827708C
:100CF00050F823304FEA3A4A4FEA3C4C8AEA3B6AC2
:100D000084EA37248CEA336389EA0A0984EA030C0B
:100D1000D2F818A0D3692032A8F1010889EA0A099B
:100D20008CEA0304B8F1000F69DD330EC5F3074CFC
:100D300050F8233050F82CC0E7B283EA3C23C9F3C3
:100D4000072C50F8277050F82CC006F0FF0A4FEA25
:100D50003C4C8CEA376C83EA0C03D2F800C050F8A4
:100D60002AA083EA0C072B0EC9F3074C50F8233056
:100D700050F82CC005F0FF0B83EA3C23C4F3072C8A
:100D8000C5F3072550F82CC050F825504FEA3C4CCD
:100D90008CEA3A6C83EA0C03D2F804C0C4F3074A25
:100DA00083EA0C0C4FEA196350F82AA050F823305C
:100DB000240E83EA3A23C6F3072AC6F3074650F8FF
:100DC000244050F8266050F82AA084EA362409F01E
:100DD000FF0650F82BB050F826604FEA3A4A4FEA27
:100DE00035458AEA3B6A85EA366583EA0A036C4040
:100DF000D2F808A0D56883EA0A036C4026E7374892
:100E000050FA84F300EB166C1B789CF800C0C9F311
:100E1000072743EA0C63C5F3074CC75D10F80CC005
:100E20004FEA0C4C4CEA072C43EA0C03D2F800C002
:100E300083EA0C030B6050FA86F300EB156C1B7809
:100E40009CF800C0C4F3072743EA0C63C9F3074CBE
:100E5000C75D10F80CC04FEA0C4C4CEA072C43EA73
:100E60000C03D2F804C083EA0C034B6050FA85F3FC
:100E700000EB196C1B789CF800C0C6F3072743EA07
:100E80000C6CC4F30743C75DC35C1B0443EA072330
:100E90004CEA0303D2F808C083EA0C038B6050FAD3
:100EA00089F300EB146C1B789CF800C0C5F3072491
:100EB00043EA0C63C6F3074CD26810F80CC0005D1F
:100EC0004FEA0C4C4CEA002018435040C860BDE883
:100ED000F80F70470030024080BF060858BD060872
:100EE0002DE9F04105460C4600F094F82868206092
:100EF00068686060A868A060E868E060444801260F
:100F000000F5C5611034D4E900C300EB1C67CCF3D5
:100F100007483F7810F8088051F8277051F828806A
:100F200087EA3827CCF3072810F8088051F8288082
:100F30004FEA384850FA8CFC9CF800C0D4E90225EE
:100F400051F82CC088EA3C6C87EA0C0CC4F800C04D
:100F500000EB136CC3F307479CF800C0C75D51F862
:100F60002CC051F827708CEA372CC3F30727C75DD4
:100F700051F827704FEA374750FA83F31B7851F83E
:100F8000233087EA33638CEA0303636000EB126368
:100F9000C2F3074C1B7810F80CC051F8233051F8FD
:100FA0002CC083EA3C23C2F3072C10F80CC051F884
:100FB0002CC04FEA3C4C50FA82F2127851F82220B1
:100FC0008CEA32625A40A26000EB1562C5F3074317
:100FD0001278C35C51F8222051F8233082EA332280
:100FE000C5F30723C35C51F823304FEA334350FA6B
:100FF00085FC9CF800C0761C51F82CC083EA3C6349
:101000005A40E2600A2EFFF67DAFBDE8F081000095
:1010100058BD06082DE9F003D0E900C38268C06816
:10102000184CC1E90220E1E804C30A26A4F50075C2
:1010300005EB1067C0F307483F7815F8088047EACA
:101040000867C0F3072815F808804FEA084855FAE2
:1010500080F999F8009048EA092847EA080787EAE2
:101060000C0C54F8047B8CEA070C83EA0C035A40FE
:101070005040C1E90220E1E804C3761ED8D1BDE8A2
:10108000F003704758BF06082DE9F80F02F1C003BE
:10109000BA4A4FF0010C4FF00608C2F808C0D2F867
:1010A00008C0D2F800C0CDF800C01CF1010C07D177
:1010B000DDF800C0C2F800C012680092002A7CD09F
:1010C0004268D3F804C080689C6882EA0C029446A7
:1010D00080EA04076446AA484FEA1C65203B50F8A2
:1010E0002560C4F3074502F0FF0A50F8255050F878
:1010F0002AA086EA3525C2F3072604F0FF0B50F834
:10110000266050F82BB04FEA3649FEB250F8266000
:1011100089EA366675401E69CCF307496E403D0E7C
:1011200050F8299050F8255085EA3925C4F307294D
:10113000240E50F8299050F824404FEA394989EAA2
:101140003A6985EA09095D69C7F3074A89EA05052D
:101150004FEA126950F82AA050F82990C2F30742CA
:1011600089EA3A29CCF3072A50F822200CF0FF0C28
:1011700084EA3222C7F3072450F82AA050F824400A
:1011800050F82CC04FEA3A4A4FEA34448AEA3B6AA4
:1011900084EA3C6C89EA0A0982EA0C02D3F818A0B6
:1011A000D3F81CC089EA0A0982EA0C04B8F10108E4
:1011B00078D0320E50F8222000E062E0C4F3074CF1
:1011C00009F0FF0A50F82CC050F82AA082EA3C220D
:1011D000C9F3072C04F0FF0B50F82CC050F82BB0CB
:1011E0004FEA3C4705F0FF0C50F82CC087EA3C6CF6
:1011F00082EA0C0C1A68C6F307478CEA020C2A0E26
:1012000050F8277050F8222082EA3722C4F30727CB
:10121000240E50F8277050F824404FEA374787EAE9
:101220003A677A405F68C5F3074A57404FEA196248
:1012300050F82AA050F82220C5F3072582EA3A2266
:10124000C6F3072AC9F30749F6B250F82AA050F8A6
:10125000255050F8299050F826604FEA3A4A4FEA54
:1012600035458AEA3B6A84EA392485EA366582EAAA
:101270000A026C40D3F808A0DD6882EA0A026C40DA
:101280002AE70268D3F800C05C6882EA0C0C426866
:1012900082EA040782689C68C0686240DC68444057
:1012A00019E7FFE7374850FA85F200EB166C127821
:1012B0009CF800C0C9F3072742EA0C62C4F3074C4C
:1012C000C75D10F80CC04FEA0C4C4CEA072C42EA00
:1012D0000C02D3F800C082EA0C020A6050FA89F2CC
:1012E00000EB156C12789CF800C0C4F3072742EAA3
:1012F0000C62C6F3074CC75D10F80CC04FEA0C4CEB
:101300004CEA072C42EA0C02D3F804C082EA0C0231
:101310004A6050FA84F200EB196C12789CF800C015
:10132000C6F3072742EA0C6CC5F30742C75D825C2F
:10133000120442EA07224CEA0202D3F808C082EA09
:101340000C028A6050FA86F200EB146C12789CF85A
:1013500000C0C5F3072442EA0C62C9F3074C10F839
:101360000CC0005D4FEA0C4C4CEA00201043DA68D8
:101370005040C860BDE8F80F7047000000300240E0
:1013800080C3060858BE06082DE9F0410C4600F05F
:101390008BF84448012600F5C5621034D4E900C337
:1013A00000EB1C67CCF307483F7810F8088052F830
:1013B000277052F8288087EA3827CCF3072810F8DE
:1013C000088052F828804FEA384850FA8CFC9CF884
:1013D00000C0D4E9021552F82CC088EA3C6C87EAB8
:1013E0000C0CC4F800C000EB136CC3F307479CF867
:1013F00000C0C75D52F82CC052F827708CEA372C19
:10140000C3F30727C75D52F827704FEA374750FAF2
:1014100083F31B7852F8233087EA33638CEA0303A3
:10142000636000EB1163C1F3074C1B7810F80CC02C
:1014300052F8233052F82CC083EA3C23C1F3072C26
:1014400010F80CC052F82CC04FEA3C4C50FA81F115
:10145000097852F821108CEA31615940A16000EB03
:101460001561C5F307430978C35C52F8211052F89F
:10147000233081EA3321C5F30723C35C52F82330BC
:101480004FEA334350FA85FC9CF800C0761C52F8B2
:101490002CC083EA3C635940E1600C2EFFF67DAF1F
:1014A000BDE8F08158BD06082DE9F00F02680A601A
:1014B000D0E900C24A60D0E901328A60D0E9022551
:1014C000CD60D0E903560E61D0E904674F611B4F30
:1014D0004069002407F5007907EB1068C0F3074A5C
:1014E00098F8008017F80AA048EA0A68C0F3072AAB
:1014F00017F80AA04FEA0A4A57FA80FB9BF800B097
:101500004AEA0B2A48EA0A0888EA0C0C59F82480AF
:10151000641C8CEA080C83EA0C035A40554041F8DD
:1015200018CF082CCD60C1E90132A4BFBDE8F00F8F
:1015300070476E407040C1E90460CDE758BD0608B1
:101540002DE9F80F02F1E003BB4A4FF0010C4FF018
:101550000708C2F808C0D2F808C0D2F800C0CDF819
:1015600000C01CF1010C07D1DDF800C0C2F800C0BA
:1015700012680092002A7CD04268D3F804C08068C8
:101580009C6882EA0C02944680EA04076446AB48F1
:101590004FEA1C65203B50F82560C4F3074502F074
:1015A000FF0A50F8255050F82AA086EA3525C2F3E4
:1015B000072604F0FF0B50F8266050F82BB04FEAD6
:1015C0003649FEB2A8F1010850F8266089EA36666D
:1015D00075401E69CCF307496E403D0E50F82990C6
:1015E00050F8255085EA3925C4F30729240E50F810
:1015F000299050F824404FEA394989EA3A6985EA46
:1016000009095D69C7F3074A89EA05054FEA1269C6
:1016100050F82AA050F82990C2F3074289EA3A29E3
:10162000CCF3072A50F822200CF0FF0C84EA322277
:10163000C7F3072450F82AA050F8244050F82CC0D3
:101640004FEA3A4A4FEA34448AEA3B6A84EA3C6CFD
:1016500089EA0A0982EA0C02D3F818A0D3F81CC060
:1016600089EA0A0982EA0C04B8F1000F78DD320E2B
:1016700000E064E0C4F3074C50F8222050F82CC07E
:1016800009F0FF0A82EA3C22C9F3072C50F82AA08D
:1016900050F82CC004F0FF0B4FEA3C4705F0FF0C5C
:1016A00050F82BB050F82CC087EA3C6C82EA0C0C46
:1016B0001A68C6F307478CEA020C2A0E50F8277006
:1016C00050F8222082EA3722C4F30727240E50F86C
:1016D000277050F824404FEA374787EA3A677A4044
:1016E0005F68C5F3074A57404FEA196250F82AA0CD
:1016F00050F82220C5F3072582EA3A22C6F3072ACA
:10170000C9F30749F6B250F82AA050F8255050F80E
:10171000299050F826604FEA3A4A4FEA35458AEA5E
:101720003B6A84EA392485EA366582EA0A026C401B
:10173000D3F808A0DD6882EA0A026C4028E7026854
:10174000D3F800C05C6882EA0C0C426882EA0407A5
:1017500082689C68C0686240DC68444017E7FFE725
:10176000374850FA85F200EB166C12789CF800C0EE
:10177000C9F3072742EA0C62C4F3074CC75D10F8AF
:101780000CC04FEA0C4C4CEA072C42EA0C02D3F88E
:1017900000C082EA0C020A6050FA89F200EB156C74
:1017A00012789CF800C0C4F3072742EA0C62C6F323
:1017B000074CC75D10F80CC04FEA0C4C4CEA072CE4
:1017C00042EA0C02D3F804C082EA0C024A6050FAE2
:1017D00084F200EB196C12789CF800C0C6F307275E
:1017E00042EA0C6CC5F30742C75D825C120442EA10
:1017F00007224CEA0202D3F808C082EA0C028A608F
:1018000050FA86F200EB146C12789CF800C0C5F315
:10181000072442EA0C62C9F3074C10F80CC0005DC3
:101820004FEA0C4C4CEA00201043DA685040C86084
:10183000BDE8F80F704700000030024080C3060882
:1018400058BE06082DE9F0410C4600F08BF84448DC
:10185000012600F5C5621034D4E900C300EB1C6713
:10186000CCF307483F7810F8088052F8277052F8F8
:10187000288087EA3827CCF3072810F8088052F828
:1018800028804FEA384850FA8CFC9CF800C0D4E914
:10189000021552F82CC088EA3C6C87EA0C0CC4F89C
:1018A00000C000EB136CC3F307479CF800C0C75D92
:1018B00052F82CC052F827708CEA372CC3F3072754
:1018C000C75D52F827704FEA374750FA83F31B7809
:1018D00052F8233087EA33638CEA0303636000EB3A
:1018E0001163C1F3074C1B7810F80CC052F8233079
:1018F00052F82CC083EA3C23C1F3072C10F80CC02B
:1019000052F82CC04FEA3C4C50FA81F1097852F859
:1019100021108CEA31615940A16000EB1561C5F3DB
:1019200007430978C35C52F8211052F8233081EA4A
:101930003321C5F30723C35C52F823304FEA334306
:1019400050FA85FC9CF800C0761C52F82CC083EA43
:101950003C635940E1600E2EFFF67DAFBDE8F0819B
:1019600058BD06082DE9F04FD0E902C2D0E9005475
:10197000C1E902C2C1E90054D0E90487C1E9048782
:10198000D0E90663C1E906632B484FF0000900BFA8
:1019900000EB136AC3F3074B9AF800A010F80BB0E2
:1019A0004AEA0B6AC3F3072B10F80BB04FEA0B4B54
:1019B00050FA83FE9EF800E020314BEA0E2B4AEAF3
:1019C0000B0A8AEA050A1D4D55F8295009F101094B
:1019D0008AEA05056C408CEA040C82EA0C02C1E933
:1019E00002C2C1E90054B9F1070FA8BFBDE8F08FEA
:1019F00050FA82FA9AF800A000EB126BC2F3072E9D
:101A00009BF800B010F80EE04AEA0B6AC2F3074BED
:101A100010F80BB04FEA0B4B4BEA0E2B4AEA0B0ABD
:101A20008AEA080887EA08077E407340C1E906632E
:101A3000C1E90487ACE7000058BD060858BF060896
:101A40002DE9F04784B01F46DDF830A09146884666
:101A5000060018BFB8F1000F0FD0002F18BFBAF161
:101A6000000F0AD0B9F1000F02DD19F00F0F09D0F5
:101A700004B040F61D40BDE8F08704B04FF442606A
:101A8000BDE8F087307910F0020F13BF40F61E401A
:101A900000246D4604B018BFBDE8F0875FF0000079
:101AA00004EB800158F8011009BA45F82010401CD9
:101AB0000428F5DB736A6846014606F12802182BF4
:101AC00004D0202B05D0FEF7FFFE04E0FFF7DCFA80
:101AD00001E0FFF735FD4FF0000C00BF55F82C007A
:101AE00004EB8C0100BA0CF1010C7850BCF1040F2E
:101AF000F4DB10344C45D1DBCAF8004004B00020C0
:101B0000BDE8F087002812BF002A4FF442607047FA
:101B1000017941F002010171002010607047032338
:101B2000AFF30080002818BF002905D003F0060C91
:101B30002AB9BCF1020F02D04FF4426070472DE980
:101B4000F043446A89B0102C1CBF182C202C06D1FD
:101B5000BCF1020F08D00469641E102C04D309B034
:101B600040F61F40BDE8F083C2600479BCF1020F6B
:101B700024F00604047149D0002444618461C461E6
:101B800004620569002DD8BF4FF0000C06DD15F08A
:101B9000010C03D0167844EA066444616545C8BF69
:101BA000182433DD4FEAEC750CEB957525F0030630
:101BB0003718ACEB060607F1140512F80C807642D4
:101BC0007F6904EBC60608FA06F63E432E600CF168
:101BD0000107FE1707EB967525F0030606EB0008D4
:101BE00002EB0C09BE1B08F1140599F8019076422E
:101BF000D8F8148004EBC60609FA06F648EA060689
:101C00002E6005690CF1020C6545CBDC027912F0FF
:101C1000010F55D1816013F0010F0DD006229A43B8
:101C20000AD0426A0B4600F128014FEAE27C00200C
:101C30006C4602EB9C7C2FE000F1280C426A0020ED
:101C4000D3176C4602EB937306E000BF51F82050A7
:101C50002DBA44F82050401CB0EBA30FF6DB102A3D
:101C600004D0182A07D0202A2AD109E0614620464C
:101C7000FFF7D0F924E061462046FFF715FC1FE08E
:101C800061462046FFF76EFE1AE000BF53F8205071
:101C90002DBA44F82050401CB0EBAC0FF6DB102AF4
:101CA00007D0182A09D0202A04BF2046FFF7CAFD12
:101CB00006E02046FFF714F902E02046FFF764FB38
:101CC00009B00020BDE8F08300B587B000BF002058
:101CD00001901148006840F002000F490860084672
:101CE000006800F00200019000BF00BF4FF4407098
:101CF000029003200590112003900020049002A977
:101D0000064803F03BFE0120054908600549C1F87B
:101D1000A40207B000BD00003038024000040240B9
:101D2000A08240420080404270B504460E4607F053
:101D300049FBC92007F0A2FA1648006808B1EA205A
:101D400070BD06F01FF92070002000F0B5F825786E
:101D5000042D01DBB54203DD07F054FBE420EFE77F
:101D6000681EC5B2641C0EE006F00CF904F8010B05
:101D7000681EC0B2050003D0002000F09DF802E00C
:101D8000012000F099F8002DEED107F03BFB002078
:101D9000D6E700004800002070B504460D4607F065
:101DA00011FBC82007F06AFA0B48006808B1EA2066
:101DB00070BD0AE0207807F061FA0748006808B1B2
:101DC000F720F5E7641C681EC5B2002DF2D107F0BC
:101DD00019FB0020ECE700004800002010B50020AF
:101DE00004490860502007F025FE01200249C1F88F
:101DF000A40210BDA4824042008040422DE9F0417F
:101E000094B004460D4616464FF00108E12700BF86
:101E100009F0EFFD10B94FF0000828E011A808F014
:101E2000DDFF074617B14FF0000820E0242108A885
:101E3000FEF726FA40208DF80400ADF80640029522
:101E400000200390049011A805900020069008A897
:101E50000790BDF806109DF804003346029A08F07A
:101E600050FF074617B14FF0000800E000BF00BF69
:101E7000404614B0BDE8F0812DE9FC4104460D4612
:101E80000026002700BF09F0B4FD08B900BF0EE02E
:101E9000202000231A462146CDE90050022008F0F8
:101EA000BEFF07460FB1002600E0012600BF00BFBD
:101EB0003046BDE8FC81000010B5044609480460C6
:101EC000032007F0B7FD01200749C1F8A002042054
:101ED00007F0B0FD00200349091F0860022007F049
:101EE000A9FD10BDA4824042008040422DE9F84384
:101EF0000024884600940646817998F806009146A9
:101F00001D46814288BF0846411C1A46684607F0B4
:101F100026FA00281CBF40F2ED30BDE8F8834146A8
:101F2000304601F0A7FDC01C0127072862D2DFE878
:101F300000F03E2D25352D2504004046009901F086
:101F4000EDFD00993046CC7101F094FDB0F1FF3FFA
:101F500004D000284BD002284CD107E0314640463F
:101F6000009A07F0DEFA0098C77143E04146304618
:101F7000009A07F0D6FA0098C4713BE0414630461B
:101F8000009A00F053F80098C47133E0414630469F
:101F9000009A00F04BF80098C7712BE0414630469C
:101FA000009A00F043F80099F079C87122E03046B9
:101FB000009901F0B3FD00984146C47101F05AFD4B
:101FC000B0F1FF3F03D090B1022813D107E03146B2
:101FD0004046009A07F0A5FA0098C4710AE041460D
:101FE0003046009A07F09DFA0098C77102E0009809
:101FF00007F092F90021484604F076FA4946009825
:1020000001F08CFD0099002914BF002DBDE8F88374
:10201000EA8889796FF00303494203EB8101114497
:102020000839E9800094BDE8F88300002DE9F84FF5
:102030000B46D0F800B0096800910025B0F804C044
:102040009E88176891462C46B44598BF66468179AC
:102050004FF0010E4FF000088C4532D8A1EB0C0177
:10206000002201F1010ABAF1000F2ADD3EEA010166
:102070001CBF4BF82C80012290F806C0B0F804A0D9
:10208000ACEB0A0C0CF1010C8C451AD91FFA8AFA38
:10209000D0F800C09244521C4CF82A80B0F804A03A
:1020A000D0F800C09244521C4CF82A8090F806C028
:1020B000B0F804A0891CACEB0A0C0CF1010C8C45A7
:1020C000E4D8B3F804C099798C4534D8A1EB0C015D
:1020D000002201F1010ABAF1000F2CDD3EEA0101F4
:1020E00003D01A6842F82C80012293F806C0B3F896
:1020F00004A0ACEB0A0C0CF1010C8C451BD900BF01
:102100001FFA8AFAD3F800C09244521C4CF82A8075
:10211000B3F804A0D3F800C09244521C4CF82A80B3
:1021200093F806C0B3F804A0891CACEB0A0C0CF1C0
:10213000010C8C45E4D881889A889142494638BF81
:10214000184601F0EBFC002E48D00098ABF10403D8
:10215000021F391F16F0010F0DD053F804CF52F8AB
:10216000040F1CEB000048EB080C40194CEB040575
:1021700041F8040F44465FEA560C1BD0D3F804A084
:1021800050681AEB000048EB080A45194D604AEB0D
:10219000040053F808AF52F8085F1AEB050548EB46
:1021A0000804281844EB080541F8080F4446BCF120
:1021B000010CE3D195B157F82600401C47F82600E2
:1021C00007E0761C07EB86000168491C016057F8A0
:1021D000260018B9B9F80400B042F2D2B9F80400E8
:1021E00057F8201000291CBF401CA9F80400BDE8C6
:1021F000F88F00002DE9F0479EB007468846154647
:102200001E46DDF898904FF0000A01F03FFD0AAA43
:102210000EA912A803F050F90897CDF824801548AC
:102220000690154804900AA804A90EAB06AACDE9A9
:102230000109009108A912A802F07AF88246DDE9A6
:102240000C0108443060002409E00A98005D28551C
:102250000B98005D0C9921446854601CC4B230682E
:1022600000EBD071B4EB610FEFDB50461EB0BDE860
:10227000F08700001C010020540000202DE9F041EF
:1022800006460C461546611C304601F08FFF074696
:102290006DB194F8400000EBD0714910A0EB410102
:1022A00011B10320207004E00220207001E004201E
:1022B00020703846BDE8F0812DE9F04104460D4616
:1022C00016461F4601F0E2FC3B46324629462046B0
:1022D00004F0ABF880464046BDE8F08107B5ADF5A7
:1022E0003C7D0020B990B890B790B6901121A2A87B
:1022F000FDF7C6FFF8480068A1904FF48C7154A810
:10230000FDF7BEFFBC980078B590BE99B5980870EF
:10231000BC984078B490BE99B4984870B59840285D
:102320007ED008DC70B101287BD002287AD020282A
:1023300041F08C819CE1802875D0D02874D0D128C0
:10234000F6D1FDE3B49800286FD19FEDE41B9FED1B
:10235000E50B07F095FB8DED440BBC984079C11758
:10236000539000EB117001115398A0EB01104190B4
:10237000FEF7B7F8439142909DED440B53EC102BC0
:102380009DED420B51EC100BFEF739F89FEDD71B7A
:102390009FEDD40B4991489007F072FB8DED400BF7
:1023A000BC984079C117529000EB117000113D901C
:1023B000FEF797F8CDE93E019DED400B53EC102B55
:1023C0009DED3E0B51EC100BFEF719F89FEDC91B6C
:1023D0009FEDC40B4591449007F052FB8DED3C0BF3
:1023E000BC980079C117519000EB11700111519800
:1023F000A0EB01103990FEF774F8CDE93A019DED9C
:102400003C0B53EC102B9DED3A0B51EC100BFDF7F0
:10241000F6FF9FEDBA1B9FEDB30B4191409005E095
:102420003DE108E10DE1FCE3FCE300E107F028FBFE
:102430008DED380BBC980079C117509000EB1170EE
:1024400000113590FEF74DF8CDE936019DED380BC2
:1024500053EC102B9DED360B51EC100BFDF7CFFF1D
:102460009FEDA81B9FED9F0BCDE93C0107F008FBFA
:102470008DED340BBC98C078C1174F9000EB1170F4
:1024800001114F98A0EB01103190FEF72AF8CDE929
:1024900032019DED340B53EC102B9DED320B51ECC2
:1024A000100BFDF7ACFF9FED991B9FED8E0BCDE957
:1024B000380107F0E5FA8DED300BBC98C078C117F4
:1024C0004E9000EB117000112D90FEF70AF8CDE947
:1024D0002E019DED300B53EC102B9DED2E0B51EC8E
:1024E000100BFDF78CFF9FED8B1B9FED7E0BCDE955
:1024F000340107F0C5FA8DED2C0BBC988078C1171C
:102500004D9000EB117001114D98A0EB0110299036
:10251000FDF7E7FFCDE92A019DED2C0B53EC102BC5
:102520009DED2A0B51EC100BFDF769FF9FED7B1B16
:102530009FED6C0BCDE9300107F0A2FA8DED2C0B6D
:10254000BC988078C1174C9000EB11700011299055
:10255000FDF7C7FFCDE92A019DED2C0B53EC102BA5
:102560009DED2A0B51EC100BFDF749FFCDE92E0133
:102570009DED300B53EC102B9DED2E0B51EC100B01
:10258000FDF796FECDE932019DED340B53EC102B97
:102590009DED320B51EC100BFDF78AFECDE93601B3
:1025A0009DED380B53EC102B9DED360B51EC100BC1
:1025B000FDF77EFECDE93A019DED3C0B53EC102B6F
:1025C0009DED3A0B51EC100BFDF772FECDE93E018B
:1025D0009DED400B53EC102B9DED3E0B51EC100B81
:1025E000FDF766FE439142909DED440B53EC102B9A
:1025F0009DED420B51EC100BFDF75AFE47914690B2
:102600009DED480B53EC102B9DED460B51EC100B40
:10261000FDF74EFE4B914A909DED4A0B51EC100B8D
:10262000FDF7A9FF559154900420B890DCE30120F8
:102630000DF53F7D00BDB498012801DD0120F7E7CD
:10264000F4E7B49890B90020BB9009E0BB98801CD7
:10265000BC990A5C56A8BB994254BB98401CBB90DD
:10266000BB982228F2DB2220B890DFE70120DFE7C9
:10267000B49890B90020BB9009E0BB98801CBC992D
:102680000A5C67A8BB994254BB98401CBB90BB989E
:102690004028F2DB4020B890C8E70120C8E7B49892
:1026A00000287DD1BC9880787790B898401CB8906D
:1026B000B898801CBC99085CB690B898C01C539020
:1026C0004FF480620146B69BBC9805F08FFCB79032
:1026D000B79838BB0120ABE73CBD060800000000FE
:1026E000000000000000000000003040000000007A
:1026F0000000F03F0000000000000040000000006B
:102700000000084000000000000010400000000031
:10271000000014400000000000001840000000000D
:1027200000001C40FFE7B69806F0FCF9401CB89981
:102730000844B890B799B8980844B8901FED191B91
:102740001FED180B07F09CF98DED3C0BB898093084
:10275000BC99085CC117539000EB1170011153989C
:10276000A0EB01103990FDF7BCFECDE93A019DEDDB
:102770003C0B53EC102B9DED3A0B51EC100BFDF77D
:102780003EFE1FED261B1FED290B4191409007F0E7
:1027900077F98DED380BB8980930BC99085C00E0EA
:1027A00023E3C117529000EB117000113590FDF733
:1027B00098FECDE936019DED380B53EC102B9DEDC5
:1027C000360B51EC100BFDF71AFE1FED361B1FEDFB
:1027D0003B0BCDE93C0107F053F98DED340BB89874
:1027E0000830BC99085CC117519000EB11700111C1
:1027F0005198A0EB01103190FDF773FECDE9320145
:102800009DED340B53EC102B9DED320B51EC100B66
:10281000FDF7F5FD1FED471B1FED4E0BCDE9380110
:1028200007F02EF98DED300BB8980830BC99085C94
:10283000C117509000EB117000112D90FDF751FE63
:10284000CDE92E019DED300B53EC102B9DED2E0BA1
:1028500051EC100BFDF7D3FD1FED561B1FED5F0B69
:10286000CDE9340107F00CF98DED2C0BB898C01DA3
:10287000BC99085CC1174F9000EB117001114F9883
:10288000A0EB01102990FDF72CFECDE92A019DED6A
:102890002C0B53EC102B9DED2A0B51EC100BFDF77C
:1028A000AEFD1FED661B1FED710BCDE9300107F08A
:1028B000E7F88DED280BB898C01DBC99085CC117CE
:1028C0004E9000EB117000112590FDF70AFECDE946
:1028D00026019DED280B53EC102B9DED260B51ECA2
:1028E000100BFDF78CFD1FED751B1FED820BCDE965
:1028F0002C0107F0C5F88DED240BB898801DBC990C
:10290000085CC1174D9000EB117001114D98A0EBC0
:1029100001102190FDF7E5FDCDE922019DED240B8D
:1029200053EC102B9DED220B51EC100BFDF767FDC6
:102930001FED861B1FED950BCDE9280107F0A0F8D0
:102940008DED200BB898801DBC99085CC1174C9088
:1029500000EB117000111D90FDF7C3FDCDE91E01C4
:102960009DED200B53EC102B9DED1E0B51EC100B2D
:10297000FDF745FD9FEDFE1B1FEDA60BCDE92401E4
:1029800007F07EF88DED1C0BB898401DBC99085CD3
:10299000C1174B9000EB117001114B98A0EB011087
:1029A0001990FDF79EFDCDE91A019DED1C0B53EC2E
:1029B000102B9DED1A0B51EC100BFDF720FD9FED38
:1029C000EE1B1FEDB80BCDE9200107F059F88DED96
:1029D000180BB898401DBC99085CC1174A9000EBD1
:1029E000117000111590FDF77CFDCDE916019DEDEC
:1029F000180B53EC102B9DED160B51EC100BFDF743
:102A0000FEFC9FEDDF1B1FEDC90BCDE91C0107F09C
:102A100037F88DED140BB898001DBC99085CC117F0
:102A2000499000EB117001114998A0EB0110119031
:102A3000FDF757FDCDE912019DED140B53EC102B62
:102A40009DED120B51EC100BFDF7D9FC9FEDCE1B49
:102A50001FEDDC0BCDE9180107F012F88DED100B1E
:102A6000B898001DBC99085CC117489000EB117024
:102A700000110D90FDF735FDCDE90E019DED100B18
:102A800053EC102B9DED0E0B51EC100BFDF7B7FC2A
:102A90009FEDBF1B1FEDED0BCDE9140106F0F0FF1C
:102AA0008DED0C0BB898C01CBC99085CC117479001
:102AB00000EB117001114798A0EB01100990FDF790
:102AC00010FDCDE90A019DED0C0B53EC102B9DED93
:102AD0000A0B51EC100BFDF792FC9FEDAF1B9FED25
:102AE000B00BCDE9100106F0CBFF8DED080BB898C7
:102AF000C01CBC99085CC117469000EB1170001116
:102B00000590FDF7EEFCCDE906019DED080B53ECB9
:102B1000102B9DED060B51EC100BFDF770FC9FED9B
:102B2000A21B9FED9F0BCDE90C0106F0A9FF8DEDD7
:102B3000040BB898801CBC99085CC117459000E054
:102B400014E200EB117001114598A0EB0110019007
:102B5000FDF7C7FCCDE902019DED040B53EC102BF2
:102B60009DED020B51EC100BFDF749FC9FED901B06
:102B70009FED8B0BCDE9080106F082FF8DED040B74
:102B8000B898801CBC99085CC117449000EB117088
:102B900000110190FDF7A5FCCDE902019DED040BAC
:102BA00053EC102B9DED020B51EC100BFDF727FCA5
:102BB000CDE906019DED080B53EC102B9DED060BA6
:102BC00051EC100BFDF774FBCDE90A019DED0C0BE8
:102BD00053EC102B9DED0A0B51EC100BFDF768FB2D
:102BE000CDE90E019DED100B53EC102B9DED0E0B5E
:102BF00051EC100BFDF75CFBCDE912019DED140BC0
:102C000053EC102B9DED120B51EC100BFDF750FB0C
:102C1000CDE916019DED180B53EC102B9DED160B15
:102C200001E0E4E0E8E051EC100BFDF741FBCDE9F9
:102C30001A019DED1C0B53EC102B9DED1A0B51EC62
:102C4000100BFDF735FBCDE91E019DED200B53EC7C
:102C5000102B9DED1E0B51EC100BFDF729FBCDE960
:102C600022019DED240B53EC102B9DED220B51EC1A
:102C7000100BFDF71DFBCDE926019DED280B53EC54
:102C8000102B9DED260B51EC100BFDF711FBCDE940
:102C90002A019DED2C0B53EC102B9DED2A0B51ECD2
:102CA000100BFDF705FBCDE92E019DED300B53EC2C
:102CB000102B9DED2E0B51EC100BFDF7F9FACDE921
:102CC00032019DED340B53EC102B9DED320B51EC8A
:102CD000100BFDF7EDFACDE936019DED380B53EC05
:102CE000102B9DED360B51EC100BFDF7E1FACDE901
:102CF0003A019DED3C0B53EC102B9DED3A0B51EC42
:102D0000100BFDF7D5FACDE93E019DED400B53ECDC
:102D1000102B9DED3E0B51EC100BFDF7C9FA4391C2
:102D200042909DED420B51EC100BFDF724FC799184
:102D30007890B8980830B890B898801CBC99085C16
:102D40007A90B898401CB8900020BB900BE0B899DE
:102D5000BB980844801CBC990A5C7BA8BB99425470
:102D6000BB98401CBB90BB982128F0DBB89823E0AF
:102D70000000000000002040000000000000224091
:102D80000000000000002440000000000000264079
:102D900000000000000028400000000000002A4061
:102DA00000000000000030400000000000002C4047
:102DB0000000000000002E402130B8900020BB90A1
:102DC0000CE0B899BB980844801CBC990A5C0DF2D1
:102DD0002E20BB994254BB98401CBB90BB98142832
:102DE000EFDBB8981430B890FDE3012020E4B498EC
:102DF00008B101201CE4F6E3B498012801DD0120AC
:102E000016E40020BB900AE0BB98801CBC990A5CC9
:102E10000DF25620BB994254BB98401CBB90BB9806
:102E20000328F1DBB498012803D1BC98407997902E
:102E300001E000209790B898001DB890B898801CC9
:102E4000BC99085CB690B898C01C5390FC2201460F
:102E5000B69BBC9805F0CAF8B790B79808B901209E
:102E600005E4B69805F05EFE401CB8990844B89099
:102E7000B799B8980844B890B898801CBC99085C79
:102E8000B690B898C01C5390FC220146B69BBC98E3
:102E900005F0ACF8B790B79808B901201BE4B698D4
:102EA00005F040FE401CB8990844B890B799B8980E
:102EB0000844B890B898801CBC99085CB690B89843
:102EC000C01C5390FC220146B69BBC9805F08EF8BE
:102ED000B790B79808B9012088E7B69805F022FEA8
:102EE000401CB8990844B890B799B8980844B8906D
:102EF000B898801CBC99085CB690B898C01C5390D8
:102F0000FC220146B69BBC9805F070F8B790B798C4
:102F100008B901206AE7B69805F004FE401CB8998C
:102F20000844B890B799B8980844B890B898801CED
:102F3000BC99085CB690B898C01C53904FF480328E
:102F40000146B69BBC9805F051F8B790B79808B900
:102F500001204BE7B69805F0E5FD401CB899084400
:102F6000B890B799B8980844B89074E3B498012819
:102F700001DD01203AE7B898801CBC99085CB69046
:102F8000B898C01C53904FF480320146B69BBC9851
:102F900005F02CF8B790B79808B9012026E7B69845
:102FA00005F0C0FD401CB8990844B890B799B8988E
:102FB0000844B890B49801287ED19FEDFE1B1FED08
:102FC000880B06F05DFD8DED3C0BB8980930BC997F
:102FD000085CC117539000EB117001115398A0EBDE
:102FE00001103990FDF77DFACDE93A019DED3C0BDA
:102FF00053EC102B9DED3A0B51EC100BFDF7FFF944
:103000009FEDEE1B1FED9A0B4191409006F038FDAD
:103010008DED380BB8980930BC99085CC1175290F7
:1030200000EB117000113590FDF75BFACDE9360128
:103030009DED380B53EC102B9DED360B51EC100B26
:10304000FDF7DDF99FEDDF1B1FEDAB0BCDE93C017B
:1030500006F016FD8DED340BB8980830BC99085C6D
:10306000C117519000EB117001115198A0EB0110A4
:103070003190FDF736FACDE932019DED340B53EC7A
:10308000102B9DED320B51EC100BFDF7B8F99FEDB5
:10309000CF1B1FEDBD0BCDE9380106F0F1FC8DED26
:1030A000300BB8980830BC99085CC117509000EB01
:1030B000117000112D9000E0C4E2FDF712FACDE985
:1030C0002E019DED300B53EC102B9DED2E0B51EC92
:1030D000100BFDF794F99FEDBF1B1FEDCF0BCDE952
:1030E000340106F0CDFC8DED2C0BB898C01DBC99B9
:1030F000085CC1174F9000EB117001114F98A0EBC5
:1031000001102990FDF7EDF9CDE92A019DED2C0B79
:1031100053EC102B9DED2A0B51EC100BFDF76FF9C2
:103120009FEDAE1B1FEDE20BCDE9300106F0A8FCD0
:103130008DED280BB898C01DBC99085CC1174E9046
:1031400000EB117000112590FDF7CBF9CDE92601B8
:103150009DED280B53EC102B9DED260B51EC100B25
:10316000FDF74DF99FED9F1B1FEDF30BCDE92C01F2
:1031700006F086FC8DED240BB898801DBC99085C88
:10318000C1174D9000EB117001114D98A0EB01108B
:103190002190FDF7A6F9CDE922019DED240B53EC1A
:1031A000102B9DED220B51EC100BFDF728F99FED34
:1031B0008F1B9FED900BCDE9280106F061FC8DED92
:1031C000200BB898801DBC99085CC1174C9000EB8F
:1031D000117000111D90FDF784F9CDE91E019DEDE0
:1031E000200B53EC102B9DED1E0B51EC100BFDF73B
:1031F00006F99FED821B9FED7F0BCDE9240106F0C0
:103200003FFC8DED1C0BB898401DBC99085CC117A4
:103210004B9000EB117001114B98A0EB011019902D
:10322000FDF75FF9CDE91A019DED1C0B53EC102B56
:103230009DED1A0B51EC100BFDF7E1F89FED711BA2
:103240009FED6C0BCDE9200106F01AFC8DED180BFB
:10325000B898401DBC99085CC1174A9000EB1170EA
:1032600000111590FDF73DF9CDE916019DED180B04
:1032700053EC102B9DED160B51EC100BFDF7BFF826
:103280009FED621B9FED5B0BCDE91C0106F0F8FB87
:103290008DED140BB898001DBC99085CC1174990BE
:1032A00000EB117001114998A0EB01101190FDF78E
:1032B00018F9CDE912019DED140B53EC102B9DED87
:1032C000120B51EC100BFDF79AF89FED521B9FED7E
:1032D000490BCDE9180106F0D3FB8DED100BB89822
:1032E000001DBC99085CC117489000EB11700011DB
:1032F0000D90FDF7F6F8CDE90E019DED100B53ECA6
:10330000102B9DED0E0B51EC100BFDF778F89FED97
:10331000431B9FED380BCDE9140106F0B1FB8DED99
:103320000C0BB898C01CBC99085CC117479000EB07
:10333000117001114798A0EB01100990FDF7D1F829
:10334000CDE90A019DED0C0B53EC102B9DED0A0B02
:1033500051EC100BFDF753F89FED321B9FED250B41
:10336000CDE9100106F08CFB8DED080BB898C01C60
:10337000BC99085CC117469000EB117000110590D4
:10338000FDF7AFF8CDE906019DED080B53EC102BCE
:103390009DED060B51EC100BFDF731F89FED231B53
:1033A0009FED140BCDE90C0106F06AFB8DED040BCB
:1033B000B8983FE00000000000000000000000009E
:1033C0000000F03F0000000000000040000000008E
:1033D0000000084000000000000010400000000055
:1033E0000000144000000000000018400000000031
:1033F00000001C4000000000000030400000000001
:1034000000002040000000000000224000000000FA
:1034100000002440000000000000264000000000E2
:10342000000028400000000000002A4000000000CA
:1034300000002C40801CBC99085CC117459000EB33
:10344000117001114598A0EB01100190FDF749F8AA
:10345000CDE902019DED040B53EC102B9DED020B09
:1034600051EC100BFCF7CBFF9FEDE31B1FED1F0B87
:10347000CDE9080106F004FB8DED040BB898801C23
:10348000BC99085CC117449000EB117000110190C9
:10349000FDF727F8CDE902019DED040B53EC102B4D
:1034A0009DED020B51EC100BFCF7A9FFCDE90601D5
:1034B0009DED080B53EC102B9DED060B51EC100B02
:1034C000FCF7F6FECDE90A019DED0C0B53EC102B39
:1034D0009DED0A0B51EC100BFCF7EAFECDE90E0155
:1034E0009DED100B53EC102B9DED0E0B51EC100BC2
:1034F000FCF7DEFECDE912019DED140B53EC102B11
:103500009DED120B51EC100BFCF7D2FECDE916012C
:103510009DED180B53EC102B9DED160B51EC100B81
:10352000FCF7C6FECDE91A019DED1C0B53EC102BE8
:103530009DED1A0B51EC100BFCF7BAFECDE91E0104
:103540009DED200B53EC102B9DED1E0B51EC100B41
:10355000FCF7AEFECDE922019DED240B53EC102BC0
:103560009DED220B51EC100BFCF7A2FECDE92601DC
:103570009DED280B53EC102B9DED260B51EC100B01
:10358000FCF796FECDE92A019DED2C0B53EC102B98
:103590009DED2A0B51EC100BFCF78AFECDE92E01B4
:1035A0009DED300B53EC102B9DED2E0B51EC100BC1
:1035B000FCF77EFECDE932019DED340B53EC102B70
:1035C0009DED320B51EC100BFCF772FECDE936018C
:1035D0009DED380B53EC102B9DED360B51EC100B81
:1035E000FCF766FE00E036E0CDE93A019DED3C0BCC
:1035F00053EC102B9DED3A0B51EC100BFCF758FEE1
:10360000CDE93E019DED400B53EC102B9DED3E0BA3
:1036100051EC100BFCF74CFE439142909DED420B98
:1036200051EC100BFCF782FF99919890B8980830F4
:10363000B89000221146989B99989A1A884104DA0A
:1036400001200DE400219891999104E06CA006F00E
:10365000C9F9012004E400BFB898801CBC99085C3B
:10366000B390BE99B398C870B898C01CBC99085C58
:10367000B290BE99B2980871B898001DB990002018
:10368000BB901DE00020BA9010E0BA99B9980144AF
:103690002222BB9802FB0011BC98415CBA98C0F191
:1036A0001F00A9AA1154BA98401CBA90BA982028B1
:1036B000EBDB2021A9A8FCF7E3FDBB98401CBB90E5
:1036C000B299BB988842DDDB2222B299B99802FBFD
:1036D0000100B990B999BC98405CB190BE99B1987D
:1036E0004871B998401CB9900020BB9072E000204E
:1036F000BA9014E0BA99B99801443C22BB9802FBF5
:103700000011BC98425CBE983830BB9900EB411167
:10371000BA98C0F11F000A54BA98401CBA90BA98DF
:103720002028E7DBBE983830BB9900EB411053905E
:1037300001F0F2FFBE9988700020BA9012E0B998AB
:1037400000F120013C22BB9802FB0011BA98014411
:10375000BC98415CBA98C0F10700A7AA1154BA9866
:10376000401CBA90BA980828E9DBA7A800F03EFAF6
:10377000BE9A7832BB9B02EBC30203C20020BA9010
:1037800010E0B99828303C22BB9902FB0101BA989D
:103790000144BC98415CBA98401CA1AA1154BA9843
:1037A000401CBA90BA981428EBDB9AAA1521A1A85C
:1037B00000F096F8BB9800EBC00101EB0011BE9839
:1037C000801D084419229AA95390FCF732FDBB983A
:1037D000401CBB90B199BB98884288DB3C22B999C8
:1037E000B19802FB0010B990BD99B998884201D1F7
:1037F000002026E7012024E70000000000002E4002
:1038000054797065204572726F7221212100000089
:1038100070B5044600252046422C40D00EDCA0F1B5
:103820003000122849D2DFE800F0222426282A2C72
:103830002E303234484848484848483762282DD00E
:103840000CDC452834D004DC43282BD0442834D168
:103850002BE046282FD061282FD11CE0632820D0F0
:10386000642821D0652822D0662826D122E00025B0
:1038700027E0012525E0022523E0032521E004259A
:103880001FE005251DE006251BE0072519E008259A
:1038900017E0092515E000BF0A2512E000BF0B253F
:1038A0000FE000BF0C250CE000BF0D2509E000BFB4
:1038B0000E2506E000BF0F2503E003A006F092F8F6
:1038C00000BF00BF284670BD4E6F74206120617339
:1038D00063696920636861722121210D0A0000007B
:1038E000F0B591B006460F461546202000906B4675
:1038F00009AA39463046FEF7DFFC6B4601AA2021B3
:1039000009A8FEF7D9FC002403E0305D2855601CAF
:10391000C4B2152CF9DB002406E001A8015D04F116
:1039200015002954601CC4B2042CF6DB11B0F0BDA4
:1039300070B485880468012D02BF2368002B012321
:1039400012D0AB006FF0030606EB85054FF07F4CFD
:1039500054F8054014EA0C0F06D1BCF1000F1CBF4F
:103960004FEA1C2C5B1EF5D1DC174FF0000C03EB6B
:1039700094740CE00568CCF1000603EB860655F85C
:103980002C500E442DBA46F8045C0CF1010CBCEB33
:10399000A40FEFDB13F0030F1FD0006803F0030543
:1039A00003F0030450F82C0013F0010C03D00D4475
:1039B00005F8010C000AA4EB0C0CBCF1000F0CDDA7
:1039C00001EB0C04ACF1020C04F8010C000A04F841
:1039D000020C000ABCF1000FF2DC002A18BF1360D1
:1039E00070BC7047002812BF002941F2B8407047F0
:1039F000F8B50F46818800241646012905D10268D2
:103A00001268002A08BF012312D08B006FF0030553
:103A1000026805EB81014FF07F4C555815EA0C0FF9
:103A200006D1BCF1000F1CBF4FEA1C2C5B1EF5D168
:103A30000093B342C4BF41F2B540F8BDB919C91AE9
:103A40006A46FFF775FF0098311A00290EDD781ECF
:103A500011F0010F18BF00F8014F0099711A4910B9
:103A600004D0447000F8024F491EFAD10020F8BD7E
:103A700000BFFEE770B490F907C091F907209445A4
:103A80003FD183888C880122A34204BF0068096863
:103A900003D9BCF1000F27D022E003D2BCF1000F04
:103AA0002BD027E09D1AA61A50F8255051F8266011
:103AB000B54204D1934224BF521C9342F2D2551E08
:103AC000AB4202BF002070BC70479B1AA21A50F88C
:103AD000230051F82210884209D9BCF1000F03D00D
:103AE00070BC6FF00100704770BC02207047BCF1E1
:103AF000000F02D070BC0120704770BC4FF0FF3047
:103B00007047BCF1010F05D1002A02BF6FF002001F
:103B100070BC7047032070BC7047000070B483888D
:103B20008A7900249A4209D202F1010C9C4537BFE0
:103B300041F2B54041F2B54470BC7047C279CA71D8
:103B400000228B80002B09DDD0F800C00D685CF8E6
:103B500022C045F822C0521C9342F5DC8879801AB5
:103B6000431C002B26DD01234FF0000C33EA00003C
:103B7000634605D0D1F800C04CF822304FF0010C5C
:103B80008D79AD1A6D1C854214DD00BF0D6802EB06
:103B90000C060CF1010C45F826300D6802EB0C0602
:103BA000801C45F826308D790CF1010CAD1A6D1C86
:103BB0008542EBDC204670BC704782880368012A8E
:103BC00001BF186800280120704750016FF0030CF6
:103BD0000CEB82024FF000419A5831EA02031EBFFB
:103BE00000294908401EF8D1704700002DE9F04136
:103BF0002DED0C8B84B0074600210D460E460020AB
:103C000000900190029003906A460821384602F025
:103C100038FC00242CE02046FCF763FC41EC1D0B33
:103C2000B0EE4D1AF0EE6D1A9FED160B05F028FF61
:103C3000B0EE40BAF0EE60BAC4F10F011DF8010019
:103C4000FFF7E6FD8046FCF74CFC53EC1B2BFCF722
:103C5000D6FB41EC190B28463146FCF753FC53ECDC
:103C6000192BFCF725FBFCF761FC05460E46641C8E
:103C7000102CD0DB2846314604B0BDEC0C8BBDE8DF
:103C8000F081000000000000000030400121080326
:103C900003F064BF2DE9F04F85B09846DDF838B0E9
:103CA00092468946070018BFB9F1000F09D0B8F154
:103CB000000F18BFBBF1000F03D01AF0070F05D09B
:103CC00007E005B040F6E840BDE8F08FBAF1080F14
:103CD00004DA05B040F6E540BDE8F08F387910F021
:103CE000020F1EBF40F6E64005B0BDE8F08F00258C
:103CF00002AE6C465FF0000005EB800159F8011040
:103D000009BA46F8201044F82010401C0228F3DBC2
:103D100007F11C01684607F025FA002007EB800137
:103D200054F820204B695A4044F8202056F82020AF
:103D30004A6154F8201005EB800209BA401C48F88B
:103D400002100228EADB08355545D3DBCBF800A08A
:103D500005B00020BDE8F08F002812BF002A40F611
:103D6000E8407047017941F00201017100201060C4
:103D700070470523AFF300802DE9F0470C465FEA5A
:103D8000000C18BF002C04D003F006002AB902284A
:103D900003D040F6E840BDE8F087CCF80C209CF852
:103DA0000410022821F006018CF804104FD0DCF832
:103DB0001010481E102824BF40F6E740BDE8F087E9
:103DC0000025CCF81450CCF818500029D8BF00209A
:103DD00007DD11F0010004D0167845EA0665CCF83D
:103DE00014508142C8BF182131DDC51700EB95750D
:103DF00025F0030606EB0C07861B07F1140512F8E5
:103E0000008076427F6901EBC60608FA06F63E435B
:103E10002E60461CF71706EB977525F0030702EB9B
:103E2000000907EB0C08F61B08F1140599F801903E
:103E30007642D8F8148001EBC60609FA06F648EA7D
:103E400006062E60DCF81050801C8542CDDC9CF804
:103E5000040010F0010F08D103F001010CF11C0265
:103E60002046CCF8084007F06BFA0020BDE8F08748
:103E70002DE9F04FADF5017D91460D4680461E4679
:103E8000B0225A4950A8FCF7D4F90024202E1EBFB6
:103E90006FF003000DF5017DBDE8F08F05F1190706
:103EA00017F00F0F04D007F00F00C0F110042744E3
:103EB00028BA049030BA05902A4641466E4606A8B4
:103EC000FCF7B7F9802170194FF0000801766CB14A
:103ED000183014F0010F18BF00F8018F610805D0E9
:103EE00080F8018000F8028F491EF9D1CDF80080DA
:103EF000CDF80480CDF80C800024CDF808800DF5B5
:103F0000A07B6E461CADCDF87080CDF87480CDF8E6
:103F10007880CDF87C80B8EB171F38BF0DF5F87AA4
:103F200017D200205FEA041101EB800255F820301F
:103F3000B25812BA5A404AF82020401C0428F3D341
:103F40005A4629467CA8FCF741FE641CB4EB171FB7
:103F5000E7D39DF803000024401C8DF803000DF505
:103F6000A07B6E460DF1700A20ADCDF88080CDF8B3
:103F70008480CDF88880CDF88C80B8EB171F38BFCF
:103F80000DF5F87817D200205FEA041101EB8002EA
:103F900055F82030B25812BA5A4048F82020401C38
:103FA0000428F3D35A4629467CA8FCF70FFE641C6C
:103FB000B4EB171FE7D324A91CA8FDF72BF824AAFC
:103FC00049460AF11000FCF701FE99E80F0020AC09
:103FD0000FC424AA09F110010AF11000FCF7F6FD44
:103FE0000DF5017D0020BDE8F08F000000D406082B
:103FF0002DE9F04188B016468846044600256F46F4
:10400000E068401CE0600AD1A068401CA06006D1B6
:104010006068401C606002D12068401C206007EB93
:10402000051142462046FCF7D1FD6D1C022DE7DB51
:10403000009831684840206101987168484060618B
:104040000298B1684840A0610398F1684840E06177
:104050000498316948402060059871694840606063
:104060000698B1694840A0600798F1694840E0604F
:1040700008B0BDE8F08170472DE9F041C4B00646B4
:104080000C461746984600250020039002902021F8
:104090003CA8FCF7F5F8202134A8FCF7F1F8202122
:1040A0002CA8FCF7EDF8202104A8FCF7E9F8402142
:1040B0001CA8FCF7E5F840210CA8FCF7E1F83CA9A6
:1040C0000120FDF7D9FE18B9012044B0BDE8F08108
:1040D00034A90220FDF7D0FE08B90120F5E720221F
:1040E0003CA91CA8FCF7A5F8202234A924A8FCF7B9
:1040F000A0F803A80CAB3A46402100901CA803F09E
:1041000091FA08B10220E0E70398402801D002208C
:10411000DBE740210CA805F0A7FB08B90320D4E792
:104120001E220CA93CA8FCF784F820220DF14E01B8
:1041300034A8FCF77EF840211CA8FCF7A1F81E2249
:104140003CA91CA8FCF775F82CAA34A90F20FDF790
:1041500055FE08B90420B8E720222CA90DF18E00E5
:10416000FCF767F83E221CA9002005F05FFB05461E
:10417000E8B28DF8AE00280A8DF8AF0002AB04AAB1
:1041800040211CA8FEF798F803A8434604AA21463C
:104190000090304604F09EFF08B1052095E7039893
:1041A000844201D0052090E700208EE7F0B5A3B04F
:1041B00007460E460024002004900390029032210E
:1041C0005248FCF75DF832215148FCF759F8FFF7E7
:1041D0005DFD4E4814904E48159018A803F00AFD56
:1041E000044614B1002023B0F0BD4A4805900020D9
:1041F000ADF81A004FF46060ADF81800464807901B
:104200004648099046480B9046480D9046480F9006
:1042100046481190202008900A900E900C90109023
:10422000129005A907A800F029FA044604B167E036
:1042300005AA07A902A800F0FDFA044604B15AE055
:1042400007A9029800F00CFC044604B153E005AA4B
:1042500007A904A800F0EEFA044604B14BE005AA51
:1042600007A903A800F04EFB044604B13EE020225B
:104270003946039800F034FC044604B131E005A847
:1042800007AB009002A807C800F074FB044604B115
:1042900027E005AA07A9049800F034FC044616ABF1
:1042A0000021149A049800F08BF9044617AB012101
:1042B000159A049800F084F904438CB9002503E0B2
:1042C0001498405D70556D1C202DF9DB002505E02C
:1042D0001598415D05F1200031546D1C202DF7DB50
:1042E00000BF05A903A800F053F900BF05A904A861
:1042F00000F02DF900BF05A907A800F0EAF800BFFB
:1043000018A803F0ADFC20466DE700009C010020DA
:10431000CE0100206402002018BA060838BA060848
:1043200058BA060878BA060898BA0608B8BA06084D
:104330002DE9F04FA1B0044688461646DDE92B79F9
:104340000025AB460020069005900490D8F800A008
:10435000D8F804B0331D59465046326802F065F86B
:1043600005461DB1284621B0BDE8F08F16A803F020
:1043700041FC05460DB10020F5E73B4807900020C1
:10438000ADF822004FF46060ADF82000206809907D
:10439000A0680B9060680D90E0680F902069119004
:1043A00060691390A0690A90E0690C90606A1090AF
:1043B000206A0E90A06A1290E06A149007A909A8DA
:1043C00000F05CF9054605B148E007AA09A905A86F
:1043D00000F098FA054605B13BE0202249460598D1
:1043E00000F07EFB054605B12EE007AA09A904A846
:1043F00000F026FD054605B126E009A802900598C3
:10440000019016A8039007A8009001ABD6E900011F
:10441000049A00F053FD054605B110E007F10803CA
:1044200000213A68049800F0B9FC054607F10C0336
:1044300001217A68049800F0B1FC054300BF07A988
:1044400004A800F08FFC00BF07A905A800F0A0F8A1
:1044500000BF07A906A800F07AF800BF16A803F06D
:10446000FFFB28467FE700006402002030B504000F
:104470000D464FF0000018BF002D27D021680029FD
:104480001CBFA168002921D0296800291FBF6A68C4
:10449000002AAA68002A19D0227B2A73227B12F0F4
:1044A000020F18BF30BD2068FFF738FB002818BF87
:1044B00030BD69686068FFF731FB002818BF30BD68
:1044C000A968A068BDE83040FFF728BB41F254401E
:1044D00030BD002812BF002941F25440704730B56A
:1044E0000446006B0D4600281FBF01680029816843
:1044F000002904BF41F2534030BD294604F050FF6B
:10450000206B2946083004F04BFF206BC16819B1BD
:104510000C30294604F044FF206B416819B1001D9E
:10452000294604F03DFF206B016919B1103029467E
:1045300004F036FF206B416919B11430294604F0AC
:104540002FFFE8881838E8800020206330BD00285D
:1045500012BF002941F25440704730B5044600684C
:104560000D46002804BF41F2534030BD083004F02E
:1045700017FF20682946001D04F012FF2946206815
:1045800004F00EFFE8881038E8800020206030BD7D
:10459000002812BF002941F25440704730B505464B
:1045A00000680C46002804BF41F2564030BD04F0BC
:1045B000F7FEE088001FE0800020286030BD00008A
:1045C00038B5144600221D460092002818BF002C62
:1045D00020D0002D1CBF0268002A1BD04368002B8E
:1045E0001CBF8368002B15D0927992002A60A1B17C
:1045F000012917D0022918BF41F2544017D01E4A92
:10460000012191609168116800914B1CA4F1010196
:1046100019D111E041F2544038BD00682146FFF73E
:10462000E1F9ECE740682146FFF7DCF9E7E780684D
:104630002146FFF7D7F9E2E7009B1360126800926A
:10464000002A08BF38BD227802F05F0222702B6872
:1046500082F055025B1E04EB63031A702A6894F81B
:1046600000C0535C4CF0AA0C83EA0C035354296835
:104670004910296038BD000000300240F0B50E46F8
:10468000040014BF002E41F2544500F0CB80206995
:1046900000281CBF6069002839DD442837DC216808
:1046A000002934D06168002931DB44292FDCA1695D
:1046B00000291CBFE169002929DD442927DC316874
:1046C00029B3C01C20F00300B28800EB4000602337
:1046D00003EB4000904288BF40F2ED357ED8F08871
:1046E00008442063F0881830F080206B002804BF55
:1046F00040F2ED30F0BD61690830C91C89083246CE
:1047000004F02DFE05004FF0000703D086E041F2D3
:10471000534587E060693246C01C8108206B04F075
:104720001EFE050075D1206B0268D4E9000105F07A
:10473000B3F8206B8268D4E9040105F0ADF8E069B4
:104740003246C01C8108206B0C3004F008FE0500C6
:104750005BD1206BC268D4E9060105F09DF8206B9F
:104760004760206B0761206B4761A06898B1E068E3
:10477000002810DD44280EDAC01C8108206B324668
:10478000001D04F0ECFD05003AD1206B4268D4E92D
:10479000020105F081F8206A00281CBF606A002829
:1047A00040DD44283EDAA16A00291CBFE16A0029E5
:1047B00038DD442936DAC01C8108206B32461030BF
:1047C00004F0CDFD050016D1206B0269D4E9080183
:1047D00005F062F8E06AC01C810800E022E0206B6E
:1047E0003246143004F0BBFD0500206B1CD01030A5
:1047F000314604F0D5FD206B3146001D04F0D0FD9C
:10480000206B31460C3004F0CBFD3146206B04F0B8
:10481000C7FD206B3146083004F0C2FDF08818381F
:10482000F08027632846F0BD4269D4E90A0105F00B
:1048300033F8F7E7002919BF002A002841F2544055
:10484000704770B50446086B15460E4600281FBF1A
:104850002A68002A8168002904BF41F2534070BDD4
:10486000E8888979342301EB410103EB8101AB88AE
:104870000144994284BF40F2ED3070BD1044206085
:10488000E8882A461030E880306B8068817920689B
:1048900004F065FDD8B9306B2A46806881792068BC
:1048A000001D04F05CFD70B9306B2A468068817988
:1048B0002068083004F053FD002820680FD0001D48
:1048C000294604F06DFD2946206804F069FDE8885A
:1048D0001038E8800020206040F2ED3070BD0068A4
:1048E000002101F001FE20680021406801F0FCFD7C
:1048F00020680121806801F0F7FD2168012008731C
:10490000002070BD002919BF002A002841F2544040
:10491000704730B50446086B00281FBF1368002B92
:10492000D0F80CC0BCF1000F04BF41F2534030BDC1
:10493000D0889CF806C0102505EB8C0C9588844423
:10494000AC450CD81818206009D0D088001DD08044
:10495000086BC0688179206804F001FD10B140F255
:10496000ED3030BD20680021006801F0BDFD002061
:1049700030BD00002DE9F04186B014460C9A1F4668
:104980000E465FEA000818BF002E29D0002C1CBF7D
:10499000002F002A24D0386B002802BF41F2534078
:1049A00006B0BDE8F0818368002B19BF00680028BD
:1049B00041F2574006B008BFBDE8F08130680028DA
:1049C00019BF0068002841F2564006B008BFBDE894
:1049D000F08102A9184602F00DF8050005D011E09B
:1049E00006B041F25440BDE8F08102A800903B4679
:1049F00022464146306802F037FE050006D002A884
:104A000002F0F1FC06B02846BDE8F081214602AA7A
:104A1000084602F0E9FF054602A802F0E4FC002D7A
:104A2000F0D1207B10F0020F18BF41F25845E9D1B8
:104A30000A48012121738160816801684A1C02D102
:104A40000160006828B1D4E900012160A168C4E9CF
:104A5000011006B00020BDE8F081000000300240E7
:104A600078B504004FF000000E46009014BF002EF1
:104A700041F254452FD0306B00281FBF0269002A35
:104A80004069002808BF41F2534524D010462168F0
:104A9000FFF744F805001ED1306B61684069FFF7ED
:104AA0003DF8050017D10121A06801F01DFD0B485C
:104AB00001218160826802680092521C04D1009A30
:104AC00002600068009028B1D4E900022260A26868
:104AD000C4E901202173284678BD0000003002405F
:104AE00094460B46002812BF002B41F254407047F9
:104AF0000268002A04BF41F25640704761461846DA
:104B000004F0CABE2DE9F0418AB04FF00008CDF89C
:104B10000C8015460E460700CDF80480CDF80880BD
:104B2000CDF820801ABF002E002D41F2544400F031
:104B30001281306B002808BF41F2534400F00B8112
:104B4000816800291CBFC268002A20D04268002A60
:104B50001CBF006800281AD0387B022808BF41F229
:104B6000554400F0F880286860B18879EA8800EB45
:104B7000400102EB81014C2202EBC0000844A988ED
:104B8000884208D90AB040F2ED30BDE8F08141F228
:104B9000574400F0E0B82A46314603A8FFF74AFE22
:104BA000040040F0D880306B81683868FEF762FFFF
:104BB000002806DA306B81687868FEF75BFF002812
:104BC00003DB41F2554400F0C2B838460399FFF7C1
:104BD0004DFC306B2A4604A9806801F00BFF0400ED
:104BE00040F0B580306B2A468068817902A804F0D5
:104BF000B6FB040076D1306B2A468068817901A823
:104C000004F0ADFB04006FF003076CD1039804AB14
:104C100005990068024602F0FFFB04007CD103986E
:104C200004AB05994068024602F0F6FB040073D11C
:104C3000039804AB82680068014602F0EDFB0400B3
:104C40006AD1306B02990068FEF768FFDDE9012048
:104C500004AB059902F0E0FB04005DD10095DDE9AD
:104C6000030301998068024601F022FD040053D13C
:104C7000039804AB816800680A4602F0CDFB04008B
:104C80004AD1306B02994068FEF748FFDDE9012008
:104C900004AB059902F0C0FB04003DD10095DDE9AD
:104CA000030301998068024601F002FD040033D13C
:104CB000039804ABD0E90020014602F0ADFB0400EC
:104CC0002AD12748012141F2554481608168016859
:104CD0000891491C08D0039800680146FEF7CAFEF7
:104CE00078B917E030E023E0089901600068089087
:104CF0000028039806D000680146FEF7BBFE00B905
:104D000008E009E081680068FEF7B4FE002808BFEB
:104D1000002401E041F25244019848B18079E988C9
:104D2000404207EB800008440838E880CDF8048052
:104D3000029848B18079E988404207EB8000084436
:104D40000838E880CDF8088004A802F04CFB29461A
:104D500003A8FFF7FCFB0AB02046BDE8F081000085
:104D600000300240002812BF002941F25440704731
:104D700030B5044600680D46002804BF41F2544097
:104D800030BD04F00DFB20682946001D04F008FB2F
:104D9000E8880838E8800020206030BD38B5144627
:104DA00000221D460092002818BF002C1AD0002DAA
:104DB0001FBF0268002A4368002B13D0927992002B
:104DC0002A6091B1012918BF41F2544012D01B4A08
:104DD000012191609168116800914B1CA4F10101BF
:104DE00014D10CE041F2544038BD00682146FEF772
:104DF000F9FDECE740682146FEF7F4FDE7E7009B8C
:104E0000136012680092002A08BF38BD207800F0B5
:104E10005F0020702A6880F05500521E04EB620289
:104E2000107028682378425C43F0AA035A40425429
:104E300028684010286041F2544038BD00300240DC
:104E4000002919BF002A002841F25440704770B56C
:104E50000546086B14460E4600281FBF216800292E
:104E6000C268002A04BF41F2534070BDE0889279C5
:104E7000202303EBC202A38802449A421BD80844B1
:104E80002860E08822460830E080306BC068817975
:104E9000286804F064FA70B9306B2246C0688179E2
:104EA0002868001D04F05BFA002808BF70BD214689
:104EB000286804F075FA40F2ED3070BD2DE9FF4F1F
:104EC00097B0002001900990039002900490069002
:104ED00017981D4600281CBF199800283DD0002DAA
:104EE0001CBF2498002838D0686800281FBF296894
:104EF0000029A968002934D02499096800291CBF19
:104F0000006B00282DD0C16800291CBF0269002A4F
:104F10002BD08268002A1CBF0068002825D0249866
:104F20009279C08802EB420200EBC202887902EB60
:104F3000001101F19C02249989888A4288BF40F2BD
:104F4000ED3B00F2F880411C03A8249A04F007FA14
:104F50005FEA000B40F0EF800BE041F2544B00F0B1
:104F6000EAB841F2534B00F0E6B841F2574B00F07B
:104F7000E2B86868249A006BC068817902A804F0DE
:104F8000EEF95FEA000B6FF003077DD1696806A8B0
:104F9000249AFFF74FFC5FEA000B76D1696804A8FA
:104FA000249AFFF747FC5FEA000B6DD1696804980B
:104FB000FFF756FD68680CA9249A006B806801F021
:104FC00019FD5FEA000B7DD16868039C006BC06827
:104FD0000B90D5F80880FEF7F0FD06461F30C1178C
:104FE00000EBD160C0F3471AC0F34F194FEA8900B4
:104FF000139006F01F00C0F120004FF0FF3121FA9E
:1050000000F01190A17940468A4502D941F2B54B92
:1050100076E00021E171A4F8049006F01F0B2268ED
:10502000139B02F041FE0246A088401EBBF1000F18
:1050300007D02168119B51F820C00CEA030341F806
:105040002030A088012808D9216807EB8003C958BF
:10505000002904BF401EA080F3D00AB193464FE060
:1050600020460B99FEF706FD0028CBDA03988188CD
:10507000012903D1016809680029A5D00CA9009174
:105080006B68069A049901E041E044E002F0ECFA12
:105090005FEA000B34D106990CAA084602F0A4FC82
:1050A0005FEA000B2CD106980068C079012812D164
:1050B00069680698249B096B0068C9680246FCF77A
:1050C00015FF00E01FE05FEA000B19D106980068A9
:1050D000C0790128ECD06868006BC1680698006848
:1050E000FEF7C8FC00280698006828DB69680246BD
:1050F000249B096BC96804F09FF95FEA000BEAD0B2
:105100000CA802F070F904A82499FFF720FA06A869
:105110002499FFF71CFA03992498002918BF002846
:1051200009D08979C288494207EB810111440839C5
:10513000C180002003901BB05846BDE8F08F8188E5
:10514000012904D10068006800283FF43DAF0CA895
:1051500002F049F904A82499FFF7F9F9686803995E
:10516000249B006BC268084601F009FB5FEA000B54
:10517000CDD1069802990068FEF7D0FC06A82499C4
:10518000FFF7E5F96868249A006BC068817901A887
:1051900004F0E5F85FEA000B40F07B816868249A30
:1051A000006BC068817909A804F0D9F85FEA000BA8
:1051B00040F05F8168680CA9249A006BC06801F018
:1051C00019FC5FEA000B40F04481029A0CAB1046D8
:1051D0000D9902F021F9044628680D990CAB00687E
:1051E000019A02F019F9039A04430CAB10460D9989
:1051F00002F012F950EA040B40F02881DDE90101C8
:105200000CAB099A02F008F95FEA000B40F01E812E
:105210006868006BC368B3F804C0BCF1010F05D126
:1052200018680068002808BF01210ED01A6807EB33
:105230008C044FEA4C1112594FF0004030EA02043E
:105240001EBF00284008491EF8D11898B1EBC00FC6
:105250007DDABCF1010F05D118680068002808BF8D
:1052600001220ED0196807EB8C034FEA4C12C95883
:105270004FF0004030EA01031EBF00284008521ED4
:10528000F8D1D01DC11700EB5170C0101890014625
:10529000019A179804F000FB69680198096BCB68C4
:1052A000B3F804C0BCF1010F05D1196809680029E1
:1052B00008BF01210FD04FEA4C111B6807EB8C0C83
:1052C0004FF0004253F80C3032EA030C1EBF002AA4
:1052D0005208491EF8D1189AD1EBC20160D020299A
:1052E0005ED28288012A45D000234FF0010C3CEAAF
:1052F00002020DD00368C1F12006D3F800C05C683B
:105300002CFA01FCB4404CEA040CC3F800C00123A1
:10531000B0F804C0ACF1010C944584BF4FF0040C0C
:10532000C1F1200426D906680CEB830956F82380C6
:1053300056F8099028FA01F809FA04F948EA090828
:1053400046F8238006685B1C56F8238000E022E0C4
:105350000CEB830928FA01F856F8099009FA04F9C8
:1053600048EA090846F8238086885B1C921C761E52
:105370009642D8D88288036807EB820253F802C0AD
:105380003CFA01FC43F802C0818809D101291CBF05
:10539000491E818004E00146019A179804F07CFAC6
:1053A000019A0CAB10460D9902F036F85FEA000B3B
:1053B0004CD16A680198249E126B04460999D2F870
:1053C0000C8033462246FCF791FD5FEA000B04D0C7
:1053D000A179A088491C884238D141462046FEF771
:1053E00049FB002805DB224633464146104604F0BF
:1053F00023F8A088A179884202D941F2B54B25E073
:10540000039A0CAB1046019902F006F803990CAA16
:10541000084601F0C2FA02990CAA084601F0BDFA4A
:1054200003988188012904D10068006800283FF4AE
:10543000CBAD199801680298FEF770FB04461998E5
:1054400041680398FEF76AFB40EA040B0CA801F0E0
:10545000CAFF02992498002918BF002809D0897929
:10546000C288494207EB810111440839C1800020FC
:10547000029001992498002918BF002809D0897941
:10548000C288494207EB810111440839C1800020DC
:10549000019009992498002918BF00283FF43BAED9
:1054A0008979C288494207EB810111440839C180DA
:1054B000002009902FE600000D4B03600D4B836028
:1054C0000D4B43600D4BC3600D4B03610D4B4361AE
:1054D00020238361C361436203628362C3620A4B18
:1054E0000B600A4B4B600A4B13600A4B53607047CA
:1054F00018BA060838BA060858BA060878BA06086C
:1055000098BA0608B8BA06089C010020CE0100200F
:105510000002002032020020074A126822F4407282
:10552000054B1A601A4612681A601A46126842F051
:1055300001021A6001707047103C024010B5094921
:10554000096821F44071074C21602146096841F443
:10555000407121602146096841F00101216002602B
:10556000436010BD103C0240084A126822F44072A9
:10557000064B1A601A46126842F480721A601A4684
:10558000126842F001021A6001807047103C02402C
:10559000084A126822F44072064B1A601A461268D2
:1055A00042F400721A601A46126842F001021A6050
:1055B00001607047103C02402348006800F0100072
:1055C00040B12248C06940F010002049C861102055
:1055D0001D4908601C48006800F0200040B11B48CD
:1055E000C06940F008001949C861202016490860C8
:1055F0001548006800F0400040B11448C06940F010
:1056000004001249C86140200F4908600E48006834
:1056100000F0800040B10D48C06940F002000B4925
:10562000C8618020084908600748006800F002004F
:1056300040B10648C06940F020000449C86102201A
:1056400001490860704700000C3C024090160020A1
:1056500070B50446002500201449C86100F08EFA98
:10566000054609E0601C38B124B100F087FA401B00
:10567000A04201D9032070BD0D48006800F48030BD
:105680000028EFD10A48006800F0010010B10120A5
:10569000074908600648006800F0F20018B1FFF7FB
:1056A0008BFF0120E7E70020E5E7000090160020CF
:1056B0000C3C024030B48288012A05D10168096897
:1056C000002904BF30BC70470021012A12D0521EAD
:1056D0004FF0040C03680CEB810553F821405D5D2D
:1056E000640844EAC57443F82140491C521EF1D1B4
:1056F0008188491E026852F821305B0842F8213047
:10570000818801299CBF30BC7047002B04BF491E13
:10571000818030BC7047000030B591B00546202232
:1057200015A109A8FAF785FD20221BA101A8FAF707
:1057300080FD002406E0285D09A9095D884200D0AB
:1057400002E0641C202CF6DB00BF202C02D10020DC
:1057500011B030BD002406E0285D01A9095D884232
:1057600000D002E0641C202CF6DB00BF202C01D10D
:105770000120EDE7FF20EBE7602C79718B16E44206
:10578000DE58778E148D0B1084E3B2DFFD5DE6B733
:10579000B16CEE7969282DE7C56F33FC6ECFCD0C67
:1057A000225C4AB356FEE59390AF8560BE0E930F20
:1057B000AEBE74A6DAFF7C9BF0B589B004460D46F8
:1057C0001646601FC7B201A93846FCF755FB3346A1
:1057D0002A46202101A8FEF74FFC09B0F0BD10B504
:1057E00004460CB9012010BD607920B90020207159
:1057F000204600F007F8022060710120607100204F
:10580000F1E7000008B50A4A016891420FD100BFD4
:10581000002100910749096841F48051054A11604F
:105820001146096801F48051009100BF00BF08BD16
:10583000003002403038024010B54FF0FF300E49C2
:10584000086000200860401E091D086000200860F4
:10585000401E09491039086000200860401E091DDB
:10586000086000200860401E091D086000200860D4
:1058700000F0C4F9002010BD2038024031B500F01E
:105880007DF90546009C601C00B1641C00BF00F05F
:1058900075F9401BA042FAD338BD000003480068E8
:1058A00040F000400149086000207047103C024071
:1058B0002DE9F04106460F4614461D464FF00108FB
:1058C00000BF1F48007E012802D10220BDE8F08100
:1058D00001201B49087600BF4CF25030FFF7B8FE9C
:1058E0008046B8F1000F23D126B9E1B23846FFF760
:1058F00013FE12E0012E04D1A1B23846FFF734FEA8
:105900000BE0022E04D121463846FFF741FE04E0A9
:1059100022462B463846FFF711FE4CF25030FFF777
:1059200097FE80460748006820F00100054908609E
:1059300000BF00200249087600BF4046C6E70000CD
:1059400090160020103C024000200949096801F02F
:10595000004159B10749064A0C3A116006491160E5
:105960000349096801F0004101B1012070470000BE
:10597000103C024023016745AB89EFCDF8B50246E4
:105980000B460025002400200021DCE0012606FA59
:1059900001F51E6806EA0504AC4273D15E68022E6A
:1059A00002D05E68122E13D1CF0802F1200656F8FD
:1059B00027004E07F70E0F26BE40B0434F07FF0EDD
:1059C0001E69BE403043CF0802F1200646F827008A
:1059D00010684F000326BE40B0431E7906F0030650
:1059E0004F00BE40304310605E68012E08D05E68F4
:1059F000022E05D05E68112E02D05E68122E13D1E1
:105A000090684F000326BE40B0434F00DE68BE40A2
:105A100030439060506801268E40B0431E79C6F333
:105A200000168E4030435060D0684F000326BE40C1
:105A3000B0434F009E68BE403043D0605E6806F0C1
:105A40008056B6F1805F7DD100BF00260096404EA3
:105A5000366846F480463E4F3E603E46366806F461
:105A60008046009600BF00BF3A4E8F0856F82700C8
:105A70008E07370F0F26BE40B043374EB24202D1D9
:105A8000002624E05EE0354EB24201D101261EE040
:105A9000334EB24201D1022619E0324EB24201D158
:105AA000032614E0304EB24201D104260FE02F4EFF
:105AB000B24201D105260AE02D4EB24201D106269E
:105AC00005E02C4EB24201D1072600E008268F07E0
:105AD0003F0FBE4030431F4E8F0846F82700264E2A
