:020000040806EC
:1000000080320020AD010608596106086F4C0608D1
:100010009D4E0608B9270608697D06080000000005
:10002000000000000000000000000000CD7806087D
:10003000E32B06080000000005630608197C06088B
:10004000C7010608C7010608C7010608C701060858
:10005000C7010608C7010608C7010608C701060848
:10006000C7010608C7010608C7010608C701060838
:10007000C7010608C7010608C7010608C701060828
:10008000C7010608C7010608C7010608C701060818
:10009000C7010608C7010608C7010608C701060808
:1000A000C7010608C7010608C7010608C7010608F8
:1000B000C7010608C7010608C7010608C7010608E8
:1000C000C7010608C7010608C7010608C7010608D8
:1000D000C7010608C7010608C7010608C7010608C8
:1000E000C7010608C7010608C7010608C7010608B8
:1000F000C7010608C7010608C7010608C7010608A8
:10010000C7010608C7010608C7010608C701060897
:10011000C7010608C7010608C7010608C701060887
:10012000C7010608C7010608C7010608C701060877
:10013000C7010608C7010608C7010608C701060867
:10014000C7010608C7010608C7010608C701060857
:10015000C7010608C7010608C7010608C701060847
:10016000C7010608C7010608C7010608C701060837
:10017000C7010608C7010608C701060800000000FD
:10018000C7010608C7010608DFF80CD000F02AFBFB
:1001900000480047F19106088032002030BF72B657
:1001A000704762B6704780F30888704706488047FA
:1001B00006480047FEE7FEE7FEE7FEE7FEE7FEE74C
:1001C000FEE7FEE7FEE7FEE7057D06088901060873
:1001D0002DE9F05F0546002092469B46884606467C
:1001E000814640241BE0284641464746224600F00F
:1001F000DCF953465A46C01A914110D311461846AD
:10020000224600F0C3F92D1A67EB01084F4622463B
:100210000120002100F0BAF917EB00094E41201E21
:10022000A4F10104DFDC484631462A464346BDE8D6
:10023000F09F10B5431A934209D28318881803E03F
:1002400010F8011D03F8011D521EF9D210BD40EA3D
:1002500001039B0703D009E008C9121F08C0042A44
:10026000FAD203E011F8013B00F8013B521EF9D22B
:1002700010BDD2B201E000F8012B491EFBD270473D
:100280000022F6E710B513460A4604461946FFF762
:10029000F0FF204610BD2DE9FE4F804681EA0300A5
:1002A000C00F0C46009021F0004123F00045B8EB50
:1002B0000200A94105D24046214690461C460B4605
:1002C000024623F00040104347D0270DC7F30A0031
:1002D000C3F30A510290401A019040286BDAC3F32D
:1002E000130040F4801B0098924620B10023D2EB0B
:1002F000030A63EB0B0B01985946C0F140025046CC
:1003000000F044F906460D4650465946019A00F061
:100310005CF910EB08006141002487EA115284EA7D
:10032000E7731A4340D0009A62B3019A012A4FEA58
:10033000075215DC001B61EB02014FF0004202EA9C
:100340000752CDE90042001C41F5801132462B4690
:1003500000F05CF903B0BDE8F08F40462146F9E7B4
:10036000001B61EB0201001C41F5801300185B418A
:100370002018A2F5001747EB030140EAD570B61923
:100380006D4111E06D084FEA360645EAC0754FEA47
:100390000752001B61EB0201001C41F58011490866
:1003A0004FEA30000019514132462B4603B0BDE8F8
:1003B000F04F00F01CB90098012240000023D0EB60
:1003C000020263EBE073009821464FEAE074B8EB59
:1003D000000061EB0401E9E783F000435BE781F093
:1003E000004158E72DE9FE4F81EA030404F0004480
:1003F00021F0004100944FF0000B23F0004350EA3D
:1004000001045ED052EA03045BD0C3F30A54C1F383
:100410000A552C44A4F2F3340194A0FB0254C1F316
:10042000130141F48011C3F3130343F4801301FB60
:10043000024400FB034E840A970A44EA815447EAC7
:100440008357A4FB076802958D0A05FB07854FEAD1
:10045000932C04FB0C542705029D4FEA065847EAEB
:100460001637B5EB08056EEB070C870E920E47EAC0
:10047000811742EA8312A7FB0201B6EB0B0164EB82
:1004800000042B0D43EA0C335E1844EB1C50DA4693
:100490005146E7FB0201C5F313044FEA0B3343EA6D
:1004A00014534FEA0432019C43EA0603A4F10C04FE
:1004B0000294009CCDE900B400F0A8F803B0BDE8B8
:1004C000F08F00200146F9E70EB5C10F80EAE07019
:1004D0000844CA07002140F233438DE80E000A4663
:1004E0000B4600F093F803B000BD3EB5CA17CB0F22
:1004F000002450405140C0186141DA0740F23343B4
:100500000094CDE901232246234600F07FF803B092
:1005100030BD70B5C1F30A5201F000450024C1F3AB
:10052000130140F2FF3341F480119A4202DA0020B5
:10053000014670BD40F233439A42A2F2334203DCDB
:10054000524200F032F801E000F020F82C43F0D0E5
:100550000023D0EB030063EB010170BDC1F30A522D
:10056000C1F3130140F2FF3341F480119A4202DAE1
:1005700000200146704740F233439A42A2F23342D0
:1005800002DC524200F011B8AFF30080202A04DBF5
:10059000203A00FA02F1002070479140C2F1200396
:1005A00020FA03F3194390407047202A04DB203AD5
:1005B00021FA02F00021704721FA02F3D040C2F183
:1005C00020029140084319467047202A06DBCB17CA
:1005D000203A41FA02F043EAE07306E041FA02F3FE
:1005E000D040C2F12002914008431946704710B52F
:1005F000141E73F1000408DA401C41F10001921846
:100600005B411A4301D120F0010010BD2DE9F04DEE
:1006100092469B4611B1B1FA81F202E0B0FA80F243
:1006200020329046FFF7B2FF04460F4640EA0A0028
:1006300041EA0B0153465A46084313D0114653EA88
:10064000010019D0C8F140025046FFF7AEFF054641
:100650000E46504659464246FFF798FF084305D0DC
:10066000012004E020463946BDE8F08D0020054316
:1006700046EAE0762C4337430A986305E40AA0EB88
:1006800008000022FD0A44EA47540A3002D500203F
:100690000146E9E7010510196941DDE9084500193E
:1006A0006941BDE8F04DA2E72DE9F04D81EA030470
:1006B00004F0004B21F0004514464FF0000A23F0EF
:1006C000004150EA050220D054EA01021DD0C5F3D2
:1006D0000A570246C5F31303C1F31300C1F30A56C8
:1006E00040F4801543F48013A7EB0608101BD64690
:1006F00008F2FD3873EB050002D308F1010801E0B0
:1007000092185B41B8F1000F03DA00200146BDE802
:10071000F08D00204FF48011064684460EE0171B32
:1007200073EB050705D3121B63EB050306434CEA85
:10073000010C49084FEA300092185B4150EA01076A
:10074000EDD152EA030012D082EA040083EA0501E7
:10075000084305D0101BAB4106D20122002306E05E
:1007600000224FF0004302E06FF0010253101AEB39
:1007700006004CEB085110EB0A0041EB0B01BDE801
:10078000F04DFFF734BF70B521F0004303430CD0A8
:10079000C1F30A550024D5EB040564EB0403D61716
:1007A000AD1AB34102DB0020014670BD201841EBB9
:1007B000025170BD30B5041E71F1000404DB4FF02E
:1007C0000044404264EB0101141E73F1000405DB98
:1007D0001C464FF00043524263EB0403994208BFAA
:1007E000904230BD064C074D06E0E06840F0010342
:1007F00094E8070098471034AC42F6D3FFF7C8FCE2
:1008000070B0060890B006082DE9F04D00231A4696
:100810001B1A8A4103DB00200146BDE8F08DC1F3BD
:100820000A52C1F3130141F480154FF0000BD107B8
:1008300002D100186D41521E0027044640F2FF11FC
:10084000384601EB620A3E468046024600204FF4DD
:100850008011FFF7AAFEC2197141BB1846EB0100D7
:10086000B4EB030C75EB000C04D3E41A65EB000544
:1008700017460E46241908F101006D4180463428C0
:10088000E3DDF91946EB0600091BA84103D24FF03E
:10089000FF32134601E0002213461BEB070046EB34
:1008A0000A51BDE8F04DFFF7A2BE00002DE9F80F98
:1008B000C04B4FF0010C4FF00508C3F808C0D3F847
:1008C00008C0D3F800C0CDF800C01CF1010C0AD05C
:1008D0004368D2F804C0006883EA0C07136880EA12
:1008E000030C63460FE0DDF800C0C3F800C01B68CE
:1008F000009353B14368D2F804C0006883EA0C0740
:10090000136843409C4664460FE00368D2F800C079
:10091000946883EA0C074368D2F804C083EA0C0C9D
:100920008368C0686340D4684440A3483D0E04F027
:10093000FF0950F82560CCF3074550F8299050F88E
:10094000255007F0FF0A86EA3525C3F3072650F83D
:100950002AA050F826600CF0FF0B4FEA364686EAD4
:10096000396675401669C3F307496E404FEA1C6546
:1009700050F8299050F82550CCF3072C85EA3925FA
:10098000C4F3072950F82CC050F8299050F82BB028
:100990004FEA394989EA3A6985EA0905D2F814909B
:1009A000C4F3074A85EA09054FEA136950F82AA0FB
:1009B00050F82990240E89EA3A29C7F3072AC7F389
:1009C0000747DBB250F82AA050F8244050F82770AF
:1009D00050F823304FEA3A4A4FEA3C4C8AEA3B6AE5
:1009E00084EA37248CEA336389EA0A0984EA030C2F
:1009F000D2F818A0D3692032A8F1010889EA0A09BF
:100A00008CEA0304B8F1000F69DD330EC5F3074C1F
:100A100050F8233050F82CC0E7B283EA3C23C9F3E6
:100A2000072C50F8277050F82CC006F0FF0A4FEA48
:100A30003C4C8CEA376C83EA0C03D2F800C050F8C7
:100A40002AA083EA0C072B0EC9F3074C50F8233079
:100A500050F82CC005F0FF0B83EA3C23C4F3072CAD
:100A6000C5F3072550F82CC050F825504FEA3C4CF0
:100A70008CEA3A6C83EA0C03D2F804C0C4F3074A48
:100A800083EA0C0C4FEA196350F82AA050F823307F
:100A9000240E83EA3A23C6F3072AC6F3074650F822
:100AA000244050F8266050F82AA084EA362409F041
:100AB000FF0650F82BB050F826604FEA3A4A4FEA4A
:100AC00035458AEA3B6A85EA366583EA0A036C4063
:100AD000D2F808A0D56883EA0A036C4026E73748B5
:100AE00050FA84F300EB166C1B789CF800C0C9F335
:100AF000072743EA0C63C5F3074CC75D10F80CC029
:100B00004FEA0C4C4CEA072C43EA0C03D2F800C025
:100B100083EA0C030B6050FA86F300EB156C1B782C
:100B20009CF800C0C4F3072743EA0C63C9F3074CE1
:100B3000C75D10F80CC04FEA0C4C4CEA072C43EA96
:100B40000C03D2F804C083EA0C034B6050FA85F31F
:100B500000EB196C1B789CF800C0C6F3072743EA2A
:100B60000C6CC4F30743C75DC35C1B0443EA072353
:100B70004CEA0303D2F808C083EA0C038B6050FAF6
:100B800089F300EB146C1B789CF800C0C5F30724B4
:100B900043EA0C63C6F3074CD26810F80CC0005D42
:100BA0004FEA0C4C4CEA002018435040C860BDE8A6
:100BB000F80F704700300240709A060848980608FF
:100BC0002DE9F003D0E900C38268C068184CC1E980
:100BD0000220E1E804C30A26A4F5007505EB1067BE
:100BE000C0F307483F7815F8088047EA0867C0F364
:100BF000072815F808804FEA084855FA80F999F84F
:100C0000009048EA092847EA080787EA0C0C54F8DC
:100C1000047B8CEA070C83EA0C035A405040C1E97C
:100C20000220E1E804C3761ED8D1BDE8F003704786
:100C3000489A06082DE9F8430024884600940646A1
:100C4000817998F8060091461D46814288BF084682
:100C5000411C1A46684606F05DFE00281CBF40F2A3
:100C6000ED30BDE8F8834146304601F0A7FDC01CD9
:100C70000127072862D2DFE800F03E2D25352D251B
:100C800004004046009901F0EDFD00993046CC711A
:100C900001F094FDB0F1FF3F04D000284BD00228B2
:100CA0004CD107E031464046009A06F0DBFE009842
:100CB000C77143E041463046009A06F0D3FE0098E3
:100CC000C4713BE041463046009A00F053F800986A
:100CD000C47133E041463046009A00F04BF800986A
:100CE000C7712BE041463046009A00F043F8009966
:100CF000F079C87122E03046009901F0B3FD009808
:100D00004146C47101F05AFDB0F1FF3F03D090B1EC
:100D1000022813D107E031464046009A06F0A2FEB1
:100D20000098C4710AE041463046009A06F09AFEE7
:100D30000098C77102E0009806F0C9FD00214846FE
:100D400003F0CAFF4946009801F08CFD0099002984
:100D500014BF002DBDE8F883EA8889796FF003039A
:100D6000494203EB810111440839E9800094BDE850
:100D7000F88300002DE9F84F0B46D0F800B0096861
:100D800000910025B0F804C09E88176891462C4653
:100D9000B44598BF664681794FF0010E4FF00008C8
:100DA0008C4532D8A1EB0C01002201F1010ABAF105
:100DB000000F2ADD3EEA01011CBF4BF82C80012206
:100DC00090F806C0B0F804A0ACEB0A0C0CF1010CD2
:100DD0008C451AD91FFA8AFAD0F800C09244521CE6
:100DE0004CF82A80B0F804A0D0F800C09244521CFD
:100DF0004CF82A8090F806C0B0F804A0891CACEB2F
:100E00000A0C0CF1010C8C45E4D8B3F804C09979B4
:100E10008C4534D8A1EB0C01002201F1010ABAF192
:100E2000000F2CDD3EEA010103D01A6842F82C8045
:100E3000012293F806C0B3F804A0ACEB0A0C0CF145
:100E4000010C8C451BD900BF1FFA8AFAD3F800C0E9
:100E50009244521C4CF82A80B3F804A0D3F800C086
:100E60009244521C4CF82A8093F806C0B3F804A0B0
:100E7000891CACEB0A0C0CF1010C8C45E4D8818880
:100E80009A889142494638BF184601F0EBFC002E83
:100E900048D00098ABF10403021F391F16F0010F70
:100EA0000DD053F804CF52F8040F1CEB000048EBB0
:100EB000080C40194CEB040541F8040F44465FEA66
:100EC000560C1BD0D3F804A050681AEB000048EB76
:100ED000080A45194D604AEB040053F808AF52F870
:100EE000085F1AEB050548EB0804281844EB0805D1
:100EF00041F8080F4446BCF1010CE3D195B157F815
:100F00002600401C47F8260007E0761C07EB860009
:100F10000168491C016057F8260018B9B9F80400A7
:100F2000B042F2D2B9F8040057F8201000291CBFD3
:100F3000401CA9F80400BDE8F88F00002DE9F04737
:100F40009EB00746884615461E46DDF898904FF03D
:100F5000000A01F03FFD0AAA0EA912A802F0C8FF7C
:100F60000897CDF8248015480690154804900AA8E3
:100F700004A90EAB06AACDE90109009108A912A89F
:100F800001F0F2FE8246DDE90C01084430600024E5
:100F900009E00A98005D28550B98005D0C992144E2
:100FA0006854601CC4B2306800EBD071B4EB610FC0
:100FB000EFDB50461EB0BDE8F0870000E8000020DF
:100FC000200000202DE9F04106460C461546611C24
:100FD000304601F007FE07466DB194F8400000EB83
:100FE000D0714910A0EB410111B10320207004E041
:100FF0000220207001E0042020703846BDE8F08116
:101000002DE9F04104460D4616461F4601F0E2FC6C
:101010003B4632462946204603F0FFFD80464046C7
:10102000BDE8F08107B5ADF53C7D0020B990B890E2
:10103000B790B6901121A2A8FFF722F9F8480068EE
:10104000A1904FF48C7154A8FFF71AF9BC9800785E
:10105000B590BE99B5980870BC984078B490BE9988
:10106000B4984870B59840287ED008DC70B101284B
:101070007BD002287AD0202841F08C819CE1802806
:1010800075D0D02874D0D128F6D1FDE3B4980028CB
:101090006FD19FEDE41B9FEDE50B06F035FF8DED65
:1010A000440BBC984079C117539000EB11700111AB
:1010B0005398A0EB01104190FFF706FA439142903C
:1010C0009DED440B53EC102B9DED420B51EC100B9E
:1010D000FFF788F99FEDD71B9FEDD40B49914890FE
:1010E00006F012FF8DED400BBC984079C11752906D
:1010F00000EB117000113D90FFF7E6F9CDE93E01DC
:101100009DED400B53EC102B9DED3E0B51EC100B65
:10111000FFF768F99FEDC91B9FEDC40B4591449003
:1011200006F0F2FE8DED3C0BBC980079C117519092
:1011300000EB117001115198A0EB01103990FFF7ED
:10114000C3F9CDE93A019DED3C0B53EC102B9DED1D
:101150003A0B51EC100BFFF745F99FEDBA1B9FEDD1
:10116000B30B4191409005E03DE108E10DE1FCE366
:10117000FCE300E106F0C8FE8DED380BBC98007969
:10118000C117509000EB117000113590FFF79CF9DA
:10119000CDE936019DED380B53EC102B9DED360B50
:1011A00051EC100BFFF71EF99FEDA81B9FED9F0B55
:1011B000CDE93C0106F0A8FE8DED340BBC98C0785B
:1011C000C1174F9000EB117001114F98A0EB011067
:1011D0003190FFF779F9CDE932019DED340B53ECF5
:1011E000102B9DED320B51EC100BFFF7FBF89FED30
:1011F000991B9FED8E0BCDE9380106F085FE8DED34
:10120000300BBC98C078C1174E9000EB11700011E4
:101210002D90FFF759F9CDE92E019DED300B53ECE0
:10122000102B9DED2E0B51EC100BFFF7DBF89FED13
:101230008B1B9FED7E0BCDE9340106F065FE8DED35
:101240002C0BBC988078C1174D9000EB11700111E8
:101250004D98A0EB01102990FFF736F9CDE92A014E
:101260009DED2C0B53EC102B9DED2A0B51EC100B2C
:10127000FFF7B8F89FED7B1B9FED6C0BCDE93001BC
:1012800006F042FE8DED2C0BBC988078C1174C9077
:1012900000EB117000112990FFF716F9CDE92A0132
:1012A0009DED2C0B53EC102B9DED2A0B51EC100BEC
:1012B000FFF798F8CDE92E019DED300B53EC102B84
:1012C0009DED2E0B51EC100BFEF7E5FFCDE9320141
:1012D0009DED340B53EC102B9DED320B51EC100BAC
:1012E000FEF7D9FFCDE936019DED380B53EC102BFD
:1012F0009DED360B51EC100BFEF7CDFFCDE93A0119
:101300009DED3C0B53EC102B9DED3A0B51EC100B6B
:10131000FEF7C1FFCDE93E019DED400B53EC102BD4
:101320009DED3E0B51EC100BFEF7B5FF4391429043
:101330009DED440B53EC102B9DED420B51EC100B2B
:10134000FEF7A9FF479146909DED480B53EC102BFB
:101350009DED460B51EC100BFEF79DFF4B914A9013
:101360009DED4A0B51EC100BFFF7F8F85591549096
:101370000420B890DCE301200DF53F7D00BDB4985A
:10138000012801DD0120F7E7F4E7B49890B90020C7
:10139000BB9009E0BB98801CBC990A5C56A8BB991D
:1013A0004254BB98401CBB90BB982228F2DB222001
:1013B000B890DFE70120DFE7B49890B90020BB9038
:1013C00009E0BB98801CBC990A5C67A8BB99425491
:1013D000BB98401CBB90BB984028F2DB4020B890E3
:1013E000C8E70120C8E7B49800287DD1BC98807870
:1013F0007790B898401CB890B898801CBC99085C4D
:10140000B690B898C01C53904FF480620146B69BCA
:10141000BC9805F08DF9B790B79838BB0120ABE7C1
:101420002C980608000000000000000000000000EA
:1014300000003040000000000000F03F000000000D
:101440000000004000000000000008400000000014
:1014500000001040000000000000144000000000E8
:10146000000018400000000000001C40FFE7B69894
:1014700005F0FAFE401CB8990844B890B799B8989E
:101480000844B8901FED191B1FED180B06F03CFD2A
:101490008DED3C0BB8980930BC99085CC11753908E
:1014A00000EB117001115398A0EB01103990FFF778
:1014B0000BF8CDE93A019DED3C0B53EC102B9DED63
:1014C0003A0B51EC100BFEF78DFF1FED261B1FEDA5
:1014D000290B4191409006F017FD8DED380BB8981F
:1014E0000930BC99085C00E023E3C117529000EB7F
:1014F000117000113590FEF7E7FFCDE936019DED43
:10150000380B53EC102B9DED360B51EC100BFEF706
:1015100069FF1FED361B1FED3B0BCDE93C0106F0CB
:10152000F3FC8DED340BB8980830BC99085CC117FA
:10153000519000EB117001115198A0EB0110319006
:10154000FEF7C2FFCDE932019DED340B53EC102BB9
:101550009DED320B51EC100BFEF744FF1FED471BC6
:101560001FED4E0BCDE9380106F0CEFC8DED300BB2
:10157000B8980830BC99085CC117509000EB117006
:1015800000112D90FEF7A0FFCDE92E019DED300B4F
:1015900053EC102B9DED2E0B51EC100BFEF722FFA0
:1015A0001FED561B1FED5F0BCDE9340106F0ACFCBF
:1015B0008DED2C0BB898C01DBC99085CC1174F90DD
:1015C00000EB117001114F98A0EB01102990FEF76C
:1015D0007BFFCDE92A019DED2C0B53EC102B9DEDEB
:1015E0002A0B51EC100BFEF7FDFE1FED661B1FEDE5
:1015F000710BCDE9300106F087FC8DED280BB89812
:10160000C01DBC99085CC1174E9000EB1170001111
:101610002590FEF759FFCDE926019DED280B53ECEF
:10162000102B9DED260B51EC100BFEF7DBFE1FED92
:10163000751B1FED820BCDE92C0106F065FC8DEDCD
:10164000240BB898801DBC99085CC1174D9000EB25
:10165000117001114D98A0EB01102190FEF734FF9D
:10166000CDE922019DED240B53EC102B9DED220BB7
:1016700051EC100BFEF7B6FE1FED861B1FED950B10
:10168000CDE9280106F040FC8DED200BB898801DB7
:10169000BC99085CC1174C9000EB117000111D90B3
:1016A000FEF712FFCDE91E019DED200B53EC102B30
:1016B0009DED1E0B51EC100BFEF794FE9FEDFE1BF3
:1016C0001FEDA60BCDE9240106F01EFC8DED1C0BD1
:1016D000B898401DBC99085CC1174B9000EB117085
:1016E00001114B98A0EB01101990FEF7EDFECDE92A
:1016F0001A019DED1C0B53EC102B9DED1A0B51ECB8
:10170000100BFEF76FFE9FEDEE1B1FEDB80BCDE942
:10171000200106F0F9FB8DED180BB898401DBC991F
:10172000085CC1174A9000EB117000111590FEF78C
:10173000CBFECDE916019DED180B53EC102B9DED62
:10174000160B51EC100BFEF74DFE9FEDDF1B1FED4E
:10175000C90BCDE91C0106F0D7FB8DED140BB89831
:10176000001DBC99085CC117499000EB1170011174
:101770004998A0EB01101190FEF7A6FECDE91201E9
:101780009DED140B53EC102B9DED120B51EC100B37
:10179000FEF728FE9FEDCE1B1FEDDC0BCDE91801F7
:1017A00006F0B2FB8DED100BB898001DBC99085CDB
:1017B000C117489000EB117000110D90FEF784FEE8
:1017C000CDE90E019DED100B53EC102B9DED0E0B92
:1017D00051EC100BFEF706FE9FEDBF1B1FEDED0B4E
:1017E000CDE9140106F090FB8DED0C0BB898C01CF0
:1017F000BC99085CC117479000EB11700111479824
:10180000A0EB01100990FEF75FFECDE90A019DED06
:101810000C0B53EC102B9DED0A0B51EC100BFEF74B
:10182000E1FD9FEDAF1B9FEDB00BCDE9100106F080
:101830006BFB8DED080BB898C01CBC99085CC117F8
:10184000469000EB117000110590FEF73DFECDE9CA
:1018500006019DED080B53EC102B9DED060B51EC92
:10186000100BFEF7BFFD9FEDA21B9FED9F0BCDE977
:101870000C0106F049FB8DED040BB898801CBC9957
:10188000085CC117459000E014E200EB11700111F3
:101890004598A0EB01100190FEF716FECDE902017C
:1018A0009DED040B53EC102B9DED020B51EC100B36
:1018B000FEF798FD9FED901B9FED8B0BCDE9080186
:1018C00006F022FB8DED040BB898801CBC99085CD7
:1018D000C117449000EB117000110190FEF7F4FD68
:1018E000CDE902019DED040B53EC102B9DED020B95
:1018F00051EC100BFEF776FDCDE906019DED080BCE
:1019000053EC102B9DED060B51EC100BFEF7C3FCB6
:10191000CDE90A019DED0C0B53EC102B9DED0A0B4C
:1019200051EC100BFEF7B7FCCDE90E019DED100B4D
:1019300053EC102B9DED0E0B51EC100BFEF7ABFC96
:10194000CDE912019DED140B53EC102B9DED120B04
:1019500051EC100BFEF79FFCCDE916019DED180B25
:1019600053EC102B9DED160B01E0E4E0E8E051ECA8
:10197000100BFEF790FCCDE91A019DED1C0B53EC0A
:10198000102B9DED1A0B51EC100BFEF784FCCDE9EA
:101990001E019DED200B53EC102B9DED1E0B51EC09
:1019A000100BFEF778FCCDE922019DED240B53ECE2
:1019B000102B9DED220B51EC100BFEF76CFCCDE9CA
:1019C00026019DED280B53EC102B9DED260B51ECC1
:1019D000100BFEF760FCCDE92A019DED2C0B53ECBA
:1019E000102B9DED2A0B51EC100BFEF754FCCDE9AA
:1019F0002E019DED300B53EC102B9DED2E0B51EC79
:101A0000100BFEF748FCCDE932019DED340B53EC91
:101A1000102B9DED320B51EC100BFEF73CFCCDE989
:101A200036019DED380B53EC102B9DED360B51EC30
:101A3000100BFEF730FCCDE93A019DED3C0B53EC69
:101A4000102B9DED3A0B51EC100BFEF724FCCDE969
:101A50003E019DED400B53EC102B9DED3E0B51ECE8
:101A6000100BFEF718FC439142909DED420B51EC98
:101A7000100BFEF773FD79917890B8980830B89004
:101A8000B898801CBC99085C7A90B898401CB890B3
:101A90000020BB900BE0B899BB980844801CBC990F
:101AA0000A5C7BA8BB994254BB98401CBB90BB9876
:101AB0002128F0DBB89823E000000000000020405F
:101AC0000000000000002240000000000000244050
:101AD0000000000000002640000000000000284038
:101AE0000000000000002A4000000000000030401C
:101AF0000000000000002C400000000000002E400C
:101B00002130B8900020BB900CE0B899BB980844F5
:101B1000801CBC990A5C0DF22E20BB994254BB98E4
:101B2000401CBB90BB981428EFDBB8981430B890D9
:101B3000FDE3012020E4B49808B101201CE4F6E3A1
:101B4000B498012801DD012016E40020BB900AE0D2
:101B5000BB98801CBC990A5C0DF25620BB9942547C
:101B6000BB98401CBB90BB980328F1DBB4980128BC
:101B700003D1BC984079979001E000209790B898E5
:101B8000001DB890B898801CBC99085CB690B898B5
:101B9000C01C5390FC220146B69BBC9804F0C8FDC3
:101BA000B790B79808B9012005E4B69805F05CFB3A
:101BB000401CB8990844B890B799B8980844B890B0
:101BC000B898801CBC99085CB690B898C01C53901B
:101BD000FC220146B69BBC9804F0AAFDB790B798CA
:101BE00008B901201BE4B69805F03EFB401CB899EB
:101BF0000844B890B799B8980844B890B898801C31
:101C0000BC99085CB690B898C01C5390FC22014661
:101C1000B69BBC9804F08CFDB790B79808B901202A
:101C200088E7B69805F020FB401CB8990844B890A6
:101C3000B799B8980844B890B898801CBC99085CCB
:101C4000B690B898C01C5390FC220146B69BBC9835
:101C500004F06EFDB790B79808B901206AE7B6980E
:101C600005F002FB401CB8990844B890B799B898A1
:101C70000844B890B898801CBC99085CB690B89895
:101C8000C01C53904FF480320146B69BBC9804F0C0
:101C90004FFDB790B79808B901204BE7B69805F00B
:101CA000E3FA401CB8990844B890B799B89808442A
:101CB000B89074E3B498012801DD01203AE7B898A0
:101CC000801CBC99085CB690B898C01C53904FF427
:101CD00080320146B69BBC9804F02AFDB790B798B5
:101CE00008B9012026E7B69805F0BEFA401CB8995D
:101CF0000844B890B799B8980844B890B4980128A7
:101D00007ED19FEDFE1B1FED880B06F0FDF88DEDDB
:101D10003C0BB8980930BC99085CC117539000EB94
:101D2000117001115398A0EB01103990FEF7CCFB14
:101D3000CDE93A019DED3C0B53EC102B9DED3A0B98
:101D400051EC100BFEF74EFB9FEDEE1B1FED9A0BB7
:101D50004191409006F0D8F88DED380BB8980930D5
:101D6000BC99085CC117529000EB117000113590BE
:101D7000FEF7AAFBCDE936019DED380B53EC102B95
:101D80009DED360B51EC100BFEF72CFB9FEDDF1B8E
:101D90001FEDAB0BCDE93C0106F0B6F88DED340B31
:101DA000B8980830BC99085CC117519000EB1170CD
:101DB00001115198A0EB01103190FEF785FBCDE9A0
:101DC00032019DED340B53EC102B9DED320B51EC99
:101DD000100BFEF707FB9FEDCF1B1FEDBD0BCDE9F1
:101DE000380106F091F88DED300BB8980830BC99A9
:101DF000085CC117509000EB117000112D9000E0AD
:101E0000C4E2FEF761FBCDE92E019DED300B53ECF2
:101E1000102B9DED2E0B51EC100BFEF7E3FA9FED0E
:101E2000BF1B1FEDCF0BCDE9340106F06DF88DED32
:101E30002C0BB898C01DBC99085CC1174F9000EBE3
:101E4000117001114F98A0EB01102990FEF73CFB97
:101E5000CDE92A019DED2C0B53EC102B9DED2A0BA7
:101E600051EC100BFEF7BEFA9FEDAE1B1FEDE20B1F
:101E7000CDE9300106F048F88DED280BB898C01D6B
:101E8000BC99085CC1174E9000EB117000112590B1
:101E9000FEF71AFBCDE926019DED280B53EC102B24
:101EA0009DED260B51EC100BFEF79CFA9FED9F1B4E
:101EB0001FEDF30BCDE92C0106F026F88DED240B78
:101EC000B898801DBC99085CC1174D9000EB11704B
:101ED00001114D98A0EB01102190FEF7F5FACDE924
:101EE00022019DED240B53EC102B9DED220B51ECA8
:101EF000100BFEF777FA9FED8F1B9FED900BCDE94E
:101F0000280106F001F88DED200BB898801DBC99D2
:101F1000085CC1174C9000EB117000111D90FEF78A
:101F2000D3FACDE91E019DED200B53EC102B9DED56
:101F30001E0B51EC100BFEF755FA9FED821B9FED27
:101F40007F0BCDE9240105F0DFFF8DED1C0BB89868
:101F5000401DBC99085CC1174B9000EB117001113A
:101F60004B98A0EB01101990FEF7AEFACDE91A01DB
:101F70009DED1C0B53EC102B9DED1A0B51EC100B2F
:101F8000FEF730FA9FED711B9FED6C0BCDE9200140
:101F900005F0BAFF8DED180BB898401DBC99085C90
:101FA000C1174A9000EB117000111590FEF78CFAE2
:101FB000CDE916019DED180B53EC102B9DED160B82
:101FC00051EC100BFEF70EFA9FED621B9FED5B0BC1
:101FD000CDE91C0105F098FF8DED140BB898001D9C
:101FE000BC99085CC117499000EB11700111499828
:101FF000A0EB01101190FEF767FACDE912019DEDFB
:10200000140B53EC102B9DED120B51EC100BFEF743
:10201000E9F99FED521B9FED490BCDE9180105F041
:1020200073FF8DED100BB898001DBC99085CC117AB
:10203000489000EB117000110D90FEF745FACDE9C4
:102040000E019DED100B53EC102B9DED0E0B51EC82
:10205000100BFEF7C7F99FED431B9FED380BCDE941
:10206000140105F051FF8DED0C0BB898C01CBC9904
:10207000085CC117479000EB117001114798A0EB65
:1020800001100990FEF720FACDE90A019DED0C0B35
:1020900053EC102B9DED0A0B51EC100BFEF7A2F93F
:1020A0009FED321B9FED250BCDE9100105F02CFFB4
:1020B0008DED080BB898C01CBC99085CC117469000
:1020C00000EB117000110590FEF7FEF9CDE9060155
:1020D0009DED080B53EC102B9DED060B51EC100BF6
:1020E000FEF780F99FED231B9FED140BCDE90C014A
:1020F00005F00AFF8DED040BB8983FE000000000EA
:1021000000000000000000000000F03F00000000A0
:102110000000004000000000000008400000000037
:10212000000010400000000000001440000000000B
:10213000000018400000000000001C4000000000EB
:1021400000003040000000000000204000000000BF
:1021500000002240000000000000244000000000B9
:1021600000002640000000000000284000000000A1
:1021700000002A400000000000002C40801CBC9998
:10218000085CC117459000EB117001114598A0EB58
:1021900001100190FEF798F9CDE902019DED040BC5
:1021A00053EC102B9DED020B51EC100BFEF71AF9BE
:1021B0009FEDE31B1FED1F0BCDE9080105F0A4FE09
:1021C0008DED040BB898801CBC99085CC117449035
:1021D00000EB117000110190FEF776F9CDE90201D4
:1021E0009DED040B53EC102B9DED020B51EC100BED
:1021F000FEF7F8F8CDE906019DED080B53EC102B26
:102200009DED060B51EC100BFEF745F8CDE90A01E8
:102210009DED0C0B53EC102B9DED0A0B51EC100BAC
:10222000FEF739F8CDE90E019DED100B53EC102BA4
:102230009DED0E0B51EC100BFEF72DF8CDE91201C0
:102240009DED140B53EC102B9DED120B51EC100B6C
:10225000FEF721F8CDE916019DED180B53EC102B7C
:102260009DED160B51EC100BFEF715F8CDE91A0198
:102270009DED1C0B53EC102B9DED1A0B51EC100B2C
:10228000FEF709F8CDE91E019DED200B53EC102B54
:102290009DED1E0B51EC100BFDF7FDFFCDE922016A
:1022A0009DED240B53EC102B9DED220B51EC100BEC
:1022B000FDF7F1FFCDE926019DED280B53EC102B26
:1022C0009DED260B51EC100BFDF7E5FFCDE92A0142
:1022D0009DED2C0B53EC102B9DED2A0B51EC100BAC
:1022E000FDF7D9FFCDE92E019DED300B53EC102BFE
:1022F0009DED2E0B51EC100BFDF7CDFFCDE932011A
:102300009DED340B53EC102B9DED320B51EC100B6B
:10231000FDF7C1FFCDE936019DED380B53EC102BD5
:102320009DED360B51EC100BFDF7B5FF00E036E0EC
:10233000CDE93A019DED3C0B53EC102B9DED3A0B92
:1023400051EC100BFDF7A7FFCDE93E019DED400BD1
:1023500053EC102B9DED3E0B51EC100BFDF79BFF4A
:10236000439142909DED420B51EC100BFEF7D1F8DA
:1023700099919890B8980830B89000221146989B8F
:1023800099989A1A884104DA01200DE40021989165
:10239000999104E06CA005F08FFD012004E400BFDA
:1023A000B898801CBC99085CB390BE99B398C8706B
:1023B000B898C01CBC99085CB290BE99B2980871DC
:1023C000B898001DB9900020BB901DE00020BA9085
:1023D00010E0BA99B99801442222BB9802FB00117F
:1023E000BC98415CBA98C0F11F00A9AA1154BA98D0
:1023F000401CBA90BA982028EBDB2021A9A8FDF751
:102400003FFFBB98401CBB90B299BB988842DDDB74
:102410002222B299B99802FB0100B990B999BC98EF
:10242000405CB190BE99B1984871B998401CB99080
:102430000020BB9072E00020BA9014E0BA99B998DD
:1024400001443C22BB9802FB0011BC98425CBE9840
:102450003830BB9900EB4111BA98C0F11F000A5403
:10246000BA98401CBA90BA982028E7DBBE9838305A
:10247000BB9900EB4110539001F06AFEBE99887041
:102480000020BA9012E0B99800F120013C22BB98DC
:1024900002FB0011BA980144BC98415CBA98C0F1A3
:1024A0000700A7AA1154BA98401CBA90BA980828F5
:1024B000E9DBA7A800F03EFABE9A7832BB9B02EB9C
:1024C000C30203C20020BA9010E0B99828303C2221
:1024D000BB9902FB0101BA980144BC98415CBA98CF
:1024E000401CA1AA1154BA98401CBA90BA9814285A
:1024F000EBDB9AAA1521A1A800F096F8BB9800EB97
:10250000C00101EB0011BE98801D084419229AA950
:102510005390FDF78EFEBB98401CBB90B199BB98C1
:10252000884288DB3C22B999B19802FB0010B9902F
:10253000BD99B998884201D1002026E7012024E7FF
:102540000000000000002E40547970652045727232
:102550006F7221212100000070B50446002520463D
:10256000422C40D00EDCA0F13000122849D2DFE826
:1025700000F0222426282A2C2E303234484848489D
:102580004848483762282DD00CDC452834D004DC7C
:1025900043282BD0442834D12BE046282FD0612863
:1025A0002FD11CE0632820D0642821D0652822D0B8
:1025B000662826D122E0002527E0012525E0022516
:1025C00023E0032521E004251FE005251DE0062565
:1025D0001BE0072519E0082517E0092515E000BFD5
:1025E0000A2512E000BF0B250FE000BF0C250CE010
:1025F00000BF0D2509E000BF0E2506E000BF0F2536
:1026000003E003A005F058FC00BF00BF284670BDE2
:102610004E6F742061206173636969206368617221
:102620002121210D0A000000F0B591B006460F46A9
:102630001546202000906B4609AA39463046FEF721
:10264000DFFC6B4601AA202109A8FEF7D9FC002473
:1026500003E0305D2855601CC4B2152CF9DB002462
:1026600006E001A8015D04F115002954601CC4B204
:10267000042CF6DB11B0F0BD70B485880468012D20
:1026800002BF2368002B012312D0AB006FF00306BA
:1026900006EB85054FF07F4C54F8054014EA0C0F0B
:1026A00006D1BCF1000F1CBF4FEA1C2C5B1EF5D1FC
:1026B000DC174FF0000C03EB94740CE00568CCF1D0
:1026C000000603EB860655F82C500E442DBA46F84A
:1026D000045C0CF1010CBCEBA40FEFDB13F0030F57
:1026E0001FD0006803F0030503F0030450F82C002A
:1026F00013F0010C03D00D4405F8010C000AA4EB03
:102700000C0CBCF1000F0CDD01EB0C04ACF1020C65
:1027100004F8010C000A04F8020C000ABCF1000FD6
:10272000F2DC002A18BF136070BC7047002812BF8B
:10273000002941F2B8407047F8B50F46818800245F
:102740001646012905D102681268002A08BF012334
:1027500012D08B006FF00305026805EB81014FF08A
:102760007F4C555815EA0C0F06D1BCF1000F1CBF69
:102770004FEA1C2C5B1EF5D10093B342C4BF41F25B
:10278000B540F8BDB919C91A6A46FFF775FF009838
:10279000311A00290EDD781E11F0010F18BF00F864
:1027A000014F0099711A491004D0447000F8024F8B
:1027B000491EFAD10020F8BD00BFFEE770B490F9C1
:1027C00007C091F9072094453FD183888C88012266
:1027D000A34204BF0068096803D9BCF1000F27D0E9
:1027E00022E003D2BCF1000F2BD027E09D1AA61ADD
:1027F00050F8255051F82660B54204D1934224BFC9
:10280000521C9342F2D2551EAB4202BF002070BC54
:1028100070479B1AA21A50F8230051F822108842E0
:1028200009D9BCF1000F03D070BC6FF001007047F4
:1028300070BC02207047BCF1000F02D070BC0120B8
:10284000704770BC4FF0FF307047BCF1010F05D1ED
:10285000002A02BF6FF0020070BC7047032070BCFA
:102860007047000070B483888A7900249A4209D2A4
:1028700002F1010C9C4537BF41F2B54041F2B5442D
:1028800070BC7047C279CA7100228B80002B09DDB1
:10289000D0F800C00D685CF822C045F822C0521C78
:1028A0009342F5DC8879801A431C002B26DD012336
:1028B0004FF0000C33EA0000634605D0D1F800C0A9
:1028C0004CF822304FF0010C8D79AD1A6D1C854209
:1028D00014DD00BF0D6802EB0C060CF1010C45F88D
:1028E00026300D6802EB0C06801C45F826308D79E9
:1028F0000CF1010CAD1A6D1C8542EBDC204670BC5E
:10290000704782880368012A01BF186800280120E7
:10291000704750016FF0030C0CEB82024FF0004146
:102920009A5831EA02031EBF00294908401EF8D117
:10293000704700002DE9F0412DED0C8B84B0074667
:1029400000210D460E460020009001900290039059
:102950006A460821384602F08CF900242CE0204613
:10296000FDF7B2FD41EC1D0BB0EE4D1AF0EE6D1A05
:102970009FED160B05F0C8FAB0EE40BAF0EE60BA63
:10298000C4F10F011DF80100FFF7E6FD8046FDF7D9
:102990009BFD53EC1B2BFDF725FD41EC190B284645
:1029A0003146FDF7A2FD53EC192BFDF774FCFDF742
:1029B000B0FD05460E46641C102CD0DB284631467F
:1029C00004B0BDEC0C8BBDE8F081000000000000FD
:1029D000000030400121080303F096BC2DE9F04FC0
:1029E000ADF5017D91460D4680461E46B0225A49FE
:1029F00050A8FDF71EFC0024202E1EBF6FF0030020
:102A00000DF5017DBDE8F08F05F1190717F00F0FE7
:102A100004D007F00F00C0F11004274428BA049036
:102A200030BA05902A4641466E4606A8FDF701FCDD
:102A3000802170194FF0000801766CB1183014F045
:102A4000010F18BF00F8018F610805D080F80180E0
:102A500000F8028F491EF9D1CDF80080CDF804802E
:102A6000CDF80C800024CDF808800DF5A07B6E46D3
:102A70001CADCDF87080CDF87480CDF87880CDF89D
:102A80007C80B8EB171F38BF0DF5F87A17D20020FD
:102A90005FEA041101EB800255F82030B25812BAF7
:102AA0005A404AF82020401C0428F3D35A462946AD
:102AB0007CA8FDF7FBFE641CB4EB171FE7D39DF861
:102AC00003000024401C8DF803000DF5A07B6E462A
:102AD0000DF1700A20ADCDF88080CDF88480CDF85E
:102AE0008880CDF88C80B8EB171F38BF0DF5F878CB
:102AF00017D200205FEA041101EB800255F8203064
:102B0000B25812BA5A4048F82020401C0428F3D387
:102B10005A4629467CA8FDF7C9FE641CB4EB171F72
:102B2000E7D324A91CA8FEF74BF824AA49460AF1CA
:102B30001000FDF7BBFE99E80F0020AC0FC424AADB
:102B400009F110010AF11000FDF7B0FE0DF5017D4D
:102B50000020BDE8F08F0000F0AE06082DE9F0413E
:102B600088B016468846044600256F46E068401C3B
:102B7000E0600AD1A068401CA06006D16068401CDB
:102B8000606002D12068401C206007EB05114246BE
:102B90002046FDF78BFE6D1C022DE7DB00983168A7
:102BA0004840206101987168484060610298B168AE
:102BB0004840A0610398F1684840E0610498316999
:102BC0004840206005987169484060600698B16986
:102BD0004840A0600798F1694840E06008B0BDE84F
:102BE000F0817047F0B5A3B007460E4600240020E0
:102BF00004900390029032215248FDF741FB3221AC
:102C00005148FDF73DFBFFF7E5FE4E4814904E4856
:102C1000159018A803F0C4FB044614B1002023B09B
:102C2000F0BD4A4805900020ADF81A004FF46060EE
:102C3000ADF81800464807904648099046480B9062
:102C400046480D9046480F90464811902020089025
:102C50000A900E900C901090129005A907A800F011
:102C600029FA044604B167E005AA07A902A800F002
:102C7000FDFA044604B15AE007A9029800F00CFCE2
:102C8000044604B153E005AA07A904A800F0EEFA2F
:102C9000044604B14BE005AA07A903A800F04EFBC7
:102CA000044604B13EE020223946039800F034FC8B
:102CB000044604B131E005A807AB009002A807C89C
:102CC00000F074FB044604B127E005AA07A90498A4
:102CD00000F034FC044616AB0021149A049800F06E
:102CE0008BF9044617AB0121159A049800F084F97A
:102CF00004438CB9002503E01498405D70556D1CA9
:102D0000202DF9DB002505E01598415D05F1200037
:102D100031546D1C202DF7DB00BF05A903A800F07E
:102D200053F900BF05A904A800F02DF900BF05A9BB
:102D300007A800F0EAF800BF18A803F067FB2046D8
:102D40006DE70000680100209A0100203002002099
:102D50000895060828950608489506086895060807
:102D600088950608A89506082DE9F04FA1B00446FD
:102D700088461646DDE92B790025AB4600200690F3
:102D800005900490D8F800A0D8F804B0331D594637
:102D90005046326801F041FF05461DB1284621B07A
:102DA000BDE8F08F16A803F0FBFA05460DB1002030
:102DB000F5E73B4807900020ADF822004FF4606033
:102DC000ADF8200020680990A0680B9060680D9015
:102DD000E0680F902069119060691390A0690A90D3
:102DE000E0690C90606A1090206A0E90A06A1290C0
:102DF000E06A149007A909A800F05CF9054605B13E
:102E000048E007AA09A905A800F098FA054605B107
:102E10003BE020224946059800F07EFB054605B1BF
:102E20002EE007AA09A904A800F026FD054605B171
:102E300026E009A802900598019016A8039007A81B
:102E4000009001ABD6E90001049A00F053FD05465D
:102E500005B110E007F1080300213A68049800F07A
:102E6000B9FC054607F10C0301217A68049800F0CB
:102E7000B1FC054300BF07A904A800F08FFC00BF08
:102E800007A905A800F0A0F800BF07A906A800F050
:102E90007AF800BF16A803F0B9FA28467FE70000C9
:102EA0003002002030B504000D464FF0000018BF7E
:102EB000002D27D0216800291CBFA168002921D03E
:102EC000296800291FBF6A68002AAA68002A19D049
:102ED000227B2A73227B12F0020F18BF30BD2068BC
:102EE000FFF7C0FC002818BF30BD69686068FFF7B5
:102EF000B9FC002818BF30BDA968A068BDE8304003
:102F0000FFF7B0BC41F2544030BD002812BF002989
:102F100041F25440704730B50446006B0D4600281E
:102F20001FBF016800298168002904BF41F2534096
:102F300030BD294604F00FFD206B2946083004F00F
:102F40000AFD206BC16819B10C30294604F003FD5D
:102F5000206B416819B1001D294604F0FCFC206B70
:102F6000016919B11030294604F0F5FC206B416964
:102F700019B11430294604F0EEFCE8881838E880CE
:102F80000020206330BD002812BF002941F25440C8
:102F9000704730B5044600680D46002804BF41F272
:102FA000534030BD083004F0D6FC20682946001D8F
:102FB00004F0D1FC2946206804F0CDFCE8881038E4
:102FC000E8800020206030BD002812BF002941F2B7
:102FD0005440704730B5054600680C46002804BFD1
:102FE00041F2564030BD04F0B6FCE088001FE0809E
:102FF0000020286030BD000038B5144600221D4670
:103000000092002818BF002C20D0002D1CBF0268A1
:10301000002A1BD04368002B1CBF8368002B15D0EF
:10302000927992002A60A1B1012917D0022918BF14
:1030300041F2544017D01E4A0121916091681168F5
:1030400000914B1CA4F1010119D111E041F254404F
:1030500038BD00682146FFF769FBECE74068214670
:10306000FFF764FBE7E780682146FFF75FFBE2E7D5
:10307000009B136012680092002A08BF38BD2278B6
:1030800002F05F0222702B6882F055025B1E04EB97
:1030900063031A702A6894F800C0535C4CF0AA0CC1
:1030A00083EA0C03535429684910296038BD000095
:1030B00000300240F0B50E46040014BF002E41F26D
:1030C000544500F0CB80206900281CBF60690028AF
:1030D00039DD442837DC2168002934D061680029B3
:1030E00031DB44292FDCA16900291CBFE1690029DB
:1030F00029DD442927DC316829B3C01C20F00300F6
:10310000B28800EB4000602303EB4000904288BF90
:1031100040F2ED357ED8F08808442063F0881830FE
:10312000F080206B002804BF40F2ED30F0BD6169F3
:103130000830C91C8908324604F0ECFB05004FF04A
:10314000000703D086E041F2534587E060693246CC
:10315000C01C8108206B04F0DDFB050075D1206BDD
:103160000268D4E9000104F001FE206B8268D4E912
:10317000040104F0FBFDE0693246C01C8108206BAD
:103180000C3004F0C7FB05005BD1206BC268D4E9AA
:10319000060104F0EBFD206B4760206B0761206B9C
:1031A0004761A06898B1E068002810DD44280EDA75
:1031B000C01C8108206B3246001D04F0ABFB0500EB
:1031C0003AD1206B4268D4E9020104F0CFFD206AB5
:1031D00000281CBF606A002840DD44283EDAA16A4E
:1031E00000291CBFE16A002938DD442936DAC01CF9
:1031F0008108206B3246103004F08CFB050016D19C
:10320000206B0269D4E9080104F0B0FDE06AC01C3B
:10321000810800E022E0206B3246143004F07AFB93
:103220000500206B1CD01030314604F094FB206B5D
:103230003146001D04F08FFB206B31460C3004F04A
:103240008AFB3146206B04F086FB206B3146083048
:1032500004F081FBF0881838F08027632846F0BD21
:103260004269D4E90A0104F081FDF7E7002919BF9A
:10327000002A002841F25440704770B50446086B9C
:1032800015460E4600281FBF2A68002A81680029BB
:1032900004BF41F2534070BDE8888979342301EBC3
:1032A000410103EB8101AB880144994284BF40F2A4
:1032B000ED3070BD10442060E8882A461030E88068
:1032C000306B80688179206804F024FBD8B9306BBA
:1032D0002A46806881792068001D04F01BFB70B9C4
:1032E000306B2A46806881792068083004F012FB30
:1032F000002820680FD0001D294604F02CFB294629
:10330000206804F028FBE8881038E880002020605E
:1033100040F2ED3070BD0068002101F0DDFC206856
:103320000021406801F0D8FC20680121806801F08C
:10333000D3FC216801200873002070BD002919BF4B
:10334000002A002841F25440704730B50446086B0B
:1033500000281FBF1368002BD0F80CC0BCF1000F71
:1033600004BF41F2534030BDD0889CF806C0102500
:1033700005EB8C0C95888444AC450CD8181820605B
:1033800009D0D088001DD080086BC0688179206882
:1033900004F0C0FA10B140F2ED3030BD20680021D9
:1033A000006801F099FC002030BD00002DE9F041DB
:1033B00086B014460C9A1F460E465FEA000818BFF6
:1033C000002E29D0002C1CBF002F002A24D0386BDF
:1033D000002802BF41F2534006B0BDE8F081836887
:1033E000002B19BF0068002841F2574006B008BF03
:1033F000BDE8F0813068002819BF0068002841F25C
:10340000564006B008BFBDE8F08102A9184601F099
:10341000E9FE050005D011E006B041F25440BDE8D8
:10342000F08102A800903B4622464146306802F0F7
:10343000F1FC050006D002A802F0CDFB06B028463C
:10344000BDE8F081214602AA084602F0A3FE054627
:1034500002A802F0C0FB002DF0D1207B10F0020F7B
:1034600018BF41F25845E9D10A4801212173816012
:10347000816801684A1C02D10160006828B1D4E962
:1034800000012160A168C4E9011006B00020BDE878
:10349000F08100000030024078B504004FF00000D9
:1034A0000E46009014BF002E41F254452FD0306BD1
:1034B00000281FBF0269002A4069002808BF41F2A6
:1034C000534524D010462168FFF7CCF905001ED1E2
:1034D000306B61684069FFF7C5F9050017D101211C
:1034E000A06801F0F9FB0B48012181608268026845
:1034F0000092521C04D1009A02600068009028B12A
:10350000D4E900022260A268C4E9012021732846A0
:1035100078BD00000030024094460B46002812BFE0
:10352000002B41F2544070470268002A04BF41F268
:10353000564070476146184604F018BC2DE9F0412A
:103540008AB04FF00008CDF80C8015460E460700F3
:10355000CDF80480CDF80880CDF820801ABF002E69
:10356000002D41F2544400F01281306B002808BF56
:1035700041F2534400F00B81816800291CBFC268EE
:10358000002A20D04268002A1CBF006800281AD0F8
:10359000387B022808BF41F2554400F0F8802868C3
:1035A00060B18879EA8800EB400102EB81014C228E
:1035B00002EBC0000844A988884208D90AB040F24A
:1035C000ED30BDE8F08141F2574400F0E0B82A4602
:1035D000314603A8FFF74AFE040040F0D880306B64
:1035E00081683868FFF7EAF8002806DA306B8168EE
:1035F0007868FFF7E3F8002803DB41F2554400F058
:10360000C2B838460399FFF74DFC306B2A4604A92F
:10361000806801F0E7FD040040F0B580306B2A4679
:103620008068817902A804F075F9040076D1306BC6
:103630002A468068817901A804F06CF904006FF0D3
:1036400003076CD1039804AB05990068024602F0A9
:10365000DBFA04007CD1039804AB0599406802466C
:1036600002F0D2FA040073D1039804AB82680068B8
:10367000014602F0C9FA04006AD1306B0299006871
:10368000FFF7F0F8DDE9012004AB059902F0BCFA80
:1036900004005DD10095DDE90303019980680246CD
:1036A00001F0FEFB040053D1039804AB816800686D
:1036B0000A4602F0A9FA04004AD1306B0299406828
:1036C000FFF7D0F8DDE9012004AB059902F09CFA80
:1036D00004003DD10095DDE90303019980680246AD
:1036E00001F0DEFB040033D1039804ABD0E90020E5
:1036F000014602F089FA04002AD12748012141F24B
:1037000055448160816801680891491C08D003987C
:1037100000680146FFF752F878B917E030E023E07F
:1037200008990160006808900028039806D0006896
:103730000146FFF743F800B908E009E08168006836
:10374000FFF73CF8002808BF002401E041F2524492
:10375000019848B18079E988404207EB800008442D
:103760000838E880CDF80480029848B18079E9886B
:10377000404207EB800008440838E880CDF8088014
:1037800004A802F028FA294603A8FFF7FCFB0AB0B8
:103790002046BDE8F081000000300240002812BF42
:1037A000002941F25440704730B5044600680D4688
:1037B000002804BF41F2544030BD04F0CCF820682A
:1037C0002946001D04F0C7F8E8880838E880002082
:1037D000206030BD38B5144600221D4600920028F6
:1037E00018BF002C1AD0002D1FBF0268002A4368A2
:1037F000002B13D0927992002A6091B1012918BF51
:1038000041F2544012D01B4A012191609168116825
:1038100000914B1CA4F1010114D10CE041F2544081
:1038200038BD00682146FEF781FFECE7406821467D
:10383000FEF77CFFE7E7009B136012680092002A06
:1038400008BF38BD207800F05F0020702A6880F043
:103850005500521E04EB6202107028682378425C07
:1038600043F0AA035A40425428684010286041F2AD
:10387000544038BD00300240002919BF002A0028FA
:1038800041F25440704770B50546086B14460E4629
:1038900000281FBF21680029C268002A04BF41F226
:1038A000534070BDE0889279202303EBC202A388C5
:1038B00002449A421BD808442860E0882246083017
:1038C000E080306BC0688179286804F023F870B913
:1038D000306B2246C06881792868001D04F01AF810
:1038E000002808BF70BD2146286804F034F840F273
:1038F000ED3070BD2DE9FF4F97B000200190099089
:10390000039002900490069017981D4600281CBF53
:10391000199800283DD0002D1CBF2498002838D0CD
:10392000686800281FBF29680029A968002934D0C9
:103930002499096800291CBF006B00282DD0C1689C
:1039400000291CBF0269002A2BD08268002A1CBFF4
:103950000068002825D024989279C08802EB4202A2
:1039600000EBC202887902EB001101F19C0224995C
:1039700089888A4288BF40F2ED3B00F2F880411C02
:1039800003A8249A03F0C6FF5FEA000B40F0EF8023
:103990000BE041F2544B00F0EAB841F2534B00F017
:1039A000E6B841F2574B00F0E2B86868249A006B21
:1039B000C068817902A803F0ADFF5FEA000B6FF0E9
:1039C00003077DD1696806A8249AFFF74FFC5FEAD8
:1039D000000B76D1696804A8249AFFF747FC5FEAD8
:1039E000000B6DD169680498FFF756FD68680CA953
:1039F000249A006B806801F0F5FB5FEA000B7DD133
:103A00006868039C006BC0680B90D5F80880FEF7CF
:103A100078FF06461F30C11700EBD160C0F3471A8C
:103A2000C0F34F194FEA8900139006F01F00C0F150
:103A300020004FF0FF3121FA00F01190A1794046AB
:103A40008A4502D941F2B54B76E00021E171A4F834
:103A5000049006F01F0B2268139B02F0FBFC024649
:103A6000A088401EBBF1000F07D02168119B51F8C0
:103A700020C00CEA030341F82030A088012808D9AF
:103A8000216807EB8003C958002904BF401EA080AD
:103A9000F3D00AB193464FE020460B99FEF78EFE15
:103AA0000028CBDA03988188012903D101680968CD
:103AB0000029A5D00CA900916B68069A049901E031
:103AC00041E044E002F0A6F95FEA000B34D1069928
:103AD0000CAA084602F05EFB5FEA000B2CD10698A8
:103AE0000068C079012812D169680698249B096B87
:103AF0000068C9680246FDF79DF800E01FE05FEA34
:103B0000000B19D106980068C0790128ECD06868CC
:103B1000006BC16806980068FEF750FE0028069802
:103B2000006828DB69680246249B096BC96803F0BA
:103B300024FF5FEA000BEAD00CA802F04CF804A8BE
:103B40002499FFF720FA06A82499FFF71CFA039995
:103B50002498002918BF002809D08979C2884942D1
:103B600007EB810111440839C180002003901BB08C
:103B70005846BDE8F08F8188012904D100680068AB
:103B800000283FF43DAF0CA802F025F804A82499C2
:103B9000FFF7F9F968680399249B006BC26808462F
:103BA00001F0E5F95FEA000BCDD1069802990068B3
:103BB000FEF758FE06A82499FFF7E5F96868249AED
:103BC000006BC068817901A803F0A4FE5FEA000BD6
:103BD00040F07B816868249A006BC068817909A8ED
:103BE00003F098FE5FEA000B40F05F8168680CA963
:103BF000249A006BC06801F0F5FA5FEA000B40F010
:103C00004481029A0CAB10460D9901F0FDFF044669
:103C100028680D990CAB0068019A01F0F5FF039A32
:103C200004430CAB10460D9901F0EEFF50EA040B73
:103C300040F02881DDE901010CAB099A01F0E4FFB5
:103C40005FEA000B40F01E816868006BC368B3F840
:103C500004C0BCF1010F05D118680068002808BF36
:103C600001210ED01A6807EB8C044FEA4C1112594F
:103C70004FF0004030EA02041EBF00284008491EF1
:103C8000F8D11898B1EBC00F7DDABCF1010F05D166
:103C900018680068002808BF01220ED0196807EBD9
:103CA0008C034FEA4C12C9584FF0004030EA010330
:103CB0001EBF00284008521EF8D1D01DC11700EBCE
:103CC0005170C01018900146019A179804F04EF8F0
:103CD00069680198096BCB68B3F804C0BCF1010FA7
:103CE00005D119680968002908BF01210FD04FEAE2
:103CF0004C111B6807EB8C0C4FF0004253F80C3052
:103D000032EA030C1EBF002A5208491EF8D1189A45
:103D1000D1EBC20160D020295ED28288012A45D031
:103D200000234FF0010C3CEA02020DD00368C1F100
:103D30002006D3F800C05C682CFA01FCB4404CEAC1
:103D4000040CC3F800C00123B0F804C0ACF1010CAE
:103D5000944584BF4FF0040CC1F1200426D90668B5
:103D60000CEB830956F8238056F8099028FA01F8DD
:103D700009FA04F948EA090846F8238006685B1C3A
:103D800056F8238000E022E00CEB830928FA01F8C2
:103D900056F8099009FA04F948EA090846F8238018
:103DA00086885B1C921C761E9642D8D8828803684F
:103DB00007EB820253F802C03CFA01FC43F802C050
:103DC000818809D101291CBF491E818004E0014678
:103DD000019A179803F0CAFF019A0CAB10460D998F
:103DE00001F012FF5FEA000B4CD16A680198249E33
:103DF000126B04460999D2F80C8033462246FCF730
:103E000019FF5FEA000B04D0A179A088491C884201
:103E100038D141462046FEF7D1FC002805DB22467A
:103E200033464146104603F0A8FDA088A179884298
:103E300002D941F2B54B25E0039A0CAB104601992B
:103E400001F0E2FE03990CAA084601F09EF90299DE
:103E50000CAA084601F099F903988188012904D138
:103E60000068006800283FF4CBAD199801680298FB
:103E7000FEF7F8FC0446199841680398FEF7F2FC37
:103E800040EA040B0CA801F0A6FE02992498002930
:103E900018BF002809D08979C288494207EB8101FF
:103EA00011440839C180002002900199249800290A
:103EB00018BF002809D08979C288494207EB8101DF
:103EC00011440839C18000200190099924980029E3
:103ED00018BF00283FF43BAE8979C288494207EBFE
:103EE000810111440839C180002009902FE60000AB
:103EF0000D4B03600D4B83600D4B43600D4BC36056
:103F00000D4B03610D4B436120238361C361436209
:103F100003628362C3620A4B0B600A4B4B600A4B1D
:103F200013600A4B536070470895060828950608E9
:103F3000489506086895060888950608A895060815
:103F4000680100209A010020CC010020FE01002021
:103F5000074A126822F44072054B1A601A4612682A
:103F60001A601A46126842F001021A600170704726
:103F7000103C024010B50949096821F44071074C12
:103F800021602146096841F4407121602146096899
:103F900041F0010121600260436010BD103C02400D
:103FA000084A126822F44072064B1A601A461268D8
:103FB00042F480721A601A46126842F001021A60D6
:103FC00001807047103C0240084A126822F4407297
:103FD000064B1A601A46126842F400721A601A46BA
:103FE000126842F001021A6001607047103C024002
:103FF0002348006800F0100040B12248C06940F03A
:1040000010002049C86110201D4908601C48006844
:1040100000F0200040B11B48C06940F00800194979
:10402000C8612020164908601548006800F040006B
:1040300040B11448C06940F004001249C8614020F2
:104040000F4908600E48006800F0800040B10D483C
:10405000C06940F002000B49C8618020084908602F
:104060000748006800F0020040B10648C06940F00F
:1040700020000449C861022001490860704700001F
:104080000C3C02405C12002070B504460025002064
:104090001449C86100F06AF9054609E0601C38B1AE
:1040A00024B100F063F9401BA04201D9032070BD88
:1040B0000D48006800F480300028EFD10A480068FD
:1040C00000F0010010B101200749086006480068AF
:1040D00000F0F20018B1FFF78BFF0120E7E70020A6
:1040E000E5E700005C1200200C3C024030B48288FE
:1040F000012A05D101680968002904BF30BC704756
:104100000021012A12D0521E4FF0040C03680CEB60
:10411000810553F821405D5D640844EAC57443F8A5
:104120002140491C521EF1D18188491E026852F873
:1041300021305B0842F82130818801299CBF30BCC6
:104140007047002B04BF491E818030BC70470000BF
:1041500030B591B00546202215A109A8FCF769F8F1
:1041600020221BA101A8FCF764F8002406E0285DCA
:1041700009A9095D884200D002E0641C202CF6DB0E
:1041800000BF202C02D1002011B030BD002406E079
:10419000285D01A9095D884200D002E0641C202C42
:1041A000F6DB00BF202C01D10120EDE7FF20EBE77B
:1041B000602C79718B16E442DE58778E148D0B10CB
:1041C00084E3B2DFFD5DE6B7B16CEE7969282DE7D7
:1041D000C56F33FC6ECFCD0C225C4AB356FEE5931F
:1041E00090AF8560BE0E930FAEBE74A6DAFF7C9BC7
:1041F00010B504460CB9012010BD607920B900202B
:104200002071204600F006F80220607101206071E4
:104210000020F1E708B50A4A016891420FD100BFBA
:10422000002100910749096841F48051054A116055
:104230001146096801F48051009100BF00BF08BD1C
:10424000003002403038024010B54FF0FF300E49C8
:10425000086000200860401E091D086000200860FA
:10426000401E09491039086000200860401E091DE1
:10427000086000200860401E091D086000200860DA
:1042800000F0B4F8002010BD203802400348006858
:1042900040F000400149086000207047103C024097
:1042A0002DE9F04106460F4614461D464FF0010821
:1042B00000BF1F48007E012802D10220BDE8F08126
:1042C00001201B49087600BF4CF25030FFF7DCFE9E
:1042D0008046B8F1000F23D126B9E1B23846FFF786
:1042E00037FE12E0012E04D1A1B23846FFF758FE86
:1042F0000BE0022E04D121463846FFF765FE04E0AC
:1043000022462B463846FFF735FE4CF25030FFF779
:10431000BBFE80460748006820F0010005490860A0
:1043200000BF00200249087600BF4046C6E70000F3
:104330005C120020103C024000200949096801F08D
:10434000004159B10749064A0C3A1160064911600B
:104350000349096801F0004101B1012070470000E4
:10436000103C024023016745AB89EFCD014800684E
:10437000704700001400002002480068401C0149FA
:10438000086070471400002010B50D48006840F424
:1043900000700B4908600846006840F480600860BF
:1043A0000846006840F480700860032000F096F82A
:1043B000002000F007F800F01AF8002010BD0000FF
:1043C000003C024070B50446074800684FF47A711B
:1043D000B0FBF1F5284600F002FC00222146501EF9
:1043E00000F03EF8002070BD00000020704710B5BE
:1043F000032000F073F8002211466FF00B0000F06C
:104400002FF8002211466FF00A0000F029F8002270
:1044100011466FF0090000F023F800221146501FEA
:1044200000F01EF800221146101F00F019F80022BB
:104430001146901E00F014F800221146501E00F0A4
:104440000FF810BD00BF00F01F0201219140034A88
:10445000430942F8231000BF7047000080E100E0EC
:104460002DE9F05F80460D461646002701F076FEE6
:10447000074639462A46334601F00700C0F1070ACD
:10448000BAF1040F02D94FF0040A01E0C0F1070AA3
:10449000D14600F1040ABAF1070F02D24FF0000A28
:1044A00001E0A0F1030AD4464FF0010A0AFA09FA22
:1044B000AAF1010A0AEA020A0AFA0CFA4FF0010B01
:1044C0000BFA0CFBABF1010B0BEA030B4AEA0B04F2
:1044D0002146404601F04AFEBDE8F09F00BF00F0D3
:1044E0000702064B19684FF6FF031940044B0B43B4
:1044F00043EA0221014B196000BF70470CED00E058
:104500000000FA0570B504460D460CB9012070BDD7
:104510005848006800F00F00A84209D255490D70B4
:104520000846006800F00F00A84201D00120EEE725
:10453000207800F0020002281DD1207800F004004D
:10454000042805D14C48006840F4E0504A4908600E
:10455000207800F00800082805D14748006840F49A
:104560006040454908604448006820F0F000A168B8
:10457000084341490860207800F00100A8B3606852
:10458000012807D13C4808380068C0F34040B8B95A
:104590000120BCE76068022802D06068032807D1C8
:1045A000354808380068C0F3406048B90120AEE7DC
:1045B000314808380068C0F3400008B90120A6E778
:1045C0002D48006820F00300616808432A4908600C
:1045D000FFF7CCFE064609E0FFF7C8FE801B41F25C
:1045E0008831884202D9032091E707E02248006819
:1045F00000F00C006168B0EB810FEDD11D48006840
:1046000000F00F00A84209D91A490D700846006849
:1046100000F00F00A84201D0012078E7207800F0D8
:104620000400042807D11448006820F4E050E16831
:10463000084311490860207800F00800082808D1D4
:104640000D48006820F46040216940EAC1000A4931
:10465000086000F01DF808490968C1F30311074A12
:10466000515CC840064908600020FFF7ABFE0020FF
:104670004DE70000003C0240083802403098060830
:104680000000002001480068704700000000002082
:104690002DE9F047002400250026A14625480068A2
:1046A00000F00C0020B1042805D008283AD105E01C
:1046B000DFF8849039E0DFF8849036E01D48001F71
:1046C000006800F03F041B48001F006800F48000F1
:1046D00078B11A481749091F0968C1F38811A0FB6E
:1046E00001700146224600233846FBF771FD05465E
:1046F0000EE011480F49091F0968C1F38811A0FB9A
:1047000001700146224600233846FBF761FD05464D
:104710000848001F0068C0F30140401C4600B5FB7C
:10472000F6F902E0DFF8109000BF00BF4846BDE890
:10473000F0870000083802400024F40000127A00DC
:1047400038B504460CB9012038BD207800F00100CE
:10475000002874D0F848006800F00C0004280DD040
:10476000F548006800F00C00082813D1F248001F3B
:10477000006800F48000B0F5800F0BD1EE480838D7
:104780000068C0F34040002859D06068002856D126
:104790000120D9E700BF6068B0F5803F08D1E64846
:1047A0000838006840F48030E349083908601EE0AA
:1047B0006068B0F5A02F0DD1DF480838006840F4DC
:1047C0008020DD49083908600846006840F48030E0
:1047D00008600CE0D8480838006820F48030D649DA
:1047E000083908600846006820F48020086000BF8F
:1047F000606890B1FFF7BAFD054606E0FFF7B6FD29
:10480000401B642801D903209EE7CB480838006884
:10481000C0F340400028F1D011E0FFF7A7FD0546A6
:1048200006E0FFF7A3FD401B642801D903208BE7B6
:10483000C14808380068C0F340400028F1D1207812
:1048400000F0020002285FD1BB48006800F00C00B5
:1048500058B1B948006800F00C0008281CD1B648CF
:10486000001F006800F48000B0B9B3480838006841
:10487000C0F3400020B1E068012801D0012063E7C7
:10488000AD480838006820F0F800216940EAC1000E
:10489000A9490839086037E0E06800B30120A7495A
:1048A0000860FFF763FD054606E0FFF75FFD401B6C
:1048B000022801D9032047E79F4808380068C0F361
:1048C00040000028F1D09C480838006820F0F8002B
:1048D000216940EAC10098490839086014E00020C5
:1048E00096490860FFF742FD054606E0FFF73EFDEA
:1048F000401B022801D9032026E78F4808380068AA
:10490000C0F340000028F1D1207800F0080008280A
:104910002CD16069A8B1012089490860FFF726FD04
:10492000054606E0FFF722FD401B022801D90320BF
:104930000AE781486C300068C0F340000028F1D0DD
:1049400014E000207E490860FFF710FD054606E0F0
:10495000FFF70CFD401B022801D90320F4E676483E
:104960006C300068C0F340000028F1D1207800F0DE
:10497000040004287FD100BF002000906E4838302A
:10498000006840F080506C49383108600846006883
:1049900000F08050009000BF00BF6A48006840F4FB
:1049A000807068490860FFF7E1FC054606E0FFF704
:1049B000DDFC401B022801D90320C5E661480068E0
:1049C00000F480700028F2D000BFA068012808D150
:1049D00059486830006840F0010057496831086064
:1049E0001DE0A06805280DD153486830006840F0EC
:1049F00004005149683108600846006840F0010031
:104A000008600CE04C486830006820F001004A491A
:104A1000683108600846006820F00400086000BFA4
:104A2000A068A0B1FFF7A2FC054608E0FFF79EFCD6
:104A3000401B41F28831884201D9032084E63E4878
:104A400068300068C0F340000028EFD013E0FFF7A3
:104A50008DFC054608E0FFF789FC401B41F28831D8
:104A6000884201D903206FE6334868300068C0F3FC
:104A700040000028EFD1A069B8B32F48006800F0CB
:104A80000C00082860D0A06902283ED100202B49E4
:104A90000866FFF76BFC054606E0FFF767FC401B66
:104AA000022801D903204FE6234808380068C0F3E4
:104AB00040600028F1D1D4E907010843616A40EA67
:104AC00081110122A06AC2EB500041EA00412C2072
:104AD000005D41EA00601849091F0860012017497C
:104AE0000866FFF743FC054607E02FE0FFF73EFCB2
:104AF000401B022801D9032026E60F480838006829
:104B0000C0F340600028F1D020E000200B49086687
:104B1000FFF72CFC054606E0FFF728FC401B0228A7
:104B200001D9032010E6044808380068C0F340604B
:104B30000028F1D10AE007E00838024000004742AF
:104B4000800E4742007000400120FDE50020FBE59B
:104B500010B504460CB9012010BD607920B90020C1
:104B60002071204600F00CF8022060712068006877
:104B700040F0040021680860012060710020EBE72C
:104B800008B50A4A016891420FD100BF0021009187
:104B90000749096841F04001054A1160114609685A
:104BA00001F04001009100BF00BF08BD00080650A1
:104BB00034380240042808D14FF0E021096941F05F
:104BC00004014FF0E022116107E04FF0E021096994
:104BD00021F004014FF0E02211617047704770B579
:104BE00004462546681EB0F1807F01D301200FE006
:104BF000681E4FF0E02148610F214FF0FF3001F0B7
:104C0000B5FA00204FF0E0218861072008610020FC
:104C100070BD10B5FFF7E2FF10BD2DE9F0419EB069
:104C200005460E4617469846002400208DF80800D9
:104C30002020039001A802F0C1FD04461CB12046CB
:104C40001EB0BDE8F0813246294601A802F059FDA8
:104C500004460CB12046F3E74246394601A802F06B
:104C600065FD04460CB12046EAE72046E8E700BFB0
:104C7000FEE7F0B503460D4600202AE01C5CE6176F
:104C800004EB16763611195CCF1701EB17773F113D
:104C9000092F01DC302700E037273E4402F810607E
:104CA0001C5CE61704EB16763611A4EB0616195CAD
:104CB000CF1701EB17773F11A1EB0717092F01DC85
:104CC000302700E037273E44F7B24600761C975560
:104CD000401CA842D2DBF0BD70B48279002302B33D
:104CE0009C4612F001024FF0040405D0D0F800C039
:104CF000CCF804304FF0010C8579954211D900BFF2
:104D0000056804EB8C060CF1010CAB51056804EB53
:104D10008C06921CAB51857992B20CF1010C954234
:104D2000EED801228280002904DBC3710068016093
:104D300070BC7047C27100684942016070BC704726
:104D40002DE9F00700293FD083886FF0030802683F
:104D500008EB830C002752F80C20C1F12004E2403C
:104D600018BF1746012B19D000225B1E6FF00709F0
:104D70008588D0F800C0AE1A08EB860509EB8606D8
:104D80005CF805A05CF806600AFA01FAE6404AEA17
:104D90000606521C4CF805605B1EE9D102681368D8
:104DA00003FA01F111607FB1818883794A1C9A422C
:104DB00082BF41F2B540BDE8F0077047026842F893
:104DC00021708188491C8180BDE8F0070020704770
:104DD00010B50648064908600846FFF709FA18B1F9
:104DE000D72104A003F065F810BD00000030024098
:104DF000040000202E2E2F5372632F6D61696E2EDA
:104E00006300000008B500BF00200090154800684E
:104E100040F08000134908600846006800F08000F8
:104E2000009000BF00BF00BF00200090084600684F
:104E300040F0010008600846006800F001000090A2
:104E400000BF00BF00BF002000900846006840F08F
:104E5000020008600846006800F00200009000BFF1
:104E600000BF08BD3038024010B50648064908604A
:104E70000846FFF76DFE18B1E32104A003F019F80E
:104E800010BD000000080650301000202E2E2F53B9
:104E900072632F6D61696E2E6300000000BFFEE734
:104EA00070B51D46049E14463346FBF7C3FE28B179
:104EB000A279A188521C914218BF70BD2946204694
:104EC000FDF77CFC002805DB2246334629461046C8
:104ED00002F053FDA088A17988428CBF41F2B54011
:104EE000002070BD2DE9F047044680880026174653
:104EF0008846012802D12168096811B300281CBF27
:104F00000022111F11D0A3882568A3EB020C01EB2E
:104F10008C0955F82C3055F809905B0043EAD97399
:104F2000521C45F82C30401EEDD120680168490024
:104F30000160A088216851F82010012904BF401C9D
:104F4000A08041462046FDF739FC002806DB2246BA
:104F50003B464146104602F010FD0646A088A17966
:104F600088428CBF41F2B5403046BDE8F0872DE95C
:104F7000F04387B000258146009501950395029581
:104F800010681646884600781C4610F0010F02BFD4
:104F900041F2B64007B0BDE8F083B1791A466846E1
:104FA00002F0B8FC00281CBF07B0BDE8F083B1795F
:104FB000224601A802F0AEFC6FF00307002840F083
:104FC000D180B0792246411C03A802F0A3FC00283E
:104FD00040F0BA80B0792246411C02A802F09AFC47
:104FE000002874D148460099FDF73CFC00286FD199
:104FF00030460199FDF736FC002869D1012103985C
:10500000FFF76AFE00210298FFF766FE009881888C
:10501000012903D10068006800285AD0009801686F
:10502000097811F0010F16D1FFF760F803980168B5
:10503000097811F0010F07D0234602463146FBF7ED
:10504000F9FD002864D102E0FFF750F8E6E7039885
:10505000FFF74CF8E2E701980168097811F0010FB9
:105060000DD001460098FDF7A9FB0028234621DB5F
:10507000009A0199104602F080FC48BB15E0FFF74A
:1050800035F802980168097811F0010F06D023461F
:1050900002463146FBF7CEFDD0B902E0FFF726F815
:1050A000D9E70298FFF722F8D5E7039A234610467E
:1050B000029909E0019A0099104602F05EFC38B9A5
:1050C000029A23461046039902F057FC9EE72DE012
:1050D0001EE00298C179012907D1234602463146D4
:1050E000FBF7A8FD0028F4D012E031460298FDF746
:1050F00065FB002808DB029A23461046314602F081
:105100003CFC0028F1D003E041460298FDF7AAFBE1
:105110000299002918BF002C08D08979E2884942F9
:1051200007EB810111440839E180029503990029B8
:1051300018BF002C08D08979E288494207EB810129
:1051400011440839E18003950199002918BF002C0A
:1051500008D08979E288494207EB81011144083976
:10516000E18001950099002912BF002C07B0BDE82D
:10517000F083E2888979494207EB810111440839BB
:10518000E180009507B0BDE8F083F8B500250095F3
:105190000F46144606468179D268684602F0BAFB8B
:1051A00000281CBF40F2ED30F8BD01210098FFF748
:1051B00093FD23463A463046009900F025FD009ABB
:1051C000E168002A14BF0029F8BDCB8892796FF0FE
:1051D000030C52420CEB82021A44083ACA80009532
:1051E000F8BD00002DE9F74F84B00020009004982E
:1051F0000C46069A8079811C201D02F08BFB00284A
:105200004DD10498206000216068FFF765FD049887
:1052100061684FF0010C8088401C888060680168DC
:105220000498808841F820C00498006802686046AD
:1052300002F00301022928BF0320042107230F25C0
:1052400002FB00F61E408E4228BF084449008CEA4B
:10525000430302FB00F61E408E4228BF084449006B
:105260008CEA43036D1EEBD14042A0600498069A7D
:105270008079411C684602F04DFB2D1F80B16168AA
:105280000698002918BF002841D08979C288494270
:1052900005EB810111440839C1800020606036E0CF
:1052A00000990498FDF7DEFA0098FDF72AFBC0F19B
:1052B000200000F01F00014601900098FFF740FD1C
:1052C0006068069B0246009902F057FB20B36168B4
:1052D0000698002918BF002809D08979C288494258
:1052E00005EB810111440839C180002060600099FC
:1052F0000698002918BF002809D08979C288494238
:1053000005EB810111440839C1800020009007B0ED
:1053100040F2ED30BDE8F08F0020029004988088C4
:10532000002840F2F2800198C0F1200003906168EB
:1053300004980A6880888B8805EB80008E7917585E
:10534000012003F1010CB4453CD8012B04BF1268C5
:10535000002A37D04FF00008012B1CBF00225B1E33
:1053600013D000BFB1F804C00E68ACEB020984444E
:10537000ACEB020C05EB890905EB8C0C56F8099097
:10538000521C46F80C905B1EECD10A68136842F878
:1053900020300023012813BF02460A68C2F80080AB
:1053A00090420CD9D1F800C0921C4CF82380D1F85F
:1053B00000C05B1C4CF823805B1C9042F2D88A88AA
:1053C00010448880002F18BF6FF007067ED0009928
:1053D0000498FDF747FA0098B7B30021B0F804C06D
:1053E000D0F800A00A46BCF1000F30D0AAF10403A7
:1053F0001CF0010F05D053F8041FA1FB07211A6010
:105400000022B0F804C05FEA5C0C18BF4FF000093E
:105410000FD0D3F804809346E8FB071B59609A68C5
:105420004946E2FB07B143F808BF4A46BCF1010C0C
:10543000EFD1828859B190F806C0531C63459CBFD8
:1054400083804AF8221002E0FFE702F040FADDE92B
:105450000002E2B3B0F804C0016805EB8C034FF022
:10546000000BCB580399CB4018BF9B46BCF1010FF2
:105470001CBF0023ACF1010C19D000BFB0F80480B0
:105480000768A8EB030905EB890806EB890957F8BB
:1054900008A057F809900AFA02FA29FA01F94AEA2B
:1054A00009095B1C47F80890BCF1010CE6D10168C2
:1054B0000B6803FA02F20A60BBF1000F0DD081887D
:1054C00083794A1C9A4208D8026801E014E004E09B
:1054D00042F821B08188491C81806068069B0246A1
:1054E000009902F04AFA606801680498808851F8CF
:1054F0002070002F7FF46BAF0298401C029004983C
:105500008188029881423FF612AF009906980029DF
:1055100018BF002809D08979C288494205EB81016A
:1055200011440839C1800020009060680499FDF79B
:1055300045F9002805DD6068069B0246049902F0E3
:105540001CFA0698E06007B00020BDE8F08F2DE956
:10555000FF4F85B04FF00009129D0746CDF800902F
:10556000CDF80490CDF808902868884616468079D2
:10557000EA68411C684602F0CDF9040040F0A281BF
:105580002868EA688079411C01A802F0C3F9040088
:105590006FF0030A40F086812868EA688079411C30
:1055A00002A802F0B7F9040040F06C81387B10F0DB
:1055B000020F98F80C0009D010F0020F19BF02205A
:1055C00030733146404640F04D8105E010F0020F47
:1055D0001CBF3146384603D0FDF764FC00F042B9E9
:1055E00010F0010F07D031683868FDF73BF904006F
:1055F0001FD000F037B9D8F808002B460146009AB2
:1056000000F002FB040040F02D8132682B46386820
:10561000009900F0F9FA2B46D8F80800029A009990
:1056200000F0F2FA72682B467868029900F0ECFA02
:1056300003E071687868FDF715F9B8682B460146F4
:10564000009A00F0E1FA040040F00C81DDE900125C
:105650002B46D8F8000000F0D7FA31682A68049287
:105660000198EA688346134603925A4602F085F988
:10567000002818BF04460AD19BF80700012809D169
:10568000DDE903315A461046FBF7D4FA0446002CF4
:1056900040F0E880009A2B46B868114600F0B4FA52
:1056A000009A2B46D8F80400114600F0ADFA716854
:1056B0002A680492EA68DDF808B01346039200985D
:1056C0005A4602F05AF9002804BF9BF80700012847
:1056D00005D1DDE903315A461046FBF7ABFA0198D4
:1056E0008188012902D10068006858B198F80C003F
:1056F00010F0010F17D0B168B868FDF7B3F80400D7
:105700001AD0AFE002988188012902D100680068B0
:1057100008B10220A5E02B4631463846089A00F031
:10572000D5F804469EE0B268D8F808102B46B86851
:1057300000F06AFA04007ED1B0682B460246019957
:1057400000F062FA040076D1DDE900212B4608461C
:1057500000F05AFA019A2B461046009900F054FACC
:10576000009A2B463168104600F04EFA70682B46BE
:105770000246019900F048FA02992B463268084621
:1057800000F042FA3068D5F80C800746019943468C
:105790003A46D5F800B002F0F0F8040009D1F879E3
:1057A000012808D13A46434659461046FBF742FACB
:1057B0000446002C56D1DDE90001FDF753F8EA68F4
:1057C00029680198FFF78EFB04004BD13068EF6821
:1057D000044601993B462246D5F8008002F0CDF8F8
:1057E000002804BFE079012805D122463B46414606
:1057F0001046FBF71FFA019CEF68009831683B46A2
:105800002246D5F8008002F0B8F8002804BFE079FD
:10581000012805D122463B4641461046FBF70AFACD
:10582000019A2B461046029900F0EEF9040019D1B6
:105830000198716800E015E0D5F80C800F464346EA
:105840003A46D5F800B002F098F8002804BFF8797D
:10585000012805D13A46434659461046FBF7EAF976
:10586000042030730299E868002918BF002809D085
:105870008979C28849420AEB810111440839C18003
:10588000CDF808900199E868002918BF002809D0D0
:105890008979C28849420AEB810111440839C180E3
:1058A000CDF804900099E868002918BF002809D0B5
:1058B0008979C28849420AEB810111440839C180C3
:1058C000CDF8009009B02046BDE8F08F2DE9F04FEB
:1058D00083B04FF000080746CDF80880CDF804806B
:1058E00018680E46914680791C46811C01A8DA682A
:1058F00002F010F8050040F06A812068E2688079C3
:10590000811C02A802F006F805006FF0030A40F0BF
:105910004E81C11E0198FFF7DFF9387B10F0020FAE
:105920001CBF0220307340F0328104203073B8680D
:1059300023460146029A00F067F9050040F02781EE
:10594000D7E901102346B26800F05EF9E2682168E9
:10595000B068FFF7C7FA050040F01981019AE368C3
:1059600021681046FBF766F9D9F830000168019804
:10597000FCF724FF48B1029A23461046014600F086
:1059800043F9050040F0038140E0DDE90191D4F8DE
:105990000CB038685B464A46256801F0EEFF48B90E
:1059A00099F80700012808D14A465B462946104667
:1059B000FBF740F9050040F0EA80E06800902368BA
:1059C000326838680299FFF76BFA050040F0DF8013
:1059D000DDE901122346306800F016F9050040F0B9
:1059E000D680DDE90110FCF73DFFE26821680198EF
:1059F000FFF778FA050040F0CA80E0680090029A4C
:105A0000236811460198FFF74BFA2AE0D9F83000D5
:105A1000616823460068019A00F0F6F8029A23466E
:105A20001146019800F0F0F8386823460146019AC3
:105A300000F0EAF8E0680090029A236810460199A5
:105A4000FFF72EFAE26821680198FFF74BFAE06849
:105A50000090029A236810460199FFF721FA050089
:105A60007ED1786832682346014600F0CDF8050003
:105A700076D1306823460146019A00F0C5F8E26805
:105A800021680198FFF72EFAE26821680198FFF774
:105A900029FAE26821680198FFF724FAE268216890
:105AA0003068FFF71FFAE26821683068FFF71AFADA
:105AB000D6E900122346386800F0A6F8050066D142
:105AC000029923463268084600F09EF8D6E90001A4
:105AD000D4F80C9007464B463A46D4F800B001F093
