:020000040802F0
:1000000030660120AD010208B5010208659C0208B6
:10001000B9010208BB010208BD010208000000008E
:10002000000000000000000000000000BF01020806
:10003000C101020800000000C3010208DFFF02083E
:10004000C7010208C7010208C7010208C701020868
:10005000C7010208C7010208C7010208C701020858
:10006000516B0208C7010208C7010208C701020854
:10007000C7010208C7010208C7010208C701020838
:10008000C7010208C7010208C7010208C701020828
:10009000C7010208C7010208C7010208C701020818
:1000A000C7010208C7010208C7010208C701020808
:1000B000C701020861010308C7010208C70102085D
:1000C000C7010208C7010208C7010208C7010208E8
:1000D000C7010208C7010208C7010208C7010208D8
:1000E000C7010208C7010208C7010208C7010208C8
:1000F000C7010208C7010208C7010208C7010208B8
:10010000C7010208C7010208C7010208C7010208A7
:10011000C7010208C7010208C7010208C701020897
:10012000C7010208C7010208C7010208C701020887
:10013000C7010208C7010208C7010208C701020877
:10014000C7010208C7010208C701020895E20208B8
:10015000C7010208C7010208C7010208C701020857
:10016000C7010208C7010208C7010208C701020847
:10017000C7010208C7010208C70102080000000009
:10018000C7010208C7010208DFF80CD000F0FAF836
:1001900000480047253D03083066012030BF72B695
:1001A000704762B6704780F30888704706488047FA
:1001B00006480047FEE7FEE7FEE7FEE7FEE7FEE74C
:1001C000FEE7FEE7FEE7FEE7C90003088901020833
:1001D0002DE9F05F0546002092469B46884606467C
:1001E000814640241BE0284641464746224600F00F
:1001F000B8F853465A46C01A914110D311461846D2
:10020000224600F09FF82D1A67EB01084F46224660
:100210000120002100F096F817EB00094E41201E46
:10022000A4F10104DFDC484631462A464346BDE8D6
:10023000F09F2DE9F0410024061B254671F10006D0
:1002400005DA01240027D0EB070067EB0101161E39
:1002500073F1000605DA0027D2EB0702012567EBF0
:100260000303FFF7B5FF86460E4617469C46AC4291
:1002700004D00025D0EB050E65EB010624B100206B
:10028000D2EB000760EB030C704631463A466346FA
:10029000BDE8F08100487047F05E030810B5431ACE
:1002A000934209D28318881803E010F8011D03F85F
:1002B000011D521EF9D210BD40EA01039B0703D075
:1002C00009E008C9121F08C0042AFAD203E011F895
:1002D000013B00F8013B521EF9D210BDD2B201E041
:1002E00000F8012B491EFBD270470022F6E710B53B
:1002F00013460A4604461946FFF7F0FF204610BD94
:10030000421C10F8011B0029FBD1801A704710B560
:10031000002200E0521C835C8C5CA34201D1002BC4
:10032000F8D1D8B2E1B2401A10BD30B50446002071
:10033000034600E05B1C934203D2E05CCD5C401BB3
:10034000F8D030BD202A04DB203A00FA02F1002068
:1003500070479140C2F1200320FA03F31943904003
:100360007047202A04DB203A21FA02F0002170476E
:1003700021FA02F3D040C2F120029140084319460D
:1003800070470000064C074D06E0E06840F00103AE
:1003900094E8070098471034AC42F6D3FFF7F8FE14
:1003A000F45E0308145F030870B58C1810F8015B45
:1003B00015F0070301D110F8013B2A1106D110F8FE
:1003C000012B03E010F8016B01F8016B5B1EF9D102
:1003D0002B0705D40023521E0DD401F8013BFAE788
:1003E00010F8013BCB1A921C03E013F8015B01F8F3
:1003F000015B521EF9D5A142D8D3002070BD000088
:100400002DE9F80FC04B4FF0010C4FF00508C3F871
:1004100008C0D3F808C0D3F800C0CDF800C01CF164
:10042000010C0AD04368D2F804C0006883EA0C07C4
:10043000136880EA030C63460FE0DDF800C0C3F8E0
:1004400000C01B68009353B14368D2F804C0006831
:1004500083EA0C07136843409C4664460FE0036838
:10046000D2F800C0946883EA0C074368D2F804C04D
:1004700083EA0C0C8368C0686340D4684440A34896
:100480003D0E04F0FF0950F82560CCF3074550F805
:10049000299050F8255007F0FF0A86EA3525C3F366
:1004A000072650F82AA050F826600CF0FF0B4FEA00
:1004B000364686EA396675401669C3F307496E40C9
:1004C0004FEA1C6550F8299050F82550CCF3072CC2
:1004D00085EA3925C4F3072950F82CC050F8299033
:1004E00050F82BB04FEA394989EA3A6985EA09059B
:1004F000D2F81490C4F3074A85EA09054FEA136954
:1005000050F82AA050F82990240E89EA3A29C7F316
:10051000072AC7F30747DBB250F82AA050F8244057
:1005200050F8277050F823304FEA3A4A4FEA3C4CD3
:100530008AEA3B6A84EA37248CEA336389EA0A0947
:1005400084EA030CD2F818A0D3692032A8F101087C
:1005500089EA0A098CEA0304B8F1000F69DD330E59
:10056000C5F3074C50F8233050F82CC0E7B283EAAB
:100570003C23C9F3072C50F8277050F82CC006F024
:10058000FF0A4FEA3C4C8CEA376C83EA0C03D2F842
:1005900000C050F82AA083EA0C072B0EC9F3074CC1
:1005A00050F8233050F82CC005F0FF0B83EA3C23B1
:1005B000C4F3072CC5F3072550F82CC050F825507C
:1005C0004FEA3C4C8CEA3A6C83EA0C03D2F804C044
:1005D000C4F3074A83EA0C0C4FEA196350F82AA0C7
:1005E00050F82330240E83EA3A23C6F3072AC6F3D1
:1005F000074650F8244050F8266050F82AA084EAB4
:10060000362409F0FF0650F82BB050F826604FEA68
:100610003A4A4FEA35458AEA3B6A85EA366583EA13
:100620000A036C40D2F808A0D56883EA0A036C403C
:1006300026E7374850FA84F300EB166C1B789CF8D9
:1006400000C0C9F3072743EA0C63C5F3074CC75D35
:1006500010F80CC04FEA0C4C4CEA072C43EA0C0390
:10066000D2F800C083EA0C030B6050FA86F300EB6B
:10067000156C1B789CF800C0C4F3072743EA0C6391
:10068000C9F3074CC75D10F80CC04FEA0C4C4CEA9C
:10069000072C43EA0C03D2F804C083EA0C034B6036
:1006A00050FA85F300EB196C1B789CF800C0C6F378
:1006B000072743EA0C6CC4F30743C75DC35C1B0404
:1006C00043EA07234CEA0303D2F808C083EA0C0389
:1006D0008B6050FA89F300EB146C1B789CF800C017
:1006E000C5F3072443EA0C63C6F3074CD26810F83D
:1006F0000CC0005D4FEA0C4C4CEA002018435040FF
:10070000C860BDE8F80F704700300240FC4803089D
:10071000D44603082DE9F04105460C4600F094F854
:100720002868206068686060A868A060E868E06089
:100730004448012600F5C5611034D4E900C300EB3C
:100740001C67CCF307483F7810F8088051F82770F1
:1007500051F8288087EA3827CCF3072810F808805A
:1007600051F828804FEA384850FA8CFC9CF800C0B9
:10077000D4E9022551F82CC088EA3C6C87EA0C0CBD
:10078000C4F800C000EB136CC3F307479CF800C02B
:10079000C75D51F82CC051F827708CEA372CC3F391
:1007A0000727C75D51F827704FEA374750FA83F3A0
:1007B0001B7851F8233087EA33638CEA03036360C4
:1007C00000EB1263C2F3074C1B7810F80CC051F811
:1007D000233051F82CC083EA3C23C2F3072C10F8D5
:1007E0000CC051F82CC04FEA3C4C50FA82F21278FF
:1007F00051F822208CEA32625A40A26000EB156266
:10080000C5F307431278C35C51F8222051F8233016
:1008100082EA3322C5F30723C35C51F823304FEA41
:10082000334350FA85FC9CF800C0761C51F82CC06C
:1008300083EA3C635A40E2600A2EFFF67DAFBDE8D2
:10084000F0810000D44603082DE9F003D0E900C38D
:100850008268C068184CC1E90220E1E804C30A2696
:10086000A4F5007505EB1067C0F307483F7815F84D
:10087000088047EA0867C0F3072815F808804FEAA0
:10088000084855FA80F999F8009048EA092847EA9B
:10089000080787EA0C0C54F8047B8CEA070C83EAFF
:1008A0000C035A405040C1E90220E1E804C3761E1F
:1008B000D8D1BDE8F0037047D44803082DE9F80FFC
:1008C000C04B4FF0010C4FF00608C3F808C0D3F836
:1008D00008C0D3F800C0CDF800C01CF1010C0AD04C
:1008E0004368D2F804C0006883EA0C07136880EA02
:1008F000030C63460FE0DDF800C0C3F800C01B68BE
:10090000009353B14368D2F804C0006883EA0C072F
:10091000136843409C4664460FE00368D2F800C069
:10092000946883EA0C074368D2F804C083EA0C0C8D
:100930008368C0686340D4684440A3483D0E04F017
:10094000FF0950F82560CCF3074550F8299050F87E
:10095000255007F0FF0A86EA3525C3F3072650F82D
:100960002AA050F826600CF0FF0B4FEA364686EAC4
:10097000396675401669C3F307496E404FEA1C6536
:1009800050F8299050F82550CCF3072C85EA3925EA
:10099000C4F3072950F82CC050F8299050F82BB018
:1009A0004FEA394989EA3A6985EA0905D2F814908B
:1009B000C4F3074A85EA09054FEA136950F82AA0EB
:1009C00050F82990240E89EA3A29C7F3072AC7F379
:1009D0000747DBB250F82AA050F8244050F827709F
:1009E00050F823304FEA3A4A4FEA3C4C8AEA3B6AD5
:1009F00084EA37248CEA336389EA0A0984EA030C1F
:100A0000D2F818A0D3692032A8F1010889EA0A09AE
:100A10008CEA0304B8F1000F69DD330EC5F3074C0F
:100A200050F8233050F82CC0E7B283EA3C23C9F3D6
:100A3000072C50F8277050F82CC006F0FF0A4FEA38
:100A40003C4C8CEA376C83EA0C03D2F800C050F8B7
:100A50002AA083EA0C072B0EC9F3074C50F8233069
:100A600050F82CC005F0FF0B83EA3C23C4F3072C9D
:100A7000C5F3072550F82CC050F825504FEA3C4CE0
:100A80008CEA3A6C83EA0C03D2F804C0C4F3074A38
:100A900083EA0C0C4FEA196350F82AA050F823306F
:100AA000240E83EA3A23C6F3072AC6F3074650F812
:100AB000244050F8266050F82AA084EA362409F031
:100AC000FF0650F82BB050F826604FEA3A4A4FEA3A
:100AD00035458AEA3B6A85EA366583EA0A036C4053
:100AE000D2F808A0D56883EA0A036C4026E73748A5
:100AF00050FA84F300EB166C1B789CF800C0C9F325
:100B0000072743EA0C63C5F3074CC75D10F80CC018
:100B10004FEA0C4C4CEA072C43EA0C03D2F800C015
:100B200083EA0C030B6050FA86F300EB156C1B781C
:100B30009CF800C0C4F3072743EA0C63C9F3074CD1
:100B4000C75D10F80CC04FEA0C4C4CEA072C43EA86
:100B50000C03D2F804C083EA0C034B6050FA85F30F
:100B600000EB196C1B789CF800C0C6F3072743EA1A
:100B70000C6CC4F30743C75DC35C1B0443EA072343
:100B80004CEA0303D2F808C083EA0C038B6050FAE6
:100B900089F300EB146C1B789CF800C0C5F30724A4
:100BA00043EA0C63C6F3074CD26810F80CC0005D32
:100BB0004FEA0C4C4CEA002018435040C860BDE896
:100BC000F80F704700300240FC480308D446030881
:100BD0002DE9F0410C4600F08BF84448012600F561
:100BE000C5621034D4E900C300EB1C67CCF307489E
:100BF0003F7810F8088052F8277052F8288087EA6A
:100C00003827CCF3072810F8088052F828804FEADC
:100C1000384850FA8CFC9CF800C0D4E9021552F810
:100C20002CC088EA3C6C87EA0C0CC4F800C000EBCE
:100C3000136CC3F307479CF800C0C75D52F82CC083
:100C400052F827708CEA372CC3F30727C75D52F898
:100C500027704FEA374750FA83F31B7852F8233056
:100C600087EA33638CEA0303636000EB1163C1F32B
:100C7000074C1B7810F80CC052F8233052F82CC0E7
:100C800083EA3C23C1F3072C10F80CC052F82CC0A7
:100C90004FEA3C4C50FA81F1097852F821108CEA65
:100CA00031615940A16000EB1561C5F30743097834
:100CB000C35C52F8211052F8233081EA3321C5F386
:100CC0000723C35C52F823304FEA334350FA85FCC4
:100CD0009CF800C0761C52F82CC083EA3C63594053
:100CE000E1600C2EFFF67DAFBDE8F081D44603082D
:100CF0002DE9F00F02680A60D0E900C24A60D0E92D
:100D000001328A60D0E90225CD60D0E903560E6138
:100D1000D0E904674F611B4F4069002407F5007953
:100D200007EB1068C0F3074A98F8008017F80AA08C
:100D300048EA0A68C0F3072A17F80AA04FEA0A4AE5
:100D400057FA80FB9BF800B04AEA0B2A48EA0A08E7
:100D500088EA0C0C59F82480641C8CEA080C83EA9D
:100D60000C035A40554041F818CF082CCD60C1E91A
:100D70000132A4BFBDE8F00F70476E407040C1E97A
:100D80000460CDE7D44603082DE9F80FC14B4FF0BE
:100D9000010C4FF00708C3F808C0D3F808C0D3F817
:100DA00000C0CDF800C01CF1010C7CD04368D2F823
:100DB00004C08068946883EA0C039C4680EA0407B8
:100DC0006446B5484FEA1C65C7F3074650F82550FE
:100DD00050F8266004F0FF0985EA3625C3F307269C
:100DE00050F8299050F826600CF0FF0A4FEA36467A
:100DF00086EA39666E401569C3F307496E403D0EB9
:100E000050F8299050F8255050F82AA085EA392545
:100E1000C4F3072907F0FF0B50F8299050F82BB0C6
:100E20004FEA394989EA3A6985EA09095569C4F3FB
:100E3000074A89EA05054FEA136950F82AA050F8D5
:100E40002990240E89EA3A29CCF3072ACCF3074CDF
:100E500050F8244050F82CC0DBB284EA3C2CC7F395
:100E6000072450F82AA050F8244050F823304FEAC5
:100E70003A4A4FEA34448AEA3B6A84EA336389EAAD
:100E80000A098CEA0303D2F818A0D2F81CC0203259
:100E9000A8F1010889EA0A0983EA0C04B8F1000FF5
:100EA0007BDD330E00E065E0C5F3074C50F82330DE
:100EB00050F82CC0E7B283EA3C23C9F3072C50F862
:100EC000277050F82CC006F0FF0A4FEA3C4C8CEA21
:100ED000376C83EA0C03D2F800C0C9F3074783EAF2
:100EE0000C0C2B0E50F8277050F8233050F82AA025
:100EF00083EA3723C4F3072705F0FF0B50F8277068
:100F0000C5F307254FEA374787EA3A677B405768BA
:100F1000C4F3074A5F404FEA196350F82AA050F81B
:100F20002330240E83EA3A23C6F3072AC6F3074682
:100F300050F8244050F8266050F82AA084EA36245D
:100F400009F0FF0650F8255050F82BB050F82660F5
:100F50004FEA3A4A4FEA35458AEA3B6A85EA3665FE
:100F600083EA0A036C40D2F808A0D56883EA0A0332
:100F70006C4027E7DDF800C0C3F800C01B68009391
:100F800063B14368D2F804C08068946883EA0C0CAB
:100F900080EA04076346644613E70FE00368D2F86B
:100FA00000C0546883EA0C0C436883EA0407836832
:100FB0009468C0686340D468444002E7374850FAF8
:100FC00084F300EB166C1B789CF800C0C9F307276C
:100FD00043EA0C63C5F3074CC75D10F80CC04FEA39
:100FE0000C4C4CEA072C43EA0C03D2F800C083EA0D
:100FF0000C030B6050FA86F300EB156C1B789CF821
:1010000000C0C4F3072743EA0C63C9F3074CC75D6C
:1010100010F80CC04FEA0C4C4CEA072C43EA0C03C6
:10102000D2F804C083EA0C034B6050FA85F300EB5E
:10103000196C1B789CF800C0C6F3072743EA0C6CB8
:10104000C4F30743C75DC35C1B0443EA07234CEAB0
:101050000303D2F808C083EA0C038B6050FA89F3CB
:1010600000EB146C1B789CF800C0C5F3072443EA1E
:101070000C63C6F3074CD26810F80CC0005D4FEA51
:101080000C4C4CEA002018435040C860BDE8F80FF3
:101090007047000000300240FC480308D4460308B3
:1010A0002DE9F0410C4600F08BF84448012600F58C
:1010B000C5621034D4E900C300EB1C67CCF30748C9
:1010C0003F7810F8088052F8277052F8288087EA95
:1010D0003827CCF3072810F8088052F828804FEA08
:1010E000384850FA8CFC9CF800C0D4E9021552F83C
:1010F0002CC088EA3C6C87EA0C0CC4F800C000EBFA
:10110000136CC3F307479CF800C0C75D52F82CC0AE
:1011100052F827708CEA372CC3F30727C75D52F8C3
:1011200027704FEA374750FA83F31B7852F8233081
:1011300087EA33638CEA0303636000EB1163C1F356
:10114000074C1B7810F80CC052F8233052F82CC012
:1011500083EA3C23C1F3072C10F80CC052F82CC0D2
:101160004FEA3C4C50FA81F1097852F821108CEA90
:1011700031615940A16000EB1561C5F3074309785F
:10118000C35C52F8211052F8233081EA3321C5F3B1
:101190000723C35C52F823304FEA334350FA85FCEF
:1011A0009CF800C0761C52F82CC083EA3C6359407E
:1011B000E1600E2EFFF67DAFBDE8F081D446030856
:1011C0002DE9F04FD0E902C2D0E90054C1E902C2D2
:1011D000C1E90054D0E90487C1E90487D0E9066376
:1011E000C1E906632B484FF0000900BF00EB136A0A
:1011F000C3F3074B9AF800A010F80BB04AEA0B6A49
:10120000C3F3072B10F80BB04FEA0B4B50FA83FED9
:101210009EF800E020314BEA0E2B4AEA0B0A8AEADC
:10122000050A1D4D55F8295009F101098AEA0505FD
:101230006C408CEA040C82EA0C02C1E902C2C1E9EA
:101240000054B9F1070FA8BFBDE8F08F50FA82FA39
:101250009AF800A000EB126BC2F3072E9BF800B0C7
:1012600010F80EE04AEA0B6AC2F3074B10F80BB015
:101270004FEA0B4B4BEA0E2B4AEA0B0A8AEA0808A4
:1012800087EA08077E407340C1E90663C1E9048725
:10129000ACE70000D4460308D44803082DE9F04722
:1012A00084B01F46DDF830A091468846060018BF7E
:1012B000B8F1000F0FD0002F18BFBAF1000F0AD0FD
:1012C000B9F1000F02DD19F00F0F09D004B040F69C
:1012D0001D40BDE8F08704B04FF44260BDE8F087E0
:1012E000307910F0020F13BF40F61E4000246D4607
:1012F00004B018BFBDE8F0875FF0000004EB800188
:1013000058F8011009BA45F82010401C0428F5DBF4
:10131000736A6846014606F12802182B04D0202B78
:1013200005D0FFF76DF804E0FFF7C8FA01E0FFF71A
:101330002BFD4FF0000C00BF55F82C0004EB8C0186
:1013400000BA0CF1010C7850BCF1040FF4DB10343E
:101350004C45D1DBCAF8004004B00020BDE8F0875E
:10136000002812BF002A4FF442607047017941F013
:10137000020101710020106070470223AFF300806A
:10138000002818BF002905D003F0060C2AB9BCF1CB
:10139000020F02D04FF4426070472DE9F043446AD7
:1013A00089B0102C1CBF182C202C06D1BCF1020FC8
:1013B00008D00469641E102C04D309B040F61F4005
:1013C000BDE8F083C2600479BCF1020F24F006048A
:1013D000047149D0002444618461C46104620569D8
:1013E000002DD8BF4FF0000C06DD15F0010C03D026
:1013F000167844EA066444616545C8BF182433DDA5
:101400004FEAEC750CEB957525F003063718ACEB3D
:10141000060607F1140512F80C8076427F6904EB8A
:10142000C60608FA06F63E432E600CF10107FE17C9
:1014300007EB967525F0030606EB000802EB0C0996
:10144000BE1B08F1140599F801907642D8F8148073
:1014500004EBC60609FA06F648EA06062E60056998
:101460000CF1020C6545CBDC027912F0010F55D16D
:10147000816013F0010F0DD006229A430AD0426A10
:101480000B4600F128014FEAE27C00206C4602EB9B
:101490009C7C2FE000F1280C426A0020D3176C4698
:1014A00002EB937306E000BF51F820502DBA44F8C8
:1014B0002050401CB0EBA30FF6DB102A04D0182AF2
:1014C00007D0202A2AD109E061462046FFF7BCF95F
:1014D00024E061462046FFF70BFC1FE061462046F2
:1014E000FFF76EFE1AE000BF53F820502DBA44F803
:1014F0002050401CB0EBAC0FF6DB102A07D0182AA6
:1015000009D0202A04BF2046FFF7CAFD06E0204686
:10151000FFF700F902E02046FFF75AFB09B0002070
:10152000BDE8F08300B587B000BF1148006840F007
:1015300002000F4908600846006800F002000190B0
:1015400000BF00BF4FF440700290032005901120AF
:1015500003900020049002A9064805F0D1FF012065
:10156000054908600549C1F8A40207B000BD0000A4
:101570003038024000040240A082404200804042D5
:1015800070B504460E460EF089FBC9200DF026FD0D
:101590001648006808B1EA2070BD0DF093F820707D
:1015A000002000F011FD2578042D01DBB54203DD9C
:1015B0000EF0A0FBE420EFE7681EC5B2641C0EE04D
:1015C0000DF080F804F8010B681EC0B2050003D0CE
:1015D000002000F0F9FC02E0012000F0F5FC002DF5
:1015E000EED10EF087FB0020D6E700007801002046
:1015F00070B504460D460EF051FBC8200DF0EEFC10
:101600000B48006808B1EA2070BD0AE020780DF0B0
:10161000E5FC0748006808B1F720F5E7641C681E80
:10162000C5B2002DF2D10EF065FB0020ECE7000002
:101630007801002070B504460025E126204611F00F
:10164000FFFC06460EB9012500E00025284670BDC6
:1016500010B5002004490860502011F015F9012050
:101660000249C1F8A40210BDA48240420080404259
:101670002DE9F04194B004460D4616464FF001089E
:10168000E12700BF12F0D9FE10B94FF0000828E0A2
:1016900011A811F02FFD074617B14FF0000820E008
:1016A000242108A8FEF721FE40208DF80400ADF8A3
:1016B0000640029500200390049011A80590002098
:1016C000069008A80790BDF806109DF80400334660
:1016D000029A11F048FC074617B14FF0000800E0ED
:1016E00000BF00BF404614B0BDE8F0812DE9FC41C9
:1016F00004460D460026002700BF12F09EFE08B9E2
:1017000000BF0EE0202000231A462146CDE90050FC
:10171000022011F010FD07460FB1002600E001265F
:1017200000BF00BF3046BDE8FC812DE9FC47044600
:101730000D4616461F464FF00008C14600BF12F086
:101740006BFE08B900BF11E02B46002221460220A3
:10175000CDE9006711F0D9FD8146B9F1000F02D043
:101760004FF0000801E04FF0010800BF00BF404605
:10177000BDE8FC8730B587B00024002500BF2748AE
:10178000006840F00400254908600846006800F041
:101790000400019000BF00BF042002902048039085
:1017A0000120049002A91F4805F0AAFE082002901B
:1017B0000120039004900320059002A9194805F028
:1017C0009FFE03220121082006F011F8082006F0F0
:1017D00001F809F089F909F0F5FA00F0ABF80520F5
:1017E00005F0A2FD002009F00DF9044621460EA0E7
:1017F00011F03AF800F066FA012011490870002053
:101800001049087010490870012009F0FBF80546DE
:1018100029460EA011F028F807B030BD303802403C
:10182000000021100008024041573931333620634F
:101830006869702049443A30782534780D0A0000F0
:101840007C0100207D0100207E01002041573931BC
:101850003336204743523A307825780D0A0000008D
:1018600010B54FF44C51572009F0F0F803215820DF
:1018700009F0ECF81C21502009F0E8F8FC21552073
:1018800009F0E4F84FF42241612009F0DFF84FF449
:101890002341612009F0DAF84FF42441612009F076
:1018A000D5F80321012009F0D1F810BD10B54FF48F
:1018B0004C51572009F0CAF80321582009F0C6F806
:1018C0001C21502009F0C2F8FC21552009F0BEF877
:1018D0004AF2FF21612009F0B9F84AF2FF31612094
:1018E00009F0B4F84AF2FF41612009F0AFF8032192
:1018F000012009F0ABF810BD10B5322009F082F8D4
:101900000446204610BD000010B5094800680128B3
:1019100002D0022806D102E000F0B4FA03E000F0A1
:101920005BFA00E000BF00BFFFF7E6FF10BD00005C
:101930008C01002010B500220821074805F0ECFEBC
:10194000052005F0F1FC01220821034805F0E4FE22
:101950000A2005F0E9FC10BD0008024030B58FB048
:10196000D148007860B9132009F04CF80190142098
:1019700009F048F80290152009F044F803900BE0B4
:10198000002407E0C94850F8240001A941F82400C8
:10199000601CC4B2032CF5DB03211E2009F056F8AD
:1019A000002409E004F13601C8B209F02BF807A9B8
:1019B00041F82400601CC4B2062CF3DB022009F0BD
:1019C00021F80546002410E0B948007808B9002045
:1019D00006E0B84850F8240007A951F8241008443C
:1019E000B44941F82400601CC4B2062CECDBB048BA
:1019F000007801286FD10024DBE00120A0402840BE
:101A0000002869D1AB4850F824004FF47A71B1EB4B
:101A1000A00F70DD204604EBD0714910A4EB41010A
:101A200099B1611001AA32F8211001F47F41B1F59A
:101A3000805F0AD1601001A911F82000611042F8FE
:101A4000210002200DA908559CE0204604EBD0712E
:101A50004910A4EB410151B1611001AA32F82110E3
:101A600001F47F4119B900200DA908558AE02046EC
:101A700004EBD0714910A4EB410191B9611001AAA6
:101A800012F8211010290CD1601001A931F82000A2
:101A900000F47F40611042F8210002200DA9085592
:101AA00070E0204604EBD0714910A4EB410141B92C
:101AB000611001AA12F8211019B900200DA90855CA
:101AC00060E0204604EBD0714910A4EB410121B144
:101AD0004FF4807102E0D7E069E00121621001ABB0
:101AE00053F82220511A621043F8221002200DA947
:101AF000085547E0FFE76F4850F8240040F6B8313A
:101B0000B1EBA00F3BDA204604EBD0714910A4EBF7
:101B1000410161B1611001AA32F8211001F47F4145
:101B2000B1F5F85F03D100200DA908552AE0204641
:101B300004EBD0714910A4EB410149B9611001AA2D
:101B400012F821101F2903D100200DA9085519E012
:101B5000204604EBD0714910A4EB410111B14FF4C0
:101B6000807100E00121621001AB53F82220114482
:101B7000621043F8221001200DA9085502E0002050
:101B80000DA9085548480078002810DD0DA8005D13
:101B90004949095D88420AD000200DA90855601006
:101BA000424951F82000611001AA42F82100601C4E
:101BB000C4B2062CFFF621AF002040490870002473
:101BC0000BE00120A040284028B90DA8005D10B10D
:101BD00001203A490870601CC4B2062CF1DB37487A
:101BE000007830B93048007818B9002034490870BE
:101BF00002E00120324908703048007830B90020F6
:101C0000294908702A4908700FB030BD0021012011
:101C100008F01CFF00240AE001AA32F8242091B247
:101C200004F11302D0B208F011FF601CC4B2032CFF
:101C3000F2DB0321012008F009FF1B48007803288C
:101C400007D100201D49087017490870184908700D
:101C5000DAE7002405E00DA8005D17490855601C6F
:101C6000C4B2062CF7DB002407E001A850F82400DA
:101C70000E4941F82400601CC4B2032CF5DB0A486D
:101C80000078401C0849087009480078012805DAE6
:101C900007480078401C0649087002E0002004490B
:101CA00008700120B0E700007D010020C44301203E
:101CB0007E010020DC430120800100207C01002007
:101CC0007F01002010B50021012008F0BFFE1C217B
:101CD000502008F0BBFE0021512008F0B7FE4FF461
:101CE0004C51572008F0B2FE0321582008F0AEFEF8
:101CF0000021592008F0AAFE00215A2008F0A6FE73
:101D000000215B2008F0A2FEA121522008F09EFED7
:101D10004FF4C051182008F099FE2321022008F04A
:101D200095FE8421112008F091FE40F287211220B7
:101D300008F08CFE41F21111142008F087FE41F2E8
:101D40001111152008F082FE42F228310C2008F013
:101D50007DFE42F228310D2008F078FE42F2283153
:101D60000E2008F073FE40F202211B2008F06EFEE8
:101D700040F202411C2008F069FE1C21072008F0F7
:101D800065FE8021032008F061FE0521192008F07E
:101D90005DFE0021212008F059FE0021202008F0DE
:101DA00055FE0021272008F051FE00212C2008F0CC
:101DB0004DFE0021222008F049FE00212D2008F0D0
:101DC00045FE0321012008F041FE02200149086080
:101DD00010BD00008C01002070B527480078D8B1F4
:101DE000FFF7BCFD24480078A8B92448007818B152
:101DF0000021012008F02AFE1C21032008F026FE05
:101E000000212D2008F022FE1C48007818B1032183
:101E1000012008F01BFE70BD1948006828BB322065
:101E200008F0F0FD0546312008F0ECFD044605F011
:101E3000100040B114B900F08FF81BE0102C19D13C
:101E400000F089F816E005F0080040B114B900F080
:101E500081F80FE0082C0DD100F068F80AE005F0D9
:101E6000040010B114B900F09DF803E0042C01D176
:101E700000F084F800BFCEE77C0100207F01002045
:101E80008801002010B51B480078D8B1FFF766FD27
:101E900018480078A8B91848007818B10021012026
:101EA00008F0D4FD0021032008F0D0FD10212D20E2
:101EB00008F0CCFD1048007818B10021012008F08E
:101EC000C5FD10BD0D48006888B92E2008F09AFDA8
:101ED0000446102C02D100F013F808E0012C02D1C6
:101EE00000F062F803E0022C01D100F037F800BFE7
:101EF000E7E700007C0100207F010020880100202E
:101F000010B502A010F0B0FC10BD000041573931EF
:101F100033362063656E74657220646F75626C651C
:101F200020636C69636B200A0000000000B508485C
:101F3000007800F0010030B10548007820F008007A
:101F400008300349087050200BF0A2FD00BD0000CE
:101F500035010020704770477047000010B502A09F
:101F600010F082FC10BD0000415739313336206C2F
:101F700065667420736C6970200A000000B508481B
:101F8000007800F0010030B10548007820F0020030
:101F9000801C0349087050200BF07AFD00BD000042
:101FA000350100207047000010B502A010F05CFC65
:101FB00010BD0000415739313336207269676874AB
:101FC00020736C6970200A0010B50446094804604B
:101FD000032010F059FC01200749C1F8A002042099
:101FE00010F052FC00200349091F0860022010F085
:101FF0004BFC10BDA4824042008040422DE9F843D2
:102000000024884600940646817998F80600914697
:102010001D46814288BF0846411C1A4668460DF09D
:1020200009FE00281CBF40F2ED30BDE8F8834146B0
:10203000304600F0B9FBC01C0127072862D2DFE858
:1020400000F03E2D25352D2504004046009900F076
:1020500055FC00993046CC7100F0A6FBB0F1FF3F73
:1020600004D000284BD002284CD107E0314640462E
:10207000009A0DF0DAFE0098C77143E04146304601
:10208000009A0DF0D2FE0098C4713BE04146304604
:10209000009A00F053F80098C47133E0414630468E
:1020A000009A00F04BF80098C7712BE0414630468B
:1020B000009A00F043F80099F079C87122E03046A8
:1020C000009900F01BFC00984146C47100F06CFBC5
:1020D000B0F1FF3F03D090B1022813D107E03146A1
:1020E0004046009A0DF0A1FE0098C4710AE04146F6
:1020F0003046009A0DF099FE0098C77102E00098F2
:102100000DF00EF90021484608F028FE49460098D7
:1021100000F0F4FB0099002914BF002DBDE8F883FE
:10212000EA8889796FF00303494203EB8101114486
:102130000839E9800094BDE8F88300002DE9F84FE4
:102140000B46D0F800B0096800910025B0F804C033
:102150009E88176891462C46B44598BF664681799B
:102160004FF0010E4FF000088C4532D8A1EB0C0166
:10217000002201F1010ABAF1000F2ADD3EEA010155
:102180001CBF4BF82C80012290F806C0B0F804A0C8
:10219000ACEB0A0C0CF1010C8C451AD91FFA8AFA27
:1021A000D0F800C09244521C4CF82A80B0F804A029
:1021B000D0F800C09244521C4CF82A8090F806C017
:1021C000B0F804A0891CACEB0A0C0CF1010C8C4596
:1021D000E4D8B3F804C099798C4534D8A1EB0C014C
:1021E000002201F1010ABAF1000F2CDD3EEA0101E3
:1021F00003D01A6842F82C80012293F806C0B3F885
:1022000004A0ACEB0A0C0CF1010C8C451BD900BFEF
:102210001FFA8AFAD3F800C09244521C4CF82A8064
:10222000B3F804A0D3F800C09244521C4CF82A80A2
:1022300093F806C0B3F804A0891CACEB0A0C0CF1AF
:10224000010C8C45E4D881889A889142494638BF70
:10225000184600F053FB002E48D00098ABF1040361
:10226000021F391F16F0010F0DD053F804CF52F89A
:10227000040F1CEB000048EB080C40194CEB040564
:1022800041F8040F44465FEA560C1BD0D3F804A073
:1022900050681AEB000048EB080A45194D604AEBFC
:1022A000040053F808AF52F8085F1AEB050548EB35
:1022B0000804281844EB080541F8080F4446BCF10F
:1022C000010CE3D195B157F82600401C47F82600D1
:1022D00007E0761C07EB86000168491C016057F88F
:1022E000260018B9B9F80400B042F2D2B9F80400D7
:1022F00057F8201000291CBF401CA9F80400BDE8B5
:10230000F88F00002DE9F041B4B080460E46174624
:102310001D4664211BA8FDF7E8FF642102A8FDF714
:10232000E4FF0020019002AA3146404607F05EFD1E
:10233000710001AB1BAA02A807F0B8FC18B9012074
:1023400034B0BDE8F0811BA8019900F069FF08B91D
:102350000220F5E70748FDF7D3FF2860002403E0DB
:102360000448005D3855641C2868A042F8DC002051
:10237000E6E7000070380020F0B5AFB006460F4623
:10238000154600202E9020202D90112101A8FDF748
:10239000ACFF2D480068009020210BA8FDF7A5FF99
:1023A000142106A8FDF7A1FF28213846FDF79DFF5F
:1023B000212D04D0412D02D001202FB0F0BD212DC0
:1023C00016D1E8B28DF89000AC2124AA681C1154F3
:1023D000002404E0315D24AA601C1154641CAC424A
:1023E000F8DB2DAB0BAAA91C24A800F04DF815E0D2
:1023F000E8B28DF84C00AC2113AA681C11540024DB
:1024000004E0315D13AA601C1154641CAC42F8DB7B
:102410002DAB0BAAA91C13A800F036F806A90BA82F
:102420000CF09EF9002405E006A8015D601C0DF883
:102430000010641C142CF7DB2EAB3A4615216846BD
:1024400000F092F8B9E700002C4603082DE9F041AE
:1024500006460C461546611C304603F071FF0746E0
:102460006DB194F8400000EBD0714910A0EB410130
:1024700011B10320207004E00220207001E004204C
:1024800020703846BDE8F0812DE9F04104460D4644
:1024900016461F4600F099FA3B463246294620462A
:1024A00006F0B6FE80464046BDE8F08130B50346F2
:1024B0000C46002106E0585C655CA84201D0002073
:1024C00030BD491C9142F6DB0120F9E72DE9F047C8
:1024D00004460D4616464FF0000AD046C1463BE082
:1024E0002046E11704EB9171C1F3870716F8080045
:1024F000203800F0FF0A3D2F08DD00242046E117B8
:1025000004EB91718F1005F11000C5B207F11D02A7
:10251000D1B2521ED0B20CF026FF05F10F00C1B2AD
:1025200028460CF030FF0CF03EFF4FF0000909E0A8
:1025300009EB0A110B4A505C00F089F909F101001E
:1025400000F0FF09B9F1100FF2DB08F1010000F013
:10255000FF0804F10800C4B216F808000028BFD133
:10256000BDE8F087900100202DE9F041ADF58D6DBB
:102570000646884617461D464FF4007183A8FDF7AE
:10258000B4FE4FF4007103A8FDF7AFFE20200290C7
:102590000020019002AB0DF22C4241463046FFF77D
:1025A00073FF02AB0DF20C4220210DF22C40FFF71D
:1025B0006BFF002404E0305D0DF24C410855641CB3
:1025C000152CF8DB002408E00DF20C40015D04F14D
:1025D00015000DF24C421154641C042CF4DB03AAC8
:1025E00019210DF24C4007F001FC01AB83AA322106
:1025F00003A807F05BFB20B901200DF58D6DBDE848
:10260000F08183A8019900F00BFE08B90220F4E7DD
:102610000748FDF775FE2860002403E00448005DCC
:102620003855641C2868A042F8DC0020E5E700006B
:102630007038002070B485880468012D02BF2368BB
:10264000002B012312D0AB006FF0030606EB8505CB
:102650004FF07F4C54F8054014EA0C0F06D1BCF142
:10266000000F1CBF4FEA1C2C5B1EF5D1DC174FF08E
:10267000000C03EB94740CE00568CCF1000603EB4E
:10268000860655F82C500E442DBA46F8045C0CF121
:10269000010CBCEBA40FEFDB13F0030F1FD000689D
:1026A00003F0030503F0030450F82C0013F0010CB1
:1026B00003D00D4405F8010C000AA4EB0C0CBCF18E
:1026C000000F0CDD01EB0C04ACF1020C04F8010C62
:1026D000000A04F8020C000ABCF1000FF2DC002A28
:1026E00018BF136070BC7047002812BF002941F268
:1026F000B8407047F8B50F46818800241646012976
:1027000005D102681268002A08BF012312D08B008D
:102710006FF00305026805EB81014FF07F4C5558BF
:1027200015EA0C0F06D1BCF1000F1CBF4FEA1C2CA0
:102730005B1EF5D10093B342C4BF41F2B540F8BD72
:10274000B919C91A6A46FFF775FF0098311A0029AE
:102750000EDD781E11F0010F18BF00F8014F00992F
:10276000711A491004D0447000F8024F491EFAD182
:102770000020F8BD0020704702480349086000208F
:1027800070470000E81F0020E000002070B50446FC
:102790000D460449D1F8180240210EF0E5FE002054
:1027A00070BD0000E81F002070B490F907C091F9D7
:1027B000072094453FD183888C880122A34204BF1F
:1027C0000068096803D9BCF1000F27D022E003D2CA
:1027D000BCF1000F2BD027E09D1AA61A50F8255007
:1027E00051F82660B54204D1934224BF521C934253
:1027F000F2D2551EAB4202BF002070BC70479B1A3C
:10280000A21A50F8230051F82210884209D9BCF1CD
:10281000000F03D070BC6FF00100704770BC022045
:102820007047BCF1000F02D070BC0120704770BC33
:102830004FF0FF307047BCF1010F05D1002A02BFF5
:102840006FF0020070BC7047032070BC70472DE928
:10285000FC410646354600244CE005F0C008B8F1BE
:10286000000F09D0B8F1400F0AD0B8F1800F0BD09B
:10287000B8F1C00F10D10BE0002001A908550CE001
:102880000F2001A9085508E0F02001A9085504E02F
:10289000FF2001A9085500E000BF00BFA806050EF3
:1028A00005F0C00737B1402F08D0802F0AD0C02FC5
:1028B00010D10BE000200DF804000CE00F200DF803
:1028C000040008E0F0200DF8040004E0FF200DF8FB
:1028D000040000E000BF00BFA806050E01A9085DC6
:1028E00001210BF093FC1DF8040001210BF08EFC7C
:1028F000601CC4B2022CB0DBBDE8FC8170B48388DC
:102900008A7900249A4209D202F1010C9C4537BF12
:1029100041F2B54041F2B54470BC7047C279CA710A
:1029200000228B80002B09DDD0F800C00D685CF818
:1029300022C045F822C0521C9342F5DC8879801AE7
:10294000431C002B26DD01234FF0000C33EA00006E
:10295000634605D0D1F800C04CF822304FF0010C8E
:102960008D79AD1A6D1C854214DD00BF0D6802EB38
:102970000C060CF1010C45F826300D6802EB0C0634
:10298000801C45F826308D790CF1010CAD1A6D1CB8
:102990008542EBDC204670BC704782880368012AC0
:1029A00001BF186800280120704750016FF0030C28
:1029B0000CEB82024FF000419A5831EA02031EBF2D
:1029C00000294908401EF8D17047012108030BF087
:1029D0004BBD00002DE9F04F85B09846DDF838B0CA
:1029E00092468946070018BFB9F1000F09D0B8F127
:1029F000000F18BFBBF1000F03D01AF0070F05D06E
:102A000007E005B040F6E840BDE8F08FBAF1080FE6
:102A100004DA05B040F6E540BDE8F08F387910F0F3
:102A2000020F1EBF40F6E64005B0BDE8F08F00255E
:102A300002AE6C465FF0000005EB800159F8011012
:102A400009BA46F8201044F82010401C0228F3DB95
:102A500007F11C01684610F0DDFD002007EB800146
:102A600054F820204B695A4044F8202056F8202082
:102A70004A6154F8201005EB800209BA401C48F85E
:102A800002100228EADB08355545D3DBCBF800A05D
:102A900005B00020BDE8F08F002812BF002A40F6E4
:102AA000E8407047017941F0020101710020106097
:102AB0007047052300F060B82DE9F0471E46DDF8A9
:102AC000209090460F46040018BF002F08D0002E1B
:102AD00018BFB9F1000F03D018F0070F04D006E0BB
:102AE00040F6E840BDE8F087B8F1080F03DA40F699
:102AF000E540BDE8F087207910F0020F16BF40F6E0
:102B0000E6400025BDE8F0875FF0000005EB80039C
:102B100004EB8001FB584A691BBA5A40401C4A61C9
:102B20000228F3DB04F11C0104F1140010F072FD23
:102B30005FF0000004EB800105EB80024969401C56
:102B400009BAB1500228F5DB08354545DCDB002029
:102B5000C9F80080BDE8F087002812BF002A40F6BF
:102B6000E8407047017941F00201017100201060D6
:102B700070470423AFF300802DE9F0470C465FEA6D
:102B8000000C18BF002C04D003F006002AB902285C
:102B900003D040F6E840BDE8F087CCF80C209CF864
:102BA0000410022821F006018CF804104FD0DCF844
:102BB0001010481E102824BF40F6E740BDE8F087FB
:102BC0000025CCF81450CCF818500029D8BF0020AC
:102BD00007DD11F0010004D0167845EA0665CCF84F
:102BE00014508142C8BF182131DDC51700EB95751F
:102BF00025F0030606EB0C07861B07F1140512F8F7
:102C0000008076427F6901EBC60608FA06F63E436D
:102C10002E60461CF71706EB977525F0030702EBAD
:102C2000000907EB0C08F61B08F1140599F8019050
:102C30007642D8F8148001EBC60609FA06F648EA8F
:102C400006062E60DCF81050801C8542CDDC9CF816
:102C5000040010F0010F08D103F001010CF11C0277
:102C60002046CCF8084010F0C3FD0020BDE8F087F6
:102C70002DE9F04FADF5017D91460D4680461E468B
:102C8000B0225A4950A8FDF709FB0024202E1EBF90
:102C90006FF003000DF5017DBDE8F08F05F1190718
:102CA00017F00F0F04D007F00F00C0F110042744F5
:102CB00028BA049030BA05902A4641466E4606A8C6
:102CC000FDF7ECFA802170194FF0000801766CB125
:102CD000183014F0010F18BF00F8018F610805D0FB
:102CE00080F8018000F8028F491EF9D1CDF80080EC
:102CF000CDF80480CDF80C800024CDF808800DF5C7
:102D0000A07B6E461CADCDF87080CDF87480CDF8F8
:102D10007880CDF87C80B8EB171F38BF0DF5F87AB6
:102D200017D200205FEA041101EB800255F8203031
:102D3000B25812BA5A404AF82020401C0428F3D353
:102D40005A4629467CA8FDF75BFB641CB4EB171FB1
:102D5000E7D39DF803000024401C8DF803000DF517
:102D6000A07B6E460DF1700A20ADCDF88080CDF8C5
:102D70008480CDF88880CDF88C80B8EB171F38BFE1
:102D80000DF5F87817D200205FEA041101EB8002FC
:102D900055F82030B25812BA5A4048F82020401C4A
:102DA0000428F3D35A4629467CA8FDF729FB641C66
:102DB000B4EB171FE7D324A91CA8FDF745FD24AAEF
:102DC00049460AF11000FDF71BFB99E80F0020AC03
:102DD0000FC424AA09F110010AF11000FDF710FB3D
:102DE0000DF5017D0020BDE8F08F00007C5D03083B
:102DF0002DE9F04188B016468846044600256F4606
:102E0000E068401CE0600AD1A068401CA06006D1C8
:102E10006068401C606002D12068401C206007EBA5
:102E2000051142462046FDF7EBFA6D1C022DE7DB4B
:102E3000009831684840206101987168484060619D
:102E40000298B1684840A0610398F1684840E06189
:102E50000498316948402060059871694840606075
:102E60000698B1694840A0600798F1694840E06061
:102E700008B0BDE8F08170B503460C460021002083
:102E800010E0165C451C555D46EA0526851C555D1F
:102E900046EA0546C51C555D46EA056543F82150DE
:102EA000491C001DA142ECDB70BD70B50346144601
:102EB0000020002215E011F820509D5431F82050D8
:102EC000C5F30726551C5E5551F82050C5F307463B
:102ED000951C5E5551F820502D0ED61C9D55401C5A
:102EE000121DA042E7DB70BD2DE9F041FAB00026CB
:102EF000002788212EA8FDF7F8F9B6480CF008F84D
:102F000000287CD0B4480CF003F886B2B248001D0B
:102F10000BF0FEFFC7B2202272A9AF4808300BF0B9
:102F2000FAFF882250A9AB480BF0F5FF622215A9E1
:102F3000AA480BF0F0FF04200BF0CAFF9DF84001F7
:102F40008DF8B8009DF841018DF8B9009DF8420157
:102F50008DF8BA009DF843018DF8BB009DF844013F
:102F60008DF8BC009DF845018DF8BD0019220DF5C6
:102F7000A3710DF1BE00FDF791F919220DF25F1159
:102F80000DF1D700FDF78AF920225EA93CA8FDF7D4
:102F900085F9202266A944A8FDF780F99DF8B801BB
:102FA00000239DF8B921190241EA12614FEA022C6F
:102FB0001A4640EA0C0311439DF8BA210020000490
:102FC00040EA124C43EA024041EA0C019DF8BB3151
:102FD0000022120642EA132C40EA036241EA0C0185
:102FE0009DF8BC0101439DF8BD010302084611464E
:102FF00018439DF8BE214FEA024C0A4600E0E1E08A
:1030000040EA0C009DF8BF1140EA01604C924D90DF
:103010009DF8C01100239DF8C1011A0242EA106216
:103020004FEA002C08461946134640EA0C021943A1
:103030009DF8C2310020000440EA134042EA0342F6
:1030400001439DF8C3310020000640EA132042EA04
:10305000036201439DF8C40101439DF8C50141EAA3
:1030600000209DF8C6110B04114618439DF8C72196
:1030700040EA02604CAAC2E9021020230DAA622194
:1030800015A80BF0F5FD9DF8B800802814D002F0CB
:1030900021FD0446012C07D1314640F2014006F0E3
:1030A00014FD7AB0BDE8F081022C05D1314640F222
:1030B000015006F00AFDF4E7282103A8FDF715F9F1
:1030C000002002909DF8BD0028B9314640F203303F
:1030D00006F0FBFCE5E79DF8BD00012801D10025C5
:1030E00021E09DF8BD00022817D119220DF1BE0183
:1030F00072A8FFF7DBF908B1012514E019220DF1E0
:10310000D70172A8FFF7D2F908B100250BE03146CC
:1031100040F2013006F0D9FCC3E7314640F20230FC
:1031200006F0D3FCBDE705EBC50101EB05120DF17F
:10313000BE01501802AB03AA1921FFF7E3F8781E6D
:1031400000EB800202EB4010254A02EB40012A46C8
:103150002EA802F075FB044624BB4FF480312148B1
:10316000FDF7C3F8622215A91E48FDF797F80BF08A
:10317000A3FA1D49488120200090084641890DABE3
:10318000622240F2011006F0CDFC0F2004F0CCF8D2
:1031900020200DAB62223146009040F2A52006F0BF
:1031A000C1FC0EE0012C05D1314640F2014006F091
:1031B0008CFC06E0022C04D1314640F2015006F0AE
:1031C00084FC04E0314640F2033006F07EFC00BF90
:1031D00067E7000000F0010800FE010800F80108A0
:1031E000FC41012098380020D041012000B585B075
:1031F0004FF4C05000900120019000200290032065
:1032000003906946054804F07BF900224FF4C05151
:10321000024804F081FA05B000BD00000000024041
:103220002DE9F047ADF5367D06460F464FF0000814
:103230000020B59064219CA8FDF757F86422374917
:1032400083A8FDF72BF84FF4007103A8FDF74DF8A4
:1032500028213348FDF749F8002403E0305D9CA99C
:103260000855641CBC42F9DB00BF9CA8FDF748F878
:10327000814683A8FDF744F88246B5A803A95346C2
:1032800083AACDE9001049469CA810F0B7F805467E
:103290004FF6FF70854204D100200DF5367DBDE864
:1032A000F08764219CA8FDF720F8002404E003A81F
:1032B000005D9CA90855641CAC42F8DB022D0AD1C4
:1032C0009DF80D109DF80C00303800EB800001EBEC
:1032D0004000A0F13008012D03D19DF80C00A0F1B1
:1032E0003008642183A8FDF700F835208DF80C0222
:1032F00038208DF80D02022DB7DCB8F13A0FB4DC9E
:10330000084810F808000649B59A885408460BF09A
:103310000DFA0020B5900120BFE700006C460308BD
:10332000703800203046030838B5054682A0006892
:1033300000900024012007F067FD002003F00EFF3D
:1033400036233522072100200CF033F819231822E8
:10335000072120200CF02DF81223112207214020F4
:103360000CF027F875A207216020FFF7AFF81223B1
:1033700011221C2100200CF01CF8092308221C211A
:1033800020200CF016F86EA21C214020FFF79EF8BA
:1033900070236F222F212E200CF00BF87223712244
:1033A0002F2170200CF005F870236F222F21B820F8
:1033B0000BF0FFFF00200CF091FCBBE0002003F0BD
:1033C00059FF642190FBF1F201FB120040BB002089
:1033D00003F050FF642190FBF1F0C0F11E00C4B275
:1033E00024B900200CF0A0FC022038BD0A2094FB78
:1033F000F0F03030C0B28DF800006A461A21D220B9
:10340000FFF764F80A2094FBF0F100FB1140303024
:10341000C0B28DF800006A461A21DA20FFF756F88C
:1034200048480078C0F38000002874D045480078F0
:1034300020F0040043490870002003F08FFE2A4664
:1034400007210020FFF742F836231A462F2118469D
:103450000BF0AFFF35231A462F2178200BF0A9FF80
:1034600036231A462F21C0200BF0A3FF0024302062
:103470008DF8000000200CF031FC4BE0002003F040
:10348000F9FE642190FBF1F201FB120040BB002029
:1034900003F0F0FE642190FBF1F0C0F11E00C4B215
:1034A00024B900200CF040FC02209EE70A2094FB87
:1034B000F0F03030C0B28DF800006A461A21D220F8
:1034C000FFF704F80A2094FBF0F100FB11403030C4
:1034D000C0B28DF800006A461A21DA20FEF7F6FF26
:1034E00018480078C0F3800020B1002007F08CFC61
:1034F00000207AE713480078C0F3400020B9114853
:103500000078C0F3C00028B1002007F07DFC012046
:103510006BE700E0B2E70B480078C0F3400020B949
:1035200008480078C0F3C00020B1002007F06CFC10
:1035300001205AE742E70000300000003F00000091
:103540003A0000003501002038B505460C46607889
:1035500000286DD015BB207840B120200023112217
:103560000A21009063480BF03DFF07E02020002374
:1035700011220A21009060480BF034FF0123202221
:103580001146282010F002F861783822A2EB810160
:10359000C8B2A21C2021FEF799FFAAE0012D22D17A
:1035A000207840B12020002323221C210090514884
:1035B0000BF018FF07E02020002323221C2100909D
:1035C0004D480BF00FFF01232022114670200FF011
:1035D000DDFF61788022A2EB8101C8B2A21C20210C
:1035E000FEF774FF85E0022DD7D1207840B120206E
:1035F000002333222C2100903E480BF0F3FE07E01D
:103600002020002333222C2100903B480BF0EAFEBF
:10361000012320221146B0200FF0B8FF6178C022AC
:10362000A2EB8101C8B2A21C2021FEF74FFF60E08F
:10363000F5B9207840B12020002311220A21009002
:103640002C480BF0CFFE07E02020002311220A2196
:10365000009029480BF0C6FE0123202211462820A5
:103660000FF094FF25A220212420FEF72FFF40E039
:10367000012D1ED1207840B12020002323221C21BF
:1036800000901C480BF0AEFE07E020200023232210
:103690001C21009018480BF0A5FE012320221146A2
:1036A00070200FF073FF15A220216C20FEF70EFF93
:1036B0001FE0022D1DD1207840B1202000233322AD
:1036C0002C2100900B480BF08DFE07E020200023FA
:1036D00033222C21009008480BF084FE0123202285
:1036E0001146B0200FF052FF04A22021AC20FEF7BB
:1036F000EDFE38BD5018002050160020756E616D2B
:103700006500000070B588B0044601260025012040
:1037100007F07AFB5AE2FE480078C0F3800028B335
:1037200025BBFB48007820F00400F9490870002010
:1037300003F014FD601E00EB800101EB4010F54921
:1037400001EB400000F1220210210020FEF7BEFE36
:10375000002002F063FA00BFED480078C0F380005B
:103760000028F9D0012007F04FFB0126E848007837
:10377000C0F3800000287DD0012D7BD1E448007883
:1037800020F00400E2490870002003F0E7FC601E0E
:1037900000EB800101EB4010DE4911F81000002819
:1037A00042D155235422072148200BF002FE172353
:1037B0001A46072168200BF0FCFD572356220721EB
:1037C00078200BF0F6FD12231122072198200BF030
:1037D000F0FD5A2358221C2120200BF0EAFD2E2355
:1037E0001A461C2150200BF0E4FD20231A461C2110
:1037F00060200BF0DEFD5C235B221C2170200BF0AF
:10380000D8FD40233F221C2190200BF0D2FD4923FC
:103810001A461C21B0200BF0CCFD122311221C21D2
:10382000C0200BF0C6FD3DE041231A460721502081
:103830000BF0BFFD82231A46072160200BF0B9FD73
:1038400055235422072170200BF0B3FD12231122BF
:10385000072190200BF0ADFD842383221C2128201A
:103860000BF0A7FD5A2358221C2148200BF0A1FD84
:103870002E2300E086E01A461C2178200BF099FDEB
:1038800040233F221C2188200BF093FD49231A4638
:103890001C21A8200BF08DFD122311221C21B82021
:1038A0000BF087FD36231A462F213A200BF081FDBD
:1038B00035231A462F2178200BF07BFD36231A463C
:1038C0002F21B6200BF075FD5AE091480078C0F327
:1038D0008000E8B3012007F097FA601E00EB80013A
:1038E00001EB40108B4911F81000D8B10021601E87
:1038F00000EB800202EB4010864A02F81010E11D36
:10390000C8B26946FDF7F2FE9DF81F0000F0F00016
:103910008DF81F00E11DC8B220236A460021FDF783
:1039200004FF1CE00121601E00EB800202EB40104E
:10393000784A02F81010E11DC8B26946FDF7D6FEBC
:103940009DF81F0040F001008DF81F00E11D00E010
:1039500007E0C8B220236A460021FDF7E6FE0126F3
:103960000FE06B480078C0F3400020B96848007849
:10397000C0F3C00020B1012007F046FA012600E0A4
:10398000A3E700BF62480078C0F3800048B1022D71
:1039900007D15F48007820F004005D49087008B046
:1039A00070BDCDBB012E37D10026002003F0D6FB21
:1039B0004F234E22102160200BF0FBFC092308222C
:1039C000102180200BF0F5FC601E00EB800101EB64
:1039D0004010504911F8100060B170236F2210217F
:1039E000B2200BF0E6FC512350221021D2200BF024
:1039F000E0FC0BE0512350221021B2200BF0D9FC47
:103A0000122311221021D2200BF0D3FC012002F04E
:103A100005F9012002F07AFC012D42D1012E40D19E
:103A20000026002003F09AFB4F234E2210210F2086
:103A30000BF0BFFC0923082210212F200BF0B9FC4A
:103A4000601E00EB800101EB4010324911F81000BC
:103A500060B170236F22102160200BF0AAFC51236B
:103A60005022102180200BF0A4FC0BE051235022A7
:103A7000102160200BF09DFC1223112210218020C8
:103A80000BF097FC532352221021B8200BF091FC2D
:103A9000012002F0C3F8002002F038FC012002F0FF
:103AA00035FC022D33D1012E31D10026002003F048
:103AB00055FB601E00EB800101EB4010154911F829
:103AC000100060B170236F2210210F200BF071FCE9
:103AD0005123502210212F200BF06BFC0BE05123BF
:103AE000502210210F200BF064FC12231122102110
:103AF0002F200BF05EFC53235222102170200BF07C
:103B000058FC012002F08AF8002002F0FFFB03E0DD
:103B100035010020FC4101202D480078C0F3C00091
:103B200050B12B48007820F0080029490870022D78
:103B300002DA681CC5B2012625480078C0F34000AF
:103B400050B12348007820F0020021490870002D70
:103B500002DD681EC5B20126C5BB012E36D1002686
:103B6000002003F0FBFA4F234E22102160200BF0BF
:103B700020FC09230822102180200BF01AFC04EB02
:103B8000840000EB4410134911F8100060B1702359
:103B90006F221021B2200BF00CFC51235022102177
:103BA000D2200BF006FC0BE0512350221021B22052
:103BB0000BF0FFFB122311221021D2200BF0F9FB96
:103BC000012002F02BF8012002F0A0FBA3E5000089
:103BD00035010020FC41012070B5012500240120A1
:103BE00007F012F909E185480078C0F3800020B39E
:103BF0001CBB8248007820F004008049087080488F
:103C0000007818B101F00AFA012516E0002003F04F
:103C1000A5FA5B231A46182178200BF0CAFB002076
:103C200001F0FCFF00BF75480078C0F38000002859
:103C3000F9D0012007F0E8F8012570480078C0F3BA
:103C4000800050B1012C08D16C48007820F00400AD
:103C50006A49087001F09CFB012568480078C0F3B0
:103C6000800050B1022C08D16448007820F0040094
:103C70006249087001F076F8012560480078C0F3C9
:103C8000800040B1032C06D15C48007820F004008D
:103C90005A49087070BDBCB9012D15D1002500200E
:103CA00003F05CFA5E235D22102170200BF081FB93
:103CB00060235F221021B8200BF07BFB012001F074
:103CC000ADFF012002F022FB012C20D1012D1ED1DD
:103CD0000025002003F042FA5E235D2210212E20F1
:103CE0000BF067FB60235F22102170200BF061FB5B
:103CF000672366221021B8200BF05BFB012001F046
:103D00008DFF002002F002FB012002F0FFFA022CDE
:103D100020D1012D1ED10025002003F01FFA6023C1
:103D20005F2210212E200BF044FB67236622102116
:103D300070200BF03EFB532352221021B8200BF0D1
:103D400038FB012001F06AFF012002F0DFFA0020B9
:103D500002F0DCFA032C17D1012D15D1002500202B
:103D600003F0FCF96723662210212E200BF021FBC3
:103D700053235222102170200BF01BFB012001F075
:103D80004DFF002002F0C2FA1C480078C0F3C000CA
:103D900050B11A48007820F0080018490870032C28
:103DA00002DA601CC4B2012514480078C0F3400058
:103DB00050B11248007820F0020010490870002C21
:103DC00002DD601EC4B20125BCB9012D15D100254C
:103DD000002003F0C3F95E235D22102170200BF058
:103DE000E8FA60235F221021B8200BF0E2FA0120EC
:103DF00001F014FF012002F089FAF4E635010020F9
:103E00006E430120F8B5054660A0006800900026CA
:103E1000002705EB850101EB45115D4A02EB4101ED
:103E20004978C90001F1880000EBD0714910C1F157
:103E30008001CCB2012006F0E7FF002003F08EF9EC
:103E400038233522072120460BF0B3FA04F1400055
:103E5000C4B205EB850000EB45104D4901EB400075
:103E6000821C07212046FEF731FB05EB850000EBA5
:103E70004510474901EB40004078082111FB004004
:103E8000C4B23D233B22072120460BF092FA04F1F5
:103E90003000C4B216231A46072120460BF089FAD7
:103EA00004F11000C4B23BA207212046FEF70EFB2E
:103EB00043233E221C2150200BF07BFA36231A4666
:103EC0002F213A200BF075FA35231A462F2178203E
:103ED0000BF06FFA36231A462F21B6200BF069FA41
:103EE0002DA21A21E220FEF7F1FA00200BF0F6FED7
:103EF00044E0002003F0BEF9642190FBF1F201FBE5
:103F0000120040BB002003F0B5F9642190FBF1F0F2
:103F1000C0F11E00C6B226B900200BF005FF02203A
:103F2000F8BD0A2096FBF0F03030C0B28DF80000EA
:103F30006A461A21D220FEF7C9FA0A2096FBF0F150
:103F400000FB11603030C0B28DF800006A461A21C3
:103F5000DA20FEF7BBFA11480078C0F3800008B100
:103F600000270CE00D480078C0F3400020B90B4852
:103F70000078C0F3C00008B1012700E0B9E700BF36
:103F8000002006F041FF3846CAE70000300000007C
:103F9000FC4101203F0000007300000035010020BB
:103FA00010B50BF02BFE012006F02EFF01200F496B
:103FB00008700F48C078062816D2DFE800F0030624
:103FC000090C0F1200F016F80EE000F067F80BE095
:103FD00000F0F6F808E000F0E7F905E000F00EFB6D
:103FE00002E000F06FFC00BF00BF10BD4C010020DC
:103FF000B841012008B525480078C0F3800050B1D1
:104000002248007820F0040020490870012020494F
:104010000870FFF7E1FD1F480078F8B91C480078E8
:1040200001281BD100201A49087003F097F82020BE
:10403000002323221C21009017480BF0D3F9012301
:104040002022114670200FF0A1FA03230222202122
:1040500070200BF0AEF9012001F0E0FD0B48007874
:10406000C0F3C00028B10948007820F008000749D3
:10407000087006480078C0F3400028B10348007873
:1040800020F002000149087008BD00003501002041
:104090004C0100204D0100205014002010B5444870
:1040A0000078C0F3800068B14248007850B94048B9
:1040B000007820F004003E49087001203E49087055
:1040C000FFF78AFD3A480078C0F3800070B13948A4
:1040D000007801280AD13648007820F004003449DD
:1040E0000870012034490870FFF70CFB3148007854
:1040F000A8B931480078012811D100202E49087054
:1041000003F02CF8012000F09BFD012001F086FD5A
:10411000002002F0FBF829490020FFF715FA254896
:104120000078012815D124480078012811D10020F9
:104130002149087003F012F8022000F081FD0120EF
:1041400001F06CFD012002F0E1F81C490120FFF7AD
:10415000FBF917480078C0F3C00088B11448007814
:1041600020F008001249087012480078002807DD86
:1041700010480078401E0F49087001200E49087051
:104180000B480078C0F3400088B10948007820F05F
:1041900002000749087007480078012807DA054837
:1041A0000078401C0349087001200349087010BDC5
:1041B000350100204D0100204C010020FC41012070
:1041C00010B575480078C0F3800068B17348007876
:1041D00050B97148007820F004006F490870012040
:1041E0006F490870FFF7F8FC6B480078C0F3800057
:1041F00070B16A48007801280AD16748007820F039
:10420000040065490870012065490870FFF77AFAD3
:1042100061480078C0F3800078B1604800780228D7
:104220000BD15D48007820F004005B490870012044
:104230005B4908700220FFF765FA58480078E8B932
:1042400057480078012819D100205549087002F01C
:1042500085FF012000F0F4FC012001F0DFFC0020CC
:1042600002F054F8012002F051F84E490020FFF707
:104270006BF94C494A310220FFF766F9474800784C
:1042800001281DD146480078012819D10020444951
:10429000087002F063FF022000F0D2FC012001F060
:1042A000BDFC002002F032F8012002F02FF83D4959
:1042B0004A310020FFF748F93A490120FFF744F955
:1042C0003648007802281DD135480078012819D1D8
:1042D00000203349087002F041FF002000F0B0FCDC
:1042E000012001F09BFC002002F010F8012002F0F8
:1042F0000DF82C494A310120FFF726F929490220FF
:10430000FFF722F924480078C0F34000F8B12248B2
:10431000007820F002002049087020480078022828
:1043200009D11F48007830B900201C4908700120CD
:104330001B4908700BE019480078022807DA174873
:104340000078401C15490870012015490870124872
:104350000078C0F3C000F0B10F48007820F00800EA
:104360000D4908700D48007848B90D48007830B9FB
:1043700002200A4908700120094908700BE007482B
:104380000078002807DD05480078401E03490870C2
:1043900001200349087010BD350100204D010020A7
:1043A0004C010020FC41012010B590480078C0F37A
:1043B000800068B18E48007850B98C48007820F0B1
:1043C00004008A49087001208A490870FFF704FC3C
:1043D00086480078C0F3800070B1854800780128D5
:1043E0000AD18248007820F004008049087001203A
:1043F00080490870FFF786F97C480078C0F3800098
:1044000078B17B48007802280BD17848007820F0FA
:104410000400764908700120764908700220FFF7F1
:1044200071F972480078C0F3800078B17048007864
:1044300003280BD16D48007820F004006B49087008
:1044400001206C4908700320FFF75CF96848007888
:10445000E8B968480078012819D10020654908703A
:1044600002F07CFE012000F0EBFB012001F0D6FB06
:10447000002001F04BFF012001F048FF5E490020C1
:10448000FFF762F85C4994310220FFF75DF8584865
:10449000007801281DD157480078012819D1002043
:1044A0005449087002F05AFE022000F0C9FB0120B6
:1044B00001F0B4FB002001F029FF012001F026FFEC
:1044C0004D494A310020FFF73FF84B490120FFF7E3
:1044D0003BF84748007802281FD146480078012859
:1044E0001BD100204349087002F038FE012001F082
:1044F00095FB002001F00AFF012001F007FF3E4973
:1045000094310020FFF720F83B494A310120FFF7A2
:104510001BF839490220FFF717F8354800780328BF
:104520001ED13448007801281AD100203149087082
:1045300002F014FE002000F083FB012001F06EFB6E
:10454000002001F0E3FE012001F0E0FE2A49943151
:104550000120FEF7F9FF28494A310220FEF7F4FF57
:1045600022480078C0F34000D8B12048007820F0FD
:1045700002001E4908701E480078042807DA1C480B
:104580000078401C1A49087001201A490870184820
:104590000078042805D1002015490870012015492C
:1045A000087012480078C0F3C000E8B10F480078E6
:1045B00020F008000D4908700D480078002807DD3C
:1045C0000B480078401E0A4908700120094908700C
:1045D0000748007840B90748007828B90320044903
:1045E000087001200349087010BD0000350100204B
:1045F0004D0100204C010020FC41012010B5AD48C8
:104600000078C0F3800068B1AB48007850B9A94881
:10461000007820F00400A74908700120A74908701D
:10462000FFF7DAFAA3480078C0F3800070B1A2481F
:10463000007801280AD19F48007820F004009D49A5
:10464000087001209D490870FFF75CF899480078D0
:10465000C0F3800078B19848007802280BD19548C3
:10466000007820F0040093490870012093490870F5
:104670000220FFF747F88F480078C0F3800078B138
:104680008D48007803280BD18A48007820F0040078
:10469000884908700120894908700320FFF732F823
:1046A00084480078C0F3800078B1834800780428FB
:1046B0000BD18048007820F004007E49087001206A
:1046C0007E4908700420FFF71DF87B480078E8B9A0
:1046D0007A480078012819D100207849087002F042
:1046E0003DFD012000F0ACFA012001F097FA002016
:1046F00001F00CFE012001F009FE71490020FEF7D7
:1047000023FF6F49DE310220FEF71EFF6A48007862
:1047100001281DD169480078012819D10020674976
:10472000087002F01BFD022000F08AFA012001F05F
:1047300075FA002001F0EAFD012001F0E7FD604973
:104740004A310020FEF700FF5D490120FEF7FCFE24
:104750005948007802281FD15848007801281BD1F9
:1047600000205649087002F0F9FC012001F056FAC9
:10477000002001F0CBFD012001F0C8FD504994312B
:104780000020FEF7E1FE4E494A310120FEF7DCFE33
:104790004B490220FEF7D8FE47480078032820D175
:1047A0004648007801281CD100204449087002F0D6
:1047B000D5FC012001F032FA002001F0A7FD012014
:1047C00001F0A4FD3E49DE310020FEF7BDFE3C496C
:1047D00094310120FEF7B8FE39494A310220FEF734
:1047E000B3FE3548007804281ED1344800780128EB
:1047F0001AD100203149087002F0B0FC002000F00E
:104800001FFA012001F00AFA002001F07FFD0120CB
:1048100001F07CFD2A49DE310120FEF795FE284992
:1048200094310220FEF790FE22480078C0F3400049
:10483000D8B12048007820F002001E4908701E48B8
:104840000078052807DA1C480078401C1A490870CF
:1048500001201A49087018480078052805D1002061
:104860001549087001201549087012480078C0F3F6
:10487000C000E8B10F48007820F008000D4908702A
:104880000D480078002807DD0B480078401E0A49D3
:1048900008700120094908700748007840B90748A6
:1048A000007828B9042004490870012003490870E1
:1048B00010BD0000350100204D0100204C010020FA
:1048C000FC41012010B5C8480078C0F3800068B1F1
:1048D000C648007850B9C448007820F00400C249A6
:1048E00008700120C2490870FFF776F9BE480078C9
:1048F000C0F3800070B1BD48007801280AD1BA48E1
:10490000007820F00400B84908700120B849087008
:10491000FEF7F8FEB4480078C0F3800078B1B348E1
:10492000007802280BD1B048007820F00400AE498E
:1049300008700120AE4908700220FEF7E3FEAA4885
:104940000078C0F3800078B1A848007803280BD124
:10495000A548007820F00400A34908700120A4496C
:1049600008700320FEF7CEFE9F480078C0F3800059
:1049700078B19E48007804280BD19B48007820F03D
:104980000400994908700120994908700420FEF735
:10499000B9FE95480078C0F3800078B1934800785C
:1049A00005280BD19048007820F004008E4908704B
:1049B00001208F4908700520FEF7A4FE8B4800787F
:1049C000E0B98B480078012818D100208849087088
:1049D00002F0C4FB012000F033F9012001F01EF9C0
:1049E000002001F093FC012001F090FC814900209F
:1049F000FEF7AAFD80490220FEF7A6FD7B4800785D
:104A000001281DD17A480078012819D10020784961
:104A1000087002F0A3FB022000F012F9012001F05F
:104A2000FDF8002001F072FC012001F06FFC7149DB
:104A30004A310020FEF788FD6E490120FEF784FD13
:104A40006A48007802281FD16948007801281BD1E4
:104A500000206749087002F081FB012001F0DEF8B8
:104A6000002001F053FC012001F050FC6149943119
:104A70000020FEF769FD5F494A310120FEF764FD21
:104A80005C490220FEF760FD58480078032820D1D9
:104A90005748007801281CD100205549087002F0C1
:104AA0005DFB012001F0BAF8002001F02FFC01208D
:104AB00001F02CFC50494A390020FEF745FD4D49D4
:104AC00094310120FEF740FD4A494A310220FEF7A9
:104AD0003BFD4648007804281FD14548007801284E
:104AE0001BD100204249087002F038FB012001F080
:104AF00095F8002001F00AFC012001F007FC3E4976
:104B00000020FEF721FD3C494A390120FEF71CFD3B
:104B1000384994310220FEF717FD34480078052803
:104B20001DD133480078012819D100203049087080
:104B300002F014FB002000F083F8012001F06EF871
:104B4000002001F0E3FB012001F0E0FB2A490120F5
:104B5000FEF7FAFC28494A390220FEF7F5FC224804
:104B60000078C0F34000D8B11F48007820F0020060
:104B70001D4908701D480078062807DA1B48007890
:104B8000401C1A490870012019490870174800781C
:104B9000062805D100201549087001201449087025
:104BA00011480078C0F3C000E8B10F48007820F049
:104BB00008000D4908700D480078002807DD0B48F3
:104BC0000078401E0949087001200949087007480B
:104BD000007840B90648007828B9052003490870D4
:104BE00001200349087010BD350100204D0100204F
:104BF0004C010020FC4101202443012010B50F4846
:104C0000C078062816D2DFE800F00306090C0F1260
:104C1000FFF7F0F90FE0FFF741FA0CE0FFF7D0FAE9
:104C200009E0FFF7C1FB06E0FFF7E8FC03E0FFF750
:104C300049FE00E000BF00BF10BD0000B8410120E8
:104C400038B50446A4B92020002311220A2100907F
:104C50001E480AF0C7FB01232022114628200EF02F
:104C600095FC03230222202128200AF0A2FB2CE03D
:104C7000012C14D12020002323221C210090134852
:104C80000AF0B0FB01232022114670200EF07EFCBA
:104C900003230222202170200AF08BFB15E0022C56
:104CA00013D12020002333222C21009007480AF042
:104CB00099FB012320221146B0200EF067FC03234C
:104CC00002222021B0200AF074FB38BD50160020CB
:104CD00010B540E00FF02EFB204901200FF0C0FB83
:104CE000002837D0012006F08FF8002002F036FAB5
:104CF00005230422102138200AF05BFB0323022243
:104D0000102158200AF055FB24232322102178205B
:104D10000AF04FFB0C231A46102198200AF049FB99
:104D200022231A461021A8200AF043FB25231A4605
:104D30001021B8200AF03DFB002000F06FFF00BFFB
:104D400007480078C0F380000028F9D0002006F062
:104D50005BF800E000E0BDE700BF10BDC8410120E6
:104D60003501002070B50125002448E1A4480078F1
:104D7000C0F3800088B384BBA148007820F0040011
:104D80009F490870002002F0E9F961231A461021BA
:104D900058200AF00EFB49231A46102168200AF019
:104DA00008FB62231A46102178200AF002FB95A224
:104DB00010218820FDF78AFB002000F02FFF00BFA4
:104DC0008F480078C0F380000028F9D08C48007824
:104DD00020F004008A490870012589480078C0F352
:104DE0008000002838D0012C36D18548007820F08A
:104DF000040083490870002002F0B0F932232F220A
:104E0000082138200AF0D5FA0C231A460821782008
:104E10000AF0CFFA34233322082188200AF0C9FA95
:104E2000692368220821A8200AF0C3FA77A21C216E
:104E30004820FDF74BFB002000F0F0FE00BF70485B
:104E40000078C0F380000028F9D06D48007820F089
:104E500004006B490870012569480078C0F38000A0
:104E600040B1022C06D16648007820F00400644965
:104E7000087070BD4CBB012D27D10025002002F029
:104E80006DF94D231A46102160200AF092FA2E2364
:104E90001A46102170200AF08CFA61231A4610215C
:104EA00080200AF086FA49231A46102190200AF041
:104EB00080FA322331221021B8200AF07AFA012038
:104EC00000F0ACFE012001F021FA012C32D1012DBD
:104ED00030D10025002002F041F94D231A4610215F
:104EE00014200AF066FA2E231A46102124200AF014
:104EF00060FA61231A46102134200AF05AFA492335
:104F00001A46102144200AF054FA3223312210218B
:104F100070200AF04EFA532352221021B8200AF0D2
:104F200048FA012000F07AFE002001F0EFF901209C
:104F300001F0ECF9022C17D1012D15D1002500202C
:104F400002F00CF93223312210212C200AF031FA20
:104F500053235222102170200AF02BFA012000F076
:104F60005DFE002001F0D2F925480078C0F3C000B2
:104F700050B12348007820F0080021490870022C25
:104F800002DA601CC4B201251D480078C0F340005D
:104F900050B11B48007820F0020019490870002C1D
:104FA00002DD601EC4B201254CBB012D27D10025B6
:104FB000002002F0D3F84D231A46102160200AF099
:104FC000F8F92E231A46102170200AF0F2F9612315
:104FD0001A46102180200AF0ECF949231A461021C4
:104FE00090200AF0E6F9322331221021B8200AF08D
:104FF000E0F9012000F012FE012001F087F9B5E68A
:105000003501002056312E30000000007777772ED2
:105010006E656F64756E2E636F6D000070B501254F
:105020000024012005F0F0FE85E043480078C0F33D
:10503000800048B144B94048007820F004003E495F
:10504000087000F07DF801253B480078C0F380002F
:1050500040B1012C06D13848007820F004003649D0
:10506000087070BDB4B9012D14D10025002002F0E4
:1050700075F832A210217420FDF728FA532352222A
:105080001021B8200AF095F9012000F0C7FD012099
:1050900001F03CF9012C16D1012D14D1002500207E
:1050A00002F05CF825A210213220FDF70FFA5323FD
:1050B0005222102170200AF07CF9012000F0AEFD90
:1050C000002001F023F91C480078C0F3C00050B163
:1050D0001948007820F0080017490870012C02DAFE
:1050E000601CC4B2012514480078C0F3400050B1E0
:1050F0001148007820F002000F490870002C02DDF2
:10510000601EC4B20125B4B9012D14D100250020C0
:1051100002F024F809A210217420FDF7D7F95323D7
:1051200052221021B8200AF044F9012000F076FD47
:10513000012001F0EBF878E7350100204E454F00E3
:1051400070B5012500241CE18E480078C0F3800072
:1051500088B384BB8B48007820F00400894908702C
:10516000002001F0FBFF61231A46102158200AF0AD
:1051700020F949231A46102168200AF01AF96223FF
:105180001A46102178200AF014F97FA210218820F5
:10519000FDF79CF9002000F041FD00BF7948007840
:1051A000C0F380000028F9D07648007820F0040091
:1051B00074490870012573480078C0F3800038B145
:1051C000012C05D16F48007820F004006D4908706B
:1051D0006C480078C0F3800040B1022C06D16948C9
:1051E000007820F004006749087070BD4CBB012DA9
:1051F00027D10025002001F0B1FF61231A461021BC
:1052000068200AF0D6F849231A46102178200AF0BF
:10521000D0F862231A46102188200AF0CAF86523C4
:1052200063221021B8200AF0C4F839231A4610214D
:10523000E8200AF0BEF8012000F0F0FC012001F0A7
:1052400065F8012C32D1012D30D10025002001F06C
:1052500085FF61231A4610211E200AF0AAF849236F
:105260001A4610212E200AF0A4F862231A461021B3
:105270003E200AF09EF865236322102160200AF088
:1052800098F839231A46102190200AF092F85323F7
:1052900052221021B8200AF08CF8012000F0BEFC48
:1052A000002001F033F8012001F030F8022C1DD16C
:1052B000012D1BD10025002001F050FF6523632242
:1052C000102114200AF075F839231A4610214420C1
:1052D0000AF06FF853235222102170200AF069F867
:1052E000012000F09BFC002001F010F82548007818
:1052F000C0F3C00050B12348007820F008002149D5
:105300000870022C02DA601CC4B201251D48007826
:10531000C0F3400050B11B48007820F0020019494A
:105320000870002C02DD601EC4B201254CBB012DAB
:1053300027D10025002001F011FF61231A4610211A
:1053400068200AF036F849231A46102178200AF01E
:1053500030F862231A46102188200AF02AF86523C3
:1053600063221021B8200AF024F839231A461021AC
:10537000E8200AF01EF8012000F050FC012000F0A7
:10538000C5FFE1E63501002056312E300000000057
:1053900070B50125002418E18C480078C0F3800026
:1053A00078B174B98948007820F004008749087002
:1053B00000F040FD08B9FFF78BFC012005F024FD4B
:1053C000012582480078C0F3800050B1012C08D13B
:1053D0007E48007820F004007C49087000F0FAF85C
:1053E00001257A480078C0F3800040B1022C06D134
:1053F0007648007820F004007449087070BD74BBD2
:10540000012D2CD10025002001F0A8FE6B236A227B
:105410001021642009F0CDFF6DA210218420FDF73A
:1054200055F822231A461021BC2009F0C2FF03239D
:105430001A461021CC2009F0BCFF02231A46102185
:10544000DC2009F0B6FF2B231A461021EC2009F0CE
:10545000B0FF012000F0E2FB012000F057FF012C1B
:1054600037D1012D35D10025002001F077FE6B23C7
:105470006A221021142009F09CFF55A2102134202B
:10548000FDF724F822231A461021602009F091FF2D
:1054900003231A461021702009F08BFF02231A46BD
:1054A0001021802009F085FF2B231A46102190201F
:1054B00009F07FFF532352221021B82009F079FF11
:1054C000012000F0ABFB002000F020FF012000F0E5
:1054D0001DFF022C29D1012D27D10025002001F02C
:1054E0003DFE22231A4610211E2009F062FF0323ED
:1054F0001A4610212E2009F05CFF02231A461021C3
:105500003E2009F056FF2B231A4610214E2009F0A9
:1055100050FF532352221021702009F04AFF01202E
:1055200000F07CFB002000F0F1FE28480078C0F37A
:10553000C00050B12548007820F0080023490870C9
:10554000022C02DA601CC4B2012520480078C0F3A6
:10555000400050B11D48007820F002001B4908703F
:10556000002C02DD601EC4B2012574BB012D2CD1BC
:105570000025002001F0F2FD6B236A221021642037
:1055800009F017FF12A210218420FCF79FFF2223AD
:105590001A461021A82009F00CFF03231A461021F7
:1055A000B82009F006FF02231A461021C82009F08E
:1055B00000FF2B231A461021D82009F0FAFE012003
:1055C00000F02CFB012000F0A1FEE5E635010020F3
:1055D00050494E0010B5002001F0C0FD44231A468A
:1055E0000721402009F0E5FE20231A46072150201C
:1055F00009F0DFFE382337220721602009F0D9FEA9
:1056000060231A460721802009F0D3FE59231A4649
:105610000721902009F0CDFE6D236C220721A020E8
:1056200009F0C7FE382337221C21482009F0C1FEAB
:105630002A231A461C21682009F0BBFE5C235B224A
:105640001C21782009F0B5FE6E231A461C219820F3
:1056500009F0AFFE53231A461C21A82009F0A9FE29
:1056600070236F222F212E2009F0A3FE72237122B6
:105670002F21702009F09DFE70236F222F21B8206A
:1056800009F097FED7E06C480078C0F3800000284E
:105690007ED06948007820F0040067490870002037
:1056A00001F05CFD4C234B220721602009F081FEB4
:1056B00040233F220721802009F07BFE362335223C
:1056C0001C214C2009F075FE22231A461C216C2057
:1056D00009F06FFE03231A461C217C2009F069FEA5
:1056E00002231A461C218C2009F063FE2B231A4644
:1056F0001C219C2009F05DFE50A21C21AC20FCF76F
:10570000E5FE70236F222F212E2009F052FE722316
:1057100071222F21702009F04CFE70236F222F215F
:10572000B82009F046FE6FE043480078C0F38000DF
:10573000002853D04048007820F004003E4908700B
:1057400000F078FB002848D101F008FD22231A461A
:105750000821602009F02DFE03231A46082170203D
:1057600009F027FE1B231A460821802009F021FE9C
:1057700073231A460821902009F01BFE7623742219
:105780001C21482009F015FE1D231A461C2100E0AB
:105790003BE0782009F00DFE792377221C21882038
:1057A00009F007FE002000F039FA012005F02CFB7B
:1057B00000BF21480078C0F380000028F9D01E48BF
:1057C000007820F004001C49087001F0C7F932206D
:1057D00001F0AAFD0AF0AAFC00E010BD164800780E
:1057E000C0F3400020B914480078C0F3C00058B19D
:1057F0001148007820F002000F4908700846007830
:1058000020F008000870E8E78EE70B480078C0F346
:10581000400020B908480078C0F3C00058B10648DD
:10582000007820F00200044908700846007820F053
:1058300008000870D1E726E7350100203F0000008E
:105840002DE9F04F87B004460F4615469BA000682F
:1058500005900026B146B246B046082004900120CB
:1058600005F0D2FA002001F079FC7A231A460021D3
:10587000084609F09EFDBA1C00211020FCF726FE08
:105880007878C0001030C6B27C237B2200213046DD
:1058900009F08FFD06F12000C6B2FF2D7ED004F185
:1058A000780000EBC500864A0023D0E900B15846D5
:1058B000FAF78EFCCDE90201082000900B4600218A
:1058C0003046029A0EF0FAF8804604F1780000EBB8
:1058D000C501D1E900B17A4A00235846FAF778FCAD
:1058E00000214A404B401A431ED006EBC801C8B203
:1058F00074A20021FCF7EAFD04F1780000EBC5007A
:105900006F4A0023D0E900B15846FAF761FC08203D
:1059100008F10101CDE90223009006EBC10000214E
:105920000EF00DF9401E049004F1780000EBC50064
:10593000D0E90010002359405840014301D108200C
:10594000049008F108000499401A06EBC00000F129
:10595000040AA07830B90AF0FF005BA20021FCF72E
:10596000B5FD08E0A078012805D10AF0FF0057A294
:105970000021FCF7ABFD0AF11C01C8B27D231A46D9
:10598000002109F016FD002000F048F900BF504842
:105990000078C0F380000028F9D000E006E04C4811
:1059A000007820F004004A4908700FE0A07828B978
:1059B00045A200213046FCF789FD07E0A0780128C8
:1059C00004D142A200213046FCF780FD002001F006
:1059D000C5FB07F1220200210846FCF777FD702382
:1059E0006F222F212E2009F0E4FC872386222F210D
:1059F000702009F0DEFC70236F222F21B82009F0FF
:105A0000D8FC00200AF06AF9012005F0FDF954E005
:105A1000002001F02FFC642190FBF1F201FB120049
:105A200068BB002001F026FC642190FBF1F0C0F17E
:105A30001E0000F0FF09B9F1000F06D100200AF0A6
:105A400073F9022007B0BDE8F08F0A2099FBF0F04F
:105A50003030C0B28DF8140005AA1A21D220FCF70C
:105A600035FD0A2099FBF0F100FB11903030C0B2F7
:105A70008DF8140005AA1A21DA20FCF727FD144836
:105A80000078C0F3800048B1002005F0BDF900F0B7
:105A9000D1F908B90020D5E70220D3E70C480078F7
:105AA000C0F3400020B90A480078C0F3C00020B11C
:105AB000002005F0A9F90120C4E7A9E730000000A3
:105AC00000E1F5052E000000474153004E454F0010
:105AD0003501002038B54DA0006800900024002555
