:020000040802F0
:10000000C0650120AD010208B50102088DA70208F4
:10001000B9010208BB010208BD010208000000008E
:10002000000000000000000000000000BF01020806
:10003000C101020800000000C3010208CF0A030842
:10004000C7010208C7010208C7010208C701020868
:10005000C7010208C7010208C7010208C701020858
:10006000F1770208C7010208C7010208C7010208A8
:10007000C7010208C7010208C7010208C701020838
:10008000C7010208C7010208C7010208C701020828
:10009000C7010208C7010208C7010208C701020818
:1000A000C7010208C7010208C7010208C701020808
:1000B000C7010208610C0308C7010208C701020852
:1000C000C7010208C7010208C7010208C7010208E8
:1000D000C7010208C7010208C7010208C7010208D8
:1000E000C7010208C7010208C7010208C7010208C8
:1000F000C7010208C7010208C7010208C7010208B8
:10010000C7010208C7010208C7010208C7010208A7
:10011000C7010208C7010208C7010208C701020897
:10012000C7010208C7010208C7010208C701020887
:10013000C7010208C7010208C7010208C701020877
:10014000C7010208C7010208C7010208A5ED02089D
:10015000C7010208C7010208C7010208C701020857
:10016000C7010208C7010208C7010208C701020847
:10017000C7010208C7010208C70102080000000009
:10018000C7010208C7010208DFF80CD000F0FAF836
:100190000048004785470308C065012030BF72B69C
:1001A000704762B6704780F30888704706488047FA
:1001B00006480047FEE7FEE7FEE7FEE7FEE7FEE74C
:1001C000FEE7FEE7FEE7FEE7C90B03088901020828
:1001D0002DE9F05F0546002092469B46884606467C
:1001E000814640241BE0284641464746224600F00F
:1001F000B8F853465A46C01A914110D311461846D2
:10020000224600F09FF82D1A67EB01084F46224660
:100210000120002100F096F817EB00094E41201E46
:10022000A4F10104DFDC484631462A464346BDE8D6
:10023000F09F2DE9F0410024061B254671F10006D0
:1002400005DA01240027D0EB070067EB0101161E39
:1002500073F1000605DA0027D2EB0702012567EBF0
:100260000303FFF7B5FF86460E4617469C46AC4291
:1002700004D00025D0EB050E65EB010624B100206B
:10028000D2EB000760EB030C704631463A466346FA
:10029000BDE8F08100487047506B030810B5431A61
:1002A000934209D28318881803E010F8011D03F85F
:1002B000011D521EF9D210BD40EA01039B0703D075
:1002C00009E008C9121F08C0042AFAD203E011F895
:1002D000013B00F8013B521EF9D210BDD2B201E041
:1002E00000F8012B491EFBD270470022F6E710B53B
:1002F00013460A4604461946FFF7F0FF204610BD94
:10030000421C10F8011B0029FBD1801A704710B560
:10031000002200E0521C835C8C5CA34201D1002BC4
:10032000F8D1D8B2E1B2401A10BD30B50446002071
:10033000034600E05B1C934203D2E05CCD5C401BB3
:10034000F8D030BD202A04DB203A00FA02F1002068
:1003500070479140C2F1200320FA03F31943904003
:100360007047202A04DB203A21FA02F0002170476E
:1003700021FA02F3D040C2F120029140084319460D
:1003800070470000064C074D06E0E06840F00103AE
:1003900094E8070098471034AC42F6D3FFF7F8FE14
:1003A000546B0308746B030870B58C1810F8015B6C
:1003B00015F0070301D110F8013B2A1106D110F8FE
:1003C000012B03E010F8016B01F8016B5B1EF9D102
:1003D0002B0705D40023521E0DD401F8013BFAE788
:1003E00010F8013BCB1A921C03E013F8015B01F8F3
:1003F000015B521EF9D5A142D8D3002070BD000088
:100400002DE9F80F02F1A003BB4A4FF0010C4FF0A9
:100410000508C2F808C0D2F808C0D2F800C0CDF86C
:1004200000C01CF1010C07D1DDF800C0C2F800C00B
:1004300012680092002A7CD04268D3F804C0806819
:100440009C6882EA0C02944680EA04076446AB4842
:100450004FEA1C65203B50F82560C4F3074502F0C5
:10046000FF0A50F8255050F82AA086EA3525C2F335
:10047000072604F0FF0B50F8266050F82BB04FEA27
:100480003649FEB2A8F1010850F8266089EA3666BE
:1004900075401E69CCF307496E403D0E50F8299017
:1004A00050F8255085EA3925C4F30729240E50F861
:1004B000299050F824404FEA394989EA3A6985EA97
:1004C00009095D69C7F3074A89EA05054FEA126918
:1004D00050F82AA050F82990C2F3074289EA3A2935
:1004E000CCF3072A50F822200CF0FF0C84EA3222C9
:1004F000C7F3072450F82AA050F8244050F82CC025
:100500004FEA3A4A4FEA34448AEA3B6A84EA3C6C4E
:1005100089EA0A0982EA0C02D3F818A0D3F81CC0B1
:1005200089EA0A0982EA0C04B8F1000F78DD320E7C
:1005300000E064E0C4F3074C50F8222050F82CC0CF
:1005400009F0FF0A82EA3C22C9F3072C50F82AA0DE
:1005500050F82CC004F0FF0B4FEA3C4705F0FF0CAD
:1005600050F82BB050F82CC087EA3C6C82EA0C0C97
:100570001A68C6F307478CEA020C2A0E50F8277057
:1005800050F8222082EA3722C4F30727240E50F8BD
:10059000277050F824404FEA374787EA3A677A4095
:1005A0005F68C5F3074A57404FEA196250F82AA01E
:1005B00050F82220C5F3072582EA3A22C6F3072A1B
:1005C000C9F30749F6B250F82AA050F8255050F860
:1005D000299050F826604FEA3A4A4FEA35458AEAB0
:1005E0003B6A84EA392485EA366582EA0A026C406D
:1005F000D3F808A0DD6882EA0A026C4028E70268A6
:10060000D3F800C05C6882EA0C0C426882EA0407F6
:1006100082689C68C0686240DC68444017E7FFE776
:10062000374850FA85F200EB166C12789CF800C03F
:10063000C9F3072742EA0C62C4F3074CC75D10F800
:100640000CC04FEA0C4C4CEA072C42EA0C02D3F8DF
:1006500000C082EA0C020A6050FA89F200EB156CC5
:1006600012789CF800C0C4F3072742EA0C62C6F374
:10067000074CC75D10F80CC04FEA0C4C4CEA072C35
:1006800042EA0C02D3F804C082EA0C024A6050FA33
:1006900084F200EB196C12789CF800C0C6F30727AF
:1006A00042EA0C6CC5F30742C75D825C120442EA61
:1006B00007224CEA0202D3F808C082EA0C028A60E0
:1006C00050FA86F200EB146C12789CF800C0C5F367
:1006D000072442EA0C62C9F3074C10F80CC0005D15
:1006E0004FEA0C4C4CEA00201043DA685040C860D6
:1006F000BDE8F80F70470000003002405C59030865
:10070000345403082DE9F80FC04B4FF0010C4FF0A3
:100710000508C3F808C0D3F808C0D3F800C0CDF866
:1007200000C01CF1010C0AD04368D2F804C0006874
:1007300083EA0C07136880EA030C63460FE0DDF8D8
:1007400000C0C3F800C01B68009353B14368D2F8DF
:1007500004C0006883EA0C07136843409C46644663
:100760000FE00368D2F800C0946883EA0C0743687E
:10077000D2F804C083EA0C0C8368C0686340D46874
:100780004440A3483D0E04F0FF0950F82560CCF327
:10079000074550F8299050F8255007F0FF0A86EADF
:1007A0003525C3F3072650F82AA050F826600CF030
:1007B000FF0B4FEA364686EA396675401669C3F381
:1007C00007496E404FEA1C6550F8299050F82550B3
:1007D000CCF3072C85EA3925C4F3072950F82CC03F
:1007E00050F8299050F82BB04FEA394989EA3A6914
:1007F00085EA0905D2F81490C4F3074A85EA090589
:100800004FEA136950F82AA050F82990240E89EA7B
:100810003A29C7F3072AC7F30747DBB250F82AA0E3
:1008200050F8244050F8277050F823304FEA3A4AE5
:100830004FEA3C4C8AEA3B6A84EA37248CEA336309
:1008400089EA0A0984EA030CD2F818A0D369203295
:10085000A8F1010889EA0A098CEA0304B8F1000F3B
:1008600069DD330EC5F3074C50F8233050F82CC027
:10087000E7B283EA3C23C9F3072C50F8277050F8FD
:100880002CC006F0FF0A4FEA3C4C8CEA376C83EA36
:100890000C03D2F800C050F82AA083EA0C072B0EF4
:1008A000C9F3074C50F8233050F82CC005F0FF0B6B
:1008B00083EA3C23C4F3072CC5F3072550F82CC06A
:1008C00050F825504FEA3C4C8CEA3A6C83EA0C0312
:1008D000D2F804C0C4F3074A83EA0C0C4FEA196348
:1008E00050F82AA050F82330240E83EA3A23C6F3A6
:1008F000072AC6F3074650F8244050F8266050F8FF
:100900002AA084EA362409F0FF0650F82BB050F8EC
:1009100026604FEA3A4A4FEA35458AEA3B6A85EA59
:10092000366583EA0A036C40D2F808A0D56883EAEA
:100930000A036C4026E7374850FA84F300EB166C44
:100940001B789CF800C0C9F3072743EA0C63C5F382
:10095000074CC75D10F80CC04FEA0C4C4CEA072C52
:1009600043EA0C03D2F800C083EA0C030B6050FA90
:1009700086F300EB156C1B789CF800C0C4F30727C6
:1009800043EA0C63C9F3074CC75D10F80CC04FEA8B
:100990000C4C4CEA072C43EA0C03D2F804C083EA5F
:1009A0000C034B6050FA85F300EB196C1B789CF834
:1009B00000C0C6F3072743EA0C6CC4F30743C75DC6
:1009C000C35C1B0443EA07234CEA0303D2F808C0C4
:1009D00083EA0C038B6050FA89F300EB146C1B78EC
:1009E0009CF800C0C5F3072443EA0C63C6F3074C28
:1009F000D26810F80CC0005D4FEA0C4C4CEA0020A5
:100A000018435040C860BDE8F80F704700300240FE
:100A10005C550308345303082DE9F04105460C46A4
:100A200000F094F82868206068686060A868A0609A
:100A3000E868E0604448012600F5C5611034D4E957
:100A400000C300EB1C67CCF307483F7810F8088020
:100A500051F8277051F8288087EA3827CCF3072807
:100A600010F8088051F828804FEA384850FA8CFC7A
:100A70009CF800C0D4E9022551F82CC088EA3C6CEF
:100A800087EA0C0CC4F800C000EB136CC3F30747F3
:100A90009CF800C0C75D51F82CC051F827708CEA53
:100AA000372CC3F30727C75D51F827704FEA374744
:100AB00050FA83F31B7851F8233087EA33638CEACA
:100AC0000303636000EB1263C2F3074C1B7810F85A
:100AD0000CC051F8233051F82CC083EA3C23C2F3F8
:100AE000072C10F80CC051F82CC04FEA3C4C50FABF
:100AF00082F2127851F822208CEA32625A40A260C7
:100B000000EB1562C5F307431278C35C51F822204D
:100B100051F8233082EA3322C5F30723C35C51F82E
:100B200023304FEA334350FA85FC9CF800C0761C12
:100B300051F82CC083EA3C635A40E2600A2EFFF66B
:100B40007DAFBDE8F0810000345303082DE9F003C8
:100B5000D0E900C38268C068184CC1E90220E1E80E
:100B600004C30A26A4F5007505EB1067C0F3074817
:100B70003F7815F8088047EA0867C0F3072815F89A
:100B800008804FEA084855FA80F999F8009048EA39
:100B9000092847EA080787EA0C0C54F8047B8CEA1A
:100BA000070C83EA0C035A405040C1E90220E1E8F7
:100BB00004C3761ED8D1BDE8F0037047345503084E
:100BC0002DE9F80F02F1C003BA4A4FF0010C4FF0C3
:100BD0000608C2F808C0D2F808C0D2F800C0CDF8A4
:100BE00000C01CF1010C07D1DDF800C0C2F800C044
:100BF00012680092002A7CD04268D3F804C0806852
:100C00009C6882EA0C02944680EA04076446AA487B
:100C10004FEA1C65203B50F82560C4F3074502F0FD
:100C2000FF0A50F8255050F82AA086EA3525C2F36D
:100C3000072604F0FF0B50F8266050F82BB04FEA5F
:100C40003649FEB250F8266089EA366675401E695C
:100C5000CCF307496E403D0E50F8299050F82550CE
:100C600085EA3925C4F30729240E50F8299050F855
:100C700024404FEA394989EA3A6985EA09095D69F8
:100C8000C7F3074A89EA05054FEA126950F82AA016
:100C900050F82990C2F3074289EA3A29CCF3072A8F
:100CA00050F822200CF0FF0C84EA3222C7F307240C
:100CB00050F82AA050F8244050F82CC04FEA3A4A85
:100CC0004FEA34448AEA3B6A84EA3C6C89EA0A09BE
:100CD00082EA0C02D3F818A0D3F81CC089EA0A09EA
:100CE00082EA0C04B8F1010878D0320E50F82220C4
:100CF00000E062E0C4F3074C09F0FF0A50F82CC092
:100D000050F82AA082EA3C22C9F3072C04F0FF0B1A
:100D100050F82CC050F82BB04FEA3C4705F0FF0CC0
:100D200050F82CC087EA3C6C82EA0C0C1A68C6F3B7
:100D300007478CEA020C2A0E50F8277050F8222040
:100D400082EA3722C4F30727240E50F8277050F8A0
:100D500024404FEA374787EA3A677A405F68C5F32D
:100D6000074A57404FEA196250F82AA050F822204B
:100D7000C5F3072582EA3A22C6F3072AC9F30749D1
:100D8000F6B250F82AA050F8255050F8299050F8A3
:100D900026604FEA3A4A4FEA35458AEA3B6A84EAD6
:100DA000392485EA366582EA0A026C40D3F808A045
:100DB000DD6882EA0A026C402AE70268D3F800C0C4
:100DC0005C6882EA0C0C426882EA040782689C68CC
:100DD000C0686240DC68444019E7FFE7374850FAD2
:100DE00085F200EB166C12789CF800C0C9F3072757
:100DF00042EA0C62C4F3074CC75D10F80CC04FEA1E
:100E00000C4C4CEA072C42EA0C02D3F800C082EAF0
:100E10000C020A6050FA89F200EB156C12789CF80B
:100E200000C0C4F3072742EA0C62C6F3074CC75D53
:100E300010F80CC04FEA0C4C4CEA072C42EA0C02AA
:100E4000D3F804C082EA0C024A6050FA84F200EB44
:100E5000196C12789CF800C0C6F3072742EA0C6CA4
:100E6000C5F30742C75D825C120442EA07224CEADE
:100E70000202D3F808C082EA0C028A6050FA86F2B5
:100E800000EB146C12789CF800C0C5F3072442EA0A
:100E90000C62C9F3074C10F80CC0005D4FEA0C4C13
:100EA0004CEA00201043DA685040C860BDE8F80FF3
:100EB00070470000003002405C59030834540308B6
:100EC0002DE9F80FC04B4FF0010C4FF00608C3F8A6
:100ED00008C0D3F808C0D3F800C0CDF800C01CF19A
:100EE000010C0AD04368D2F804C0006883EA0C07FA
:100EF000136880EA030C63460FE0DDF800C0C3F816
:100F000000C01B68009353B14368D2F804C0006866
:100F100083EA0C07136843409C4664460FE003686D
:100F2000D2F800C0946883EA0C074368D2F804C082
:100F300083EA0C0C8368C0686340D4684440A348CB
:100F40003D0E04F0FF0950F82560CCF3074550F83A
:100F5000299050F8255007F0FF0A86EA3525C3F39B
:100F6000072650F82AA050F826600CF0FF0B4FEA35
:100F7000364686EA396675401669C3F307496E40FE
:100F80004FEA1C6550F8299050F82550CCF3072CF7
:100F900085EA3925C4F3072950F82CC050F8299068
:100FA00050F82BB04FEA394989EA3A6985EA0905D0
:100FB000D2F81490C4F3074A85EA09054FEA136989
:100FC00050F82AA050F82990240E89EA3A29C7F34C
:100FD000072AC7F30747DBB250F82AA050F824408D
:100FE00050F8277050F823304FEA3A4A4FEA3C4C09
:100FF0008AEA3B6A84EA37248CEA336389EA0A097D
:1010000084EA030CD2F818A0D3692032A8F10108B1
:1010100089EA0A098CEA0304B8F1000F69DD330E8E
:10102000C5F3074C50F8233050F82CC0E7B283EAE0
:101030003C23C9F3072C50F8277050F82CC006F059
:10104000FF0A4FEA3C4C8CEA376C83EA0C03D2F877
:1010500000C050F82AA083EA0C072B0EC9F3074CF6
:1010600050F8233050F82CC005F0FF0B83EA3C23E6
:10107000C4F3072CC5F3072550F82CC050F82550B1
:101080004FEA3C4C8CEA3A6C83EA0C03D2F804C079
:10109000C4F3074A83EA0C0C4FEA196350F82AA0FC
:1010A00050F82330240E83EA3A23C6F3072AC6F306
:1010B000074650F8244050F8266050F82AA084EAE9
:1010C000362409F0FF0650F82BB050F826604FEA9E
:1010D0003A4A4FEA35458AEA3B6A85EA366583EA49
:1010E0000A036C40D2F808A0D56883EA0A036C4072
:1010F00026E7374850FA84F300EB166C1B789CF80F
:1011000000C0C9F3072743EA0C63C5F3074CC75D6A
:1011100010F80CC04FEA0C4C4CEA072C43EA0C03C5
:10112000D2F800C083EA0C030B6050FA86F300EBA0
:10113000156C1B789CF800C0C4F3072743EA0C63C6
:10114000C9F3074CC75D10F80CC04FEA0C4C4CEAD1
:10115000072C43EA0C03D2F804C083EA0C034B606B
:1011600050FA85F300EB196C1B789CF800C0C6F3AD
:10117000072743EA0C6CC4F30743C75DC35C1B0439
:1011800043EA07234CEA0303D2F808C083EA0C03BE
:101190008B6050FA89F300EB146C1B789CF800C04C
:1011A000C5F3072443EA0C63C6F3074CD26810F872
:1011B0000CC0005D4FEA0C4C4CEA00201843504034
:1011C000C860BDE8F80F7047003002405C55030866
:1011D000345303082DE9F0410C4600F08BF84448E5
:1011E000012600F5C5621034D4E900C300EB1C678A
:1011F000CCF307483F7810F8088052F8277052F86F
:10120000288087EA3827CCF3072810F8088052F89E
:1012100028804FEA384850FA8CFC9CF800C0D4E98A
:10122000021552F82CC088EA3C6C87EA0C0CC4F812
:1012300000C000EB136CC3F307479CF800C0C75D08
:1012400052F82CC052F827708CEA372CC3F30727CA
:10125000C75D52F827704FEA374750FA83F31B787F
:1012600052F8233087EA33638CEA0303636000EBB0
:101270001163C1F3074C1B7810F80CC052F82330EF
:1012800052F82CC083EA3C23C1F3072C10F80CC0A1
:1012900052F82CC04FEA3C4C50FA81F1097852F8D0
:1012A00021108CEA31615940A16000EB1561C5F352
:1012B00007430978C35C52F8211052F8233081EAC1
:1012C0003321C5F30723C35C52F823304FEA33437D
:1012D00050FA85FC9CF800C0761C52F82CC083EABA
:1012E0003C635940E1600C2EFFF67DAFBDE8F08114
:1012F000345303082DE9F00F02680A60D0E900C2F8
:101300004A60D0E901328A60D0E90225CD60D0E997
:1013100003560E61D0E904674F611B4F40690024FA
:1013200007F5007907EB1068C0F3074A98F80080CA
:1013300017F80AA048EA0A68C0F3072A17F80AA0B3
:101340004FEA0A4A57FA80FB9BF800B04AEA0B2A98
:1013500048EA0A0888EA0C0C59F82480641C8CEAD4
:10136000080C83EA0C035A40554041F818CF082C6A
:10137000CD60C1E90132A4BFBDE8F00F70476E40F7
:101380007040C1E90460CDE7345303082DE9F80F3C
:1013900002F1E003BB4A4FF0010C4FF00708C2F81E
:1013A00008C0D2F808C0D2F800C0CDF800C01CF1C7
:1013B000010C07D1DDF800C0C2F800C0126800922D
:1013C000002A7CD04268D3F804C080689C6882EA16
:1013D0000C02944680EA04076446AB484FEA1C6559
:1013E000203B50F82560C4F3074502F0FF0A50F88F
:1013F000255050F82AA086EA3525C2F3072604F0C6
:10140000FF0B50F8266050F82BB04FEA3649FEB279
:10141000A8F1010850F8266089EA366675401E6911
:10142000CCF307496E403D0E50F8299050F82550F6
:1014300085EA3925C4F30729240E50F8299050F87D
:1014400024404FEA394989EA3A6985EA09095D6920
:10145000C7F3074A89EA05054FEA126950F82AA03E
:1014600050F82990C2F3074289EA3A29CCF3072AB7
:1014700050F822200CF0FF0C84EA3222C7F3072434
:1014800050F82AA050F8244050F82CC04FEA3A4AAD
:101490004FEA34448AEA3B6A84EA3C6C89EA0A09E6
:1014A00082EA0C02D3F818A0D3F81CC089EA0A0912
:1014B00082EA0C04B8F1000F78DD320E00E064E03F
:1014C000C4F3074C50F8222050F82CC009F0FF0A52
:1014D00082EA3C22C9F3072C50F82AA050F82CC00D
:1014E00004F0FF0B4FEA3C4705F0FF0C50F82BB01F
:1014F00050F82CC087EA3C6C82EA0C0C1A68C6F3E0
:1015000007478CEA020C2A0E50F8277050F8222068
:1015100082EA3722C4F30727240E50F8277050F8C8
:1015200024404FEA374787EA3A677A405F68C5F355
:10153000074A57404FEA196250F82AA050F8222073
:10154000C5F3072582EA3A22C6F3072AC9F30749F9
:10155000F6B250F82AA050F8255050F8299050F8CB
:1015600026604FEA3A4A4FEA35458AEA3B6A84EAFE
:10157000392485EA366582EA0A026C40D3F808A06D
:10158000DD6882EA0A026C4028E70268D3F800C0EE
:101590005C6882EA0C0C426882EA040782689C68F4
:1015A000C0686240DC68444017E7FFE7374850FAFC
:1015B00085F200EB166C12789CF800C0C9F307277F
:1015C00042EA0C62C4F3074CC75D10F80CC04FEA46
:1015D0000C4C4CEA072C42EA0C02D3F800C082EA19
:1015E0000C020A6050FA89F200EB156C12789CF834
:1015F00000C0C4F3072742EA0C62C6F3074CC75D7C
:1016000010F80CC04FEA0C4C4CEA072C42EA0C02D2
:10161000D3F804C082EA0C024A6050FA84F200EB6C
:10162000196C12789CF800C0C6F3072742EA0C6CCC
:10163000C5F30742C75D825C120442EA07224CEA06
:101640000202D3F808C082EA0C028A6050FA86F2DD
:1016500000EB146C12789CF800C0C5F3072442EA32
:101660000C62C9F3074C10F80CC0005D4FEA0C4C3B
:101670004CEA00201043DA685040C860BDE8F80F1B
:1016800070470000003002405C59030834540308DE
:101690002DE9F80FC14B4FF0010C4FF00708C3F8CC
:1016A00008C0D3F808C0D3F800C0CDF800C01CF1C2
:1016B000010C7CD04368D2F804C08068946883EA47
:1016C0000C039C4680EA04076446B5484FEA1C6553
:1016D000C7F3074650F8255050F8266004F0FF097C
:1016E00085EA3625C3F3072650F8299050F826607E
:1016F0000CF0FF0A4FEA364686EA39666E401569F5
:10170000C3F307496E403D0E50F8299050F825501C
:1017100050F82AA085EA3925C4F3072907F0FF0B02
:1017200050F8299050F82BB04FEA394989EA3A69C4
:1017300085EA09095569C4F3074A89EA05054FEAAC
:10174000136950F82AA050F82990240E89EA3A2902
:10175000CCF3072ACCF3074C50F8244050F82CC0A7
:10176000DBB284EA3C2CC7F3072450F82AA050F8D7
:10177000244050F823304FEA3A4A4FEA34448AEA88
:101780003B6A84EA336389EA0A098CEA0303D2F8E4
:1017900018A0D2F81CC02032A8F1010889EA0A0971
:1017A00083EA0C04B8F1000F7BDD330E00E065E046
:1017B000C5F3074C50F8233050F82CC0E7B283EA49
:1017C0003C23C9F3072C50F8277050F82CC006F0C2
:1017D000FF0A4FEA3C4C8CEA376C83EA0C03D2F8E0
:1017E00000C0C9F3074783EA0C0C2B0E50F8277092
:1017F00050F8233050F82AA083EA3723C4F3072790
:1018000005F0FF0B50F82770C5F307254FEA37475F
:1018100087EA3A677B405768C4F3074A5F404FEA5C
:10182000196350F82AA050F82330240E83EA3A2393
:10183000C6F3072AC6F3074650F8244050F826603E
:1018400050F82AA084EA362409F0FF0650F8255003
:1018500050F82BB050F826604FEA3A4A4FEA354527
:101860008AEA3B6A85EA366583EA0A036C40D2F865
:1018700008A0D56883EA0A036C4027E7DDF800C0BA
:10188000C3F800C01B68009363B14368D2F804C07A
:101890008068946883EA0C0C80EA04076346644617
:1018A00013E70FE00368D2F800C0546883EA0C0C19
:1018B000436883EA040783689468C0686340D46817
:1018C000444002E7374850FA84F300EB166C1B786B
:1018D0009CF800C0C9F3072743EA0C63C5F3074C23
:1018E000C75D10F80CC04FEA0C4C4CEA072C43EAD9
:1018F0000C03D2F800C083EA0C030B6050FA86F3A5
:1019000000EB156C1B789CF800C0C4F3072743EA72
:101910000C63C9F3074CC75D10F80CC04FEA0C4CC0
:101920004CEA072C43EA0C03D2F804C083EA0C0308
:101930004B6050FA85F300EB196C1B789CF800C0E3
:10194000C6F3072743EA0C6CC4F30743C75DC35CC7
:101950001B0443EA07234CEA0303D2F808C083EAD6
:101960000C038B6050FA89F300EB146C1B789CF825
:1019700000C0C5F3072443EA0C63C6F3074CD268E2
:1019800010F80CC0005D4FEA0C4C4CEA00201843E4
:101990005040C860BDE8F80F7047000000300240BA
:1019A0005C550308345303082DE9F0410C4600F060
:1019B0008BF84448012600F5C5621034D4E900C311
:1019C00000EB1C67CCF307483F7810F8088052F80A
:1019D000277052F8288087EA3827CCF3072810F8B8
:1019E000088052F828804FEA384850FA8CFC9CF85E
:1019F00000C0D4E9021552F82CC088EA3C6C87EA92
:101A00000C0CC4F800C000EB136CC3F307479CF840
:101A100000C0C75D52F82CC052F827708CEA372CF2
:101A2000C3F30727C75D52F827704FEA374750FACC
:101A300083F31B7852F8233087EA33638CEA03037D
:101A4000636000EB1163C1F3074C1B7810F80CC006
:101A500052F8233052F82CC083EA3C23C1F3072C00
:101A600010F80CC052F82CC04FEA3C4C50FA81F1EF
:101A7000097852F821108CEA31615940A16000EBDD
:101A80001561C5F307430978C35C52F8211052F879
:101A9000233081EA3321C5F30723C35C52F8233096
:101AA0004FEA334350FA85FC9CF800C0761C52F88C
:101AB0002CC083EA3C635940E1600E2EFFF67DAFF7
:101AC000BDE8F081345303082DE9F04FD0E902C29C
:101AD000D0E90054C1E902C2C1E90054D0E9048749
:101AE000C1E90487D0E90663C1E906632B484FF0DA
:101AF000000900BF00EB136AC3F3074B9AF800A07C
:101B000010F80BB04AEA0B6AC3F3072B10F80BB0BE
:101B10004FEA0B4B50FA83FE9EF800E020314BEA6F
:101B20000E2B4AEA0B0A8AEA050A1D4D55F8295080
:101B300009F101098AEA05056C408CEA040C82EA85
:101B40000C02C1E902C2C1E90054B9F1070FA8BFF4
:101B5000BDE8F08F50FA82FA9AF800A000EB126B01
:101B6000C2F3072E9BF800B010F80EE04AEA0B6AA9
:101B7000C2F3074B10F80BB04FEA0B4B4BEA0E2B9E
:101B80004AEA0B0A8AEA080887EA08077E40734097
:101B9000C1E90663C1E90487ACE7000034530308D8
:101BA000345503082DE9F04784B01F46DDF830A016
:101BB00091468846060018BFB8F1000F0FD0002FDD
:101BC00018BFBAF1000F0AD0B9F1000F02DD19F009
:101BD0000F0F09D004B040F61D40BDE8F08704B0F7
:101BE0004FF44260BDE8F087307910F0020F13BF68
:101BF00040F61E4000246D4604B018BFBDE8F087D3
:101C00005FF0000004EB800158F8011009BA45F8B4
:101C10002010401C0428F5DB736A6846014606F173
:101C20002802182B04D0202B05D0FEF7E9FB04E096
:101C3000FEF7C6FF01E0FFF7A9FB4FF0000C00BF65
:101C400055F82C0004EB8C0100BA0CF1010C785013
:101C5000BCF1040FF4DB10344C45D1DBCAF8004072
:101C600004B00020BDE8F087002812BF002A4FF41E
:101C700042607047017941F002010171002010605B
:101C80007047032300F072B82DE9F04784B01F4677
:101C9000DDF830A091468846060018BFB8F1000F65
:101CA0000FD0002F18BFBAF1000F0AD0B9F1000F02
:101CB00002DD19F00F0F09D004B040F61D40BDE859
:101CC000F08704B04FF44260BDE8F087307910F03F
:101CD000020F13BF40F61E4000246D4604B018BF2B
:101CE000BDE8F0875FF0000004EB800158F80110B8
:101CF00009BA45F82010401C0428F5DB736A6846D1
:101D0000014606F12802182B04D0202B05D0FEF73F
:101D1000F9FC04E0FFF7D4F801E0FFF7B9FC4FF05D
:101D2000000C00BF55F82C0004EB8C0100BA0CF13C
:101D3000010C7850BCF1040FF4DB10344C45D1DBBE
:101D4000CAF8004004B00020BDE8F087002812BFA8
:101D5000002A4FF442607047017941F0020101719D
:101D60000020106070470223AFF30080002818BFE6
:101D7000002905D003F0060C2AB9BCF1020F02D0ED
:101D80004FF4426070472DE9F043446A89B0102C4B
:101D90001CBF182C202C06D1BCF1020F08D00469FE
:101DA000641E102C04D309B040F61F40BDE8F08338
:101DB000C2600479BCF1020F24F00604047149D01A
:101DC000002444618461C46104620569002DD8BFA8
:101DD0004FF0000C06DD15F0010C03D0167844EA34
:101DE000066444616545C8BF182433DD4FEAEC75CD
:101DF0000CEB957525F003063718ACEB060607F1DA
:101E0000140512F80C8076427F6904EBC60608FAC6
:101E100006F63E432E600CF10107FE1707EB9675A0
:101E200025F0030606EB000802EB0C09BE1B08F1C7
:101E3000140599F801907642D8F8148004EBC60690
:101E400009FA06F648EA06062E6005690CF1020C4E
:101E50006545CBDC027912F0010F55D1816013F09A
:101E6000010F0DD006229A430AD0426A0B4600F1B8
:101E700028014FEAE27C00206C4602EB9C7C2FE0BC
:101E800000F1280C426A0020D3176C4602EB9373D2
:101E900006E000BF51F820502DBA44F82050401CF5
:101EA000B0EBA30FF6DB102A04D0182A07D0202AA3
:101EB0002AD109E061462046FEF748FE24E061464B
:101EC0002046FFF717FA1FE061462046FFF7FCFDAA
:101ED0001AE000BF53F820502DBA44F82050401C9F
:101EE000B0EBAC0FF6DB102A07D0182A09D0202A55
:101EF00004BF2046FFF758FD06E02046FEF78CFDA4
:101F000002E02046FFF766F909B00020BDE8F08343
:101F100000B587B000BF1148006840F002000F49CB
:101F200008600846006800F00200019000BF00BF92
:101F30004FF4407002900320059011200390002080
:101F4000049002A9064806F00DF901200549086031
:101F50000549C1F8A40207B000BD000030380240B6
:101F600000040240A08240420080404270B5044616
:101F70000E460EF00BFCC9200DF0EEFD1648006871
:101F800008B1EA2070BD0DF023F92070002000F0A8
:101F90002BFD2578042D01DBB54203DD0EF022FC7C
:101FA000E420EFE7681EC5B2641C0EE00DF010F9E6
:101FB00004F8010B681EC0B2050003D0002000F039
:101FC00013FD02E0012000F00FFD002DEED10EF018
:101FD00009FC0020D6E700007801002070B5044617
:101FE0000D460EF0D3FBC8200DF0B6FD0B4800687F
:101FF00008B1EA2070BD0AE020780DF0ADFD074879
:10200000006808B1F720F5E7641C681EC5B2002D12
:10201000F2D10EF0E7FB0020ECE700007801002091
:1020200070B504460025E126204611F039FD06462C
:102030000EB9012500E00025284670BD10B500202E
:1020400004490860502011F04FF901200249C1F8FD
:10205000A40210BDA4824042008040422DE9F0411C
:1020600094B004460D4616464FF00108E12700BF24
:1020700012F023FF10B94FF0000828E011A811F06A
:1020800069FD074617B14FF0000820E0242108A899
:10209000FEF72BF940208DF80400ADF806400295BC
:1020A00000200390049011A805900020069008A835
:1020B0000790BDF806109DF804003346029A11F00F
:1020C00082FC074617B14FF0000800E000BF00BFD8
:1020D000404614B0BDE8F0812DE9FC4104460D46B0
:1020E0000026002700BF12F0E8FE08B900BF0EE08E
:1020F000202000231A462146CDE90050022011F08D
:102100004AFD07460FB1002600E0012600BF00BFD0
:102110003046BDE8FC812DE9FC4704460D461646D5
:102120001F464FF00008C14600BF12F0B5FE08B9C7
:1021300000BF11E02B46002221460220CDE90067B6
:1021400011F013FE8146B9F1000F02D04FF00008E4
:1021500001E04FF0010800BF00BF4046BDE8FC872A
:1021600030B587B00024002500BF2748006840F044
:102170000400254908600846006800F0040001904A
:1021800000BF00BF0420029020480390012004906B
:1021900002A91F4805F0E6FF0820029001200390E5
:1021A00004900320059002A9194805F0DBFF0322E3
:1021B0000121082006F04DF9082006F03DF909F04C
:1021C0001BFA09F087FB00F0ABF8052005F0DEFEF6
:1021D000002009F09FF9044621460EA011F074F882
:1021E00000F066FA012011490870002010490870BB
:1021F00010490870012009F08DF9054629460EA006
:1022000011F062F807B030BD3038024000002110F4
:102210000008024041573931333620636869702025
:1022200049443A30782534780D0A00007C010020BA
:102230007D0100207E01002041573931333620478F
:1022400043523A307825780D0A00000010B54FF45B
:102250004C51572009F082F90321582009F07EF9EA
:102260001C21502009F07AF9FC21552009F076F95B
:102270004FF42241612009F071F94FF423416120AC
:1022800009F06CF94FF42441612009F067F903214A
:10229000012009F063F910BD10B54FF44C515720DF
:1022A00009F05CF90321582009F058F91C2150204D
:1022B00009F054F9FC21552009F050F94AF2FF21A8
:1022C000612009F04BF94AF2FF31612009F046F92B
:1022D0004AF2FF41612009F041F90321012009F090
:1022E0003DF910BD10B5322009F014F9044620461E
:1022F00010BD000010B509480068012802D002286E
:1023000006D102E000F0B4FA03E000F05BFA00E06E
:1023100000BF00BFFFF7E6FF10BD00008C010020EA
:1023200010B500220821074806F028F8052005F01E
:102330002DFE01220821034806F020F80A2005F0AE
:1023400025FE10BD0008024030B58FB0D14800789E
:1023500060B9132009F0DEF80190142009F0DAF8D2
:102360000290152009F0D6F803900BE0002407E056
:10237000C94850F8240001A941F82400601CC4B2E7
:10238000032CF5DB03211E2009F0E8F8002409E006
:1023900004F13601C8B209F0BDF807A941F82400DC
:1023A000601CC4B2062CF3DB022009F0B3F805462A
:1023B000002410E0B948007808B9002006E0B848C9
:1023C00050F8240007A951F824100844B44941F8F2
:1023D0002400601CC4B2062CECDBB0480078012855
:1023E0006FD10024DBE00120A0402840002869D103
:1023F000AB4850F824004FF47A71B1EBA00F70DDB8
:10240000204604EBD0714910A4EB410199B1611051
:1024100001AA32F8211001F47F41B1F5805F0AD1A1
:10242000601001A911F82000611042F8210002207B
:102430000DA908559CE0204604EBD0714910A4EB8F
:10244000410151B1611001AA32F8211001F47F411C
:1024500019B900200DA908558AE0204604EBD07177
:102460004910A4EB410191B9611001AA12F82110A1
:1024700010290CD1601001A931F8200000F47F4030
:10248000611042F8210002200DA9085570E0204695
:1024900004EBD0714910A4EB410141B9611001AACC
:1024A00012F8211019B900200DA9085560E0204646
:1024B00004EBD0714910A4EB410121B14FF48071BC
:1024C00002E0D7E069E00121621001AB53F822205D
:1024D000511A621043F8221002200DA9085547E056
:1024E000FFE76F4850F8240040F6B831B1EBA00F79
:1024F0003BDA204604EBD0714910A4EB410161B1F5
:10250000611001AA32F8211001F47F41B1F5F85FA2
:1025100003D100200DA908552AE0204604EBD07114
:102520004910A4EB410149B9611001AA12F8211028
:102530001F2903D100200DA9085519E0204604EBFE
:10254000D0714910A4EB410111B14FF4807100E04A
:102550000121621001AB53F822201144621043F8AC
:10256000221001200DA9085502E000200DA90855F0
:1025700048480078002810DD0DA8005D4949095D34
:1025800088420AD000200DA908556010424951F830
:102590002000611001AA42F82100601CC4B2062C80
:1025A000FFF621AF00204049087000240BE0012015
:1025B000A040284028B90DA8005D10B101203A497B
:1025C0000870601CC4B2062CF1DB3748007830B9C3
:1025D0003048007818B900203449087002E0012022
:1025E000324908703048007830B900202949087015
:1025F0002A4908700FB030BD0021012008F0AEFF5D
:1026000000240AE001AA32F8242091B204F1130256
:10261000D0B208F0A3FF601CC4B2032CF2DB03218C
:10262000012008F09BFF1B480078032807D10020F9
:102630001D4908701749087018490870DAE7002426
:1026400005E00DA8005D17490855601CC4B2062CB2
:10265000F7DB002407E001A850F824000E4941F8F8
:102660002400601CC4B2032CF5DB0A480078401C2F
:102670000849087009480078012805DA07480078F9
:10268000401C0649087002E000200449087001203F
:10269000B0E700007D010020544301207E010020AE
:1026A0006C430120800100207C0100207F0100207C
:1026B00010B50021012008F051FF1C21502008F026
:1026C0004DFF0021512008F049FF4FF44C51572095
:1026D00008F044FF0321582008F040FF0021592052
:1026E00008F03CFF00215A2008F038FF00215B2051
:1026F00008F034FFA121522008F030FF4FF4C05100
:10270000182008F02BFF2321022008F027FF842146
:10271000112008F023FF40F28721122008F01EFF4D
:1027200041F21111142008F019FF41F21111152086
:1027300008F014FF42F228310C2008F00FFF42F29B
:1027400028310D2008F00AFF42F228310E2008F04F
:1027500005FF40F202211B2008F000FF40F2024179
:102760001C2008F0FBFE1C21072008F0F7FE80214A
:10277000032008F0F3FE0521192008F0EFFE0021E8
:10278000212008F0EBFE0021202008F0E7FE0021C8
:10279000272008F0E3FE00212C2008F0DFFE0021B6
:1027A000222008F0DBFE00212D2008F0D7FE0321B7
:1027B000012008F0D3FE02200149086010BD00008E
:1027C0008C01002070B527480078D8B1FFF7BCFD18
:1027D00024480078A8B92448007818B100210120C5
:1027E00008F0BCFE1C21032008F0B8FE00212D20BB
:1027F00008F0B4FE1C48007818B10321012008F04D
:10280000ADFE70BD1948006828BB322008F082FE7A
:102810000546312008F07EFE044605F0100040B168
:1028200014B900F09DF81BE0102C19D100F097F8B6
:1028300016E005F0080040B114B900F08FF80FE081
:10284000082C0DD100F068F80AE005F0040010B182
:1028500014B900F0B7F803E0042C01D100F092F8AD
:1028600000BFCEE77C0100207F010020880100200E
:1028700010B51B480078D8B1FFF766FD18480078FE
:10288000A8B91848007818B10021012008F066FEA8
:102890000021032008F062FE10212D2008F05EFECA
:1028A0001048007818B10021012008F057FE10BD33
:1028B0000D48006888B92E2008F02CFE0446102C24
:1028C00002D100F013F808E0012C02D100F07CF8EE
:1028D00003E0022C01D100F045F800BFE7E700005B
:1028E0007C0100207F0100208801002010B502A09B
:1028F00010F0EAFC10BD0000415739313336206337
:10290000656E74657220646F75626C6520636C69B6
:10291000636B200A0000000010B50948007800F041
:10292000010048B107A010F0CFFC0548007820F066
:10293000080008300249087050200BF031FE10BD2D
:102940003501002041573931333620726967687488
:10295000207072657373200A000000007047704792
:102960007047000010B502A010F0AEFC10BD0000D2
:10297000415739313336206C65667420736C697049
:10298000200A000010B50948007800F0010048B1A5
:1029900007A010F099FC0548007820F00200801C88
:1029A0000249087050200BF0FBFD10BD35010020DE
:1029B000415739313336206C656674207072657307
:1029C00073200A007047000010B502A010F07CFCD4
:1029D00010BD000041573931333620726967687481
:1029E00020736C6970200A0010B504460948046021
:1029F000032010F079FC01200749C1F8A00204204F
:102A000010F072FC00200349091F0860022010F03A
:102A10006BFC10BDA4824042008040422DE9F84387
:102A20000024884600940646817998F8060091466D
:102A30001D46814288BF0846411C1A4668460DF073
:102A400071FE00281CBF40F2ED30BDE8F88341461E
:102A5000304600F0B9FBC01C0127072862D2DFE82E
:102A600000F03E2D25352D2504004046009900F04C
:102A700055FC00993046CC7100F0A6FBB0F1FF3F49
:102A800004D000284BD002284CD107E03146404604
:102A9000009A0DF042FF0098C77143E0414630466E
:102AA000009A0DF03AFF0098C4713BE04146304671
:102AB000009A00F053F80098C47133E04146304664
:102AC000009A00F04BF80098C7712BE04146304661
:102AD000009A00F043F80099F079C87122E030467E
:102AE000009900F01BFC00984146C47100F06CFB9B
:102AF000B0F1FF3F03D090B1022813D107E0314677
:102B00004046009A0DF009FF0098C4710AE0414662
:102B10003046009A0DF001FF0098C77102E000985E
:102B20000DF05EF90021484608F0A0FE49460098E5
:102B300000F0F4FB0099002914BF002DBDE8F883D4
:102B4000EA8889796FF00303494203EB810111445C
:102B50000839E9800094BDE8F88300002DE9F84FBA
:102B60000B46D0F800B0096800910025B0F804C009
:102B70009E88176891462C46B44598BF6646817971
:102B80004FF0010E4FF000088C4532D8A1EB0C013C
:102B9000002201F1010ABAF1000F2ADD3EEA01012B
:102BA0001CBF4BF82C80012290F806C0B0F804A09E
:102BB000ACEB0A0C0CF1010C8C451AD91FFA8AFAFD
:102BC000D0F800C09244521C4CF82A80B0F804A0FF
:102BD000D0F800C09244521C4CF82A8090F806C0ED
:102BE000B0F804A0891CACEB0A0C0CF1010C8C456C
:102BF000E4D8B3F804C099798C4534D8A1EB0C0122
:102C0000002201F1010ABAF1000F2CDD3EEA0101B8
:102C100003D01A6842F82C80012293F806C0B3F85A
:102C200004A0ACEB0A0C0CF1010C8C451BD900BFC5
:102C30001FFA8AFAD3F800C09244521C4CF82A803A
:102C4000B3F804A0D3F800C09244521C4CF82A8078
:102C500093F806C0B3F804A0891CACEB0A0C0CF185
:102C6000010C8C45E4D881889A889142494638BF46
:102C7000184600F053FB002E48D00098ABF1040337
:102C8000021F391F16F0010F0DD053F804CF52F870
:102C9000040F1CEB000048EB080C40194CEB04053A
:102CA00041F8040F44465FEA560C1BD0D3F804A049
:102CB00050681AEB000048EB080A45194D604AEBD2
:102CC000040053F808AF52F8085F1AEB050548EB0B
:102CD0000804281844EB080541F8080F4446BCF1E5
:102CE000010CE3D195B157F82600401C47F82600A7
:102CF00007E0761C07EB86000168491C016057F865
:102D0000260018B9B9F80400B042F2D2B9F80400AC
:102D100057F8201000291CBF401CA9F80400BDE88A
:102D2000F88F00002DE9F041B4B080460E461746FA
:102D30001D4664211BA8FDF7D8FA642102A8FDF7FF
:102D4000D4FA0020019002AA3146404607F0E2FD85
:102D5000710001AB1BAA02A807F03CFD18B90120C5
:102D600034B0BDE8F0811BA8019900F037FF08B925
:102D70000220F5E70748FDF7C3FA2860002403E0C6
:102D80000448005D3855641C2868A042F8DC002027
:102D9000E6E7000000380020F0B5AFB006460F4669
:102DA000154600202E9020202D90112101A8FDF71E
:102DB0009CFA2D480068009020210BA8FDF795FA99
:102DC000142106A8FDF791FA28213846FDF78DFA5F
:102DD000212D04D0412D02D001202FB0F0BD212D96
:102DE00016D1E8B28DF89000AC2124AA681C1154C9
:102DF000002404E0315D24AA601C1154641CAC4220
:102E0000F8DB2DAB0BAAA91C24A800F04DF815E0A7
:102E1000E8B28DF84C00AC2113AA681C11540024B0
:102E200004E0315D13AA601C1154641CAC42F8DB51
:102E30002DAB0BAAA91C13A800F036F806A90BA805
:102E40000CF014FA002405E006A8015D601C0DF8E2
:102E50000010641C142CF7DB2EAB3A461521684693
:102E600000F092F8B9E700008C5203082DE9F04118
:102E700006460C461546611C304604F0B1F807467C
:102E80006DB194F8400000EBD0714910A0EB410106
:102E900011B10320207004E00220207001E0042022
:102EA00020703846BDE8F0812DE9F04104460D461A
:102EB00016461F4600F099FA3B4632462946204600
:102EC00006F0D8FF80464046BDE8F08130B50346A5
:102ED0000C46002106E0585C655CA84201D0002049
:102EE00030BD491C9142F6DB0120F9E72DE9F0479E
:102EF00004460D4616464FF0000AD046C1463BE058
:102F00002046E11704EB9171C1F3870716F808001A
:102F1000203800F0FF0A3D2F08DD00242046E1178D
:102F200004EB91718F1005F11000C5B207F11D027D
:102F3000D1B2521ED0B20CF076FF05F10F00C1B233
:102F400028460CF080FF0CF08EFF4FF0000909E0DE
:102F500009EB0A110B4A505C00F089F909F10100F4
:102F600000F0FF09B9F1100FF2DB08F1010000F0E9
:102F7000FF0804F10800C4B216F808000028BFD109
:102F8000BDE8F087900100202DE9F041ADF58D6D91
:102F90000646884617461D464FF4007183A8FDF784
:102FA000A4F94FF4007103A8FDF79FF920200290C7
:102FB0000020019002AB0DF22C4241463046FFF753
:102FC00073FF02AB0DF20C4220210DF22C40FFF7F3
:102FD0006BFF002404E0305D0DF24C410855641C89
:102FE000152CF8DB002408E00DF20C40015D04F123
:102FF00015000DF24C421154641C042CF4DB03AA9E
:1030000019210DF24C4007F085FC01AB83AA322157
:1030100003A807F0DFFB20B901200DF58D6DBDE899
:10302000F08183A8019900F0D9FD08B90220F4E7E6
:103030000748FDF765F92860002403E00448005DB7
:103040003855641C2868A042F8DC0020E5E7000041
:103050000038002070B485880468012D02BF236801
:10306000002B012312D0AB006FF0030606EB8505A1
:103070004FF07F4C54F8054014EA0C0F06D1BCF118
:10308000000F1CBF4FEA1C2C5B1EF5D1DC174FF064
:10309000000C03EB94740CE00568CCF1000603EB24
:1030A000860655F82C500E442DBA46F8045C0CF1F7
:1030B000010CBCEBA40FEFDB13F0030F1FD0006873
:1030C00003F0030503F0030450F82C0013F0010C87
:1030D00003D00D4405F8010C000AA4EB0C0CBCF164
:1030E000000F0CDD01EB0C04ACF1020C04F8010C38
:1030F000000A04F8020C000ABCF1000FF2DC002AFE
:1031000018BF136070BC7047002812BF002941F23D
:10311000B8407047F8B50F4681880024164601294B
:1031200005D102681268002A08BF012312D08B0063
:103130006FF00305026805EB81014FF07F4C555895
:1031400015EA0C0F06D1BCF1000F1CBF4FEA1C2C76
:103150005B1EF5D10093B342C4BF41F2B540F8BD48
:10316000B919C91A6A46FFF775FF0098311A002984
:103170000EDD781E11F0010F18BF00F8014F009905
:10318000711A491004D0447000F8024F491EFAD158
:103190000020F8BD00207047024803490860002065
:1031A00070470000781F0020E000002070B5044642
:1031B0000D460449D1F8180240210EF055FF0020B9
:1031C00070BD0000781F002070B490F907C091F91D
:1031D000072094453FD183888C880122A34204BFF5
:1031E0000068096803D9BCF1000F27D022E003D2A0
:1031F000BCF1000F2BD027E09D1AA61A50F82550DD
:1032000051F82660B54204D1934224BF521C934228
:10321000F2D2551EAB4202BF002070BC70479B1A11
:10322000A21A50F8230051F82210884209D9BCF1A3
:10323000000F03D070BC6FF00100704770BC02201B
:103240007047BCF1000F02D070BC0120704770BC09
:103250004FF0FF307047BCF1010F05D1002A02BFCB
:103260006FF0020070BC7047032070BC70472DE9FE
:10327000FC410646354600244CE005F0C008B8F194
:10328000000F09D0B8F1400F0AD0B8F1800F0BD071
:10329000B8F1C00F10D10BE0002001A908550CE0D7
:1032A0000F2001A9085508E0F02001A9085504E005
:1032B000FF2001A9085500E000BF00BFA806050EC9
:1032C00005F0C00737B1402F08D0802F0AD0C02F9B
:1032D00010D10BE000200DF804000CE00F200DF8D9
:1032E000040008E0F0200DF8040004E0FF200DF8D1
:1032F000040000E000BF00BFA806050E01A9085D9C
:1033000001210BF00BFD1DF8040001210BF006FD5F
:10331000601CC4B2022CB0DBBDE8FC8170B48388B1
:103320008A7900249A4209D202F1010C9C4537BFE8
:1033300041F2B54041F2B54470BC7047C279CA71E0
:1033400000228B80002B09DDD0F800C00D685CF8EE
:1033500022C045F822C0521C9342F5DC8879801ABD
:10336000431C002B26DD01234FF0000C33EA000044
:10337000634605D0D1F800C04CF822304FF0010C64
:103380008D79AD1A6D1C854214DD00BF0D6802EB0E
:103390000C060CF1010C45F826300D6802EB0C060A
:1033A000801C45F826308D790CF1010CAD1A6D1C8E
:1033B0008542EBDC204670BC704782880368012A96
:1033C00001BF186800280120704750016FF0030CFE
:1033D0000CEB82024FF000419A5831EA02031EBF03
:1033E00000294908401EF8D17047012108030BF05D
:1033F000C1BD00002DE9F04F85B09846DDF838B02A
:1034000092468946070018BFB9F1000F09D0B8F1FC
:10341000000F18BFBBF1000F03D01AF0070F05D043
:1034200007E005B040F6E840BDE8F08FBAF1080FBC
:1034300004DA05B040F6E540BDE8F08F387910F0C9
:10344000020F1EBF40F6E64005B0BDE8F08F002534
:1034500002AE6C465FF0000005EB800159F80110E8
:1034600009BA46F8201044F82010401C0228F3DB6B
:1034700007F11C01684610F0FDFD002007EB8001FC
:1034800054F820204B695A4044F8202056F8202058
:103490004A6154F8201005EB800209BA401C48F834
:1034A00002100228EADB08355545D3DBCBF800A033
:1034B00005B00020BDE8F08F002812BF002A40F6BA
:1034C000E8407047017941F002010171002010606D
:1034D0007047052300F060B82DE9F0471E46DDF87F
:1034E000209090460F46040018BF002F08D0002EF1
:1034F00018BFB9F1000F03D018F0070F04D006E091
:1035000040F6E840BDE8F087B8F1080F03DA40F66E
:10351000E540BDE8F087207910F0020F16BF40F6B5
:10352000E6400025BDE8F0875FF0000005EB800372
:1035300004EB8001FB584A691BBA5A40401C4A619F
:103540000228F3DB04F11C0104F1140010F092FDD9
:103550005FF0000004EB800105EB80024969401C2C
:1035600009BAB1500228F5DB08354545DCDB0020FF
:10357000C9F80080BDE8F087002812BF002A40F695
:10358000E8407047017941F00201017100201060AC
:1035900070470423AFF300802DE9F0470C465FEA43
:1035A000000C18BF002C04D003F006002AB9022832
:1035B00003D040F6E840BDE8F087CCF80C209CF83A
:1035C0000410022821F006018CF804104FD0DCF81A
:1035D0001010481E102824BF40F6E740BDE8F087D1
:1035E0000025CCF81450CCF818500029D8BF002082
:1035F00007DD11F0010004D0167845EA0665CCF825
:1036000014508142C8BF182131DDC51700EB9575F4
:1036100025F0030606EB0C07861B07F1140512F8CC
:10362000008076427F6901EBC60608FA06F63E4343
:103630002E60461CF71706EB977525F0030702EB83
:10364000000907EB0C08F61B08F1140599F8019026
:103650007642D8F8148001EBC60609FA06F648EA65
:1036600006062E60DCF81050801C8542CDDC9CF8EC
:10367000040010F0010F08D103F001010CF11C024D
:103680002046CCF8084010F0E3FD0020BDE8F087AC
:103690002DE9F04FADF5017D91460D4680461E4661
:1036A000B0225A4950A8FCF7F9FD0024202E1EBF75
:1036B0006FF003000DF5017DBDE8F08F05F11907EE
:1036C00017F00F0F04D007F00F00C0F110042744CB
:1036D00028BA049030BA05902A4641466E4606A89C
:1036E000FCF7DCFD802170194FF0000801766CB109
:1036F000183014F0010F18BF00F8018F610805D0D1
:1037000080F8018000F8028F491EF9D1CDF80080C1
:10371000CDF80480CDF80C800024CDF808800DF59C
:10372000A07B6E461CADCDF87080CDF87480CDF8CE
:103730007880CDF87C80B8EB171F38BF0DF5F87A8C
:1037400017D200205FEA041101EB800255F8203007
:10375000B25812BA5A404AF82020401C0428F3D329
:103760005A4629467CA8FCF7CDFF641CB4EB171F12
:10377000E7D39DF803000024401C8DF803000DF5ED
:10378000A07B6E460DF1700A20ADCDF88080CDF89B
:103790008480CDF88880CDF88C80B8EB171F38BFB7
:1037A0000DF5F87817D200205FEA041101EB8002D2
:1037B00055F82030B25812BA5A4048F82020401C20
:1037C0000428F3D35A4629467CA8FCF79BFF641CC7
:1037D000B4EB171FE7D324A91CA8FDF7B7F924AA57
:1037E00049460AF11000FCF78DFF99E80F0020AC64
:1037F0000FC424AA09F110010AF11000FCF782FF9E
:103800000DF5017D0020BDE8F08F0000DC690308A4
:103810002DE9F04188B016468846044600256F46DB
:10382000E068401CE0600AD1A068401CA06006D19E
:103830006068401C606002D12068401C206007EB7B
:10384000051142462046FCF75DFF6D1C022DE7DBAB
:103850000098316848402061019871684840606173
:103860000298B1684840A0610398F1684840E0615F
:10387000049831694840206005987169484060604B
:103880000698B1694840A0600798F1694840E06037
:1038900008B0BDE8F08170B503460C460021002059
:1038A00010E0165C451C555D46EA0526851C555DF5
:1038B00046EA0546C51C555D46EA056543F82150B4
:1038C000491C001DA142ECDB70BD70B503461446D7
:1038D0000020002215E011F820509D5431F82050AE
:1038E000C5F30726551C5E5551F82050C5F3074611
:1038F000951C5E5551F820502D0ED61C9D55401C30
:10390000121DA042E7DB70BDF0B5FBB00025882199
:103910002EA8FCF7EAFC9F480CF0B3F800287DD0F5
:103920009D480CF0AEF885B2202272A99A48001D7D
:103930000CF0AAF8882250A996480CF0A5F862224B
:1039400015A996480CF0A0F804200CF079F89DF821
:1039500040018DF8B8009DF841018DF8B9009DF83F
:1039600042018DF8BA009DF843018DF8BB009DF827
:1039700044018DF8BC009DF845018DF8BD00192269
:103980000DF5A3710DF1BE00FCF788FC19220DF2B4
:103990005F110DF1D700FCF781FC20225EA93CA845
:1039A000FCF77CFC202266A944A8FCF777FC9DF874
:1039B000B80100239DF8B9111A0242EA11620F0200
:1039C0001946134640EA070219439DF8BA31002010
:1039D000000440EA134742EA034039439DF8BB2103
:1039E00000231B0643EA122340EA026219439DF8B2
:1039F000BC0101439DF8BD010302104619439DF827
:103A0000BE211304024641EA03009DF8BF1140EABB
:103A100001604C924D909DF8C00100E0B3E000239E
:103A20009DF8C1111A0242EA11620F0219461346AB
:103A300040EA070219439DF8C2310020000440EA21
:103A400013401F040B4642EA070118439DF8C33197
:103A50000022120642EA132741EA036240EA070104
:103A60009DF8C40101439DF8C501030210461943A6
:103A70009DF8C62141EA02419DF8C72141EA026151
:103A80004CAAC2E9020120230DAA622115A80BF05D
:103A900075FE9DF8B800802809D002F063FE30B9A9
:103AA00002F0FAFF284606F0AAFD7BB0F0BD002622
:103AB000282103A8FCF719FC002002909DF8BD0006
:103AC00028B902F0E9FF284606F099FDEDE79DF8D8
:103AD000BD00012801D100241CE09DF8BD00022892
:103AE00017D119220DF1BE0172A8FFF7EFF908B145
:103AF00000240FE019220DF1D70172A8FFF7E6F9B3
:103B000008B1012406E002F0C7FF284606F077FD61
:103B1000CBE7FF2404EBC40101EB04120DF1BE015D
:103B2000501802AB03AA1921FFF7FCF823463246CE
:103B300003A92EA802F0CCFCF8B102F0ADFF4FF4BF
:103B400080311748FCF7D1FB00BF0BF03BFB154958
:103B5000488120200090084641890DAB622240F246
:103B6000011006F072FD20200DAB62222946009064
:103B700040F2A52006F069FD04E002F08DFF284622
:103B800006F03DFD04E002F087FF284606F037FD11
:103B900000BF8AE700F0010800FE010800F80108F4
:103BA000283800206041012000B585B04FF4C05096
:103BB00000900120019000200290032003906946AC
:103BC000054804F0CFFA00224FF4C051024804F037
:103BD000D5FB05B000BD0000000002402DE9F04714
:103BE000ADF5367D06460F464FF000080020B59033
:103BF00064219CA8FCF779FB6422374983A8FCF771
:103C00004DFB4FF4007103A8FCF76FFB28213348EC
:103C1000FCF76BFB002403E0305D9CA90855641C95
:103C2000BC42F9DB00BF9CA8FCF76AFB814683A875
:103C3000FCF766FB8246B5A803A9534683AACDE9E3
:103C4000001049469CA810F009F905464FF6FF7090
:103C5000854204D100200DF5367DBDE8F087642152
:103C60009CA8FCF742FB002404E003A8005D9CA98B
:103C70000855641CAC42F8DB022D0AD19DF80D10EA
:103C80009DF80C00303800EB800001EB4000A0F103
:103C90003008012D03D19DF80C00A0F130086421FB
:103CA00083A8FCF722FB35208DF80C0238208DF814
:103CB0000D02022DB7DCB8F13A0FB4DC084810F859
:103CC00008000649B59A885408460BF0B5FA00205A
:103CD000B5900120BFE70000CC5203080038002057
:103CE000905203082DE9F041C2B006460C46174633
:103CF000984600250020019020213AA8FCF7F5FA0B
:103D0000202132A8FCF7F1FA20212AA8FCF7EDFACD
:103D1000202102A8FCF7E9FA40211AA8FCF7E5FAED
:103D200040210AA8FCF7E1FA3AA90120FEF7D4F9EC
:103D300018B9012042B0BDE8F08132A90220FEF797
:103D4000CBF908B90120F5E720223AA91AA8FCF717
:103D5000A5FA202232A922A8FCF7A0FA01A80AABF2
:103D60003A46402100901AA80AF022FC08B102202D
:103D7000E0E70198402801D00220DBE740210AA8B3
:103D80000FF0B6F808B90320D4E71E220AA93AA812
:103D9000FCF784FA20220DF1460132A8FCF77EFAE6
:103DA00040211AA8FCF7A1FA1E223AA91AA8FCF78A
:103DB00075FA2AAA32A90F20FEF750F908B9042093
:103DC000B8E720222AA90DF18600FCF767FA3E2207
:103DD0001AA900200FF06EF80546E8B28DF8A6008B
:103DE000280A8DF8A700202302AA40211AA80BF068
:103DF000C5FC01A8434602AA2146009030460BF0BC
:103E000053FD08B1052095E70198844201D00520B3
:103E100090E700208EE7000038B5054682A00068D4
:103E200000900024012007F077FD002003F0E6FF5A
:103E300036233522072100200CF01BF81923182205
:103E4000072120200CF015F8122311220721402011
:103E50000CF00FF875A207216020FFF747F8122336
:103E600011221C2100200CF004F8092308221C2137
:103E700020200BF0FEFF6EA21C214020FFF736F839
:103E800070236F222F212E200BF0F3FF722371225B
:103E90002F2170200BF0EDFF70236F222F21B8200F
:103EA0000BF0E7FF00200CF091FCBBE0002004F0D9
:103EB00013F8642190FBF1F201FB120040BB0020DB
:103EC00004F00AF8642190FBF1F0C0F11E00C4B2C6
:103ED00024B900200CF0A0FC002038BD0A2094FB7F
:103EE000F0F03030C0B28DF800006A461A21D220BE
:103EF000FEF7FCFF0A2094FBF0F100FB114030308C
:103F0000C0B28DF800006A461A21DA20FEF7EEFFF3
:103F100048480078C0F38000002874D045480078F5
:103F200020F0040043490870002003F067FF2A4690
:103F300007210020FEF7DAFF36231A462F21184604
:103F40000BF097FF35231A462F2178200BF091FFB5
:103F500036231A462F21C0200BF08BFF002430207F
:103F60008DF8000000200CF031FC4BE0002003F045
:103F7000B3FF642190FBF1F201FB120040BB002073
:103F800003F0AAFF642190FBF1F0C0F11E00C4B25F
:103F900024B900200CF040FC00209EE70A2094FB8E
:103FA000F0F03030C0B28DF800006A461A21D220FD
:103FB000FEF79CFF0A2094FBF0F100FB114030302B
:103FC000C0B28DF800006A461A21DA20FEF78EFF93
:103FD00018480078C0F3800020B1002007F09CFC56
:103FE00001207AE713480078C0F3400020B9114857
:103FF0000078C0F3C00028B1002007F08DFC00203D
:104000006BE700E0B2E70B480078C0F3400020B94E
:1040100008480078C0F3C00020B1002007F07CFC05
:1040200000205AE742E70000300000003F00000097
:104030003A0000003501002038B505460C4660788E
:1040400000286DD015BB207840B12020002312221B
:104050000B21009063480BF025FF07E02020002390
:1040600012220B21009060480BF01CFF012320223C
:1040700011462C200FF0BAFF61783C22A2EB81019F
:10408000C8B2A21C2021FEF731FFAAE0012D22D1E7
:10409000207840B12020002323221C210090514889
:1040A0000BF000FF07E02020002323221C210090BA
:1040B0004D480BF0F7FE01232022114670200FF02F
:1040C00095FF61788022A2EB8101C8B2A21C202159
:1040D000FEF70CFF85E0022DD7D1207840B12020DB
:1040E000002334222D2100903E480BF0DBFE07E038
:1040F0002020002334222D2100903B480BF0D2FEDB
:10410000012320221146B4200FF070FF6178C422F1
:10411000A2EB8101C8B2A21C2021FEF7E7FE60E0FD
:10412000F5B9207840B12020002312220B21009005
:104130002C480BF0B7FE07E02020002312220B21B1
:10414000009029480BF0AEFE0123202211462C20BE
:104150000FF04CFF25A220212820FEF7C7FE40E0EB
:10416000012D1ED1207840B12020002323221C21C4
:1041700000901C480BF096FE07E02020002323222D
:104180001C21009018480BF08DFE012320221146BF
:1041900070200FF02BFF15A220216C20FEF7A6FE49
:1041A0001FE0022D1DD1207840B1202000233422B1
:1041B0002D2100900B480BF075FE07E02020002316
:1041C00034222D21009008480BF06CFE01232022A0
:1041D0001146B4200FF00AFF04A22021B020FEF700
:1041E00085FE38BD2018002020160020756E616DF8
:1041F0006500000070B588B0044601260025012046
:1042000007F08AFB5AE2FE480078C0F3800028B32A
:1042100025BBFB48007820F00400F9490870002015
:1042200003F0ECFD601E00EB800101EB4010F5494E
:1042300001EB400000F1220210210020FEF756FEA3
:10424000002002F033FB00BFED480078C0F380008F
:104250000028F9D0012007F05FFB0126E84800782C
:10426000C0F3800000287DD0012D7BD1E448007888
:1042700020F00400E2490870002003F0BFFD601E3A
:1042800000EB800101EB4010DE4911F8100000281E
:1042900042D155235422072148200BF0EAFD172371
:1042A0001A46072168200BF0E4FD57235622072108
:1042B00078200BF0DEFD12231122072198200BF04D
:1042C000D8FD5A2358221C2120200BF0D2FD2E238A
:1042D0001A461C2150200BF0CCFD20231A461C212D
:1042E00060200BF0C6FD5C235B221C2170200BF0CC
:1042F000C0FD40233F221C2190200BF0BAFD492332
:104300001A461C21B0200BF0B4FD122311221C21EF
:10431000C0200BF0AEFD3DE041231A46072150209E
:104320000BF0A7FD82231A46072160200BF0A1FDA8
:1043300055235422072170200BF09BFD12231122DC
:10434000072190200BF095FD842383221C21282037
:104350000BF08FFD5A2358221C2148200BF089FDB9
:104360002E2300E086E01A461C2178200BF081FD08
:1043700040233F221C2188200BF07BFD49231A4655
:104380001C21A8200BF075FD122311221C21B8203E
:104390000BF06FFD36231A462F213A200BF069FDF2
:1043A00035231A462F2178200BF063FD36231A4659
:1043B0002F21B6200BF05DFD5AE091480078C0F344
:1043C0008000E8B3012007F0A7FA601E00EB80012F
:1043D00001EB40108B4911F81000D8B10021601E8C
:1043E00000EB800202EB4010864A02F81010E11D3B
:1043F000C8B26946FDF770FE9DF81F0000F0F0009E
:104400008DF81F00E11DC8B220236A460021FDF788
:1044100082FE1CE00121601E00EB800202EB4010D6
:10442000784A02F81010E11DC8B26946FDF754FE43
:104430009DF81F0040F001008DF81F00E11D00E015
:1044400007E0C8B220236A460021FDF764FE01267A
:104450000FE06B480078C0F3400020B9684800784E
:10446000C0F3C00020B1012007F056FA012600E099
:10447000A3E700BF62480078C0F3800048B1022D76
:1044800007D15F48007820F004005D49087008B04B
:1044900070BDCDBB012E37D10026002003F0AEFC4D
:1044A0004F234E22102160200BF0E3FC0923082249
:1044B000102180200BF0DDFC601E00EB800101EB81
:1044C0004010504911F8100060B170236F22102184
:1044D000B2200BF0CEFC512350221021D2200BF041
:1044E000C8FC0BE0512350221021B2200BF0C1FC7C
:1044F000122311221021D2200BF0BBFC012002F06C
:10450000D5F9012002F052FD012D42D1012E40D1FA
:104510000026002003F072FC4F234E2210210F20B2
:104520000BF0A7FC0923082210212F200BF0A1FC7F
:10453000601E00EB800101EB4010324911F81000C1
:1045400060B170236F22102160200BF092FC512388
:104550005022102180200BF08CFC0BE051235022C4
:10456000102160200BF085FC1223112210218020E5
:104570000BF07FFC532352221021B8200BF079FC62
:10458000012002F093F9002002F010FD012002F05A
:104590000DFD022D33D1012E31D10026002003F074
:1045A0002DFC601E00EB800101EB4010154911F855
:1045B000100060B170236F2210210F200BF059FC06
:1045C0005123502210212F200BF053FC0BE05123DC
:1045D000502210210F200BF04CFC1223112210212D
:1045E0002F200BF046FC53235222102170200BF099
:1045F00040FC012002F05AF9002002F0D7FC03E051
:10460000350100208C4101202D480078C0F3C00006
:1046100050B12B48007820F0080029490870022D7D
:1046200002DA681CC5B2012625480078C0F34000B4
:1046300050B12348007820F0020021490870002D75
:1046400002DD681EC5B20126C5BB012E36D100268B
:10465000002003F0D3FB4F234E22102160200BF0EB
:1046600008FC09230822102180200BF002FC04EB37
:10467000840000EB4410134911F8100060B170235E
:104680006F221021B2200BF0F4FB51235022102195
:10469000D2200BF0EEFB0BE0512350221021B22070
:1046A0000BF0E7FB122311221021D2200BF0E1FBCB
:1046B000012002F0FBF8012002F078FCA3E50000E5
:1046C000350100208C41012070B501250024012016
:1046D00007F022F9EEE078480078C0F3800048B196
:1046E00044B97548007820F004007349087001F05F
:1046F000DDFA012570480078C0F3800050B1012C2C
:1047000008D16D48007820F004006B49087001F072
:1047100087FC012568480078C0F3800050B1022C66
:1047200008D16548007820F004006349087001F062
:1047300061F9012560480078C0F3800040B1032C86
:1047400006D15D48007820F004005B49087070BD18
:10475000BCB9012D15D10025002003F04FFB5E23CD
:104760005D22102170200BF084FB60235F2210215A
:10477000B8200BF07EFB012002F098F8012002F037
:1047800015FC012C20D1012D1ED10025002003F0A5
:1047900035FB5E235D2210212E200BF06AFB602387
:1047A0005F22102170200BF064FB6723662210212A
:1047B000B8200BF05EFB012002F078F8002002F038
:1047C000F5FB012002F0F2FB022C20D1012D1ED1BD
:1047D0000025002003F012FB60235F2210212E2011
:1047E0000BF047FB67236622102170200BF041FB82
:1047F000532352221021B8200BF03BFB012002F082
:1048000055F8012002F0D2FB002002F0CFFB032C70
:1048100017D1012D15D10025002003F0EFFA6723F1
:10482000662210212E200BF024FB5323522210214C
:1048300070200BF01EFB012002F038F8002002F07F
:10484000B5FB1D480078C0F3C00050B11A4800788D
:1048500020F0080018490870032C02DA601CC4B26A
:10486000012515480078C0F3400050B11248007887
:1048700020F0020010490870002C02DD601EC4B256
:104880000125BCB9012D15D10025002003F0B6FA91
:104890005E235D22102170200BF0EBFA60235F2273
:1048A0001021B8200BF0E5FA012001F0FFFF0120F4
:1048B00002F07CFB0FE7000035010020F8B504464C
:1048C0005CA00068009000250026012007F024F875
:1048D000002003F093FA3823352207211C200BF027
:1048E000C8FA04EB840000EB4410534901EB40008C
:1048F000821C07215C20FEF7F9FA04EB840101EB2E
:1049000044114D4A02EB41014978C9005C31C8B2FB
:104910003D233B2207210BF0ACFA04EB840101EBB1
:104920004411454A02EB41014978C9008C31C8B2B3
:1049300016231A4607210BF09CFA04EB840101EBC5
:1049400044113D4A02EB41014978C9009C31C8B28B
:104950003AA20721FEF7CAFA43233E221C21502027
:104960000BF087FA36231A462F213A200BF081FAF2
:1049700035231A462F2178200BF07BFA36231A466E
:104980002F21B6200BF075FA2DA21A21E220FEF796
:10499000ADFA00200BF01AFF44E0002003F09CFA6F
:1049A000642190FBF1F201FB120040BB002003F0F8
:1049B00093FA642190FBF1F0C0F11E00C5B225B955
:1049C00000200BF029FF0020F8BD0A2095FBF0F035
:1049D0003030C0B28DF800006A461A21D220FEF7AE
:1049E00085FA0A2095FBF0F100FB11503030C0B27F
:1049F0008DF800006A461A21DA20FEF777FA11488E
:104A00000078C0F3800008B101260CE00D48007862
:104A1000C0F3400020B90B480078C0F3C00008B1D3
:104A2000002600E0B9E700BF002006F075FF304621
:104A3000CAE70000300000008C4101203F00000068
:104A4000730000003501002008B50BF04FFE002078
:104A500003F0D4F92020002323221C2100902D48AC
:104A60000BF020FA01232022114670200FF0BEFA2D
:104A700003230222202170200BF0FBF9012001F01A
:104A800015FF2548C07810B1002002F08FFA2248A7
:104A9000C078012802DD012002F088FA012006F02A
:104AA0003BFF1D48C078062831D2DFE800F0030440
:104AB00009131D272CE019490020FFF7BDFA27E054
:104AC00016490020FFF7B8FA14494A310220FFF7CF
:104AD000B3FA1DE011490020FFF7AEFA0F499431F7
:104AE0000220FFF7A9FA13E00C490020FFF7A4FA0F
:104AF0000A49DE310220FFF79FFA09E0074900204A
:104B0000FFF79AFA06490220FFF796FA00E000BF85
:104B100000BF08BD20140020484101208C41012025
:104B2000B442012008B525480078C0F3800050B198
:104B30002248007820F00400204908700120204914
:104B40000870FFF7C1FD1F480078F8B91C480078CD
:104B500001281BD100201A49087003F04FF92020CA
:104B6000002323221C21009017480BF09BF90123FE
:104B70002022114670200FF039FA0323022220214F
:104B800070200BF076F9012001F090FE0B480078C0
:104B9000C0F3C00028B10948007820F00800074998
:104BA000087006480078C0F3400028B10348007838
:104BB00020F002000149087008BD00003501002006
:104BC0004C0100204D0100202014002008B555485C
:104BD0000078C0F3800068B15348007850B951485C
:104BE000007820F004004F49087001204F490870F8
:104BF000FFF76AFD4B480078C0F3800070B14A4867
:104C0000007801280AD14748007820F0040045497F
:104C10000870012045490870FFF7ECFA4248007817
:104C200030BB42480078012822D100203F4908705B
:104C300003F0E4F82020002323221C2100903C48AC
:104C40000BF030F901232022114670200FF0CEF92D
:104C500003230222202170200BF00BF9012001F028
:104C600025FE002002F0A2F932490020FFF7E4F906
:104C70002D480078012826D12C480078012822D11F
:104C800000202A49087003F0B9F8202000233622BA
:104C90002F21009026480BF005F901232022114610
:104CA000BC200FF0A3F9032302222021BC200BF02B
:104CB000E0F8012001F0FAFD012002F077F91D492A
:104CC0000120FFF7B9F917480078C0F3C00088B198
:104CD0001448007820F00800124908701248007843
:104CE000002807DD10480078401E0F490870012099
:104CF0000E4908700B480078C0F3400088B109489D
:104D0000007820F002000749087007480078012861
:104D100007DA05480078401C034908700120034960
:104D2000087008BD350100204D0100204C01002015
:104D3000201400208C41012008B58F480078C0F372
:104D4000800068B18D48007850B98B48007820F019
:104D5000040089490870012089490870FFF7B4FCF4
:104D600085480078C0F3800078B184480078012835
:104D70000BD18148007820F004007F4908700120A1
:104D80007F4908700220FFF735FA7B480078C0F3AE
:104D9000800070B17948007802280AD176480078FE
:104DA00020F0040074490870012075490870FFF76D
:104DB00021FA7248007870BB7148007801282AD126
:104DC00000206F49087003F019F8202000232322E7
:104DD0001C2100906B480BF065F80123202211463E
:104DE00070200FF003F903230222202170200BF022
:104DF00040F8012001F05AFD002002F0D7F8012010
:104E000002F0D4F860490020FFF716F95E494A31F4
:104E10000220FFF711F95948007801282ED158488F
:104E2000007801282AD100205549087002F0E6FFD9
:104E30002020002313220C21009052480BF032F85E
:104E400001232022114630200FF0D0F80323022244
:104E5000202130200BF00DF8012001F027FD00206B
:104E600002F0A4F8012002F0A1F847494A310120DC
:104E7000FFF7E2F844490220FFF7DEF83F480078E8
:104E800002282ED13E48007801282AD100203C4932
:104E9000087002F0B3FF2020002336222F2100905B
:104EA00038480AF0FFFF012320221146BC200FF0F2
:104EB0009DF8032302222021BC200AF0DAFF012002
:104EC00001F0F4FC002002F071F8012002F06EF80D
:104ED0002D490120FFF7B0F82B494A310020FFF798
:104EE000ABF825480078C0F34000F8B122480078BC
:104EF00020F002002049087020480078022809D1DB
:104F00001F48007830B900201C49087001201C4956
:104F100008700BE019480078022807DA1748007873
:104F2000401C164908700120154908701248007885
:104F3000C0F3C000F0B11048007820F008000E491E
:104F400008700E48007848B90D48007830B9022042
:104F50000A49087001200A4908700BE007480078E8
:104F6000002807DD05480078401E0449087001202C
:104F70000349087008BD0000350100204D010020E4
:104F80004C010020201400208C41012008B5A948C4
:104F90000078C0F3800068B1A748007850B9A548F0
:104FA000007820F00400A34908700120A34908708C
:104FB000FFF78AFB9F480078C0F3800070B19E48DD
:104FC000007801280AD19B48007820F00400994914
:104FD0000870012099490870FFF70CF9954800788E
:104FE000C0F3800078B19448007802280BD1914832
:104FF000007820F004008F49087001208F49087064
:105000000220FFF7F7F88B480078C0F3800078B1F2
:105010008948007803280BD18648007820F00400E6
:10502000844908700120854908700320FFF7E2F8E1
:105030008148007870BB8148007801282AD100207F
:105040007E49087002F0DAFE2020002323221C2172
:1050500000907B480AF026FF012320221146702091
:105060000EF0C4FF03230222202170200AF001FF6A
:10507000012001F01BFC002001F098FF012001F04D
:1050800095FF70490020FEF7D7FF6E49943102204A
:10509000FEF7D2FF6848007801282ED167480078D3
:1050A00001282AD100206549087002F0A7FE2020BF
:1050B000002336222F21009061480AF0F3FE0123DD
:1050C00020221146BC200EF091FF03230222202152
:1050D000BC200AF0CEFE012001F0E8FB002001F028
:1050E00065FF012001F062FF56494A310020FEF7BA
:1050F000A3FF54490120FEF79FFF4F480078022884
:105100001FD14E48007801281BD100204B49087060
:1051100002F074FE012001F0C9FB002001F046FFFF
:10512000012001F043FF474994310020FEF784FF3E
:1051300044494A310120FEF77FFF42490220FEF731
:105140007BFF3D48007803282FD13C480078012898
:105150002BD100203949087002F050FE2020002396
:1051600013220C21009036480AF09CFE01232022D5
:10517000114630200EF03AFF032302222021302076
:105180000AF077FE012001F091FB002001F00EFFF4
:10519000012001F00BFF2B4994310120FEF74CFF59
:1051A00028494A310220FEF747FF22480078C0F321
:1051B0004000D8B11F48007820F002001D49087057
:1051C0001D480078042807DA1B480078401C1A495B
:1051D000087001201949087017480078042805D183
:1051E0000020154908700120144908701148007802
:1051F000C0F3C000E8B10F48007820F008000D4966
:1052000008700D480078002807DD0B480078401E24
:10521000094908700120094908700748007840B919
:105220000648007828B90320034908700120034983
:10523000087008BD350100204D0100204C01002000
:10524000201400208C41012008B5C6480078C0F326
:10525000800068B1C448007850B9C248007820F096
:105260000400C04908700120C0490870FFF72CFAFB
:10527000BC480078C0F3800070B1BB4800780128BA
:105280000AD1B848007820F00400B649087001201F
:10529000B6490870FEF7AEFFB2480078C0F3800050
:1052A00078B1B148007802280BD1AE48007820F0E0
:1052B0000400AC4908700120AC4908700220FEF7D8
:1052C00099FFA8480078C0F3800078B1A64800781C
:1052D00003280BD1A348007820F00400A1490870EE
:1052E0000120A24908700320FEF784FF9D48007842
:1052F000C0F3800078B19C48007804280BD199480D
:10530000007820F004009749087001209749087040
:105310000420FEF76FFF9448007868BB934800783C
:10532000012829D100209149087002F067FD202052
:10533000002323221C2100908D480AF0B3FD012395
:105340002022114670200EF051FE0323022220215C
:1053500070200AF08EFD012001F0A8FA002001F073
:1053600025FE012001F022FE82490020FEF764FEA6
:1053700080490220FEF760FE7B48007801282ED18C
:105380007A48007801282AD100207849087002F074
:1053900035FD2020002336222F21009074480AF08A
:1053A00081FD012320221146BC200EF01FFE0323A5
:1053B00002222021BC200AF05CFD012001F076FAD7
:1053C000002001F0F3FD012001F0F0FD69494A31B0
:1053D0000020FEF731FE67490120FEF72DFE6248EE
:1053E000007802281FD16148007801281BD10020D5
:1053F0005E49087002F002FD012001F057FA00201A
:1054000001F0D4FD012001F0D1FD5A499431002072
:10541000FEF712FE57494A310120FEF70DFE5549AD
:105420000220FEF709FE50480078032820D14F489B
:10543000007801281CD100204C49087002F0DEFCE5
:10544000012001F033FA002001F0B0FD012001F04D
:10545000ADFD4849DE310020FEF7EEFD45499431AF
:105460000120FEF7E9FD43494A310220FEF7E4FD41
:105470003D48007804282FD13C48007801282BD1E2
:1054800000203A49087002F0B9FC202000231322C2
:105490000C21009036480AF005FD01232022114618
:1054A00030200EF0A3FD03230222202130200AF039
:1054B000E0FC012001F0FAF9002001F077FD012065
:1054C00001F074FD2B49DE310120FEF7B5FD2949BD
:1054D00094310220FEF7B0FD22480078C0F340006E
:1054E000D8B12048007820F002001E4908701E48FC
:1054F0000078052807DA1C480078401C1A49087013
:1055000001201A49087018480078052805D10020A4
:105510001549087001201549087012480078C0F339
:10552000C000E8B10F48007820F008000D4908706D
:105530000D480078002807DD0B480078401E0A4916
:1055400008700120094908700748007840B90748E9
:10555000007828B904200449087001200349087024
:1055600008BD0000350100204D0100204C01002045
:10557000201400208C41012008B5E2480078C0F3D7
:10558000800068B1E048007850B9DE48007820F02B
:105590000400DC4908700120DC490870FFF794F82A
:1055A000D8480078C0F3800070B1D748007801284F
:1055B0000AD1D448007820F00400D24908700120B4
:1055C000D2490870FEF716FECE480078C0F380007E
:1055D00078B1CD48007802280BD1CA48007820F075
:1055E0000400C84908700120C84908700220FEF76D
:1055F00001FEC4480078C0F3800078B1C24800784A
:1056000003280BD1BF48007820F00400BD49087082
:105610000120BE4908700320FEF7ECFDB948007870
:10562000C0F3800078B1B848007804280BD1B548A1
:10563000007820F00400B34908700120B3490870D5
:105640000420FEF7D7FDAF480078C0F3800078B1A2
:10565000AD48007805280BD1AA48007820F0040056
:10566000A84908700120A94908700520FEF7C2FD6D
:10567000A548007868BBA5480078012829D10020FA
:10568000A249087002F0BAFB2020002323221C212B
:1056900000909F480AF006FC01232022114670204A
:1056A0000EF0A4FC03230222202170200AF0E1FB6B
:1056B000012001F0FBF8002001F078FC012001F04E
:1056C00075FC94490020FEF7B7FC93490220FEF7D1
:1056D000B3FC8D48007801282ED18C480078012831
:1056E0002AD100208949087002F088FB202000237D
:1056F00036222F21009086480AF0D4FB0123202275
:105700001146BC200EF072FC032302222021BC2093
:105710000AF0AFFB012001F0C9F8002001F046FCBF
:10572000012001F043FC7B494A310020FEF784FC54
:1057300078490120FEF780FC7348007802281FD1C9
:105740007248007801281BD100207049087002F0CF
:1057500055FB012001F0AAF8002001F027FC0120F0
:1057600001F024FC6B4994310020FEF765FC694987
:105770004A310120FEF760FC66490220FEF75CFC1E
:1057800061480078032820D16048007801281CD1A6
:1057900000205E49087002F031FB012001F086F81C
:1057A000002001F003FC012001F000FC5A494A39B5
:1057B0000020FEF741FC574994310120FEF73CFCE4
:1057C00054494A310220FEF737FC4F48007804283C
:1057D0001FD14E48007801281BD100204B4908708A
:1057E00002F00CFB012001F061F8002001F0DEFB6B
:1057F000012001F0DBFB48490020FEF71DFC464973
:105800004A390120FEF718FC424994310220FEF784
:1058100013FC3D48007805282ED13C48007801282B
:105820002AD100203949087002F0E8FA202000232C
:1058300013220C21009036480AF034FB0123202269
:10584000114630200EF0D2FB03230222202130200B
:105850000AF00FFB012001F029F8002001F0A6FB5F
:10586000012001F0A3FB2C490120FEF7E5FB2A49AA
:105870004A390220FEF7E0FB22480078C0F34000DE
:10588000D8B12048007820F002001E4908701E4858
:105890000078062807DA1C480078401C1A4908706E
:1058A00001201A49087018480078062805D1002000
:1058B0001549087001201549087012480078C0F396
:1058C000C000E8B10F48007820F008000D490870CA
:1058D0000D480078002807DD0B480078401E0A4973
:1058E00008700120094908700748007840B9074846
:1058F000007828B905200449087001200349087080
:1059000008BD0000350100204D0100204C010020A1
:10591000201400208C410120B442012010B50F4812
:10592000C078062816D2DFE800F00306090C0F1233
:10593000FFF7F8F80FE0FFF749F90CE0FFF7FCF983
:1059400009E0FFF723FB06E0FFF77EFC03E0FFF72B
:1059500013FE00E000BF00BF10BD00004841012061
:1059600010B540E00FF00AFA204901200FF06CFB5F
:10597000002837D0012005F0CFFF002002F03EFACA
:1059800005230422102138200AF073FA032302228F
:10599000102158200AF06DFA2423232210217820A8
:1059A0000AF067FA0C231A46102198200AF061FACF
:1059B00022231A461021A8200AF05BFA25231A4652
:1059C0001021B8200AF055FA002000F06FFF00BF48
:1059D00007480078C0F380000028F9D0002005F0C7
:1059E0009BFF00E000E0BDE700BF10BD5841012073
:1059F0003501002070B50125002448E1A448007855
:105A0000C0F3800088B384BBA148007820F0040074
:105A10009F490870002002F0F1F961231A46102115
:105A200058200AF026FA49231A46102168200AF065
:105A300020FA62231A46102178200AF01AFA95A259
:105A400010218820FDF752FA002000F02FFF00BF40
:105A50008F480078C0F380000028F9D08C48007887
:105A600020F004008A490870012589480078C0F3B5
:105A70008000002838D0012C36D18548007820F0ED
:105A8000040083490870002002F0B8F932232F2265
:105A9000082138200AF0EDF90C231A460821782055
:105AA0000AF0E7F934233322082188200AF0E1F9CB
:105AB000692368220821A8200AF0DBF977A21C21BB
:105AC0004820FDF713FA002000F0F0FE00BF7048F8
:105AD0000078C0F380000028F9D06D48007820F0ED
