:020000040802F0
:1000000078740120AD010208B501020819BF020889
:10001000B9010208BB010208BD010208000000008E
:10002000000000000000000000000000BF01020806
:10003000C101020800000000C3010208FF260308F6
:10004000C7010208C7010208C7010208C701020868
:10005000C7010208C7010208C7010208C701020858
:10006000758C0208C7010208C7010208C70102080F
:10007000C7010208C7010208C7010208C701020838
:10008000C7010208C7010208C7010208C701020828
:10009000C7010208C7010208C70102087F8C0208D5
:1000A000C7010208C7010208C7010208C701020808
:1000B000C701020885280308C7010208C701020812
:1000C000C7010208C7010208C7010208C7010208E8
:1000D000C7010208C7010208C7010208C7010208D8
:1000E000C7010208C7010208C7010208C7010208C8
:1000F000C7010208C7010208C7010208C7010208B8
:10010000C7010208C7010208C7010208C7010208A7
:10011000C7010208C7010208C7010208C701020897
:10012000C7010208C7010208C7010208C701020887
:10013000C7010208C7010208C7010208C701020877
:10014000C7010208C7010208C701020881080308A5
:10015000C7010208C7010208C7010208C701020857
:10016000C7010208C7010208C7010208C701020847
:10017000C7010208C7010208C70102080000000009
:10018000C7010208C7010208DFF80CD000F0FAF836
:1001900000480047616403087874012030BF72B6DC
:1001A000704762B6704780F30888704706488047FA
:1001B00006480047FEE7FEE7FEE7FEE7FEE7FEE74C
:1001C000FEE7FEE7FEE7FEE7ED27030889010208E8
:1001D0002DE9F05F0546002092469B46884606467C
:1001E000814640241BE0284641464746224600F00F
:1001F000B8F853465A46C01A914110D311461846D2
:10020000224600F09FF82D1A67EB01084F46224660
:100210000120002100F096F817EB00094E41201E46
:10022000A4F10104DFDC484631462A464346BDE8D6
:10023000F09F2DE9F0410024061B254671F10006D0
:1002400005DA01240027D0EB070067EB0101161E39
:1002500073F1000605DA0027D2EB0702012567EBF0
:100260000303FFF7B5FF86460E4617469C46AC4291
:1002700004D00025D0EB050E65EB010624B100206B
:10028000D2EB000760EB030C704631463A466346FA
:10029000BDE8F081004870477887030810B5431A1D
:1002A000934209D28318881803E010F8011D03F85F
:1002B000011D521EF9D210BD40EA01039B0703D075
:1002C00009E008C9121F08C0042AFAD203E011F895
:1002D000013B00F8013B521EF9D210BDD2B201E041
:1002E00000F8012B491EFBD270470022F6E710B53B
:1002F00013460A4604461946FFF7F0FF204610BD94
:10030000421C10F8011B0029FBD1801A704710B560
:10031000002200E0521C835C8C5CA34201D1002BC4
:10032000F8D1D8B2E1B2401A10BD30B50446002071
:10033000034600E05B1C934203D2E05CCD5C401BB3
:10034000F8D030BD202A04DB203A00FA02F1002068
:1003500070479140C2F1200320FA03F31943904003
:100360007047202A04DB203A21FA02F0002170476E
:1003700021FA02F3D040C2F120029140084319460D
:1003800070470000064C074D06E0E06840F00103AE
:1003900094E8070098471034AC42F6D3FFF7F8FE14
:1003A0007C8703089C87030870B58C1810F8015BE4
:1003B00015F0070301D110F8013B2A1106D110F8FE
:1003C000012B03E010F8016B01F8016B5B1EF9D102
:1003D0002B0705D40023521E0DD401F8013BFAE788
:1003E00010F8013BCB1A921C03E013F8015B01F8F3
:1003F000015B521EF9D5A142D8D3002070BD000088
:100400002DE9F80FC04B4FF0010C4FF00508C3F871
:1004100008C0D3F808C0D3F800C0CDF800C01CF164
:10042000010C0AD04368D2F804C0006883EA0C07C4
:10043000136880EA030C63460FE0DDF800C0C3F8E0
:1004400000C01B68009353B14368D2F804C0006831
:1004500083EA0C07136843409C4664460FE0036838
:10046000D2F800C0946883EA0C074368D2F804C04D
:1004700083EA0C0C8368C0686340D4684440A34896
:100480003D0E04F0FF0950F82560CCF3074550F805
:10049000299050F8255007F0FF0A86EA3525C3F366
:1004A000072650F82AA050F826600CF0FF0B4FEA00
:1004B000364686EA396675401669C3F307496E40C9
:1004C0004FEA1C6550F8299050F82550CCF3072CC2
:1004D00085EA3925C4F3072950F82CC050F8299033
:1004E00050F82BB04FEA394989EA3A6985EA09059B
:1004F000D2F81490C4F3074A85EA09054FEA136954
:1005000050F82AA050F82990240E89EA3A29C7F316
:10051000072AC7F30747DBB250F82AA050F8244057
:1005200050F8277050F823304FEA3A4A4FEA3C4CD3
:100530008AEA3B6A84EA37248CEA336389EA0A0947
:1005400084EA030CD2F818A0D3692032A8F101087C
:1005500089EA0A098CEA0304B8F1000F69DD330E59
:10056000C5F3074C50F8233050F82CC0E7B283EAAB
:100570003C23C9F3072C50F8277050F82CC006F024
:10058000FF0A4FEA3C4C8CEA376C83EA0C03D2F842
:1005900000C050F82AA083EA0C072B0EC9F3074CC1
:1005A00050F8233050F82CC005F0FF0B83EA3C23B1
:1005B000C4F3072CC5F3072550F82CC050F825507C
:1005C0004FEA3C4C8CEA3A6C83EA0C03D2F804C044
:1005D000C4F3074A83EA0C0C4FEA196350F82AA0C7
:1005E00050F82330240E83EA3A23C6F3072AC6F3D1
:1005F000074650F8244050F8266050F82AA084EAB4
:10060000362409F0FF0650F82BB050F826604FEA68
:100610003A4A4FEA35458AEA3B6A85EA366583EA13
:100620000A036C40D2F808A0D56883EA0A036C403C
:1006300026E7374850FA84F300EB166C1B789CF8D9
:1006400000C0C9F3072743EA0C63C5F3074CC75D35
:1006500010F80CC04FEA0C4C4CEA072C43EA0C0390
:10066000D2F800C083EA0C030B6050FA86F300EB6B
:10067000156C1B789CF800C0C4F3072743EA0C6391
:10068000C9F3074CC75D10F80CC04FEA0C4C4CEA9C
:10069000072C43EA0C03D2F804C083EA0C034B6036
:1006A00050FA85F300EB196C1B789CF800C0C6F378
:1006B000072743EA0C6CC4F30743C75DC35C1B0404
:1006C00043EA07234CEA0303D2F808C083EA0C0389
:1006D0008B6050FA89F300EB146C1B789CF800C017
:1006E000C5F3072443EA0C63C6F3074CD26810F83D
:1006F0000CC0005D4FEA0C4C4CEA002018435040FF
:10070000C860BDE8F80F70470030024084710308EC
:100710005C6F03082DE9F04105460C4600F094F8A3
:100720002868206068686060A868A060E868E06089
:100730004448012600F5C5611034D4E900C300EB3C
:100740001C67CCF307483F7810F8088051F82770F1
:1007500051F8288087EA3827CCF3072810F808805A
:1007600051F828804FEA384850FA8CFC9CF800C0B9
:10077000D4E9022551F82CC088EA3C6C87EA0C0CBD
:10078000C4F800C000EB136CC3F307479CF800C02B
:10079000C75D51F82CC051F827708CEA372CC3F391
:1007A0000727C75D51F827704FEA374750FA83F3A0
:1007B0001B7851F8233087EA33638CEA03036360C4
:1007C00000EB1263C2F3074C1B7810F80CC051F811
:1007D000233051F82CC083EA3C23C2F3072C10F8D5
:1007E0000CC051F82CC04FEA3C4C50FA82F21278FF
:1007F00051F822208CEA32625A40A26000EB156266
:10080000C5F307431278C35C51F8222051F8233016
:1008100082EA3322C5F30723C35C51F823304FEA41
:10082000334350FA85FC9CF800C0761C51F82CC06C
:1008300083EA3C635A40E2600A2EFFF67DAFBDE8D2
:10084000F08100005C6F03082DE9F003D0E900C3DC
:100850008268C068184CC1E90220E1E804C30A2696
:10086000A4F5007505EB1067C0F307483F7815F84D
:10087000088047EA0867C0F3072815F808804FEAA0
:10088000084855FA80F999F8009048EA092847EA9B
:10089000080787EA0C0C54F8047B8CEA070C83EAFF
:1008A0000C035A405040C1E90220E1E804C3761E1F
:1008B000D8D1BDE8F00370475C7103082DE9F80F4B
:1008C000C04B4FF0010C4FF00608C3F808C0D3F836
:1008D00008C0D3F800C0CDF800C01CF1010C0AD04C
:1008E0004368D2F804C0006883EA0C07136880EA02
:1008F000030C63460FE0DDF800C0C3F800C01B68BE
:10090000009353B14368D2F804C0006883EA0C072F
:10091000136843409C4664460FE00368D2F800C069
:10092000946883EA0C074368D2F804C083EA0C0C8D
:100930008368C0686340D4684440A3483D0E04F017
:10094000FF0950F82560CCF3074550F8299050F87E
:10095000255007F0FF0A86EA3525C3F3072650F82D
:100960002AA050F826600CF0FF0B4FEA364686EAC4
:10097000396675401669C3F307496E404FEA1C6536
:1009800050F8299050F82550CCF3072C85EA3925EA
:10099000C4F3072950F82CC050F8299050F82BB018
:1009A0004FEA394989EA3A6985EA0905D2F814908B
:1009B000C4F3074A85EA09054FEA136950F82AA0EB
:1009C00050F82990240E89EA3A29C7F3072AC7F379
:1009D0000747DBB250F82AA050F8244050F827709F
:1009E00050F823304FEA3A4A4FEA3C4C8AEA3B6AD5
:1009F00084EA37248CEA336389EA0A0984EA030C1F
:100A0000D2F818A0D3692032A8F1010889EA0A09AE
:100A10008CEA0304B8F1000F69DD330EC5F3074C0F
:100A200050F8233050F82CC0E7B283EA3C23C9F3D6
:100A3000072C50F8277050F82CC006F0FF0A4FEA38
:100A40003C4C8CEA376C83EA0C03D2F800C050F8B7
:100A50002AA083EA0C072B0EC9F3074C50F8233069
:100A600050F82CC005F0FF0B83EA3C23C4F3072C9D
:100A7000C5F3072550F82CC050F825504FEA3C4CE0
:100A80008CEA3A6C83EA0C03D2F804C0C4F3074A38
:100A900083EA0C0C4FEA196350F82AA050F823306F
:100AA000240E83EA3A23C6F3072AC6F3074650F812
:100AB000244050F8266050F82AA084EA362409F031
:100AC000FF0650F82BB050F826604FEA3A4A4FEA3A
:100AD00035458AEA3B6A85EA366583EA0A036C4053
:100AE000D2F808A0D56883EA0A036C4026E73748A5
:100AF00050FA84F300EB166C1B789CF800C0C9F325
:100B0000072743EA0C63C5F3074CC75D10F80CC018
:100B10004FEA0C4C4CEA072C43EA0C03D2F800C015
:100B200083EA0C030B6050FA86F300EB156C1B781C
:100B30009CF800C0C4F3072743EA0C63C9F3074CD1
:100B4000C75D10F80CC04FEA0C4C4CEA072C43EA86
:100B50000C03D2F804C083EA0C034B6050FA85F30F
:100B600000EB196C1B789CF800C0C6F3072743EA1A
:100B70000C6CC4F30743C75DC35C1B0443EA072343
:100B80004CEA0303D2F808C083EA0C038B6050FAE6
:100B900089F300EB146C1B789CF800C0C5F30724A4
:100BA00043EA0C63C6F3074CD26810F80CC0005D32
:100BB0004FEA0C4C4CEA002018435040C860BDE896
:100BC000F80F704700300240847103085C6F03081F
:100BD0002DE9F0410C4600F08BF84448012600F561
:100BE000C5621034D4E900C300EB1C67CCF307489E
:100BF0003F7810F8088052F8277052F8288087EA6A
:100C00003827CCF3072810F8088052F828804FEADC
:100C1000384850FA8CFC9CF800C0D4E9021552F810
:100C20002CC088EA3C6C87EA0C0CC4F800C000EBCE
:100C3000136CC3F307479CF800C0C75D52F82CC083
:100C400052F827708CEA372CC3F30727C75D52F898
:100C500027704FEA374750FA83F31B7852F8233056
:100C600087EA33638CEA0303636000EB1163C1F32B
:100C7000074C1B7810F80CC052F8233052F82CC0E7
:100C800083EA3C23C1F3072C10F80CC052F82CC0A7
:100C90004FEA3C4C50FA81F1097852F821108CEA65
:100CA00031615940A16000EB1561C5F30743097834
:100CB000C35C52F8211052F8233081EA3321C5F386
:100CC0000723C35C52F823304FEA334350FA85FCC4
:100CD0009CF800C0761C52F82CC083EA3C63594053
:100CE000E1600C2EFFF67DAFBDE8F0815C6F03087C
:100CF0002DE9F00F02680A60D0E900C24A60D0E92D
:100D000001328A60D0E90225CD60D0E903560E6138
:100D1000D0E904674F611B4F4069002407F5007953
:100D200007EB1068C0F3074A98F8008017F80AA08C
:100D300048EA0A68C0F3072A17F80AA04FEA0A4AE5
:100D400057FA80FB9BF800B04AEA0B2A48EA0A08E7
:100D500088EA0C0C59F82480641C8CEA080C83EA9D
:100D60000C035A40554041F818CF082CCD60C1E91A
:100D70000132A4BFBDE8F00F70476E407040C1E97A
:100D80000460CDE75C6F03082DE9F80FC14B4FF00D
:100D9000010C4FF00708C3F808C0D3F808C0D3F817
:100DA00000C0CDF800C01CF1010C7CD04368D2F823
:100DB00004C08068946883EA0C039C4680EA0407B8
:100DC0006446B5484FEA1C65C7F3074650F82550FE
:100DD00050F8266004F0FF0985EA3625C3F307269C
:100DE00050F8299050F826600CF0FF0A4FEA36467A
:100DF00086EA39666E401569C3F307496E403D0EB9
:100E000050F8299050F8255050F82AA085EA392545
:100E1000C4F3072907F0FF0B50F8299050F82BB0C6
:100E20004FEA394989EA3A6985EA09095569C4F3FB
:100E3000074A89EA05054FEA136950F82AA050F8D5
:100E40002990240E89EA3A29CCF3072ACCF3074CDF
:100E500050F8244050F82CC0DBB284EA3C2CC7F395
:100E6000072450F82AA050F8244050F823304FEAC5
:100E70003A4A4FEA34448AEA3B6A84EA336389EAAD
:100E80000A098CEA0303D2F818A0D2F81CC0203259
:100E9000A8F1010889EA0A0983EA0C04B8F1000FF5
:100EA0007BDD330E00E065E0C5F3074C50F82330DE
:100EB00050F82CC0E7B283EA3C23C9F3072C50F862
:100EC000277050F82CC006F0FF0A4FEA3C4C8CEA21
:100ED000376C83EA0C03D2F800C0C9F3074783EAF2
:100EE0000C0C2B0E50F8277050F8233050F82AA025
:100EF00083EA3723C4F3072705F0FF0B50F8277068
:100F0000C5F307254FEA374787EA3A677B405768BA
:100F1000C4F3074A5F404FEA196350F82AA050F81B
:100F20002330240E83EA3A23C6F3072AC6F3074682
:100F300050F8244050F8266050F82AA084EA36245D
:100F400009F0FF0650F8255050F82BB050F82660F5
:100F50004FEA3A4A4FEA35458AEA3B6A85EA3665FE
:100F600083EA0A036C40D2F808A0D56883EA0A0332
:100F70006C4027E7DDF800C0C3F800C01B68009391
:100F800063B14368D2F804C08068946883EA0C0CAB
:100F900080EA04076346644613E70FE00368D2F86B
:100FA00000C0546883EA0C0C436883EA0407836832
:100FB0009468C0686340D468444002E7374850FAF8
:100FC00084F300EB166C1B789CF800C0C9F307276C
:100FD00043EA0C63C5F3074CC75D10F80CC04FEA39
:100FE0000C4C4CEA072C43EA0C03D2F800C083EA0D
:100FF0000C030B6050FA86F300EB156C1B789CF821
:1010000000C0C4F3072743EA0C63C9F3074CC75D6C
:1010100010F80CC04FEA0C4C4CEA072C43EA0C03C6
:10102000D2F804C083EA0C034B6050FA85F300EB5E
:10103000196C1B789CF800C0C6F3072743EA0C6CB8
:10104000C4F30743C75DC35C1B0443EA07234CEAB0
:101050000303D2F808C083EA0C038B6050FA89F3CB
:1010600000EB146C1B789CF800C0C5F3072443EA1E
:101070000C63C6F3074CD26810F80CC0005D4FEA51
:101080000C4C4CEA002018435040C860BDE8F80FF3
:101090007047000000300240847103085C6F030851
:1010A0002DE9F0410C4600F08BF84448012600F58C
:1010B000C5621034D4E900C300EB1C67CCF30748C9
:1010C0003F7810F8088052F8277052F8288087EA95
:1010D0003827CCF3072810F8088052F828804FEA08
:1010E000384850FA8CFC9CF800C0D4E9021552F83C
:1010F0002CC088EA3C6C87EA0C0CC4F800C000EBFA
:10110000136CC3F307479CF800C0C75D52F82CC0AE
:1011100052F827708CEA372CC3F30727C75D52F8C3
:1011200027704FEA374750FA83F31B7852F8233081
:1011300087EA33638CEA0303636000EB1163C1F356
:10114000074C1B7810F80CC052F8233052F82CC012
:1011500083EA3C23C1F3072C10F80CC052F82CC0D2
:101160004FEA3C4C50FA81F1097852F821108CEA90
:1011700031615940A16000EB1561C5F3074309785F
:10118000C35C52F8211052F8233081EA3321C5F3B1
:101190000723C35C52F823304FEA334350FA85FCEF
:1011A0009CF800C0761C52F82CC083EA3C6359407E
:1011B000E1600E2EFFF67DAFBDE8F0815C6F0308A5
:1011C0002DE9F04FD0E902C2D0E90054C1E902C2D2
:1011D000C1E90054D0E90487C1E90487D0E9066376
:1011E000C1E906632B484FF0000900BF00EB136A0A
:1011F000C3F3074B9AF800A010F80BB04AEA0B6A49
:10120000C3F3072B10F80BB04FEA0B4B50FA83FED9
:101210009EF800E020314BEA0E2B4AEA0B0A8AEADC
:10122000050A1D4D55F8295009F101098AEA0505FD
:101230006C408CEA040C82EA0C02C1E902C2C1E9EA
:101240000054B9F1070FA8BFBDE8F08F50FA82FA39
:101250009AF800A000EB126BC2F3072E9BF800B0C7
:1012600010F80EE04AEA0B6AC2F3074B10F80BB015
:101270004FEA0B4B4BEA0E2B4AEA0B0A8AEA0808A4
:1012800087EA08077E407340C1E90663C1E9048725
:10129000ACE700005C6F03085C7103082DE9F047C0
:1012A00084B01F46DDF830A091468846060018BF7E
:1012B000B8F1000F0FD0002F18BFBAF1000F0AD0FD
:1012C000B9F1000F02DD19F00F0F09D004B040F69C
:1012D0001D40BDE8F08704B04FF44260BDE8F087E0
:1012E000307910F0020F13BF40F61E4000246D4607
:1012F00004B018BFBDE8F0875FF0000004EB800188
:1013000058F8011009BA45F82010401C0428F5DBF4
:10131000736A6846014606F12802182B04D0202B78
:1013200005D0FFF76DF804E0FFF7C8FA01E0FFF71A
:101330002BFD4FF0000C00BF55F82C0004EB8C0186
:1013400000BA0CF1010C7850BCF1040FF4DB10343E
:101350004C45D1DBCAF8004004B00020BDE8F0875E
:10136000002812BF002A4FF442607047017941F013
:10137000020101710020106070470223AFF300806A
:10138000002818BF002905D003F0060C2AB9BCF1CB
:10139000020F02D04FF4426070472DE9F043446AD7
:1013A00089B0102C1CBF182C202C06D1BCF1020FC8
:1013B00008D00469641E102C04D309B040F61F4005
:1013C000BDE8F083C2600479BCF1020F24F006048A
:1013D000047149D0002444618461C46104620569D8
:1013E000002DD8BF4FF0000C06DD15F0010C03D026
:1013F000167844EA066444616545C8BF182433DDA5
:101400004FEAEC750CEB957525F003063718ACEB3D
:10141000060607F1140512F80C8076427F6904EB8A
:10142000C60608FA06F63E432E600CF10107FE17C9
:1014300007EB967525F0030606EB000802EB0C0996
:10144000BE1B08F1140599F801907642D8F8148073
:1014500004EBC60609FA06F648EA06062E60056998
:101460000CF1020C6545CBDC027912F0010F55D16D
:10147000816013F0010F0DD006229A430AD0426A10
:101480000B4600F128014FEAE27C00206C4602EB9B
:101490009C7C2FE000F1280C426A0020D3176C4698
:1014A00002EB937306E000BF51F820502DBA44F8C8
:1014B0002050401CB0EBA30FF6DB102A04D0182AF2
:1014C00007D0202A2AD109E061462046FFF7BCF95F
:1014D00024E061462046FFF70BFC1FE061462046F2
:1014E000FFF76EFE1AE000BF53F820502DBA44F803
:1014F0002050401CB0EBAC0FF6DB102A07D0182AA6
:1015000009D0202A04BF2046FFF7CAFD06E0204686
:10151000FFF700F902E02046FFF75AFB09B0002070
:10152000BDE8F08300B587B000BF1148006840F007
:1015300002000F4908600846006800F002000190B0
:1015400000BF00BF4FF440700290032005901120AF
:1015500003900020049002A9064808F0A9F8012091
:10156000054908600549C1F8A40207B000BD0000A4
:101570003038024000040240A082404200804042D5
:1015800070B504460E4610F019FFC92010F0A8F8F7
:101590001648006808B1EA2070BD0FF0CBFB207040
:1015A000002000F011FD2578042D01DBB54203DD9C
:1015B00010F030FFE420EFE7681EC5B2641C0EE0B7
:1015C0000FF0B8FB04F8010B681EC0B2050003D091
:1015D000002000F0F9FC02E0012000F0F5FC002DF5
:1015E000EED110F017FF0020D6E70000C001002068
:1015F00070B504460D4610F0E1FEC82010F070F8FA
:101600000B48006808B1EA2070BD0AE0207810F0AD
:1016100067F80748006808B1F720F5E7641C681E02
:10162000C5B2002DF2D110F0F5FE0020ECE700006D
:10163000C001002070B504460025E126204614F0C4
:101640007DF806460EB9012500E00025284670BD4C
:1016500010B5002004490860502013F093FC0120CD
:101660000249C1F8A40210BDA48240420080404259
:101670002DE9F04194B004460D4616464FF001089E
:10168000E12700BF15F01DFB10B94FF0000828E05E
:1016900011A814F0ADF8074617B14FF0000820E08C
:1016A000242108A8FEF721FE40208DF80400ADF8A3
:1016B0000640029500200390049011A80590002098
:1016C000069008A80790BDF806109DF80400334660
:1016D000029A13F0C6FF074617B14FF0000800E06A
:1016E00000BF00BF404614B0BDE8F0812DE9FC41C9
:1016F00004460D460026002700BF15F0E2FA08B99F
:1017000000BF0EE0202000231A462146CDE90050FC
:10171000022014F08EF807460FB1002600E00126E3
:1017200000BF00BF3046BDE8FC812DE9FC47044600
:101730000D4616461F464FF00008C14600BF15F083
:10174000AFFA08B900BF11E02B4600222146022063
:10175000CDE9006714F057F98146B9F1000F02D0C6
:101760004FF0000801E04FF0010800BF00BF404605
:10177000BDE8FC8730B587B00024002500BF2748AE
:10178000006840F00400254908600846006800F041
:101790000400019000BF00BF042002902048039085
:1017A0000120049002A91F4807F082FF0820029040
:1017B0000120039004900320059002A9194807F026
:1017C00077FF03220121082008F0E9F8082008F03B
:1017D000D9F80BF067FC0BF0D3FD00F0ABF8052057
:1017E00007F05CFE00200BF0EBFB044621460EA048
:1017F00013F0B8FB00F066FA0120114908700020D0
:10180000104908701049087001200BF0D9FB0546FB
:1018100029460EA013F0A6FB07B030BD30380240B9
:10182000000021100008024041573931333620634F
:101830006869702049443A30782534780D0A0000F0
:10184000C4010020C5010020C601002041573931E4
:101850003336204743523A307825780D0A0000008D
:1018600010B54FF44C5157200BF0CEFB03215820FC
:101870000BF0CAFB1C2150200BF0C6FBFC215520AD
:101880000BF0C2FB4FF4224161200BF0BDFB4FF483
:10189000234161200BF0B8FB4FF4244161200BF091
:1018A000B3FB032101200BF0AFFB10BD10B54FF4CB
:1018B0004C5157200BF0A8FB032158200BF0A4FB40
:1018C0001C2150200BF0A0FBFC2155200BF09CFBB1
:1018D0004AF2FF2161200BF097FB4AF2FF316120B1
:1018E0000BF092FB4AF2FF4161200BF08DFB0321CC
:1018F00001200BF089FB10BD10B532200BF060FB0E
:101900000446204610BD000010B5094800680128B3
:1019100002D0022806D102E000F0B4FA03E000F0A1
:101920005BFA00E000BF00BFFFF7E6FF10BD00005C
:10193000D401002010B500220821074807F0C4FF99
:10194000052007F0ABFD01220821034807F0BCFF8A
:101950000A2007F0A3FD10BD0008024030B58FB08B
:10196000D148007860B913200BF02AFB01901420B5
:101970000BF026FB029015200BF022FB03900BE0EE
:10198000002407E0C94850F8240001A941F82400C8
:10199000601CC4B2032CF5DB03211E200BF034FBCA
:1019A000002409E004F13601C8B20BF009FB07A9D5
:1019B00041F82400601CC4B2062CF3DB02200BF0BB
:1019C000FFFA0546002410E0B948007808B9002065
:1019D00006E0B84850F8240007A951F8241008443C
:1019E000B44941F82400601CC4B2062CECDBB048BA
:1019F000007801286FD10024DBE00120A0402840BE
:101A0000002869D1AB4850F824004FF47A71B1EB4B
:101A1000A00F70DD204604EBD0714910A4EB41010A
:101A200099B1611001AA32F8211001F47F41B1F59A
:101A3000805F0AD1601001A911F82000611042F8FE
:101A4000210002200DA908559CE0204604EBD0712E
:101A50004910A4EB410151B1611001AA32F82110E3
:101A600001F47F4119B900200DA908558AE02046EC
:101A700004EBD0714910A4EB410191B9611001AAA6
:101A800012F8211010290CD1601001A931F82000A2
:101A900000F47F40611042F8210002200DA9085592
:101AA00070E0204604EBD0714910A4EB410141B92C
:101AB000611001AA12F8211019B900200DA90855CA
:101AC00060E0204604EBD0714910A4EB410121B144
:101AD0004FF4807102E0D7E069E00121621001ABB0
:101AE00053F82220511A621043F8221002200DA947
:101AF000085547E0FFE76F4850F8240040F6B8313A
:101B0000B1EBA00F3BDA204604EBD0714910A4EBF7
:101B1000410161B1611001AA32F8211001F47F4145
:101B2000B1F5F85F03D100200DA908552AE0204641
:101B300004EBD0714910A4EB410149B9611001AA2D
:101B400012F821101F2903D100200DA9085519E012
:101B5000204604EBD0714910A4EB410111B14FF4C0
:101B6000807100E00121621001AB53F82220114482
:101B7000621043F8221001200DA9085502E0002050
:101B80000DA9085548480078002810DD0DA8005D13
:101B90004949095D88420AD000200DA90855601006
:101BA000424951F82000611001AA42F82100601C4E
:101BB000C4B2062CFFF621AF002040490870002473
:101BC0000BE00120A040284028B90DA8005D10B10D
:101BD00001203A490870601CC4B2062CF1DB37487A
:101BE000007830B93048007818B9002034490870BE
:101BF00002E00120324908703048007830B90020F6
:101C0000294908702A4908700FB030BD0021012011
:101C10000BF0FAF900240AE001AA32F8242091B26C
:101C200004F11302D0B20BF0EFF9601CC4B2032C24
:101C3000F2DB032101200BF0E7F91B4800780328B1
:101C400007D100201D49087017490870184908700D
:101C5000DAE7002405E00DA8005D17490855601C6F
:101C6000C4B2062CF7DB002407E001A850F82400DA
:101C70000E4941F82400601CC4B2032CF5DB0A486D
:101C80000078401C0849087009480078012805DAE6
:101C900007480078401C0649087002E0002004490B
:101CA00008700120B0E70000C50100200C5201209F
:101CB000C601002024520120C8010020C4010020D8
:101CC000C701002010B5002101200BF09DF91C2157
:101CD00050200BF099F9002151200BF095F94FF4A9
:101CE0004C5157200BF090F9032158200BF08CF940
:101CF000002159200BF088F900215A200BF084F9BB
:101D000000215B200BF080F9A12152200BF07CF91F
:101D10004FF4C05118200BF077F9232102200BF06B
:101D200073F9842111200BF06FF940F28721122002
:101D30000BF06AF941F2111114200BF065F941F230
:101D4000111115200BF060F940F60A210C200BF060
:101D50005BF940F60A210D200BF056F940F60A21F6
:101D60000E200BF051F940F202211B200BF04CF930
:101D700040F202411C200BF047F91C2107200BF018
:101D800043F9802103200BF03FF9052119200BF0C6
:101D90003BF9002121200BF037F9002120200BF026
:101DA00033F9002127200BF02FF900212C200BF014
:101DB0002BF9002122200BF027F900212D200BF018
:101DC00023F9032101200BF01FF9022001490860CB
:101DD00010BD0000D401002070B527480078D8B1AC
:101DE000FFF7BCFD24480078A8B92448007818B152
:101DF000002101200BF008F91C2103200BF004F94D
:101E000000212D200BF000F91C48007818B10321A7
:101E100001200BF0F9F870BD1948006828BB32208A
:101E20000BF0CEF8054631200BF0CAF8044605F059
:101E3000100040B114B900F08FF81BE0102C19D13C
:101E400000F089F816E005F0080040B114B900F080
:101E500081F80FE0082C0DD100F068F80AE005F0D9
:101E6000040010B114B900F09DF803E0042C01D176
:101E700000F084F800BFCEE7C4010020C7010020B5
:101E8000D001002010B51B480078D8B1FFF766FDDF
:101E900018480078A8B91848007818B10021012026
:101EA0000BF0B2F8002103200BF0AEF810212D202A
:101EB0000BF0AAF81048007818B1002101200BF0AF
:101EC000A3F810BD0D48006888B92E200BF078F8F3
:101ED0000446102C02D100F013F808E0012C02D1C6
:101EE00000F062F803E0022C01D100F037F800BFE7
:101EF000E7E70000C4010020C7010020D001002056
:101F000010B502A013F02EF810BD00004157393172
:101F100033362063656E74657220646F75626C651C
:101F200020636C69636B200A0000000000B508485C
:101F3000007800F0010030B10548007820F008007A
:101F400008300349087050200EF098F800BD0000DA
:101F500079010020704770477047000010B502A05B
:101F600013F000F810BD0000415739313336206CB2
:101F700065667420736C6970200A000000B508481B
:101F8000007800F0010030B10548007820F0020030
:101F9000801C0349087050200EF070F800BD00004E
:101FA000790100207047000010B502A012F0DAFF9E
:101FB00010BD0000415739313336207269676874AB
:101FC00020736C6970200A0010B50446094804604B
:101FD000032012F0D7FF01200749C1F8A002042016
:101FE00012F0D0FF00200349091F0860022012F000
:101FF000C9FF10BDA4824042008040422DE9F84351
:102000000024884600940646817998F80600914697
:102010001D46814288BF0846411C1A46684610F09A
:1020200099F900281CBF40F2ED30BDE8F883414625
:10203000304600F0C3FCC01C0127072862D2DFE84D
:1020400000F03E2D25352D2504004046009900F076
:102050005FFD00993046CC7100F0B0FCB0F1FF3F5D
:1020600004D000284BD002284CD107E0314640462E
:10207000009A10F06AFA0098C77143E04146304672
:10208000009A10F062FA0098C4713BE04146304675
:10209000009A00F053F80098C47133E0414630468E
:1020A000009A00F04BF80098C7712BE0414630468B
:1020B000009A00F043F80099F079C87122E03046A8
:1020C000009900F025FD00984146C47100F076FCAF
:1020D000B0F1FF3F03D090B1022813D107E03146A1
:1020E0004046009A10F031FA0098C4710AE0414667
:1020F0003046009A10F029FA0098C77102E0009863
:102100000FF09EFC002148460BF006F94946009866
:1021100000F0FEFC0099002914BF002DBDE8F883F3
:10212000EA8889796FF00303494203EB8101114486
:102130000839E9800094BDE8F88300002DE9F84FE4
:102140000B46D0F800B0096800910025B0F804C033
:102150009E88176891462C46B44598BF664681799B
:102160004FF0010E4FF000088C4532D8A1EB0C0166
:10217000002201F1010ABAF1000F2ADD3EEA010155
:102180001CBF4BF82C80012290F806C0B0F804A0C8
:10219000ACEB0A0C0CF1010C8C451AD91FFA8AFA27
:1021A000D0F800C09244521C4CF82A80B0F804A029
:1021B000D0F800C09244521C4CF82A8090F806C017
:1021C000B0F804A0891CACEB0A0C0CF1010C8C4596
:1021D000E4D8B3F804C099798C4534D8A1EB0C014C
:1021E000002201F1010ABAF1000F2CDD3EEA0101E3
:1021F00003D01A6842F82C80012293F806C0B3F885
:1022000004A0ACEB0A0C0CF1010C8C451BD900BFEF
:102210001FFA8AFAD3F800C09244521C4CF82A8064
:10222000B3F804A0D3F800C09244521C4CF82A80A2
:1022300093F806C0B3F804A0891CACEB0A0C0CF1AF
:10224000010C8C45E4D881889A889142494638BF70
:10225000184600F05DFC002E48D00098ABF1040356
:10226000021F391F16F0010F0DD053F804CF52F89A
:10227000040F1CEB000048EB080C40194CEB040564
:1022800041F8040F44465FEA560C1BD0D3F804A073
:1022900050681AEB000048EB080A45194D604AEBFC
:1022A000040053F808AF52F8085F1AEB050548EB35
:1022B0000804281844EB080541F8080F4446BCF10F
:1022C000010CE3D195B157F82600401C47F82600D1
:1022D00007E0761C07EB86000168491C016057F88F
:1022E000260018B9B9F80400B042F2D2B9F80400D7
:1022F00057F8201000291CBF401CA9F80400BDE8B5
:10230000F88F00002DE9F041B4B080460E46174624
:102310001D4664211BA8FDF7E8FF642102A8FDF714
:10232000E4FF0020019002AA3146404609F0B8FEC1
:10233000710001AB1BAA02A809F012FE18B9012016
:1023400034B0BDE8F0811BA8019901F09FF808B9ED
:102350000220F5E70748FDF7D3FF2860002403E0DB
:102360000448005D3855641C2868A042F8DC002051
:10237000E6E70000803900202DE9F043A3B0814654
:102380000E461746984600240020049003900290C1
:1023900032215948FDF7A9FF32215848FDF7A5FF22
:1023A00000F01DFC544814905448159018A80EF0E5
:1023B000CDFB04461CB1002023B0BDE8F08350489B
:1023C00005900020ADF81A004FF46060ADF81800D9
:1023D0004C4807904C4809904C480B904C480D9045
:1023E000202008900A900E900C90B8F1010F07D1B0
:1023F0000F9606F1200011902020109012900DE011
:10240000B8F1000F07D143480F90434811902020A6
:102410001090129002E041F25240CDE705A907A8C2
:1024200005F054FE044604B161E005AA07A902A81C
:1024300005F028FF044604B154E007A9029806F00D
:102440005DF8044604B14DE005AA07A904A805F00B
:1024500019FF044604B145E005AA07A903A805F041
:1024600079FF044604B138E020224946039806F07B
:1024700085F8044604B12BE005A807AB009002A83C
:1024800007C805F09FFF044604B121E016AB002108
:10249000149A049805F0BCFD044617AB0121159A67
:1024A000049805F0B5FD04438CB9002503E01498A9
:1024B000405D78556D1C202DF9DB002505E0159851
:1024C000415D05F1200039546D1C202DF7DB00BF64
:1024D00005A903A805F084FD00BF05A904A805F01F
:1024E0005EFD00BF05A907A805F01BFD00BF18A8E9
:1024F0000EF062FB20465FE7383800206A38002083
:1025000070280020F46D0308146E0308346E03086D
:10251000546E0308746E0308946E0308F0B599B006
:1025200004460D461646002700F059FB03A801ABF0
:1025300005AA09A900900DA806F06AFB20200B90BF
:102540000C90099404F120000A9020200790089034
:10255000059505F1200006902020029001960A487A
:10256000039003A801AB05AA09A900900DA805F0E6
:10257000F3FB074640F2EB30874202D1012019B04D
:10258000F0BD0020FBE70000B8370020F0B5AFB089
:1025900006460F46154600202E9020202D90112132
:1025A00001A8FDF7A2FE2D480068009020210BA88D
:1025B000FDF79BFE142106A8FDF797FE282138465B
:1025C000FDF793FE212D04D0412D02D001202FB024
:1025D000F0BD212D16D1E8B28DF89000AC2124AACF
:1025E000681C1154002404E0315D24AA601C1154BD
:1025F000641CAC42F8DB2DAB0BAAA91C24A800F08C
:102600004DF815E0E8B28DF84C00AC2113AA681C17
:102610001154002404E0315D13AA601C1154641CA1
:10262000AC42F8DB2DAB0BAAA91C13A800F036F8BE
:1026300006A90BA80EF024FC002405E006A8015D05
:10264000601C0DF80010641C142CF7DB2EAB3A460E
:102650001521684600F092F8B9E70000B46E03084F
:102660002DE9F04106460C461546611C304605F042
:10267000B7FA07466DB194F8400000EBD0714910ED
:10268000A0EB410111B10320207004E00220207072
:1026900001E0042020703846BDE8F0812DE9F041CA
:1026A00004460D4616461F4600F099FA3B46324650
:1026B0002946204608F084FE80464046BDE8F08169
:1026C00030B503460C46002106E0585C655CA84224
:1026D00001D0002030BD491C9142F6DB0120F9E712
:1026E0002DE9F04704460D4616464FF0000AD04645
:1026F000C1463BE02046E11704EB9171C1F3870727
:1027000016F80800203800F0FF0A3D2F08DD0024ED
:102710002046E11704EB91718F1005F11000C5B24E
:1027200007F11D02D1B2521ED0B20FF0ACF905F183
:102730000F00C1B228460FF0B6F90FF0C4F94FF000
:10274000000909E009EB0A110B4A505C00F089F915
:1027500009F1010000F0FF09B9F1100FF2DB08F1F7
:10276000010000F0FF0804F10800C4B216F80800E8
:102770000028BFD1BDE8F087D80100202DE9F04145
:10278000ADF58D6D0646884617461D464FF400711F
:1027900083A8FDF7AAFD4FF4007103A8FDF7A5FD7E
:1027A000202002900020019002AB0DF22C42414605
:1027B0003046FFF773FF02AB0DF20C4220210DF201
:1027C0002C40FFF76BFF002404E0305D0DF24C411C
:1027D0000855641C152CF8DB002408E00DF20C40B1
:1027E000015D04F115000DF24C421154641C042CDF
:1027F000F4DB03AA19210DF24C4009F051FC01ABA6
:1028000083AA322103A809F0ABFB20B901200DF502
:102810008D6DBDE8F08183A8019900F037FE08B9FD
:102820000220F4E70748FDF76BFD2860002403E071
:102830000448005D3855641C2868A042F8DC00207C
:10284000E5E700008039002070B485880468012D18
:1028500002BF2368002B012312D0AB006FF00306E8
:1028600006EB85054FF07F4C54F8054014EA0C0F39
:1028700006D1BCF1000F1CBF4FEA1C2C5B1EF5D12A
:10288000DC174FF0000C03EB94740CE00568CCF1FE
:10289000000603EB860655F82C500E442DBA46F878
:1028A000045C0CF1010CBCEBA40FEFDB13F0030F85
:1028B0001FD0006803F0030503F0030450F82C0058
:1028C00013F0010C03D00D4405F8010C000AA4EB31
:1028D0000C0CBCF1000F0CDD01EB0C04ACF1020C94
:1028E00004F8010C000A04F8020C000ABCF1000F05
:1028F000F2DC002A18BF136070BC7047002812BFBA
:10290000002941F2B8407047F8B50F46818800248D
:102910001646012905D102681268002A08BF012362
:1029200012D08B006FF00305026805EB81014FF0B8
:102930007F4C555815EA0C0F06D1BCF1000F1CBF97
:102940004FEA1C2C5B1EF5D10093B342C4BF41F289
:10295000B540F8BDB919C91A6A46FFF775FF009866
:10296000311A00290EDD781E11F0010F18BF00F892
:10297000014F0099711A491004D0447000F8024FB9
:10298000491EFAD10020F8BD0020704702480349D3
:10299000086000207047000078200020E000002040
:1029A00070B504460D460449D1F81802402111F0D3
:1029B0006DF9002070BD00007820002070B490F9FF
:1029C00007C091F9072094453FD183888C88012264
:1029D000A34204BF0068096803D9BCF1000F27D0E7
:1029E00022E003D2BCF1000F2BD027E09D1AA61ADB
:1029F00050F8255051F82660B54204D1934224BFC7
:102A0000521C9342F2D2551EAB4202BF002070BC52
:102A100070479B1AA21A50F8230051F822108842DE
:102A200009D9BCF1000F03D070BC6FF001007047F2
:102A300070BC02207047BCF1000F02D070BC0120B6
:102A4000704770BC4FF0FF307047BCF1010F05D1EB
:102A5000002A02BF6FF0020070BC7047032070BCF8
:102A600070472DE9FC410646354600244CE005F050
:102A7000C008B8F1000F09D0B8F1400F0AD0B8F182
:102A8000800F0BD0B8F1C00F10D10BE0002001A9CE
:102A900008550CE00F2001A9085508E0F02001A915
:102AA000085504E0FF2001A9085500E000BF00BF61
:102AB000A806050E05F0C00737B1402F08D0802FBB
:102AC0000AD0C02F10D10BE000200DF804000CE05C
:102AD0000F200DF8040008E0F0200DF8040004E0D9
:102AE000FF200DF8040000E000BF00BFA806050E9F
:102AF00001A9085D01210DF07FFE1DF804000121F0
:102B00000DF07AFE601CC4B2022CB0DBBDE8FC8183
:102B100070B483888A7900249A4209D202F1010CA8
:102B20009C4537BF41F2B54041F2B54470BC704797
:102B3000C279CA7100228B80002B09DDD0F800C059
:102B40000D685CF822C045F822C0521C9342F5DCA7
:102B50008879801A431C002B26DD01234FF0000CDE
:102B600033EA0000634605D0D1F800C04CF82230AB
:102B70004FF0010C8D79AD1A6D1C854214DD00BF3C
:102B80000D6802EB0C060CF1010C45F826300D68BF
:102B900002EB0C06801C45F826308D790CF1010CF7
:102BA000AD1A6D1C8542EBDC204670BC70478288F4
:102BB0000368012A01BF18680028012070475001EE
:102BC0006FF0030C0CEB82024FF000419A5831EA8F
:102BD00002031EBF00294908401EF8D17047012199
:102BE00008030DF079BF00002DE9F04F85B098463D
:102BF000DDF838B092468946070018BFB9F1000FDA
:102C000009D0B8F1000F18BFBBF1000F03D01AF0C4
:102C1000070F05D007E005B040F6E840BDE8F08FAB
:102C2000BAF1080F04DA05B040F6E540BDE8F08FD0
:102C3000387910F0020F1EBF40F6E64005B0BDE83F
:102C4000F08F002502AE6C465FF0000005EB8001BE
:102C500059F8011009BA46F8201044F82010401C19
:102C60000228F3DB07F11C01684613F051F800203D
:102C700007EB800154F820204B695A4044F820208B
:102C800056F820204A6154F8201005EB800209BA5A
:102C9000401C48F802100228EADB08355545D3DB12
:102CA000CBF800A005B00020BDE8F08F002812BFCF
:102CB000002A40F6E8407047017941F002010171B5
:102CC000002010607047052300F060B82DE9F04740
:102CD0001E46DDF8209090460F46040018BF002FD6
:102CE00008D0002E18BFB9F1000F03D018F0070F5D
:102CF00004D006E040F6E840BDE8F087B8F1080FE0
:102D000003DA40F6E540BDE8F087207910F0020FC5
:102D100016BF40F6E6400025BDE8F0875FF00000F2
:102D200005EB800304EB8001FB584A691BBA5A404B
:102D3000401C4A610228F3DB04F11C0104F1140079
:102D400012F0E6FF5FF0000004EB800105EB80026B
:102D50004969401C09BAB1500228F5DB08354545E0
:102D6000DCDB0020C9F80080BDE8F087002812BF36
:102D7000002A40F6E8407047017941F002010171F4
:102D80000020106070470423AFF300802DE9F04766
:102D90000C465FEA000C18BF002C04D003F00600BC
:102DA0002AB9022803D040F6E840BDE8F087CCF805
:102DB0000C209CF80410022821F006018CF8041065
:102DC0004FD0DCF81010481E102824BF40F6E74012
:102DD000BDE8F0870025CCF81450CCF81850002935
:102DE000D8BF002007DD11F0010004D0167845EAB5
:102DF0000665CCF814508142C8BF182131DDC517D3
:102E000000EB957525F0030606EB0C07861B07F112
:102E1000140512F8008076427F6901EBC60608FAB5
:102E200006F63E432E60461CF71706EB977525F015
:102E3000030702EB000907EB0C08F61B08F1140569
:102E400099F801907642D8F8148001EBC60609FA89
:102E500006F648EA06062E60DCF81050801C854213
:102E6000CDDC9CF8040010F0010F08D103F0010143
:102E70000CF11C022046CCF8084013F037F8002073
:102E8000BDE8F0872DE9F04FADF5017D91460D4687
:102E900080461E46B0225A4950A8FDF7FFF900248B
:102EA000202E1EBF6FF003000DF5017DBDE8F08FF1
:102EB00005F1190717F00F0F04D007F00F00C0F14C
:102EC0001004274428BA049030BA05902A46414697
:102ED0006E4606A8FDF7E2F9802170194FF0000850
:102EE00001766CB1183014F0010F18BF00F8018F93
:102EF000610805D080F8018000F8028F491EF9D1E1
:102F0000CDF80080CDF80480CDF80C800024CDF8F9
:102F100008800DF5A07B6E461CADCDF87080CDF815
:102F20007480CDF87880CDF87C80B8EB171F38BF5F
:102F30000DF5F87A17D200205FEA041101EB800248
:102F400055F82030B25812BA5A404AF82020401C96
:102F50000428F3D35A4629467CA8FDF751FA641C8D
:102F6000B4EB171FE7D39DF803000024401C8DF835
:102F700003000DF5A07B6E460DF1700A20ADCDF873
:102F80008080CDF88480CDF88880CDF88C80B8EB37
:102F9000171F38BF0DF5F87817D200205FEA04112B
:102FA00001EB800255F82030B25812BA5A4048F866
:102FB0002020401C0428F3D35A4629467CA8FDF75C
:102FC0001FFA641CB4EB171FE7D324A91CA8FDF754
:102FD0003BFC24AA49460AF11000FDF711FA99E8D2
:102FE0000F0020AC0FC424AA09F110010AF110004F
:102FF000FDF706FA0DF5017D0020BDE8F08F000019
:10300000048603082DE9F04188B016468846044638
:1030100000256F46E068401CE0600AD1A068401CB3
:10302000A06006D16068401C606002D12068401C2E
:10303000206007EB051142462046FDF7E1F96D1CC3
:10304000022DE7DB009831684840206101987168E3
:10305000484060610298B1684840A0610398F168F7
:103060004840E061049831694840206005987169E2
:10307000484060600698B1694840A0600798F169CF
:103080004840E06008B0BDE8F08170B503460C46EA
:103090000021002010E0165C451C555D46EA05261F
:1030A000851C555D46EA0546C51C555D46EA056525
:1030B00043F82150491C001DA142ECDB70BD70B5E6
:1030C000034614460020002215E011F820509D54BC
:1030D00031F82050C5F30726551C5E5551F8205095
:1030E000C5F30746951C5E5551F820502D0ED61C91
:1030F0009D55401C121DA042E7DB70BDF0B5F9B034
:103100000027002688212CA8FDF7EFF8CA480EF00A
:103110008FFA87B20822C949C9480EF08CFAC9480B
:103120000EF086FA00287DD0C348001D0EF080FA0C
:10313000C6B2202270A9C04808300EF07CFA88225E
:103140004EA9C0480EF077FA622213A9BE480EF0CD
:1031500072FA04200EF04CFA9DF838018DF8B00098
:103160009DF839018DF8B1009DF83A018DF8B20053
:103170009DF83B018DF8B3009DF83C018DF8B4003B
:103180009DF83D018DF8B50019220DF59F710DF1E7
:10319000B600FDF783F819220DF257110DF1CF009B
:1031A000FDF77CF820225CA93AA8FDF777F82022E9
:1031B00064A942A8FDF772F89DF8B00100239DF8BC
:1031C000B121190241EA126115021A460B4640EA82
:1031D000050142EA03009DF8B2310022120442EADE
:1031E000134241EA034102439DF8B3310020000637
:1031F00040EA13201D06134641EA050243EA000196
:103200009DF8B40108439DF8B51140EA01209DF8EE
:10321000B61140EA01419DF8B701030619434A92ED
:103220004B9100E0FEE09DF8B80100239DF8B91134
:103230001A0242EA11620D02284343EA02019DF894
:10324000BA211B0443EA124340EA024241EA030066
:103250009DF8BB310021090641EA132142EA0362CD
:1032600001439DF8BC0101439DF8BD0141EA0020E6
:103270009DF8BE110B040146104619439DF8BF216D
:1032800041EA02614AAAC2E9020120230BAA622193
:1032900013A80EF07DF89DF8B000802817D09DF897
:1032A000B000D12813D003F0CDFC0446012C06D188
:1032B000394640F2014008F062FD79B0F0BD022CC1
:1032C0007AD1394640F2015008F059FDF5E79DF8F2
:1032D000B000802851D1282101A8FDF706F8002070
:1032E00000909DF8B50028B9394640F2033008F047
:1032F00046FDE2E79DF8B500012801D1002521E057
:103300009DF8B500022817D119220DF1B60170A859
:10331000FFF7D6F908B1012514E019220DF1CF010C
:1033200070A8FFF7CDF908B100250BE0394640F24F
:10333000013008F024FDC0E7394640F2023008F0C1
:103340001EFDBAE705EBC50101EB05120DF1B60153
:1033500050186B4601AA1921FEF7D4FF701E00EB2E
:10336000800202EB4010394A02EB400101AB2A46D1
:103370002CA803F097FA04461EE09DF8B000D1286F
:103380001AD1282101A8FCF7B0FF002000906B465D
:1033900001AA19210DF1CF00FEF7B4FF701E00EB5A
:1033A000800202EB4010294A02EB400101AA2CA83E
:1033B00003F0BAFC044600BF24BB4FF4803124481C
:1033C000FCF793FF622213A92148FCF767FF0DF079
:1033D000ABFC2049488120200090084641890BAB76
:1033E000622240F2011008F0F7FC0F2006F056F8B8
:1033F00020200BAB62223946009040F2A52008F055
:10340000EBFC17E0012C05D1394640F2014008F0F1
:10341000B6FC0FE0022C0DD1394640F2015008F005
:10342000AEFC07E004200EF0E3F8394640F203302A
:1034300008F0A5FC00BF40E700FE0108D8420120CB
:103440000400010800F0010800F801081043012001
:10345000A8390020E042012000B585B04FF4C050EB
:103460000090012001900020029003200390694603
:10347000054806F01DF900224FF4C051024806F03D
:1034800023FA05B000BD0000000002402DE9F0471E
:10349000ADF5367D06460F464FF000080020B5908A
:1034A00064219CA8FCF721FF6422374983A8FCF71C
:1034B000F5FE4FF4007103A8FCF717FF28213348ED
:1034C000FCF713FF002403E0305D9CA90855641C41
:1034D000BC42F9DB00BF9CA8FCF712FF814683A821
:1034E000FCF70EFF8246B5A803A9534683AACDE98F
:1034F000001049469CA812F0FFFA05464FF6FF70EF
:10350000854204D100200DF5367DBDE8F0876421A9
:103510009CA8FCF7EAFE002404E003A8005D9CA937
:103520000855641CAC42F8DB022D0AD19DF80D1041
:103530009DF80C00303800EB800001EB4000A0F15A
:103540003008012D03D19DF80C00A0F13008642152
:1035500083A8FCF7CAFE35208DF80C0238208DF8C0
:103560000D02022DB7DCB8F13A0FB4DC084810F8B0
:1035700008000649B59A885408460DF00FFC002053
:10358000B5900120BFE70000F46E030880390020E9
:10359000B86E030810B50446012009F013FF00209F
:1035A00005F074FE68488078002839D1362335222A
:1035B00007210EF08EFA19231822072120200EF081
:1035C00088FA12231122072140200EF082FA5FA20E
:1035D00007216020FFF784F8122311221C2100200C
:1035E0000EF077FA092308221C2120200EF071FA30
:1035F00057A21C214020FFF773F870236F222F2160
:103600002E200EF066FA722371222F2170200EF008
:1036100060FA70236F222F21B8200EF05AFA1AE0B8
:1036200049488078012816D14AA207210020FFF7D7
:1036300057F84DA21C210020FFF752F84DA22F2170
:103640001720FFF74DF84BA22F21B020FFF748F8C5
:10365000002003F099FD00200EF0D0FE73E003F08F
:103660005DFD08B9022010BD44480078C0F3800019
:10367000002859D04148007820F004003F490870E4
:10368000002005F003FE224607210020FFF728F85E
:103690002D48807890B936231A462F2118460EF00F
:1036A00018FA35231A462F2178200EF012FA362305
:1036B0001A462F21C0200EF00CFA12E02248807822
:1036C00001280ED12BA22F211720FFF709F82CA2D9
:1036D0002F216420FFF704F826A22F21B020FEF747
:1036E000FFFF00200EF08AFE1DE003F017FD08B971
:1036F0000220B8E721480078C0F3800020B1002004
:1037000009F060FE0020AEE71C480078C0F34000DE
:1037100020B91A480078C0F3C00020B1002009F099
:1037200051FE01209FE7E0E714480078C0F3400015
:1037300020B912480078C0F3C00020B1002009F081
:1037400041FE01208FE78AE7C84201203F000000C8
:103750003A000000496D706F72742061206E6577C9
:10376000206B657900000000616464726573733AD0
:103770000000000063616E63656C00007901002049
:10378000636F6E6669726D0038B505460C466078E9
:1037900000286DD015BB207840B1202000231122D5
:1037A0000A21009063480EF0ADF907E020200023C5
:1037B00011220A21009060480EF0A4F90123202272
:1037C0001146282012F060FA61783822A2EB8101BC
:1037D000C8B2A21C2021FEF783FFAAE0012D22D14E
:1037E000207840B12020002323221C210090514842
:1037F0000EF088F907E02020002323221C210090EE
:103800004D480EF07FF9012320221146702012F05E
:103810003BFA61788022A2EB8101C8B2A21C202170
:10382000FEF75EFF85E0022DD7D1207840B1202041
:10383000002333222C2100903E480EF063F907E06C
:103840002020002333222C2100903B480EF05AF90F
:10385000012320221146B02012F016FA6178C0220E
:10386000A2EB8101C8B2A21C2021FEF739FF60E063
:10387000F5B9207840B12020002311220A210090C0
:103880002C480EF03FF907E02020002311220A21E6
:10389000009029480EF036F90123202211462820F5
:1038A00012F0F2F925A220212420FEF719FF40E0B2
:1038B000012D1ED1207840B12020002323221C217D
:1038C00000901C480EF01EF907E020200023232260
:1038D0001C21009018480EF015F9012320221146F2
:1038E000702012F0D1F915A220216C20FEF7F8FE0D
:1038F0001FE0022D1DD1207840B12020002333226B
:103900002C2100900B480EF0FDF807E0202000234A
:1039100033222C21009008480EF0F4F801232022D5
:103920001146B02012F0B0F904A22021AC20FEF71D
:10393000D7FE38BDE0180020E0160020756E616DDE
:103940006500000070B588B00446012600250120FE
:1039500009F038FD9BE3FE48007800F0010008B94B
:1039600008B070BDFB480078C0F3800058B355BB69
:10397000F848007820F00400F6490870002005F0AF
:1039800085FC601E00EB800101EB4010F24901EB69
:10399000400000F1220210210020FEF7A1FE0020CD
:1039A00003F0F2FB05E0EA48007800F0010000B9FE
:1039B000D6E7E8480078C0F380000028F3D0012063
:1039C00009F000FD0126E3480078C0F380000028DC
:1039D0007ED0012D7CD1DF48007820F00400DD4945
:1039E0000870002005F052FC601E00EB800101EB26
:1039F0004010D94911F81000002855D1D7488078D7
:103A0000002842D155235422072148200EF061F8A6
:103A100017231A46072168200EF05BF85723562219
:103A2000072178200EF055F8122311220721982043
:103A30000EF04FF85A2358221C2120200EF049F88E
:103A40002E231A461C2150200EF043F820231A463C
:103A50001C2160200EF03DF85C235B221C217020AD
:103A60000EF037F840233F221C2190200EF031F851
:103A700049231A461C21B0200EF02BF812231122E4
:103A80001C21C0200EF025F85AE0B44880780128A7
:103A900056D1B3A208211420FEF722FEB7A21C21A2
:103AA0000C20FEF71DFE4BE0AC488078F0BB4123B4
:103AB0001A46072150200EF00CF882231A460721DF
:103AC00060200EF006F8552354220721702000E0F4
:103AD000C3E00DF0FEFF12231122072190200DF00C
:103AE000F8FF842383221C2128200DF0F2FF5A23A3
:103AF00058221C2148200DF0ECFF2E231A461C21D1
:103B000078200DF0E6FF40233F221C2188200DF095
:103B1000E0FF49231A461C21A8200DF0DAFF1223EA
:103B200011221C21B8200DF0D4FF09E0FFE78B48DB
:103B30008078012804D199A210210846FEF7D0FD13
:103B40008648807890B936231A462F213A200DF006
:103B5000C0FF35231A462F2178200DF0BAFF3623F7
:103B60001A462F21B6200DF0B4FF12E07B48807872
:103B700001280ED191A22F213A20FEF7B1FD90A28B
:103B80002F217420FEF7ACFD8CA22F21B620FEF76A
:103B9000A7FD60E06F480078C0F38000F0B301201B
:103BA00009F010FC601E00EB800101EB40106A4937
:103BB00011F81000D8B10021601E00EB800202EB6A
:103BC0004010654A02F81010E11DC8B26946FDF7C1
:103BD0008DFD9DF81F0000F0F0008DF81F00E11D25
:103BE000C8B220236A460021FDF79FFD1CE0012199
:103BF000601E00EB800202EB4010574A02F81010E2
:103C0000E11DC8B26946FDF771FD9DF81F0040F047
:103C100001008DF81F00E11DC8B200E006E020237E
:103C20006A460021FDF781FD012615E0494800782C
:103C3000C0F3400020B947480078C0F3C00020B16D
:103C4000012009F0BFFB012606E04148007800F0A2
:103C5000010000B984E69DE700BF3E480078C0F34C
:103C6000800040B1022D06D13A48007820F00400CF
:103C70003849087074E6002D60D1012E5ED100260F
:103C8000002005F003FB3548807860B94F234E22B1
:103C9000102160200DF01DFF092308221021802033
:103CA0000DF017FF08E02D488078012804D145A2C7
:103CB00010216420FEF714FD601E00EB800101EB73
:103CC0004010254911F81000C8B12448807860B927
:103CD00070236F221021B2200DF0FBFE51235022E1
:103CE0001021D2200DF0F5FE22E01C48807801283A
:103CF0001ED136A21021A820FEF7F2FC18E01748CA
:103D0000807860B9512350221021B2200DF0E1FEDD
:103D1000122311221021D2200DF0DBFE08E00F4803
:103D20008078012804D12BA21021B020FEF7D8FC06
:103D3000012003F029FA012003F038FF012D7DD185
:103D4000012E7BD10026002005F0A0FA034845E0B3
:103D50007A0100207901002010430120C84201208F
:103D600049736F6C61746520616E64206869646575
:103D7000207468652077616C6C6574004974206FED
:103D80006E6C792063616E206265207365656E20BC
:103D9000696E204E454F44554E000000446F206E22
:103DA0006F742068696465207468652077616C6C45
:103DB000657420616761696E000000004E4F00006D
:103DC000594553006164647265737300756E686968
:103DD000646500006869646500000000807860B96F
:103DE0004F234E2210210F200DF073FE09230822CD
:103DF00010212F200DF06DFE09E0A54880780128E4
:103E000005D1AFF2400210212020FEF769FC601EB0
:103E100000EB800101EB40109E4911F81000E0B169
:103E20009B48807870B970236F22102160200DF0BC
:103E300050FE512350221021802000E043E00DF07D
:103E400048FE24E092488078012820D1AFF2840215
:103E500010216820FEF744FC19E08D48807860B995
:103E600051235022102160200DF033FE1223112225
:103E7000102180200DF02DFE09E085488078012872
:103E800005D1AFF2B00210217020FEF729FC804866
:103E9000807830B9532352221021B8200DF019FE3A
:103EA00008E07B488078012804D17BA21021A8205B
:103EB000FEF716FC012003F067F9002003F076FE00
:103EC000012003F073FE022D5CD1012E5AD1002691
:103ED000002005F0DBF9601E00EB800101EB4010D3
:103EE0006C4911F81000D0B16948807860B970232E
:103EF0006F2210210F200DF0ECFD512350221021D4
:103F00002F200DF0E6FD24E061488078012820D1C3
:103F1000AFF2481210212420FEF7E2FB19E05C48C2
:103F2000807860B95123502210210F200DF0D1FD6F
:103F30001223112210212F200DF0CBFD09E054484F
:103F40008078012805D1AFF2741210212C20FEF7E1
:103F5000C7FB4F48807830B953235222102170207C
:103F60000DF0B7FD08E04A488078012804D14AA244
:103F700010216820FEF7B4FB012003F005F90020B2
:103F800003F014FE46480078C0F3C00050B1444826
:103F9000007820F0080042490870022D02DA681CFF
:103FA000C5B201263E480078C0F3400050B13C48FD
:103FB000007820F002003A490870002D02DD681EEA
:103FC000C5B20126BDBB012E61D10026002005F03F
:103FD0005DF92F48807860B94F234E221021602070
:103FE0000DF077FD09230822102180200DF071FDCE
:103FF00009E027488078012805D1AFF23822102146
:104000006420FEF76DFB04EB840000EB44102149B3
:1040100011F81000D8B11E48807868B970236F225B
:104020001021B2200DF055FD512350221021D22035
:104030000DF04FFD25E02AE015488078012820D1B9
:10404000AFF278221021A820FEF74AFB19E01048B1
:10405000807860B9512350221021B2200DF039FD33
:10406000122311221021D2200DF033FD09E008485F
:104070008078012805D1AFF2A4221021B020FEF7EC
:104080002FFB012003F080F8012003F08FFD62E494
:10409000C84201201043012072657475726E0000E1
:1040A0007901002070B501250024012009F08AF96A
:1040B000D2E1EA48007800F0010000B970BDE8489C
:1040C0000078C0F38000002838D0002C36D1E448B6
:1040D000007820F00400E2490870E248008818B136
:1040E00001F0F8FC012529E0002005F0CFF8DE48BA
:1040F000807830B95B231A46182178200DF0E9FC4E
:1041000008E0D9488078012804D1D8A21021702075
:10411000FEF7E6FA002003F037F805E0CF48007814
:1041200000F0010000B9C9E7CD480078C0F3800075
:104130000028F3D0012009F045F90125C84800788E
:10414000C0F3800050B1012C08D1C548007820F0A0
:104150000400C349087001F0C5FE0125C04800787D
:10416000C0F3800050B1022C08D1BD48007820F087
:104170000400BB49087002F02BFA0125B84800780A
:10418000C0F3800050B1032C08D1B548007820F06E
:104190000400B349087001F09FFA0125B048007887
:1041A000C0F3800040B1042C06D1AD48007820F067
:1041B0000400AB49087081E74CBB012D27D10025D5
:1041C000002005F063F8A848807860B95E235D227E
:1041D000102170200DF07DFC60235F221021B8209B
:1041E0000DF077FC0DE0A0488078012809D1A1A24C
:1041F00010217420FEF774FA9FA21021A020FEF770
:104200006FFA012002F0C0FF012003F0CFFC012C67
:1042100037D1012D35D10025002005F037F892481F
:10422000807890B95E235D2210212E200DF051FC84
:1042300060235F22102170200DF04BFC892388221F
:104240001021B8200DF045FC12E087488078012845
:104250000ED188A210213020FEF742FA86A210214A
:104260006020FEF73DFA87A21021A820FEF738FA59
:10427000012002F089FF002003F098FC012003F0E8
:1042800095FC022C37D1012D35D10025002004F0FA
:10429000FDFF7548807890B960235F2210212E20A1
:1042A0000DF017FC89238822102170200DF011FCDD
:1042B000672366221021B8200DF00BFC12E06A483B
:1042C000807801280ED171A210212420FEF708FA6F
:1042D00070A210216020FEF703FA71A21021AC2019
:1042E000FEF7FEF9012002F04FFF012003F05EFC13
:1042F000002003F05BFC032C37D1012D35D10025C4
:10430000002004F0C3FF5848807890B989238822A0
:1043100010212E200DF0DDFB672366221021702076
:104320000DF0D7FB532352221021B8200DF0D1FB02
:1043300012E04D48807801280ED152A2102124208D
:10434000FEF7CEF956A210216C20FEF7C9F956A24D
:104350001021A820FEF7C4F9012002F015FF01206A
:1043600003F024FC002003F021FC042C29D1012DB2
:1043700027D10025002004F089FF3B48807860B9F0
:104380006723662210212E200DF0A3FB5323522217
:10439000102170200DF09DFB0DE03348807801283E
:1043A00009D13FA210212820FEF79AF93EA2102140
:1043B0006820FEF795F9012002F0E6FE002003F0E8
:1043C000F5FB27480078C0F3C00050B124480078BE
:1043D00020F0080022490870042C02DA601CC4B2E4
:1043E00001251F480078C0F3400050B11C480078F8
:1043F00020F002001A490870002C02DD601EC4B2D1
:1044000001254CBB012D27D10025002004F03EFFE3
:104410001548807860B95E235D22102170200DF070
:1044200058FB60235F221021B8200DF052FB0DE0F5
:104430000D488078012809D10EA210217420FEF7C2
:104440004FF912A21021A820FEF74AF9012002F02C
:104450009BFE012003F0AAFB2BE600007A0100205E
:104460007901002082440120C84201204E6F6E6510
:104470000000000061707000736563757269747983
:10448000000000006C616E67752D00007365637538
:10449000722D00006C616E67756167650000000039
:1044A00061626F757400000072657475726E000051
:1044B00070B5044600260025012008F083FF002087
:1044C00004F0E4FE90488078002861D104EB840178
:1044D00001EB44118D4A02EB41014978C90001F119
:1044E000880000EBD0714910C1F18001CDB23823B2
:1044F0003522072128460DF0ECFA05F14000C5B23F
:1045000004EB840000EB4410804901EB4000821C66
:1045100007212846FEF7E4F804EB840000EB441082
:104520007A4901EB40004078082111FB0050C5B2E8
:104530003D233B22072128460DF0CBFA05F1300040
:10454000C5B216231A46072128460DF0C2FA05F116
:104550001000C5B26EA207212846FEF7C1F843231A
:104560003E221C2150200DF0B4FA36231A462F218A
:104570003A200DF0AEFA35231A462F2178200DF09F
:10458000A8FA36231A462F21B6200DF0A2FA92E09F
:104590005D4880780128FAD104EB840101EB4411D5
:1045A0005A4A02EB41014978C90001F1C80000EB09
:1045B000D0714910C1F18001CDB204EB840000EB51
:1045C0004410114601EB4000821C07212846FEF7EB
:1045D00087F804EB840000EB44104C4901EB4000E9
:1045E0004078082111FB0050C5B24AA20721284695
:1045F000FEF776F84EA21C211820FEF771F853A2A0
:104600002F211720FEF76CF850A22F21B020FEF7C3
:1046100067F8002002F0B8FD4E48007820F0040052
:104620004C49087000BF4B480078C0F38000002858
:10463000F9D04848007820F004004649087000206E
:1046400004F024FE04EB840101EB44112F4A02EB39
:1046500041014978C90001F1880000EBD07149108F
:10466000C1F18001CDB23CA207212846FEF738F8FF
:1046700005F18800C5B204EB840000EB4410234927
:1046800001EB4000821C07212846FEF729F837A2DB
:104690001C213020FEF724F82CA22F211720FEF732
:1046A0001FF838A22F216420FEF71AF827A22F2125
:1046B000B020FEF715F835A21A21E220FEF710F817
:1046C00000200DF09BFE17E002F028FD08B9022043
:1046D00070BD20480078C0F3800008B100260CE0CF
:1046E0001C480078C0F3400020B91A480078C0F395
:1046F000C00008B1012600E0E6E700BF002008F096
:1047000061FE3046E4E70000C8420120104301206A
:104710003F000000202620697473206B65792077A4
:10472000696C6C20626520657261736564000000CD
:1047300050494E20697320726571756972656420F5
:10474000746F20636F6E6669726D000063616E63E3
:10475000656C000079010020426520737572652048
:10476000746F20657261736520000000546869737E
:1047700020697320697272656365727369626C6522
:1047800000000000636F6E6669726D0073000000C8
:1047900010B50DF0C3FD012008F014FE01200F49F3
:1047A00008700F48C078062816D2DFE800F003062C
:1047B000090C0F1200F016F80EE000F063F80BE0A1
:1047C00000F0F2F808E000F0E3F905E000F00AFB81
:1047D00002E000F06BFC00BF00BF10BD90010020A4
:1047E000C842012008B523480078C0F3800050B1CA
:1047F0002048007820F004001E49087001201E495E
:104800000870FFF74FFC1D480078E0B91A4800789F
:10481000012818D100201849087004F037FD202025
:10482000002323221C21009015480DF06BF9012371
:1048300020221146702011F027FA012000F0F4FD2B
:10484000012002F0A1FC0B480078C0F3C00028B1A1
:104850000848007820F008000649087005480078EC
:10486000C0F3400028B10348007820F0020001495D
:10487000087008BD790100209001002091010020FE
:10488000E014002010B544480078C0F3800068B1FF
:104890004248007850B94048007820F004003E4972
:1048A000087001203E490870FFF7FCFB3A48007889
:1048B000C0F3800070B13948007801280AD1364829
:1048C000007820F004003449087001203449087051
:1048D000FFF738F831480078A8B931480078012846
:1048E00011D100202E49087004F0D0FC012000F006
:1048F0009BFD012002F048FC002003F057F92949F4
:104900000020FEF741FF25480078012815D12448F2
:104910000078012811D100202149087004F0B6FC6C
:10492000022000F081FD012002F02EFC012003F0A6
:104930003DF91C490120FEF727FF17480078C0F316
:10494000C00088B11448007820F0080012490870AF
:1049500012480078002807DD10480078401E0F49F3
:10496000087001200E4908700B480078C0F3400021
:1049700088B10948007820F002000749087007480C
:104980000078012807DA05480078401C03490870C0
:1049900001200349087010BD790100209101002019
:1049A000900100201043012010B575480078C0F335
:1049B000800068B17348007850B97148007820F0E1
:1049C00004006F49087001206F490870FFF76AFB07
:1049D0006B480078C0F3800070B16A480078012805
:1049E0000AD16748007820F004006549087001206A
:1049F00065490870FEF7A6FF61480078C0F38000A3
:104A000078B16048007802280BD15D48007820F02A
:104A100004005B49087001205B4908700220FEF722
:104A200091FF58480078E8B957480078012819D113
:104A300000205549087004F029FC012000F0F4FC26
:104A4000012002F0A1FB002003F0B0F8012003F0E8
:104A5000ADF84E490020FEF797FE4C494A3102203E
:104A6000FEF792FE4748007801281DD1464800789D
:104A7000012819D100204449087004F007FC0220E5
:104A800000F0D2FC012002F07FFB002003F08EF842
:104A9000012003F08BF83D494A310020FEF774FEF7
:104AA0003A490120FEF770FE3648007802281DD1F1
:104AB00035480078012819D100203349087004F0E6
:104AC000E5FB002000F0B0FC012002F05DFB0020BF
:104AD00003F06CF8012003F069F82C494A310120F9
:104AE000FEF752FE29490220FEF74EFE24480078C8
:104AF000C0F34000F8B12248007820F002002049BD
:104B0000087020480078022809D11F48007830B981
:104B100000201C49087001201B4908700BE019484F
:104B20000078022807DA17480078401C15490870F9
:104B300001201549087012480078C0F3C000F0B198
:104B40000F48007820F008000D4908700D480078E3
:104B500048B90D48007830B902200A490870012090
:104B6000094908700BE007480078002807DD054870
:104B70000078401E0349087001200349087010BDE9
:104B800079010020910100209001002010430120B4
:104B900010B590480078C0F3800068B18E48007866
:104BA00050B98C48007820F004008A490870012030
:104BB0008A490870FFF776FA86480078C0F38000CB
:104BC00070B18548007801280AD18248007820F029
:104BD000040080490870012080490870FEF7B2FE89
:104BE0007C480078C0F3800078B17B4800780228C8
:104BF0000BD17848007820F0040076490870012035
:104C0000764908700220FEF79DFE72480078C0F3D6
:104C1000800078B17048007803280BD16D48007887
:104C200020F004006B49087001206C4908700320D3
:104C3000FEF788FE68480078E8B9684800780128DF
:104C400019D100206549087004F020FB012000F014
:104C5000EBFB012002F098FA002002F0A7FF0120F0
:104C600002F0A4FF5E490020FEF78EFD5C499431FE
:104C70000220FEF789FD5848007801281DD15748C9
:104C80000078012819D100205449087004F0FEFA78
:104C9000022000F0C9FB012002F076FA002002F0A9
:104CA00085FF012002F082FF4D494A310020FEF7C6
:104CB0006BFD4B490120FEF767FD4748007802284D
:104CC0001FD14648007801281BD1002043490870B5
:104CD00004F0DCFA012002F057FA002002F066FF2F
:104CE000012002F063FF3E4994310020FEF74CFDA5
:104CF0003B494A310120FEF747FD39490220FEF7C2
:104D000043FD3548007803281ED134480078012837
:104D10001AD100203149087004F0B8FA002000F0E0
:104D200083FB012002F030FA002002F03FFF012057
:104D300002F03CFF2A4994310120FEF725FD284965
:104D40004A310220FEF720FD22480078C0F34000DF
:104D5000D8B12048007820F002001E4908701E4893
:104D60000078042807DA1C480078401C1A490870AB
:104D700001201A49087018480078042805D100203D
:104D80001549087001201549087012480078C0F3D1
:104D9000C000E8B10F48007820F008000D49087005
:104DA0000D480078002807DD0B480078401E0A49AE
:104DB00008700120094908700748007840B9074881
:104DC000007828B9032004490870012003490870BD
:104DD00010BD000079010020910100209001002009
:104DE0001043012010B5AD480078C0F3800068B1D1
:104DF000AB48007850B9A948007820F00400A749D2
:104E000008700120A7490870FFF74CF9A348007803
:104E1000C0F3800070B1A248007801280AD19F48F1
:104E2000007820F004009D49087001209D49087019
:104E3000FEF788FD99480078C0F3800078B1984863
:104E4000007802280BD19548007820F0040093499F
:104E500008700120934908700220FEF773FD8F4807
:104E60000078C0F3800078B18D48007803280BD11A
:104E70008A48007820F00400884908700120894998
:104E800008700320FEF75EFD84480078C0F38000C0
:104E900078B18348007804280BD18048007820F04E
:104EA00004007E49087001207E4908700420FEF746
:104EB00049FD7B480078E8B97A480078012819D183
:104EC00000207849087004F0E1F9012000F0ACFA04
:104ED000012002F059F9002002F068FE012002F0E2
:104EE00065FE71490020FEF74FFC6F49DE3102205C
:104EF000FEF74AFC6A48007801281DD1694800780D
:104F0000012819D100206749087004F0BFF9022078
:104F100000F08AFA012002F037F9002002F046FE84
:104F2000012002F043FE60494A310020FEF72CFCCC
:104F30005D490120FEF728FC5948007802281FD15E
:104F40005848007801281BD100205649087004F009
:104F50009DF9012002F018F9002002F027FE01203F
:104F600002F024FE504994310020FEF70DFC4E491A
:104F70004A310120FEF708FC4B490220FEF704FCF1
:104F800047480078032820D14648007801281CD1E2
:104F900000204449087004F079F9012002F0F4F887
:104FA000002002F003FE012002F000FE3E49DE3147
:104FB0000020FEF7E9FB3C4994310120FEF7E4FBB9
:104FC00039494A310220FEF7DFFB354800780428D2
:104FD0001ED13448007801281AD1002031490870C8
:104FE00004F054F9002000F01FFA012002F0CCF880
:104FF000002002F0DBFD012002F0D8FD2A49DE315D
:105000000120FEF7C1FB284994310220FEF7BCFBCA
:1050100022480078C0F34000D8B12048007820F042
:1050200002001E4908701E480078052807DA1C484F
:105030000078401C1A49087001201A490870184865
:105040000078052805D10020154908700120154970
:10505000087012480078C0F3C000E8B10F4800782B
:1050600020F008000D4908700D480078002807DD81
:105070000B480078401E0A49087001200949087051
:105080000748007840B90748007828B90420044947
:10509000087001200349087010BD0000790100204C
:1050A00091010020900100201043012010B5C84854
:1050B0000078C0F3800068B1C648007850B9C44891
:1050C000007820F00400C24908700120C24908702D
:1050D000FEF7E8FFBE480078C0F3800070B1BD481D
:1050E000007801280AD1BA48007820F00400B849B5
:1050F00008700120B8490870FEF724FCB448007815
:10510000C0F3800078B1B348007802280BD1B048D2
:10511000007820F00400AE4908700120AE49087004
:105120000220FEF70FFCAA480078C0F3800078B197
:10513000A848007803280BD1A548007820F0040087
:10514000A34908700120A44908700320FEF7FAFB68
:105150009F480078C0F3800078B19E48007804280A
:105160000BD19B48007820F0040099490870012079
:10517000994908700420FEF7E5FB95480078C0F3D4
:10518000800078B19348007805280BD190480078CA
:1051900020F004008E49087001208F490870052016
:1051A000FEF7D0FB8B480078E0B98B4800780128E7
:1051B00018D100208849087004F068F8012000F038
:1051C00033F9012001F0E0FF002002F0EFFC0120A4
:1051D00002F0ECFC81490020FEF7D6FA804902205B
:1051E000FEF7D2FA7B48007801281DD17A48007872
:1051F000012819D100207849087004F047F80220EE
:1052000000F012F9012001F0BFFF002002F0CEFCF7
:10521000012002F0CBFC71494A310020FEF7B4FABC
:105220006E490120FEF7B0FA6A48007802281FD1C3
:105230006948007801281BD100206749087004F0F4
:1052400025F8012001F0A0FF002002F0AFFC0120B2
:1052500002F0ACFC614994310020FEF795FA5F49F9
:105260004A310120FEF790FA5C490220FEF78CFAE1
:1052700058480078032820D15748007801281CD1CD
:1052800000205549087004F001F8012001F07CFF6E
:10529000002002F08BFC012002F088FC50494A39C2
:1052A0000020FEF771FA4D4994310120FEF76CFAA7
:1052B0004A494A310220FEF767FA46480078042836
:1052C0001FD14548007801281BD1002042490870B1
:1052D00003F0DCFF012001F057FF002002F066FC24
:1052E000012002F063FC3E490020FEF74DFA3C49E4
:1052F0004A390120FEF748FA384994310220FEF776
:1053000043FA3448007805281DD133480078012835
:1053100019D100203049087003F0B8FF002000F0D8
:1053200083F8012001F030FF002002F03FFC012053
:1053300002F03CFC2A490120FEF726FA28494A39A6
:105340000220FEF721FA22480078C0F34000D8B1CD
:105350001F48007820F002001D4908701D480078A1
:10536000062807DA1B480078401C1A4908700120FB
:105370001949087017480078062805D100201549FA
:10538000087001201449087011480078C0F3C0006B
:10539000E8B10F48007820F008000D4908700D486A
:1053A0000078002807DD0B480078401E0949087086
:1053B0000120094908700748007840B9064800787C
:1053C00028B905200349087001200349087010BD61
:1053D000790100209101002090010020104301205C
:1053E0003844012010B50F48C078062816D2DFE8EF
:1053F00000F00306090C0F12FFF7F4F90FE0FFF7B6
:1054000041FA0CE0FFF7D0FA09E0FFF7C1FB06E034
:10541000FFF7E8FC03E0FFF749FE00E000BF00BF34
:1054200010BD0000C842012038B5044646488078C7
:10543000002843D1A4B92020002311220A21009082
:1054400042480CF05FFB012320221146282010F077
:105450001BFC03230222202128200CF03AFB71E0E0
:10546000012C14D12020002323221C210090374836
:105470000CF048FB012320221146702010F004FCA0
:1054800003230222202170200CF023FB5AE0022C7F
:1054900058D12020002333222C2100902B480CF0DF
:1054A00031FB012320221146B02010F0EDFB032335
:1054B00002222021B0200CF00CFB43E0224880782F
:1054C00001283FD19CB92020002311220A210090FD
:1054D0001E480CF017FB012320221146282010F053
:1054E000D3FB1BA220211C20FDF7FAF82AE0012C97
:1054F00013D12020002323221C21009013480CF0FC
:1055000001FB012320221146702010F0BDFB10A2E8
:1055100020216420FDF7E4F814E0022C12D12020B1
:10552000002333222C21009008480CF0EBFA0123D1
:1055300020221146B02010F0A7FB05A22021A420B4
:10554000FDF7CEF838BD0000C8420120E01400206D
:1055500073657474696E670010B554E011F02EFB2A
:105560004B49012011F0C0FB00284BD0012007F06F
:1055700029FF002003F08AFE45481038807820BBC0
:1055800005230422102138200CF0A3FA0323022261
:10559000102158200CF09DFA24232322102178207A
:1055A0000CF097FA0C231A46102198200CF091FA6F
:1055B00022231A461021A8200CF08BFA25231A4624
:1055C0001021B8200CF085FA0EE0314810388078B0
:1055D000012809D12FA208213820FDF781F832A235
:1055E0001C214C20FDF77CF8002001F0CDFD00BF10
:1055F00031480078C0F380000028F9D0002007F07F
:10560000E1FE00E000E0A9E700BF002003F03EFE5D
:10561000002001F0B9FD1E4810388078F0B905234C
:105620000422102150200CF054FA22231A46102193
:1056300070200CF04EFA02231A46102180200CF044
:1056400048FA1B231A46102190200CF042FA7323CB
:105650001A461021A0200CF03CFA09E00C48103842
:105660008078012804D115A210212420FDF738F8F4
:1056700005E01848007800F0010000B910BD0E48A0
:105680000078C0F380000028F3D000BFF6E70000E8
:10569000D8420120496E636F727265637420706135
:1056A0007373776F72640000706C7320747279206A
:1056B000616761696E0000007901002050494E2049
:1056C000726573657474696E6720636F6D706C6565
:1056D000746564007A01002070B501250024C8E1DA
:1056E000E448007800F0010000B970BDE24800789D
:1056F000C0F38000002845D0002C43D1DE4800785C
:1057000020F00400DC490870002003F0BFFDDB48F6
:105710008078B8B961231A46102158200CF0D9F9C5
:1057200049231A46102168200CF0D3F962231A4647
:10573000102178200CF0CDF9D1A210218820FCF79F
:10574000CFFF08E0CD488078012804D1CCA21021F9
:105750007020FCF7C5FF002001F016FD05E0C548EC
:10576000007800F0010000B9BFE7C3480078C0F33B
:1057700080000028F3D0C048007820F00400BE4923
:1057800008700125BC480078C0F38000002850D084
:10579000012C4ED1B848007820F00400B6490870BA
:1057A000002003F073FDB5488078E8B932232F223A
:1057B000082138200CF08DF90C231A460821782096
:1057C0000CF087F934233322082188200CF081F96A
:1057D000692368220821A8200CF07BF9AAA21C21C9
:1057E0004820FCF77DFF0DE0A4488078012809D10E
:1057F000A9A208210420FCF773FFA3A21C214820C2
:10580000FCF76EFF002001F0BFFC05E0994800782E
:1058100000F0010000B968E797480078C0F3800005
:105820000028F3D09448007820F0040092490870D2
:10583000012591480078C0F3800040B1022C06D1C8
:105840008D48007820F004008B4908704DE7DCBBE0
:10585000012D39D10025002003F018FD87488078FC
:10586000F0B94D231A46102160200CF032F92E2396
:105870001A46102170200CF02CF961231A461021D1
:1058800080200CF026F949231A46102190200CF0B4
:1058900020F9322331221021B8200CF01AF90DE042
:1058A00076488078012809D183A210216020FCF776
:1058B00017FF84A21021B020FCF712FF012001F095
:1058C00063FC012002F072F9012C49D1012D47D16E
:1058D0000025002003F0DAFC6848807820BB4D23C7
:1058E0001A46102114200CF0F4F82E231A46102129
:1058F00024200CF0EEF861231A46102134200CF01D
:10590000E8F849231A46102144200CF0E2F832232B
:105910003122102170200CF0DCF853235222102188
:10592000B8200CF0D6F812E05448807801280ED147
:1059300061A210211C20FCF7D3FE62A2102170206E
:10594000FCF7CEFE61A21021A820FCF7C9FE0120C1
:1059500001F01AFC002002F029F9012002F026F9DA
:10596000022C29D1012D27D10025002003F08EFC27
:105970004248807860B93223312210212C200CF06B
:10598000A8F853235222102170200CF0A2F80DE049
:105990003A488078012809D14AA210212C20FCF72E
:1059A0009FFE4AA210216820FCF79AFE012001F018
:1059B000EBFB002002F0FAF82F480078C0F3C0009B
:1059C00050B12D48007820F008002B490870022CB7
:1059D00002DA601CC4B2012527480078C0F34000F9
:1059E00050B12548007820F0020023490870002CAF
:1059F00002DD601EC4B20125DCBB012D39D10025BA
:105A0000002003F043FC1D488078F0B94D231A466E
:105A1000102160200CF05DF82E231A461021702012
:105A20000CF057F861231A46102180200CF051F831
:105A300049231A46102190200CF04BF832233122D2
:105A40001021B8200CF045F80DE00C4880780128B2
:105A500009D119A210216020FCF742FE19A21021E1
:105A6000B020FCF73DFE012001F08EFB012002F08A
:105A70009DF835E67A01002079010020C842012016
:105A800056312E30000000007777772E6E656F64F8
:105A9000756E2E636F6D00005669736974206F66B2
:105AA00066696369616C20776562736974652066F5
:105AB0006F722068656C70006669726D77617265DF
:105AC0000000000068656C7000000000726574756D
:105AD000726E000070B501250024012007F072FCF1
