:020000040802F0
:10000000608C0120AD010208B5010208ADB1020803
:10001000B9010208BB010208BD010208000000008E
:10002000000000000000000000000000BF01020806
:10003000C101020800000000C3010208A31C03085C
:10004000C7010208C7010208C7010208C701020868
:10005000C7010208C7010208C7010208C701020858
:1000600049820208C7010208C7010208C701020845
:10007000C7010208C7010208C7010208C701020838
:10008000C7010208C7010208C7010208C701020828
:10009000C7010208C7010208C7010208C701020818
:1000A000C7010208C7010208C7010208C701020808
:1000B000C7010208C7010208C7010208C7010208F8
:1000C000C7010208C7010208C7010208C7010208E8
:1000D000C7010208C7010208C7010208C7010208D8
:1000E000C7010208C7010208C7010208C7010208C8
:1000F000C7010208C7010208C7010208C7010208B8
:10010000C7010208C7010208C7010208C7010208A7
:10011000C7010208C7010208C7010208C701020897
:10012000C7010208C7010208C7010208C701020887
:10013000C7010208C7010208C7010208C701020877
:10014000C7010208C7010208C701020819F902081D
:10015000C7010208C7010208C7010208C701020857
:10016000C7010208C7010208C7010208C701020847
:10017000C7010208C7010208C70102080000000009
:10018000C7010208C7010208DFF80CD000F0FAF836
:100190000048004701580308608C012030BF72B648
:1001A000704762B6704780F30888704706488047FA
:1001B00006480047FEE7FEE7FEE7FEE7FEE7FEE74C
:1001C000FEE7FEE7FEE7FEE7911D0308890102084E
:1001D0002DE9F05F0546002092469B46884606467C
:1001E000814640241BE0284641464746224600F00F
:1001F000B8F853465A46C01A914110D311461846D2
:10020000224600F09FF82D1A67EB01084F46224660
:100210000120002100F096F817EB00094E41201E46
:10022000A4F10104DFDC484631462A464346BDE8D6
:10023000F09F2DE9F0410024061B254671F10006D0
:1002400005DA01240027D0EB070067EB0101161E39
:1002500073F1000605DA0027D2EB0702012567EBF0
:100260000303FFF7B5FF86460E4617469C46AC4291
:1002700004D00025D0EB050E65EB010624B100206B
:10028000D2EB000760EB030C704631463A466346FA
:10029000BDE8F08100487047407B030810B5431A61
:1002A000934209D28318881803E010F8011D03F85F
:1002B000011D521EF9D210BD40EA01039B0703D075
:1002C00009E008C9121F08C0042AFAD203E011F895
:1002D000013B00F8013B521EF9D210BDD2B201E041
:1002E00000F8012B491EFBD270470022F6E710B53B
:1002F00013460A4604461946FFF7F0FF204610BD94
:10030000421C10F8011B0029FBD1801A704710B560
:10031000002200E0521C835C8C5CA34201D1002BC4
:10032000F8D1D8B2E1B2401A10BD30B50446002071
:10033000034600E05B1C934203D2E05CCD5C401BB3
:10034000F8D030BD202A04DB203A00FA02F1002068
:1003500070479140C2F1200320FA03F31943904003
:100360007047202A04DB203A21FA02F0002170476E
:1003700021FA02F3D040C2F120029140084319460D
:1003800070470000064C074D06E0E06840F00103AE
:1003900094E8070098471034AC42F6D3FFF7F8FE14
:1003A000447B0308647B030870B58C1810F8015B6C
:1003B00015F0070301D110F8013B2A1106D110F8FE
:1003C000012B03E010F8016B01F8016B5B1EF9D102
:1003D0002B0705D40023521E0DD401F8013BFAE788
:1003E00010F8013BCB1A921C03E013F8015B01F8F3
:1003F000015B521EF9D5A142D8D3002070BD000088
:100400002DE9F80F02F1A003BB4A4FF0010C4FF0A9
:100410000508C2F808C0D2F808C0D2F800C0CDF86C
:1004200000C01CF1010C07D1DDF800C0C2F800C00B
:1004300012680092002A7CD04268D3F804C0806819
:100440009C6882EA0C02944680EA04076446AB4842
:100450004FEA1C65203B50F82560C4F3074502F0C5
:10046000FF0A50F8255050F82AA086EA3525C2F335
:10047000072604F0FF0B50F8266050F82BB04FEA27
:100480003649FEB2A8F1010850F8266089EA3666BE
:1004900075401E69CCF307496E403D0E50F8299017
:1004A00050F8255085EA3925C4F30729240E50F861
:1004B000299050F824404FEA394989EA3A6985EA97
:1004C00009095D69C7F3074A89EA05054FEA126918
:1004D00050F82AA050F82990C2F3074289EA3A2935
:1004E000CCF3072A50F822200CF0FF0C84EA3222C9
:1004F000C7F3072450F82AA050F8244050F82CC025
:100500004FEA3A4A4FEA34448AEA3B6A84EA3C6C4E
:1005100089EA0A0982EA0C02D3F818A0D3F81CC0B1
:1005200089EA0A0982EA0C04B8F1000F78DD320E7C
:1005300000E064E0C4F3074C50F8222050F82CC0CF
:1005400009F0FF0A82EA3C22C9F3072C50F82AA0DE
:1005500050F82CC004F0FF0B4FEA3C4705F0FF0CAD
:1005600050F82BB050F82CC087EA3C6C82EA0C0C97
:100570001A68C6F307478CEA020C2A0E50F8277057
:1005800050F8222082EA3722C4F30727240E50F8BD
:10059000277050F824404FEA374787EA3A677A4095
:1005A0005F68C5F3074A57404FEA196250F82AA01E
:1005B00050F82220C5F3072582EA3A22C6F3072A1B
:1005C000C9F30749F6B250F82AA050F8255050F860
:1005D000299050F826604FEA3A4A4FEA35458AEAB0
:1005E0003B6A84EA392485EA366582EA0A026C406D
:1005F000D3F808A0DD6882EA0A026C4028E70268A6
:10060000D3F800C05C6882EA0C0C426882EA0407F6
:1006100082689C68C0686240DC68444017E7FFE776
:10062000374850FA85F200EB166C12789CF800C03F
:10063000C9F3072742EA0C62C4F3074CC75D10F800
:100640000CC04FEA0C4C4CEA072C42EA0C02D3F8DF
:1006500000C082EA0C020A6050FA89F200EB156CC5
:1006600012789CF800C0C4F3072742EA0C62C6F374
:10067000074CC75D10F80CC04FEA0C4C4CEA072C35
:1006800042EA0C02D3F804C082EA0C024A6050FA33
:1006900084F200EB196C12789CF800C0C6F30727AF
:1006A00042EA0C6CC5F30742C75D825C120442EA61
:1006B00007224CEA0202D3F808C082EA0C028A60E0
:1006C00050FA86F200EB146C12789CF800C0C5F367
:1006D000072442EA0C62C9F3074C10F80CC0005D15
:1006E0004FEA0C4C4CEA00201043DA685040C860D6
:1006F000BDE8F80F70470000003002404C69030865
:10070000246403082DE9F80FC04B4FF0010C4FF0A3
:100710000508C3F808C0D3F808C0D3F800C0CDF866
:1007200000C01CF1010C0AD04368D2F804C0006874
:1007300083EA0C07136880EA030C63460FE0DDF8D8
:1007400000C0C3F800C01B68009353B14368D2F8DF
:1007500004C0006883EA0C07136843409C46644663
:100760000FE00368D2F800C0946883EA0C0743687E
:10077000D2F804C083EA0C0C8368C0686340D46874
:100780004440A3483D0E04F0FF0950F82560CCF327
:10079000074550F8299050F8255007F0FF0A86EADF
:1007A0003525C3F3072650F82AA050F826600CF030
:1007B000FF0B4FEA364686EA396675401669C3F381
:1007C00007496E404FEA1C6550F8299050F82550B3
:1007D000CCF3072C85EA3925C4F3072950F82CC03F
:1007E00050F8299050F82BB04FEA394989EA3A6914
:1007F00085EA0905D2F81490C4F3074A85EA090589
:100800004FEA136950F82AA050F82990240E89EA7B
:100810003A29C7F3072AC7F30747DBB250F82AA0E3
:1008200050F8244050F8277050F823304FEA3A4AE5
:100830004FEA3C4C8AEA3B6A84EA37248CEA336309
:1008400089EA0A0984EA030CD2F818A0D369203295
:10085000A8F1010889EA0A098CEA0304B8F1000F3B
:1008600069DD330EC5F3074C50F8233050F82CC027
:10087000E7B283EA3C23C9F3072C50F8277050F8FD
:100880002CC006F0FF0A4FEA3C4C8CEA376C83EA36
:100890000C03D2F800C050F82AA083EA0C072B0EF4
:1008A000C9F3074C50F8233050F82CC005F0FF0B6B
:1008B00083EA3C23C4F3072CC5F3072550F82CC06A
:1008C00050F825504FEA3C4C8CEA3A6C83EA0C0312
:1008D000D2F804C0C4F3074A83EA0C0C4FEA196348
:1008E00050F82AA050F82330240E83EA3A23C6F3A6
:1008F000072AC6F3074650F8244050F8266050F8FF
:100900002AA084EA362409F0FF0650F82BB050F8EC
:1009100026604FEA3A4A4FEA35458AEA3B6A85EA59
:10092000366583EA0A036C40D2F808A0D56883EAEA
:100930000A036C4026E7374850FA84F300EB166C44
:100940001B789CF800C0C9F3072743EA0C63C5F382
:10095000074CC75D10F80CC04FEA0C4C4CEA072C52
:1009600043EA0C03D2F800C083EA0C030B6050FA90
:1009700086F300EB156C1B789CF800C0C4F30727C6
:1009800043EA0C63C9F3074CC75D10F80CC04FEA8B
:100990000C4C4CEA072C43EA0C03D2F804C083EA5F
:1009A0000C034B6050FA85F300EB196C1B789CF834
:1009B00000C0C6F3072743EA0C6CC4F30743C75DC6
:1009C000C35C1B0443EA07234CEA0303D2F808C0C4
:1009D00083EA0C038B6050FA89F300EB146C1B78EC
:1009E0009CF800C0C5F3072443EA0C63C6F3074C28
:1009F000D26810F80CC0005D4FEA0C4C4CEA0020A5
:100A000018435040C860BDE8F80F704700300240FE
:100A10004C650308246303082DE9F04105460C46A4
:100A200000F094F82868206068686060A868A0609A
:100A3000E868E0604448012600F5C5611034D4E957
:100A400000C300EB1C67CCF307483F7810F8088020
:100A500051F8277051F8288087EA3827CCF3072807
:100A600010F8088051F828804FEA384850FA8CFC7A
:100A70009CF800C0D4E9022551F82CC088EA3C6CEF
:100A800087EA0C0CC4F800C000EB136CC3F30747F3
:100A90009CF800C0C75D51F82CC051F827708CEA53
:100AA000372CC3F30727C75D51F827704FEA374744
:100AB00050FA83F31B7851F8233087EA33638CEACA
:100AC0000303636000EB1263C2F3074C1B7810F85A
:100AD0000CC051F8233051F82CC083EA3C23C2F3F8
:100AE000072C10F80CC051F82CC04FEA3C4C50FABF
:100AF00082F2127851F822208CEA32625A40A260C7
:100B000000EB1562C5F307431278C35C51F822204D
:100B100051F8233082EA3322C5F30723C35C51F82E
:100B200023304FEA334350FA85FC9CF800C0761C12
:100B300051F82CC083EA3C635A40E2600A2EFFF66B
:100B40007DAFBDE8F0810000246303082DE9F003C8
:100B5000D0E900C38268C068184CC1E90220E1E80E
:100B600004C30A26A4F5007505EB1067C0F3074817
:100B70003F7815F8088047EA0867C0F3072815F89A
:100B800008804FEA084855FA80F999F8009048EA39
:100B9000092847EA080787EA0C0C54F8047B8CEA1A
:100BA000070C83EA0C035A405040C1E90220E1E8F7
:100BB00004C3761ED8D1BDE8F0037047246503084E
:100BC0002DE9F80F02F1C003BA4A4FF0010C4FF0C3
:100BD0000608C2F808C0D2F808C0D2F800C0CDF8A4
:100BE00000C01CF1010C07D1DDF800C0C2F800C044
:100BF00012680092002A7CD04268D3F804C0806852
:100C00009C6882EA0C02944680EA04076446AA487B
:100C10004FEA1C65203B50F82560C4F3074502F0FD
:100C2000FF0A50F8255050F82AA086EA3525C2F36D
:100C3000072604F0FF0B50F8266050F82BB04FEA5F
:100C40003649FEB250F8266089EA366675401E695C
:100C5000CCF307496E403D0E50F8299050F82550CE
:100C600085EA3925C4F30729240E50F8299050F855
:100C700024404FEA394989EA3A6985EA09095D69F8
:100C8000C7F3074A89EA05054FEA126950F82AA016
:100C900050F82990C2F3074289EA3A29CCF3072A8F
:100CA00050F822200CF0FF0C84EA3222C7F307240C
:100CB00050F82AA050F8244050F82CC04FEA3A4A85
:100CC0004FEA34448AEA3B6A84EA3C6C89EA0A09BE
:100CD00082EA0C02D3F818A0D3F81CC089EA0A09EA
:100CE00082EA0C04B8F1010878D0320E50F82220C4
:100CF00000E062E0C4F3074C09F0FF0A50F82CC092
:100D000050F82AA082EA3C22C9F3072C04F0FF0B1A
:100D100050F82CC050F82BB04FEA3C4705F0FF0CC0
:100D200050F82CC087EA3C6C82EA0C0C1A68C6F3B7
:100D300007478CEA020C2A0E50F8277050F8222040
:100D400082EA3722C4F30727240E50F8277050F8A0
:100D500024404FEA374787EA3A677A405F68C5F32D
:100D6000074A57404FEA196250F82AA050F822204B
:100D7000C5F3072582EA3A22C6F3072AC9F30749D1
:100D8000F6B250F82AA050F8255050F8299050F8A3
:100D900026604FEA3A4A4FEA35458AEA3B6A84EAD6
:100DA000392485EA366582EA0A026C40D3F808A045
:100DB000DD6882EA0A026C402AE70268D3F800C0C4
:100DC0005C6882EA0C0C426882EA040782689C68CC
:100DD000C0686240DC68444019E7FFE7374850FAD2
:100DE00085F200EB166C12789CF800C0C9F3072757
:100DF00042EA0C62C4F3074CC75D10F80CC04FEA1E
:100E00000C4C4CEA072C42EA0C02D3F800C082EAF0
:100E10000C020A6050FA89F200EB156C12789CF80B
:100E200000C0C4F3072742EA0C62C6F3074CC75D53
:100E300010F80CC04FEA0C4C4CEA072C42EA0C02AA
:100E4000D3F804C082EA0C024A6050FA84F200EB44
:100E5000196C12789CF800C0C6F3072742EA0C6CA4
:100E6000C5F30742C75D825C120442EA07224CEADE
:100E70000202D3F808C082EA0C028A6050FA86F2B5
:100E800000EB146C12789CF800C0C5F3072442EA0A
:100E90000C62C9F3074C10F80CC0005D4FEA0C4C13
:100EA0004CEA00201043DA685040C860BDE8F80FF3
:100EB00070470000003002404C69030824640308B6
:100EC0002DE9F80FC04B4FF0010C4FF00608C3F8A6
:100ED00008C0D3F808C0D3F800C0CDF800C01CF19A
:100EE000010C0AD04368D2F804C0006883EA0C07FA
:100EF000136880EA030C63460FE0DDF800C0C3F816
:100F000000C01B68009353B14368D2F804C0006866
:100F100083EA0C07136843409C4664460FE003686D
:100F2000D2F800C0946883EA0C074368D2F804C082
:100F300083EA0C0C8368C0686340D4684440A348CB
:100F40003D0E04F0FF0950F82560CCF3074550F83A
:100F5000299050F8255007F0FF0A86EA3525C3F39B
:100F6000072650F82AA050F826600CF0FF0B4FEA35
:100F7000364686EA396675401669C3F307496E40FE
:100F80004FEA1C6550F8299050F82550CCF3072CF7
:100F900085EA3925C4F3072950F82CC050F8299068
:100FA00050F82BB04FEA394989EA3A6985EA0905D0
:100FB000D2F81490C4F3074A85EA09054FEA136989
:100FC00050F82AA050F82990240E89EA3A29C7F34C
:100FD000072AC7F30747DBB250F82AA050F824408D
:100FE00050F8277050F823304FEA3A4A4FEA3C4C09
:100FF0008AEA3B6A84EA37248CEA336389EA0A097D
:1010000084EA030CD2F818A0D3692032A8F10108B1
:1010100089EA0A098CEA0304B8F1000F69DD330E8E
:10102000C5F3074C50F8233050F82CC0E7B283EAE0
:101030003C23C9F3072C50F8277050F82CC006F059
:10104000FF0A4FEA3C4C8CEA376C83EA0C03D2F877
:1010500000C050F82AA083EA0C072B0EC9F3074CF6
:1010600050F8233050F82CC005F0FF0B83EA3C23E6
:10107000C4F3072CC5F3072550F82CC050F82550B1
:101080004FEA3C4C8CEA3A6C83EA0C03D2F804C079
:10109000C4F3074A83EA0C0C4FEA196350F82AA0FC
:1010A00050F82330240E83EA3A23C6F3072AC6F306
:1010B000074650F8244050F8266050F82AA084EAE9
:1010C000362409F0FF0650F82BB050F826604FEA9E
:1010D0003A4A4FEA35458AEA3B6A85EA366583EA49
:1010E0000A036C40D2F808A0D56883EA0A036C4072
:1010F00026E7374850FA84F300EB166C1B789CF80F
:1011000000C0C9F3072743EA0C63C5F3074CC75D6A
:1011100010F80CC04FEA0C4C4CEA072C43EA0C03C5
:10112000D2F800C083EA0C030B6050FA86F300EBA0
:10113000156C1B789CF800C0C4F3072743EA0C63C6
:10114000C9F3074CC75D10F80CC04FEA0C4C4CEAD1
:10115000072C43EA0C03D2F804C083EA0C034B606B
:1011600050FA85F300EB196C1B789CF800C0C6F3AD
:10117000072743EA0C6CC4F30743C75DC35C1B0439
:1011800043EA07234CEA0303D2F808C083EA0C03BE
:101190008B6050FA89F300EB146C1B789CF800C04C
:1011A000C5F3072443EA0C63C6F3074CD26810F872
:1011B0000CC0005D4FEA0C4C4CEA00201843504034
:1011C000C860BDE8F80F7047003002404C65030866
:1011D000246303082DE9F0410C4600F08BF84448E5
:1011E000012600F5C5621034D4E900C300EB1C678A
:1011F000CCF307483F7810F8088052F8277052F86F
:10120000288087EA3827CCF3072810F8088052F89E
:1012100028804FEA384850FA8CFC9CF800C0D4E98A
:10122000021552F82CC088EA3C6C87EA0C0CC4F812
:1012300000C000EB136CC3F307479CF800C0C75D08
:1012400052F82CC052F827708CEA372CC3F30727CA
:10125000C75D52F827704FEA374750FA83F31B787F
:1012600052F8233087EA33638CEA0303636000EBB0
:101270001163C1F3074C1B7810F80CC052F82330EF
:1012800052F82CC083EA3C23C1F3072C10F80CC0A1
:1012900052F82CC04FEA3C4C50FA81F1097852F8D0
:1012A00021108CEA31615940A16000EB1561C5F352
:1012B00007430978C35C52F8211052F8233081EAC1
:1012C0003321C5F30723C35C52F823304FEA33437D
:1012D00050FA85FC9CF800C0761C52F82CC083EABA
:1012E0003C635940E1600C2EFFF67DAFBDE8F08114
:1012F000246303082DE9F00F02680A60D0E900C2F8
:101300004A60D0E901328A60D0E90225CD60D0E997
:1013100003560E61D0E904674F611B4F40690024FA
:1013200007F5007907EB1068C0F3074A98F80080CA
:1013300017F80AA048EA0A68C0F3072A17F80AA0B3
:101340004FEA0A4A57FA80FB9BF800B04AEA0B2A98
:1013500048EA0A0888EA0C0C59F82480641C8CEAD4
:10136000080C83EA0C035A40554041F818CF082C6A
:10137000CD60C1E90132A4BFBDE8F00F70476E40F7
:101380007040C1E90460CDE7246303082DE9F80F3C
:1013900002F1E003BB4A4FF0010C4FF00708C2F81E
:1013A00008C0D2F808C0D2F800C0CDF800C01CF1C7
:1013B000010C07D1DDF800C0C2F800C0126800922D
:1013C000002A7CD04268D3F804C080689C6882EA16
:1013D0000C02944680EA04076446AB484FEA1C6559
:1013E000203B50F82560C4F3074502F0FF0A50F88F
:1013F000255050F82AA086EA3525C2F3072604F0C6
:10140000FF0B50F8266050F82BB04FEA3649FEB279
:10141000A8F1010850F8266089EA366675401E6911
:10142000CCF307496E403D0E50F8299050F82550F6
:1014300085EA3925C4F30729240E50F8299050F87D
:1014400024404FEA394989EA3A6985EA09095D6920
:10145000C7F3074A89EA05054FEA126950F82AA03E
:1014600050F82990C2F3074289EA3A29CCF3072AB7
:1014700050F822200CF0FF0C84EA3222C7F3072434
:1014800050F82AA050F8244050F82CC04FEA3A4AAD
:101490004FEA34448AEA3B6A84EA3C6C89EA0A09E6
:1014A00082EA0C02D3F818A0D3F81CC089EA0A0912
:1014B00082EA0C04B8F1000F78DD320E00E064E03F
:1014C000C4F3074C50F8222050F82CC009F0FF0A52
:1014D00082EA3C22C9F3072C50F82AA050F82CC00D
:1014E00004F0FF0B4FEA3C4705F0FF0C50F82BB01F
:1014F00050F82CC087EA3C6C82EA0C0C1A68C6F3E0
:1015000007478CEA020C2A0E50F8277050F8222068
:1015100082EA3722C4F30727240E50F8277050F8C8
:1015200024404FEA374787EA3A677A405F68C5F355
:10153000074A57404FEA196250F82AA050F8222073
:10154000C5F3072582EA3A22C6F3072AC9F30749F9
:10155000F6B250F82AA050F8255050F8299050F8CB
:1015600026604FEA3A4A4FEA35458AEA3B6A84EAFE
:10157000392485EA366582EA0A026C40D3F808A06D
:10158000DD6882EA0A026C4028E70268D3F800C0EE
:101590005C6882EA0C0C426882EA040782689C68F4
:1015A000C0686240DC68444017E7FFE7374850FAFC
:1015B00085F200EB166C12789CF800C0C9F307277F
:1015C00042EA0C62C4F3074CC75D10F80CC04FEA46
:1015D0000C4C4CEA072C42EA0C02D3F800C082EA19
:1015E0000C020A6050FA89F200EB156C12789CF834
:1015F00000C0C4F3072742EA0C62C6F3074CC75D7C
:1016000010F80CC04FEA0C4C4CEA072C42EA0C02D2
:10161000D3F804C082EA0C024A6050FA84F200EB6C
:10162000196C12789CF800C0C6F3072742EA0C6CCC
:10163000C5F30742C75D825C120442EA07224CEA06
:101640000202D3F808C082EA0C028A6050FA86F2DD
:1016500000EB146C12789CF800C0C5F3072442EA32
:101660000C62C9F3074C10F80CC0005D4FEA0C4C3B
:101670004CEA00201043DA685040C860BDE8F80F1B
:1016800070470000003002404C69030824640308DE
:101690002DE9F80FC14B4FF0010C4FF00708C3F8CC
:1016A00008C0D3F808C0D3F800C0CDF800C01CF1C2
:1016B000010C7CD04368D2F804C08068946883EA47
:1016C0000C039C4680EA04076446B5484FEA1C6553
:1016D000C7F3074650F8255050F8266004F0FF097C
:1016E00085EA3625C3F3072650F8299050F826607E
:1016F0000CF0FF0A4FEA364686EA39666E401569F5
:10170000C3F307496E403D0E50F8299050F825501C
:1017100050F82AA085EA3925C4F3072907F0FF0B02
:1017200050F8299050F82BB04FEA394989EA3A69C4
:1017300085EA09095569C4F3074A89EA05054FEAAC
:10174000136950F82AA050F82990240E89EA3A2902
:10175000CCF3072ACCF3074C50F8244050F82CC0A7
:10176000DBB284EA3C2CC7F3072450F82AA050F8D7
:10177000244050F823304FEA3A4A4FEA34448AEA88
:101780003B6A84EA336389EA0A098CEA0303D2F8E4
:1017900018A0D2F81CC02032A8F1010889EA0A0971
:1017A00083EA0C04B8F1000F7BDD330E00E065E046
:1017B000C5F3074C50F8233050F82CC0E7B283EA49
:1017C0003C23C9F3072C50F8277050F82CC006F0C2
:1017D000FF0A4FEA3C4C8CEA376C83EA0C03D2F8E0
:1017E00000C0C9F3074783EA0C0C2B0E50F8277092
:1017F00050F8233050F82AA083EA3723C4F3072790
:1018000005F0FF0B50F82770C5F307254FEA37475F
:1018100087EA3A677B405768C4F3074A5F404FEA5C
:10182000196350F82AA050F82330240E83EA3A2393
:10183000C6F3072AC6F3074650F8244050F826603E
:1018400050F82AA084EA362409F0FF0650F8255003
:1018500050F82BB050F826604FEA3A4A4FEA354527
:101860008AEA3B6A85EA366583EA0A036C40D2F865
:1018700008A0D56883EA0A036C4027E7DDF800C0BA
:10188000C3F800C01B68009363B14368D2F804C07A
:101890008068946883EA0C0C80EA04076346644617
:1018A00013E70FE00368D2F800C0546883EA0C0C19
:1018B000436883EA040783689468C0686340D46817
:1018C000444002E7374850FA84F300EB166C1B786B
:1018D0009CF800C0C9F3072743EA0C63C5F3074C23
:1018E000C75D10F80CC04FEA0C4C4CEA072C43EAD9
:1018F0000C03D2F800C083EA0C030B6050FA86F3A5
:1019000000EB156C1B789CF800C0C4F3072743EA72
:101910000C63C9F3074CC75D10F80CC04FEA0C4CC0
:101920004CEA072C43EA0C03D2F804C083EA0C0308
:101930004B6050FA85F300EB196C1B789CF800C0E3
:10194000C6F3072743EA0C6CC4F30743C75DC35CC7
:101950001B0443EA07234CEA0303D2F808C083EAD6
:101960000C038B6050FA89F300EB146C1B789CF825
:1019700000C0C5F3072443EA0C63C6F3074CD268E2
:1019800010F80CC0005D4FEA0C4C4CEA00201843E4
:101990005040C860BDE8F80F7047000000300240BA
:1019A0004C650308246303082DE9F0410C4600F060
:1019B0008BF84448012600F5C5621034D4E900C311
:1019C00000EB1C67CCF307483F7810F8088052F80A
:1019D000277052F8288087EA3827CCF3072810F8B8
:1019E000088052F828804FEA384850FA8CFC9CF85E
:1019F00000C0D4E9021552F82CC088EA3C6C87EA92
:101A00000C0CC4F800C000EB136CC3F307479CF840
:101A100000C0C75D52F82CC052F827708CEA372CF2
:101A2000C3F30727C75D52F827704FEA374750FACC
:101A300083F31B7852F8233087EA33638CEA03037D
:101A4000636000EB1163C1F3074C1B7810F80CC006
:101A500052F8233052F82CC083EA3C23C1F3072C00
:101A600010F80CC052F82CC04FEA3C4C50FA81F1EF
:101A7000097852F821108CEA31615940A16000EBDD
:101A80001561C5F307430978C35C52F8211052F879
:101A9000233081EA3321C5F30723C35C52F8233096
:101AA0004FEA334350FA85FC9CF800C0761C52F88C
:101AB0002CC083EA3C635940E1600E2EFFF67DAFF7
:101AC000BDE8F081246303082DE9F04FD0E902C29C
:101AD000D0E90054C1E902C2C1E90054D0E9048749
:101AE000C1E90487D0E90663C1E906632B484FF0DA
:101AF000000900BF00EB136AC3F3074B9AF800A07C
:101B000010F80BB04AEA0B6AC3F3072B10F80BB0BE
:101B10004FEA0B4B50FA83FE9EF800E020314BEA6F
:101B20000E2B4AEA0B0A8AEA050A1D4D55F8295080
:101B300009F101098AEA05056C408CEA040C82EA85
:101B40000C02C1E902C2C1E90054B9F1070FA8BFF4
:101B5000BDE8F08F50FA82FA9AF800A000EB126B01
:101B6000C2F3072E9BF800B010F80EE04AEA0B6AA9
:101B7000C2F3074B10F80BB04FEA0B4B4BEA0E2B9E
:101B80004AEA0B0A8AEA080887EA08077E40734097
:101B9000C1E90663C1E90487ACE7000024630308D8
:101BA000246503082DE9F04784B01F46DDF830A016
:101BB00091468846060018BFB8F1000F0FD0002FDD
:101BC00018BFBAF1000F0AD0B9F1000F02DD19F009
:101BD0000F0F09D004B040F61D40BDE8F08704B0F7
:101BE0004FF44260BDE8F087307910F0020F13BF68
:101BF00040F61E4000246D4604B018BFBDE8F087D3
:101C00005FF0000004EB800158F8011009BA45F8B4
:101C10002010401C0428F5DB736A6846014606F173
:101C20002802182B04D0202B05D0FEF7E9FB04E096
:101C3000FEF7C6FF01E0FFF7A9FB4FF0000C00BF65
:101C400055F82C0004EB8C0100BA0CF1010C785013
:101C5000BCF1040FF4DB10344C45D1DBCAF8004072
:101C600004B00020BDE8F087002812BF002A4FF41E
:101C700042607047017941F002010171002010605B
:101C80007047032300F072B82DE9F04784B01F4677
:101C9000DDF830A091468846060018BFB8F1000F65
:101CA0000FD0002F18BFBAF1000F0AD0B9F1000F02
:101CB00002DD19F00F0F09D004B040F61D40BDE859
:101CC000F08704B04FF44260BDE8F087307910F03F
:101CD000020F13BF40F61E4000246D4604B018BF2B
:101CE000BDE8F0875FF0000004EB800158F80110B8
:101CF00009BA45F82010401C0428F5DB736A6846D1
:101D0000014606F12802182B04D0202B05D0FEF73F
:101D1000F9FC04E0FFF7D4F801E0FFF7B9FC4FF05D
:101D2000000C00BF55F82C0004EB8C0100BA0CF13C
:101D3000010C7850BCF1040FF4DB10344C45D1DBBE
:101D4000CAF8004004B00020BDE8F087002812BFA8
:101D5000002A4FF442607047017941F0020101719D
:101D60000020106070470223AFF30080002818BFE6
:101D7000002905D003F0060C2AB9BCF1020F02D0ED
:101D80004FF4426070472DE9F043446A89B0102C4B
:101D90001CBF182C202C06D1BCF1020F08D00469FE
:101DA000641E102C04D309B040F61F40BDE8F08338
:101DB000C2600479BCF1020F24F00604047149D01A
:101DC000002444618461C46104620569002DD8BFA8
:101DD0004FF0000C06DD15F0010C03D0167844EA34
:101DE000066444616545C8BF182433DD4FEAEC75CD
:101DF0000CEB957525F003063718ACEB060607F1DA
:101E0000140512F80C8076427F6904EBC60608FAC6
:101E100006F63E432E600CF10107FE1707EB9675A0
:101E200025F0030606EB000802EB0C09BE1B08F1C7
:101E3000140599F801907642D8F8148004EBC60690
:101E400009FA06F648EA06062E6005690CF1020C4E
:101E50006545CBDC027912F0010F55D1816013F09A
:101E6000010F0DD006229A430AD0426A0B4600F1B8
:101E700028014FEAE27C00206C4602EB9C7C2FE0BC
:101E800000F1280C426A0020D3176C4602EB9373D2
:101E900006E000BF51F820502DBA44F82050401CF5
:101EA000B0EBA30FF6DB102A04D0182A07D0202AA3
:101EB0002AD109E061462046FEF748FE24E061464B
:101EC0002046FFF717FA1FE061462046FFF7FCFDAA
:101ED0001AE000BF53F820502DBA44F82050401C9F
:101EE000B0EBAC0FF6DB102A07D0182A09D0202A55
:101EF00004BF2046FFF758FD06E02046FEF78CFDA4
:101F000002E02046FFF766F909B00020BDE8F08343
:101F100000B587B000BF1148006840F002000F49CB
:101F200008600846006800F00200019000BF00BF92
:101F30004FF4407002900320059011200390002080
:101F4000049002A9064806F07DFE012005490860BC
:101F50000549C1F8A40207B000BD000030380240B6
:101F600000040240A08240420080404270B5044616
:101F70000E460FF0F5FCC9200EF030FC1648006844
:101F800008B1EA2070BD0DF021FF2070002000F0A4
:101F900011FD2578042D01DBB54203DD0FF00CFDAA
:101FA000E420EFE7681EC5B2641C0EE00DF00EFFE2
:101FB00004F8010B681EC0B2050003D0002000F039
:101FC000F9FC02E0012000F0F5FC002DEED10FF04D
:101FD000F3FC0020D6E70000D001002070B50446D5
:101FE0000D460FF0BDFCC8200EF0F8FB0B48006852
:101FF00008B1EA2070BD0AE020780EF0EFFB074838
:10200000006808B1F720F5E7641C681EC5B2002D12
:10201000F2D10FF0D1FC0020ECE70000D00100204D
:1020200070B504460025E126204612F04FFD064615
:102030000EB9012500E00025284670BD10B500202E
:1020400004490860502012F065F901200249C1F8E6
:10205000A40210BDA4824042008040422DE9F0411C
:1020600094B004460D4616464FF00108E12700BF24
:1020700013F09DFF10B94FF0000828E011A812F0EE
:102080007FFD074617B14FF0000820E0242108A883
:10209000FEF72BF940208DF80400ADF806400295BC
:1020A00000200390049011A805900020069008A835
:1020B0000790BDF806109DF804003346029A12F00E
:1020C00098FC074617B14FF0000800E000BF00BFC2
:1020D000404614B0BDE8F0812DE9FC4104460D46B0
:1020E0000026002700BF13F062FF08B900BF0EE012
:1020F000202000231A462146CDE90050022012F08C
:1021000060FD07460FB1002600E0012600BF00BFBA
:102110003046BDE8FC812DE9FC4704460D461646D5
:102120001F464FF00008C14600BF13F02FFF08B94B
:1021300000BF11E02B46002221460220CDE90067B6
:1021400012F029FE8146B9F1000F02D04FF00008CD
:1021500001E04FF0010800BF00BF4046BDE8FC872A
:1021600030B587B00024002500BF2748006840F044
:102170000400254908600846006800F0040001904A
:1021800000BF00BF0420029020480390012004906B
:1021900002A91F4806F056FD082002900120039076
:1021A00004900320059002A9194806F04BFD032274
:1021B0000121082006F0BDFE082006F0ADFE09F062
:1021C000CBFF0AF037F900F0ABF8052006F04EFC23
:1021D000002009F04EFF044621460EA012F08AF8B6
:1021E00000F066FA012011490870002010490870BB
:1021F00010490870012009F03CFF054629460EA051
:1022000012F078F807B030BD3038024000002110DD
:102210000008024041573931333620636869702025
:1022200049443A30782534780D0A0000D401002062
:10223000D5010020D60100204157393133362047DF
:1022400043523A307825780D0A00000010B54FF45B
:102250004C51572009F031FF0321582009F02DFF80
:102260001C21502009F029FFFC21552009F025FFF1
:102270004FF42241612009F020FF4FF423416120F7
:1022800009F01BFF4FF42441612009F016FF0321E0
:10229000012009F012FF10BD10B54FF44C5157202A
:1022A00009F00BFF0321582009F007FF1C215020E3
:1022B00009F003FFFC21552009F0FFFE4AF2FF213F
:1022C000612009F0FAFE4AF2FF31612009F0F5FEC3
:1022D0004AF2FF41612009F0F0FE0321012009F0DC
:1022E000ECFE10BD10B5322009F0C3FE04462046B6
:1022F00010BD000010B509480068012802D002286E
:1023000006D102E000F0B4FA03E000F05BFA00E06E
:1023100000BF00BFFFF7E6FF10BD0000E401002092
:1023200010B500220821074806F098FD052006F0A8
:102330009DFB01220821034806F090FD0A2006F0CB
:1023400095FB10BD0008024030B58FB0D148007831
:1023500060B9132009F08DFE0190142009F089FE68
:102360000290152009F085FE03900BE0002407E0A1
:10237000C94850F8240001A941F82400601CC4B2E7
:10238000032CF5DB03211E2009F097FE002409E051
:1023900004F13601C8B209F06CFE07A941F8240027
:1023A000601CC4B2062CF3DB022009F062FE054675
:1023B000002410E0B948007808B9002006E0B848C9
:1023C00050F8240007A951F824100844B44941F8F2
:1023D0002400601CC4B2062CECDBB0480078012855
:1023E0006FD10024DBE00120A0402840002869D103
:1023F000AB4850F824004FF47A71B1EBA00F70DDB8
:10240000204604EBD0714910A4EB410199B1611051
:1024100001AA32F8211001F47F41B1F5805F0AD1A1
:10242000601001A911F82000611042F8210002207B
:102430000DA908559CE0204604EBD0714910A4EB8F
:10244000410151B1611001AA32F8211001F47F411C
:1024500019B900200DA908558AE0204604EBD07177
:102460004910A4EB410191B9611001AA12F82110A1
:1024700010290CD1601001A931F8200000F47F4030
:10248000611042F8210002200DA9085570E0204695
:1024900004EBD0714910A4EB410141B9611001AACC
:1024A00012F8211019B900200DA9085560E0204646
:1024B00004EBD0714910A4EB410121B14FF48071BC
:1024C00002E0D7E069E00121621001AB53F822205D
:1024D000511A621043F8221002200DA9085547E056
:1024E000FFE76F4850F8240040F6B831B1EBA00F79
:1024F0003BDA204604EBD0714910A4EB410161B1F5
:10250000611001AA32F8211001F47F41B1F5F85FA2
:1025100003D100200DA908552AE0204604EBD07114
:102520004910A4EB410149B9611001AA12F8211028
:102530001F2903D100200DA9085519E0204604EBFE
:10254000D0714910A4EB410111B14FF4807100E04A
:102550000121621001AB53F822201144621043F8AC
:10256000221001200DA9085502E000200DA90855F0
:1025700048480078002810DD0DA8005D4949095D34
:1025800088420AD000200DA908556010424951F830
:102590002000611001AA42F82100601CC4B2062C80
:1025A000FFF621AF00204049087000240BE0012015
:1025B000A040284028B90DA8005D10B101203A497B
:1025C0000870601CC4B2062CF1DB3748007830B9C3
:1025D0003048007818B900203449087002E0012022
:1025E000324908703048007830B900202949087015
:1025F0002A4908700FB030BD0021012009F05DFDAF
:1026000000240AE001AA32F8242091B204F1130256
:10261000D0B209F052FD601CC4B2032CF2DB0321DE
:10262000012009F04AFD1B480078032807D100204B
:102630001D4908701749087018490870DAE7002426
:1026400005E00DA8005D17490855601CC4B2062CB2
:10265000F7DB002407E001A850F824000E4941F8F8
:102660002400601CC4B2032CF5DB0A480078401C2F
:102670000849087009480078012805DA07480078F9
:10268000401C0649087002E000200449087001203F
:10269000B0E70000D5010020306A0120D6010020FB
:1026A000486A0120D8010020D4010020D701002071
:1026B00010B50021012009F000FD1C21502009F077
:1026C000FCFC0021512009F0F8FC4FF44C5157203C
:1026D00009F0F3FC0321582009F0EFFC00215920F8
:1026E00009F0EBFC00215A2009F0E7FC00215B20F7
:1026F00009F0E3FCA121522009F0DFFC4FF4C051A6
:10270000182009F0DAFC2321022009F0D6FC8421EC
:10271000112009F0D2FC40F28721122009F0CDFCF3
:1027200041F21111142009F0C8FC41F211111520D9
:1027300009F0C3FC40F60A210C2009F0BEFC40F66B
:102740000A210D2009F0B9FC40F60A210E2009F0FB
:10275000B4FC40F202211B2009F0AFFC40F2024120
:102760001C2009F0AAFC1C21072009F0A6FC8021EE
:10277000032009F0A2FC0521192009F09EFC00218C
:10278000212009F09AFC0021202009F096FC00216C
:10279000272009F092FC00212C2009F08EFC00215A
:1027A000222009F08AFC00212D2009F086FC03215B
:1027B000012009F082FC02200149086010BD0000E0
:1027C000E401002070B527480078D8B1FFF7BCFDC0
:1027D00024480078A8B92448007818B100210120C5
:1027E00009F06BFC1C21032009F067FC00212D205F
:1027F00009F063FC1C48007818B10321012009F09E
:102800005CFC70BD1948006828BB322009F031FC1F
:102810000546312009F02DFC044605F0100040B1BA
:1028200014B900F08FF81BE0102C19D100F089F8D2
:1028300016E005F0080040B114B900F081F80FE08F
:10284000082C0DD100F068F80AE005F0040010B182
:1028500014B900F09DF803E0042C01D100F084F8D5
:1028600000BFCEE7D4010020D7010020E001002006
:1028700010B51B480078D8B1FFF766FD18480078FE
:10288000A8B91848007818B10021012009F015FCFA
:102890000021032009F011FC10212D2009F00DFC6E
:1028A0001048007818B10021012009F006FC10BD85
:1028B0000D48006888B92E2009F0DBFB0446102C77
:1028C00002D100F013F808E0012C02D100F062F808
:1028D00003E0022C01D100F037F800BFE7E7000069
:1028E000D4010020D7010020E001002010B502A093
:1028F00011F000FD10BD000041573931333620631F
:10290000656E74657220646F75626C6520636C69B6
:10291000636B200A0000000000B50848007800F052
:10292000010030B10548007820F008000830034964
:10293000087050200CF0F0FB00BD00007901002071
:10294000704770477047000010B502A011F0D2FC2C
:1029500010BD0000415739313336206C6566742054
:10296000736C6970200A000000B50848007800F018
:10297000010030B10548007820F00200801C0349B6
:10298000087050200CF0C8FB00BD00007901002049
:102990007047000010B502A011F0ACFC10BD0000A3
:1029A00041573931333620726967687420736C6916
:1029B00070200A0010B5044609480460032011F095
:1029C000A9FC01200749C1F8A002042011F0A2FCD3
:1029D00000200349091F0860022011F09BFC10BD74
:1029E000A4824042008040422DE9F84300248846FA
:1029F00000940646817998F8060091461D4681426A
:102A000088BF0846411C1A4668460EF075FF00282C
:102A10001CBF40F2ED30BDE8F8834146304600F07F
:102A2000EBFCC01C0127072862D2DFE800F03E2D36
:102A300025352D2504004046009900F087FD0099BA
:102A40003046CC7100F0D8FCB0F1FF3F04D0002834
:102A50004BD002284CD107E031464046009A0FF097
:102A600046F80098C77143E041463046009A0FF09F
:102A70003EF80098C4713BE041463046009A00F0B1
:102A800053F80098C47133E041463046009A00F094
:102A90004BF80098C7712BE041463046009A00F091
:102AA00043F80099F079C87122E03046009900F0AF
:102AB0004DFD00984146C47100F09EFCB0F1FF3F0F
:102AC00003D090B1022813D107E031464046009A66
:102AD0000FF00DF80098C4710AE041463046009AA4
:102AE0000FF005F80098C77102E000980EF036F874
:102AF0000021484609F06AFC4946009800F026FD8E
:102B00000099002914BF002DBDE8F883EA8889796F
:102B10006FF00303494203EB810111440839E98056
:102B20000094BDE8F88300002DE9F84F0B46D0F87B
:102B300000B0096800910025B0F804C09E881768AD
:102B400091462C46B44598BF664681794FF0010EF8
:102B50004FF000088C4532D8A1EB0C01002201F1A6
:102B6000010ABAF1000F2ADD3EEA01011CBF4BF851
:102B70002C80012290F806C0B0F804A0ACEB0A0C3F
:102B80000CF1010C8C451AD91FFA8AFAD0F800C052
:102B90009244521C4CF82A80B0F804A0D0F800C02F
:102BA0009244521C4CF82A8090F806C0B0F804A059
:102BB000891CACEB0A0C0CF1010C8C45E4D8B3F881
:102BC00004C099798C4534D8A1EB0C01002201F1A5
:102BD000010ABAF1000F2CDD3EEA010103D01A68A8
:102BE00042F82C80012293F806C0B3F804A0ACEBA5
:102BF0000A0C0CF1010C8C451BD900BF1FFA8AFA94
:102C0000D3F800C09244521C4CF82A80B3F804A0B8
:102C1000D3F800C09244521C4CF82A8093F806C0A6
:102C2000B3F804A0891CACEB0A0C0CF1010C8C4528
:102C3000E4D881889A889142494638BF184600F006
:102C400085FC002E48D00098ABF10403021F391F09
:102C500016F0010F0DD053F804CF52F8040F1CEBFF
:102C6000000048EB080C40194CEB040541F8040F38
:102C700044465FEA560C1BD0D3F804A050681AEB08
:102C8000000048EB080A45194D604AEB040053F870
:102C900008AF52F8085F1AEB050548EB080428183E
:102CA00044EB080541F8080F4446BCF1010CE3D1A0
:102CB00095B157F82600401C47F8260007E0761C1F
:102CC00007EB86000168491C016057F8260018B917
:102CD000B9F80400B042F2D2B9F8040057F8201055
:102CE00000291CBF401CA9F80400BDE8F88F0000B3
:102CF0002DE9F041B4B080460E4617461D466421CA
:102D00001BA8FDF7F2FA642102A8FDF7EEFA0020F5
:102D1000019002AA3146404608F00CFB710001AB5D
:102D20001BAA02A808F066FA18B9012034B0BDE861
:102D3000F0811BA8019900F043FF08B90220F5E7D4
:102D40000748FDF7DDFA2860002403E00448005D31
:102D50003855641C2868A042F8DC0020E6E7000033
:102D6000805100202DE9F043A3B081460E4617465E
:102D70009846002400200490039002903221594884
:102D8000FDF7B3FA32215848FDF7AFFA00F045FCE1
:102D9000544814905448159018A80CF023FF04468A
:102DA0001CB1002023B0BDE8F083504805900020FE
:102DB000ADF81A004FF46060ADF818004C48079069
:102DC0004C4809904C480B904C480D90202008909E
:102DD0000A900E900C90B8F1010F07D10F9606F1F2
:102DE000200011902020109012900DE0B8F1000FFB
:102DF00007D143480F904348119020201090129023
:102E000002E041F25240CDE705A907A804F048FCD2
:102E1000044604B161E005AA07A902A804F01CFD5C
:102E2000044604B154E007A9029804F051FE044698
:102E300004B14DE005AA07A904A804F00DFD04465D
:102E400004B145E005AA07A903A804F06DFD0446F6
:102E500004B138E020224946039804F079FE044684
:102E600004B12BE005A807AB009002A807C804F046
:102E700093FD044604B121E016AB0021149A049896
:102E800004F0B0FB044617AB0121159A049804F036
:102E9000A9FB04438CB9002503E01498405D7855E4
:102EA0006D1C202DF9DB002505E01598415D05F12D
:102EB000200039546D1C202DF7DB00BF05A903A8A5
:102EC00004F078FB00BF05A904A804F052FB00BF82
:102ED00005A907A804F00FFB00BF18A80CF0B8FE66
:102EE00020465FE7385000206A50002070400020E4
:102EF000BC610308DC610308FC6103081C62030871
:102F00003C6203085C620308F0B599B004460D46C4
:102F10001646002700F081FB03A801AB05AA09A90A
:102F200000900DA805F05EF920200B900C900994FC
:102F300004F120000A90202007900890059505F1E3
:102F4000200006902020029001960A48039003A8D2
:102F500001AB05AA09A900900DA804F0E7F90746FE
:102F600040F2EB30874202D1012019B0F0BD0020C1
:102F7000FBE70000B84F0020F0B5AFB006460F46A3
:102F8000154600202E9020202D90112101A8FDF73C
:102F9000ACF92D480068009020210BA8FDF7A5F999
:102FA000142106A8FDF7A1F928213846FDF79DF95F
:102FB000212D04D0412D02D001202FB0F0BD212DB4
:102FC00016D1E8B28DF89000AC2124AA681C1154E7
:102FD000002404E0315D24AA601C1154641CAC423E
:102FE000F8DB2DAB0BAAA91C24A800F04DF815E0C6
:102FF000E8B28DF84C00AC2113AA681C11540024CF
:1030000004E0315D13AA601C1154641CAC42F8DB6F
:103010002DAB0BAAA91C13A800F036F806A90BA823
:103020000CF07AFF002405E006A8015D601C0DF895
:103030000010641C142CF7DB2EAB3A4615216846B1
:1030400000F0BAF8B9E700007C6203082DE9F0410E
:1030500006460C461546611C304604F0ABF80746A0
:103060006DB194F8400000EBD0714910A0EB410124
:1030700011B10320207004E00220207001E0042040
:1030800020703846BDE8F0812DE9F04104460D4638
:1030900016461F4600F0C1FA3B46324629462046F6
:1030A00007F04EFB80464046BDE8F08130B5034650
:1030B0000C46002106E0585C655CA84201D0002067
:1030C00030BD491C9142F6DB0120F9E72DE9F05FA4
:1030D00004460F4690464FF000090025AA46AB462D
:1030E00060E018F80900A0F12001314A515C8A46DD
:1030F00018F8090012F0F8FA83462046E11704EBAD
:103100009171C1F387063D2E08DD00242046E117AA
:1031100004EB91718E1007F11000C7B2BAF1080FDD
:1031200007D106F11D02D1B2521ED0B20DF039FD09
:1031300008E0BAF1040F05D106F11C02D1B2D0B2F9
:103140000DF02FFD07F10F00C1B238460DF039FD2B
:103150000DF047FDBAF1080F0FD1002507E00BEB8A
:103160000501144A505C00F09AF9681CC5B2102D94
:10317000F5DB04F10800C4B210E0BAF1040F0DD180
:10318000002507E00BEB05010A4A505C00F087F9C7
:10319000681CC5B2082DF5DB201DC4B209F1010081
:1031A00000F0FF0918F8090000289AD1BDE8F09F47
:1031B000E8010020C80300202DE9F041ADF58D6D38
:1031C0000646884617461D464FF4007183A8FDF752
:1031D0008CF84FF4007103A8FDF787F820200290C7
:1031E0000020019002AB0DF22C4241463046FFF721
:1031F0004BFF02AB0DF20C4220210DF22C40FFF7E9
:1032000043FF002404E0305D0DF24C410855641C7E
:10321000152CF8DB002408E00DF20C40015D04F1F0
:1032200015000DF24C421154641C042CF4DB03AA6B
:1032300019210DF24C4008F07DF801AB83AA322130
:1032400003A807F0D7FF20B901200DF58D6DBDE86B
:10325000F08183A8019900F0B3FC08B90220F4E7DB
:103260000748FDF74DF82860002403E00448005D9E
:103270003855641C2868A042F8DC0020E5E700000F
:103280008051002070B485880468012D02BF236836
:10329000002B012312D0AB006FF0030606EB85056F
:1032A0004FF07F4C54F8054014EA0C0F06D1BCF1E6
:1032B000000F1CBF4FEA1C2C5B1EF5D1DC174FF032
:1032C000000C03EB94740CE00568CCF1000603EBF2
:1032D000860655F82C500E442DBA46F8045C0CF1C5
:1032E000010CBCEBA40FEFDB13F0030F1FD0006841
:1032F00003F0030503F0030450F82C0013F0010C55
:1033000003D00D4405F8010C000AA4EB0C0CBCF131
:10331000000F0CDD01EB0C04ACF1020C04F8010C05
:10332000000A04F8020C000ABCF1000FF2DC002ACB
:1033300018BF136070BC7047002812BF002941F20B
:10334000B8407047F8B50F46818800241646012919
:1033500005D102681268002A08BF012312D08B0031
:103360006FF00305026805EB81014FF07F4C555863
:1033700015EA0C0F06D1BCF1000F1CBF4FEA1C2C44
:103380005B1EF5D10093B342C4BF41F2B540F8BD16
:10339000B919C91A6A46FFF775FF0098311A002952
:1033A0000EDD781E11F0010F18BF00F8014F0099D3
:1033B000711A491004D0447000F8024F491EFAD126
:1033C0000020F8BD00207047024803490860002033
:1033D0007047000078380020E000002070B50446F7
:1033E0000D460449D1F8180240210FF07BFE002061
:1033F00070BD00007838002070B490F907C091F9D2
:10340000072094453FD183888C880122A34204BFC2
:103410000068096803D9BCF1000F27D022E003D26D
:10342000BCF1000F2BD027E09D1AA61A50F82550AA
:1034300051F82660B54204D1934224BF521C9342F6
:10344000F2D2551EAB4202BF002070BC70479B1ADF
:10345000A21A50F8230051F82210884209D9BCF171
:10346000000F03D070BC6FF00100704770BC0220E9
:103470007047BCF1000F02D070BC0120704770BCD7
:103480004FF0FF307047BCF1010F05D1002A02BF99
:103490006FF0020070BC7047032070BC70472DE9CC
:1034A000FC410646354600244CE005F0C008B8F162
:1034B000000F09D0B8F1400F0AD0B8F1800F0BD03F
:1034C000B8F1C00F10D10BE0002001A908550CE0A5
:1034D0000F2001A9085508E0F02001A9085504E0D3
:1034E000FF2001A9085500E000BF00BFA806050E97
:1034F00005F0C00737B1402F08D0802F0AD0C02F69
:1035000010D10BE000200DF804000CE00F200DF8A6
:10351000040008E0F0200DF8040004E0FF200DF89E
:10352000040000E000BF00BFA806050E01A9085D69
:1035300001210CF0ADF91DF8040001210CF0A8F9EF
:10354000601CC4B2022CB0DBBDE8FC8170B483887F
:103550008A7900249A4209D202F1010C9C4537BFB6
:1035600041F2B54041F2B54470BC7047C279CA71AE
:1035700000228B80002B09DDD0F800C00D685CF8BC
:1035800022C045F822C0521C9342F5DC8879801A8B
:10359000431C002B26DD01234FF0000C33EA000012
:1035A000634605D0D1F800C04CF822304FF0010C32
:1035B0008D79AD1A6D1C854214DD00BF0D6802EBDC
:1035C0000C060CF1010C45F826300D6802EB0C06D8
:1035D000801C45F826308D790CF1010CAD1A6D1C5C
:1035E0008542EBDC204670BC704782880368012A64
:1035F00001BF186800280120704750016FF0030CCC
:103600000CEB82024FF000419A5831EA02031EBFD0
:1036100000294908401EF8D17047012108030CF029
:10362000A7BA00002DE9F04F85B09846DDF838B014
:1036300092468946070018BFB9F1000F09D0B8F1CA
:10364000000F18BFBBF1000F03D01AF0070F05D011
:1036500007E005B040F6E840BDE8F08FBAF1080F8A
:1036600004DA05B040F6E540BDE8F08F387910F097
:10367000020F1EBF40F6E64005B0BDE8F08F002502
:1036800002AE6C465FF0000005EB800159F80110B6
:1036900009BA46F8201044F82010401C0228F3DB39
:1036A00007F11C01684611F0FBFC002007EB8001CC
:1036B00054F820204B695A4044F8202056F8202026
:1036C0004A6154F8201005EB800209BA401C48F802
:1036D00002100228EADB08355545D3DBCBF800A001
:1036E00005B00020BDE8F08F002812BF002A40F688
:1036F000E8407047017941F002010171002010603B
:103700007047052300F060B82DE9F0471E46DDF84C
:10371000209090460F46040018BF002F08D0002EBE
:1037200018BFB9F1000F03D018F0070F04D006E05E
:1037300040F6E840BDE8F087B8F1080F03DA40F63C
:10374000E540BDE8F087207910F0020F16BF40F683
:10375000E6400025BDE8F0875FF0000005EB800340
:1037600004EB8001FB584A691BBA5A40401C4A616D
:103770000228F3DB04F11C0104F1140011F090FCA9
:103780005FF0000004EB800105EB80024969401CFA
:1037900009BAB1500228F5DB08354545DCDB0020CD
:1037A000C9F80080BDE8F087002812BF002A40F663
:1037B000E8407047017941F002010171002010607A
:1037C00070470423AFF300802DE9F0470C465FEA11
:1037D000000C18BF002C04D003F006002AB9022800
:1037E00003D040F6E840BDE8F087CCF80C209CF808
:1037F0000410022821F006018CF804104FD0DCF8E8
:103800001010481E102824BF40F6E740BDE8F0879E
:103810000025CCF81450CCF818500029D8BF00204F
:1038200007DD11F0010004D0167845EA0665CCF8F2
:1038300014508142C8BF182131DDC51700EB9575C2
:1038400025F0030606EB0C07861B07F1140512F89A
:10385000008076427F6901EBC60608FA06F63E4311
:103860002E60461CF71706EB977525F0030702EB51
:10387000000907EB0C08F61B08F1140599F80190F4
:103880007642D8F8148001EBC60609FA06F648EA33
:1038900006062E60DCF81050801C8542CDDC9CF8BA
:1038A000040010F0010F08D103F001010CF11C021B
:1038B0002046CCF8084011F0E1FC0020BDE8F0877C
:1038C0002DE9F04FADF5017D91460D4680461E462F
:1038D000B0225A4950A8FCF7E1FC0024202E1EBF5C
:1038E0006FF003000DF5017DBDE8F08F05F11907BC
:1038F00017F00F0F04D007F00F00C0F11004274499
:1039000028BA049030BA05902A4641466E4606A869
:10391000FCF7C4FC802170194FF0000801766CB1EF
:10392000183014F0010F18BF00F8018F610805D09E
:1039300080F8018000F8028F491EF9D1CDF800808F
:10394000CDF80480CDF80C800024CDF808800DF56A
:10395000A07B6E461CADCDF87080CDF87480CDF89C
:103960007880CDF87C80B8EB171F38BF0DF5F87A5A
:1039700017D200205FEA041101EB800255F82030D5
:10398000B25812BA5A404AF82020401C0428F3D3F7
:103990005A4629467CA8FCF7B5FE641CB4EB171FF9
:1039A000E7D39DF803000024401C8DF803000DF5BB
:1039B000A07B6E460DF1700A20ADCDF88080CDF869
:1039C0008480CDF88880CDF88C80B8EB171F38BF85
:1039D0000DF5F87817D200205FEA041101EB8002A0
:1039E00055F82030B25812BA5A4048F82020401CEE
:1039F0000428F3D35A4629467CA8FCF783FE641CAE
:103A0000B4EB171FE7D324A91CA8FDF79FF824AA3D
:103A100049460AF11000FCF775FE99E80F0020AC4A
:103A20000FC424AA09F110010AF11000FCF76AFE84
:103A30000DF5017D0020BDE8F08F0000CC79030872
:103A40002DE9F04188B016468846044600256F46A9
:103A5000E068401CE0600AD1A068401CA06006D16C
:103A60006068401C606002D12068401C206007EB49
:103A7000051142462046FCF745FE6D1C022DE7DB92
:103A80000098316848402061019871684840606141
:103A90000298B1684840A0610398F1684840E0612D
:103AA0000498316948402060059871694840606019
:103AB0000698B1694840A0600798F1694840E06005
:103AC00008B0BDE8F08170B503460C460021002027
:103AD00010E0165C451C555D46EA0526851C555DC3
:103AE00046EA0546C51C555D46EA056543F8215082
:103AF000491C001DA142ECDB70BD70B503461446A5
:103B00000020002215E011F820509D5431F820507B
:103B1000C5F30726551C5E5551F82050C5F30746DE
:103B2000951C5E5551F820502D0ED61C9D55401CFD
:103B3000121DA042E7DB70BD70B511480CF0F6FD18
:103B400006460F48001D0CF0F1FD04460C480830F5
:103B50000CF0ECFD054608220A490B480CF0E9FD83
:103B6000B4F1004F08D1B5F1004F02D10DF076FA53
:103B700005E00DF0F3F802E030460DF0BBF870BD43
:103B800000FC0108D95A01200400010800B585B0E5
:103B90004FF4C050009001200190002002900320BB
:103BA00003906946054805F04DF800224FF4C051D6
:103BB000024805F053F905B000BD000000000240C6
:103BC0002DE9F047ADF5367D06460F464FF000086B
:103BD0000020B59064219CA8FCF787FB642237493C
:103BE00083A8FCF75BFB4FF4007103A8FCF77DFB97
:103BF00028213348FCF779FB002403E0305D9CA9C1
:103C00000855641CBC42F9DB00BF9CA8FCF778FB9C
:103C1000814683A8FCF774FB8246B5A803A95346E6
:103C200083AACDE9001049469CA811F02DF905465C
:103C30004FF6FF70854204D100200DF5367DBDE8BA
:103C4000F08764219CA8FCF750FB002404E003A843
:103C5000005D9CA90855641CAC42F8DB022D0AD11A
:103C60009DF80D109DF80C00303800EB800001EB42
:103C70004000A0F13008012D03D19DF80C00A0F107
:103C80003008642183A8FCF730FB35208DF80C0246
:103C900038208DF80D02022DB7DCB8F13A0FB4DCF4
:103CA000084810F808000649B59A885408460CF0F0
:103CB000C1F80020B5900120BFE70000BC620308F6
:103CC000805100208062030810B5044600BF012027
:103CD00008F0D2FB002004F0C1FD80235D4A0721DB
:103CE0000A200CF084FF10235B4A07214E200CF0C1
:103CF0007EFF3023594A07215A200CF078FF3023E9
:103D0000574A072176200CF072FF56A207218E2019
:103D1000FFF7DCF96023544A07219A200CF067FF73
:103D20005023524A0721CE200CF061FF3023504A25
:103D30001C2118200CF05BFF70234E4A1C213420FC
:103D40000CF055FF30234C4A1C2170200CF04FFF23
:103D500060234A4A1C218C200CF049FF5023484A1A
:103D60001C21C0200CF043FF6023464A3321AC20C5
:103D70000CF03DFF0121084600F080FE002008F015
:103D80007BFB012008F078FB15E03F480078C0F38A
:103D9000800030B13C48007820F004003A490870B7
:103DA0000AE039480078C0F3C00020B1002008F0D4
:103DB00063FB012010BDE8E700BF002008F05CFBBA
:103DC000012008F059FB002004F048FD224607219D
:103DD0000020FFF77BF960232C4A332168200CF088
:103DE00006FF6023274A3321AC200CF000FF00219E
:103DF000084600F043FE002008F03EFB012008F0DA
:103E00003BFB23A21C21F420FFF760F900200DF0FA
:103E1000C7FD1EE002F0EEFD08B90220CAE71A480D
:103E20000078C0F3800020B1012008F025FB0020BD
:103E3000C0E715480078C0F3C00020B1012008F0A9
:103E40001BFB0120B6E710480078C0F3400000B12A
:103E50003DE7DFE72123002011150020A1280020E5
:103E6000F12500202C000000B12A0020F11B0020C9
:103E700071300020F115002041170020811C002026
:103E8000D1190020211A002079010020E11C002016
:103E90007300000038B505460C46607800286DD0E8
:103EA00015BB207840B12020002312220B21009066
:103EB00065480CF0E5FE07E02020002312220B21CC
:103EC000009062480CF0DCFE0123202211462C20D9
:103ED00011F0A2F861783C22A2EB8101C8B2A21CC9
:103EE0002021FFF7F3F8ADE0012D22D1207840B179
:103EF0002020002323221C21009053480CF0C0FEF8
:103F000007E02020002323221C2100904F480CF0C2
:103F1000B7FE012320221146702011F07DF8617850
:103F20008022A2EB8101C8B2A21C2021FFF7CEF8AB
:103F300088E0022DD7D1207840B120200023342200
:103F40002D21009040480CF09BFE07E0202000232C
:103F500034222D2100903D480CF092FE01232022B6
:103F60001146B42011F058F86178C422A2EB810107
:103F7000C8B2A21C2021FFF7A9F863E0FDB92078A0
:103F800040B12020002312220B2100902E480CF07B
:103F900077FE07E02020002312220B2100902B48FF
:103FA0000CF06EFE0123202211462C2011F034F873
:103FB0006023274A202124200CF019FE42E0012D25
:103FC0001FD1207840B12020002323221C21009003
:103FD0001D480CF055FE07E02020002323221C2161
:103FE00000901A480CF04CFE01232022114670204C
:103FF00011F012F86023164A202168200CF0F7FD1A
:1040000020E0022D1ED1207840B120200023342250
:104010002D2100900C480CF033FE07E020200023F7
:1040200034222D21009009480CF02AFE0123202281
:104030001146B42010F0F0FF6023054A2021AC2087
:104040000CF0D5FD38BD0000590D0020590B0020A3
:104050009127002070B588B0044601260125012073
:1040600008F00AFA3EE2FD48007800F0010008B9C5
:1040700008B070BDFA480078C0F3800068B3012D25
:104080002BD1F748007820F00400F5490870002093
:1040900004F0E4FB601E00EB800101EB4010F149ED
:1040A00001EB400000F1220210210020FFF70EF882
:1040B000002002F0D7FC05E0E848007800F001009D
:1040C00000B9D5E7E6480078C0F380000028F3D0B7
:1040D000012008F0D1F9012605E1E1480078C0F39C
:1040E000800000287ED0022D7CD1DD48007820F0B1
:1040F0000400DB490870002004F0B0FB601E00EBF8
:10410000800101EB4010D74911F81000002847D179
:104110006023D54A07212E200CF069FD3023D34AB5
:10412000072162200CF063FD4023D14A07217E2045
:104130000CF05DFD5023CF4A0721A2200CF057FD63
:10414000CDA21C21CA20FEF7C1FF2023CB4A1C218F
:1041500018200CF04CFD3023C94A1C212C200CF0F7
:1041600046FD4023C74A1C2148200CF040FD202377
:10417000C54A1C216C200CF03AFD4023C34A1C2187
:1041800080200CF034FD2023C14A1C21A4200CF017
:104190002EFD6023BF4A1C21B8200CF028FD2AE028
:1041A0002023BD4A10211A200CF021FD3023BB4AE8
:1041B00010212E200CF01BFD4023B94A10214A206B
:1041C0000CF015FD2023B74A10216E200CF00FFDD6
:1041D0006023B54A102182200CF009FD5023A54A26
:1041E000102100E072E0B6200CF001FDA2A2102127
:1041F000DE20FEF76BFF6023AC4A332168200CF011
:10420000F6FC6023AA4A3321AC200CF0F0FC5BE002
:1042100093480078C0F38000F0B3012008F02CF937
:10422000601E00EB800101EB40108E4911F8100078
:10423000D8B10021601E00EB800202EB4010894AD9
:1042400002F81010E11DC8B26946FDF745FF9DF860
:104250001F0000F0F0008DF81F00E11DC8B2202300
:104260006A460021FDF757FF1CE00121601E00EBAC
:10427000800202EB40107B4A02F81010E11DC8B228
:104280006946FDF729FF9DF81F0040F001008DF8F9
:104290001F00E11DC8B200E006E020236A460021AD
:1042A000FDF739FF012610E06D480078C0F3C0002B
:1042B00020B1012008F0E0F8012606E06748007808
:1042C00000F0010000B9D3E6A2E70CE064480078F2
:1042D000C0F3800038B135B96148007820F004009F
:1042E0005F490870C4E6012D31D1012E2FD100267F
:1042F000002004F0B3FA40236E4A10212C200CF069
:1043000076FC70236C4A102164200CF070FC601E57
:1043100000EB800101EB4010524911F8100030B160
:104320006023664A1021AC200CF061FC05E04023BC
:10433000634A1021B4200CF05AFC012002F092FBD9
:10434000012002F01DFF002002F01AFF43E0022DC1
:1043500028D1012E26D10026002004F07FFA7023F8
:10436000554A102120200CF042FC601E00EB800119
:1043700001EB40103B4911F8100030B160234F4A67
:10438000102168200CF033FC05E040234C4A10213A
:1043900070200CF02CFC012002F064FB002002F0E5
:1043A000EFFE18E0BDB9012E15D10026002004F063
:1043B00055FA40233F4A102170200CF018FC70235E
:1043C0003D4A1021A8200CF012FC012002F04AFB0B
:1043D000012002F0D5FE22480078C0F3C00050B1A1
:1043E0001F48007820F008001D490870022D02DAED
:1043F000681CC5B201261A480078C0F3400050B1CD
:104400001748007820F0020015490870002D02DDE1
:10441000681EC5B20126012D64D1012E62D100268D
:10442000002004F01BFA4023224A10212C200CF01B
:10443000DEFB7023204A102164200CF0D8FB04EB33
:10444000840000EB4410074911F81000D0B360233A
:104450001A4A1021AC200CF0CAFB3AE07A01002085
:1044600079010020145B0120512500204117002014
:1044700091220020113400203F000000D1250020AF
:10448000E13500208129002071190020F12D002044
:10449000A124002041280020111E002021370020E7
:1044A000B1340020E130002001320020E11C002066
:1044B000211A0020311900208115002061320020CE
:1044C00051220020FFE74023074A1021B4200CF0BE
:1044D0008EFB012002F0C6FA012002F051FE0020FE
:1044E00002F04EFEBFE500005122002070B501250C
:1044F0000124012007F0C0FF25E19348007800F077
:10450000010000B970BD91480078C0F3800060B32D
:10451000012C2AD18D48007820F004008B490870C6
:104520008B48008818B101F0E3FB01254CE0002026
:1045300004F094F94023874A102170200CF057FBB7
:10454000002002F08FFA05E07F48007800F00100BB
:1045500000B9D7E77D480078C0F380000028F3D089
:10456000012007F089FF01252EE078480078C0F38C
:10457000800058B1022C09D17448007820F0040062
:104580007249087001F010FD01251DE06F480078A8
:10459000C0F3800058B1032C09D16C48007820F09A
:1045A00004006A49087001F05BFA01250CE06748D5
:1045B0000078C0F3800038B134B96448007820F046
:1045C0000400624908709DE7012C21D1012D1FD103
:1045D0000025002004F042F940235F4A10212C20DE
:1045E0000CF005FB30235D4A102174200CF0FFFA1B
:1045F00070235B4A1021A8200CF0F9FA012002F088
:1046000031FA012002F0BCFD002002F0B9FD57E0B4
:10461000022C21D1012D1FD10025002004F01EF90C
:1046200030234E4A102118460CF0E1FA70234C4A10
:10463000102164200CF0DBFA50234A4A1021B020EC
:104640000CF0D5FA012002F00DFA002002F098FDDE
:10465000012002F095FD33E0032C18D1012D16D175
:104660000025002004F0FAF870233D4A1021202094
:104670000CF0BDFA50233B4A10216C200CF0B7FA25
:10468000012002F0EFF9002002F07AFD18E0BCB939
:10469000012D15D10025002004F0E0F840232E4A1A
:1046A000102170200CF0A3FA30232C4A1021B820DE
:1046B0000CF09DFA012002F0D5F9012002F060FD16
:1046C00022480078C0F3C00050B12048007820F0A4
:1046D00008001E490870032C02DA601CC4B20125D0
:1046E0001A480078C0F3400050B11848007820F014
:1046F000020016490870002C02DD601EC4B20125BC
:10470000012C20D1012D1ED10025002004F0A6F897
:104710004023114A10212C200CF069FA30230F4A53
:10472000102174200CF063FA70230D4A1021A82088
:104730000CF05DFA012002F095F9012002F020FD55
:10474000002002F01DFDD8E67A010020790100204A
:10475000865C01205127002031190020A11700207C
:10476000812D00203115002070B50546002600BFC0
:10477000012007F081FE002004F070F800BF002047
:1047800004F06CF805EB850101EB4511A84A02EB3A
:1047900041014978C90001F19C0000EBD07149103A
:1047A000C1F18001CCB22023A24A072120460CF09F
:1047B0001EFA04F11400C4B230239F4A0721204698
:1047C0000CF015FA04F11C00C4B240239B4A0721E7
:1047D00020460CF00CFA04F12400C4B22023984ABD
:1047E000072120460CF003FA04F11400C4B2502350
:1047F000944A072120460CF0FAF904F12C00C4B2C7
:1048000005EB850000EB4510894901EB4000821C57
:1048100007212046FEF75AFC05EB850000EB45100A
:10482000834901EB40004078082111FB0040C4B2ED
:1048300085A207212046FEF749FC3023834A1C212C
:1048400024200CF0D4F92023814A1C2140200CF0B4
:10485000CEF970237F4A1C2154200CF0C8F9202384
:10486000774A1C2190200CF0C2F970237A4A1C214F
:10487000A4200CF0BCF90121084600F0FFF86023E9
:10488000764A3321AC200CF0B2F97548007820F05C
:1048900004007349087015E071480078C0F3800087
:1048A00018B1002007F0E8FD12E06D480078C0F371
:1048B000C00038B16A48007820F0080068490870E4
:1048C000012070BD66480078C0F380000028E3D066
:1048D00000BF002003F0C2FF3023624A07210820F6
:1048E0000CF085F93023544A072124200CF07FF97D
:1048F00040235D4A072118460CF079F930234E4ACF
:10490000072164200CF073F940234C4A07218020D2
:104910000CF06DF920234A4A0721A4200CF067F916
:1049200070234D4A0721B8200CF061F946A20721F7
:10493000F020FEF7CBFB05EB850101EB45113C4A6E
:1049400002EB41014978C90001F1940000EBD071FC
:104950004910C1F18001CCB26023444A1C21204699
:104960000CF045F904F13400C4B205EB850000EB0E
:1049700045102F4901EB4000821C1C212046FEF708
:10498000A5FB05EB850000EB4510294901EB400034
:104990004078C000001D2044C4B220232C4A1C21B2
:1049A00020460CF024F904F11400C4B29023304ADC
:1049B0001C2120460CF01BF90021084600F05EF88F
:1049C00060232C4A332168200CF011F96023234A1C
:1049D0003321AC200CF00BF927A21C21F420FEF7A8
:1049E00075FB012007F048FD00200CF0D9FF18E00E
:1049F00002F000F808B9022063E719480078C0F314
:104A0000800008B100260DE015480078C0F3C00012
:104A100008B1012606E012480078C0F3400000B15A
:104A2000ADE6E5E700BF012007F026FD304648E788
:104A3000145B0120111E002021370020B13400201A
:104A4000E1300020711E00203F000000F12900200D
:104A5000B1250020F12B0020112B0020211A00206D
:104A6000790100201118002031300020211F002082
:104A7000C1240020E11C00207300000038B5054669
:104A80000C46FDB144B94020302310220D21009086
:104A90001C480CF0F5F834E0012C08D140203023FC
:104AA00021221E21009017480CF0EAF829E0022C80
:104AB00027D14020302332222F21009011480CF0C2
:104AC000DFF81EE044B94020302310220D21009071
:104AD0000D480CF0D5F814E0012C08D1402030230B
:104AE00021221E21009008480CF0CAF809E0022C8F
:104AF00007D14020302332222F21009002480CF0B1
:104B0000BFF838BDB11200203112002010B50CF0F2
:104B1000D7FE012007F0B0FC01200F4908700F48B4
:104B2000C078062816D2DFE800F00306090C0F1241
:104B300000F016F80EE000F063F80BE000F0F2F879
:104B400008E000F0DDF905E000F002FB02E000F013
:104B500061FC00BF00BF10BD90010020C85A0120B9
:104B600008B523480078C0F3800050B12048007891
:104B700020F004001E49087001201E490870FFF74C
:104B8000B5FC1D480078E0B91A480078012818D112
:104B900000201849087003F061FE20200023232222
:104BA0001C21009015480CF06BF8012320221146BF
:104BB000702010F031FA012000F0EAFD012001F030
:104BC00051FF0B480078C0F3C00028B108480078B6
:104BD00020F008000649087005480078C0F340003E
:104BE00028B10348007820F002000149087008BD90
:104BF0007901002090010020910100205909002036
:104C000010B544480078C0F3800068B1424800788D
:104C100050B94048007820F004003E490870012057
:104C20003E490870FFF762FC3A480078C0F3800004
:104C300070B13948007801280AD13648007820F050
:104C4000040034490870012034490870FFF702FA63
:104C500031480078A8B931480078012811D10020E6
:104C60002E49087003F0FAFD012000F091FD0120AB
:104C700001F0F8FE002002F083FA29490020FFF736
:104C800009F925480078012815D124480078012821
:104C900011D100202149087003F0E0FD022000F04E
:104CA00077FD012001F0DEFE012002F069FA1C49C7
:104CB0000120FFF7EFF817480078C0F3C00088B173
:104CC0001448007820F00800124908701248007853
:104CD000002807DD10480078401E0F4908700120A9
:104CE0000E4908700B480078C0F3400088B10948AD
:104CF000007820F002000749087007480078012872
:104D000007DA05480078401C034908700120034970
:104D1000087010BD79010020910100209001002051
:104D2000145B012010B572480078C0F3800068B1B0
:104D30007048007850B96E48007820F004006C4943
:104D4000087001206C490870FFF7D0FB68480078B4
:104D5000C0F3800070B16748007801280AD1644828
:104D6000007820F004006249087001206249087050
:104D7000FFF770F95E480078C0F3800078B15D48B5
:104D8000007802280BD15A48007820F004005849D6
:104D900008700120584908700220FFF75BF9554858
:104DA0000078E8B954480078012819D10020524908
:104DB000087003F053FD012000F0EAFC012001F02F
:104DC00051FE002002F0DCF9012002F0D9F94B4934
:104DD0000020FFF75FF849494A310220FFF75AF8EF
:104DE0004448007801281DD143480078012819D192
:104DF00000204149087003F031FD022000F0C8FC9A
:104E0000012001F02FFE002002F0BAF9012002F08B
:104E1000B7F93A494A310020FFF73CF837490120F9
:104E2000FFF738F83348007802281DD1324800785F
:104E3000012819D100203049087003F00FFD00202F
:104E400000F0A6FC012001F00DFE002002F098F910
:104E5000012002F095F929494A310120FFF71AF89B
:104E600026490220FFF716F821480078C0F34000D9
:104E7000E0B11F48007820F002001D4908701D486D
:104E80000078022808DA1B480078401C194908708D
:104E900001201949087009E016480078022805D158
:104EA0000020144908700120134908701048007848
:104EB000C0F3C000D8B10E48007820F008000C49BB
:104EC00008700C480078002808DD0A480078401E69
:104ED0000849087001200849087008E00548007872
:104EE00028B902200349087001200349087010BD49
:104EF000790100209101002090010020145B012025
:104F000010B58F480078C0F3800068B18D480078F4
:104F100050B98B48007820F00400894908700120BE
:104F200089490870FFF7E2FA85480078C0F38000ED
:104F300070B18448007801280AD18148007820F0B7
:104F400004007F49087001207F490870FFF782F84C
:104F50007B480078C0F3800078B17A480078022856
:104F60000BD17748007820F00400754908700120C3
:104F7000754908700220FFF76DF871480078C0F39A
:104F8000800078B16F48007803280BD16C48007816
:104F900020F004006A49087001206B490870032062
:104FA000FFF758F867480078E8B9674800780128A3
:104FB00019D100206449087003F050FC012000F072
:104FC000E7FB012001F04EFD002002F0D9F801209E
:104FD00002F0D6F85D490020FEF75CFF5B49943192
:104FE0000220FEF757FF5748007801281DD1564888
:104FF0000078012819D100205349087003F02EFCD5
:10500000022000F0C5FB012001F02CFD002002F081
:10501000B7F8012002F0B4F84C494A310020FEF7FD
:1050200039FF4A490120FEF735FF4648007802283B
:105030001FD14548007801281BD100204249087043
:1050400003F00CFC012001F00DFD002002F098F8A7
:10505000012002F095F83D4994310020FEF71AFF37
:105060003A494A310120FEF715FF38490220FEF780
:1050700011FF3448007803281ED1334800780128F6
:105080001AD100203049087003F0E8FB002000F03E
:105090007FFB012001F0E6FC002002F071F8012006
:1050A00002F06EF8294994310120FEF7F3FE2749FA
:1050B0004A310220FEF7EEFE21480078C0F340009E
:1050C000E0B11F48007820F002001D4908701D481B
:1050D0000078032808DA1B480078401C194908703A
:1050E00001201949087009E016480078032805D105
:1050F00000201449087001201349087010480078F6
:10510000C0F3C000D8B10E48007820F008000C4968
:1051100008700C480078002808DD0A480078401E16
:105120000849087001200849087008E0054800781F
:1051300028B903200349087001200349087010BDF5
:10514000790100209101002090010020145B0120D2
:1051500010B5AC480078C0F3800068B1AA48007868
:1051600050B9A848007820F00400A6490870012032
:10517000A6490870FFF7BAF9A2480078C0F380008A
:1051800070B1A148007801280AD19E48007820F02B
:1051900004009C49087001209C490870FEF75AFFE2
:1051A00098480078C0F3800078B1974800780228CA
:1051B0000BD19448007820F0040092490870012037
:1051C000924908700220FEF745FF8E480078C0F330
:1051D000800078B18C48007803280BD1894800788A
:1051E00020F00400874908700120884908700320D6
:1051F000FEF730FF83480078C0F3800078B1824822
:10520000007804280BD17F48007820F004007D4905
:10521000087001207D4908700420FEF71BFF7A48C2
:105220000078E8B979480078012819D10020774939
:10523000087003F013FB012000F0AAFA012001F02E
:1052400011FC002001F09CFF012001F099FF704942
:105250000020FEF71FFE6E49DE310220FEF71AFE27
:105260006948007801281DD168480078012819D1C3
:1052700000206649087003F0F1FA022000F088FA75
:10528000012001F0EFFB002001F07AFF012001F086
:1052900077FF5F494A310020FEF7FCFD5C490120A1
:1052A000FEF7F8FD5848007802281FD157480078CB
:1052B00001281BD100205549087003F0CFFA0120C6
:1052C00001F0D0FB002001F05BFF012001F058FF4E
:1052D0004F4994310020FEF7DDFD4D494A31012050
:1052E000FEF7D8FD4A490220FEF7D4FD4648007873
:1052F000032820D14548007801281CD100204349CB
:10530000087003F0ABFA012001F0ACFB002001F0C3
:1053100037FF012001F034FF3D49DE310020FEF768
:10532000B9FD3B4994310120FEF7B4FD38494A31BB
:105330000220FEF7AFFD3448007804281ED1334820
:10534000007801281AD100203049087003F086FA4D
:10535000002000F01DFA012001F084FB002001F084
:105360000FFF012001F00CFF2949DE310120FEF77B
:1053700091FD274994310220FEF78CFD21480078E9
:10538000C0F34000E0B11F48007820F002001D4942
:1053900008701D480078042808DA1B480078401C73
:1053A0001949087001201949087009E01648007869
:1053B000042805D100201449087001201349087001
:1053C00010480078C0F3C000D8B10E48007820F033
:1053D00008000C4908700C480078002808DD0A48CD
:1053E0000078401E0849087001200849087008E04C
:1053F0000548007828B904200349087001200349B2
:10540000087010BD7901002091010020900100205A
:10541000145B012010B5C8480078C0F3800068B163
:10542000C648007850B9C448007820F00400C2494A
:1054300008700120C2490870FFF758F8BE4800788C
:10544000C0F3800070B1BD48007801280AD1BA4885
:10545000007820F00400B84908700120B8490870AD
:10546000FEF7F8FDB4480078C0F3800078B1B34887
:10547000007802280BD1B048007820F00400AE4933
:1054800008700120AE4908700220FEF7E3FDAA482B
:105490000078C0F3800078B1A848007803280BD1C9
:1054A000A548007820F00400A34908700120A44911
:1054B00008700320FEF7CEFD9F480078C0F38000FF
:1054C00078B19E48007804280BD19B48007820F0E2
:1054D0000400994908700120994908700420FEF7DA
:1054E000B9FD95480078C0F3800078B19348007802
:1054F00005280BD19048007820F004008E490870F0
:1055000001208F4908700520FEF7A4FD8B48007824
:10551000E0B98B480078012818D10020884908702C
:1055200003F09CF9012000F033F9012001F09AFA10
:10553000002001F025FE012001F022FE814900201B
:10554000FEF7A8FC80490220FEF7A4FC7B48007807
:1055500001281DD17A480078012819D10020784906
:10556000087003F07BF9022000F012F9012001F02D
:1055700079FA002001F004FE012001F001FE7149DA
:105580004A310020FEF786FC6E490120FEF782FCBE
:105590006A48007802281FD16948007801281BD189
:1055A00000206749087003F059F9012001F05AFA08
:1055B000002001F0E5FD012001F0E2FD6149943198
:1055C0000020FEF767FC5F494A310120FEF762FCCC
:1055D0005C490220FEF75EFC58480078032820D181
:1055E0005748007801281CD100205549087003F065
:1055F00035F9012001F036FA002001F0C1FD01204B
:1056000001F0BEFD50494A390020FEF743FC4D49E8
:1056100094310120FEF73EFC4A494A310220FEF750
:1056200039FC4648007804281FD1454800780128F5
:105630001BD100204249087003F010F9012001F04D
:1056400011FA002001F09CFD012001F099FD3E4976
:105650000020FEF71FFC3C494A390120FEF71AFCE6
:10566000384994310220FEF715FC344800780528AB
:105670001DD133480078012819D100203049087025
:1056800003F0ECF8002000F083F8012001F0EAF9C3
:10569000002001F075FD012001F072FD2A49012072
:1056A000FEF7F8FB28494A390220FEF7F3FB2248AF
:1056B0000078C0F34000E0B11F48007820F00200FD
:1056C0001D4908701D480078052808DA1B48007835
:1056D000401C1A49087001201949087009E0174850
:1056E0000078052805D100201449087001201449CC
:1056F000087011480078C0F3C000D8B10E48007897
:1057000020F008000C4908700C480078002808DDDB
:105710000A480078401E09490870012008490870AD
:1057200008E00648007828B90520044908700120DF
:105730000349087010BD000079010020910100208C
:1057400090010020145B01203C5C012010B50F4843
:10575000C078062816D2DFE800F00306090C0F1205
:10576000FFF7FEF90FE0FFF74BFA0CE0FFF7DAFA6C
:1057700009E0FFF7C5FB06E0FFF7EAFC03E0FFF7EF
:1057800049FE00E000BF00BF10BD0000C85A012064
:1057900038B50446A4B92020002312220B21009022
:1057A0001E480BF06DFA0123202211462C200FF029
:1057B00033FC70231A4A202108460BF018FA2CE01B
:1057C000012C14D12020002323221C2100901348F7
:1057D0000BF056FA01232022114670200FF01CFC1A
:1057E00070230F4A202164200BF001FA15E0022CEF
:1057F00013D12020002334222D21009007480BF0E4
:105800003FFA012320221146B4200FF005FC70233B
:10581000034A2021A8200BF0EAF938BD59090020DD
:10582000D12E002010B592B0044600208DF804005F
:10583000B5E0002C58D1002101A810F02FFB7849C9
:1058400001A810F045FC002843D0012006F014FE0A
:10585000002003F003F84023724A072130200BF0A8
:10586000C6F93023704A072154200BF0C0F93023C9
:105870006E4A072170200BF0BAF930236C4A0721D9
:105880008C200BF0B4F950236A4A0721A8200BF0B2
:10589000AEF96023684A1C2144200BF0A8F930239C
:1058A000664A1C2178200BF0A2F95023644A1C217F
:1058B00094200BF09CF9002001F0D4F800BF61485F
:1058C0000078C0F380000028F9D0002006F0D4FD55
:1058D00065E09DF8040040F0F0008DF804002146DA
:1058E00001A810F0DBFA5BE0012C58D1012101A8DE
:1058F00010F0D4FA4A49012010F06CFB002843D084
:10590000012006F0B9FD002002F0A8FF4023454A1F
:10591000072130200BF06BF93023434A0721542034
:105920000BF065F93023414A072170200BF05FF935
:1059300030233F4A07218C200BF059F950233D4A70
:105940000721A8200BF053F960233B4A1C21442077
:105950000BF04DF93023394A1C2178200BF047F920
:105960005023374A1C2194200BF041F9002001F00C
:1059700079F800BF33480078C0F380000028F9D0E0
:10598000002006F079FD0AE09DF8040040F0F000E8
:105990008DF80400214601A810F080FA00E048E7E5
:1059A00000BF9CB3012C38D1002002F057FF00202B
:1059B00001F058F840231B4A102126200BF017F95C
:1059C0003023214A10214A200BF011F930231F4ABD
:1059D000102166200BF00BF930231D4A1021822084
:1059E0000BF005F940231B4A10219E200BF0FFF815
:1059F0003023194A1021C2200BF0F9F807E01748AC
:105A0000007800F0010010B912B010BD05E00D489B
:105A10000078C0F380000028F1D000BFF4E7000058
:105A2000D95A012051370020212A0020E11D0020F1
:105A3000D1280020F1270020512A0020D131002058
:105A40006116002079010020A1280020F129002002
:105A50006121002091190020712E00207A01002080
:105A600070B50125012427E19448007800F0010079
:105A700000B970BD92480078C0F3800038B3012CA3
:105A800025D18F48007820F004008D49087000204F
:105A900002F0E4FE8BA210217020FDF717FB00201E
:105AA00000F0E0FF05E08548007800F0010000B953
:105AB000DFE783480078C0F380000028F3D08048F7
:105AC000007820F004007E490870012559E07C48E8
:105AD0000078C0F38000002846D0022C44D17848DA
