:020000040801F1
:1000000028A50120A1010108A9010108B566010880
:10001000AD010108AF010108B101010800000000B5
:10002000000000000000000000000000B301010813
:10003000B501010800000000B7010108A3BD0108D7
:10004000BB010108BB010108BB010108BB0101089C
:10005000BB010108BB0101085D460108BB010108A5
:1000600067460108BB010108BB010108BB0101088B
:10007000BB010108BB010108BB010108BB0101086C
:10008000BB010108BB010108BB010108BB0101085C
:10009000BB010108BB010108BB010108BB0101084C
:1000A000BB010108BB010108BB010108BB0101083C
:1000B000BB010108BB010108BB010108BB0101082C
:1000C000BB010108BB010108BB010108BB0101081C
:1000D000BB010108BB010108C5C00108BB01010843
:1000E000BB010108BB010108BB010108BB010108FC
:1000F000BB010108BB010108BB010108BB010108EC
:10010000BB010108BB010108BB010108BB010108DB
:10011000BB010108BB010108BB010108BB010108CB
:10012000BB010108BB010108BB010108BB010108BB
:10013000BB010108BB010108BB010108BB010108AB
:10014000BB010108BB010108BB010108B59F010803
:10015000BB010108BB010108BB010108BB0101088B
:10016000BB010108BB010108BB010108BB0101087B
:10017000BB010108BB010108BB0101080000000030
:10018000BB010108BB010108DFF810D000F098FBAB
:1001900000F0AEF8004800470922020828A5012017
:1001A0000648804706480047FEE7FEE7FEE7FEE711
:1001B000FEE7FEE7FEE7FEE7FEE7FEE73DBE0108DD
:1001C000890101082DE9F0410024061B254671F143
:1001D000000605DA01240027D0EB070067EB0101D8
:1001E000161E73F1000605DA0027D2EB070201257F
:1001F00067EB030300F007FA86460E4617469C4657
:10020000AC4204D00025D0EB050E65EB010624B10D
:100210000020D2EB000760EB030C704631463A46F3
:100220006346BDE8F0810000004870474C41020879
:1002300010B5431A934209D28318881803E010F8C6
:10024000011D03F8011D521EF9D210BD40EA010341
:100250009B0703D009E008C9121F08C0042AFAD27C
:1002600003E011F8013B00F8013B521EF9D210BD2A
:10027000D2B201E000F8012B491EFBD270470022E8
:10028000F6E710B513460A4604461946FFF7F0FF95
:10029000204610BD421C10F8011B0029FBD1801A1A
:1002A000704710B5002200E0521C835C8C5CA342B6
:1002B00001D1002BF8D1D8B2E1B2401A10BD0346EB
:1002C00011F8012B00F8012B002AF9D118467047CC
:1002D00030B505460020034600E05B1C934205D282
:1002E000EC5CC85C201A01D1002CF6D130BD0000B6
:1002F00070B5054C054D03E0206820448047241D5F
:10030000AC42F9D170BD0000BC410208C0410208F6
:100310002DE9FE4F804681EA0300C00F0C46009095
:1003200021F0004123F00045B8EB0200A94105D2BD
:100330004046214690461C460B46024623F00040AC
:10034000104347D0270DC7F30A00C3F30A510290A8
:10035000401A019040286BDAC3F3130040F4801B6D
:100360000098924620B10023D2EB030A63EB0B0BFB
:1003700001985946C0F14002504600F075F9064612
:100380000D4650465946019A00F08DF910EB0800D1
:100390006141002487EA115284EAE7731A4340D08E
:1003A000009A62B3019A012A4FEA075215DC001B3A
:1003B00061EB02014FF0004202EA0752CDE9004230
:1003C000001C41F5801132462B4600F08DF903B038
:1003D000BDE8F08F40462146F9E7001B61EB0201C2
:1003E000001C41F5801300185B412018A2F500178E
:1003F00047EB030140EAD570B6196D4111E06D0875
:100400004FEA360645EAC0754FEA0752001B61EB1A
:100410000201001C41F5801149084FEA3000001923
:10042000514132462B4603B0BDE8F04F00F04DB9C4
:100430000098012240000023D0EB020263EBE0733E
:10044000009821464FEAE074B8EB000061EB04012C
:10045000E9E783F000435BE781F0004158E72DE9CD
:10046000FE4F81EA030404F0004421F000410094AF
:100470004FF0000B23F0004350EA01045ED052EA33
:1004800003045BD0C3F30A54C1F30A552C44A4F20D
:10049000F3340194A0FB0254C1F3130141F4801121
:1004A000C3F3130343F4801301FB024400FB034E28
:1004B000840A970A44EA815447EA8357A4FB0768F1
:1004C00002958D0A05FB07854FEA932C04FB0C541B
:1004D0002705029D4FEA065847EA1637B5EB08058F
:1004E0006EEB070C870E920E47EA811742EA8312E1
:1004F000A7FB0201B6EB0B0164EB00042B0D43EAF2
:100500000C335E1844EB1C50DA465146E7FB0201FF
:10051000C5F313044FEA0B3343EA14534FEA043292
:10052000019C43EA0603A4F10C040294009CCDE96B
:1005300000B400F0D9F803B0BDE8F08F0020014608
:10054000F9E70EB5C10F80EAE0700844CA07002140
:1005500040F233438DE80E000A460B4600F0C4F823
:1005600003B000BD3EB5CA17CB0F00245040514028
:10057000C0186141DA0740F233430094CDE901230A
:100580002246234600F0B0F803B030BD70B5C1F389
:100590000A5201F000450024C1F3130140F2FF3379
:1005A00041F480119A4202DA0020014670BD40F207
:1005B00033439A42A2F2334203DC524200F063F822
:1005C00001E000F051F82C43F0D00023D0EB030001
:1005D00063EB010170BDC1F30A52C1F3130140F294
:1005E000FF3341F480119A4202DA0020014670473D
:1005F00040F233439A42A2F2334202DC524200F00C
:1006000042B800F031B82DE9F05F0546002092466F
:100610009B4688460646814640241BE028464146C4
:100620004746224600F02FF853465A46C01A9141D9
:1006300010D311461846224600F016F82D1A67EB23
:1006400001084F4622460120002100F00DF817EB6B
:1006500000094E41201EA4F10104DFDC484631466A
:100660002A464346BDE8F09F202A04DB203A00FAE0
:1006700002F1002070479140C2F1200320FA03F3F9
:10068000194390407047202A04DB203A21FA02F0F7
:100690000021704721FA02F3D040C2F120029140BC
:1006A000084319467047202A06DBCB17203A41FA47
:1006B00002F043EAE07306E041FA02F3D040C2F1EF
:1006C0002002914008431946704710B5141E73F17B
:1006D000000408DA401C41F1000192185B411A4302
:1006E00001D120F0010010BD2DE9F04D92469B464E
:1006F00011B1B1FA81F202E0B0FA80F220329046F4
:10070000FFF7B2FF04460F4640EA0A0041EA0B0138
:1007100053465A46084313D0114653EA010019D0F4
:10072000C8F140025046FFF7AEFF05460E46504660
:1007300059464246FFF798FF084305D0012004E0E0
:1007400020463946BDE8F08D0020054346EAE076B4
:100750002C4337430A986305E40AA0EB0800002203
:10076000FD0A44EA47540A3002D500200146E9E771
:10077000010510196941DDE9084500196941BDE825
:10078000F04DA2E72DE9F04D81EA030404F0004B9F
:1007900021F0004514464FF0000A23F0004150EAD2
:1007A000050220D054EA01021DD0C5F30A570246C3
:1007B000C5F31303C1F31300C1F30A5640F48015C7
:1007C00043F48013A7EB0608101BD64608F2FD3849
:1007D00073EB050002D308F1010801E092185B41B8
:1007E000B8F1000F03DA00200146BDE8F08D0020CB
:1007F0004FF48011064684460EE0171B73EB050785
:1008000005D3121B63EB050306434CEA010C4908B0
:100810004FEA300092185B4150EA0107EDD152EAED
:10082000030012D082EA040083EA0501084305D0E0
:10083000101BAB4106D20122002306E000224FF03C
:10084000004302E06FF0010253101AEB06004CEB7C
:10085000085110EB0A0041EB0B01BDE8F04DFFF72A
:1008600034BF70B521F0004303430CD0C1F30A55E7
:100870000024D5EB040564EB0403D617AD1AB3418D
:1008800002DB0020014670BD201841EB025170BD13
:1008900030B5041E71F1000404DB4FF00044404207
:1008A00064EB0101141E73F1000405DB1C464FF0DC
:1008B0000043524263EB0403994208BF904230BDAB
:1008C000064C074D06E0E06840F0010394E807009D
:1008D00098471034AC42F6D3FFF75AFC9C4102080B
:1008E000BC4102082DE9F04D00231A461B1A8A412B
:1008F00003DB00200146BDE8F08DC1F30A52C1F3CD
:10090000130141F480154FF0000BD10702D10018FC
:100910006D41521E0027044640F2FF11384601EB9C
:10092000620A3E468046024600204FF48011FFF7DF
:10093000AAFEC2197141BB1846EB0100B4EB030CCF
:1009400075EB000C04D3E41A65EB000517460E4660
:10095000241908F101006D4180463428E3DDF919BE
:1009600046EB0600091BA84103D24FF0FF321346A5
:1009700001E0002213461BEB070046EB0A51BDE8DD
:10098000F04DFFF7A2BE70B58D1810F8014B14F0B2
:10099000030201D110F8012B231106D110F8013BFD
:1009A00003E010F8016B01F8016B521EF9D1ABB1F5
:1009B00010F8012B04F00C048A1A0C2C03D0A2EBC3
:1009C00084129B1C08E010F8014BA2EB0422F8E70C
:1009D00012F8014B01F8014B5B1EF9D5A942D4D3A3
:1009E000002070BD2DE9F80FC04B4FF0010C4FF007
:1009F0000508C3F808C0D3F808C0D3F800C0CDF884
:100A000000C01CF1010C0AD04368D2F804C0006891
:100A100083EA0C07136880EA030C63460FE0DDF8F5
:100A200000C0C3F800C01B68009353B14368D2F8FC
:100A300004C0006883EA0C07136843409C46644680
:100A40000FE00368D2F800C0946883EA0C0743689B
:100A5000D2F804C083EA0C0C8368C0686340D46891
:100A60004440A3483D0E04F0FF0950F82560CCF344
:100A7000074550F8299050F8255007F0FF0A86EAFC
:100A80003525C3F3072650F82AA050F826600CF04D
:100A9000FF0B4FEA364686EA396675401669C3F39E
:100AA00007496E404FEA1C6550F8299050F82550D0
:100AB000CCF3072C85EA3925C4F3072950F82CC05C
:100AC00050F8299050F82BB04FEA394989EA3A6931
:100AD00085EA0905D2F81490C4F3074A85EA0905A6
:100AE0004FEA136950F82AA050F82990240E89EA99
:100AF0003A29C7F3072AC7F30747DBB250F82AA001
:100B000050F8244050F8277050F823304FEA3A4A02
:100B10004FEA3C4C8AEA3B6A84EA37248CEA336326
:100B200089EA0A0984EA030CD2F818A0D3692032B2
:100B3000A8F1010889EA0A098CEA0304B8F1000F58
:100B400069DD330EC5F3074C50F8233050F82CC044
:100B5000E7B283EA3C23C9F3072C50F8277050F81A
:100B60002CC006F0FF0A4FEA3C4C8CEA376C83EA53
:100B70000C03D2F800C050F82AA083EA0C072B0E11
:100B8000C9F3074C50F8233050F82CC005F0FF0B88
:100B900083EA3C23C4F3072CC5F3072550F82CC087
:100BA00050F825504FEA3C4C8CEA3A6C83EA0C032F
:100BB000D2F804C0C4F3074A83EA0C0C4FEA196365
:100BC00050F82AA050F82330240E83EA3A23C6F3C3
:100BD000072AC6F3074650F8244050F8266050F81C
:100BE0002AA084EA362409F0FF0650F82BB050F80A
:100BF00026604FEA3A4A4FEA35458AEA3B6A85EA77
:100C0000366583EA0A036C40D2F808A0D56883EA07
:100C10000A036C4026E7374850FA84F300EB166C61
:100C20001B789CF800C0C9F3072743EA0C63C5F39F
:100C3000074CC75D10F80CC04FEA0C4C4CEA072C6F
:100C400043EA0C03D2F800C083EA0C030B6050FAAD
:100C500086F300EB156C1B789CF800C0C4F30727E3
:100C600043EA0C63C9F3074CC75D10F80CC04FEAA8
:100C70000C4C4CEA072C43EA0C03D2F804C083EA7C
:100C80000C034B6050FA85F300EB196C1B789CF851
:100C900000C0C6F3072743EA0C6CC4F30743C75DE3
:100CA000C35C1B0443EA07234CEA0303D2F808C0E1
:100CB00083EA0C038B6050FA89F300EB146C1B7809
:100CC0009CF800C0C5F3072443EA0C63C6F3074C45
:100CD000D26810F80CC0005D4FEA0C4C4CEA0020C2
:100CE00018435040C860BDE8F80F7047003002401C
:100CF000D02A0208A82802082DE9F003D0E900C391
:100D00008268C068184CC1E90220E1E804C30A26E1
:100D1000A4F5007505EB1067C0F307483F7815F898
:100D2000088047EA0867C0F3072815F808804FEAEB
:100D3000084855FA80F999F8009048EA092847EAE6
:100D4000080787EA0C0C54F8047B8CEA070C83EA4A
:100D50000C035A405040C1E90220E1E804C3761E6A
:100D6000D8D1BDE8F0037047A82A020830B587B093
:100D70000024002500BF3748006840F004003549D2
:100D800008600846006800F00400019000BF00BF42
:100D900000BF0846006840F001000860084600688F
:100DA00000F00100019000BF00BF012002902A481E
:100DB00003900120049002A9284803F087FF042033
:100DC0000290254803900120049002A9244803F0D2
:100DD0007DFF0820029001200390049003200590DD
:100DE00002A91F4803F072FF01220221062004F02D
:100DF000CCF8062004F0BCF803220221082004F0FD
:100E0000C4F8082004F0B4F805F0BAFD00F08AF840
:100E1000052003F067FE002005F040FD0446214652
:100E200010A00FF053FC00F065FA01201349087080
:100E300000201349087013490870012005F02EFDA9
:100E40000546294610A00FF041FC00F027F807B036
:100E500030BD000030380240000021100000024088
:100E600000080240415739313336206368697020E9
:100E700049443A30782534780D0A00005C5500204A
:100E80005D5500205E5500204157393133362047EB
:100E900043523A307825780D0A00000010B54FF41F
:100EA0004C51572005F01EFD0321582005F01AFD76
:100EB0001C21502005F016FDFC21552005F012FDE7
:100EC0004AF2FF21612005F00DFD4AF2FF31612059
:100ED00005F008FD4AF2FF41612005F003FD032102
:100EE000012005F0FFFC10BD10B5322005F0D6FC46
:100EF0000446204610BD000010B5094800680128CE
:100F000002D0022806D102E000F0E8FA03E000F087
:100F100087FA00E000BF00BFFFF7E6FF10BD00004A
:100F20006C55002010B500220821074803F0D2FFBD
:100F3000052003F0D7FD01220821034803F0CAFF72
:100F40000A2003F0CFFD10BD0008024030B58FB07D
:100F5000D148007860B9132005F0A0FC019014205E
:100F600005F09CFC0290152005F098FC03900BE026
:100F7000002407E0C94850F8240001A941F82400E2
:100F8000601CC4B2032CF5DB03211E2005F0AAFC73
:100F9000002409E004F13601C8B205F07FFC07A97E
:100FA00041F82400601CC4B2062CF3DB022005F0DB
:100FB00075FC0546002410E0B948007808B9002007
:100FC00006E0B84850F8240007A951F82410084456
:100FD000B44941F82400601CC4B2062CECDBB048D4
:100FE000007804286FD10024DBE00120A0402840D5
:100FF000002869D1AB4850F824004FF47A71B1EB66
:10100000A00F70DD204604EBD0714910A4EB410124
:1010100099B1611001AA32F8211001F47F41B1F5B4
:10102000805F0AD1601001A911F82000611042F818
:10103000210002200DA908559CE0204604EBD07148
:101040004910A4EB410151B1611001AA32F82110FD
:1010500001F47F4119B900200DA908558AE0204606
:1010600004EBD0714910A4EB410191B9611001AAC0
:1010700012F8211010290CD1601001A931F82000BC
:1010800000F47F40611042F8210002200DA90855AC
:1010900070E0204604EBD0714910A4EB410141B946
:1010A000611001AA12F8211019B900200DA90855E4
:1010B00060E0204604EBD0714910A4EB410121B15E
:1010C0004FF4807102E0D7E069E00121621001ABCA
:1010D00053F82220511A621043F8221002200DA961
:1010E000085547E0FFE76F4850F8240040F6B83154
:1010F000B1EBA00F3BDA204604EBD0714910A4EB12
:10110000410161B1611001AA32F8211001F47F415F
:10111000B1F5F85F03D100200DA908552AE020465B
:1011200004EBD0714910A4EB410149B9611001AA47
:1011300012F821101F2903D100200DA9085519E02C
:10114000204604EBD0714910A4EB410111B14FF4DA
:10115000807100E00121621001AB53F8222011449C
:10116000621043F8221001200DA9085502E000206A
:101170000DA9085548480078002810DD0DA8005D2D
:101180004949095D88420AD000200DA90855601020
:10119000424951F82000611001AA42F82100601C68
:1011A000C4B2062CFFF621AF00204049087000248D
:1011B0000BE00120A040284028B90DA8005D10B127
:1011C00001203A490870601CC4B2062CF1DB374894
:1011D000007830B93048007818B9002034490870D8
:1011E00002E00120324908703048007830B9002010
:1011F000294908702A4908700FB030BD002101202C
:1012000005F070FB00240AE001AA32F8242091B214
:1012100004F11302D0B205F065FB601CC4B2032CCC
:10122000F2DB0321012005F05DFB1B480078032859
:1012300007D100201D490870174908701849087027
:10124000DAE7002405E00DA8005D17490855601C89
:10125000C4B2062CF7DB002407E001A850F82400F4
:101260000E4941F82400601CC4B2032CF5DB0A4887
:101270000078401C0849087009480078042805DAFD
:1012800007480078401C0649087002E00020044925
:1012900008700120B0E700005D550020F4820120B5
:1012A0005E5500200C830120605500205C55002015
:1012B0005F55002010B54FF44C51572005F012FB3C
:1012C0000321582005F00EFB1C21502005F00AFBDD
:1012D000FC21552005F006FB48F28231052005F07F
:1012E00001FB8421062005F0FDFA0321012005F011
:1012F000F9FA10BD10B50021012005F0F3FA1C2108
:10130000502005F0EFFA0021512005F0EBFA4FF4E0
:101310004C51572005F0E6FA0321582005F0E2FA77
:101320000021592005F0DEFA00215A2005F0DAFAF2
:1013300000215B2005F0D6FAA121522005F0D2FA57
:101340004FF4C051182005F0CDFA2321022005F0FA
:10135000C9FA8421112005F0C5FA40F28721122034
:1013600005F0C0FA41F21551142005F0BBFA41F224
:101370001551152005F0B6FA42F228310C2005F07F
:10138000B1FA42F228310D2005F0ACFA42F22831D0
:101390000E2005F0A7FA40F202211B2005F0A2FA68
:1013A00040F202411C2005F09DFA1C21072005F0A7
:1013B00099FA8021032005F095FA0521192005F0FE
:1013C00091FA0021212005F08DFA0021202005F05E
:1013D00089FA0021272005F085FA00212C2005F04C
:1013E00081FA0021222005F07DFA00212D2005F050
:1013F00079FA0321012005F075FA022003490860FB
:10140000034904A00FF062F910BD00006C550020E4
:101410007828020825732046696E6973680A0000FF
:1014200070B52A48007800B3FFF790FD2748007890
:10143000D0B92748007818B10021012005F052FAF0
:101440001C21032005F04EFA00212D2005F04AFA58
:101450001F48007818B10321012005F043FAFFF777
:1014600029FF01201B49086070BD1B48006828BB8C
:10147000322005F013FA0546312005F00FFA044634
:1014800005F0100040B114B900F0B4F81BE0102CC6
:1014900019D100F09FF816E005F0080040B114B92A
:1014A00000F08AF80FE0082C0DD100F077F80AE080
:1014B00005F0040010B114B900F0CCF803E0042CDE
:1014C00001D100F0B9F800BFCEE700005C55002064
:1014D0005F550020585500206855002010B51D4963
:1014E0001DA00FF0F3F81F480078D8B1FFF72EFDCC
:1014F0001C480078A8B91C48007818B100210120C8
:1015000005F0F0F90021032005F0ECF910212D2061
:1015100005F0E8F91448007818B10021012005F021
:10152000E1F910BD1148006888B92E2005F0B6F920
:101530000446102C02D100F01BF808E0012C02D167
:1015400000F096F803E0022C01D100F065F800BF2E
:10155000E7E7000093280208257320456E74657242
:101560000A0000005C5500205F55002068550020EF
:1015700010B502A00FF0AAF810BD00004157393194
:1015800033362063656E74657220646F75626C65B6
:1015900020636C69636B200A000000000448006847
:1015A00028B10448006810B101200249C8607047A2
:1015B000585500200C5F00200448006828B10448FA
:1015C000006810B101200249C860704758550020DA
:1015D0000C5F002010B502A00FF078F810BD0000DD
:1015E000415739313336206C6566742070726573EB
:1015F00073200A0010B502A00FF068F810BD0000BB
:10160000415739313336206C6566742072656C65DC
:101610006173650A0000000010B502A00FF056F8D3
:1016200010BD0000415739313336206C6566742097
:10163000736C6970200A00000448006828B10448EF
:10164000006810B1012002494860704758550020D9
:101650000C5F00200448006828B10448006810B1FD
:101660000120024948607047585500200C5F002057
:1016700010B502A00FF02AF810BD00004157393113
:10168000333620726967687420736C6970200A00B1
:101690002DE9F8430024884600940646817998F89D
:1016A000060091461D46814288BF0846411C1A46E5
:1016B00068460AF0DDF900281CBF40F2ED30BDE8B5
:1016C000F8834146304601F0F5FBC01C012707288E
:1016D00062D2DFE800F03E2D25352D25040040467E
:1016E000009901F091FC00993046CC7101F0E2FBC9
:1016F000B0F1FF3F04D000284BD002284CD107E0C6
:1017000031464046009A0AF072FA0098C77143E0E9
:1017100041463046009A0AF06AFA0098C4713BE0EC
:1017200041463046009A00F053F80098C47133E007
:1017300041463046009A00F04BF80098C7712BE004
:1017400041463046009A00F043F80099F079C8719C
:1017500022E03046009901F057FC00984146C471E0
:1017600001F0A8FBB0F1FF3F03D090B1022813D1E4
:1017700007E031464046009A0AF039FA0098C471F1
:101780000AE041463046009A0AF031FA0098C771E3
:1017900002E0009809F0BDFF0021484605F01AFA62
:1017A0004946009801F030FC0099002914BF002D33
:1017B000BDE8F883EA8889796FF00303494203EBB7
:1017C000810111440839E9800094BDE8F8830000E4
:1017D0002DE9F84F0B46D0F800B0096800910025BC
:1017E000B0F804C09E88176891462C46B44598BF4F
:1017F000664681794FF0010E4FF000088C4532D8D3
:10180000A1EB0C01002201F1010ABAF1000F2ADD5F
:101810003EEA01011CBF4BF82C80012290F806C063
:10182000B0F804A0ACEB0A0C0CF1010C8C451AD9F1
:101830001FFA8AFAD0F800C09244521C4CF82A8051
:10184000B0F804A0D0F800C09244521C4CF82A8092
:1018500090F806C0B0F804A0891CACEB0A0C0CF19F
:10186000010C8C45E4D8B3F804C099798C4534D880
:10187000A1EB0C01002201F1010ABAF1000F2CDDED
:101880003EEA010103D01A6842F82C80012293F845
:1018900006C0B3F804A0ACEB0A0C0CF1010C8C45AB
:1018A0001BD900BF1FFA8AFAD3F800C09244521C19
:1018B0004CF82A80B3F804A0D3F800C09244521C1C
:1018C0004CF82A8093F806C0B3F804A0891CACEB4E
:1018D0000A0C0CF1010C8C45E4D881889A8891425D
:1018E000494638BF184601F08FFB002E48D00098BB
:1018F000ABF10403021F391F16F0010F0DD053F88E
:1019000004CF52F8040F1CEB000048EB080C401900
:101910004CEB040541F8040F44465FEA560C1BD01B
:10192000D3F804A050681AEB000048EB080A4519E8
:101930004D604AEB040053F808AF52F8085F1AEB09
:10194000050548EB0804281844EB080541F8080F82
:101950004446BCF1010CE3D195B157F82600401C78
:1019600047F8260007E0761C07EB86000168491C53
:10197000016057F8260018B9B9F80400B042F2D255
:10198000B9F8040057F8201000291CBF401CA9F822
:101990000400BDE8F88F00002DE9FF4FADF6144DAF
:1019A00082460E4691464FF000080020CDF8100CFC
:1019B0007EA00068CDF80C0C4FF400710DF60C20E1
:1019C000FEF75DFC4FF400710DF60C00FEF757FCBE
:1019D0004FF400710DF20C60FEF751FC4FF40071F2
:1019E0000DF20C40FEF74BFC4FF4007183A8FEF79C
:1019F00046FC741E81E01AF804106D4802F0CFFF17
:101A000007460A2F05DA07F13000C0B28DF8100C36
:101A10000FE00A2097FBF0F03030C0B28DF8100CC8
:101A20000A2097FBF0F100FB11703030C0B28DF846
:101A3000110C701E021B0DF60C0302210DF60C405A
:101A400010F0C5F90DF60C00FEF724FC02900DF520
:101A50004160FEF71FFC01900DF20C6000900DF646
:101A60000C020DF54160DDE9011310F025F90DF6CA
:101A70000C20FEF70FFC02900DF20C60FEF70AFC42
:101A800001900DF20C4000900DF60C220DF20C604E
:101A9000DDE901130FF097FF4FF400710DF60C20F4
:101AA000FEF7EDFB002506E00DF20C40405D0DF663
:101AB0000C2148556D1C0DF20C40FEF7EBFBA842C3
:101AC000F2D84FF400710DF60C00FEF7D8FB4FF47E
:101AD00000710DF20C60FEF7D2FB4FF400710DF2B5
:101AE0000C40FEF7CCFB0020CDF8100C35208DF813
:101AF0000C0C38208DF80D0C641E002CBFF67BAF4B
:101B000083A90DF60C2001F0F1FC83A8FEF7C2FBBF
:101B1000450803AA294683A809F0DDFF9DF80C00BB
:101B200030B99DF80D00802802DB4FF0010B01E079
:101B30004FF0000B002402E008F10108641CB442DD
:101B400005DA1AF804001A4909788842F4D0BBF182
:101B5000000F0ED0002407E003A9601C085C04EB12
:101B6000080109F80100641CA6EB0800A042F3DCA0
:101B70000CE0002406E003A8005D04EB080109F86E
:101B80000100641CA6EB0800A042F4DC00BF681E44
:101B9000054619F800000028F9D0681CDDF8201C63
:101BA00008600DF6244DBDE8F08F000035380000C8
:101BB0001C5500202DE9F041ADF5806D07468846A3
:101BC00016461D464FF4007180A8FEF758FB4FF4EF
:101BD00000716846FEF753FB6A464146384604F0FA
:101BE0001BFE80A9684604F089FD80A801F004FC72
:101BF0000848FEF74FFB2860002403E00548005D1D
:101C00003055641C2868A042F8DC0DF5806DBDE8F5
:101C1000F0810000C08201202DE9F047A0B0074606
:101C2000884615461E46DDF8A0904FF0000A01F0E8
:101C3000A3FA0AA808AB0CAA10A9009014A802F0F5
:101C4000DBFC0897CDF824801448069014480490D3
:101C50000CA804A910AB06AACDE90109009108A9B6
:101C600014A801F0EBFC8246DDE90E010844306067
:101C7000002408E00C98005D28550D98005D0E9931
:101C800021446854641C306800EBD071B4EB610FE0
:101C9000F0DB504620B0BDE8F0870000D87001208E
:101CA00010700120F0B5AFB006460F461546002073
:101CB0002E9020202D90112101A8FEF7E0FA2D484A
:101CC0000068009020210BA8FEF7D9FA142106A87D
:101CD000FEF7D5FA28213846FEF7D1FA212D03D098
:101CE000412D01D02FB0F0BD212D16D1E8B28DF8D5
:101CF0009000AC2124AA681C1154002404E0315D3A
:101D000024AA601C1154641CAC42F8DB2DAB0BAA56
:101D1000A91C24A800F0ECF815E0E8B28DF84C00FE
:101D2000AC2113AA681C1154002404E0315D13AAED
:101D3000601C1154641CAC42F8DB2DAB0BAAA91C2F
:101D400013A800F0D5F806A90BA809F06DF9002436
:101D500005E006A8015D601C0DF80010641C142C41
:101D6000F7DB2EAB3A461521684600F08FFF00BF27
:101D7000B8E7000070260208F0B5A3B007460E468B
:101D80000024002004900390029032214F48FEF777
:101D900076FA32214E48FEF772FA01F0EDF94B481F
:101DA00014904B48159018A808F0B0F9044614B1E7
:101DB000002023B0F0BD474805900020ADF81A0080
:101DC0004FF46060ADF8180043480790434809900D
:101DD00043480B9043480D9043480F90434811905F
:101DE000202008900A900E900C901090129005A957
:101DF00007A801F013FE044604B161E005AA07A993
:101E000002A801F0E7FE044604B154E007A90298D5
:101E100001F0F6FF044604B14DE005AA07A904A8A5
:101E200001F0D8FE044604B145E005AA07A903A8BD
:101E300001F038FF044604B138E020223946039807
:101E400002F01EF8044604B12BE005A807AB009091
:101E500002A807C801F05EFF044604B121E016ABFA
:101E60000021149A049801F03BFD044617AB0121B0
:101E7000159A049801F034FD04438CB9002503E061
:101E80001498405D70556D1C202DF9DB002505E090
:101E90001598415D05F1200031546D1C202DF7DBB4
:101EA00000BF05A903A801F003FD00BF05A904A810
:101EB00001F0DDFC00BF05A907A801F09AFC00BFF6
:101EC00018A808F059F9204673E70000787F012030
:101ED000AA7F012058710120B0250208D0250208F0
:101EE000F0250208102602083026020850260208B3
:101EF0002DE9F04104460D4616461F4601F03CF917
:101F00003B4632462946204604F0AAFB804640461E
:101F1000BDE8F08107B5ADF55A7D0020D690D5908B
:101F2000D490D39000BF40216BA8FEF7A8F91121EF
:101F300064A8FEF7A4F9F84801686391342156A813
:101F4000FEF79DF900205590DA9800788F90DC9983
:101F50008F980860DA9840788E90DC998E98486067
:101F60008F9840287BD007DC68B1012845D0022833
:101F700049D0202874D15DE0802872D0D02871D05B
:101F8000D128F7D139E28E9890BB9FEDE41B9FEDED
:101F9000E50B0EF0DDFB9FEDE51B9FEDE20B0EF078
:101FA000D7FB9FEDE41B9FEDDF0B0EF0D1FB9FED08
:101FB000E31B9FEDDC0B0EF0CBFB9FEDE21B9FEDD7
:101FC000D90B0EF0C5FB9FEDE11B9FEDD60B0EF07C
:101FD000BFFB9FEDE01B9FEDD30B0EF0B9FB9FED18
:101FE000DF1B9FEDD00B0EF0B3FB0420D59003E276
:101FF000FFE701200DF55D7D00BD8E98012801DD14
:102000000120F7E7F3E78E9890B90020D89009E017
:10201000D898801CDA99095CC2AAD8981154D8982B
:10202000401CD890D8982228F2DB2220D590DEE7F9
:102030000120DFE78E98B0B90020D89009E0D89849
:10204000801CDA99095CB2AAD8981154D898401C1F
:10205000D890D8984028F2DB4020D590C7E704E01C
:10206000FDE3C4E0C8E00120C4E78E9800287DD1DC
:10207000DA988078B190D598401CD590D598801C7E
:10208000DA99085CD390D598C01C54904FF48062C4
:102090000146D39BDA9808F001FAD490D49808B995
:1020A0000120A7E7D39808F095FF401CD599084474
:1020B000D590D499D5980844D5909FED981B9FED65
:1020C000990B0EF045FB9FED991B9FED960B0EF0C3
:1020D0003FFB9FED981B9FED930B0EF039FB9FED9F
:1020E000971B9FED900B0EF033FB9FED961B9FED22
:1020F0008D0B0EF02DFB9FED951B9FED8A0B0EF0C7
:1021000027FB9FED941B9FED870B0EF021FB9FEDAE
:10211000931B9FED840B0EF01BFB9FED921B9FED1D
:10212000810B0EF015FB9FED911B9FED7E0B0EF0CA
:102130000FFB9FED901B9FED7B0B0EF009FB9FEDBE
:102140008F1B9FED780B0EF003FB9FED8E1B9FED19
:10215000750B0EF0FDFA9FED8D1B9FED720B0EF0CF
:10216000F7FA9FED8C1B9FED6F0B00E03DE00EF04A
:10217000EFFA9FED8A1B9FED6B0B0EF0E9FAD598F5
:102180000830D590D598801CDA99085CB090D59825
:10219000401CD5900020D8900BE0D599D8980844E1
:1021A000801CDA99095C9FAAD8981154D898401CD1
:1021B000D890D8982128F0DBD5982130D5900020F0
:1021C000D8900BE0D599D8980844801CDA99095C1E
:1021D00095AAD8981154D898401CD890D89814280B
:1021E000F0DBD5981430D59006E1012002E78E98F7
:1021F00008B10120FEE6FFE08E98012801DD0120F4
:10220000F8E60020D89009E0D898801CDA99095C9B
:1022100093AAD8981154D898401CD890D8980328DD
:10222000F2DB8E98012803D1DA984079929001E090
:1022300000209290D598001DD590D598801CDA99F1
:10224000085CD390D598C01C5490FC220146D39BC7
:10225000DA9808F023F9D490D49808B90120C9E697
:10226000D39808F0B7FE401CD5990844D590D4996E
:10227000D5980844D590D598801CDA99085CD390FD
:10228000D598C01C5490FC220146D39BDA9808F0E4
:1022900005F9D490D49808B90120ABE6D39808F09A
:1022A00099FE401CD5990844D590D499D5980844F6
:1022B000D590D598801CDA99085CD390D598C01C2D
:1022C0005490FC220146D39BDA9808F0E7F8D490AA
:1022D000D49808B901208DE6D39808F07BFE401C05
:1022E000D5990844D590D499D5980844D590D598D7
:1022F000801CDA99085CD390D598C01C5490FC22BD
:102300000146D39BDA9808F0C9F8D490D49808B95C
:1023100001206FE646E0000074280208000000007B
:10232000000000000000000000003040000000003D
:102330000000F03F0000000000000040000000002E
:1023400000000840000000000000104000000000F5
:1023500000001440000000000000184000000000D1
:1023600000001C40000000000000204000000000B1
:102370000000224000000000000024400000000097
:10238000000026400000000000002840000000007F
:1023900000002A400000000000002C400000000067
:1023A00000002E40D39808F015FE401CD599084433
:1023B000D590D499D5980844D590D598801CDA99B1
:1023C000085CD390D598C01C54904FF480320146DD
:1023D000D39BDA9808F062F8D490D49808B9012019
:1023E00008E6D39808F0F6FD401CD5990844D5902E
:1023F000D499D5980844D5902DE38E98012801DD15
:102400000120F7E5D598801CDA99085CD390D5981F
:10241000C01C54904FF480320146D39BDA9808F0E8
:102420003DF8D490D49808B90120E3E5D39808F09A
:10243000D1FD401CD5990844D590D499D59808442D
:10244000D5908E9801287DD11FED4C1B1FED4B0BB5
:102450000EF07EF98DED3C0BD5980930DA99085CC9
:10246000C117549000EB117001115498A0EB0110AA
:102470003990FEF766F8CDE93A019DED3C0B53EC3F
:10248000102B9DED3A0B51EC100BFDF7E8FF1FED03
:10249000591B1FED5C0B419140900EF059F98DEDE9
:1024A000380BD5980930DA99085CC117539000EBC6
:1024B000117000113590FEF744F8CDE936019DED1D
:1024C000380B53EC102B9DED360B51EC100BFDF738
:1024D000C6FF1FED681B1FED6D0BCDE93C010EF033
:1024E00037F98DED340BD5980830DA99085CC117AF
:1024F000529000EB117001115298A0EB0110319035
:10250000FEF71FF8CDE932019DED340B53EC102B93
:102510009DED320B51EC100BFDF7A1FF1FED791B68
:102520001FED800BCDE938010EF012F98DED300B67
:10253000D5980830DA99085CC117519000EB1170FA
:10254000001100E083E22D90FDF7FBFFCDE92E01A5
:102550009DED300B53EC102B9DED2E0B51EC100B21
:10256000FDF77DFF1FED891B1FED920BCDE93401B7
:102570000EF0EEF88DED2C0BD598C01DDA99085CA5
:10258000C117509000EB117001115098A0EB011091
:102590002990FDF7D6FFCDE92A019DED2C0B53ECD8
:1025A000102B9DED2A0B51EC100BFDF758FF1FED82
:1025B000991B1FEDA40BCDE930010EF0C9F88DED8C
:1025C000280BD598C01DDA99085CC1174F9000EB15
:1025D000117000112590FDF7B4FFCDE926019DEDA6
:1025E000280B53EC102B9DED260B51EC100BFDF737
:1025F00036FF1FEDA81B1FEDB50BCDE92C010EF02A
:10260000A7F88DED240BD598801DDA99085CC117C9
:102610004E9000EB117001114E98A0EB011021902B
:10262000FDF78FFFCDE922019DED240B53EC102B1C
:102630009DED220B51EC100BFDF711FF1FEDB91BA7
:102640001FEDC80BCDE928010EF082F88DED200BAF
:10265000D598801DDA99085CC1174D9000EB117078
:1026600000111D90FDF76DFFCDE91E019DED200BC2
:1026700053EC102B9DED1E0B51EC100BFDF7EFFEF4
:102680001FEDC81B1FEDD90BCDE924010EF060F83A
:102690008DED1C0BD598401DDA99085CC1174C9044
:1026A00000EB117001114C98A0EB01101990FDF78F
:1026B00048FFCDE91A019DED1C0B53EC102B9DED4D
:1026C0001A0B51EC100BFDF7CAFE1FEDD81B1FEDC6
:1026D000EB0BCDE920010EF03BF88DED180BD598F2
:1026E000401DDA99085CC1174B9000EB1170001186
:1026F0001590FDF726FFCDE916019DED180B53EC63
:10270000102B9DED160B51EC100BFDF7A8FE1FEDE5
:10271000E71B1FEDFC0BCDE91C010EF019F88DED48
:10272000140BD598001DDA99085CC1174A9000EB8C
:10273000117001114A98A0EB01101190FDF701FFF3
:10274000CDE912019DED140B53EC102B9DED120BF6
:1027500051EC100BFDF783FE1FEDF81B9FEDFE0BF8
:10276000CDE918010DF0F4FF8DED100BD598001D8B
:10277000DA99085CC117499000EB117000110D90B7
:10278000FDF7DFFECDE90E019DED100B53EC102B94
:102790009DED0E0B51EC100BFDF761FE9FEDF01B54
:1027A0009FEDED0BCDE914010DF0D2FF8DED0C0B7B
:1027B000D598C01CDA99085CC117489000EB1170DD
:1027C00001114898A0EB01100990FDF7BAFECDE980
:1027D0000A019DED0C0B53EC102B9DED0A0B51ECF7
:1027E000100BFDF73CFE9FEDE01B9FEDDB0BCDE9F1
:1027F00010010DF0ADFF8DED080BD598C01CDA99D6
:10280000085CC117479000EB117000110590FDF7AF
:1028100098FECDE906019DED080B53EC102B9DEDC4
:10282000060B51EC100BFDF71AFE9FEDD11B9FED2F
:10283000CA0BCDE90C010DF08BFF8DED040BD59883
:10284000801CDA99085CC117469000EB11700111E9
:102850004698A0EB01100190FDF773FE00E0F8E050
:10286000CDE902019DED040B53EC102B9DED020B05
:1028700051EC100BFDF7F3FD9FEDBF1B9FEDB60B69
:10288000CDE908010DF064FF8DED040BD598801C97
:10289000DA99085CC117459000EB117000110190A6
:1028A000FDF74FFECDE902019DED040B53EC102B1B
:1028B0009DED020B51EC100BFDF7D1FDCDE90601AA
:1028C0009DED080B53EC102B9DED060B51EC100BFE
:1028D000FDF71EFDCDE90A019DED0C0B53EC102B0D
:1028E0009DED0A0B51EC100BFDF712FDCDE90E0129
:1028F0009DED100B53EC102B9DED0E0B51EC100BBE
:10290000FDF706FDCDE912019DED140B53EC102BE4
:102910009DED120B51EC100BFDF7FAFCCDE9160101
:102920009DED180B53EC102B9DED160B51EC100B7D
:10293000FDF7EEFCCDE91A019DED1C0B53EC102BBD
:102940009DED1A0B51EC100BFDF7E2FCCDE91E01D9
:102950009DED200B53EC102B9DED1E0B51EC100B3D
:10296000FDF7D6FCCDE922019DED240B53EC102B95
:102970009DED220B51EC100BFDF7CAFCCDE92601B1
:102980009DED280B53EC102B9DED260B51EC100BFD
:10299000FDF7BEFCCDE92A019DED2C0B53EC102B6D
:1029A0009DED2A0B51EC100BFDF7B2FCCDE92E0189
:1029B0009DED300B53EC102B9DED2E0B51EC100BBD
:1029C000FDF7A6FCCDE932019DED340B53EC102B45
:1029D0009DED320B51EC100BFDF79AFCCDE9360161
:1029E0009DED380B53EC102B9DED360B51EC100B7D
:1029F000FDF78EFCCDE93A019DED3C0B53EC102B1D
:102A00009DED3A0B51EC100BFDF782FCCDE93E0138
:102A10009DED400B53EC102B9DED3E0B51EC100B3C
:102A2000FDF776FC439142909DED420B51EC100B6B
:102A3000FDF7ACFD91919090D5980830D59000238A
:102A400090999198C91A984102DA012007E400BFD1
:102A500001E0012021E400BFD598801CDA99085CD0
:102A60008D90DC998D988860D598C01CDA99085CA7
:102A70008C90DC998C98C860D598001DD690002069
:102A8000D8901DE00020D79010E0D799D698014447
:102A90002222D89802FB0011DA98415CD798C0F145
:102AA0001F0083AA1154D798401CD790D79820288C
:102AB000EBDB202183A8FDF7E2FBD898401CD890DF
:102AC0008C99D8988842DDDB22228C99D69802FB1B
:102AD0000100D690D699DA98405C8B90DC998B985F
:102AE0000861D698401CD6900020D8909CE0002029
:102AF000D79010E0D799D69801443C22D89802FB91
:102B00000011DA98415CD798C0F11F007BAA1154DC
:102B1000D798401CD790D7982028EBDB6BAA2021B0
:102B20007BA803F079FED89800EB8011DC9800F5C3
:102B3000D270084440226BA95490FDF779FB002124
:102B4000D89800EB8012DC9800F5D270104480F821
:102B5000401020217BA813E000000000000030405E
:102B600000000000000028400000000000002A4093
:102B70000000000000002C400000000000002E407B
:102B8000FDF77DFB40216BA8FDF779FB0020D79076
:102B900011E0D69820303C22D89902FB0101D79849
:102BA0000144DA98415CD798C0F1070069AA115432
:102BB000D798401CD790D7980828EADB69A800F07E
:102BC0008BFADC9A02F58662D89B02EBC30203C241
:102BD0000020D79010E0D69828303C22D89902FBEC
:102BE0000101D7980144DA98415CD798401C63AA48
:102BF0001154D798401CD790D7981428EBDB55ABCD
:102C000056AA152163A800F041F8D89800EB80017E
:102C1000DC98143000EBC100549056A9559AFDF78A
:102C200007FBD898401CD8908B99D8988842FFF61B
:102C30005EAF3C228B99D69802FB0100D690DB99BF
:102C4000D698884201D1002000E70120FEE6014627
:102C5000302901DAFF207047392902DCA1F1300068
:102C6000F9E7412901DAFF20F5E7462902DCA1F165
:102C70003700F0E7612901DAFF20ECE7662902DC82
:102C8000A1F15700E7E7FF20E5E700002DE9F0415B
:102C9000ADF58C6D0646884617461D464FF400710B
:102CA00081A8FDF7ECFA4FF4007101A8FDF7E7FAEF
:102CB000202000906B460DF2244241463046FFF73B
:102CC00017F96B460DF2044220210DF22440FFF764
:102CD0000FF9002404E0305D0DF244410855641CF6
:102CE000152CF8DB002408E00DF20440015D04F12E
:102CF00015000DF244421154641C042CF4DB01AAAB
:102D000019210DF2444003F087FD81A901A803F0C9
:102D1000F5FC81A800F070FB0848FDF7BBFA2860BD
:102D2000002403E00548005D3855641C2868A04273
:102D3000F8DC0DF58C6DBDE8F0810000C08201204B
:102D400070B485880468012D02BF2368002B01231D
:102D500012D0AB006FF0030606EB85054FF07F4CF9
:102D600054F8054014EA0C0F06D1BCF1000F1CBF4B
:102D70004FEA1C2C5B1EF5D1DC174FF0000C03EB67
:102D800094740CE00568CCF1000603EB860655F858
:102D90002C500E442DBA46F8045C0CF1010CBCEB2F
:102DA000A40FEFDB13F0030F1FD0006803F003053F
:102DB00003F0030450F82C0013F0010C03D00D4471
:102DC00005F8010C000AA4EB0C0CBCF1000F0CDDA3
:102DD00001EB0C04ACF1020C04F8010C000A04F83D
:102DE000020C000ABCF1000FF2DC002A18BF1360CD
:102DF00070BC7047002812BF002941F2B8407047EC
:102E0000F8B50F46818800241646012905D10268CD
:102E10001268002A08BF012312D08B006FF003054F
:102E2000026805EB81014FF07F4C555815EA0C0FF5
:102E300006D1BCF1000F1CBF4FEA1C2C5B1EF5D164
:102E40000093B342C4BF41F2B540F8BDB919C91AE5
:102E50006A46FFF775FF0098311A00290EDD781ECB
:102E600011F0010F18BF00F8014F0099711A4910B5
:102E700004D0447000F8024F491EFAD10020F8BD7A
:102E80000020704702480349086000207047000096
:102E900058560020E000002070B504460D46044955
:102EA000D1F8180240210AF071F9002070BD00002D
:102EB0005856002070B490F907C091F90720944546
:102EC0003FD183888C880122A34204BF006809682F
:102ED00003D9BCF1000F27D022E003D2BCF1000FD0
:102EE0002BD027E09D1AA61A50F8255051F82660DD
:102EF000B54204D1934224BF521C9342F2D2551ED4
:102F0000AB4202BF002070BC70479B1AA21A50F857
:102F1000230051F82210884209D9BCF1000F03D0D8
:102F200070BC6FF00100704770BC02207047BCF1AC
:102F3000000F02D070BC0120704770BC4FF0FF3012
:102F40007047BCF1010F05D1002A02BF6FF00200EB
:102F500070BC7047032070BC70472DE9FC410646E9
:102F6000354600244CE005F0C008B8F1000F09D048
:102F7000B8F1400F0AD0B8F1800F0BD0B8F1C00FF4
:102F800010D10BE0002001A908550CE00F2001A989
:102F9000085508E0F02001A9085504E0FF2001A928
:102FA000085500E000BF00BFA806050E05F0C007E9
:102FB00037B1402F08D0802F0AD0C02F10D10BE09E
:102FC00000200DF804000CE00F200DF8040008E0CC
:102FD000F0200DF8040004E0FF200DF8040000E0EC
:102FE00000BF00BFA806050E01A9085D012106F07B
:102FF0009DFF1DF80400012106F098FF601CC4B27B
:10300000022CB0DBBDE8FC8170B483888A7900248F
:103010009A4209D202F1010C9C4537BF41F2B540FA
:1030200041F2B54470BC7047C279CA7100228B80EE
:10303000002B09DDD0F800C00D685CF822C045F80F
:1030400022C0521C9342F5DC8879801A431C002B65
:1030500026DD01234FF0000C33EA0000634605D063
:10306000D1F800C04CF822304FF0010C8D79AD1A28
:103070006D1C854214DD00BF0D6802EB0C060CF1DF
:10308000010C45F826300D6802EB0C06801C45F853
:1030900026308D790CF1010CAD1A6D1C8542EBDCEC
:1030A000204670BC704782880368012A01BF1868F7
:1030B00000280120704750016FF0030C0CEB8202D6
:1030C0004FF000419A5831EA02031EBF0029490817
:1030D000401EF8D1704700002DE9F0412DED0C8B1A
:1030E00084B0074600210D460E4600200090019056
:1030F000029003906A460821384603F08DFB0024B5
:103100002CE02046FDF71DFA41EC1D0BB0EE4D1AE8
:10311000F0EE6D1A9FED160B0DF01AFBB0EE40BAF3
:10312000F0EE60BAC4F10F011DF80100FFF78FFD4A
:103130008046FDF706FA53EC1B2BFDF790F941ECA6
:10314000190B28463146FDF70DFA53EC192BFDF704
:10315000DFF8FDF71BFA05460E46641C102CD0DB89
:103160002846314604B0BDEC0C8BBDE8F081000070
:1031700000000000000030400121080306F07ABF83
:103180002DE9F04FADF5017D91460D4680461E4676
:10319000B0225A4950A8FDF74BF80024202E1EBF3C
:1031A0006FF003000DF5017DBDE8F08F05F1190703
:1031B00017F00F0F04D007F00F00C0F110042744E0
:1031C00028BA049030BA05902A4641466E4606A8B1
:1031D000FDF72EF8802170194FF0000801766CB1D0
:1031E000183014F0010F18BF00F8018F610805D0E6
:1031F00080F8018000F8028F491EF9D1CDF80080D7
:10320000CDF80480CDF80C800024CDF808800DF5B1
:10321000A07B6E461CADCDF87080CDF87480CDF8E3
:103220007880CDF87C80B8EB171F38BF0DF5F87AA1
:1032300017D200205FEA041101EB800255F820301C
:10324000B25812BA5A404AF82020401C0428F3D33E
:103250005A4629467CA8FDF7C5FB641CB4EB171F32
:10326000E7D39DF803000024401C8DF803000DF502
:10327000A07B6E460DF1700A20ADCDF88080CDF8B0
:103280008480CDF88880CDF88C80B8EB171F38BFCC
:103290000DF5F87817D200205FEA041101EB8002E7
:1032A00055F82030B25812BA5A4048F82020401C35
:1032B0000428F3D35A4629467CA8FDF793FB641CE7
:1032C000B4EB171FE7D324A91CA8FDF715FD24AA0A
:1032D00049460AF11000FDF785FB99E80F0020AC84
:1032E0000FC424AA09F110010AF11000FDF77AFBBE
:1032F0000DF5017D0020BDE8F08F0000503F020871
:103300002DE9F04188B016468846044600256F46F0
:10331000E068401CE0600AD1A068401CA06006D1B3
:103320006068401C606002D12068401C206007EB90
:10333000051142462046FDF755FB6D1C022DE7DBCB
:103340000098316848402061019871684840606188
:103350000298B1684840A0610398F1684840E06174
:103360000498316948402060059871694840606060
:103370000698B1694840A0600798F1694840E0604C
:1033800008B0BDE8F08170B503460C46002100206E
:1033900010E0165C451C555D46EA0526851C555D0A
:1033A00046EA0546C51C555D46EA056543F82150C9
:1033B000491C001DA142ECDB70BD70B503461446EC
:1033C0000020002215E011F820509D5431F82050C3
:1033D000C5F30726551C5E5551F82050C5F3074626
:1033E000951C5E5551F820502D0ED61C9D55401C45
:1033F000121DA042E7DB70BD2DE9F043ADF2044D94
:10340000064600274FF4007181A8FCF738FF4FF4FF
:103410000072304901A8FCF70BFF4FF400712E48F1
:10342000FCF72DFF002403E0305D81A90855641CE2
:103430003046FCF72FFFA042F6D800BF81A8FCF76A
:1034400029FF804601A8FCF725FF81464B4601AACB
:10345000414681A80EF05AFB05464FF4007181A841
:10346000FCF70DFF002404E01C48005D81A908550D
:10347000641CAC42F8DB022D09D118484178007871
:10348000303800EB800001EB4000A0F13007012D47
:1034900003D112480078A0F130074FF4007101A861
:1034A000FCF7EDFE0EA101A8FCF709FF022DC5DC1B
:1034B0003A2FC3DC0B48C15D07480B4A12688154A0
:1034C00007F098FD0020084908600DF2044DBDE8A2
:1034D000F083000074260208C0820120C080012011
:1034E000353800001C55002018550020F0B5ADF20D
:1034F000046D05460E464FF400710DF20440FCF7D2
:10350000BEFE4FF4007181A8FCF7B9FE4FF40071C4
:1035100001A8FCF7B4FE002400BF0DF204412846C8
:1035200000F031F82846FCF7B5FE0746791E685CC6
:1035300000EBD0714910A0EB41013031CBB22146F4
:10354000641C81AA53540DF204412846FCF7B7FECF
:1035500028783028E1D1002081A9085581A807F0FA
:1035600049FD01A981A80EF09DFC002403E001A8FB
:10357000005D3055641C01A8FCF78CFEA042F6D813
:103580000DF2046DF0BD2DE9F04706460D4630788A
:10359000322809DA3046FCF77DFE012804D13020BC
:1035A00028700020E87346E03046FCF773FE814641
:1035B00000273178A1F1300000EBD0714910A0EB69
:1035C000410A307831280ADD3178A1F1300000EB72
:1035D000D07149103031CBB239467F1C6B544FF05B
:1035E000010824E016F808000AEB8A0100EB41000C
:1035F000A0F13004022C0ADA302238467F1C2A540B
:10360000204604EBD0714910A4EB410A0DE020469E
:1036100004EBD07149103031CBB239467F1C6B546A
:1036200004EBD0714910A4EB410A08F10108C84528
:10363000D8DB0020E855BDE8F08700002DE9F04F09
:10364000A3B0044688461646DDE92D7ADDF8B09031
:10365000002500201790079006900590D8F800B03C
:10366000D8F804001790331D32685846179902F0B5
:10367000F7FF05461DB1284623B0BDE8F08F18A816
:1036800006F044FD05460DB10020F5E73E480890E0
:103690000020ADF826004FF46060ADF824002068EB
:1036A0000A90A0680C9060680E90E0681090206905
:1036B000129060691490A0690B90E0690D90606AA7
:1036C0001190206A0F90A06A1390E06A159008A9E3
:1036D0000AA800F0A3F9054605B150E008AA0AA916
:1036E00006A800F0DFFA054605B143E02022514666
:1036F000069800F0C5FB054605B136E008AA0AA900
:1037000005A800F03DFC054605B12EE00AA803908F
:103710000698029018A8049008A8009002ABD6E979
:103720000001059A00F06AFC054605B118E009F1B0
:103730000402D9F80010069800F030F9054607F1A8
:10374000080300213A68059800F0C8FB054607F118
:103750000C0301217A68059800F0C0FB054300BF07
:1037600008A905A800F09EFB00BF08A906A800F064
:103770009FF800BF08A907A800F079F800BF18A8B3
:1037800006F0FAFC284677E75871012030B50400AE
:103790000D464FF0000018BF002D27D021680029EA
:1037A0001CBFA168002921D0296800291FBF6A68B1
:1037B000002AAA68002A19D0227B2A73227B12F0E1
:1037C000020F18BF30BD2068FFF71EFC002818BF8D
:1037D00030BD69686068FFF717FC002818BF30BD6E
:1037E000A968A068BDE83040FFF70EBC41F2544024
:1037F00030BD002812BF002941F25440704730B557
:103800000446006B0D4600281FBF0168002981682F
:10381000002904BF41F2534030BD294608F049F960
:10382000206B2946083008F044F9206BC16819B1B3
:103830000C30294608F03DF9206B416819B1001D94
:10384000294608F036F9206B016919B11030294674
:1038500008F02FF9206B416919B11430294608F09E
:1038600028F9E8881838E8800020206330BD002857
:1038700012BF002941F25440704730B50446006839
:103880000D46002804BF41F2534030BD083008F017
:1038900010F920682946001D08F00BF92946206818
:1038A00008F007F9E8881038E8800020206030BD73
:1038B000002812BF002941F25440704730B5054638
:1038C00000680C46002804BF41F2564030BD08F0A5
:1038D000F0F8E088001FE0800020286030BD000084
:1038E00038B5144600221D460092002818BF002C4F
:1038F00020D0002D1CBF0268002A1BD04368002B7B
:103900001CBF8368002B15D0927992002A60A1B168
:10391000012917D0022918BF41F2544017D01E4A7E
:10392000012191609168116800914B1CA4F1010183
:1039300019D111E041F2544038BD00682146FFF72B
:1039400059FAECE740682146FFF754FAE7E7806848
:103950002146FFF74FFAE2E7009B136012680092DE
:10396000002A08BF38BD227802F05F0222702B685F
:1039700082F055025B1E04EB63031A702A6894F808
:1039800000C0535C4CF0AA0C83EA0C035354296822
:103990004910296038BD00000030024038B50D469E
:1039A000002114460091002819BF002D002C41F27F
:1039B000544038BD016889798A0022600068294630
:1039C000FFF718FA144A012191609168116800917B
:1039D0004B1CA5F1010106D1009B136012680092F7
:1039E000002A08BF38BD2A7802F05F022A702368D7
:1039F00082F055025B1E05EB63031A70226895F88E
:103A000000C0535C4CF0AA0C83EA0C0353542168A9
:103A10004910216038BD000000300240F0B50E466C
:103A2000040014BF002E41F2544500F0CB80206901
:103A300000281CBF6069002839DD442837DC216874
:103A4000002934D06168002931DB44292FDCA169C9
:103A500000291CBFE169002929DD442927DC3168E0
:103A600029B3C01C20F00300B28800EB40006023A3
:103A700003EB4000904288BF40F2ED357ED8F088DD
:103A800008442063F0881830F080206B002804BFC1
:103A900040F2ED30F0BD61690830C91C890832463A
:103AA00007F0E6FF05004FF0000703D086E041F283
:103AB000534587E060693246C01C8108206B07F0DF
:103AC000D7FF050075D1206B0268D4E900010AF028
:103AD000ABF9206B8268D4E904010AF0A5F9E0692A
:103AE0003246C01C8108206B0C3007F0C1FF050076
:103AF0005BD1206BC268D4E906010AF095F9206B0E
:103B00004760206B0761206B4761A06898B1E0684F
:103B1000002810DD44280EDAC01C8108206B3246D4
:103B2000001D07F0A5FF05003AD1206B4268D4E9DB
:103B300002010AF079F9206A00281CBF606A002897
:103B400040DD44283EDAA16A00291CBFE16A002951
:103B500038DD442936DAC01C8108206B324610302B
:103B600007F086FF050016D1206B0269D4E9080131
:103B70000AF05AF9E06AC01C810800E022E0206BDC
:103B80003246143007F074FF0500206B1CD0103053
:103B9000314607F08EFF206B3146001D07F089FF8C
:103BA000206B31460C3007F084FF3146206B07F064
:103BB00080FF206B3146083007F07BFFF088183813
:103BC000F08027632846F0BD4269D4E90A010AF073
:103BD0002BF9F7E7002919BF002A002841F25440C9
:103BE000704770B50446086B15460E4600281FBF87
:103BF0002A68002A8168002904BF41F2534070BD41
:103C0000E8888979342301EB410103EB8101AB881A
:103C10000144994284BF40F2ED3070BD10442060F1
:103C2000E8882A461030E880306B80688179206807
:103C300007F01EFFD8B9306B2A468068817920686A
:103C4000001D07F015FF70B9306B2A468068817936
:103C50002068083007F00CFF002820680FD0001DF6
:103C6000294607F026FF2946206807F022FFE8884A
:103C70001038E8800020206040F2ED3070BD006810
:103C8000002102F0A7FF20680021406802F0A2FF97
:103C900020680121806802F09DFF216801200873DF
:103CA000002070BD002919BF002A002841F25440AD
:103CB000704730B50446086B00281FBF1368002BFF
:103CC000D0F80CC0BCF1000F04BF41F2534030BD2E
:103CD000D0889CF806C0102505EB8C0C9588844490
:103CE000AC450CD81818206009D0D088001DD080B1
:103CF000086BC0688179206807F0BAFE10B140F205
:103D0000ED3030BD20680021006802F063FF002024
:103D100030BD00002DE9F04186B014460C9A1F46D4
:103D20000E465FEA000818BF002E29D0002C1CBFE9
:103D3000002F002A24D0386B002802BF41F25340E4
:103D400006B0BDE8F0818368002B19BF0068002829
:103D500041F2574006B008BFBDE8F0813068002846
:103D600019BF0068002841F2564006B008BFBDE800
:103D7000F08102A9184604F04FFF050005D011E0BC
:103D800006B041F25440BDE8F08102A800903B46E5
:103D900022464146306805F057FD050006D002A8CE
:103DA00005F033FC06B02846BDE8F081214602AAA2
:103DB000084605F007FF054602A805F026FC002D81
:103DC000F0D1207B10F0020F18BF41F25845E9D125
:103DD0000A48012121738160816801684A1C02D16F
:103DE0000160006828B1D4E900012160A168C4E93C
:103DF000011006B00020BDE8F08100000030024054
:103E000078B504004FF000000E46009014BF002E5D
:103E100041F254452FD0306B00281FBF0269002AA1
:103E20004069002808BF41F2534524D0104621685C
:103E3000FFF7EAF805001ED1306B61684069FFF7B3
:103E4000E3F8050017D10121A06802F0C3FE0B487A
:103E500001218160826802680092521C04D1009A9C
:103E600002600068009028B1D4E900022260A268D4
:103E7000C4E901202173284678BD000000300240CB
:103E800094460B46002812BF002B41F25440704765
:103E90000268002A04BF41F2564070476146184646
:103EA00009F0C2BF002812BF002941F254407047F8
:103EB00030B5044600680D46002804BF41F2544066
:103EC00030BD07F0F6FD20682946001D07F0F1FD22
:103ED000E8880838E8800020206030BD38B51446F6
:103EE00000221D460092002818BF002C1AD0002D79
:103EF0001FBF0268002A4368002B13D092799200FA
:103F00002A6091B1012918BF41F2544012D01B4AD6
:103F1000012191609168116800914B1CA4F101018D
:103F200014D10CE041F2544038BD00682146FEF740
:103F300061FFECE740682146FEF75CFFE7E7009B86
:103F4000136012680092002A08BF38BD207800F084
:103F50005F0020702A6880F05500521E04EB620258
:103F6000107028682378425C43F0AA035A404254F8
:103F700028684010286041F2544038BD00300240AB
:103F8000002919BF002A002841F25440704770B53B
:103F90000546086B14460E4600281FBF21680029FD
:103FA000C268002A04BF41F2534070BDE088927994
:103FB000202303EBC202A38802449A421BD8084480
:103FC0002860E08822460830E080306BC068817944
:103FD000286807F04DFD70B9306B2246C0688179C2
:103FE0002868001D07F044FD002808BF70BD214669
:103FF000286807F05EFD40F2ED3070BD2DE9FF4FFF
:1040000097B00020019009900390029004900690D0
:1040100017981D4600281CBF199800283DD0002D78
:104020001CBF2498002838D0686800281FBF296862
:104030000029A968002934D02499096800291CBFE7
:10404000006B00282DD0C16800291CBF0269002A1E
:104050002BD08268002A1CBF0068002825D0249835
:104060009279C08802EB420200EBC202887902EB2F
:10407000001101F19C02249989888A4288BF40F28C
:10408000ED3B00F2F880411C03A8249A07F0F0FCF5
:104090005FEA000B40F0EF800BE041F2544B00F080
:1040A000EAB841F2534B00F0E6B841F2574B00F04A
:1040B000E2B86868249A006BC068817902A807F0AA
:1040C000D7FC5FEA000B6FF003077DD1696806A893
:1040D000249AFFF77FFD5FEA000B76D1696804A898
:1040E000249AFFF777FD5FEA000B6DD169680498A9
:1040F000FFF786FE68680CA9249A006B806804F0BC
:104100008BFD5FEA000B7DD16868039C006BC06883
:104110000B90D5F80880FEF7C6FF06461F30C11782
:1041200000EBD160C0F3471AC0F34F194FEA890082
:10413000139006F01F00C0F120004FF0FF3121FA6C
:1041400000F01190A17940468A4502D941F2B54B61
:1041500076E00021E171A4F8049006F01F0B2268BC
:10416000139B06F02DF80246A088401EBBF1000FFD
:1041700007D02168119B51F820C00CEA030341F8D5
:104180002030A088012808D9216807EB8003C9588E
:10419000002904BF401EA080F3D00AB193464FE02F
:1041A00020460B99FEF786FE0028CBDA039881881B
:1041B000012903D1016809680029A5D00CA9009143
:1041C0006B68069A049901E041E044E005F03CFB8D
:1041D0005FEA000B34D106990CAA084605F0F2FC00
:1041E0005FEA000B2CD106980068C079012812D133
:1041F00069680698249B096B0068C9680246FDF748
:1042000047FA00E01FE05FEA000B19D1069800684A
:10421000C0790128ECD06868006BC1680698006816
:10422000FEF748FE00280698006828DB6968024609
:10423000249B096BC96807F065FC5FEA000BEAD0B4
:104240000CA805F0E2F904A82499FFF710FB06A8D2
:104250002499FFF70CFB03992498002918BF002824
:1042600009D08979C288494207EB81011144083994
:10427000C180002003901BB05846BDE8F08F8188B4
:10428000012904D10068006800283FF43DAF0CA864
:1042900005F0BBF904A82499FFF7E9FA68680399C7
:1042A000249B006BC268084604F07BFB5FEA000BAE
:1042B000CDD1069802990068FEF7A6FE06A82499BB
:1042C000FFF7D5FA6868249A006BC068817901A865
:1042D00007F0CEFB5FEA000B40F07B816868249A10
:1042E000006BC068817909A807F0C2FB5FEA000B88
:1042F00040F05F8168680CA9249A006BC06804F0E4
:104300008BFC5FEA000B40F04481029A0CAB104634
:104310000D9905F093F9044628680D990CAB0068D7
:10432000019A05F08BF9039A04430CAB10460D99E2
:1043300005F084F950EA040B40F02881DDE9010121
:104340000CAB099A05F07AF95FEA000B40F01E8188
:104350006868006BC368B3F804C0BCF1010F05D1F5
:1043600018680068002808BF01210ED01A6807EB02
:104370008C044FEA4C1112594FF0004030EA02040D
:104380001EBF00284008491EF8D11898B1EBC00F95
:104390007DDABCF1010F05D118680068002808BF5C
:1043A00001220ED0196807EB8C034FEA4C12C95852
:1043B0004FF0004030EA01031EBF00284008521EA3
:1043C000F8D1D01DC11700EB5170C01018900146F4
:1043D000019A179809F028FD69680198096BCB6864
:1043E000B3F804C0BCF1010F05D1196809680029B0
:1043F00008BF01210FD04FEA4C111B6807EB8C0C52
:104400004FF0004253F80C3032EA030C1EBF002A72
:104410005208491EF8D1189AD1EBC20160D0202968
:104420005ED28288012A45D000234FF0010C3CEA7D
:1044300002020DD00368C1F12006D3F800C05C6809
:104440002CFA01FCB4404CEA040CC3F800C0012370
:10445000B0F804C0ACF1010C944584BF4FF0040CDB
:10446000C1F1200426D906680CEB830956F8238095
:1044700056F8099028FA01F809FA04F948EA0908F7
:1044800046F8238006685B1C56F8238000E022E093
:104490000CEB830928FA01F856F8099009FA04F997
:1044A00048EA090846F8238086885B1C921C761E21
:1044B0009642D8D88288036807EB820253F802C07C
:1044C0003CFA01FC43F802C0818809D101291CBFD4
:1044D000491E818004E00146019A179809F0A4FC66
:1044E000019A0CAB10460D9905F0A8F85FEA000B95
:1044F0004CD16A680198249E126B04460999D2F83F
:104500000C8033462246FDF7C3F85FEA000B04D067
:10451000A179A088491C884238D141462046FEF73F
:10452000C9FC002805DB224633464146104607F009
:10453000E9FAA088A179884202D941F2B54B25E079
:10454000039A0CAB1046019905F078F803990CAA70
:10455000084604F034FB02990CAA084604F02FFB2D
:1045600003988188012904D10068006800283FF47D
:10457000CBAD199801680298FEF746FD04461998DC
:1045800041680398FEF740FD40EA040B0CA805F0D3
:104590003CF802992498002918BF002809D089798D
:1045A000C288494207EB810111440839C1800020CB
:1045B000029001992498002918BF002809D0897910
:1045C000C288494207EB810111440839C1800020AB
:1045D000019009992498002918BF00283FF43BAEA8
:1045E0008979C288494207EB810111440839C180A9
:1045F000002009902FE6000030B5039C0D4D0560AA
:104600000D4D85600D4D45600D4DC5600D4D05612D
:104610000D4D456120258561C56145620562856254
:10462000C5620A4D0D600A4D4D600A4D15600A4D78
:10463000556030BDB0250208D0250208F0250208DB
:10464000102602083026020850260208787F012032
:10465000AA7F0120DC7F01200E80012010B50120FF
:1046600000F026FB10BD10B5042000F021FB10BDAA
:1046700010B5002201B909E0012901D10A0205E0C3
:10468000022901D10A0201E04FF44072114B1B686C
:1046900023F440730F4C236023461B6813432360AD
:1046A00023461B6823F0F803236023461B68F82485
:1046B00094FAA4F4B4FA84F400FA04F444F0020482
:1046C0002343044C236023461B6843F48033236058
:1046D00010BD0000103C024010B5024600200A4BFD
:1046E0001B6823F44073084C236023461B68034374
:1046F000236023461B6843F00403236023461B68A2
:1047000043F48033236010BD103C0240074A126816
:1047100022F44072054B1A601A4612681A601A4653
:10472000126842F001021A6001707047103C0240AA
:1047300010B50949096821F44071074C21602146F0
:10474000096841F4407121602146096841F0010186
:1047500021600260436010BD103C0240084A1268AC
:1047600022F44072064B1A601A46126842F48072B4
:104770001A601A46126842F001021A6001807047FE
:10478000103C0240084A126822F44072064B1A603C
:104790001A46126842F400721A601A46126842F011
:1047A00001021A6001607047103C02402148006815
:1047B00000F0100028B12048C06940F010001E49E8
:1047C000C8611C48006800F0200028B11A48C06980
:1047D00040F008001849C8611648006800F0400021
:1047E00028B11548C06940F004001349C861114858
:1047F000006800F0800028B10F48C06940F0020056
:104800000D49C8610B48006800F4807028B10A485F
:10481000C06940F001000849C8610648006800F01E
:10482000020028B10448C06940F020000249C86174
:10483000704700000C3C0240305E002070B504461A
:10484000002500201049C86100F04AFB054609E038
:10485000601C38B124B100F043FB401BA04201D9D9
:10486000032070BD0948006800F480300028EFD1B3
:104870000648006800F4F97018B1FFF797FF0120AF
:10488000EFE70020EDE70000305E00200C3C024026
:1048900030B48288012A05D101680968002904BF63
:1048A00030BC70470021012A12D0521E4FF0040C78
:1048B00003680CEB810553F821405D5D640844EA10
:1048C000C57443F82140491C521EF1D18188491E0C
:1048D000026852F821305B0842F8213081880129B2
:1048E0009CBF30BC7047002B04BF491E818030BC88
:1048F00070472DE9F04782460C4615461E46089F34
:1049000005F11C02D1B204F11C02D0B206F024FF62
:104910003946304606F030FF06F03EFF4FF0000803
:1049200016E04FF000090BE00121504605F0FEFAB9
:104930000121504605F0FAFA09F1010000F0FF09E3
:10494000281B401C4845EFDC08F1010000F0FF087F
:10495000B81B401C4045E4DCBDE8F08770B5064656
:104960007721002006F0F8FE7F21002006F004FFEA
:1049700006F012FF00240FE0002509E00121304677
:1049800005F0D4FA0121304605F0D0FA681CC5B212
:10499000782DF3DB601CC4B2802CEDDB70BD2DE9FB
:1049A000F04105460E460027002405E0285DB04290
:1049B00001D1274605E0641C2846FBF76BFCA042AA
:1049C000F4D800BF3846BDE8F081000000B50548C6
:1049D00006F068FE0246501C08B9002000BD1046D3
:1049E000FCE70000000004082DE9F0438BB0064608
:1049F0000C460025164FA846282101A8FBF73FFCCE
:104A00001BE0384606F04EFE804608F1010098B1E2
:104A1000B8F1000F10D00A2201A9384606F032FE84
:104A200001A8FBF737FC81464A46314601A8FBF74F
:104A30004FFC00B903E06D1C5037A542E1D300BF25
:104A4000A54203D100200BB0BDE8F0833846FAE759
:104A50000000060800B5084A05E05032B2F1016FC7
:104A600001D9002000BD104606F01CFE401C0028A5
:104A7000F3D11046F6E700000000060810B5044622
:104A800006222146014806F0FDFD10BD0004040881
:104A900010B504460CB9012010BD607920B9002082
:104AA0002071204600F006F802206071012060713C
:104AB0000020F1E708B5094A016891420DD100BF15
:104AC0000749096841F48051054A11601146096897
:104AD00001F48051009100BF00BF08BD00300240CA
:104AE0003038024031B5002400F0FAF9044600BF26
:104AF00000F0F6F9001B00998842F9D338BD000098
:104B00002DE9F04104460E460127002500BF274845
:104B1000007E012802D10220BDE8F0810120234956
:104B2000087600BF4CF25030FFF788FE0746002F92
:104B300034D1401E3060206801280FD1207C61688C
:104B4000FFF7CAFD4CF25030FFF778FE07461848D1
:104B5000006820F00400164908601FE0A56817E00F
:104B6000217C2846FFF784FD4CF25030FFF766FEAB
:104B700007460F48006820F002000D49086008460B
:104B8000006820F0F80008600FB1356005E06D1C8A
:104B9000D4E902100844A842E2D800BF00BF0020B8
:104BA0000249087600BF3846B6E70000305E0020B4
:104BB000103C02400348006840F000400149086092
:104BC00000207047103C02402DE9F04106460F4698
:104BD00014461D464FF0010800BF1F48007E012803
:104BE00002D10220BDE8F08101201B49087600BFF8
:104BF0004CF25030FFF722FE8046B8F1000F23D16F
:104C000026B9E1B23846FFF781FD12E0012E04D14A
:104C1000A1B23846FFF7A2FD0BE0022E04D12146D7
:104C20003846FFF7AFFD04E022462B463846FFF733
:104C30007FFD4CF25030FFF701FE804607480068C8
:104C400020F001000549086000BF002002490876F5
:104C500000BF4046C6E70000305E0020103C024026
:104C60000748006800F0004030B1064804490C399C
:104C700008600548086001E0012070470020FCE75B
:104C8000103C024023016745AB89EFCD10B50446C7
:104C90006420FFF727FF012C04D0042C05D1FCF77A
:104CA0002BF903E001F0ECFD00E000BF00BF10BDF8
:104CB00010B5044604480068204020B10248046052
:104CC0002046FFF7E3FF10BD143C0140F8B5024653
:104CD0000B460025002400200021DFE0012606FA13
:104CE00001F51E6806EA0504AC4271D15E68022E29
:104CF00002D05E68122E13D1CF0802F1200656F8BA
:104D000027004E07F70E0F26BE40B0434F07FF0E99
:104D10001E69BE403043CF0802F1200646F8270046
:104D200010684F000326BE40B0431E7906F003060C
:104D30004F00BE40304310605E68012E08D05E68B0
:104D4000022E05D05E68112E02D05E68122E13D19D
:104D500090684F000326BE40B0434F00DE68BE405F
:104D600030439060506801268E40B0431E79C6F3F0
:104D700000168E4030435060D0684F000326BE407E
:104D8000B0434F009E68BE403043D0605E6806F07E
:104D90008056B6F1805FA8D100BF424E366846F417
:104DA0008046404F3E603E46366806F48046009698
:104DB00000BF00BF3C4E8F0856F827008E07370F04
:104DC0000F26BE40B043394EB24202D1002629E040
:104DD00063E0374EB24201D1012623E0354EB242A4
:104DE00001D102261EE0344EB24201D1032619E061
:104DF000324EB24201D1042614E0314EB24201D10A
:104E000005260FE02F4EB24201D106260AE02E4EB3
:104E1000B24201D1072605E02C4EB24201D108264C
:104E200000E009268F073F0FBE4030431E4E8F081B
:104E300046F82700264E3068A0435E6806F48036A8
:104E4000B6F5803F00D12043214E3060361D3068DA
:104E5000A0435E6806F40036B6F5003F00D120435B
:104E60001B4E361D3060361D3068A0435E6806F468
:104E70008016B6F5801F00D12043154E08363060ED
:104E8000361D3068A0435E6806F40016B6F5001FB4
:104E900000D120430E4E0C363060491C1029FFF41F
:104EA0001DAFF8BD44380240083801400000024000
:104EB0000004024000080240000C024000100240C2
:104EC0000014024000180240001C02400020024072
:104ED000003C01400AB1816101E00B04836170472D
:104EE00001480068704700000C010020024800687B
:104EF000401C0149086070470C01002010B50D48A6
:104F0000006840F400700B4908600846006840F4EF
:104F1000806008600846006840F4807008600520E2
:104F200000F072F8002000F007F800F017F80020F9
:104F300010BD0000003C024070B5044600F098FF30
:104F40004FF47A71B0FBF1F5284601F0A6FA002281
:104F50002146501E00F019F8002070BD10B5032046
:104F600000F052F800221146501E00F00EF810BD5D
:104F700000BF00F01F02012191404209920002F19E
:104F8000E022C2F8001100BF70472DE9F05F8046B3
:104F90000D461646002704F0F9FD074639462A4615
:104FA000334601F00700C0F1070ABAF1040F02D935
:104FB0004FF0040A01E0C0F1070AD14600F1040AEB
:104FC000BAF1070F02D24FF0000A01E0A0F1030A84
:104FD000D4464FF0010A0AFA09FAAAF1010A0AEACC
:104FE000020A0AFA0CFA4FF0010B0BFA0CFBABF1B8
:104FF000010B0BEA030B4AEA0B042146404604F07E
:10500000CDFDBDE8F09F000000BF00F00702064B99
:1050100019684FF6FF031940044B0B4343EA022182
:10502000014B196000BF70470CED00E00000FA056D
:1050300002461068416200207047F0B503461446EE
:10504000002500221868426A21B942EA04401E681D
:10505000B06219E01868806A02EB1042002508E08F
:10506000186800F5827050F8250002EB1042681CA9
:10507000C5B2481EA842F3DC42EA0447186800F5AE
:1050800082704E1E40F826700020F0BD10B5044618
:10509000D4F8B00307F07AFC10BD70B504460D4695
:1050A000C5EBC50304F1340101EB8301CA6829464D
:1050B000D4F8B00307F0BAFB70BD70B504460D46D6
:1050C000C5EBC50304F5EC7101EB8301CA68294601
:1050D000D4F8B00307F017FC70BD10B50446D4F83F
:1050E000B00307F056FC10BD70B504460D4605F040
:1050F0008000802808D105F07F00C0EBC00104F1DA
:10510000340000EB810607E005F07F00C0EBC00132
:1051100004F5EC7000EB810605F07F00307005F0BF
:105120008000C009707000BF94F87C03012801D191
:10513000022070BD012084F87C0300BF3146206846
:1051400008F038F800BF002084F87C0300BF00BFDF
:10515000EFE770B504460D4605F08000802808D1C1
:1051600005F07F00C0EBC00104F1340000EB8106C4
:1051700005E0C5EBC50104F5EC7000EB81060020ED
:10518000B07005F07F003070C5F3C010707000BFC4
:1051900094F87C03012801D1022070BD012084F81D
:1051A0007C0300BF3146206808F046FA00BF0020AB
:1051B00084F87C0300BF00BFEFE72DE9F047054608
:1051C0000E4690461F464FF0000906F080008028EA
:1051D00008D106F07F00C0EBC00105F1340000EB00
:1051E000810407E006F07F00C0EBC00105F5EC701C
:1051F00000EB810406F07F00207006F08000C009FB
:105200006070C4F80880E770607808B12078E080AA
:10521000022F01D10020207100BF95F87C030128E6
:1052200002D10220BDE8F087012085F87C0300BF91
:105230002146286807F0C8FE00BF002085F87C03DF
:1052400000BF4846EEE72DE9F04104460E461746FA
:10525000984606F07F00C0EBC00104F5EC7000EB4F
:105260008105EF60C5F814800020A861687006F021
:105270007F0028702069012800D12F6100BF94F8B9
:105280007C03012802D10220BDE8F081012084F8CE
:105290007C0300BF06F07F0028B9227C29462068E5
:1052A00008F0D0F804E0227C2946206808F04EFA85
:1052B00000BF002084F87C0300BF00BFE4E770B5A6
:1052C00004460D4605F08000802808D105F07F00D7
:1052D000C0EBC00104F1340000EB810605E0C5EB32
:1052E000C50104F5EC7000EB81060120B07005F0FB
:1052F0007F003070C5F3C010707000BF94F87C035D
:10530000012801D1022070BD012084F87C0300BF78
:105310003146206808F0D4F905F07F0028B9217CD7
:1053200004F56072206808F065F900BF002084F879
:105330007C0300BF00BFE6E72DE9F04104460E46BE
:105340001746984606F07F00C0EBC00104F1340018
:1053500000EB8105EF60C5F814800020A8610120F2
:10536000687006F07F0028702069012800D12F6145
:1053700000BF94F87C03012802D10220BDE8F0812F
:10538000012084F87C0300BF06F07F0028B9227C4E
:105390002946206808F056F804E0227C2946206857
:1053A00008F0D4F900BF002084F87C0300BF00BFE0
:1053B000E4E72DE9F84F044626684FF0000AD3468B
:1053C000D0460025002000900027206808F07EFBD2
:1053D000002867D1206808F0B1FB08B9BDE8F88F54
:1053E000206808F0ABFB00F00200022801D1216820
:1053F0004861206808F0A2FB00F40020B0F5002FFF
:105400007CD10025206808F06FFB834673E00BF029
:10541000010000286CD0E9B2206808F084FB8046C7
:1054200008F00100E8B3012106F5306000EB4510FB
:105430008160206901282BD1C5EBC50104F5EC7012
:1054400000EB8100816806F5306000EB45100069D3
:10545000C0F31200091AC5EBC50204F5EC7000EBAD
:1054600082008161C5EBC50104F5EC7000EB8100A1
:10547000C5EBC502C16804F5EC7000EB82008068E2
:105480000144C5EBC50204F5EC7000EB8200C1607D
:10549000E9B22046FFF711FE2069012811D105B9B4
:1054A00001E00EE01DE2C5EBC50104F5EC7000EB78
:1054B0008100406928B904F560720121206808F074
:1054C00099F808F00800082808D1204600F03AFBB7
:1054D000082106F5306000EB4510816008F01000EF
:1054E000102805D1102106F5306000EB45108160D1
:1054F0006D1C4FEA5B0BBBF1000F88D1206808F0F0
:105500001DFB00F48020B0F5802F7ED1206808F0CC
:10551000E2FA8346002583E00BF0010000287CD0EE
:10552000E9B2206808F0E9FA804608F00100F0B31B
:105530000120A840009040F634008059009988432B
:1055400040F634018851012106F5106000EB45104A
:1055500081602069012815D1C5EBC50104F1340033
:1055600000EB8100C5EBC502C16804F1340000EB1B
:10557000820080680144C5EBC50204F1340000EBF1
:105580008200C160E9B22046FFF787FD206901284B
:1055900010D165B9C5EBC50104F1340000EB810001
:1055A000406920B904F560720121206800E001E043
:1055B00008F020F808F00800082805D1082106F5B1
:1055C000106000EB4510816008F01000102805D134
:1055D000102106F5106000EB4510816008F04000D6
:1055E000402805D1402106F5106000EB4510816090
:1055F00008F00200022805D1022106F5106000EB38
:105600004510816008F0800001E00DE005E0802891
:1056100003D12946204604F0D5FC6D1C4FEA5B0BF4
:10562000BBF1000F7FF478AF206808F087FA00F034
:105630000040B0F1004F0ED140F60400805920F038
:10564000010140F604008151204600F054FA4FF069
:10565000004021684861206808F070FA00F400609A
:10566000B0F5006F0CD140F60800805900F0010041
:1056700010B1204600F08AFA4FF4006021684861BA
:10568000206808F05BFA00F48050B0F5805F5AD1D2
:1056900040F60400805920F0010140F604008151D9
:1056A0000021206808F0D8F94FF0000A0CE0FF2133
:1056B00006F5106000EB4A10816006F5306000EBE3
:1056C0004A1081600AF1010A60685045EFD84FF036
:1056D000FF3140F618008151001D805940F0011142
:1056E00040F61C008151E06A70B1D6F8840840F0A1
:1056F0000B01C6F8841840F64400805940F00B01B5
:1057000040F6440081510EE040F61400805940F00C
:105710000B0140F614008151001F805940F00B012D
:105720004FF401608151D6F8000820F4FE60C6F8FD
:105730000008217C04F56072206807F05BFF4FF4DD
:10574000805021684861206808F0F8F900F40050A2
:10575000B0F5005F29D1206807F098FC2068C06888
:1057600020F470502168C860206808F08DF958B99D
:105770000021E1604FF4007161612068C06840F46D
:1057800010502168C86009E00321E1604021616197
:105790002068C06840F4A0502168C860204600F02E
:1057A00091F94FF4005021684861206808F0C6F96B
:1057B00000F01000102843D12068806920F010000C
:1057C00021688861376A07F00F00C0EBC00104F55B
:1057D000EC7000EB8109C7F34340022819D147F66A
:1057E000F070384030B3C7F30A123046D9F80C10C5
:1057F00008F0AAF9C7F30A11D9F80C000844C9F84F
:105800000C00C7F30A11D9F818000844C9F81800A9
:1058100010E0C7F3434006280CD1082204F560715C
:10582000304608F091F9C7F30A11D9F81800084476
:10583000C9F818002068806940F01000216888616C
:10584000206808F07BF900F00800082805D1204600
:1058500000F058F9082021684861206808F06EF9C6
:1058600000F48010B0F5801F07D1E9B2204600F0A7
:105870003AF84FF4801021684861206808F05EF91A
:1058800000F40010B0F5001F07D1E9B2204600F087
:1058900033F84FF4001021684861206808F04EF991
:1058A00000F08040B0F1804F06D12046FFF7EEFBBC
:1058B0004FF0804021684861206808F03FF900F00F
:1058C000040004280DD12068476807F0040004286C
:1058D00002D12046FFF701FC206840683843216868
:1058E000486000BF7AE570B504460D462946D4F8F5
:1058F000B00307F0ABF870BD70B504460D462946FD
:10590000D4F8B00307F0A5F870BD30B589B00446EF
:10591000002514B9012009B030BD032084F87D03AF
:10592000204600F093F8206807F084FD242204F15B
:1059300010016846FAF77CFC94E80F0007F0C8FBFA
:105940000021206808F014F9002530E00121C5EBA2
:10595000C50204F1340000EB82004170C5EBC502C2
:1059600004F1340000F82250C5EBC50200EB8200C0
:10597000C5800021C5EBC50204F1340000EB8200B4
:10598000C170C5EBC50204F1340000EB82008160F8
:10599000C5EBC50204F1340000EB8200C160C5EB29
:1059A000C50204F1340000EB820041616D1C0F2D33
:1059B000CCD3002536E00021C5EBC50204F5EC7020
:1059C00000EB82004170C5EBC50204F5EC7000F8F5
:1059D0002250C5EBC50204F1340000EB8200C58003
:1059E000C5EBC50204F5EC7000EB8200C170C5EB9D
:1059F000C50204F5EC7000EB82008160C5EBC502C6
:105A000004F5EC7000EB8200C160C5EBC50204F543
:105A1000EC7000EB82004161206800F5827040F874
:105A200025106D1C0F2DC6D3242204F110016846E9
:105A3000FAF7FEFB94E80F0007F02EFC012084F833
:105A40007D03206807F019FC002064E710B586B0DC
:105A500004462068B0F1A04F2DD100BF1748006860
:105A600040F080001549086000BF144810300068FD
:105A700040F480401149103108600846006800F485
:105A80008040009000BF00BF00BF4FF4C0500190A5
:105A9000022002900020039004900A20059001A9A2
:105AA0000748FFF713F9002211464320FFF76DFA6C
:105AB0004320FFF75DFA06B010BD00003438024005
:105AC0000000024070B504460125E06810B10228CC
:105AD00004D101E0002503E0012501E0012500BF1C
