:020000040802F0
:10000000389E0120A1010208A90102080571020819
:10001000AD010208AF010208B101020800000000B2
:10002000000000000000000000000000B301020812
:10003000B501020800000000B70102081FC802084D
:10004000BB010208BB010208BB010208BB01020898
:10005000BB010208BB0102084D4E0208BB010208A9
:10006000574E0208BB010208BB010208BB0102088F
:10007000BB010208BB010208BB010208BB01020868
:10008000BB010208BB010208BB010208BB01020858
:10009000BB010208BB010208BB010208BB01020848
:1000A000BB010208BB010208BB010208BB01020838
:1000B000BB0102081DC90208BB010208BB010208FE
:1000C000BB010208BB010208BB010208BB01020818
:1000D000BB010208BB01020851CB0208BB010208A8
:1000E000BB010208BB010208BB010208BB010208F8
:1000F000BB010208BB010208BB010208BB010208E8
:10010000BB010208BB010208BB010208BB010208D7
:10011000BB010208BB010208BB010208BB010208C7
:10012000BB010208BB010208BB010208BB010208B7
:10013000BB010208BB010208BB010208BB010208A7
:10014000BB010208BB010208BB01020831AA020878
:10015000BB010208BB010208BB010208BB01020887
:10016000BB010208BB010208BB010208BB01020877
:10017000BB010208BB010208BB010208000000002D
:10018000BB010208BB010208DFF810D000F098FBA9
:1001900000F0AEF800480047892C0308389E012083
:1001A0000648804706480047FEE7FEE7FEE7FEE711
:1001B000FEE7FEE7FEE7FEE7FEE7FEE7B9C8020856
:1001C000890102082DE9F0410024061B254671F142
:1001D000000605DA01240027D0EB070067EB0101D8
:1001E000161E73F1000605DA0027D2EB070201257F
:1001F00067EB030300F007FA86460E4617469C4657
:10020000AC4204D00025D0EB050E65EB010624B10D
:100210000020D2EB000760EB030C704631463A46F3
:100220006346BDE8F081000000487047A44B030816
:1002300010B5431A934209D28318881803E010F8C6
:10024000011D03F8011D521EF9D210BD40EA010341
:100250009B0703D009E008C9121F08C0042AFAD27C
:1002600003E011F8013B00F8013B521EF9D210BD2A
:10027000D2B201E000F8012B491EFBD270470022E8
:10028000F6E710B513460A4604461946FFF7F0FF95
:10029000204610BD421C10F8011B0029FBD1801A1A
:1002A000704710B5002200E0521C835C8C5CA342B6
:1002B00001D1002BF8D1D8B2E1B2401A10BD0346EB
:1002C00011F8012B00F8012B002AF9D118467047CC
:1002D00030B505460020034600E05B1C934205D282
:1002E000EC5CC85C201A01D1002CF6D130BD0000B6
:1002F00070B5054C054D03E0206820448047241D5F
:10030000AC42F9D170BD0000144C0308184C03082E
:100310002DE9FE4F804681EA0300C00F0C46009095
:1003200021F0004123F00045B8EB0200A94105D2BD
:100330004046214690461C460B46024623F00040AC
:10034000104347D0270DC7F30A00C3F30A510290A8
:10035000401A019040286BDAC3F3130040F4801B6D
:100360000098924620B10023D2EB030A63EB0B0BFB
:1003700001985946C0F14002504600F075F9064612
:100380000D4650465946019A00F08DF910EB0800D1
:100390006141002487EA115284EAE7731A4340D08E
:1003A000009A62B3019A012A4FEA075215DC001B3A
:1003B00061EB02014FF0004202EA0752CDE9004230
:1003C000001C41F5801132462B4600F08DF903B038
:1003D000BDE8F08F40462146F9E7001B61EB0201C2
:1003E000001C41F5801300185B412018A2F500178E
:1003F00047EB030140EAD570B6196D4111E06D0875
:100400004FEA360645EAC0754FEA0752001B61EB1A
:100410000201001C41F5801149084FEA3000001923
:10042000514132462B4603B0BDE8F04F00F04DB9C4
:100430000098012240000023D0EB020263EBE0733E
:10044000009821464FEAE074B8EB000061EB04012C
:10045000E9E783F000435BE781F0004158E72DE9CD
:10046000FE4F81EA030404F0004421F000410094AF
:100470004FF0000B23F0004350EA01045ED052EA33
:1004800003045BD0C3F30A54C1F30A552C44A4F20D
:10049000F3340194A0FB0254C1F3130141F4801121
:1004A000C3F3130343F4801301FB024400FB034E28
:1004B000840A970A44EA815447EA8357A4FB0768F1
:1004C00002958D0A05FB07854FEA932C04FB0C541B
:1004D0002705029D4FEA065847EA1637B5EB08058F
:1004E0006EEB070C870E920E47EA811742EA8312E1
:1004F000A7FB0201B6EB0B0164EB00042B0D43EAF2
:100500000C335E1844EB1C50DA465146E7FB0201FF
:10051000C5F313044FEA0B3343EA14534FEA043292
:10052000019C43EA0603A4F10C040294009CCDE96B
:1005300000B400F0D9F803B0BDE8F08F0020014608
:10054000F9E70EB5C10F80EAE0700844CA07002140
:1005500040F233438DE80E000A460B4600F0C4F823
:1005600003B000BD3EB5CA17CB0F00245040514028
:10057000C0186141DA0740F233430094CDE901230A
:100580002246234600F0B0F803B030BD70B5C1F389
:100590000A5201F000450024C1F3130140F2FF3379
:1005A00041F480119A4202DA0020014670BD40F207
:1005B00033439A42A2F2334203DC524200F063F822
:1005C00001E000F051F82C43F0D00023D0EB030001
:1005D00063EB010170BDC1F30A52C1F3130140F294
:1005E000FF3341F480119A4202DA0020014670473D
:1005F00040F233439A42A2F2334202DC524200F00C
:1006000042B800F031B82DE9F05F0546002092466F
:100610009B4688460646814640241BE028464146C4
:100620004746224600F02FF853465A46C01A9141D9
:1006300010D311461846224600F016F82D1A67EB23
:1006400001084F4622460120002100F00DF817EB6B
:1006500000094E41201EA4F10104DFDC484631466A
:100660002A464346BDE8F09F202A04DB203A00FAE0
:1006700002F1002070479140C2F1200320FA03F3F9
:10068000194390407047202A04DB203A21FA02F0F7
:100690000021704721FA02F3D040C2F120029140BC
:1006A000084319467047202A06DBCB17203A41FA47
:1006B00002F043EAE07306E041FA02F3D040C2F1EF
:1006C0002002914008431946704710B5141E73F17B
:1006D000000408DA401C41F1000192185B411A4302
:1006E00001D120F0010010BD2DE9F04D92469B464E
:1006F00011B1B1FA81F202E0B0FA80F220329046F4
:10070000FFF7B2FF04460F4640EA0A0041EA0B0138
:1007100053465A46084313D0114653EA010019D0F4
:10072000C8F140025046FFF7AEFF05460E46504660
:1007300059464246FFF798FF084305D0012004E0E0
:1007400020463946BDE8F08D0020054346EAE076B4
:100750002C4337430A986305E40AA0EB0800002203
:10076000FD0A44EA47540A3002D500200146E9E771
:10077000010510196941DDE9084500196941BDE825
:10078000F04DA2E72DE9F04D81EA030404F0004B9F
:1007900021F0004514464FF0000A23F0004150EAD2
:1007A000050220D054EA01021DD0C5F30A570246C3
:1007B000C5F31303C1F31300C1F30A5640F48015C7
:1007C00043F48013A7EB0608101BD64608F2FD3849
:1007D00073EB050002D308F1010801E092185B41B8
:1007E000B8F1000F03DA00200146BDE8F08D0020CB
:1007F0004FF48011064684460EE0171B73EB050785
:1008000005D3121B63EB050306434CEA010C4908B0
:100810004FEA300092185B4150EA0107EDD152EAED
:10082000030012D082EA040083EA0501084305D0E0
:10083000101BAB4106D20122002306E000224FF03C
:10084000004302E06FF0010253101AEB06004CEB7C
:10085000085110EB0A0041EB0B01BDE8F04DFFF72A
:1008600034BF70B521F0004303430CD0C1F30A55E7
:100870000024D5EB040564EB0403D617AD1AB3418D
:1008800002DB0020014670BD201841EB025170BD13
:1008900030B5041E71F1000404DB4FF00044404207
:1008A00064EB0101141E73F1000405DB1C464FF0DC
:1008B0000043524263EB0403994208BF904230BDAB
:1008C000064C074D06E0E06840F0010394E807009D
:1008D00098471034AC42F6D3FFF75AFCF44B0308A8
:1008E000144C03082DE9F04D00231A461B1A8A41C7
:1008F00003DB00200146BDE8F08DC1F30A52C1F3CD
:10090000130141F480154FF0000BD10702D10018FC
:100910006D41521E0027044640F2FF11384601EB9C
:10092000620A3E468046024600204FF48011FFF7DF
:10093000AAFEC2197141BB1846EB0100B4EB030CCF
:1009400075EB000C04D3E41A65EB000517460E4660
:10095000241908F101006D4180463428E3DDF919BE
:1009600046EB0600091BA84103D24FF0FF321346A5
:1009700001E0002213461BEB070046EB0A51BDE8DD
:10098000F04DFFF7A2BE70B58D1810F8014B14F0B2
:10099000030201D110F8012B231106D110F8013BFD
:1009A00003E010F8016B01F8016B521EF9D1ABB1F5
:1009B00010F8012B04F00C048A1A0C2C03D0A2EBC3
:1009C00084129B1C08E010F8014BA2EB0422F8E70C
:1009D00012F8014B01F8014B5B1EF9D5A942D4D3A3
:1009E000002070BD2DE9F80FC04B4FF0010C4FF007
:1009F0000508C3F808C0D3F808C0D3F800C0CDF884
:100A000000C01CF1010C0AD04368D2F804C0006891
:100A100083EA0C07136880EA030C63460FE0DDF8F5
:100A200000C0C3F800C01B68009353B14368D2F8FC
:100A300004C0006883EA0C07136843409C46644680
:100A40000FE00368D2F800C0946883EA0C0743689B
:100A5000D2F804C083EA0C0C8368C0686340D46891
:100A60004440A3483D0E04F0FF0950F82560CCF344
:100A7000074550F8299050F8255007F0FF0A86EAFC
:100A80003525C3F3072650F82AA050F826600CF04D
:100A9000FF0B4FEA364686EA396675401669C3F39E
:100AA00007496E404FEA1C6550F8299050F82550D0
:100AB000CCF3072C85EA3925C4F3072950F82CC05C
:100AC00050F8299050F82BB04FEA394989EA3A6931
:100AD00085EA0905D2F81490C4F3074A85EA0905A6
:100AE0004FEA136950F82AA050F82990240E89EA99
:100AF0003A29C7F3072AC7F30747DBB250F82AA001
:100B000050F8244050F8277050F823304FEA3A4A02
:100B10004FEA3C4C8AEA3B6A84EA37248CEA336326
:100B200089EA0A0984EA030CD2F818A0D3692032B2
:100B3000A8F1010889EA0A098CEA0304B8F1000F58
:100B400069DD330EC5F3074C50F8233050F82CC044
:100B5000E7B283EA3C23C9F3072C50F8277050F81A
:100B60002CC006F0FF0A4FEA3C4C8CEA376C83EA53
:100B70000C03D2F800C050F82AA083EA0C072B0E11
:100B8000C9F3074C50F8233050F82CC005F0FF0B88
:100B900083EA3C23C4F3072CC5F3072550F82CC087
:100BA00050F825504FEA3C4C8CEA3A6C83EA0C032F
:100BB000D2F804C0C4F3074A83EA0C0C4FEA196365
:100BC00050F82AA050F82330240E83EA3A23C6F3C3
:100BD000072AC6F3074650F8244050F8266050F81C
:100BE0002AA084EA362409F0FF0650F82BB050F80A
:100BF00026604FEA3A4A4FEA35458AEA3B6A85EA77
:100C0000366583EA0A036C40D2F808A0D56883EA07
:100C10000A036C4026E7374850FA84F300EB166C61
:100C20001B789CF800C0C9F3072743EA0C63C5F39F
:100C3000074CC75D10F80CC04FEA0C4C4CEA072C6F
:100C400043EA0C03D2F800C083EA0C030B6050FAAD
:100C500086F300EB156C1B789CF800C0C4F30727E3
:100C600043EA0C63C9F3074CC75D10F80CC04FEAA8
:100C70000C4C4CEA072C43EA0C03D2F804C083EA7C
:100C80000C034B6050FA85F300EB196C1B789CF851
:100C900000C0C6F3072743EA0C6CC4F30743C75DE3
:100CA000C35C1B0443EA07234CEA0303D2F808C0E1
:100CB00083EA0C038B6050FA89F300EB146C1B7809
:100CC0009CF800C0C5F3072443EA0C63C6F3074C45
:100CD000D26810F80CC0005D4FEA0C4C4CEA0020C2
:100CE00018435040C860BDE8F80F7047003002401C
:100CF00024350308FC3203082DE9F003D0E900C3D2
:100D00008268C068184CC1E90220E1E804C30A26E1
:100D1000A4F5007505EB1067C0F307483F7815F898
:100D2000088047EA0867C0F3072815F808804FEAEB
:100D3000084855FA80F999F8009048EA092847EAE6
:100D4000080787EA0C0C54F8047B8CEA070C83EA4A
:100D50000C035A405040C1E90220E1E804C3761E6A
:100D6000D8D1BDE8F0037047FC34030830B587B034
:100D70000024002500BF3748006840F004003549D2
:100D800008600846006800F00400019000BF00BF42
:100D900000BF0846006840F001000860084600688F
:100DA00000F00100019000BF00BF012002902A481E
:100DB00003900120049002A9284804F0CFFB0420EE
:100DC0000290254803900120049002A9244804F0D1
:100DD000C5FB082002900120039004900320059099
:100DE00002A91F4804F0BAFB01220221062004F0E8
:100DF00014FD062004F004FD03220221082004F063
:100E00000CFD082004F0FCFC06F0E6FA00F08AF87D
:100E1000052004F0AFFA002006F06CFA04462146E3
:100E200010A010F0A5F900F065FA01201349087030
:100E300000201349087013490870012006F05AFA7F
:100E40000546294610A010F093F900F027F807B0E6
:100E500030BD000030380240000021100000024088
:100E600000080240415739313336206368697020E9
:100E700049443A30782534780D0A00001C020020DD
:100E80001D0200201E020020415739313336204711
:100E900043523A307825780D0A00000010B54FF41F
:100EA0004C51572006F04AFA0321582006F046FA22
:100EB0001C21502006F042FAFC21552006F03EFA93
:100EC0004AF2FF21612006F039FA4AF2FF3161202F
:100ED00006F034FA4AF2FF41612006F02FFA0321AE
:100EE000012006F02BFA10BD10B5322006F002FAF0
:100EF0000446204610BD000010B5094800680128CE
:100F000002D0022806D102E000F0E8FA03E000F087
:100F100087FA00E000BF00BFFFF7E6FF10BD00004A
:100F20002C02002010B500220821074804F01AFC0A
:100F3000052004F01FFA01220821034804F012FCE6
:100F40000A2004F017FA10BD0008024030B58FB037
:100F5000D148007860B9132006F0CCF90190142034
:100F600006F0C8F90290152006F0C4F903900BE0D2
:100F7000002407E0C94850F8240001A941F82400E2
:100F8000601CC4B2032CF5DB03211E2006F0D6F949
:100F9000002409E004F13601C8B206F0ABF907A954
:100FA00041F82400601CC4B2062CF3DB022006F0DA
:100FB000A1F90546002410E0B948007808B90020DE
:100FC00006E0B84850F8240007A951F82410084456
:100FD000B44941F82400601CC4B2062CECDBB048D4
:100FE000007804286FD10024DBE00120A0402840D5
:100FF000002869D1AB4850F824004FF47A71B1EB66
:10100000A00F70DD204604EBD0714910A4EB410124
:1010100099B1611001AA32F8211001F47F41B1F5B4
:10102000805F0AD1601001A911F82000611042F818
:10103000210002200DA908559CE0204604EBD07148
:101040004910A4EB410151B1611001AA32F82110FD
:1010500001F47F4119B900200DA908558AE0204606
:1010600004EBD0714910A4EB410191B9611001AAC0
:1010700012F8211010290CD1601001A931F82000BC
:1010800000F47F40611042F8210002200DA90855AC
:1010900070E0204604EBD0714910A4EB410141B946
:1010A000611001AA12F8211019B900200DA90855E4
:1010B00060E0204604EBD0714910A4EB410121B15E
:1010C0004FF4807102E0D7E069E00121621001ABCA
:1010D00053F82220511A621043F8221002200DA961
:1010E000085547E0FFE76F4850F8240040F6B83154
:1010F000B1EBA00F3BDA204604EBD0714910A4EB12
:10110000410161B1611001AA32F8211001F47F415F
:10111000B1F5F85F03D100200DA908552AE020465B
:1011200004EBD0714910A4EB410149B9611001AA47
:1011300012F821101F2903D100200DA9085519E02C
:10114000204604EBD0714910A4EB410111B14FF4DA
:10115000807100E00121621001AB53F8222011449C
:10116000621043F8221001200DA9085502E000206A
:101170000DA9085548480078002810DD0DA8005D2D
:101180004949095D88420AD000200DA90855601020
:10119000424951F82000611001AA42F82100601C68
:1011A000C4B2062CFFF621AF00204049087000248D
:1011B0000BE00120A040284028B90DA8005D10B127
:1011C00001203A490870601CC4B2062CF1DB374894
:1011D000007830B93048007818B9002034490870D8
:1011E00002E00120324908703048007830B9002010
:1011F000294908702A4908700FB030BD002101202C
:1012000006F09CF800240AE001AA32F8242091B2EA
:1012100004F11302D0B206F091F8601CC4B2032CA2
:10122000F2DB0321012006F089F81B48007803282F
:1012300007D100201D490870174908701849087027
:10124000DAE7002405E00DA8005D17490855601C89
:10125000C4B2062CF7DB002407E001A850F82400F4
:101260000E4941F82400601CC4B2032CF5DB0A4887
:101270000078401C0849087009480078042805DAFD
:1012800007480078401C0649087002E00020044925
:1012900008700120B0E700001D020020CC7B012077
:1012A0001E020020E47B0120200200201C020020FE
:1012B0001F02002010B54FF44C51572006F03EF8A5
:1012C0000321582006F03AF81C21502006F036F889
:1012D000FC21552006F032F848F28231052006F054
:1012E0002DF88421062006F029F80321012006F0BC
:1012F00025F810BD10B50021012006F01FF81C21B3
:10130000502006F01BF80021512006F017F84FF48A
:101310004C51572006F012F80321582006F00EF821
:101320000021592006F00AF800215A2006F006F89C
:1013300000215B2006F002F8A121522005F0FEFFFB
:101340004FF4C051182005F0F9FF2321022005F0C9
:10135000F5FF8421112005F0F1FF40F287211220D2
:1013600005F0ECFF41F21551142005F0E7FF41F2C2
:101370001551152005F0E2FF42F228310C2005F04E
:10138000DDFF42F228310D2005F0D8FF42F228316E
:101390000E2005F0D3FF40F202211B2005F0CEFF06
:1013A00040F202411C2005F0C9FF1C21072005F076
:1013B000C5FF8021032005F0C1FF0521192005F09C
:1013C000BDFF0021212005F0B9FF0021202005F0FC
:1013D000B5FF0021272005F0B1FF00212C2005F0EA
:1013E000ADFF0021222005F0A9FF00212D2005F0EE
:1013F000A5FF0321012005F0A1FF02200349086099
:10140000034904A00FF0B4FE10BD00002C02002020
:10141000CC32030825732046696E6973680A0000A0
:1014200070B52A48007800B3FFF790FD2748007890
:10143000D0B92748007818B10021012005F07EFFBF
:101440001C21032005F07AFF00212D2005F076FFF6
:101450001F48007818B10321012005F06FFFFFF746
:1014600029FF01201B49086070BD1B48006828BB8C
:10147000322005F03FFF0546312005F03BFF0446D2
:1014800005F0100040B114B900F0B0F81BE0102CCA
:1014900019D100F09BF816E005F0080040B114B92E
:1014A00000F08EF80FE0082C0DD100F077F80AE07C
:1014B00005F0040010B114B900F0CCF803E0042CDE
:1014C00001D100F0B5F800BFCEE700001C020020FB
:1014D0001F020020180200202802002010B51D491C
:1014E0001DA00FF045FE1F480078D8B1FFF72EFD74
:1014F0001C480078A8B91C48007818B100210120C8
:1015000005F01CFF0021032005F018FF10212D20FD
:1015100005F014FF1448007818B10021012005F0EF
:101520000DFF10BD1148006888B92E2005F0E2FEBD
:101530000446102C02D100F01BF808E0012C02D167
:1015400000F08EF803E0022C01D100F061F800BF3A
:10155000E7E70000E7320308257320456E746572E3
:101560000A0000001C0200201F02002028020020A8
:1015700010B502A00FF0FCFD10BD0000415739313D
:1015800033362063656E74657220646F75626C65B6
:1015900020636C69636B200A0000000010B50648E8
:1015A000006828B10548006810B101200349C860EF
:1015B000502008F075FE10BD18020020205F0020AA
:1015C00001480068704700001802002010B502A012
:1015D0000FF0CEFD10BD0000415739313336206C7D
:1015E000656674207072657373200A0010B502A0DE
:1015F0000FF0BEFD10BD0000415739313336206C6D
:101600006566742072656C656173650A0000000090
:1016100010B502A00FF0ACFD10BD000041573931EC
:101620003336206C65667420736C6970200A000084
:1016300010B50648006828B10548006810B10120BF
:1016400003494860502008F02BFE10BD180200200E
:10165000205F002001480068704700001802002049
:1016600010B502A00FF084FD10BD000041573931C4
:10167000333620726967687420736C6970200A00C1
:101680002DE9F8430024884600940646817998F8AD
:10169000060091461D46814288BF0846411C1A46F5
:1016A00068460AF023FF00281CBF40F2ED30BDE879
:1016B000F8834146304601F0F5FFC01C012707289A
:1016C00062D2DFE800F03E2D25352D25040040468E
:1016D000009902F091F800993046CC7101F0E2FFD8
:1016E000B0F1FF3F04D000284BD002284CD107E0D6
:1016F00031464046009A0AF0B8FF0098C77143E0AF
:1017000041463046009A0AF0B0FF0098C4713BE0B1
:1017100041463046009A00F053F80098C47133E017
:1017200041463046009A00F04BF80098C7712BE014
:1017300041463046009A00F043F80099F079C871AC
:1017400022E03046009902F057F800984146C471F3
:1017500001F0A8FFB0F1FF3F03D090B1022813D1F0
:1017600007E031464046009A0AF07FFF0098C471B6
:101770000AE041463046009A0AF077FF0098C771A8
:1017800002E000980AF003FD0021484605F04EFFF4
:101790004946009802F030F80099002914BF002D46
:1017A000BDE8F883EA8889796FF00303494203EBC7
:1017B000810111440839E9800094BDE8F8830000F4
:1017C0002DE9F84F0B46D0F800B0096800910025CC
:1017D000B0F804C09E88176891462C46B44598BF5F
:1017E000664681794FF0010E4FF000088C4532D8E3
:1017F000A1EB0C01002201F1010ABAF1000F2ADD70
:101800003EEA01011CBF4BF82C80012290F806C073
:10181000B0F804A0ACEB0A0C0CF1010C8C451AD901
:101820001FFA8AFAD0F800C09244521C4CF82A8061
:10183000B0F804A0D0F800C09244521C4CF82A80A2
:1018400090F806C0B0F804A0891CACEB0A0C0CF1AF
:10185000010C8C45E4D8B3F804C099798C4534D890
:10186000A1EB0C01002201F1010ABAF1000F2CDDFD
:101870003EEA010103D01A6842F82C80012293F855
:1018800006C0B3F804A0ACEB0A0C0CF1010C8C45BB
:101890001BD900BF1FFA8AFAD3F800C09244521C29
:1018A0004CF82A80B3F804A0D3F800C09244521C2C
:1018B0004CF82A8093F806C0B3F804A0891CACEB5E
:1018C0000A0C0CF1010C8C45E4D881889A8891426D
:1018D000494638BF184601F08FFF002E48D00098C7
:1018E000ABF10403021F391F16F0010F0DD053F89E
:1018F00004CF52F8040F1CEB000048EB080C401911
:101900004CEB040541F8040F44465FEA560C1BD02B
:10191000D3F804A050681AEB000048EB080A4519F8
:101920004D604AEB040053F808AF52F8085F1AEB19
:10193000050548EB0804281844EB080541F8080F92
:101940004446BCF1010CE3D195B157F82600401C88
:1019500047F8260007E0761C07EB86000168491C63
:10196000016057F8260018B9B9F80400B042F2D265
:10197000B9F8040057F8201000291CBF401CA9F832
:101980000400BDE8F88F00002DE9FF4FADF6144DBF
:1019900082460E4691464FF000080020CDF8100C0C
:1019A0007EA00068CDF80C0C4FF400710DF60C20F1
:1019B000FEF765FC4FF400710DF60C00FEF75FFCBE
:1019C0004FF400710DF20C60FEF759FC4FF40071FA
:1019D0000DF20C40FEF753FC4FF4007183A8FEF7A4
:1019E0004EFC741E81E01AF804106D4803F020FCD0
:1019F00007460A2F05DA07F13000C0B28DF8100C47
:101A00000FE00A2097FBF0F03030C0B28DF8100CD8
:101A10000A2097FBF0F100FB11703030C0B28DF856
:101A2000110C701E021B0DF60C0302210DF60C406A
:101A300010F00DFF0DF60C00FEF72CFC02900DF5DA
:101A40004160FEF727FC01900DF20C6000900DF64E
:101A50000C020DF54160DDE9011310F06DFE0DF68D
:101A60000C20FEF717FC02900DF20C60FEF712FC42
:101A700001900DF20C4000900DF60C220DF20C605E
:101A8000DDE9011310F0DFFC4FF400710DF60C20BE
:101A9000FEF7F5FB002506E00DF20C40405D0DF66B
:101AA0000C2148556D1C0DF20C40FEF7F3FBA842CB
:101AB000F2D84FF400710DF60C00FEF7E0FB4FF486
:101AC00000710DF20C60FEF7DAFB4FF400710DF2BD
:101AD0000C40FEF7D4FB0020CDF8100C35208DF81B
:101AE0000C0C38208DF80D0C641E002CBFF67BAF5B
:101AF00083A90DF60C2002F0F1F883A8FEF7CAFBCB
:101B0000450803AA294683A80AF023FD9DF80C0086
:101B100030B99DF80D00802802DB4FF0010B01E089
:101B20004FF0000B002402E008F10108641CB442ED
:101B300005DA1AF804001A4909788842F4D0BBF192
:101B4000000F0ED0002407E003A9601C085C04EB22
:101B5000080109F80100641CA6EB0800A042F3DCB0
:101B60000CE0002406E003A8005D04EB080109F87E
:101B70000100641CA6EB0800A042F4DC00BF681E54
:101B8000054619F800000028F9D0681CDDF8201C73
:101B900008600DF6244DBDE8F08F000035380000D8
:101BA000DC0100202DE9F041ADF5806D0746884647
:101BB00016461D464FF4007180A8FEF760FB4FF4F7
:101BC00000716846FEF75BFB6A464146384605F001
:101BD0004BFB80A9684605F0B9FA80A802F004F82A
:101BE0000848FEF757FB2860002403E00548005D25
:101BF0003055641C2868A042F8DC0DF5806DBDE806
:101C0000F0810000987B01202DE9F047A0B0074645
:101C1000884615461E46DDF8A0904FF0000A01F0F8
:101C2000A3FE0AA808AB0CAA10A9009014A803F000
:101C3000DBF80897CDF824801448069014480490E7
:101C40000CA804A910AB06AACDE90109009108A9C6
:101C500014A802F0EBF88246DDE90E01084430607A
:101C6000002408E00C98005D28550D98005D0E9941
:101C700021446854641C306800EBD071B4EB610FF0
:101C8000F0DB504620B0BDE8F0870000B0690120CD
:101C9000E8680120F0B5AFB006460F4615460020B3
:101CA0002E9020202D90112101A8FEF7E8FA2D4852
:101CB0000068009020210BA8FEF7E1FA142106A885
:101CC000FEF7DDFA28213846FEF7D9FA212D03D098
:101CD000412D01D02FB0F0BD212D16D1E8B28DF8E5
:101CE0009000AC2124AA681C1154002404E0315D4A
:101CF00024AA601C1154641CAC42F8DB2DAB0BAA67
:101D0000A91C24A800F0ECF815E0E8B28DF84C000E
:101D1000AC2113AA681C1154002404E0315D13AAFD
:101D2000601C1154641CAC42F8DB2DAB0BAAA91C3F
:101D300013A800F0D5F806A90BA809F0B3FE0024FB
:101D400005E006A8015D601C0DF80010641C142C51
:101D5000F7DB2EAB3A461521684601F08FFB00BF3A
:101D6000B8E70000C4300308F0B5A3B007460E463C
:101D70000024002004900390029032214F48FEF787
:101D80007EFA32214E48FEF77AFA01F0EDFD4B481B
:101D900014904B48159018A808F0F6FE044614B1AC
:101DA000002023B0F0BD474805900020ADF81A0090
:101DB0004FF46060ADF8180043480790434809901D
:101DC00043480B9043480D9043480F90434811906F
:101DD000202008900A900E900C901090129005A967
:101DE00007A802F013FA044604B161E005AA07A9A6
:101DF00002A802F0E7FA044604B154E007A90298E9
:101E000002F0F6FB044604B14DE005AA07A904A8B8
:101E100002F0D8FA044604B145E005AA07A903A8D0
:101E200002F038FB044604B138E02022394603981A
:101E300002F01EFC044604B12BE005A807AB00909D
:101E400002A807C802F05EFB044604B121E016AB0D
:101E50000021149A049802F03BF9044617AB0121C3
:101E6000159A049802F034F904438CB9002503E074
:101E70001498405D70556D1C202DF9DB002505E0A0
:101E80001598415D05F1200031546D1C202DF7DBC4
:101E900000BF05A903A802F003F900BF05A904A823
:101EA00002F0DDF800BF05A907A802F09AF800BF0C
:101EB00018A808F09FFE204673E700005078012024
:101EC00082780120306A01200230030822300308A2
:101ED000423003086230030882300308A23003084E
:101EE0002DE9F04104460D4616461F4601F03CFD23
:101EF0003B4632462946204605F0DAF88046404601
:101F0000BDE8F08107B5ADF5447D0020C090BF90DD
:101F1000BE90BD901121A9A8FEF7B1F9FE48016855
:101F2000A89134219BA8FEF7AAF900209A904FF4BB
:101F30008C7154A8FEF7A3F9C4980078BC90C69998
:101F4000BC980860C4984078BB90C699BB9848601C
:101F5000BC9840287ED008DC70B101287BD00228D4
:101F60007AD0202841F09081A1E1802875D0D02836
:101F700074D0D128F6D1FDE3BB9800286FD19FED36
:101F8000E71B9FEDE80B0FF023F98DED440BC49890
:101F90004079C117539000EB117001115398A0EBD9
:101FA00001104190FEF7CDFA439142909DED440B14
:101FB00053EC102B9DED420B51EC100BFEF74FFA3A
:101FC0009FEDDA1B9FEDD70B499148900FF000F978
:101FD0008DED400BC4984079C117529000EB117001
:101FE00000113D90FEF7ADFACDE93E019DED400BAD
:101FF00053EC102B9DED3E0B51EC100BFEF72FFA1E
:102000009FEDCC1B9FEDC70B459144900FF0E0F87E
:102010008DED3C0BC4980079C117519000EB117005
:1020200001115198A0EB01103990FEF78AFACDE921
:102030003A019DED3C0B53EC102B9DED3A0B51EC0E
:10204000100BFEF70CFA9FEDBD1B9FEDB60B4191F7
:10205000409005E042E108E10DE1FDE3FDE300E130
:102060000FF0B6F88DED380BC4980079C117509079
:1020700000EB117000113590FEF763FACDE93601DF
:102080009DED380B53EC102B9DED360B51EC100BE6
:10209000FEF7E5F99FEDAB1B9FEDA20BCDE93C01EF
:1020A0000FF096F88DED340BC498C078C1174F909F
:1020B00000EB117001114F98A0EB01103190FEF769
:1020C00040FACDE932019DED340B53EC102B9DED20
:1020D000320B51EC100BFEF7C2F99FED9C1B9FEDEC
:1020E000910BCDE938010FF073F88DED300BC498EA
:1020F000C078C1174E9000EB117000112D90FEF7C3
:1021000020FACDE92E019DED300B53EC102B9DED07
:102110002E0B51EC100BFEF7A2F99FED8E1B9FEDDD
:10212000810BCDE934010FF053F88DED2C0BC498E1
:102130008078C1174D9000EB117001114D98A0EB04
:1021400001102990FEF7FDF9CDE92A019DED2C0B38
:1021500053EC102B9DED2A0B51EC100BFEF77FF981
:102160009FED7E1B9FED6F0BCDE930010FF030F836
:102170008DED2C0BC4988078C1174C9000EB11703A
:1021800000112990FEF7DDF9CDE92A019DED2C0B18
:1021900053EC102B9DED2A0B51EC100BFEF75FF961
:1021A000CDE92E019DED300B53EC102B9DED2E0B48
:1021B00051EC100BFEF7ACF8CDE932019DED340B7C
:1021C00053EC102B9DED320B51EC100BFEF7A0F8E9
:1021D000CDE936019DED380B53EC102B9DED360B00
:1021E00051EC100BFEF794F8CDE93A019DED3C0B54
:1021F00053EC102B9DED3A0B51EC100BFEF788F8C9
:10220000CDE93E019DED400B53EC102B9DED3E0BB7
:1022100051EC100BFEF77CF8439142909DED440B7E
:1022200053EC102B9DED420B51EC100BFEF770F8A8
:10223000479146909DED480B53EC102B9DED460BBE
:1022400051EC100BFEF764F84B914A909DED4A0B50
:1022500051EC100BFEF7BFF9559154900420BF903C
:10226000E1E301200DF5477D00BDBB98012801DDAC
:102270000120F7E7F4E7BB98B8B90020C29009E065
:10228000C298801CC4990A5C56A8C2994254C2984C
:10229000401CC290C2982228F2DB9DF8580108B970
:1022A0000120DFE72220BF90DAE70120DAE7BB98C0
:1022B00090B90020C29009E0C298801CC4990A5CC1
:1022C00067A8C2994254C298401CC290C298402844
:1022D000F2DB4020BF90C3E70120C3E7BB98002892
:1022E0007ED1C49880787790BF98401CBF90BF98EB
:1022F000801CC499085CBD90BF98C01C53904FF4DB
:1023000080620146BD9BC49808F006FEBE90BE9850
:1023100008B90120A6E725E0C83203080000000044
:10232000000000000000000000003040000000003D
:102330000000F03F0000000000000040000000002E
:1023400000000840000000000000104000000000F5
:1023500000001440000000000000184000000000D1
:1023600000001C40BD9809F073FB401CBF99084455
:10237000BF90BE99BF980844BF901FED181B1FED7A
:10238000170B0EF025FF8DED3C0BBF980930C4995B
:10239000085CC117539000EB117001115398A0EB2A
:1023A00001103990FEF7CDF8CDE93A019DED3C0BD7
:1023B00053EC102B9DED3A0B51EC100BFEF74FF840
:1023C0001FED261B1FED290B419140900EF000FFE1
:1023D0008DED380BBF980930C499085CC11700E037
:1023E00022E3529000EB117000113590FEF7A9F82E
:1023F000CDE936019DED380B53EC102B9DED360BDE
:1024000051EC100BFEF72BF81FED361B1FED3B0BAD
:10241000CDE93C010EF0DCFE8DED340BBF980830A9
:10242000C499085CC117519000EB117001115198CB
:10243000A0EB01103190FEF784F8CDE932019DED5B
:10244000340B53EC102B9DED320B51EC100BFEF7BF
:1024500006F81FED461B1FED4D0BCDE938010EF0C0
:10246000B7FE8DED300BBF980830C499085CC117DA
:10247000509000EB117000112D90FEF762F8CDE93D
:102480002E019DED300B53EC102B9DED2E0B51ECDE
:10249000100BFDF7E4FF1FED551B1FED5E0BCDE9A3
:1024A00034010EF095FE8DED2C0BBF98C01DC49924
:1024B000085CC1174F9000EB117001114F98A0EB11
:1024C00001102990FEF73DF8CDE92A019DED2C0B76
:1024D00053EC102B9DED2A0B51EC100BFDF7BFFFB9
:1024E0001FED661B1FED710BCDE930010EF070FE84
:1024F0008DED280BBF98C01DC499085CC1174E9084
:1025000000EB117000112590FEF71BF8CDE92601B4
:102510009DED280B53EC102B9DED260B51EC100B71
:10252000FDF79DFF1FED751B1FED820BCDE92C0103
:102530000EF04EFE8DED240BBF98801DC499085CF3
:10254000C1174D9000EB117001114D98A0EB0110D7
:102550002190FDF7F6FFCDE922019DED240B53EC10
:10256000102B9DED220B51EC100BFDF778FF1FEDAA
:10257000851B1FED940BCDE928010EF029FE8DED92
:10258000200BBF98801DC499085CC1174C9000EBCC
:10259000117000111D90FDF7D4FFCDE91E019DEDD6
:1025A000200B53EC102B9DED1E0B51EC100BFDF787
:1025B00056FF9FEDFE1B1FEDA50BCDE924010EF08C
:1025C00007FE8DED1C0BBF98401DC499085CC11718
:1025D0004B9000EB117001114B98A0EB011019907A
:1025E000FDF7AFFFCDE91A019DED1C0B53EC102B4D
:1025F0009DED1A0B51EC100BFDF731FF9FEDED1B1C
:102600001FEDB80BCDE920010EF0E2FD8DED180BAA
:10261000BF98401DC499085CC1174A9000EB117027
:1026200000111590FDF78DFFCDE916019DED180BFA
:1026300053EC102B9DED160B51EC100BFDF70FFF1B
:102640009FEDDE1B1FEDC90BCDE91C010EF0C0FD97
:102650008DED140BBF98001DC499085CC1174990FB
:1026600000EB117001114998A0EB01101190FDF7DA
:1026700068FFCDE912019DED140B53EC102B9DED7D
:10268000120B51EC100BFDF7EAFE9FEDCE1B1FED78
:10269000DB0BCDE918010EF09BFD8DED100BBF9803
:1026A000001DC499085CC117489000EB117000111F
:1026B0000D90FDF746FFCDE90E019DED100B53EC9B
:1026C000102B9DED0E0B51EC100BFDF7C8FE9FED8E
:1026D000BF1B1FEDEC0BCDE914010EF079FD8DED64
:1026E0000C0BBF98C01CC499085CC117479000EB45
:1026F000117001114798A0EB01100990FDF721FF1F
:10270000CDE90A019DED0C0B53EC102B9DED0A0B4E
:1027100051EC100BFDF7A3FE9FEDAE1B9FEDAF0B31
:10272000CDE910010EF054FD8DED080BBF98C01CD3
:10273000C499085CC117469000EB11700011059018
:10274000FDF7FFFECDE906019DED080B53EC102BC4
:102750009DED060B51EC100BFDF781FE9FEDA11BCB
:102760009FED9E0BCDE90C010EF032FD8DED040BBB
:10277000BF9800E019E2801CC499085CC11745901D
:1027800000EB117001114598A0EB01100190FDF7CD
:10279000D8FECDE902019DED040B53EC102B9DED0D
:1027A000020B51EC100BFDF75AFE9FED901B9FEDB5
:1027B0008B0BCDE908010EF00BFD8DED040BBF98DE
:1027C000801CC499085CC117449000EB1170001183
:1027D0000190FDF7B6FECDE902019DED040B53EC2F
:1027E000102B9DED020B51EC100BFDF738FECDE9DF
:1027F00006019DED080B53EC102B9DED060B51ECE3
:10280000100BFDF785FDCDE90A019DED0C0B53EC96
:10281000102B9DED0A0B51EC100BFDF779FDCDE966
:102820000E019DED100B53EC102B9DED0E0B51EC9A
:10283000100BFDF76DFDCDE912019DED140B53EC6E
:10284000102B9DED120B51EC100BFDF761FDCDE946
:1028500016019DED180B01E0E8E0ECE053EC102BC5
:102860009DED160B51EC100BFDF752FDCDE91A0151
:102870009DED1C0B53EC102B9DED1A0B51EC100B26
:10288000FDF746FDCDE91E019DED200B53EC102B0D
:102890009DED1E0B51EC100BFDF73AFDCDE9220129
:1028A0009DED240B53EC102B9DED220B51EC100BE6
:1028B000FDF72EFDCDE926019DED280B53EC102BE5
:1028C0009DED260B51EC100BFDF722FDCDE92A0101
:1028D0009DED2C0B53EC102B9DED2A0B51EC100BA6
:1028E000FDF716FDCDE92E019DED300B53EC102BBD
:1028F0009DED2E0B51EC100BFDF70AFDCDE93201D9
:102900009DED340B53EC102B9DED320B51EC100B65
:10291000FDF7FEFCCDE936019DED380B53EC102B95
:102920009DED360B51EC100BFDF7F2FCCDE93A01B1
:102930009DED3C0B53EC102B9DED3A0B51EC100B25
:10294000FDF7E6FCCDE93E019DED400B53EC102B6D
:102950009DED3E0B51EC100BFDF7DAFC43914290DC
:102960009DED420B51EC100BFDF735FE79917890FF
:10297000BF980830BF90BF98801CC499085C7A90BB
:10298000BF98401CBF900020C2900BE0BF99C29836
:102990000844801CC4990A5C7BA8C2994254C2981E
:1029A000401CC290C2982128F0DB23E00000000008
:1029B0000000204000000000000022400000000055
:1029C000000024400000000000002640000000003D
:1029D000000028400000000000002A400000000025
:1029E000000030400000000000002C40000000000B
:1029F00000002E40BF982130BF900020C2900CE014
:102A0000BF99C2980844801CC4990A5C0DF22E201C
:102A1000C2994254C298401CC290C2981428EFDB5D
:102A2000BF981430BF90FDE301201BE4BB9808B1B0
:102A3000012017E4F6E3BB98012801DD012011E431
:102A40000020C2900AE0C298801CC4990A5C0DF272
:102A50005620C2994254C298401CC290C298032882
:102A6000F1DBBB98012803D1C4984079979001E02D
:102A700000209790BF98001DBF90BF98801CC499FC
:102A8000085CBD90BF98C01C5390FC220146BD9BC2
:102A9000C49808F041FABE90BE9808B9012005E438
:102AA000BD9808F0D5FF401CBF990844BF90BE995F
:102AB000BF980844BF90BF98801CC499085CBD9023
:102AC000BF98C01C5390FC220146BD9BC49808F0DF
:102AD00023FABE90BE9808B901201BE4BD9808F007
:102AE000B7FF401CBF990844BF90BE99BF980844E7
:102AF000BF90BF98801CC499085CBD90BF98C01C53
:102B00005390FC220146BD9BC49808F005FABE9084
:102B1000BE9808B9012088E7BD9808F099FF401CCD
:102B2000BF990844BF90BE99BF980844BF90BF9812
:102B3000801CC499085CBD90BF98C01C5390FC22B7
:102B40000146BD9BC49808F0E7F9BE90BE9808B94D
:102B500001206AE7BD9808F07BFF401CBF9908443C
:102B6000BF90BE99BF980844BF90BF98801CC4997D
:102B7000085CBD90BF98C01C53904FF48032014652
:102B8000BD9BC49808F0C8F9BE90BE9808B9012052
:102B90004BE7BD9808F05CFF401CBF990844BF900C
:102BA000BE99BF980844BF9070E3BB98012801DD2F
:102BB00001203AE7BF98801CC499085CBD90BF987B
:102BC000C01C53904FF480320146BD9BC49808F05E
:102BD000A3F9BE90BE9808B9012026E7BD9808F079
:102BE00037FF401CBF990844BF90BE99BF98084466
:102BF000BF90BB9801287DD19FEDFE1B1FED890B77
:102C00000EF0E6FA8DED3C0BBF980930C499085CD4
:102C1000C117539000EB117001115398A0EB0110F4
:102C20003990FDF78EFCCDE93A019DED3C0B53EC5C
:102C3000102B9DED3A0B51EC100BFDF710FC9FEDA6
:102C4000EF1B1FED9A0B419140900EF0C1FA8DEDF4
:102C5000380BBF980930C499085CC117529000EB3B
:102C6000117000113590FDF76CFCCDE936019DED3A
:102C7000380B53EC102B9DED360B51EC100BFDF780
:102C8000EEFB9FEDE01B1FEDAB0BCDE93C010EF021
:102C90009FFA8DED340BBF980830C499085CC117BA
:102CA000519000EB117001115198A0EB011031907F
:102CB000FDF747FCCDE932019DED340B53EC102BB1
:102CC0009DED320B51EC100BFDF7C9FB9FEDCF1BB7
:102CD0001FEDBE0BCDE938010EF07AFA8DED300B09
:102CE000BF980830C499085CC117509000EB117070
:102CF000001100E0C4E22D90FDF723FCCDE92E0188
:102D00009DED300B53EC102B9DED2E0B51EC100B69
:102D1000FDF7A5FB9FEDBF1B1FEDD00BCDE93401E7
:102D20000EF056FA8DED2C0BBF98C01DC499085CAF
:102D3000C1174F9000EB117001114F98A0EB0110DB
:102D40002990FDF7FEFBCDE92A019DED2C0B53ECFC
:102D5000102B9DED2A0B51EC100BFDF780FB9FED26
:102D6000AF1B1FEDE20BCDE930010EF031FA8DED16
:102D7000280BBF98C01DC499085CC1174E9000EB8A
:102D8000117000112590FDF7DCFBCDE926019DEDCA
:102D9000280B53EC102B9DED260B51EC100BFDF77F
:102DA0005EFB9FEDA01B1FEDF30BCDE92C010EF098
:102DB0000FFA8DED240BBF98801DC499085CC117D4
:102DC0004D9000EB117001114D98A0EB0110219076
:102DD000FDF7B7FBCDE922019DED240B53EC102B41
:102DE0009DED220B51EC100BFDF739FB9FED8F1B76
:102DF0009FED900BCDE928010EF0EAF98DED200B47
:102E0000BF98801DC499085CC1174C9000EB1170ED
:102E100000111D90FDF795FBCDE91E019DED200BE6
:102E200053EC102B9DED1E0B51EC100BFDF717FB17
:102E30009FED821B9FED7F0BCDE924010EF0C8F9B9
:102E40008DED1C0BBF98401DC499085CC1174B90B9
:102E500000EB117001114B98A0EB01101990FDF7D8
:102E600070FBCDE91A019DED1C0B53EC102B9DED71
:102E70001A0B51EC100BFDF7F2FA9FED721B9FED50
:102E80006D0BCDE920010EF0A3F98DED180BBF9865
:102E9000401DC499085CC1174A9000EB11700011E5
:102EA0001590FDF74EFBCDE916019DED180B53EC87
:102EB000102B9DED160B51EC100BFDF7D0FA9FED8A
:102EC000631B9FED5C0BCDE91C010EF081F98DEDCC
:102ED000140BBF98001DC499085CC117499000EB02
:102EE000117001114998A0EB01101190FDF729FB19
:102EF000CDE912019DED140B53EC102B9DED120B3F
:102F000051EC100BFDF7ABFA9FED521B9FED490BF7
:102F1000CDE918010EF05CF98DED100BBF98001D86
:102F2000C499085CC117489000EB117000110D9016
:102F3000FDF707FBCDE90E019DED100B53EC102BB7
:102F40009DED0E0B51EC100BFDF789FA9FED431B25
:102F50009FED380BCDE914010EF03AF98DED0C0B15
:102F6000BF98C01CC499085CC117479000EB117052
:102F700001114798A0EB01100990FDF7E2FACDE9A5
:102F80000A019DED0C0B53EC102B9DED0A0B51EC3F
:102F9000100BFDF764FA9FED331B9FED260BCDE977
:102FA00010010EF015F98DED080BBF98C01CC499E7
:102FB000085CC117469000EB117000110590FDF7F9
:102FC000C0FACDE906019DED080B53EC102B9DEDE9
:102FD000060B51EC100BFDF742FA9FED241B9FED01
:102FE000150BCDE90C010EF0F3F88DED040BBF9835
:102FF000801C3FE000000000000000000000000016
:103000000000F03F00000000000000400000000051
:103010000000084000000000000010400000000018
:1030200000001440000000000000184000000000F4
:1030300000001C40000000000000304000000000C4
:1030400000002040000000000000224000000000BE
:1030500000002440000000000000264000000000A6
:10306000000028400000000000002A40000000008E
:1030700000002C40C499085CC117459000EB11700A
:1030800001114598A0EB01100190FDF75AFACDE926
:1030900002019DED040B53EC102B9DED020B51EC46
:1030A000100BFDF7DCF99FEDE41B1FED1E0BCDE9C6
:1030B00008010EF08DF88DED040BBF98801CC499AB
:1030C000085CC117449000EB117000110190FDF7EE
:1030D00038FACDE902019DED040B53EC102B9DED68
:1030E000020B51EC100BFDF7BAF9CDE906019DED8D
:1030F000080B53EC102B9DED060B51EC100BFDF75C
:1031000007F9CDE90A019DED0C0B53EC102B9DED59
:103110000A0B51EC100BFDF7FBF8CDE90E019DED0C
:10312000100B53EC102B9DED0E0B51EC100BFDF71B
:10313000EFF8CDE912019DED140B53EC102B9DED32
:10314000120B51EC100BFDF7E3F8CDE916019DEDE4
:10315000180B53EC102B9DED160B51EC100BFDF7DB
:10316000D7F8CDE91A019DED1C0B53EC102B9DED0A
:103170001A0B51EC100BFDF7CBF8CDE91E019DEDBC
:10318000200B53EC102B9DED1E0B51EC100BFDF79B
:10319000BFF8CDE922019DED240B53EC102B9DEDE2
:1031A000220B51EC100BFDF7B3F8CDE926019DED94
:1031B000280B53EC102B9DED260B51EC100BFDF75B
:1031C000A7F8CDE92A019DED2C0B53EC102B9DEDBA
:1031D0002A0B51EC100BFDF79BF8CDE92E019DED6C
:1031E000300B53EC102B9DED2E0B51EC100BFDF71B
:1031F0008FF8CDE932019DED340B53EC102B9DED92
:10320000320B51EC100BFDF783F8CDE936019DED43
:10321000380B53EC102B9DED360B51EC100BFDF7DA
:1032200077F800E032E0CDE93A019DED3C0B53EC3C
:10323000102B9DED3A0B51EC100BFDF769F8CDE921
:103240003E019DED400B53EC102B9DED3E0B51ECE0
:10325000100BFDF75DF8439142909DED420B51EC50
:10326000100BFDF793F999919890BF980830BF9093
:103270000023989A9998D21A984104DA01200EE412
:1032800000209890999001E0012008E400BFBF98C9
:10329000801CC499085CBA90C699BA98C860BF9857
:1032A000C01CC499085CB990C699B9980861BF98C8
:1032B000001DC0900020C2901DE00020C19010E0D1
:1032C000C199C09801442222C29802FB0011C498FF
:1032D000415CC198C0F11F00B0AA1154C198401CB4
:1032E000C190C1982028EBDB2021B0A8FCF7C7FFD4
:1032F000C298401CC290B999C2988842DDDB222254
:10330000B999C09802FB0100C090C099C498405C74
:10331000B890C699B8984861C098401CC0900020E9
:10332000C29076E00020C19015E0C199C098014498
:103330003C22C29802FB0011C498425CC69800F57A
:10334000D470C29900EB4111C198C0F11F000A541A
:10335000C198401CC190C1982028E6DBC69800F5B2
:10336000D471C29801EB4010539001F011FF014657
:10337000C69801720020C19012E0C09800F12001AF
:103380003C22C29802FB0011C1980144C498415CE0
:10339000C198C0F10700AEAA1154C198401CC19059
:1033A000C1980828E9DBAEA800F08EFAC69A02F5AB
:1033B0003A72C29B02EBC30203C20020C19010E02C
:1033C000C09828303C22C29902FB0101C1980144F7
:1033D000C498415CC198401CA8AA1154C198401CD3
:1033E000C190C1981428EBDB9AAB9BAA1521A8A821
:1033F00000F044F8C29800EB8001C698183000EB4A
:10340000C10053909BA99A9AFCF712FFC298401CE6
:10341000C290B899C298884284DB3C22C099B8987F
:1034200002FB0010C090C599C098884201D10020CD
:1034300025E7012023E700000000000000002E40E7
:103440000146302901DAFF207047392902DCA1F159
:103450003000F9E7412901DAFF20F5E7462902DCCF
:10346000A1F13700F0E7612901DAFF20ECE76629D6
:1034700002DCA1F15700E7E7FF20E5E72DE9F04185
:10348000ADF58C6D0646884617461D464FF4007113
:1034900081A8FCF7F4FE4FF4007101A8FCF7EFFEE1
:1034A000202000906B460DF2244241463046FEF744
:1034B00017FD6B460DF2044220210DF22440FEF769
:1034C0000FFD002404E0305D0DF244410855641CFA
:1034D000152CF8DB002408E00DF20440015D04F136
:1034E00015000DF244421154641C042CF4DB01AAB3
:1034F00019210DF2444003F0B7FE81A901A803F0A1
:1035000025FE81A800F070FB0848FCF7C3FE286088
:10351000002403E00548005D3855641C2868A0427B
:10352000F8DC0DF58C6DBDE8F0810000987B012082
:1035300070B485880468012D02BF2368002B012325
:1035400012D0AB006FF0030606EB85054FF07F4C01
:1035500054F8054014EA0C0F06D1BCF1000F1CBF53
:103560004FEA1C2C5B1EF5D1DC174FF0000C03EB6F
:1035700094740CE00568CCF1000603EB860655F860
:103580002C500E442DBA46F8045C0CF1010CBCEB37
:10359000A40FEFDB13F0030F1FD0006803F0030547
:1035A00003F0030450F82C0013F0010C03D00D4479
:1035B00005F8010C000AA4EB0C0CBCF1000F0CDDAB
:1035C00001EB0C04ACF1020C04F8010C000A04F845
:1035D000020C000ABCF1000FF2DC002A18BF1360D5
:1035E00070BC7047002812BF002941F2B8407047F4
:1035F000F8B50F46818800241646012905D10268D6
:103600001268002A08BF012312D08B006FF0030557
:10361000026805EB81014FF07F4C555815EA0C0FFD
:1036200006D1BCF1000F1CBF4FEA1C2C5B1EF5D16C
:103630000093B342C4BF41F2B540F8BDB919C91AED
:103640006A46FFF775FF0098311A00290EDD781ED3
:1036500011F0010F18BF00F8014F0099711A4910BD
:1036600004D0447000F8024F491EFAD10020F8BD82
:10367000002070470248034908600020704700009E
:103680006C560020E000002070B504460D46044949
:10369000D1F8180240210AF0BFFA002070BD0000E6
:1036A0006C56002070B490F907C091F9072094453A
:1036B0003FD183888C880122A34204BF0068096837
:1036C00003D9BCF1000F27D022E003D2BCF1000FD8
:1036D0002BD027E09D1AA61A50F8255051F82660E5
:1036E000B54204D1934224BF521C9342F2D2551EDC
:1036F000AB4202BF002070BC70479B1AA21A50F860
:10370000230051F82210884209D9BCF1000F03D0E0
:1037100070BC6FF00100704770BC02207047BCF1B4
:10372000000F02D070BC0120704770BC4FF0FF301A
:103730007047BCF1010F05D1002A02BF6FF00200F3
:1037400070BC7047032070BC70472DE9FC410646F1
:10375000354600244CE005F0C008B8F1000F09D050
:10376000B8F1400F0AD0B8F1800F0BD0B8F1C00FFC
:1037700010D10BE0002001A908550CE00F2001A991
:10378000085508E0F02001A9085504E0FF2001A930
:10379000085500E000BF00BFA806050E05F0C007F1
:1037A00037B1402F08D0802F0AD0C02F10D10BE0A6
:1037B00000200DF804000CE00F200DF8040008E0D4
:1037C000F0200DF8040004E0FF200DF8040000E0F4
:1037D00000BF00BFA806050E01A9085D012107F082
:1037E000E3F81DF80400012107F0DEF8601CC4B204
:1037F000022CB0DBBDE8FC8170B483888A79002498
:103800009A4209D202F1010C9C4537BF41F2B54002
:1038100041F2B54470BC7047C279CA7100228B80F6
:10382000002B09DDD0F800C00D685CF822C045F817
:1038300022C0521C9342F5DC8879801A431C002B6D
:1038400026DD01234FF0000C33EA0000634605D06B
:10385000D1F800C04CF822304FF0010C8D79AD1A30
:103860006D1C854214DD00BF0D6802EB0C060CF1E7
:10387000010C45F826300D6802EB0C06801C45F85B
:1038800026308D790CF1010CAD1A6D1C8542EBDCF4
:10389000204670BC704782880368012A01BF1868FF
:1038A00000280120704750016FF0030C0CEB8202DE
:1038B0004FF000419A5831EA02031EBF002949081F
:1038C000401EF8D1704700002DE9F0412DED0C8B22
:1038D00084B0074600210D460E460020009001905E
:1038E000029003906A460821384603F0BDFC00248C
:1038F0002CE02046FCF725FE41EC1D0BB0EE4D1AE6
:10390000F0EE6D1A9FED160B0DF062FCB0EE40BAB2
:10391000F0EE60BAC4F10F011DF80100FFF790FD51
:103920008046FCF70EFE53EC1B2BFCF798FD41EC98
:10393000190B28463146FCF715FE53EC192BFCF702
:10394000E7FCFCF723FE05460E46641C102CD0DB7A
:103950002846314604B0BDEC0C8BBDE8F081000078
:1039600000000000000030400121080307F0C0B84B
:103970002DE9F04FADF5017D91460D4680461E467E
:10398000B0225A4950A8FCF753FC0024202E1EBF39
:103990006FF003000DF5017DBDE8F08F05F119070B
:1039A00017F00F0F04D007F00F00C0F110042744E8
:1039B00028BA049030BA05902A4641466E4606A8B9
:1039C000FCF736FC802170194FF0000801766CB1CD
:1039D000183014F0010F18BF00F8018F610805D0EE
:1039E00080F8018000F8028F491EF9D1CDF80080DF
:1039F000CDF80480CDF80C800024CDF808800DF5BA
:103A0000A07B6E461CADCDF87080CDF87480CDF8EB
:103A10007880CDF87C80B8EB171F38BF0DF5F87AA9
:103A200017D200205FEA041101EB800255F8203024
:103A3000B25812BA5A404AF82020401C0428F3D346
:103A40005A4629467CA8FCF7CDFF641CB4EB171F2F
:103A5000E7D39DF803000024401C8DF803000DF50A
:103A6000A07B6E460DF1700A20ADCDF88080CDF8B8
:103A70008480CDF88880CDF88C80B8EB171F38BFD4
:103A80000DF5F87817D200205FEA041101EB8002EF
:103A900055F82030B25812BA5A4048F82020401C3D
:103AA0000428F3D35A4629467CA8FCF79BFF641CE4
:103AB000B4EB171FE7D324A91CA8FDF71DF924AA0E
:103AC00049460AF11000FCF78DFF99E80F0020AC81
:103AD0000FC424AA09F110010AF11000FCF782FFBB
:103AE0000DF5017D0020BDE8F08F0000A44903081A
:103AF0002DE9F04188B016468846044600256F46F9
:103B0000E068401CE0600AD1A068401CA06006D1BB
:103B10006068401C606002D12068401C206007EB98
:103B2000051142462046FCF75DFF6D1C022DE7DBC8
:103B30000098316848402061019871684840606190
:103B40000298B1684840A0610398F1684840E0617C
:103B50000498316948402060059871694840606068
:103B60000698B1694840A0600798F1694840E06054
:103B700008B0BDE8F08170B503460C460021002076
:103B800010E0165C451C555D46EA0526851C555D12
:103B900046EA0546C51C555D46EA056543F82150D1
:103BA000491C001DA142ECDB70BD70B503461446F4
:103BB0000020002215E011F820509D5431F82050CB
:103BC000C5F30726551C5E5551F82050C5F307462E
:103BD000951C5E5551F820502D0ED61C9D55401C4D
:103BE000121DA042E7DB70BD2DE9F043ADF2044D9C
:103BF000064600274FF4007181A8FCF740FB4FF404
:103C00000072304901A8FCF713FB4FF400712E48F5
:103C1000FCF735FB002403E0305D81A90855641CE6
:103C20003046FCF737FBA042F6D800BF81A8FCF76E
:103C300031FB804601A8FCF72DFB81464B4601AACB
:103C4000414681A80EF0A2FC05464FF4007181A800
:103C5000FCF715FB002404E01C48005D81A9085511
:103C6000641CAC42F8DB022D09D118484178007879
:103C7000303800EB800001EB4000A0F13007012D4F
:103C800003D112480078A0F130074FF4007101A869
:103C9000FCF7F5FA0EA101A8FCF711FB022DC5DC1B
:103CA0003A2FC3DC0B48C15D07480B4A12688154A8
:103CB00007F0DEFE0020084908600DF2044DBDE863
:103CC000F0830000C8300308987B01209879012018
:103CD00035380000DC010020D8010020F0B5ADF23D
:103CE000046D05460E464FF400710DF20440FCF7DA
:103CF000C6FA4FF4007181A8FCF7C1FA4FF40071C5
:103D000001A8FCF7BCFA002400BF0DF204412846CC
:103D100000F031F82846FCF7BDFA0746791E685CCA
:103D200000EBD0714910A0EB41013031CBB22146FC
:103D3000641C81AA53540DF204412846FCF7BFFAD3
:103D400028783028E1D1002081A9085581A807F002
:103D50008FFE01A981A80EF0E5FD002403E001A873
:103D6000005D3055641C01A8FCF794FAA042F6D817
:103D70000DF2046DF0BD2DE9F04706460D46307892
:103D8000322809DA3046FCF785FA012804D13020C0
:103D900028700020E87346E03046FCF77BFA814645
:103DA00000273178A1F1300000EBD0714910A0EB71
:103DB000410A307831280ADD3178A1F1300000EB7A
:103DC000D07149103031CBB239467F1C6B544FF063
:103DD000010824E016F808000AEB8A0100EB410014
:103DE000A0F13004022C0ADA302238467F1C2A5413
:103DF000204604EBD0714910A4EB410A0DE02046A7
:103E000004EBD07149103031CBB239467F1C6B5472
:103E100004EBD0714910A4EB410A08F10108C84530
:103E2000D8DB0020E855BDE8F08700002DE9F04F11
:103E3000A3B0044688461646DDE92D7ADDF8B09039
:103E4000002500201790079006900590D8F800B044
:103E5000D8F804001790331D32685846179903F0BC
:103E600027F905461DB1284623B0BDE8F08F18A8F4
:103E700006F08AFE05460DB10020F5E73E480890A1
:103E80000020ADF826004FF46060ADF824002068F3
:103E90000A90A0680C9060680E90E068109020690D
:103EA000129060691490A0690B90E0690D90606AAF
:103EB0001190206A0F90A06A1390E06A159008A9EB
:103EC0000AA800F0A3F9054605B150E008AA0AA91E
:103ED00006A800F0DFFA054605B143E0202251466E
:103EE000069800F0C5FB054605B136E008AA0AA908
:103EF00005A800F03DFC054605B12EE00AA8039098
:103F00000698029018A8049008A8009002ABD6E981
:103F10000001059A00F06AFC054605B118E009F1B8
:103F20000402D9F80010069800F030F9054607F1B0
:103F3000080300213A68059800F0C8FB054607F120
:103F40000C0301217A68059800F0C0FB054300BF0F
:103F500008A905A800F09EFB00BF08A906A800F06C
:103F60009FF800BF08A907A800F079F800BF18A8BB
:103F700006F040FE284677E7306A012030B504009D
:103F80000D464FF0000018BF002D27D021680029F2
:103F90001CBFA168002921D0296800291FBF6A68B9
:103FA000002AAA68002A19D0227B2A73227B12F0E9
:103FB000020F18BF30BD2068FFF71EFC002818BF95
:103FC00030BD69686068FFF717FC002818BF30BD76
:103FD000A968A068BDE83040FFF70EBC41F254402C
:103FE00030BD002812BF002941F25440704730B55F
:103FF0000446006B0D4600281FBF01680029816838
:10400000002904BF41F2534030BD294608F08FFA21
:10401000206B2946083008F08AFA206BC16819B174
:104020000C30294608F083FA206B416819B1001D55
:10403000294608F07CFA206B016919B11030294635
:1040400008F075FA206B416919B11430294608F05F
:104050006EFAE8881838E8800020206330BD002818
:1040600012BF002941F25440704730B50446006841
:104070000D46002804BF41F2534030BD083008F01F
:1040800056FA20682946001D08F051FA2946206892
:1040900008F04DFAE8881038E8800020206030BD34
:1040A000002812BF002941F25440704730B5054640
:1040B00000680C46002804BF41F2564030BD08F0AD
:1040C00036FAE088001FE0800020286030BD000044
:1040D00038B5144600221D460092002818BF002C57
:1040E00020D0002D1CBF0268002A1BD04368002B83
:1040F0001CBF8368002B15D0927992002A60A1B171
:10410000012917D0022918BF41F2544017D01E4A86
:10411000012191609168116800914B1CA4F101018B
:1041200019D111E041F2544038BD00682146FFF733
:1041300059FAECE740682146FFF754FAE7E7806850
:104140002146FFF74FFAE2E7009B136012680092E6
:10415000002A08BF38BD227802F05F0222702B6867
:1041600082F055025B1E04EB63031A702A6894F810
:1041700000C0535C4CF0AA0C83EA0C03535429682A
:104180004910296038BD00000030024038B50D46A6
:10419000002114460091002819BF002D002C41F287
:1041A000544038BD016889798A0022600068294638
:1041B000FFF718FA144A0121916091681168009183
:1041C0004B1CA5F1010106D1009B136012680092FF
:1041D000002A08BF38BD2A7802F05F022A702368DF
:1041E00082F055025B1E05EB63031A70226895F896
:1041F00000C0535C4CF0AA0C83EA0C0353542168B2
:104200004910216038BD000000300240F0B50E4674
:10421000040014BF002E41F2544500F0CB80206909
:1042200000281CBF6069002839DD442837DC21687C
:10423000002934D06168002931DB44292FDCA169D1
:1042400000291CBFE169002929DD442927DC3168E8
:1042500029B3C01C20F00300B28800EB40006023AB
:1042600003EB4000904288BF40F2ED357ED8F088E5
:1042700008442063F0881830F080206B002804BFC9
:1042800040F2ED30F0BD61690830C91C8908324642
:1042900008F02CF905004FF0000703D086E041F24A
:1042A000534587E060693246C01C8108206B08F0E6
:1042B0001DF9050075D1206B0268D4E900010AF0F0
:1042C000F9FA206B8268D4E904010AF0F3FAE06994
:1042D0003246C01C8108206B0C3008F007F905003D
:1042E0005BD1206BC268D4E906010AF0E3FA206BC7
:1042F0004760206B0761206B4761A06898B1E06858
:10430000002810DD44280EDAC01C8108206B3246DC
:10431000001D08F0EBF805003AD1206B4268D4E9A3
:1043200002010AF0C7FA206A00281CBF606A002850
:1043300040DD44283EDAA16A00291CBFE16A002959
:1043400038DD442936DAC01C8108206B3246103033
:1043500008F0CCF8050016D1206B0269D4E90801F9
:104360000AF0A8FAE06AC01C810800E022E0206B95
:104370003246143008F0BAF80500206B1CD010301B
:10438000314608F0D4F8206B3146001D08F0CFF814
:10439000206B31460C3008F0CAF83146206B08F02B
:1043A000C6F8206B3146083008F0C1F8F08818389C
:1043B000F08027632846F0BD4269D4E90A010AF07B
:1043C00079FAF7E7002919BF002A002841F2544082
:1043D000704770B50446086B15460E4600281FBF8F
:1043E0002A68002A8168002904BF41F2534070BD49
:1043F000E8888979342301EB410103EB8101AB8823
:104400000144994284BF40F2ED3070BD10442060F9
:10441000E8882A461030E880306B8068817920680F
:1044200008F064F8D8B9306B2A4680688179206832
:10443000001D08F05BF870B9306B2A4680688179FE
:104440002068083008F052F8002820680FD0001DBE
:10445000294608F06CF82946206808F068F8E888D2
:104460001038E8800020206040F2ED3070BD006818
:10447000002103F0DBF820680021406803F0D6F843
:1044800020680121806803F0D1F8216801200873B9
:10449000002070BD002919BF002A002841F25440B5
:1044A000704730B50446086B00281FBF1368002B07
:1044B000D0F80CC0BCF1000F04BF41F2534030BD36
:1044C000D0889CF806C0102505EB8C0C9588844498
:1044D000AC450CD81818206009D0D088001DD080B9
:1044E000086BC0688179206808F000F810B140F2CC
:1044F000ED3030BD20680021006803F097F80020FF
:1045000030BD00002DE9F04186B014460C9A1F46DC
:104510000E465FEA000818BF002E29D0002C1CBFF1
:10452000002F002A24D0386B002802BF41F25340EC
:1045300006B0BDE8F0818368002B19BF0068002831
:1045400041F2574006B008BFBDE8F081306800284E
:1045500019BF0068002841F2564006B008BFBDE808
:10456000F08102A9184605F083F8050005D011E096
:1045700006B041F25440BDE8F08102A800903B46ED
:1045800022464146306805F09DFE050006D002A88F
:1045900005F067FD06B02846BDE8F081214602AA75
:1045A000084606F04DF8054602A805F05AFD002D14
:1045B000F0D1207B10F0020F18BF41F25845E9D12D
:1045C0000A48012121738160816801684A1C02D177
:1045D0000160006828B1D4E900012160A168C4E944
:1045E000011006B00020BDE8F0810000003002405C
:1045F00078B504004FF000000E46009014BF002E66
:1046000041F254452FD0306B00281FBF0269002AA9
:104610004069002808BF41F2534524D01046216864
:10462000FFF7EAF805001ED1306B61684069FFF7BB
:10463000E3F8050017D10121A06802F0F7FF0B484D
:1046400001218160826802680092521C04D1009AA4
:1046500002600068009028B1D4E900022260A268DC
:10466000C4E901202173284678BD000000300240D3
:1046700094460B46002812BF002B41F2544070476D
:104680000268002A04BF41F256407047614618464E
:104690000AF010B9002812BF002941F254407047B7
:1046A00030B5044600680D46002804BF41F254406E
:1046B00030BD07F03CFF20682946001D07F037FF9A
:1046C000E8880838E8800020206030BD38B51446FE
:1046D00000221D460092002818BF002C1AD0002D81
:1046E0001FBF0268002A4368002B13D09279920002
:1046F0002A6091B1012918BF41F2544012D01B4ADF
:10470000012191609168116800914B1CA4F1010195
:1047100014D10CE041F2544038BD00682146FEF748
:1047200061FFECE740682146FEF75CFFE7E7009B8E
:10473000136012680092002A08BF38BD207800F08C
:104740005F0020702A6880F05500521E04EB620260
:10475000107028682378425C43F0AA035A40425400
:1047600028684010286041F2544038BD00300240B3
:10477000002919BF002A002841F25440704770B543
:104780000546086B14460E4600281FBF2168002905
:10479000C268002A04BF41F2534070BDE08892799C
:1047A000202303EBC202A38802449A421BD8084488
:1047B0002860E08822460830E080306BC06881794C
:1047C000286807F093FE70B9306B2246C068817983
:1047D0002868001D07F08AFE002808BF70BD21462A
:1047E000286807F0A4FE40F2ED3070BD2DE9FF4FC0
:1047F00097B00020019009900390029004900690D9
:1048000017981D4600281CBF199800283DD0002D80
:104810001CBF2498002838D0686800281FBF29686A
:104820000029A968002934D02499096800291CBFEF
:10483000006B00282DD0C16800291CBF0269002A26
:104840002BD08268002A1CBF0068002825D024983D
:104850009279C08802EB420200EBC202887902EB37
:10486000001101F19C02249989888A4288BF40F294
:10487000ED3B00F2F880411C03A8249A07F036FEB5
:104880005FEA000B40F0EF800BE041F2544B00F088
:10489000EAB841F2534B00F0E6B841F2574B00F052
:1048A000E2B86868249A006BC068817902A807F0B2
:1048B0001DFE5FEA000B6FF003077DD1696806A853
:1048C000249AFFF77FFD5FEA000B76D1696804A8A0
:1048D000249AFFF777FD5FEA000B6DD169680498B1
:1048E000FFF786FE68680CA9249A006B806804F0C4
:1048F000BFFE5FEA000B7DD16868039C006BC06857
:104900000B90D5F80880FEF7C6FF06461F30C1178A
:1049100000EBD160C0F3471AC0F34F194FEA89008A
:10492000139006F01F00C0F120004FF0FF3121FA74
:1049300000F01190A17940468A4502D941F2B54B69
:1049400076E00021E171A4F8049006F01F0B2268C4
:10495000139B06F073F90246A088401EBBF1000FBE
:1049600007D02168119B51F820C00CEA030341F8DD
:104970002030A088012808D9216807EB8003C95896
:10498000002904BF401EA080F3D00AB193464FE037
:1049900020460B99FEF786FE0028CBDA0398818823
:1049A000012903D1016809680029A5D00CA900914B
:1049B0006B68069A049901E041E044E005F082FC4E
:1049C0005FEA000B34D106990CAA084605F038FEC0
:1049D0005FEA000B2CD106980068C079012812D13B
:1049E00069680698249B096B0068C9680246FCF751
:1049F00047FE00E01FE05FEA000B19D1069800684F
:104A0000C0790128ECD06868006BC168069800681E
:104A1000FEF748FE00280698006828DB6968024611
:104A2000249B096BC96807F0ABFD5FEA000BEAD075
:104A30000CA805F016FB04A82499FFF710FB06A8A4
:104A40002499FFF70CFB03992498002918BF00282C
:104A500009D08979C288494207EB8101114408399C
:104A6000C180002003901BB05846BDE8F08F8188BC
:104A7000012904D10068006800283FF43DAF0CA86C
:104A800005F0EFFA04A82499FFF7E9FA686803999A
:104A9000249B006BC268084604F0AFFC5FEA000B81
:104AA000CDD1069802990068FEF7A6FE06A82499C3
:104AB000FFF7D5FA6868249A006BC068817901A86D
:104AC00007F014FD5FEA000B40F07B816868249AD0
:104AD000006BC068817909A807F008FD5FEA000B48
:104AE00040F05F8168680CA9249A006BC06804F0EC
:104AF000BFFD5FEA000B40F04481029A0CAB104608
:104B00000D9905F0C7FA044628680D990CAB0068AA
:104B1000019A05F0BFFA039A04430CAB10460D99B5
:104B200005F0B8FA50EA040B40F02881DDE90101F4
:104B30000CAB099A05F0AEFA5FEA000B40F01E815B
:104B40006868006BC368B3F804C0BCF1010F05D1FD
:104B500018680068002808BF01210ED01A6807EB0A
:104B60008C044FEA4C1112594FF0004030EA020415
:104B70001EBF00284008491EF8D11898B1EBC00F9D
:104B80007DDABCF1010F05D118680068002808BF64
:104B900001220ED0196807EB8C034FEA4C12C9585A
:104BA0004FF0004030EA01031EBF00284008521EAB
:104BB000F8D1D01DC11700EB5170C01018900146FC
:104BC000019A179809F076FE69680198096BCB681D
:104BD000B3F804C0BCF1010F05D1196809680029B8
:104BE00008BF01210FD04FEA4C111B6807EB8C0C5A
:104BF0004FF0004253F80C3032EA030C1EBF002A7B
:104C00005208491EF8D1189AD1EBC20160D0202970
:104C10005ED28288012A45D000234FF0010C3CEA85
:104C200002020DD00368C1F12006D3F800C05C6811
:104C30002CFA01FCB4404CEA040CC3F800C0012378
:104C4000B0F804C0ACF1010C944584BF4FF0040CE3
:104C5000C1F1200426D906680CEB830956F823809D
:104C600056F8099028FA01F809FA04F948EA0908FF
:104C700046F8238006685B1C56F8238000E022E09B
:104C80000CEB830928FA01F856F8099009FA04F99F
:104C900048EA090846F8238086885B1C921C761E29
:104CA0009642D8D88288036807EB820253F802C084
:104CB0003CFA01FC43F802C0818809D101291CBFDC
:104CC000491E818004E00146019A179809F0F2FD1F
:104CD000019A0CAB10460D9905F0DCF95FEA000B68
:104CE0004CD16A680198249E126B04460999D2F847
:104CF0000C8033462246FCF7C3FC5FEA000B04D06D
:104D0000A179A088491C884238D141462046FEF747
:104D1000C9FC002805DB224633464146104607F011
:104D20002FFCA088A179884202D941F2B54B25E039
:104D3000039A0CAB1046019905F0ACF903990CAA43
:104D4000084604F068FC02990CAA084604F063FCCB
:104D500003988188012904D10068006800283FF485
:104D6000CBAD199801680298FEF746FD04461998E4
:104D700041680398FEF740FD40EA040B0CA805F0DB
:104D800070F902992498002918BF002809D0897960
:104D9000C288494207EB810111440839C1800020D3
:104DA000029001992498002918BF002809D0897918
:104DB000C288494207EB810111440839C1800020B3
:104DC000019009992498002918BF00283FF43BAEB0
:104DD0008979C288494207EB810111440839C180B1
:104DE000002009902FE6000030B5039C0D4D0560B2
:104DF0000D4D85600D4D45600D4DC5600D4D056136
:104E00000D4D456120258561C5614562056285625C
:104E1000C5620A4D0D600A4D4D600A4D15600A4D80
:104E2000556030BD023003082230030842300308C9
:104E30006230030882300308A23003085078012052
:104E400082780120B4780120E678012010B5012095
:104E500000F076FB10BD10B5042000F071FB10BD12
:104E600010B5002201B909E0012901D10A0205E0CB
:104E7000022901D10A0201E04FF44072114B1B6874
:104E800023F440730F4C236023461B6813432360B5
:104E900023461B6823F0F803236023461B68F8248D
:104EA00094FAA4F4B4FA84F400FA04F444F002048A
:104EB0002343044C236023461B6843F48033236060
:104EC00010BD0000103C024010B5024600200A4B05
:104ED0001B6823F44073084C236023461B6803437C
:104EE000236023461B6843F00403236023461B68AA
:104EF00043F48033236010BD103C0240074A12681F
:104F000022F44072054B1A601A4612681A601A465B
:104F1000126842F001021A6001707047103C0240B2
:104F200010B50949096821F44071074C21602146F8
:104F3000096841F4407121602146096841F001018E
:104F400021600260436010BD103C0240084A1268B4
:104F500022F44072064B1A601A46126842F48072BC
:104F60001A601A46126842F001021A600180704706
:104F7000103C0240084A126822F44072064B1A6044
:104F80001A46126842F400721A601A46126842F019
:104F900001021A6001607047103C0240214800681D
:104FA00000F0100028B12048C06940F010001E49F0
:104FB000C8611C48006800F0200028B11A48C06988
:104FC00040F008001849C8611648006800F0400029
:104FD00028B11548C06940F004001349C861114860
:104FE000006800F0800028B10F48C06940F002005E
:104FF0000D49C8610B48006800F4807028B10A4868
:10500000C06940F001000849C8610648006800F026
:10501000020028B10448C06940F020000249C8617C
:10502000704700000C3C0240445E002070B504460E
:10503000002500201049C86100F09AFB054609E0F0
:10504000601C38B124B100F093FB401BA04201D991
:10505000032070BD0948006800F480300028EFD1BB
:105060000648006800F4F97018B1FFF797FF0120B7
:10507000EFE70020EDE70000445E00200C3C02401A
:1050800030B48288012A05D101680968002904BF6B
:1050900030BC70470021012A12D0521E4FF0040C80
:1050A00003680CEB810553F821405D5D640844EA18
:1050B000C57443F82140491C521EF1D18188491E14
:1050C000026852F821305B0842F8213081880129BA
:1050D0009CBF30BC7047002B04BF491E818030BC90
:1050E00070472DE9F04782460C4615461E46089F3C
:1050F00005F11C02D1B204F11C02D0B207F06AF82B
:105100003946304607F076F807F084F84FF000088B
:1051100016E04FF000090BE00121504605F044FC79
:105120000121504605F040FC09F1010000F0FF09A3
:10513000281B401C4845EFDC08F1010000F0FF0887
:10514000B81B401C4045E4DCBDE8F08770B506465E
:105150007721002007F03EF87F21002007F04AF871
:1051600007F058F800240FE0002509E0012130463F
:1051700005F01AFC0121304605F016FC681CC5B28A
:10518000782DF3DB601CC4B2802CEDDB70BD000019
:1051900030B591B00546202215A109A8FBF748F8C3
:1051A00020221BA101A8FBF743F8002406E0285D9C
:1051B00009A9095D884200D002E0641C202CF6DBBE
:1051C00000BF202C02D1002011B030BD002406E029
:1051D000285D01A9095D884200D002E0641C202CF2
:1051E000F6DB00BF202C01D10120EDE7FF20EBE72B
:1051F000602C79718B16E442DE58778E148D0B107B
:1052000084E3B2DFFD5DE6B7B16CEE7969282DE786
:10521000C56F33FC6ECFCD0C225C4AB356FEE593CE
:1052200090AF8560BE0E930FAEBE74A6DAFF7C9B76
:105230002DE9F04105460E460027002405E0285DD3
:10524000B04201D1274605E0641C2846FBF722F84E
:10525000A042F4D800BF3846BDE8F08100B505484B
:1052600006F05EFF0246501C08B9002000BD104643
:10527000FCE70000000004082DE9F0438BB006466F
:105280000C460025164FA846282101A8FAF7F7FF7B
:105290001BE0384606F044FF804608F1010098B153
:1052A000B8F1000F10D00A2201A9384606F028FFF5
:1052B00001A8FAF7EFFF81464A46314601A8FBF7FD
:1052C00007F800B903E06D1C5037A542E1D300BFD9
:1052D000A54203D100200BB0BDE8F0833846FAE7C1
:1052E0000000060800B5084A05E05032B2F1016F2F
:1052F00001D9002000BD104606F012FF401C002816
:10530000F3D11046F6E700000000060810B5044689
:1053100006222146014806F0F3FE10BD00040408F1
:1053200010B504460CB9012010BD607920B90020E9
:105330002071204600F006F80220607101206071A3
:105340000020F1E708B5094A016891420DD100BF7C
:105350000749096841F48051054A116011460968FE
:1053600001F48051009100BF00BF08BD0030024031
:105370003038024031B5002400F0FAF9044600BF8D
:1053800000F0F6F9001B00998842F9D338BD0000FF
:105390002DE9F04104460E460127002500BF2748AD
:1053A000007E012802D10220BDE8F08101202349BE
:1053B000087600BF4CF25030FFF738FE0746002F4A
:1053C00034D1401E3060206801280FD1207C6168F4
:1053D000FFF77AFD4CF25030FFF728FE07461848D9
:1053E000006820F00400164908601FE0A56817E077
:1053F000217C2846FFF734FD4CF25030FFF716FEB3
:1054000007460F48006820F002000D490860084672
:10541000006820F0F80008600FB1356005E06D1CF1
:10542000D4E902100844A842E2D800BF00BF00201F
:105430000249087600BF3846B6E70000445E002007
:10544000103C02400348006840F0004001490860F9
:1054500000207047103C02402DE9F04106460F46FF
:1054600014461D464FF0010800BF1F48007E01286A
:1054700002D10220BDE8F08101201B49087600BF5F
:105480004CF25030FFF7D2FD8046B8F1000F23D127
:1054900026B9E1B23846FFF731FD12E0012E04D102
:1054A000A1B23846FFF752FD0BE0022E04D121468F
:1054B0003846FFF75FFD04E022462B463846FFF7EB
:1054C0002FFD4CF25030FFF7B1FD804607480068D1
:1054D00020F001000549086000BF0020024908765D
:1054E00000BF4046C6E70000445E0020103C02407A
:1054F0000748006800F0004030B1064804490C3904
:1055000008600548086001E0012070470020FCE7C2
:10551000103C024023016745AB89EFCD10B504462E
:105520006420FFF727FF012C04D0042C05D1FBF7E2
:10553000E3FC03E001F0CCFE00E000BF00BF10BDC3
:1055400010B5044604480068204020B102480460B9
:105550002046FFF7E3FF10BD143C0140F8B50246BA
:105560000B460025002400200021DFE0012606FA7A
:1055700001F51E6806EA0504AC4271D15E68022E90
:1055800002D05E68122E13D1CF0802F1200656F821
:1055900027004E07F70E0F26BE40B0434F07FF0E01
:1055A0001E69BE403043CF0802F1200646F82700AE
:1055B00010684F000326BE40B0431E7906F0030674
:1055C0004F00BE40304310605E68012E08D05E6818
:1055D000022E05D05E68112E02D05E68122E13D105
:1055E00090684F000326BE40B0434F00DE68BE40C7
:1055F00030439060506801268E40B0431E79C6F358
:1056000000168E4030435060D0684F000326BE40E5
:10561000B0434F009E68BE403043D0605E6806F0E5
:105620008056B6F1805FA8D100BF424E366846F47E
:105630008046404F3E603E46366806F480460096FF
:1056400000BF00BF3C4E8F0856F827008E07370F6B
:105650000F26BE40B043394EB24202D1002629E0A7
:1056600063E0374EB24201D1012623E0354EB2420B
:1056700001D102261EE0344EB24201D1032619E0C8
:10568000324EB24201D1042614E0314EB24201D171
:1056900005260FE02F4EB24201D106260AE02E4E1B
:1056A000B24201D1072605E02C4EB24201D10826B4
:1056B00000E009268F073F0FBE4030431E4E8F0883
:1056C00046F82700264E3068A0435E6806F4803610
:1056D000B6F5803F00D12043214E3060361D306842
:1056E000A0435E6806F40036B6F5003F00D12043C3
:1056F0001B4E361D3060361D3068A0435E6806F4D0
:105700008016B6F5801F00D12043154E0836306054
:10571000361D3068A0435E6806F40016B6F5001F1B
:1057200000D120430E4E0C363060491C1029FFF486
:105730001DAFF8BD44380240083801400000024067
:105740000004024000080240000C02400010024029
:105750000014024000180240001C024000200240D9
:10576000003C01400AB1816101E00B048361704794
:1057700001480068704700000C01002002480068E2
:10578000401C0149086070470C01002010B50D480D
:10579000006840F400700B4908600846006840F457
:1057A000806008600846006840F48070086005204A
:1057B00000F072F8002000F007F800F017F8002061
:1057C00010BD0000003C024070B5044600F098FF98
:1057D0004FF47A71B0FBF1F5284601F0A6FA0022E9
:1057E0002146501E00F019F8002070BD10B50320AE
:1057F00000F052F800221146501E00F00EF810BDC5
:1058000000BF00F01F02012191404209920002F105
:10581000E022C2F8001100BF70472DE9F05F80461A
:105820000D461646002704F0EFFE074639462A4685
:10583000334601F00700C0F1070ABAF1040F02D99C
:105840004FF0040A01E0C0F1070AD14600F1040A52
:10585000BAF1070F02D24FF0000A01E0A0F1030AEB
:10586000D4464FF0010A0AFA09FAAAF1010A0AEA33
:10587000020A0AFA0CFA4FF0010B0BFA0CFBABF11F
:10588000010B0BEA030B4AEA0B042146404604F0E5
:10589000C3FEBDE8F09F000000BF00F00702064B0A
:1058A00019684FF6FF031940044B0B4343EA0221EA
:1058B000014B196000BF70470CED00E00000FA05D5
:1058C00002461068416200207047F0B50346144656
:1058D000002500221868426A21B942EA04401E6885
:1058E000B06219E01868806A02EB1042002508E0F7
:1058F000186800F5827050F8250002EB1042681C11
:10590000C5B2481EA842F3DC42EA0447186800F515
:1059100082704E1E40F826700020F0BD10B504467F
:10592000D4F8B00307F078FD10BD70B504460D46FD
:10593000C5EBC50304F1340101EB8301CA682946B4
:10594000D4F8B00307F0B8FC70BD70B504460D463E
:10595000C5EBC50304F5EC7101EB8301CA68294668
:10596000D4F8B00307F015FD70BD10B50446D4F8A7
:10597000B00307F054FD10BD70B504460D4605F0A8
:105980008000802808D105F07F00C0EBC00104F141
:10599000340000EB810607E005F07F00C0EBC0019A
:1059A00004F5EC7000EB810605F07F00307005F027
:1059B0008000C009707000BF94F87C03012801D1F9
:1059C000022070BD012084F87C0300BF31462068AE
:1059D00008F036F900BF002084F87C0300BF00BF48
:1059E000EFE770B504460D4605F08000802808D129
:1059F00005F07F00C0EBC00104F1340000EB81062C
:105A000005E0C5EBC50104F5EC7000EB8106002054
:105A1000B07005F07F003070C5F3C010707000BF2B
:105A200094F87C03012801D1022070BD012084F884
:105A30007C0300BF3146206808F044FB00BF002013
:105A400084F87C0300BF00BFEFE72DE9F04705466F
:105A50000E4690461F464FF0000906F08000802851
:105A600008D106F07F00C0EBC00105F1340000EB67
:105A7000810407E006F07F00C0EBC00105F5EC7083
:105A800000EB810406F07F00207006F08000C00962
:105A90006070C4F80880E770607808B12078E08012
:105AA000022F01D10020207100BF95F87C0301284E
:105AB00002D10220BDE8F087012085F87C0300BFF9
:105AC0002146286807F0C6FF00BF002085F87C0348
:105AD00000BF4846EEE72DE9F04104460E46174662
