:020000040801F1
:10000000F89D0120A1010108A9010108E56E010880
:10001000AD010108AF010108B101010800000000B5
:10002000000000000000000000000000B301010813
:10003000B501010800000000B7010108D3C501089F
:10004000BB010108BB010108BB010108BB0101089C
:10005000BB010108BB0101088D4E0108BB0101086D
:10006000974E0108BB010108BB010108BB01010853
:10007000BB010108BB010108BB010108BB0101086C
:10008000BB010108BB010108BB010108BB0101085C
:10009000BB010108BB010108BB010108BB0101084C
:1000A000BB010108BB010108BB010108BB0101083C
:1000B000BB010108BB010108BB010108BB0101082C
:1000C000BB010108BB010108BB010108BB0101081C
:1000D000BB010108BB010108F5C80108BB0101080B
:1000E000BB010108BB010108BB010108BB010108FC
:1000F000BB010108BB010108BB010108BB010108EC
:10010000BB010108BB010108BB010108BB010108DB
:10011000BB010108BB010108BB010108BB010108CB
:10012000BB010108BB010108BB010108BB010108BB
:10013000BB010108BB010108BB010108BB010108AB
:10014000BB010108BB010108BB010108E5A70108CB
:10015000BB010108BB010108BB010108BB0101088B
:10016000BB010108BB010108BB010108BB0101087B
:10017000BB010108BB010108BB0101080000000030
:10018000BB010108BB010108DFF810D000F098FBAB
:1001900000F0AEF800480047E92B0208F89D012066
:1001A0000648804706480047FEE7FEE7FEE7FEE711
:1001B000FEE7FEE7FEE7FEE7FEE7FEE76DC60108A5
:1001C000890101082DE9F0410024061B254671F143
:1001D000000605DA01240027D0EB070067EB0101D8
:1001E000161E73F1000605DA0027D2EB070201257F
:1001F00067EB030300F007FA86460E4617469C4657
:10020000AC4204D00025D0EB050E65EB010624B10D
:100210000020D2EB000760EB030C704631463A46F3
:100220006346BDE8F081000000487047044B0208B7
:1002300010B5431A934209D28318881803E010F8C6
:10024000011D03F8011D521EF9D210BD40EA010341
:100250009B0703D009E008C9121F08C0042AFAD27C
:1002600003E011F8013B00F8013B521EF9D210BD2A
:10027000D2B201E000F8012B491EFBD270470022E8
:10028000F6E710B513460A4604461946FFF7F0FF95
:10029000204610BD421C10F8011B0029FBD1801A1A
:1002A000704710B5002200E0521C835C8C5CA342B6
:1002B00001D1002BF8D1D8B2E1B2401A10BD0346EB
:1002C00011F8012B00F8012B002AF9D118467047CC
:1002D00030B505460020034600E05B1C934205D282
:1002E000EC5CC85C201A01D1002CF6D130BD0000B6
:1002F00070B5054C054D03E0206820448047241D5F
:10030000AC42F9D170BD0000744B0208784B020872
:100310002DE9FE4F804681EA0300C00F0C46009095
:1003200021F0004123F00045B8EB0200A94105D2BD
:100330004046214690461C460B46024623F00040AC
:10034000104347D0270DC7F30A00C3F30A510290A8
:10035000401A019040286BDAC3F3130040F4801B6D
:100360000098924620B10023D2EB030A63EB0B0BFB
:1003700001985946C0F14002504600F075F9064612
:100380000D4650465946019A00F08DF910EB0800D1
:100390006141002487EA115284EAE7731A4340D08E
:1003A000009A62B3019A012A4FEA075215DC001B3A
:1003B00061EB02014FF0004202EA0752CDE9004230
:1003C000001C41F5801132462B4600F08DF903B038
:1003D000BDE8F08F40462146F9E7001B61EB0201C2
:1003E000001C41F5801300185B412018A2F500178E
:1003F00047EB030140EAD570B6196D4111E06D0875
:100400004FEA360645EAC0754FEA0752001B61EB1A
:100410000201001C41F5801149084FEA3000001923
:10042000514132462B4603B0BDE8F04F00F04DB9C4
:100430000098012240000023D0EB020263EBE0733E
:10044000009821464FEAE074B8EB000061EB04012C
:10045000E9E783F000435BE781F0004158E72DE9CD
:10046000FE4F81EA030404F0004421F000410094AF
:100470004FF0000B23F0004350EA01045ED052EA33
:1004800003045BD0C3F30A54C1F30A552C44A4F20D
:10049000F3340194A0FB0254C1F3130141F4801121
:1004A000C3F3130343F4801301FB024400FB034E28
:1004B000840A970A44EA815447EA8357A4FB0768F1
:1004C00002958D0A05FB07854FEA932C04FB0C541B
:1004D0002705029D4FEA065847EA1637B5EB08058F
:1004E0006EEB070C870E920E47EA811742EA8312E1
:1004F000A7FB0201B6EB0B0164EB00042B0D43EAF2
:100500000C335E1844EB1C50DA465146E7FB0201FF
:10051000C5F313044FEA0B3343EA14534FEA043292
:10052000019C43EA0603A4F10C040294009CCDE96B
:1005300000B400F0D9F803B0BDE8F08F0020014608
:10054000F9E70EB5C10F80EAE0700844CA07002140
:1005500040F233438DE80E000A460B4600F0C4F823
:1005600003B000BD3EB5CA17CB0F00245040514028
:10057000C0186141DA0740F233430094CDE901230A
:100580002246234600F0B0F803B030BD70B5C1F389
:100590000A5201F000450024C1F3130140F2FF3379
:1005A00041F480119A4202DA0020014670BD40F207
:1005B00033439A42A2F2334203DC524200F063F822
:1005C00001E000F051F82C43F0D00023D0EB030001
:1005D00063EB010170BDC1F30A52C1F3130140F294
:1005E000FF3341F480119A4202DA0020014670473D
:1005F00040F233439A42A2F2334202DC524200F00C
:1006000042B800F031B82DE9F05F0546002092466F
:100610009B4688460646814640241BE028464146C4
:100620004746224600F02FF853465A46C01A9141D9
:1006300010D311461846224600F016F82D1A67EB23
:1006400001084F4622460120002100F00DF817EB6B
:1006500000094E41201EA4F10104DFDC484631466A
:100660002A464346BDE8F09F202A04DB203A00FAE0
:1006700002F1002070479140C2F1200320FA03F3F9
:10068000194390407047202A04DB203A21FA02F0F7
:100690000021704721FA02F3D040C2F120029140BC
:1006A000084319467047202A06DBCB17203A41FA47
:1006B00002F043EAE07306E041FA02F3D040C2F1EF
:1006C0002002914008431946704710B5141E73F17B
:1006D000000408DA401C41F1000192185B411A4302
:1006E00001D120F0010010BD2DE9F04D92469B464E
:1006F00011B1B1FA81F202E0B0FA80F220329046F4
:10070000FFF7B2FF04460F4640EA0A0041EA0B0138
:1007100053465A46084313D0114653EA010019D0F4
:10072000C8F140025046FFF7AEFF05460E46504660
:1007300059464246FFF798FF084305D0012004E0E0
:1007400020463946BDE8F08D0020054346EAE076B4
:100750002C4337430A986305E40AA0EB0800002203
:10076000FD0A44EA47540A3002D500200146E9E771
:10077000010510196941DDE9084500196941BDE825
:10078000F04DA2E72DE9F04D81EA030404F0004B9F
:1007900021F0004514464FF0000A23F0004150EAD2
:1007A000050220D054EA01021DD0C5F30A570246C3
:1007B000C5F31303C1F31300C1F30A5640F48015C7
:1007C00043F48013A7EB0608101BD64608F2FD3849
:1007D00073EB050002D308F1010801E092185B41B8
:1007E000B8F1000F03DA00200146BDE8F08D0020CB
:1007F0004FF48011064684460EE0171B73EB050785
:1008000005D3121B63EB050306434CEA010C4908B0
:100810004FEA300092185B4150EA0107EDD152EAED
:10082000030012D082EA040083EA0501084305D0E0
:10083000101BAB4106D20122002306E000224FF03C
:10084000004302E06FF0010253101AEB06004CEB7C
:10085000085110EB0A0041EB0B01BDE8F04DFFF72A
:1008600034BF70B521F0004303430CD0C1F30A55E7
:100870000024D5EB040564EB0403D617AD1AB3418D
:1008800002DB0020014670BD201841EB025170BD13
:1008900030B5041E71F1000404DB4FF00044404207
:1008A00064EB0101141E73F1000405DB1C464FF0DC
:1008B0000043524263EB0403994208BF904230BDAB
:1008C000064C074D06E0E06840F0010394E807009D
:1008D00098471034AC42F6D3FFF75AFC544B020849
:1008E000744B02082DE9F04D00231A461B1A8A4169
:1008F00003DB00200146BDE8F08DC1F30A52C1F3CD
:10090000130141F480154FF0000BD10702D10018FC
:100910006D41521E0027044640F2FF11384601EB9C
:10092000620A3E468046024600204FF48011FFF7DF
:10093000AAFEC2197141BB1846EB0100B4EB030CCF
:1009400075EB000C04D3E41A65EB000517460E4660
:10095000241908F101006D4180463428E3DDF919BE
:1009600046EB0600091BA84103D24FF0FF321346A5
:1009700001E0002213461BEB070046EB0A51BDE8DD
:10098000F04DFFF7A2BE70B58D1810F8014B14F0B2
:10099000030201D110F8012B231106D110F8013BFD
:1009A00003E010F8016B01F8016B521EF9D1ABB1F5
:1009B00010F8012B04F00C048A1A0C2C03D0A2EBC3
:1009C00084129B1C08E010F8014BA2EB0422F8E70C
:1009D00012F8014B01F8014B5B1EF9D5A942D4D3A3
:1009E000002070BD2DE9F80FC04B4FF0010C4FF007
:1009F0000508C3F808C0D3F808C0D3F800C0CDF884
:100A000000C01CF1010C0AD04368D2F804C0006891
:100A100083EA0C07136880EA030C63460FE0DDF8F5
:100A200000C0C3F800C01B68009353B14368D2F8FC
:100A300004C0006883EA0C07136843409C46644680
:100A40000FE00368D2F800C0946883EA0C0743689B
:100A5000D2F804C083EA0C0C8368C0686340D46891
:100A60004440A3483D0E04F0FF0950F82560CCF344
:100A7000074550F8299050F8255007F0FF0A86EAFC
:100A80003525C3F3072650F82AA050F826600CF04D
:100A9000FF0B4FEA364686EA396675401669C3F39E
:100AA00007496E404FEA1C6550F8299050F82550D0
:100AB000CCF3072C85EA3925C4F3072950F82CC05C
:100AC00050F8299050F82BB04FEA394989EA3A6931
:100AD00085EA0905D2F81490C4F3074A85EA0905A6
:100AE0004FEA136950F82AA050F82990240E89EA99
:100AF0003A29C7F3072AC7F30747DBB250F82AA001
:100B000050F8244050F8277050F823304FEA3A4A02
:100B10004FEA3C4C8AEA3B6A84EA37248CEA336326
:100B200089EA0A0984EA030CD2F818A0D3692032B2
:100B3000A8F1010889EA0A098CEA0304B8F1000F58
:100B400069DD330EC5F3074C50F8233050F82CC044
:100B5000E7B283EA3C23C9F3072C50F8277050F81A
:100B60002CC006F0FF0A4FEA3C4C8CEA376C83EA53
:100B70000C03D2F800C050F82AA083EA0C072B0E11
:100B8000C9F3074C50F8233050F82CC005F0FF0B88
:100B900083EA3C23C4F3072CC5F3072550F82CC087
:100BA00050F825504FEA3C4C8CEA3A6C83EA0C032F
:100BB000D2F804C0C4F3074A83EA0C0C4FEA196365
:100BC00050F82AA050F82330240E83EA3A23C6F3C3
:100BD000072AC6F3074650F8244050F8266050F81C
:100BE0002AA084EA362409F0FF0650F82BB050F80A
:100BF00026604FEA3A4A4FEA35458AEA3B6A85EA77
:100C0000366583EA0A036C40D2F808A0D56883EA07
:100C10000A036C4026E7374850FA84F300EB166C61
:100C20001B789CF800C0C9F3072743EA0C63C5F39F
:100C3000074CC75D10F80CC04FEA0C4C4CEA072C6F
:100C400043EA0C03D2F800C083EA0C030B6050FAAD
:100C500086F300EB156C1B789CF800C0C4F30727E3
:100C600043EA0C63C9F3074CC75D10F80CC04FEAA8
:100C70000C4C4CEA072C43EA0C03D2F804C083EA7C
:100C80000C034B6050FA85F300EB196C1B789CF851
:100C900000C0C6F3072743EA0C6CC4F30743C75DE3
:100CA000C35C1B0443EA07234CEA0303D2F808C0E1
:100CB00083EA0C038B6050FA89F300EB146C1B7809
:100CC0009CF800C0C5F3072443EA0C63C6F3074C45
:100CD000D26810F80CC0005D4FEA0C4C4CEA0020C2
:100CE00018435040C860BDE8F80F7047003002401C
:100CF00088340208603202082DE9F003D0E900C30D
:100D00008268C068184CC1E90220E1E804C30A26E1
:100D1000A4F5007505EB1067C0F307483F7815F898
:100D2000088047EA0867C0F3072815F808804FEAEB
:100D3000084855FA80F999F8009048EA092847EAE6
:100D4000080787EA0C0C54F8047B8CEA070C83EA4A
:100D50000C035A405040C1E90220E1E804C3761E6A
:100D6000D8D1BDE8F00370476034020830B587B0D1
:100D70000024002500BF3748006840F004003549D2
:100D800008600846006800F00400019000BF00BF42
:100D900000BF0846006840F001000860084600688F
:100DA00000F00100019000BF00BF012002902A481E
:100DB00003900120049002A9284804F09FFB04201E
:100DC0000290254803900120049002A9244804F0D1
:100DD00095FB0820029001200390049003200590C9
:100DE00002A91F4804F08AFB01220221062004F018
:100DF000E4FC062004F0D4FC03220221082004F0C5
:100E0000DCFC082004F0CCFC06F0D2F900F08AF8F3
:100E1000052004F07FFA002006F058F90446214628
:100E200010A010F055F900F065FA01201349087080
:100E300000201349087013490870012006F046F994
:100E40000546294610A010F043F900F027F807B036
:100E500030BD000030380240000021100000024088
:100E600000080240415739313336206368697020E9
:100E700049443A30782534780D0A00006C5500203A
:100E80006D5500206E5500204157393133362047CB
:100E900043523A307825780D0A00000010B54FF41F
:100EA0004C51572006F036F90321582006F032F94C
:100EB0001C21502006F02EF9FC21552006F02AF9BD
:100EC0004AF2FF21612006F025F94AF2FF31612044
:100ED00006F020F94AF2FF41612006F01BF90321D8
:100EE000012006F017F910BD10B5322006F0EEF81B
:100EF0000446204610BD000010B5094800680128CE
:100F000002D0022806D102E000F0E8FA03E000F087
:100F100087FA00E000BF00BFFFF7E6FF10BD00004A
:100F20007C55002010B500220821074804F0EAFB98
:100F3000052004F0EFF901220821034804F0E2FB48
:100F40000A2004F0E7F910BD0008024030B58FB068
:100F5000D148007860B9132006F0B8F80190142049
:100F600006F0B4F80290152006F0B0F803900BE0FC
:100F7000002407E0C94850F8240001A941F82400E2
:100F8000601CC4B2032CF5DB03211E2006F0C2F85E
:100F9000002409E004F13601C8B206F097F807A969
:100FA00041F82400601CC4B2062CF3DB022006F0DA
:100FB0008DF80546002410E0B948007808B90020F3
:100FC00006E0B84850F8240007A951F82410084456
:100FD000B44941F82400601CC4B2062CECDBB048D4
:100FE000007804286FD10024DBE00120A0402840D5
:100FF000002869D1AB4850F824004FF47A71B1EB66
:10100000A00F70DD204604EBD0714910A4EB410124
:1010100099B1611001AA32F8211001F47F41B1F5B4
:10102000805F0AD1601001A911F82000611042F818
:10103000210002200DA908559CE0204604EBD07148
:101040004910A4EB410151B1611001AA32F82110FD
:1010500001F47F4119B900200DA908558AE0204606
:1010600004EBD0714910A4EB410191B9611001AAC0
:1010700012F8211010290CD1601001A931F82000BC
:1010800000F47F40611042F8210002200DA90855AC
:1010900070E0204604EBD0714910A4EB410141B946
:1010A000611001AA12F8211019B900200DA90855E4
:1010B00060E0204604EBD0714910A4EB410121B15E
:1010C0004FF4807102E0D7E069E00121621001ABCA
:1010D00053F82220511A621043F8221002200DA961
:1010E000085547E0FFE76F4850F8240040F6B83154
:1010F000B1EBA00F3BDA204604EBD0714910A4EB12
:10110000410161B1611001AA32F8211001F47F415F
:10111000B1F5F85F03D100200DA908552AE020465B
:1011200004EBD0714910A4EB410149B9611001AA47
:1011300012F821101F2903D100200DA9085519E02C
:10114000204604EBD0714910A4EB410111B14FF4DA
:10115000807100E00121621001AB53F8222011449C
:10116000621043F8221001200DA9085502E000206A
:101170000DA9085548480078002810DD0DA8005D2D
:101180004949095D88420AD000200DA90855601020
:10119000424951F82000611001AA42F82100601C68
:1011A000C4B2062CFFF621AF00204049087000248D
:1011B0000BE00120A040284028B90DA8005D10B127
:1011C00001203A490870601CC4B2062CF1DB374894
:1011D000007830B93048007818B9002034490870D8
:1011E00002E00120324908703048007830B9002010
:1011F000294908702A4908700FB030BD002101202C
:1012000005F088FF00240AE001AA32F8242091B2F8
:1012100004F11302D0B205F07DFF601CC4B2032CB0
:10122000F2DB0321012005F075FF1B48007803283D
:1012300007D100201D490870174908701849087027
:10124000DAE7002405E00DA8005D17490855601C89
:10125000C4B2062CF7DB002407E001A850F82400F4
:101260000E4941F82400601CC4B2032CF5DB0A4887
:101270000078401C0849087009480078042805DAFD
:1012800007480078401C0649087002E00020044925
:1012900008700120B0E700006D550020C87B0120D8
:1012A0006E550020E07B0120705500206C55002019
:1012B0006F55002010B54FF44C51572005F02AFF10
:1012C0000321582005F026FF1C21502005F022FFA5
:1012D000FC21552005F01EFF48F28231052005F063
:1012E00019FF8421062005F015FF0321012005F0D8
:1012F00011FF10BD10B50021012005F00BFF1C21CE
:10130000502005F007FF0021512005F003FF4FF4A6
:101310004C51572005F0FEFE0321582005F0FAFE3F
:101320000021592005F0F6FE00215A2005F0F2FEBA
:1013300000215B2005F0EEFEA121522005F0EAFE1F
:101340004FF4C051182005F0E5FE2321022005F0DE
:10135000E1FE8421112005F0DDFE40F287211220FC
:1013600005F0D8FE41F21551142005F0D3FE41F2EC
:101370001551152005F0CEFE42F228310C2005F063
:10138000C9FE42F228310D2005F0C4FE42F2283198
:101390000E2005F0BFFE40F202211B2005F0BAFE30
:1013A00040F202411C2005F0B5FE1C21072005F08B
:1013B000B1FE8021032005F0ADFE0521192005F0C6
:1013C000A9FE0021212005F0A5FE0021202005F026
:1013D000A1FE0021272005F09DFE00212C2005F014
:1013E00099FE0021222005F095FE00212D2005F018
:1013F00091FE0321012005F08DFE022003490860C3
:10140000034904A00FF064FE10BD00007C550020CD
:101410003032020825732046696E6973680A00003D
:1014200070B52A48007800B3FFF790FD2748007890
:10143000D0B92748007818B10021012005F06AFED4
:101440001C21032005F066FE00212D2005F062FE20
:101450001F48007818B10321012005F05BFEFFF75B
:1014600029FF01201B49086070BD1B48006828BB8C
:10147000322005F02BFE0546312005F027FE0446FC
:1014800005F0100040B114B900F0B4F81BE0102CC6
:1014900019D100F09FF816E005F0080040B114B92A
:1014A00000F08AF80FE0082C0DD100F077F80AE080
:1014B00005F0040010B114B900F0CCF803E0042CDE
:1014C00001D100F0B9F800BFCEE700006C55002054
:1014D0006F550020685500207855002010B51D4933
:1014E0001DA00FF0F5FD1F480078D8B1FFF72EFDC5
:1014F0001C480078A8B91C48007818B100210120C8
:1015000005F008FE0021032005F004FE10212D2027
:1015100005F000FE1448007818B10021012005F004
:10152000F9FD10BD1148006888B92E2005F0CEFDE8
:101530000446102C02D100F01BF808E0012C02D167
:1015400000F096F803E0022C01D100F065F800BF2E
:10155000E7E700004B320208257320456E74657280
:101560000A0000006C5500206F55002078550020BF
:1015700010B502A00FF0ACFD10BD0000415739318D
:1015800033362063656E74657220646F75626C65B6
:1015900020636C69636B200A000000000448006847
:1015A00028B10448006810B101200249C8607047A2
:1015B000685500201C5F00200448006828B10448DA
:1015C000006810B101200249C860704768550020CA
:1015D0001C5F002010B502A00FF07AFD10BD0000C6
:1015E000415739313336206C6566742070726573EB
:1015F00073200A0010B502A00FF06AFD10BD0000B4
:10160000415739313336206C6566742072656C65DC
:101610006173650A0000000010B502A00FF058FDCC
:1016200010BD0000415739313336206C6566742097
:10163000736C6970200A00000448006828B10448EF
:10164000006810B1012002494860704768550020C9
:101650001C5F00200448006828B10448006810B1ED
:101660000120024948607047685500201C5F002037
:1016700010B502A00FF02CFD10BD0000415739310C
:10168000333620726967687420736C6970200A00B1
:101690002DE9F8430024884600940646817998F89D
:1016A000060091461D46814288BF0846411C1A46E5
:1016B00068460AF0F5FD00281CBF40F2ED30BDE899
:1016C000F8834146304602F00DF8C01C0127072878
:1016D00062D2DFE800F03E2D25352D25040040467E
:1016E000009902F0A9F800993046CC7101F0FAFF98
:1016F000B0F1FF3F04D000284BD002284CD107E0C6
:1017000031464046009A0AF08AFE0098C77143E0CD
:1017100041463046009A0AF082FE0098C4713BE0D0
:1017200041463046009A00F053F80098C47133E007
:1017300041463046009A00F04BF80098C7712BE004
:1017400041463046009A00F043F80099F079C8719C
:1017500022E03046009902F06FF800984146C471CB
:1017600001F0C0FFB0F1FF3F03D090B1022813D1C8
:1017700007E031464046009A0AF051FE0098C471D5
:101780000AE041463046009A0AF049FE0098C771C7
:1017900002E000980AF0D5FB0021484605F032FE31
:1017A0004946009802F048F80099002914BF002D1E
:1017B000BDE8F883EA8889796FF00303494203EBB7
:1017C000810111440839E9800094BDE8F8830000E4
:1017D0002DE9F84F0B46D0F800B0096800910025BC
:1017E000B0F804C09E88176891462C46B44598BF4F
:1017F000664681794FF0010E4FF000088C4532D8D3
:10180000A1EB0C01002201F1010ABAF1000F2ADD5F
:101810003EEA01011CBF4BF82C80012290F806C063
:10182000B0F804A0ACEB0A0C0CF1010C8C451AD9F1
:101830001FFA8AFAD0F800C09244521C4CF82A8051
:10184000B0F804A0D0F800C09244521C4CF82A8092
:1018500090F806C0B0F804A0891CACEB0A0C0CF19F
:10186000010C8C45E4D8B3F804C099798C4534D880
:10187000A1EB0C01002201F1010ABAF1000F2CDDED
:101880003EEA010103D01A6842F82C80012293F845
:1018900006C0B3F804A0ACEB0A0C0CF1010C8C45AB
:1018A0001BD900BF1FFA8AFAD3F800C09244521C19
:1018B0004CF82A80B3F804A0D3F800C09244521C1C
:1018C0004CF82A8093F806C0B3F804A0891CACEB4E
:1018D0000A0C0CF1010C8C45E4D881889A8891425D
:1018E000494638BF184601F0A7FF002E48D000989F
:1018F000ABF10403021F391F16F0010F0DD053F88E
:1019000004CF52F8040F1CEB000048EB080C401900
:101910004CEB040541F8040F44465FEA560C1BD01B
:10192000D3F804A050681AEB000048EB080A4519E8
:101930004D604AEB040053F808AF52F8085F1AEB09
:10194000050548EB0804281844EB080541F8080F82
:101950004446BCF1010CE3D195B157F82600401C78
:1019600047F8260007E0761C07EB86000168491C53
:10197000016057F8260018B9B9F80400B042F2D255
:10198000B9F8040057F8201000291CBF401CA9F822
:101990000400BDE8F88F00002DE9FF4FADF6144DAF
:1019A00082460E4691464FF000080020CDF8100CFC
:1019B0007EA00068CDF80C0C4FF400710DF60C20E1
:1019C000FEF75DFC4FF400710DF60C00FEF757FCBE
:1019D0004FF400710DF20C60FEF751FC4FF40071F2
:1019E0000DF20C40FEF74BFC4FF4007183A8FEF79C
:1019F00046FC741E81E01AF804106D4803F0E7FB02
:101A000007460A2F05DA07F13000C0B28DF8100C36
:101A10000FE00A2097FBF0F03030C0B28DF8100CC8
:101A20000A2097FBF0F100FB11703030C0B28DF846
:101A3000110C701E021B0DF60C0302210DF60C405A
:101A400010F0B5FE0DF60C00FEF724FC02900DF52B
:101A50004160FEF71FFC01900DF20C6000900DF646
:101A60000C020DF54160DDE9011310F015FE0DF6D5
:101A70000C20FEF70FFC02900DF20C60FEF70AFC42
:101A800001900DF20C4000900DF60C220DF20C604E
:101A9000DDE9011310F087FC4FF400710DF60C2006
:101AA000FEF7EDFB002506E00DF20C40405D0DF663
:101AB0000C2148556D1C0DF20C40FEF7EBFBA842C3
:101AC000F2D84FF400710DF60C00FEF7D8FB4FF47E
:101AD00000710DF20C60FEF7D2FB4FF400710DF2B5
:101AE0000C40FEF7CCFB0020CDF8100C35208DF813
:101AF0000C0C38208DF80D0C641E002CBFF67BAF4B
:101B000083A90DF60C2002F009F983A8FEF7C2FBA9
:101B1000450803AA294683A80AF0F5FB9DF80C00A6
:101B200030B99DF80D00802802DB4FF0010B01E079
:101B30004FF0000B002402E008F10108641CB442DD
:101B400005DA1AF804001A4909788842F4D0BBF182
:101B5000000F0ED0002407E003A9601C085C04EB12
:101B6000080109F80100641CA6EB0800A042F3DCA0
:101B70000CE0002406E003A8005D04EB080109F86E
:101B80000100641CA6EB0800A042F4DC00BF681E44
:101B9000054619F800000028F9D0681CDDF8201C63
:101BA00008600DF6244DBDE8F08F000035380000C8
:101BB0002C5500202DE9F041ADF5806D0746884693
:101BC00016461D464FF4007180A8FEF758FB4FF4EF
:101BD00000716846FEF753FB6A464146384605F0F9
:101BE00033FA80A9684605F0A1F980A802F01CF834
:101BF0000848FEF74FFB2860002403E00548005D1D
:101C00003055641C2868A042F8DC0DF5806DBDE8F5
:101C1000F0810000947B01202DE9F047A0B0074639
:101C2000884615461E46DDF8A0904FF0000A01F0E8
:101C3000BBFE0AA808AB0CAA10A9009014A803F0D8
:101C4000F3F80897CDF824801448069014480490BF
:101C50000CA804A910AB06AACDE90109009108A9B6
:101C600014A802F003F98246DDE90E010844306051
:101C7000002408E00C98005D28550D98005D0E9931
:101C800021446854641C306800EBD071B4EB610FE0
:101C9000F0DB504620B0BDE8F0870000AC690120C1
:101CA000E4680120F0B5AFB006460F4615460020A7
:101CB0002E9020202D90112101A8FEF7E0FA2D484A
:101CC0000068009020210BA8FEF7D9FA142106A87D
:101CD000FEF7D5FA28213846FEF7D1FA212D03D098
:101CE000412D01D02FB0F0BD212D16D1E8B28DF8D5
:101CF0009000AC2124AA681C1154002404E0315D3A
:101D000024AA601C1154641CAC42F8DB2DAB0BAA56
:101D1000A91C24A800F0ECF815E0E8B28DF84C00FE
:101D2000AC2113AA681C1154002404E0315D13AAED
:101D3000601C1154641CAC42F8DB2DAB0BAAA91C2F
:101D400013A800F0D5F806A90BA809F085FD00241A
:101D500005E006A8015D601C0DF80010641C142C41
:101D6000F7DB2EAB3A461521684601F0A7FB00BF12
:101D7000B8E7000028300208F0B5A3B007460E46C9
:101D80000024002004900390029032214F48FEF777
:101D900076FA32214E48FEF772FA01F005FE4B4802
:101DA00014904B48159018A808F0C8FD044614B1CB
:101DB000002023B0F0BD474805900020ADF81A0080
:101DC0004FF46060ADF8180043480790434809900D
:101DD00043480B9043480D9043480F90434811905F
:101DE000202008900A900E900C901090129005A957
:101DF00007A802F02BFA044604B161E005AA07A97E
:101E000002A802F0FFFA044604B154E007A90298C0
:101E100002F00EFC044604B14DE005AA07A904A88F
:101E200002F0F0FA044604B145E005AA07A903A8A8
:101E300002F050FB044604B138E0202239460398F2
:101E400002F036FC044604B12BE005A807AB009075
:101E500002A807C802F076FB044604B121E016ABE5
:101E60000021149A049802F053F9044617AB01219B
:101E7000159A049802F04CF904438CB9002503E04C
:101E80001498405D70556D1C202DF9DB002505E090
:101E90001598415D05F1200031546D1C202DF7DBB4
:101EA00000BF05A903A802F01BF900BF05A904A8FB
:101EB00002F0F5F800BF05A907A802F0B2F800BFCC
:101EC00018A808F071FD204673E700004C78012047
:101ED0007E7801202C6A0120682F0208882F0208D2
:101EE000A82F0208C82F0208E82F020808300208AD
:101EF0002DE9F04104460D4616461F4601F054FDFB
:101F00003B4632462946204604F0C2FF8046404602
:101F1000BDE8F08107B5ADF55C7D0020D890D79085
:101F2000D690D5904021B0A8FEF7A9F91121A9A813
:101F3000FEF7A5F9FE480168A89134219BA8FEF799
:101F40009EF900209A904FF48C7154A8FEF797F9EF
:101F5000DC980078D490DE99D4980860DC984078BA
:101F6000D390DE99D3984860D49840287ED008DC7E
:101F700070B101287BD002287AD0202841F09181CD
:101F8000A1E1802875D0D02874D0D128F6D1FDE306
:101F9000D39800286FD19FEDE71B9FEDE80B0FF062
:101FA000C7F88DED440BDC984079C117539000EBD6
:101FB000117001115398A0EB01104190FEF7C1FA86
:101FC000439142909DED440B53EC102B9DED420B41
:101FD00051EC100BFEF743FA9FEDDA1B9FEDD70B88
:101FE000499148900FF0A4F88DED400BDC984079B2
:101FF000C117529000EB117000113D90FEF7A1FA4D
:10200000CDE93E019DED400B53EC102B9DED3E0BB9
:1020100051EC100BFEF723FA9FEDCC1B9FEDC70B85
:10202000459144900FF084F88DED3C0BDC980079DD
:10203000C117519000EB117001115198A0EB0110E4
:102040003990FEF77EFACDE93A019DED3C0B53EC59
:10205000102B9DED3A0B51EC100BFEF700FA9FEDA3
:10206000BD1B9FEDB60B4191409005E042E108E1B8
:102070000DE1FDE3FDE300E10FF05AF88DED380BC3
:10208000DC980079C117509000EB11700011359069
:10209000FEF757FACDE936019DED380B53EC102BC6
:1020A0009DED360B51EC100BFEF7D9F99FEDAB1BF4
:1020B0009FEDA20BCDE93C010FF03AF88DED340B0A
:1020C000DC98C078C1174F9000EB117001114F9848
:1020D000A0EB01103190FEF734FACDE932019DED0D
:1020E000340B53EC102B9DED320B51EC100BFEF723
:1020F000B6F99FED9C1B9FED910BCDE938010FF0D8
:1021000017F88DED300BDC98C078C1174E9000EBBE
:10211000117000112D90FEF714FACDE92E019DEDFE
:10212000300B53EC102B9DED2E0B51EC100BFEF7EA
:1021300096F99FED8E1B9FED810BCDE934010EF0DA
:10214000F7FF8DED2C0BDC988078C1174D9000EBDC
:10215000117001114D98A0EB01102990FEF7F1F9D3
:10216000CDE92A019DED2C0B53EC102B9DED2A0B94
:1021700051EC100BFEF773F99FED7E1B9FED6F0B7B
:10218000CDE930010EF0D4FF8DED2C0BDC9880787A
:10219000C1174C9000EB117000112990FEF7D1F996
:1021A000CDE92A019DED2C0B53EC102B9DED2A0B54
:1021B00051EC100BFEF753F9CDE92E019DED300BDC
:1021C00053EC102B9DED2E0B51EC100BFEF7A0F8ED
:1021D000CDE932019DED340B53EC102B9DED320B0C
:1021E00051EC100BFEF794F8CDE936019DED380B5C
:1021F00053EC102B9DED360B51EC100BFEF788F8CD
:10220000CDE93A019DED3C0B53EC102B9DED3A0BC3
:1022100051EC100BFEF77CF8CDE93E019DED400B33
:1022200053EC102B9DED3E0B51EC100BFEF770F8AC
:10223000439142909DED440B53EC102B9DED420BCE
:1022400051EC100BFEF764F8479146909DED480B5A
:1022500053EC102B9DED460B51EC100BFEF758F88C
:102260004B914A909DED4A0B51EC100BFEF7B3F9E0
:10227000559154900420D790E1E301200DF55F7D46
:1022800000BDD398012801DD0120F7E7F4E7D398DA
:10229000B8B90020DA9009E0DA98801CDC990A5C71
:1022A00056A8DA994254DA98401CDA90DA98222833
:1022B000F2DB9DF8580108B90120DFE72220D79012
:1022C000DAE70120DAE7D39890B90020DA9009E044
:1022D000DA98801CDC990A5C67A8DA994254DA988B
:1022E000401CDA90DA984028F2DB4020D790C3E710
:1022F0000120C3E7D39800287ED1DC9880787790BE
:10230000D798401CD790D798801CDC99085CD59052
:10231000D798C01C53904FF480620146D59BDC983F
:1023200008F0D4FCD690D69808B90120A6E725E09D
:102330002C32020800000000000000000000000035
:1023400000003040000000000000F03F00000000EE
:1023500000000040000000000000084000000000F5
:1023600000001040000000000000144000000000C9
:10237000000018400000000000001C40D59809F043
:1023800041FA401CD7990844D790D699D798084469
:10239000D7901FED181B1FED170B0EF0C9FE8DED2A
:1023A0003C0BD7980930DC99085CC117539000EBBF
:1023B000117001115398A0EB01103990FEF7C1F88C
:1023C000CDE93A019DED3C0B53EC102B9DED3A0B02
:1023D00051EC100BFEF743F81FED261B1FED290BE8
:1023E000419140900EF0A4FE8DED380BD798093046
:1023F000DC99085CC11700E022E3529000EB1170F9
:1024000000113590FEF79DF8CDE936019DED380BB2
:1024100053EC102B9DED360B51EC100BFEF71FF813
:102420001FED361B1FED3B0BCDE93C010EF080FE8E
:102430008DED340BD7980830DC99085CC1175190AA
:1024400000EB117001115198A0EB01103190FEF7D3
:1024500078F8CDE932019DED340B53EC102B9DED56
:10246000320B51EC100BFDF7FAFF1FED461B1FED71
:102470004D0BCDE938010EF05BFE8DED300BD7989A
:102480000830DC99085CC117509000EB1170001106
:102490002D90FEF756F8CDE92E019DED300B53EC53
:1024A000102B9DED2E0B51EC100BFDF7D8FF1FEDFF
:1024B000551B1FED5E0BCDE934010EF039FE8DED9D
:1024C0002C0BD798C01DDC99085CC1174F9000EB0E
:1024D000117001114F98A0EB01102990FEF731F80F
:1024E000CDE92A019DED2C0B53EC102B9DED2A0B11
:1024F00051EC100BFDF7B3FF1FED661B1FED710BC9
:10250000CDE930010EF014FE8DED280BD798C01DDB
:10251000DC99085CC1174E9000EB117000112590FA
:10252000FEF70FF8CDE926019DED280B53EC102B9B
:102530009DED260B51EC100BFDF791FF1FED751B68
:102540001FED820BCDE92C010EF0F2FD8DED240B79
:10255000D798801DDC99085CC1174D9000EB117075
:1025600001114D98A0EB01102190FDF7EAFFCDE994
:1025700022019DED240B53EC102B9DED220B51EC11
:10258000100BFDF76CFF1FED851B1FED940BCDE9C4
:1025900028010EF0CDFD8DED200BD798801DDC9924
:1025A000085CC1174C9000EB117000111D90FDF7F5
:1025B000C8FFCDE91E019DED200B53EC102B9DEDC6
:1025C0001E0B51EC100BFDF74AFF9FEDFE1B1FED9C
:1025D000A50BCDE924010EF0ABFD8DED1C0BD798BA
:1025E000401DDC99085CC1174B9000EB1170011184
:1025F0004B98A0EB01101990FDF7A3FFCDE91A014C
:102600009DED1C0B53EC102B9DED1A0B51EC100B98
:10261000FDF725FF9FEDED1B1FEDB80BCDE9200168
:102620000EF086FD8DED180BD798401DDC99085CE7
:10263000C1174A9000EB117000111590FDF781FF52
:10264000CDE916019DED180B53EC102B9DED160BEB
:1026500051EC100BFDF703FF9FEDDE1B1FEDC90BC7
:10266000CDE91C010EF064FD8DED140BD798001D13
:10267000DC99085CC117499000EB11700111499871
:10268000A0EB01101190FDF75CFFCDE912019DED6B
:10269000140B53EC102B9DED120B51EC100BFDF7AE
:1026A000DEFE9FEDCE1B1FEDDB0BCDE918010EF01A
:1026B0003FFD8DED100BD798001DDC99085CC1170C
:1026C000489000EB117000110D90FDF73AFFCDE935
:1026D0000E019DED100B53EC102B9DED0E0B51ECEC
:1026E000100BFDF7BCFE9FEDBF1B1FEDEC0BCDE902
:1026F00014010EF01DFD8DED0C0BD798C01CDC995C
:10270000085CC117479000EB117001114798A0EBCE
:1027100001100990FDF715FFCDE90A019DED0C0BA5
:1027200053EC102B9DED0A0B51EC100BFDF797FEAF
:102730009FEDAE1B9FEDAF0BCDE910010EF0F8FC45
:102740008DED080BD798C01CDC99085CC11746902A
:1027500000EB117000110590FDF7F3FECDE90601C5
:102760009DED080B53EC102B9DED060B51EC100B5F
:10277000FDF775FE9FEDA11B9FED9E0BCDE90C01B2
:102780000EF0D6FC8DED040BD79800E019E2801C0A
:10279000DC99085CC117459000EB11700111459858
:1027A000A0EB01100190FDF7CCFECDE902019DEDFB
:1027B000040B53EC102B9DED020B51EC100BFDF7AD
:1027C0004EFE9FED901B9FED8B0BCDE908010EF0A7
:1027D000AFFC8DED040BD798801CDC99085CC11709
:1027E000449000EB117000110190FDF7AAFECDE9B5
:1027F00002019DED040B53EC102B9DED020B51ECEF
:10280000100BFDF72CFECDE906019DED080B53ECF6
:10281000102B9DED060B51EC100BFDF779FDCDE96A
:102820000A019DED0C0B53EC102B9DED0A0B51ECA6
:10283000100BFDF76DFDCDE90E019DED100B53EC76
:10284000102B9DED0E0B51EC100BFDF761FDCDE94A
:1028500012019DED140B53EC102B9DED120B51EC5E
:10286000100BFDF755FDCDE916019DED180B01E0AC
:10287000E8E0ECE053EC102B9DED160B51EC100B47
:10288000FDF746FDCDE91A019DED1C0B53EC102B15
:102890009DED1A0B51EC100BFDF73AFDCDE91E0131
:1028A0009DED200B53EC102B9DED1E0B51EC100BEE
:1028B000FDF72EFDCDE922019DED240B53EC102BED
:1028C0009DED220B51EC100BFDF722FDCDE9260109
:1028D0009DED280B53EC102B9DED260B51EC100BAE
:1028E000FDF716FDCDE92A019DED2C0B53EC102BC5
:1028F0009DED2A0B51EC100BFDF70AFDCDE92E01E1
:102900009DED300B53EC102B9DED2E0B51EC100B6D
:10291000FDF7FEFCCDE932019DED340B53EC102B9D
:102920009DED320B51EC100BFDF7F2FCCDE93601B9
:102930009DED380B53EC102B9DED360B51EC100B2D
:10294000FDF7E6FCCDE93A019DED3C0B53EC102B75
:102950009DED3A0B51EC100BFDF7DAFCCDE93E0191
:102960009DED400B53EC102B9DED3E0B51EC100BED
:10297000FDF7CEFC439142909DED420B51EC100BC4
:10298000FDF729FE79917890D7980830D790D7989D
:10299000801CDC99085C7A90D798401CD790002066
:1029A000DA900BE0D799DA980844801CDC990A5C2D
:1029B0007BA8DA994254DA98401CDA90DA982128F8
:1029C000F0DB23E0000000000000204000000000D9
:1029D0000000224000000000000024400000000031
:1029E0000000264000000000000028400000000019
:1029F00000002A40000000000000304000000000FD
:102A000000002C400000000000002E40D79821302C
:102A1000D7900020DA900CE0D799DA980844801C0F
:102A2000DC990A5C0DF22E20DA994254DA98401CA7
:102A3000DA90DA981428EFDBD7981430D790FDE3BA
:102A400001201BE4D39808B1012017E4F6E3D398E2
:102A5000012801DD012011E40020DA900AE0DA9873
:102A6000801CDC990A5C0DF25620DA994254DA98FF
:102A7000401CDA90DA980328F1DBD398012803D1BF
:102A8000DC984079979001E000209790D798001D3E
:102A9000D790D798801CDC99085CD590D798C01C3B
:102AA0005390FC220146D59BDC9808F00FF9D69094
:102AB000D69808B9012005E4D59808F0A3FE401C7B
:102AC000D7990844D790D699D7980844D790D798E3
:102AD000801CDC99085CD590D798C01C5390FC22D0
:102AE0000146D59BDC9808F0F1F8D690D69808B945
:102AF00001201BE4D59808F085FE401CD7990844B6
:102B0000D790D699D7980844D790D798801CDC994D
:102B1000085CD590D798C01C5390FC220146D59BE9
:102B2000DC9808F0D3F8D690D69808B9012088E749
:102B3000D59808F067FE401CD7990844D790D699DD
:102B4000D7980844D790D798801CDC99085CD5901A
:102B5000D798C01C5390FC220146D59BDC9808F006
:102B6000B5F8D690D69808B901206AE7D59808F04C
:102B700049FE401CD7990844D790D699D798084465
:102B8000D790D798801CDC99085CD590D798C01C4A
:102B900053904FF480320146D59BDC9808F096F8AC
:102BA000D690D69808B901204BE7D59808F02AFEB0
:102BB000401CD7990844D790D699D7980844D79005
:102BC00071E3D398012801DD01203AE7D798801CF2
:102BD000DC99085CD590D798C01C53904FF4803294
:102BE0000146D59BDC9808F071F8D690D69808B9C4
:102BF000012026E7D59808F005FE401CD799084427
:102C0000D790D699D7980844D790D39801287DD1EA
:102C10009FEDFE1B1FED890B0EF08AFA8DED3C0B2C
:102C2000D7980930DC99085CC117539000EB1170FC
:102C300001115398A0EB01103990FDF782FCCDE90A
:102C40003A019DED3C0B53EC102B9DED3A0B51ECF2
:102C5000100BFDF704FC9FEDEF1B1FED9A0B41914C
:102C600040900EF065FA8DED380BD7980930DC995D
:102C7000085CC117529000EB117000113590FDF700
:102C800060FCCDE936019DED380B53EC102B9DED2A
:102C9000360B51EC100BFDF7E2FB9FEDE01B1FED37
:102CA000AB0BCDE93C010EF043FA8DED340BD79818
:102CB0000830DC99085CC117519000EB11700111CC
:102CC0005198A0EB01103190FDF73BFCCDE93201AA
:102CD0009DED340B53EC102B9DED320B51EC100B92
:102CE000FDF7BDFB9FEDCF1B1FEDBE0BCDE93801FE
:102CF0000EF01EFA8DED300BD7980830DC99085C89
:102D0000C117509000EB1170001100E0C5E22D904A
:102D1000FDF717FCCDE92E019DED300B53EC102B88
:102D20009DED2E0B51EC100BFDF799FB9FEDBF1B9A
:102D30001FEDD00BCDE934010EF0FAF98DED2C0B1F
:102D4000D798C01DDC99085CC1174F9000EB11703B
:102D500001114F98A0EB01102990FDF7F2FBCDE98E
:102D60002A019DED2C0B53EC102B9DED2A0B51EC01
:102D7000100BFDF774FB9FEDAF1B1FEDE20BCDE9D0
:102D800030010EF0D5F98DED280BD798C01DDC99D8
:102D9000085CC1174E9000EB117000112590FDF7F3
:102DA000D0FBCDE926019DED280B53EC102B9DEDBA
:102DB000260B51EC100BFDF752FB9FEDA01B1FEDF6
:102DC000F30BCDE92C010EF0B3F98DED240BD79860
:102DD000801DDC99085CC1174D9000EB117001114A
:102DE0004D98A0EB01102190FDF7ABFBCDE922013E
:102DF0009DED240B53EC102B9DED220B51EC100B91
:102E0000FDF72DFB9FED8F1B9FED900BCDE928016A
:102E10000EF08EF98DED200BD798801DDC99085CA3
:102E2000C1174C9000EB117000111D90FDF789FB4C
:102E3000CDE91E019DED200B53EC102B9DED1E0BDB
:102E400051EC100BFDF70BFB9FED821B9FED7F0BF1
:102E5000CDE924010EF06CF98DED1C0BD798401DC7
:102E6000DC99085CC1174B9000EB117001114B9875
:102E7000A0EB01101990FDF764FBCDE91A019DED5F
:102E80001C0B53EC102B9DED1A0B51EC100BFDF7A6
:102E9000E6FA9FED721B9FED6D0BCDE920010EF060
:102EA00047F98DED180BD798401DDC99085CC117C8
:102EB0004A9000EB117000111590FDF742FBCDE92F
:102EC00016019DED180B53EC102B9DED160B51ECDC
:102ED000100BFDF7C4FA9FED631B9FED5C0BCDE972
:102EE0001C010EF025F98DED140BD798001DDC990F
:102EF000085CC117499000EB117001114998A0EBD3
:102F000001101190FDF71DFBCDE912019DED140B91
:102F100053EC102B9DED120B51EC100BFDF79FFAAB
:102F20009FED521B9FED490BCDE918010EF000F902
:102F30008DED100BD798001DDC99085CC1174890E7
:102F400000EB117000110D90FDF7FBFACDE90E01B9
:102F50009DED100B53EC102B9DED0E0B51EC100B57
:102F6000FDF77DFA9FED431B9FED380BCDE9140172
:102F70000EF0DEF88DED0C0BD798C01CDC99085CC8
:102F8000C117479000EB117001114798A0EB011099
:102F90000990FDF7D6FACDE90A019DED0C0B53EC33
:102FA000102B9DED0A0B51EC100BFDF758FA9FED1D
:102FB000331B9FED260BCDE910010EF0B9F88DED16
:102FC000080BD798C01CDC99085CC117469000EB31
:102FD000117000110590FDF7B4FACDE906019DEDE1
:102FE000080B53EC102B9DED060B51EC100BFDF76D
:102FF00036FA9FED241B9FED150BCDE90C010EF069
:1030000097F88DED040BD798801C3FE0000000007E
:1030100000000000000000000000F03F0000000081
:103020000000004000000000000008400000000018
:1030300000001040000000000000144000000000EC
:10304000000018400000000000001C4000000000CC
:1030500000003040000000000000204000000000A0
:10306000000022400000000000002440000000009A
:103070000000264000000000000028400000000082
:1030800000002A400000000000002C40DC99085C91
:10309000C117459000EB117001114598A0EB01108C
:1030A0000190FDF74EFACDE902019DED040B53ECC2
:1030B000102B9DED020B51EC100BFDF7D0F99FED9D
:1030C000EE1B1FED1E0BCDE908010EF031F88DED62
:1030D000040BD798801CDC99085CC117449000EB66
:1030E000117000110190FDF72CFACDE902019DED60
:1030F000040B53EC102B9DED020B51EC100BFDF764
:10310000AEF9CDE906019DED080B53EC102B9DEDBA
:10311000060B51EC100BFDF7FBF8CDE90A019DED14
:103120000C0B53EC102B9DED0A0B51EC100BFDF723
:10313000EFF8CDE90E019DED100B53EC102B9DED3A
:103140000E0B51EC100BFDF7E3F8CDE912019DEDEC
:10315000140B53EC102B9DED120B51EC100BFDF7E3
:10316000D7F8CDE916019DED180B53EC102B9DED12
:10317000160B51EC100BFDF7CBF8CDE91A019DEDC4
:103180001C0B53EC102B9DED1A0B51EC100BFDF7A3
:10319000BFF8CDE91E019DED200B53EC102B9DEDEA
:1031A0001E0B51EC100BFDF7B3F8CDE922019DED9C
:1031B000240B53EC102B9DED220B51EC100BFDF763
:1031C000A7F8CDE926019DED280B53EC102B9DEDC2
:1031D000260B51EC100BFDF79BF8CDE92A019DED74
:1031E0002C0B53EC102B9DED2A0B51EC100BFDF723
:1031F0008FF8CDE92E019DED300B53EC102B9DED9A
:103200002E0B51EC100BFDF783F8CDE932019DED4B
:10321000340B53EC102B9DED320B51EC100BFDF7E2
:1032200077F8CDE936019DED380B53EC102B9DED71
:10323000360B51EC100BFDF76BF800E033E0CDE9F5
:103240003A019DED3C0B53EC102B9DED3A0B51ECEC
:10325000100BFDF75DF8CDE93E019DED400B53EC01
:10326000102B9DED3E0B51EC100BFDF751F84391E7
:1032700042909DED420B51EC100BFDF787F99991AF
:103280009890D7980830D79000221146989B99982B
:103290009A1A884104DA01200DE400209890999050
:1032A00001E0012007E400BFD798801CDC99085C8E
:1032B000D290DE99D2988860D798C01CDC99085CBF
:1032C000D190DE99D198C860D798001DD890002081
:1032D000DA901DE00020D99010E0D999D8980144E7
:1032E0002222DA9802FB0011DC98415CD998C0F1E7
:1032F0001F00C8AA1154D998401CD990D9982028E9
:10330000EBDB2021C8A8FCF7BAFFDA98401CDA9062
:10331000D199DA988842DDDB2222D199D89802FB34
:103320000100D890D899DC98405CD090DE99D09874
:103330000861D898401CD8900020DA9088E00020DE
:10334000D99010E0D999D89801443C22DA9802FB30
:103350000011DC98415CD998C0F11F00C0AA11543B
:10336000D998401CD990D9982028EBDBB0AA20210D
:10337000C0A803F069FEDA9800EB8011DE9800F532
:10338000D27008444022B0A95390FCF751FF0021AD
:10339000DA9800EB8012DE9800F5D270104480F8C5
:1033A00040102021C0A8FCF76AFF4021B0A8FCF71C
:1033B00066FF0020D99012E0D89800F120013C224D
:1033C000DA9802FB0011D9980144DC98415CD99845
:1033D000C0F10700AEAA1154D998401CD990D998D1
:1033E0000828E9DBAEA800F08FFADE9A02F58662C3
:1033F000DA9B02EBC30203C20020D99010E0D898F8
:1034000028303C22DA9902FB0101D9980144DC986A
:10341000415CD998401CA8AA1154D998401CD99055
:10342000D9981428EBDB9AAB9BAA1521A8A800F029
:1034300045F8DA9800EB8001DE98143000EBC1000B
:1034400053909BA99A9AFCF7F3FEDA98401CDA9005
:10345000D099DA988842FFF672AF3C22D899D0987A
:1034600002FB0010D890DD99D898884201D1002045
:1034700012E7012010E700000000000000002E40CD
:103480000146302901DAFF207047392902DCA1F119
:103490003000F9E7412901DAFF20F5E7462902DC8F
:1034A000A1F13700F0E7612901DAFF20ECE7662996
:1034B00002DCA1F15700E7E7FF20E5E72DE9F04145
:1034C000ADF58C6D0646884617461D464FF40071D3
:1034D00081A8FCF7D4FE4FF4007101A8FCF7CFFEE1
:1034E000202000906B460DF2244241463046FEF704
:1034F000FFFC6B460DF2044220210DF22440FEF742
:10350000F7FC002404E0305D0DF244410855641CD2
:10351000152CF8DB002408E00DF20440015D04F1F5
:1035200015000DF244421154641C042CF4DB01AA72
:1035300019210DF2444003F087FD81A901A803F091
:10354000F5FC81A800F070FB0848FCF7A3FE28609A
:10355000002403E00548005D3855641C2868A0423B
:10356000F8DC0DF58C6DBDE8F0810000947B012046
:1035700070B485880468012D02BF2368002B0123E5
:1035800012D0AB006FF0030606EB85054FF07F4CC1
:1035900054F8054014EA0C0F06D1BCF1000F1CBF13
:1035A0004FEA1C2C5B1EF5D1DC174FF0000C03EB2F
:1035B00094740CE00568CCF1000603EB860655F820
:1035C0002C500E442DBA46F8045C0CF1010CBCEBF7
:1035D000A40FEFDB13F0030F1FD0006803F0030507
:1035E00003F0030450F82C0013F0010C03D00D4439
:1035F00005F8010C000AA4EB0C0CBCF1000F0CDD6B
:1036000001EB0C04ACF1020C04F8010C000A04F804
:10361000020C000ABCF1000FF2DC002A18BF136094
:1036200070BC7047002812BF002941F2B8407047B3
:10363000F8B50F46818800241646012905D1026895
:103640001268002A08BF012312D08B006FF0030517
:10365000026805EB81014FF07F4C555815EA0C0FBD
:1036600006D1BCF1000F1CBF4FEA1C2C5B1EF5D12C
:103670000093B342C4BF41F2B540F8BDB919C91AAD
:103680006A46FFF775FF0098311A00290EDD781E93
:1036900011F0010F18BF00F8014F0099711A49107D
:1036A00004D0447000F8024F491EFAD10020F8BD42
:1036B000002070470248034908600020704700005E
:1036C00068560020E000002070B504460D4604490D
:1036D000D1F8180240210AF071F9002070BD0000F5
:1036E0006856002070B490F907C091F907209445FE
:1036F0003FD183888C880122A34204BF00680968F7
:1037000003D9BCF1000F27D022E003D2BCF1000F97
:103710002BD027E09D1AA61A50F8255051F82660A4
:10372000B54204D1934224BF521C9342F2D2551E9B
:10373000AB4202BF002070BC70479B1AA21A50F81F
:10374000230051F82210884209D9BCF1000F03D0A0
:1037500070BC6FF00100704770BC02207047BCF174
:10376000000F02D070BC0120704770BC4FF0FF30DA
:103770007047BCF1010F05D1002A02BF6FF00200B3
:1037800070BC7047032070BC70472DE9FC410646B1
:10379000354600244CE005F0C008B8F1000F09D010
:1037A000B8F1400F0AD0B8F1800F0BD0B8F1C00FBC
:1037B00010D10BE0002001A908550CE00F2001A951
:1037C000085508E0F02001A9085504E0FF2001A9F0
:1037D000085500E000BF00BFA806050E05F0C007B1
:1037E00037B1402F08D0802F0AD0C02F10D10BE066
:1037F00000200DF804000CE00F200DF8040008E094
:10380000F0200DF8040004E0FF200DF8040000E0B3
:1038100000BF00BFA806050E01A9085D012106F042
:103820009DFF1DF80400012106F098FF601CC4B242
:10383000022CB0DBBDE8FC8170B483888A79002457
:103840009A4209D202F1010C9C4537BF41F2B540C2
:1038500041F2B54470BC7047C279CA7100228B80B6
:10386000002B09DDD0F800C00D685CF822C045F8D7
:1038700022C0521C9342F5DC8879801A431C002B2D
:1038800026DD01234FF0000C33EA0000634605D02B
:10389000D1F800C04CF822304FF0010C8D79AD1AF0
:1038A0006D1C854214DD00BF0D6802EB0C060CF1A7
:1038B000010C45F826300D6802EB0C06801C45F81B
:1038C00026308D790CF1010CAD1A6D1C8542EBDCB4
:1038D000204670BC704782880368012A01BF1868BF
:1038E00000280120704750016FF0030C0CEB82029E
:1038F0004FF000419A5831EA02031EBF00294908DF
:10390000401EF8D1704700002DE9F0412DED0C8BE1
:1039100084B0074600210D460E460020009001901D
:10392000029003906A460821384603F08DFB00247C
:103930002CE02046FCF705FE41EC1D0BB0EE4D1AC5
:10394000F0EE6D1A9FED160B0DF0F2FBB0EE40BAE3
:10395000F0EE60BAC4F10F011DF80100FFF790FD11
:103960008046FCF7EEFD53EC1B2BFCF778FD41EC99
:10397000190B28463146FCF7F5FD53EC192BFCF7E3
:10398000C7FCFCF703FE05460E46641C102CD0DB7A
:103990002846314604B0BDEC0C8BBDE8F081000038
:1039A00000000000000030400121080306F07ABF4B
:1039B0002DE9F04FADF5017D91460D4680461E463E
:1039C000B0225A4950A8FCF733FC0024202E1EBF19
:1039D0006FF003000DF5017DBDE8F08F05F11907CB
:1039E00017F00F0F04D007F00F00C0F110042744A8
:1039F00028BA049030BA05902A4641466E4606A879
:103A0000FCF716FC802170194FF0000801766CB1AC
:103A1000183014F0010F18BF00F8018F610805D0AD
:103A200080F8018000F8028F491EF9D1CDF800809E
:103A3000CDF80480CDF80C800024CDF808800DF579
:103A4000A07B6E461CADCDF87080CDF87480CDF8AB
:103A50007880CDF87C80B8EB171F38BF0DF5F87A69
:103A600017D200205FEA041101EB800255F82030E4
:103A7000B25812BA5A404AF82020401C0428F3D306
:103A80005A4629467CA8FCF7ADFF641CB4EB171F0F
:103A9000E7D39DF803000024401C8DF803000DF5CA
:103AA000A07B6E460DF1700A20ADCDF88080CDF878
:103AB0008480CDF88880CDF88C80B8EB171F38BF94
:103AC0000DF5F87817D200205FEA041101EB8002AF
:103AD00055F82030B25812BA5A4048F82020401CFD
:103AE0000428F3D35A4629467CA8FCF77BFF641CC4
:103AF000B4EB171FE7D324A91CA8FDF7FDF824AAEF
:103B000049460AF11000FCF76DFF99E80F0020AC60
:103B10000FC424AA09F110010AF11000FCF762FF9A
:103B20000DF5017D0020BDE8F08F00000849020876
:103B30002DE9F04188B016468846044600256F46B8
:103B4000E068401CE0600AD1A068401CA06006D17B
:103B50006068401C606002D12068401C206007EB58
:103B6000051142462046FCF73DFF6D1C022DE7DBA8
:103B70000098316848402061019871684840606150
:103B80000298B1684840A0610398F1684840E0613C
:103B90000498316948402060059871694840606028
:103BA0000698B1694840A0600798F1694840E06014
:103BB00008B0BDE8F08170B503460C460021002036
:103BC00010E0165C451C555D46EA0526851C555DD2
:103BD00046EA0546C51C555D46EA056543F8215091
:103BE000491C001DA142ECDB70BD70B503461446B4
:103BF0000020002215E011F820509D5431F820508B
:103C0000C5F30726551C5E5551F82050C5F30746ED
:103C1000951C5E5551F820502D0ED61C9D55401C0C
:103C2000121DA042E7DB70BD2DE9F043ADF2044D5B
:103C3000064600274FF4007181A8FCF720FB4FF4E3
:103C40000072304901A8FCF7F3FA4FF400712E48D6
:103C5000FCF715FB002403E0305D81A90855641CC6
:103C60003046FCF717FBA042F6D800BF81A8FCF74E
:103C700011FB804601A8FCF70DFB81464B4601AACB
:103C8000414681A80EF032FC05464FF4007181A830
:103C9000FCF7F5FA002404E01C48005D81A90855F2
:103CA000641CAC42F8DB022D09D118484178007839
:103CB000303800EB800001EB4000A0F13007012D0F
:103CC00003D112480078A0F130074FF4007101A829
:103CD000FCF7D5FA0EA101A8FCF7F1FA022DC5DC1C
:103CE0003A2FC3DC0B48C15D07480B4A1268815468
:103CF00007F098FD0020084908600DF2044DBDE86A
:103D0000F08300002C300208947B0120947901207C
:103D1000353800002C55002028550020F0B5ADF2B4
:103D2000046D05460E464FF400710DF20440FCF799
:103D3000A6FA4FF4007181A8FCF7A1FA4FF40071C4
:103D400001A8FCF79CFA002400BF0DF204412846AC
:103D500000F031F82846FCF79DFA0746791E685CAA
:103D600000EBD0714910A0EB41013031CBB22146BC
:103D7000641C81AA53540DF204412846FCF79FFAB3
:103D800028783028E1D1002081A9085581A807F0C2
:103D900049FD01A981A80EF075FD002403E001A8EA
:103DA000005D3055641C01A8FCF774FAA042F6D8F7
:103DB0000DF2046DF0BD2DE9F04706460D46307852
:103DC000322809DA3046FCF765FA012804D13020A0
:103DD00028700020E87346E03046FCF75BFA814625
:103DE00000273178A1F1300000EBD0714910A0EB31
:103DF000410A307831280ADD3178A1F1300000EB3A
:103E0000D07149103031CBB239467F1C6B544FF022
:103E1000010824E016F808000AEB8A0100EB4100D3
:103E2000A0F13004022C0ADA302238467F1C2A54D2
:103E3000204604EBD0714910A4EB410A0DE0204666
:103E400004EBD07149103031CBB239467F1C6B5432
:103E500004EBD0714910A4EB410A08F10108C845F0
:103E6000D8DB0020E855BDE8F08700002DE9F04FD1
:103E7000A3B0044688461646DDE92D7ADDF8B090F9
:103E8000002500201790079006900590D8F800B004
:103E9000D8F804001790331D32685846179902F07D
:103EA000F7FF05461DB1284623B0BDE8F08F18A8DE
:103EB00006F044FD05460DB10020F5E73E480890A8
:103EC0000020ADF826004FF46060ADF824002068B3
:103ED0000A90A0680C9060680E90E06810902069CD
:103EE000129060691490A0690B90E0690D90606A6F
:103EF0001190206A0F90A06A1390E06A159008A9AB
:103F00000AA800F0A3F9054605B150E008AA0AA9DD
:103F100006A800F0DFFA054605B143E0202251462D
:103F2000069800F0C5FB054605B136E008AA0AA9C7
:103F300005A800F03DFC054605B12EE00AA8039057
:103F40000698029018A8049008A8009002ABD6E941
:103F50000001059A00F06AFC054605B118E009F178
:103F60000402D9F80010069800F030F9054607F170
:103F7000080300213A68059800F0C8FB054607F1E0
:103F80000C0301217A68059800F0C0FB054300BFCF
:103F900008A905A800F09EFB00BF08A906A800F02C
:103FA0009FF800BF08A907A800F079F800BF18A87B
:103FB00006F0FAFC284677E72C6A012030B50400A9
:103FC0000D464FF0000018BF002D27D021680029B2
:103FD0001CBFA168002921D0296800291FBF6A6879
:103FE000002AAA68002A19D0227B2A73227B12F0A9
:103FF000020F18BF30BD2068FFF71EFC002818BF55
:1040000030BD69686068FFF717FC002818BF30BD35
:10401000A968A068BDE83040FFF70EBC41F25440EB
:1040200030BD002812BF002941F25440704730B51E
:104030000446006B0D4600281FBF016800298168F7
:10404000002904BF41F2534030BD294608F049F928
:10405000206B2946083008F044F9206BC16819B17B
:104060000C30294608F03DF9206B416819B1001D5C
:10407000294608F036F9206B016919B1103029463C
:1040800008F02FF9206B416919B11430294608F066
:1040900028F9E8881838E8800020206330BD00281F
:1040A00012BF002941F25440704730B50446006801
:1040B0000D46002804BF41F2534030BD083008F0DF
:1040C00010F920682946001D08F00BF929462068E0
:1040D00008F007F9E8881038E8800020206030BD3B
:1040E000002812BF002941F25440704730B5054600
:1040F00000680C46002804BF41F2564030BD08F06D
:10410000F0F8E088001FE0800020286030BD00004B
:1041100038B5144600221D460092002818BF002C16
:1041200020D0002D1CBF0268002A1BD04368002B42
:104130001CBF8368002B15D0927992002A60A1B130
:10414000012917D0022918BF41F2544017D01E4A46
:10415000012191609168116800914B1CA4F101014B
:1041600019D111E041F2544038BD00682146FFF7F3
:1041700059FAECE740682146FFF754FAE7E7806810
:104180002146FFF74FFAE2E7009B136012680092A6
:10419000002A08BF38BD227802F05F0222702B6827
:1041A00082F055025B1E04EB63031A702A6894F8D0
:1041B00000C0535C4CF0AA0C83EA0C0353542968EA
:1041C0004910296038BD00000030024038B50D4666
:1041D000002114460091002819BF002D002C41F247
:1041E000544038BD016889798A00226000682946F8
:1041F000FFF718FA144A0121916091681168009143
:104200004B1CA5F1010106D1009B136012680092BE
:10421000002A08BF38BD2A7802F05F022A7023689E
:1042200082F055025B1E05EB63031A70226895F855
:1042300000C0535C4CF0AA0C83EA0C035354216871
:104240004910216038BD000000300240F0B50E4634
:10425000040014BF002E41F2544500F0CB802069C9
:1042600000281CBF6069002839DD442837DC21683C
:10427000002934D06168002931DB44292FDCA16991
:1042800000291CBFE169002929DD442927DC3168A8
:1042900029B3C01C20F00300B28800EB400060236B
:1042A00003EB4000904288BF40F2ED357ED8F088A5
:1042B00008442063F0881830F080206B002804BF89
:1042C00040F2ED30F0BD61690830C91C8908324602
:1042D00007F0E6FF05004FF0000703D086E041F24B
:1042E000534587E060693246C01C8108206B07F0A7
:1042F000D7FF050075D1206B0268D4E900010AF0F0
:10430000ABF9206B8268D4E904010AF0A5F9E069F1
:104310003246C01C8108206B0C3007F0C1FF05003D
:104320005BD1206BC268D4E906010AF095F9206BD5
:104330004760206B0761206B4761A06898B1E06817
:10434000002810DD44280EDAC01C8108206B32469C
:10435000001D07F0A5FF05003AD1206B4268D4E9A3
:1043600002010AF079F9206A00281CBF606A00285F
:1043700040DD44283EDAA16A00291CBFE16A002919
:1043800038DD442936DAC01C8108206B32461030F3
:1043900007F086FF050016D1206B0269D4E90801F9
:1043A0000AF05AF9E06AC01C810800E022E0206BA4
:1043B0003246143007F074FF0500206B1CD010301B
:1043C000314607F08EFF206B3146001D07F089FF54
:1043D000206B31460C3007F084FF3146206B07F02C
:1043E00080FF206B3146083007F07BFFF0881838DB
:1043F000F08027632846F0BD4269D4E90A010AF03B
:104400002BF9F7E7002919BF002A002841F2544090
:10441000704770B50446086B15460E4600281FBF4E
:104420002A68002A8168002904BF41F2534070BD08
:10443000E8888979342301EB410103EB8101AB88E2
:104440000144994284BF40F2ED3070BD10442060B9
:10445000E8882A461030E880306B806881792068CF
:1044600007F01EFFD8B9306B2A4680688179206832
:10447000001D07F015FF70B9306B2A4680688179FE
:104480002068083007F00CFF002820680FD0001DBE
:10449000294607F026FF2946206807F022FFE88812
:1044A0001038E8800020206040F2ED3070BD0068D8
:1044B000002102F0A7FF20680021406802F0A2FF5F
:1044C00020680121806802F09DFF216801200873A7
:1044D000002070BD002919BF002A002841F2544075
:1044E000704730B50446086B00281FBF1368002BC7
:1044F000D0F80CC0BCF1000F04BF41F2534030BDF6
:10450000D0889CF806C0102505EB8C0C9588844457
:10451000AC450CD81818206009D0D088001DD08078
:10452000086BC0688179206807F0BAFE10B140F2CC
:10453000ED3030BD20680021006802F063FF0020EC
:1045400030BD00002DE9F04186B014460C9A1F469C
:104550000E465FEA000818BF002E29D0002C1CBFB1
:10456000002F002A24D0386B002802BF41F25340AC
:1045700006B0BDE8F0818368002B19BF00680028F1
:1045800041F2574006B008BFBDE8F081306800280E
:1045900019BF0068002841F2564006B008BFBDE8C8
:1045A000F08102A9184604F04FFF050005D011E084
:1045B00006B041F25440BDE8F08102A800903B46AD
:1045C00022464146306805F057FD050006D002A896
:1045D00005F033FC06B02846BDE8F081214602AA6A
:1045E000084605F007FF054602A805F026FC002D49
:1045F000F0D1207B10F0020F18BF41F25845E9D1ED
:104600000A48012121738160816801684A1C02D136
:104610000160006828B1D4E900012160A168C4E903
:10462000011006B00020BDE8F0810000003002401B
:1046300078B504004FF000000E46009014BF002E25
:1046400041F254452FD0306B00281FBF0269002A69
:104650004069002808BF41F2534524D01046216824
:10466000FFF7EAF805001ED1306B61684069FFF77B
:10467000E3F8050017D10121A06802F0C3FE0B4842
:1046800001218160826802680092521C04D1009A64
:1046900002600068009028B1D4E900022260A2689C
:1046A000C4E901202173284678BD00000030024093
:1046B00094460B46002812BF002B41F2544070472D
:1046C0000268002A04BF41F256407047614618460E
:1046D00009F0C2BF002812BF002941F254407047C0
:1046E00030B5044600680D46002804BF41F254402E
:1046F00030BD07F0F6FD20682946001D07F0F1FDEA
:10470000E8880838E8800020206030BD38B51446BD
:1047100000221D460092002818BF002C1AD0002D40
:104720001FBF0268002A4368002B13D092799200C1
:104730002A6091B1012918BF41F2544012D01B4A9E
:10474000012191609168116800914B1CA4F1010155
:1047500014D10CE041F2544038BD00682146FEF708
:1047600061FFECE740682146FEF75CFFE7E7009B4E
:10477000136012680092002A08BF38BD207800F04C
:104780005F0020702A6880F05500521E04EB620220
:10479000107028682378425C43F0AA035A404254C0
:1047A00028684010286041F2544038BD0030024073
:1047B000002919BF002A002841F25440704770B503
:1047C0000546086B14460E4600281FBF21680029C5
:1047D000C268002A04BF41F2534070BDE08892795C
:1047E000202303EBC202A38802449A421BD8084448
:1047F0002860E08822460830E080306BC06881790C
:10480000286807F04DFD70B9306B2246C068817989
:104810002868001D07F044FD002808BF70BD214630
:10482000286807F05EFD40F2ED3070BD2DE9FF4FC6
:1048300097B0002001900990039002900490069098
:1048400017981D4600281CBF199800283DD0002D40
:104850001CBF2498002838D0686800281FBF29682A
:104860000029A968002934D02499096800291CBFAF
:10487000006B00282DD0C16800291CBF0269002AE6
:104880002BD08268002A1CBF0068002825D02498FD
:104890009279C08802EB420200EBC202887902EBF7
:1048A000001101F19C02249989888A4288BF40F254
:1048B000ED3B00F2F880411C03A8249A07F0F0FCBD
:1048C0005FEA000B40F0EF800BE041F2544B00F048
:1048D000EAB841F2534B00F0E6B841F2574B00F012
:1048E000E2B86868249A006BC068817902A807F072
:1048F000D7FC5FEA000B6FF003077DD1696806A85B
:10490000249AFFF77FFD5FEA000B76D1696804A85F
:10491000249AFFF777FD5FEA000B6DD16968049870
:10492000FFF786FE68680CA9249A006B806804F083
:104930008BFD5FEA000B7DD16868039C006BC0684B
:104940000B90D5F80880FEF7C6FF06461F30C1174A
:1049500000EBD160C0F3471AC0F34F194FEA89004A
:10496000139006F01F00C0F120004FF0FF3121FA34
:1049700000F01190A17940468A4502D941F2B54B29
:1049800076E00021E171A4F8049006F01F0B226884
:10499000139B06F02DF80246A088401EBBF1000FC5
:1049A00007D02168119B51F820C00CEA030341F89D
:1049B0002030A088012808D9216807EB8003C95856
:1049C000002904BF401EA080F3D00AB193464FE0F7
:1049D00020460B99FEF786FE0028CBDA03988188E3
:1049E000012903D1016809680029A5D00CA900910B
:1049F0006B68069A049901E041E044E005F03CFB55
:104A00005FEA000B34D106990CAA084605F0F2FCC7
:104A10005FEA000B2CD106980068C079012812D1FA
:104A200069680698249B096B0068C9680246FCF710
:104A30002FFE00E01FE05FEA000B19D10698006826
:104A4000C0790128ECD06868006BC16806980068DE
:104A5000FEF748FE00280698006828DB69680246D1
:104A6000249B096BC96807F065FC5FEA000BEAD07C
:104A70000CA805F0E2F904A82499FFF710FB06A89A
:104A80002499FFF70CFB03992498002918BF0028EC
:104A900009D08979C288494207EB8101114408395C
:104AA000C180002003901BB05846BDE8F08F81887C
:104AB000012904D10068006800283FF43DAF0CA82C
:104AC00005F0BBF904A82499FFF7E9FA686803998F
:104AD000249B006BC268084604F07BFB5FEA000B76
:104AE000CDD1069802990068FEF7A6FE06A8249983
:104AF000FFF7D5FA6868249A006BC068817901A82D
:104B000007F0CEFB5FEA000B40F07B816868249AD7
:104B1000006BC068817909A807F0C2FB5FEA000B4F
:104B200040F05F8168680CA9249A006BC06804F0AB
:104B30008BFC5FEA000B40F04481029A0CAB1046FC
:104B40000D9905F093F9044628680D990CAB00689F
:104B5000019A05F08BF9039A04430CAB10460D99AA
:104B600005F084F950EA040B40F02881DDE90101E9
:104B70000CAB099A05F07AF95FEA000B40F01E8150
:104B80006868006BC368B3F804C0BCF1010F05D1BD
:104B900018680068002808BF01210ED01A6807EBCA
:104BA0008C044FEA4C1112594FF0004030EA0204D5
:104BB0001EBF00284008491EF8D11898B1EBC00F5D
:104BC0007DDABCF1010F05D118680068002808BF24
:104BD00001220ED0196807EB8C034FEA4C12C9581A
:104BE0004FF0004030EA01031EBF00284008521E6B
:104BF000F8D1D01DC11700EB5170C01018900146BC
:104C0000019A179809F028FD69680198096BCB682B
:104C1000B3F804C0BCF1010F05D119680968002977
:104C200008BF01210FD04FEA4C111B6807EB8C0C19
:104C30004FF0004253F80C3032EA030C1EBF002A3A
:104C40005208491EF8D1189AD1EBC20160D0202930
:104C50005ED28288012A45D000234FF0010C3CEA45
:104C600002020DD00368C1F12006D3F800C05C68D1
:104C70002CFA01FCB4404CEA040CC3F800C0012338
:104C8000B0F804C0ACF1010C944584BF4FF0040CA3
:104C9000C1F1200426D906680CEB830956F823805D
:104CA00056F8099028FA01F809FA04F948EA0908BF
:104CB00046F8238006685B1C56F8238000E022E05B
:104CC0000CEB830928FA01F856F8099009FA04F95F
:104CD00048EA090846F8238086885B1C921C761EE9
:104CE0009642D8D88288036807EB820253F802C044
:104CF0003CFA01FC43F802C0818809D101291CBF9C
:104D0000491E818004E00146019A179809F0A4FC2D
:104D1000019A0CAB10460D9905F0A8F85FEA000B5C
:104D20004CD16A680198249E126B04460999D2F806
:104D30000C8033462246FCF7ABFC5FEA000B04D044
:104D4000A179A088491C884238D141462046FEF707
:104D5000C9FC002805DB224633464146104607F0D1
:104D6000E9FAA088A179884202D941F2B54B25E041
:104D7000039A0CAB1046019905F078F803990CAA38
:104D8000084604F034FB02990CAA084604F02FFBF5
:104D900003988188012904D10068006800283FF445
:104DA000CBAD199801680298FEF746FD04461998A4
:104DB00041680398FEF740FD40EA040B0CA805F09B
:104DC0003CF802992498002918BF002809D0897955
:104DD000C288494207EB810111440839C180002093
:104DE000029001992498002918BF002809D08979D8
:104DF000C288494207EB810111440839C180002073
:104E0000019009992498002918BF00283FF43BAE6F
:104E10008979C288494207EB810111440839C18070
:104E2000002009902FE6000030B5039C0D4D056071
:104E30000D4D85600D4D45600D4DC5600D4D0561F5
:104E40000D4D456120258561C5614562056285621C
:104E5000C5620A4D0D600A4D4D600A4D15600A4D40
:104E6000556030BD682F0208882F0208A82F02085D
:104E7000C82F0208E82F0208083002084C780120E9
:104E80007E780120B0780120E278012010B5012061
:104E900000F026FB10BD10B5042000F021FB10BD72
:104EA00010B5002201B909E0012901D10A0205E08B
:104EB000022901D10A0201E04FF44072114B1B6834
:104EC00023F440730F4C236023461B681343236075
:104ED00023461B6823F0F803236023461B68F8244D
:104EE00094FAA4F4B4FA84F400FA04F444F002044A
:104EF0002343044C236023461B6843F48033236020
:104F000010BD0000103C024010B5024600200A4BC4
:104F10001B6823F44073084C236023461B6803433B
:104F2000236023461B6843F00403236023461B6869
:104F300043F48033236010BD103C0240074A1268DE
:104F400022F44072054B1A601A4612681A601A461B
:104F5000126842F001021A6001707047103C024072
:104F600010B50949096821F44071074C21602146B8
:104F7000096841F4407121602146096841F001014E
:104F800021600260436010BD103C0240084A126874
:104F900022F44072064B1A601A46126842F480727C
:104FA0001A601A46126842F001021A6001807047C6
:104FB000103C0240084A126822F44072064B1A6004
:104FC0001A46126842F400721A601A46126842F0D9
:104FD00001021A6001607047103C024021480068DD
:104FE00000F0100028B12048C06940F010001E49B0
:104FF000C8611C48006800F0200028B11A48C06948
:1050000040F008001849C8611648006800F04000E8
:1050100028B11548C06940F004001349C86111481F
:10502000006800F0800028B10F48C06940F002001D
:105030000D49C8610B48006800F4807028B10A4827
:10504000C06940F001000849C8610648006800F0E6
:10505000020028B10448C06940F020000249C8613C
:10506000704700000C3C0240405E002070B50446D2
:10507000002500201049C86100F04AFB054609E000
:10508000601C38B124B100F043FB401BA04201D9A1
:10509000032070BD0948006800F480300028EFD17B
:1050A0000648006800F4F97018B1FFF797FF012077
:1050B000EFE70020EDE70000405E00200C3C0240DE
:1050C00030B48288012A05D101680968002904BF2B
:1050D00030BC70470021012A12D0521E4FF0040C40
:1050E00003680CEB810553F821405D5D640844EAD8
:1050F000C57443F82140491C521EF1D18188491ED4
:10510000026852F821305B0842F821308188012979
:105110009CBF30BC7047002B04BF491E818030BC4F
:1051200070472DE9F04782460C4615461E46089FFB
:1051300005F11C02D1B204F11C02D0B206F024FF2A
:105140003946304606F030FF06F03EFF4FF00008CB
:1051500016E04FF000090BE00121504605F0FEFA81
:105160000121504605F0FAFA09F1010000F0FF09AB
:10517000281B401C4845EFDC08F1010000F0FF0847
:10518000B81B401C4045E4DCBDE8F08770B506461E
:105190007721002006F0F8FE7F21002006F004FFB2
:1051A00006F012FF00240FE0002509E0012130463F
:1051B00005F0D4FA0121304605F0D0FA681CC5B2DA
:1051C000782DF3DB601CC4B2802CEDDB70BD2DE9C3
:1051D000F04105460E460027002405E0285DB04258
:1051E00001D1274605E0641C2846FBF753F8A0428E
:1051F000F4D800BF3846BDE8F081000000B505488E
:1052000006F068FE0246501C08B9002000BD10469A
:10521000FCE70000000004082DE9F0438BB00646CF
:105220000C460025164FA846282101A8FBF727F8B1
:105230001BE0384606F04EFE804608F1010098B1AA
:10524000B8F1000F10D00A2201A9384606F032FE4C
:1052500001A8FBF71FF881464A46314601A8FBF733
:1052600037F800B903E06D1C5037A542E1D300BF09
:10527000A54203D100200BB0BDE8F0833846FAE721
:105280000000060800B5084A05E05032B2F1016F8F
:1052900001D9002000BD104606F01CFE401C00286D
:1052A000F3D11046F6E700000000060810B50446EA
:1052B00006222146014806F0FDFD10BD0004040849
:1052C00010B504460CB9012010BD607920B900204A
:1052D0002071204600F006F8022060710120607104
:1052E0000020F1E708B5094A016891420DD100BFDD
:1052F0000749096841F48051054A1160114609685F
:1053000001F48051009100BF00BF08BD0030024091
:105310003038024031B5002400F0FAF9044600BFED
:1053200000F0F6F9001B00998842F9D338BD00005F
:105330002DE9F04104460E460127002500BF27480D
:10534000007E012802D10220BDE8F081012023491E
:10535000087600BF4CF25030FFF788FE0746002F5A
:1053600034D1401E3060206801280FD1207C616854
:10537000FFF7CAFD4CF25030FFF778FE0746184899
:10538000006820F00400164908601FE0A56817E0D7
:10539000217C2846FFF784FD4CF25030FFF766FE73
:1053A00007460F48006820F002000D4908600846D3
:1053B000006820F0F80008600FB1356005E06D1C52
:1053C000D4E902100844A842E2D800BF00BF002080
:1053D0000249087600BF3846B6E70000405E00206C
:1053E000103C02400348006840F00040014908605A
:1053F00000207047103C02402DE9F04106460F4660
:1054000014461D464FF0010800BF1F48007E0128CA
:1054100002D10220BDE8F08101201B49087600BFBF
:105420004CF25030FFF722FE8046B8F1000F23D136
:1054300026B9E1B23846FFF781FD12E0012E04D112
:10544000A1B23846FFF7A2FD0BE0022E04D121469F
:105450003846FFF7AFFD04E022462B463846FFF7FB
:105460007FFD4CF25030FFF701FE80460748006890
:1054700020F001000549086000BF002002490876BD
:1054800000BF4046C6E70000405E0020103C0240DE
:105490000748006800F0004030B1064804490C3964
:1054A00008600548086001E0012070470020FCE723
:1054B000103C024023016745AB89EFCD10B504468F
:1054C0006420FFF727FF012C04D0042C05D1FBF743
:1054D00013FD03E001F0ECFD00E000BF00BF10BDD4
:1054E00010B5044604480068204020B1024804601A
:1054F0002046FFF7E3FF10BD143C0140F8B502461B
:105500000B460025002400200021DFE0012606FADA
:1055100001F51E6806EA0504AC4271D15E68022EF0
:1055200002D05E68122E13D1CF0802F1200656F881
:1055300027004E07F70E0F26BE40B0434F07FF0E61
:105540001E69BE403043CF0802F1200646F827000E
:1055500010684F000326BE40B0431E7906F00306D4
:105560004F00BE40304310605E68012E08D05E6878
:10557000022E05D05E68112E02D05E68122E13D165
:1055800090684F000326BE40B0434F00DE68BE4027
:1055900030439060506801268E40B0431E79C6F3B8
:1055A00000168E4030435060D0684F000326BE4046
:1055B000B0434F009E68BE403043D0605E6806F046
:1055C0008056B6F1805FA8D100BF424E366846F4DF
:1055D0008046404F3E603E46366806F48046009660
:1055E00000BF00BF3C4E8F0856F827008E07370FCC
:1055F0000F26BE40B043394EB24202D1002629E008
:1056000063E0374EB24201D1012623E0354EB2426B
:1056100001D102261EE0344EB24201D1032619E028
:10562000324EB24201D1042614E0314EB24201D1D1
:1056300005260FE02F4EB24201D106260AE02E4E7B
:10564000B24201D1072605E02C4EB24201D1082614
:1056500000E009268F073F0FBE4030431E4E8F08E3
:1056600046F82700264E3068A0435E6806F4803670
:10567000B6F5803F00D12043214E3060361D3068A2
:10568000A0435E6806F40036B6F5003F00D1204323
:105690001B4E361D3060361D3068A0435E6806F430
:1056A0008016B6F5801F00D12043154E08363060B5
:1056B000361D3068A0435E6806F40016B6F5001F7C
:1056C00000D120430E4E0C363060491C1029FFF4E7
:1056D0001DAFF8BD443802400838014000000240C8
:1056E0000004024000080240000C0240001002408A
:1056F0000014024000180240001C0240002002403A
:10570000003C01400AB1816101E00B0483617047F4
:1057100001480068704700000C0100200248006842
:10572000401C0149086070470C01002010B50D486D
:10573000006840F400700B4908600846006840F4B7
:10574000806008600846006840F4807008600520AA
:1057500000F072F8002000F007F800F017F80020C1
:1057600010BD0000003C024070B5044600F098FFF8
:105770004FF47A71B0FBF1F5284601F0A6FA002249
:105780002146501E00F019F8002070BD10B503200E
:1057900000F052F800221146501E00F00EF810BD25
:1057A00000BF00F01F02012191404209920002F166
:1057B000E022C2F8001100BF70472DE9F05F80467B
:1057C0000D461646002704F0F9FD074639462A46DD
:1057D000334601F00700C0F1070ABAF1040F02D9FD
:1057E0004FF0040A01E0C0F1070AD14600F1040AB3
:1057F000BAF1070F02D24FF0000A01E0A0F1030A4C
:10580000D4464FF0010A0AFA09FAAAF1010A0AEA93
:10581000020A0AFA0CFA4FF0010B0BFA0CFBABF17F
:10582000010B0BEA030B4AEA0B042146404604F045
:10583000CDFDBDE8F09F000000BF00F00702064B61
:1058400019684FF6FF031940044B0B4343EA02214A
:10585000014B196000BF70470CED00E00000FA0535
:1058600002461068416200207047F0B503461446B6
:10587000002500221868426A21B942EA04401E68E5
:10588000B06219E01868806A02EB1042002508E057
:10589000186800F5827050F8250002EB1042681C71
:1058A000C5B2481EA842F3DC42EA0447186800F576
:1058B00082704E1E40F826700020F0BD10B50446E0
:1058C000D4F8B00307F07AFC10BD70B504460D465D
:1058D000C5EBC50304F1340101EB8301CA68294615
:1058E000D4F8B00307F0BAFB70BD70B504460D469E
:1058F000C5EBC50304F5EC7101EB8301CA682946C9
:10590000D4F8B00307F017FC70BD10B50446D4F806
:10591000B00307F056FC10BD70B504460D4605F007
:105920008000802808D105F07F00C0EBC00104F1A1
:10593000340000EB810607E005F07F00C0EBC001FA
:1059400004F5EC7000EB810605F07F00307005F087
:105950008000C009707000BF94F87C03012801D159
:10596000022070BD012084F87C0300BF314620680E
:1059700008F038F800BF002084F87C0300BF00BFA7
:10598000EFE770B504460D4605F08000802808D189
:1059900005F07F00C0EBC00104F1340000EB81068C
:1059A00005E0C5EBC50104F5EC7000EB81060020B5
:1059B000B07005F07F003070C5F3C010707000BF8C
:1059C00094F87C03012801D1022070BD012084F8E5
:1059D0007C0300BF3146206808F046FA00BF002073
:1059E00084F87C0300BF00BFEFE72DE9F0470546D0
:1059F0000E4690461F464FF0000906F080008028B2
:105A000008D106F07F00C0EBC00105F1340000EBC7
:105A1000810407E006F07F00C0EBC00105F5EC70E3
:105A200000EB810406F07F00207006F08000C009C2
:105A30006070C4F80880E770607808B12078E08072
:105A4000022F01D10020207100BF95F87C030128AE
:105A500002D10220BDE8F087012085F87C0300BF59
:105A60002146286807F0C8FE00BF002085F87C03A7
:105A700000BF4846EEE72DE9F04104460E461746C2
:105A8000984606F07F00C0EBC00104F5EC7000EB17
:105A90008105EF60C5F814800020A861687006F0E9
:105AA0007F0028702069012800D12F6100BF94F881
:105AB0007C03012802D10220BDE8F081012084F896
:105AC0007C0300BF06F07F0028B9227C29462068AD
:105AD00008F0D0F804E0227C2946206808F04EFA4D
