:020000040800F2
:10000000606201209D010008A5010008FDC50008EF
:10001000A9010008AB010008AD01000800000000C4
:10002000000000000000000000000000AF01000818
:10003000B101000800000000B30100088B2901088D
:10004000B7010008B7010008B7010008B7010008B0
:10005000B7010008B7010008B7010008B7010008A0
:10006000A59B0008B7010008B7010008B701000808
:10007000B7010008B7010008B7010008B701000880
:10008000B7010008B7010008B7010008B701000870
:10009000B7010008B7010008B7010008B701000860
:1000A000B7010008B7010008B7010008B701000850
:1000B000B7010008FD2A0108B7010008B7010008D0
:1000C000B7010008B7010008B7010008B701000830
:1000D000B7010008B7010008B7010008B701000820
:1000E000B7010008B7010008B7010008B701000810
:1000F000B7010008B7010008B7010008B701000800
:10010000B7010008B7010008B7010008B7010008EF
:10011000B7010008B7010008B7010008B7010008DF
:10012000B7010008B7010008B7010008B7010008CF
:10013000B7010008B7010008B7010008B7010008BF
:10014000B7010008B7010008B70100082909010834
:10015000B7010008B7010008B7010008B70100089F
:10016000B7010008B7010008B7010008B70100088F
:10017000B7010008B7010008B7010008000000003F
:10018000B7010008B7010008DFF80CD000F07AFBD7
:1001900000480047F5740108606201200648804766
:1001A00006480047FEE7FEE7FEE7FEE7FEE7FEE75C
:1001B000FEE7FEE7FEE7FEE7652A01088901000881
:1001C0002DE9F0410024061B254671F1000605DAF1
:1001D00001240027D0EB070067EB0101161E73F125
:1001E000000605DA0027D2EB0702012567EB0303BF
:1001F00000F0EBF986460E4617469C46AC4204D00A
:100200000025D0EB050E65EB010624B10020D2EBF2
:10021000000760EB030C704631463A466346BDE882
:10022000F081000000487047A497010810B5431AF8
:10023000934209D28318881803E010F8011D03F8CF
:10024000011D521EF9D210BD40EA01039B0703D0E5
:1002500009E008C9121F08C0042AFAD203E011F805
:10026000013B00F8013B521EF9D210BDD2B201E0B1
:1002700000F8012B491EFBD270470022F6E710B5AB
:1002800013460A4604461946FFF7F0FF204610BD04
:10029000421C10F8011B0029FBD1801A704710B5D1
:1002A000002200E0521C835C8C5CA34201D1002B35
:1002B000F8D1D8B2E1B2401A10BD30B504460020E2
:1002C000034600E05B1C934203D2E05CCD5C401B24
:1002D000F8D030BD2DE9FE4F804681EA0300C00F03
:1002E0000C46009021F0004123F00045B8EB0200DD
:1002F000A94105D24046214690461C460B4602467F
:1003000023F00040104347D0270DC7F30A00C3F382
:100310000A510290401A019040286BDAC3F313008F
:1003200040F4801B0098924620B10023D2EB030AD0
:1003300063EB0B0B01985946C0F14002504600F0A8
:1003400075F906460D4650465946019A00F08DF95A
:1003500010EB08006141002487EA115284EAE77338
:100360001A4340D0009A62B3019A012A4FEA075219
:1003700015DC001B61EB02014FF0004202EA07525C
:10038000CDE90042001C41F5801132462B4600F0B9
:100390008DF903B0BDE8F08F40462146F9E7001B18
:1003A00061EB0201001C41F5801300185B4120182D
:1003B000A2F5001747EB030140EAD570B6196D416D
:1003C00011E06D084FEA360645EAC0754FEA07525C
:1003D000001B61EB0201001C41F5801149084FEA46
:1003E00030000019514132462B4603B0BDE8F04FB2
:1003F00000F04DB90098012240000023D0EB02022A
:1004000063EBE073009821464FEAE074B8EB00001C
:1004100061EB0401E9E783F000435BE781F0004111
:1004200058E72DE9FE4F81EA030404F0004421F06F
:10043000004100944FF0000B23F0004350EA010408
:100440005ED052EA03045BD0C3F30A54C1F30A55E9
:100450002C44A4F2F3340194A0FB0254C1F3130121
:1004600041F48011C3F3130343F4801301FB0244EE
:1004700000FB034E840A970A44EA815447EA8357F3
:10048000A4FB076802958D0A05FB07854FEA932CAC
:1004900004FB0C542705029D4FEA065847EA16371D
:1004A000B5EB08056EEB070C870E920E47EA811735
:1004B00042EA8312A7FB0201B6EB0B0164EB0004D6
:1004C0002B0D43EA0C335E1844EB1C50DA465146C0
:1004D000E7FB0201C5F313044FEA0B3343EA14535D
:1004E0004FEA0432019C43EA0603A4F10C0402948F
:1004F000009CCDE900B400F0D9F803B0BDE8F08F5E
:1005000000200146F9E70EB5C10F80EAE07008440B
:10051000CA07002140F233438DE80E000A460B461D
:1005200000F0C4F803B000BD3EB5CA17CB0F0024DD
:1005300050405140C0186141DA0740F23343009403
:10054000CDE901232246234600F0B0F803B030BDC8
:1005500070B5C1F30A5201F000450024C1F3130144
:1005600040F2FF3341F480119A4202DA0020014642
:1005700070BD40F233439A42A2F2334203DC52424E
:1005800000F063F801E000F051F82C43F0D00023B4
:10059000D0EB030063EB010170BDC1F30A52C1F35C
:1005A000130140F2FF3341F480119A4202DA002035
:1005B0000146704740F233439A42A2F2334202DCD2
:1005C000524200F042B800F031B82DE9F05F054624
:1005D000002092469B4688460646814640241BE002
:1005E000284641464746224600F02FF853465A46D1
:1005F000C01A914110D311461846224600F016F851
:100600002D1A67EB01084F4622460120002100F019
:100610000DF817EB00094E41201EA4F10104DFDCA8
:10062000484631462A464346BDE8F09F202A04DB6F
:10063000203A00FA02F1002070479140C2F12003F5
:1006400020FA03F3194390407047202A04DB203A34
:1006500021FA02F00021704721FA02F3D040C2F1E2
:1006600020029140084319467047202A06DBCB1729
:10067000203A41FA02F043EAE07306E041FA02F35D
:10068000D040C2F12002914008431946704710B58E
:10069000141E73F1000408DA401C41F100019218A5
:1006A0005B411A4301D120F0010010BD2DE9F04D4E
:1006B00092469B4611B1B1FA81F202E0B0FA80F2A3
:1006C00020329046FFF7B2FF04460F4640EA0A0088
:1006D00041EA0B0153465A46084313D0114653EAE8
:1006E000010019D0C8F140025046FFF7AEFF0546A1
:1006F0000E46504659464246FFF798FF084305D03C
:10070000012004E020463946BDE8F08D0020054375
:1007100046EAE0762C4337430A986305E40AA0EBE7
:1007200008000022FD0A44EA47540A3002D500209E
:100730000146E9E7010510196941DDE9084500199D
:100740006941BDE8F04DA2E72DE9F04D81EA0304CF
:1007500004F0004B21F0004514464FF0000A23F04E
:10076000004150EA050220D054EA01021DD0C5F331
:100770000A570246C5F31303C1F31300C1F30A5627
:1007800040F4801543F48013A7EB0608101BD646EF
:1007900008F2FD3873EB050002D308F1010801E00F
:1007A00092185B41B8F1000F03DA00200146BDE862
:1007B000F08D00204FF48011064684460EE0171B92
:1007C00073EB050705D3121B63EB050306434CEAE5
:1007D000010C49084FEA300092185B4150EA0107CA
:1007E000EDD152EA030012D082EA040083EA050147
:1007F000084305D0101BAB4106D20122002306E0BE
:1008000000224FF0004302E06FF0010253101AEB98
:1008100006004CEB085110EB0A0041EB0B01BDE860
:10082000F04DFFF734BF70B521F0004303430CD007
:10083000C1F30A550024D5EB040564EB0403D61775
:10084000AD1AB34102DB0020014670BD201841EB18
:10085000025170BD30B5041E71F1000404DB4FF08D
:100860000044404264EB0101141E73F1000405DBF7
:100870001C464FF00043524263EB0403994208BF09
:10088000904230BD064C074D06E0E06840F00103A1
:1008900094E8070098471034AC42F6D3FFF778FC91
:1008A000B0970108D09701082DE9F04D00231A46B2
:1008B0001B1A8A4103DB00200146BDE8F08DC1F31D
:1008C0000A52C1F3130141F480154FF0000BD10718
:1008D00002D100186D41521E0027044640F2FF115C
:1008E000384601EB620A3E468046024600204FF43D
:1008F0008011FFF7AAFEC2197141BB1846EB010037
:10090000B4EB030C75EB000C04D3E41A65EB0005A3
:1009100017460E46241908F101006D41804634281F
:10092000E3DDF91946EB0600091BA84103D24FF09D
:10093000FF32134601E0002213461BEB070046EB93
:100940000A51BDE8F04DFFF7A2BE70B58C1810F843
:10095000015B15F0070301D110F8013B2A1106D104
:1009600010F8012B03E010F8016B01F8016B5B1E1E
:10097000F9D12B0705D40023521E0DD401F8013BF9
:10098000FAE710F8013BCB1A921C03E013F8015B65
:1009900001F8015B521EF9D5A142D8D3002070BDE9
:1009A0002DE9F80F02F1A003BB4A4FF0010C4FF004
:1009B0000508C2F808C0D2F808C0D2F800C0CDF8C7
:1009C00000C01CF1010C07D1DDF800C0C2F800C066
:1009D00012680092002A7CD04268D3F804C0806874
:1009E0009C6882EA0C02944680EA04076446AB489D
:1009F0004FEA1C65203B50F82560C4F3074502F020
:100A0000FF0A50F8255050F82AA086EA3525C2F38F
:100A1000072604F0FF0B50F8266050F82BB04FEA81
:100A20003649FEB2A8F1010850F8266089EA366618
:100A300075401E69CCF307496E403D0E50F8299071
:100A400050F8255085EA3925C4F30729240E50F8BB
:100A5000299050F824404FEA394989EA3A6985EAF1
:100A600009095D69C7F3074A89EA05054FEA126972
:100A700050F82AA050F82990C2F3074289EA3A298F
:100A8000CCF3072A50F822200CF0FF0C84EA322223
:100A9000C7F3072450F82AA050F8244050F82CC07F
:100AA0004FEA3A4A4FEA34448AEA3B6A84EA3C6CA9
:100AB00089EA0A0982EA0C02D3F818A0D3F81CC00C
:100AC00089EA0A0982EA0C04B8F1000F78DD320ED7
:100AD00000E064E0C4F3074C50F8222050F82CC02A
:100AE00009F0FF0A82EA3C22C9F3072C50F82AA039
:100AF00050F82CC004F0FF0B4FEA3C4705F0FF0C08
:100B000050F82BB050F82CC087EA3C6C82EA0C0CF1
:100B10001A68C6F307478CEA020C2A0E50F82770B1
:100B200050F8222082EA3722C4F30727240E50F817
:100B3000277050F824404FEA374787EA3A677A40EF
:100B40005F68C5F3074A57404FEA196250F82AA078
:100B500050F82220C5F3072582EA3A22C6F3072A75
:100B6000C9F30749F6B250F82AA050F8255050F8BA
:100B7000299050F826604FEA3A4A4FEA35458AEA0A
:100B80003B6A84EA392485EA366582EA0A026C40C7
:100B9000D3F808A0DD6882EA0A026C4028E7026800
:100BA000D3F800C05C6882EA0C0C426882EA040751
:100BB00082689C68C0686240DC68444017E7FFE7D1
:100BC000374850FA85F200EB166C12789CF800C09A
:100BD000C9F3072742EA0C62C4F3074CC75D10F85B
:100BE0000CC04FEA0C4C4CEA072C42EA0C02D3F83A
:100BF00000C082EA0C020A6050FA89F200EB156C20
:100C000012789CF800C0C4F3072742EA0C62C6F3CE
:100C1000074CC75D10F80CC04FEA0C4C4CEA072C8F
:100C200042EA0C02D3F804C082EA0C024A6050FA8D
:100C300084F200EB196C12789CF800C0C6F3072709
:100C400042EA0C6CC5F30742C75D825C120442EABB
:100C500007224CEA0202D3F808C082EA0C028A603A
:100C600050FA86F200EB146C12789CF800C0C5F3C1
:100C7000072442EA0C62C9F3074C10F80CC0005D6F
:100C80004FEA0C4C4CEA00201043DA685040C86030
:100C9000BDE8F80F704700000030024028850108C9
:100CA000008001082DE9F80FC04B4FF0010C4FF008
:100CB0000508C3F808C0D3F808C0D3F800C0CDF8C1
:100CC00000C01CF1010C0AD04368D2F804C00068CF
:100CD00083EA0C07136880EA030C63460FE0DDF833
:100CE00000C0C3F800C01B68009353B14368D2F83A
:100CF00004C0006883EA0C07136843409C466446BE
:100D00000FE00368D2F800C0946883EA0C074368D8
:100D1000D2F804C083EA0C0C8368C0686340D468CE
:100D20004440A3483D0E04F0FF0950F82560CCF381
:100D3000074550F8299050F8255007F0FF0A86EA39
:100D40003525C3F3072650F82AA050F826600CF08A
:100D5000FF0B4FEA364686EA396675401669C3F3DB
:100D600007496E404FEA1C6550F8299050F825500D
:100D7000CCF3072C85EA3925C4F3072950F82CC099
:100D800050F8299050F82BB04FEA394989EA3A696E
:100D900085EA0905D2F81490C4F3074A85EA0905E3
:100DA0004FEA136950F82AA050F82990240E89EAD6
:100DB0003A29C7F3072AC7F30747DBB250F82AA03E
:100DC00050F8244050F8277050F823304FEA3A4A40
:100DD0004FEA3C4C8AEA3B6A84EA37248CEA336364
:100DE00089EA0A0984EA030CD2F818A0D3692032F0
:100DF000A8F1010889EA0A098CEA0304B8F1000F96
:100E000069DD330EC5F3074C50F8233050F82CC081
:100E1000E7B283EA3C23C9F3072C50F8277050F857
:100E20002CC006F0FF0A4FEA3C4C8CEA376C83EA90
:100E30000C03D2F800C050F82AA083EA0C072B0E4E
:100E4000C9F3074C50F8233050F82CC005F0FF0BC5
:100E500083EA3C23C4F3072CC5F3072550F82CC0C4
:100E600050F825504FEA3C4C8CEA3A6C83EA0C036C
:100E7000D2F804C0C4F3074A83EA0C0C4FEA1963A2
:100E800050F82AA050F82330240E83EA3A23C6F300
:100E9000072AC6F3074650F8244050F8266050F859
:100EA0002AA084EA362409F0FF0650F82BB050F847
:100EB00026604FEA3A4A4FEA35458AEA3B6A85EAB4
:100EC000366583EA0A036C40D2F808A0D56883EA45
:100ED0000A036C4026E7374850FA84F300EB166C9F
:100EE0001B789CF800C0C9F3072743EA0C63C5F3DD
:100EF000074CC75D10F80CC04FEA0C4C4CEA072CAD
:100F000043EA0C03D2F800C083EA0C030B6050FAEA
:100F100086F300EB156C1B789CF800C0C4F3072720
:100F200043EA0C63C9F3074CC75D10F80CC04FEAE5
:100F30000C4C4CEA072C43EA0C03D2F804C083EAB9
:100F40000C034B6050FA85F300EB196C1B789CF88E
:100F500000C0C6F3072743EA0C6CC4F30743C75D20
:100F6000C35C1B0443EA07234CEA0303D2F808C01E
:100F700083EA0C038B6050FA89F300EB146C1B7846
:100F80009CF800C0C5F3072443EA0C63C6F3074C82
:100F9000D26810F80CC0005D4FEA0C4C4CEA0020FF
:100FA00018435040C860BDE8F80F70470030024059
:100FB00028810108007F01082DE9F04105460C4613
:100FC00000F094F82868206068686060A868A060F5
:100FD000E868E0604448012600F5C5611034D4E9B2
:100FE00000C300EB1C67CCF307483F7810F808807B
:100FF00051F8277051F8288087EA3827CCF3072862
:1010000010F8088051F828804FEA384850FA8CFCD4
:101010009CF800C0D4E9022551F82CC088EA3C6C49
:1010200087EA0C0CC4F800C000EB136CC3F307474D
:101030009CF800C0C75D51F82CC051F827708CEAAD
:10104000372CC3F30727C75D51F827704FEA37479E
:1010500050FA83F31B7851F8233087EA33638CEA24
:101060000303636000EB1263C2F3074C1B7810F8B4
:101070000CC051F8233051F82CC083EA3C23C2F352
:10108000072C10F80CC051F82CC04FEA3C4C50FA19
:1010900082F2127851F822208CEA32625A40A26021
:1010A00000EB1562C5F307431278C35C51F82220A8
:1010B00051F8233082EA3322C5F30723C35C51F889
:1010C00023304FEA334350FA85FC9CF800C0761C6D
:1010D00051F82CC083EA3C635A40E2600A2EFFF6C6
:1010E0007DAFBDE8F0810000007F01082DE9F0032D
:1010F000D0E900C38268C068184CC1E90220E1E869
:1011000004C30A26A4F5007505EB1067C0F3074871
:101110003F7815F8088047EA0867C0F3072815F8F4
:1011200008804FEA084855FA80F999F8009048EA93
:10113000092847EA080787EA0C0C54F8047B8CEA74
:10114000070C83EA0C035A405040C1E90220E1E851
:1011500004C3761ED8D1BDE8F003704700810108B2
:101160002DE9F80F02F1C003BA4A4FF0010C4FF01D
:101170000608C2F808C0D2F808C0D2F800C0CDF8FE
:1011800000C01CF1010C07D1DDF800C0C2F800C09E
:1011900012680092002A7CD04268D3F804C08068AC
:1011A0009C6882EA0C02944680EA04076446AA48D6
:1011B0004FEA1C65203B50F82560C4F3074502F058
:1011C000FF0A50F8255050F82AA086EA3525C2F3C8
:1011D000072604F0FF0B50F8266050F82BB04FEABA
:1011E0003649FEB250F8266089EA366675401E69B7
:1011F000CCF307496E403D0E50F8299050F8255029
:1012000085EA3925C4F30729240E50F8299050F8AF
:1012100024404FEA394989EA3A6985EA09095D6952
:10122000C7F3074A89EA05054FEA126950F82AA070
:1012300050F82990C2F3074289EA3A29CCF3072AE9
:1012400050F822200CF0FF0C84EA3222C7F3072466
:1012500050F82AA050F8244050F82CC04FEA3A4ADF
:101260004FEA34448AEA3B6A84EA3C6C89EA0A0918
:1012700082EA0C02D3F818A0D3F81CC089EA0A0944
:1012800082EA0C04B8F1010878D0320E50F822201E
:1012900000E062E0C4F3074C09F0FF0A50F82CC0EC
:1012A00050F82AA082EA3C22C9F3072C04F0FF0B75
:1012B00050F82CC050F82BB04FEA3C4705F0FF0C1B
:1012C00050F82CC087EA3C6C82EA0C0C1A68C6F312
:1012D00007478CEA020C2A0E50F8277050F822209B
:1012E00082EA3722C4F30727240E50F8277050F8FB
:1012F00024404FEA374787EA3A677A405F68C5F388
:10130000074A57404FEA196250F82AA050F82220A5
:10131000C5F3072582EA3A22C6F3072AC9F307492B
:10132000F6B250F82AA050F8255050F8299050F8FD
:1013300026604FEA3A4A4FEA35458AEA3B6A84EA30
:10134000392485EA366582EA0A026C40D3F808A09F
:10135000DD6882EA0A026C402AE70268D3F800C01E
:101360005C6882EA0C0C426882EA040782689C6826
:10137000C0686240DC68444019E7FFE7374850FA2C
:1013800085F200EB166C12789CF800C0C9F30727B1
:1013900042EA0C62C4F3074CC75D10F80CC04FEA78
:1013A0000C4C4CEA072C42EA0C02D3F800C082EA4B
:1013B0000C020A6050FA89F200EB156C12789CF866
:1013C00000C0C4F3072742EA0C62C6F3074CC75DAE
:1013D00010F80CC04FEA0C4C4CEA072C42EA0C0205
:1013E000D3F804C082EA0C024A6050FA84F200EB9F
:1013F000196C12789CF800C0C6F3072742EA0C6CFF
:10140000C5F30742C75D825C120442EA07224CEA38
:101410000202D3F808C082EA0C028A6050FA86F20F
:1014200000EB146C12789CF800C0C5F3072442EA64
:101430000C62C9F3074C10F80CC0005D4FEA0C4C6D
:101440004CEA00201043DA685040C860BDE8F80F4D
:101450007047000000300240288501080080010824
:101460002DE9F80FC04B4FF0010C4FF00608C3F800
:1014700008C0D3F808C0D3F800C0CDF800C01CF1F4
:10148000010C0AD04368D2F804C0006883EA0C0754
:10149000136880EA030C63460FE0DDF800C0C3F870
:1014A00000C01B68009353B14368D2F804C00068C1
:1014B00083EA0C07136843409C4664460FE00368C8
:1014C000D2F800C0946883EA0C074368D2F804C0DD
:1014D00083EA0C0C8368C0686340D4684440A34826
:1014E0003D0E04F0FF0950F82560CCF3074550F895
:1014F000299050F8255007F0FF0A86EA3525C3F3F6
:10150000072650F82AA050F826600CF0FF0B4FEA8F
:10151000364686EA396675401669C3F307496E4058
:101520004FEA1C6550F8299050F82550CCF3072C51
:1015300085EA3925C4F3072950F82CC050F82990C2
:1015400050F82BB04FEA394989EA3A6985EA09052A
:10155000D2F81490C4F3074A85EA09054FEA1369E3
:1015600050F82AA050F82990240E89EA3A29C7F3A6
:10157000072AC7F30747DBB250F82AA050F82440E7
:1015800050F8277050F823304FEA3A4A4FEA3C4C63
:101590008AEA3B6A84EA37248CEA336389EA0A09D7
:1015A00084EA030CD2F818A0D3692032A8F101080C
:1015B00089EA0A098CEA0304B8F1000F69DD330EE9
:1015C000C5F3074C50F8233050F82CC0E7B283EA3B
:1015D0003C23C9F3072C50F8277050F82CC006F0B4
:1015E000FF0A4FEA3C4C8CEA376C83EA0C03D2F8D2
:1015F00000C050F82AA083EA0C072B0EC9F3074C51
:1016000050F8233050F82CC005F0FF0B83EA3C2340
:10161000C4F3072CC5F3072550F82CC050F825500B
:101620004FEA3C4C8CEA3A6C83EA0C03D2F804C0D3
:10163000C4F3074A83EA0C0C4FEA196350F82AA056
:1016400050F82330240E83EA3A23C6F3072AC6F360
:10165000074650F8244050F8266050F82AA084EA43
:10166000362409F0FF0650F82BB050F826604FEAF8
:101670003A4A4FEA35458AEA3B6A85EA366583EAA3
:101680000A036C40D2F808A0D56883EA0A036C40CC
:1016900026E7374850FA84F300EB166C1B789CF869
:1016A00000C0C9F3072743EA0C63C5F3074CC75DC5
:1016B00010F80CC04FEA0C4C4CEA072C43EA0C0320
:1016C000D2F800C083EA0C030B6050FA86F300EBFB
:1016D000156C1B789CF800C0C4F3072743EA0C6321
:1016E000C9F3074CC75D10F80CC04FEA0C4C4CEA2C
:1016F000072C43EA0C03D2F804C083EA0C034B60C6
:1017000050FA85F300EB196C1B789CF800C0C6F307
:10171000072743EA0C6CC4F30743C75DC35C1B0493
:1017200043EA07234CEA0303D2F808C083EA0C0318
:101730008B6050FA89F300EB146C1B789CF800C0A6
:10174000C5F3072443EA0C63C6F3074CD26810F8CC
:101750000CC0005D4FEA0C4C4CEA0020184350408E
:10176000C860BDE8F80F70470030024028810108CA
:10177000007F01082DE9F0410C4600F08BF8444849
:10178000012600F5C5621034D4E900C300EB1C67E4
:10179000CCF307483F7810F8088052F8277052F8C9
:1017A000288087EA3827CCF3072810F8088052F8F9
:1017B00028804FEA384850FA8CFC9CF800C0D4E9E5
:1017C000021552F82CC088EA3C6C87EA0C0CC4F86D
:1017D00000C000EB136CC3F307479CF800C0C75D63
:1017E00052F82CC052F827708CEA372CC3F3072725
:1017F000C75D52F827704FEA374750FA83F31B78DA
:1018000052F8233087EA33638CEA0303636000EB0A
:101810001163C1F3074C1B7810F80CC052F8233049
:1018200052F82CC083EA3C23C1F3072C10F80CC0FB
:1018300052F82CC04FEA3C4C50FA81F1097852F82A
:1018400021108CEA31615940A16000EB1561C5F3AC
:1018500007430978C35C52F8211052F8233081EA1B
:101860003321C5F30723C35C52F823304FEA3343D7
:1018700050FA85FC9CF800C0761C52F82CC083EA14
:101880003C635940E1600C2EFFF67DAFBDE8F0816E
:10189000007F01082DE9F00F02680A60D0E900C25C
:1018A0004A60D0E901328A60D0E90225CD60D0E9F2
:1018B00003560E61D0E904674F611B4F4069002455
:1018C00007F5007907EB1068C0F3074A98F8008025
:1018D00017F80AA048EA0A68C0F3072A17F80AA00E
:1018E0004FEA0A4A57FA80FB9BF800B04AEA0B2AF3
:1018F00048EA0A0888EA0C0C59F82480641C8CEA2F
:10190000080C83EA0C035A40554041F818CF082CC4
:10191000CD60C1E90132A4BFBDE8F00F70476E4051
:101920007040C1E90460CDE7007F01082DE9F80FA0
:1019300002F1E003BB4A4FF0010C4FF00708C2F878
:1019400008C0D2F808C0D2F800C0CDF800C01CF121
:10195000010C07D1DDF800C0C2F800C01268009287
:10196000002A7CD04268D3F804C080689C6882EA70
:101970000C02944680EA04076446AB484FEA1C65B3
:10198000203B50F82560C4F3074502F0FF0A50F8E9
:10199000255050F82AA086EA3525C2F3072604F020
:1019A000FF0B50F8266050F82BB04FEA3649FEB2D4
:1019B000A8F1010850F8266089EA366675401E696C
:1019C000CCF307496E403D0E50F8299050F8255051
:1019D00085EA3925C4F30729240E50F8299050F8D8
:1019E00024404FEA394989EA3A6985EA09095D697B
:1019F000C7F3074A89EA05054FEA126950F82AA099
:101A000050F82990C2F3074289EA3A29CCF3072A11
:101A100050F822200CF0FF0C84EA3222C7F307248E
:101A200050F82AA050F8244050F82CC04FEA3A4A07
:101A30004FEA34448AEA3B6A84EA3C6C89EA0A0940
:101A400082EA0C02D3F818A0D3F81CC089EA0A096C
:101A500082EA0C04B8F1000F78DD320E00E064E099
:101A6000C4F3074C50F8222050F82CC009F0FF0AAC
:101A700082EA3C22C9F3072C50F82AA050F82CC067
:101A800004F0FF0B4FEA3C4705F0FF0C50F82BB079
:101A900050F82CC087EA3C6C82EA0C0C1A68C6F33A
:101AA00007478CEA020C2A0E50F8277050F82220C3
:101AB00082EA3722C4F30727240E50F8277050F823
:101AC00024404FEA374787EA3A677A405F68C5F3B0
:101AD000074A57404FEA196250F82AA050F82220CE
:101AE000C5F3072582EA3A22C6F3072AC9F3074954
:101AF000F6B250F82AA050F8255050F8299050F826
:101B000026604FEA3A4A4FEA35458AEA3B6A84EA58
:101B1000392485EA366582EA0A026C40D3F808A0C7
:101B2000DD6882EA0A026C4028E70268D3F800C048
:101B30005C6882EA0C0C426882EA040782689C684E
:101B4000C0686240DC68444017E7FFE7374850FA56
:101B500085F200EB166C12789CF800C0C9F30727D9
:101B600042EA0C62C4F3074CC75D10F80CC04FEAA0
:101B70000C4C4CEA072C42EA0C02D3F800C082EA73
:101B80000C020A6050FA89F200EB156C12789CF88E
:101B900000C0C4F3072742EA0C62C6F3074CC75DD6
:101BA00010F80CC04FEA0C4C4CEA072C42EA0C022D
:101BB000D3F804C082EA0C024A6050FA84F200EBC7
:101BC000196C12789CF800C0C6F3072742EA0C6C27
:101BD000C5F30742C75D825C120442EA07224CEA61
:101BE0000202D3F808C082EA0C028A6050FA86F238
:101BF00000EB146C12789CF800C0C5F3072442EA8D
:101C00000C62C9F3074C10F80CC0005D4FEA0C4C95
:101C10004CEA00201043DA685040C860BDE8F80F75
:101C2000704700000030024028850108008001084C
:101C30002DE9F80FC14B4FF0010C4FF00708C3F826
:101C400008C0D3F808C0D3F800C0CDF800C01CF11C
:101C5000010C7CD04368D2F804C08068946883EAA1
:101C60000C039C4680EA04076446B5484FEA1C65AD
:101C7000C7F3074650F8255050F8266004F0FF09D6
:101C800085EA3625C3F3072650F8299050F82660D8
:101C90000CF0FF0A4FEA364686EA39666E4015694F
:101CA000C3F307496E403D0E50F8299050F8255077
:101CB00050F82AA085EA3925C4F3072907F0FF0B5D
:101CC00050F8299050F82BB04FEA394989EA3A691F
:101CD00085EA09095569C4F3074A89EA05054FEA07
:101CE000136950F82AA050F82990240E89EA3A295D
:101CF000CCF3072ACCF3074C50F8244050F82CC002
:101D0000DBB284EA3C2CC7F3072450F82AA050F831
:101D1000244050F823304FEA3A4A4FEA34448AEAE2
:101D20003B6A84EA336389EA0A098CEA0303D2F83E
:101D300018A0D2F81CC02032A8F1010889EA0A09CB
:101D400083EA0C04B8F1000F7BDD330E00E065E0A0
:101D5000C5F3074C50F8233050F82CC0E7B283EAA3
:101D60003C23C9F3072C50F8277050F82CC006F01C
:101D7000FF0A4FEA3C4C8CEA376C83EA0C03D2F83A
:101D800000C0C9F3074783EA0C0C2B0E50F82770EC
:101D900050F8233050F82AA083EA3723C4F30727EA
:101DA00005F0FF0B50F82770C5F307254FEA3747BA
:101DB00087EA3A677B405768C4F3074A5F404FEAB7
:101DC000196350F82AA050F82330240E83EA3A23EE
:101DD000C6F3072AC6F3074650F8244050F8266099
:101DE00050F82AA084EA362409F0FF0650F825505E
:101DF00050F82BB050F826604FEA3A4A4FEA354582
:101E00008AEA3B6A85EA366583EA0A036C40D2F8BF
:101E100008A0D56883EA0A036C4027E7DDF800C014
:101E2000C3F800C01B68009363B14368D2F804C0D4
:101E30008068946883EA0C0C80EA04076346644671
:101E400013E70FE00368D2F800C0546883EA0C0C73
:101E5000436883EA040783689468C0686340D46871
:101E6000444002E7374850FA84F300EB166C1B78C5
:101E70009CF800C0C9F3072743EA0C63C5F3074C7D
:101E8000C75D10F80CC04FEA0C4C4CEA072C43EA33
:101E90000C03D2F800C083EA0C030B6050FA86F3FF
:101EA00000EB156C1B789CF800C0C4F3072743EACD
:101EB0000C63C9F3074CC75D10F80CC04FEA0C4C1B
:101EC0004CEA072C43EA0C03D2F804C083EA0C0363
:101ED0004B6050FA85F300EB196C1B789CF800C03E
:101EE000C6F3072743EA0C6CC4F30743C75DC35C22
:101EF0001B0443EA07234CEA0303D2F808C083EA31
:101F00000C038B6050FA89F300EB146C1B789CF87F
:101F100000C0C5F3072443EA0C63C6F3074CD2683C
:101F200010F80CC0005D4FEA0C4C4CEA002018433E
:101F30005040C860BDE8F80F704700000030024014
:101F400028810108007F01082DE9F0410C4600F0CE
:101F50008BF84448012600F5C5621034D4E900C36B
:101F600000EB1C67CCF307483F7810F8088052F864
:101F7000277052F8288087EA3827CCF3072810F812
:101F8000088052F828804FEA384850FA8CFC9CF8B8
:101F900000C0D4E9021552F82CC088EA3C6C87EAEC
:101FA0000C0CC4F800C000EB136CC3F307479CF89B
:101FB00000C0C75D52F82CC052F827708CEA372C4D
:101FC000C3F30727C75D52F827704FEA374750FA27
:101FD00083F31B7852F8233087EA33638CEA0303D8
:101FE000636000EB1163C1F3074C1B7810F80CC061
:101FF00052F8233052F82CC083EA3C23C1F3072C5B
:1020000010F80CC052F82CC04FEA3C4C50FA81F149
:10201000097852F821108CEA31615940A16000EB37
:102020001561C5F307430978C35C52F8211052F8D3
:10203000233081EA3321C5F30723C35C52F82330F0
:102040004FEA334350FA85FC9CF800C0761C52F8E6
:102050002CC083EA3C635940E1600E2EFFF67DAF51
:10206000BDE8F081007F01082DE9F04FD0E902C200
:10207000D0E90054C1E902C2C1E90054D0E90487A3
:10208000C1E90487D0E90663C1E906632B484FF034
:10209000000900BF00EB136AC3F3074B9AF800A0D6
:1020A00010F80BB04AEA0B6AC3F3072B10F80BB019
:1020B0004FEA0B4B50FA83FE9EF800E020314BEACA
:1020C0000E2B4AEA0B0A8AEA050A1D4D55F82950DB
:1020D00009F101098AEA05056C408CEA040C82EAE0
:1020E0000C02C1E902C2C1E90054B9F1070FA8BF4F
:1020F000BDE8F08F50FA82FA9AF800A000EB126B5C
:10210000C2F3072E9BF800B010F80EE04AEA0B6A03
:10211000C2F3074B10F80BB04FEA0B4B4BEA0E2BF8
:102120004AEA0B0A8AEA080887EA08077E407340F1
:10213000C1E90663C1E90487ACE70000007F01083C
:10214000008101082DE9F04784B01F46DDF830A07A
:1021500091468846060018BFB8F1000F0FD0002F37
:1021600018BFBAF1000F0AD0B9F1000F02DD19F063
:102170000F0F09D004B040F61D40BDE8F08704B051
:102180004FF44260BDE8F087307910F0020F13BFC2
:1021900040F61E4000246D4604B018BFBDE8F0872D
:1021A0005FF0000004EB800158F8011009BA45F80F
:1021B0002010401C0428F5DB736A6846014606F1CE
:1021C0002802182B04D0202B05D0FEF7E9FB04E0F1
:1021D000FEF7C6FF01E0FFF7A9FB4FF0000C00BFC0
:1021E00055F82C0004EB8C0100BA0CF1010C78506E
:1021F000BCF1040FF4DB10344C45D1DBCAF80040CD
:1022000004B00020BDE8F087002812BF002A4FF478
:1022100042607047017941F00201017100201060B5
:102220007047032300F072B82DE9F04784B01F46D1
:10223000DDF830A091468846060018BFB8F1000FBF
:102240000FD0002F18BFBAF1000F0AD0B9F1000F5C
:1022500002DD19F00F0F09D004B040F61D40BDE8B3
:10226000F08704B04FF44260BDE8F087307910F099
:10227000020F13BF40F61E4000246D4604B018BF85
:10228000BDE8F0875FF0000004EB800158F8011012
:1022900009BA45F82010401C0428F5DB736A68462B
:1022A000014606F12802182B04D0202B05D0FEF79A
:1022B000F9FC04E0FFF7D4F801E0FFF7B9FC4FF0B8
:1022C000000C00BF55F82C0004EB8C0100BA0CF197
:1022D000010C7850BCF1040FF4DB10344C45D1DB19
:1022E000CAF8004004B00020BDE8F087002812BF03
:1022F000002A4FF442607047017941F002010171F8
:102300000020106070470223AFF30080002818BF40
:10231000002905D003F0060C2AB9BCF1020F02D047
:102320004FF4426070472DE9F043446A89B0102CA5
:102330001CBF182C202C06D1BCF1020F08D0046958
:10234000641E102C04D309B040F61F40BDE8F08392
:10235000C2600479BCF1020F24F00604047149D074
:10236000002444618461C46104620569002DD8BF02
:102370004FF0000C06DD15F0010C03D0167844EA8E
:10238000066444616545C8BF182433DD4FEAEC7527
:102390000CEB957525F003063718ACEB060607F134
:1023A000140512F80C8076427F6904EBC60608FA21
:1023B00006F63E432E600CF10107FE1707EB9675FB
:1023C00025F0030606EB000802EB0C09BE1B08F122
:1023D000140599F801907642D8F8148004EBC606EB
:1023E00009FA06F648EA06062E6005690CF1020CA9
:1023F0006545CBDC027912F0010F55D1816013F0F5
:10240000010F0DD006229A430AD0426A0B4600F112
:1024100028014FEAE27C00206C4602EB9C7C2FE016
:1024200000F1280C426A0020D3176C4602EB93732C
:1024300006E000BF51F820502DBA44F82050401C4F
:10244000B0EBA30FF6DB102A04D0182A07D0202AFD
:102450002AD109E061462046FEF748FE24E06146A5
:102460002046FFF717FA1FE061462046FFF7FCFD04
:102470001AE000BF53F820502DBA44F82050401CF9
:10248000B0EBAC0FF6DB102A07D0182A09D0202AAF
:1024900004BF2046FFF758FD06E02046FEF78CFDFE
:1024A00002E02046FFF766F909B00020BDE8F0839E
:1024B00000B587B000BF1148006840F002000F4926
:1024C00008600846006800F00200019000BF00BFED
:1024D0004FF44070029003200590112003900020DB
:1024E000049002A9064807F07FFE01200549086014
:1024F0000549C1F8A40207B000BD00003038024011
:1025000000040240A08240420080404270B5044670
:102510000E4610F099F8C9200FF082FE16480068A8
:1025200008B1EA2070BD0EF089FC2070002000F098
:102530002BFD2578042D01DBB54203DD10F0B0F84A
:10254000E420EFE7681EC5B2641C0EE00EF076FCD6
:1025500004F8010B681EC0B2050003D0002000F093
:1025600013FD02E0012000F00FFD002DEED110F070
:1025700097F80020D6E700006C01002070B50446F3
:102580000D4610F061F8C8200FF04AFE0B480068B5
:1025900008B1EA2070BD0AE020780FF041FE07483C
:1025A000006808B1F720F5E7641C681EC5B2002D6D
:1025B000F2D110F075F80020ECE700006C0100206B
:1025C00070B504460025E126204614F05BF8064667
:1025D0000EB9012500E00025284670BD10B5002089
:1025E00004490860502012F07DFD01200249C1F825
:1025F000A40210BDA4824042008040422DE9F04177
:1026000094B004460D4616464FF00108E12700BF7E
:1026100015F0F4FA10B94FF0000828E011A814F0F2
:102620008BF8074617B14FF0000820E0242108A8D6
:10263000FDF723FE40208DF80400ADF8064002951A
:1026400000200390049011A805900020069008A88F
:102650000790BDF806109DF804003346029A13F067
:10266000A4FF074617B14FF0000800E000BF00BF0D
:10267000404614B0BDE8F0812DE9FC4104460D460A
:102680000026002700BF15F0B9FA08B900BF0EE018
:10269000202000231A462146CDE90050022014F0E4
:1026A0006CF807460FB1002600E0012600BF00BF0E
:1026B0003046BDE8FC812DE9FC4704460D46164630
:1026C0001F464FF00008C14600BF15F086FA08B952
:1026D00000BF11E02B46002221460220CDE9006711
:1026E00014F035F98146B9F1000F02D04FF000081F
:1026F00001E04FF0010800BF00BF4046BDE8FC8785
:1027000030B587B00024002500BF2748006840F09E
:102710000400254908600846006800F004000190A4
:1027200000BF00BF042002902048039001200490C5
:1027300002A91F4807F058FD0820029001200390CD
:1027400004900320059002A9194807F04DFD0322CB
:102750000221082007F0AFFE082007F09FFE0AF0D4
:102760000DFD0AF079FE00F0ABF8052007F016FD2C
:1027700000200AF091FC044621460EA012F08AFCCB
:1027800000F066FA01201149087000201049087015
:102790001049087001200AF07FFC054629460EA06A
:1027A00012F078FC07B030BD303802400000211034
:1027B0000008024041573931333620636869702080
:1027C00049443A30782534780D0A00007001002021
:1027D0007101002072010020415739313336204702
:1027E00043523A307825780D0A00000010B54FF4B6
:1027F0004C5157200AF074FC032158200AF070FC59
:102800001C2150200AF06CFCFC2155200AF068FCC9
:102810004FF4224161200AF063FC4FF42341612010
:102820000AF05EFC4FF4244161200AF059FC0321B8
:1028300001200AF055FC10BD10B54FF44C51572043
:102840000AF04EFC032158200AF04AFC1C215020BB
:102850000AF046FCFC2155200AF042FC4AF2FF2116
:1028600061200AF03DFC4AF2FF3161200AF038FC99
:102870004AF2FF4161200AF033FC032101200AF0F3
:102880002FFC10BD10B532200AF006FC044620468D
:1028900010BD000010B509480068012802D00228C8
:1028A00006D102E000F0B4FA03E000F05BFA00E0C9
:1028B00000BF00BFFFF7E6FF10BD00008001002051
:1028C00010B500220821074807F09AFD052007F0FF
:1028D00065FC01220821034807F092FD0A2007F059
:1028E0005DFC10BD0008024030B58FB0D1480078C3
:1028F00060B913200AF0D0FB019014200AF0CCFB41
:10290000029015200AF0C8FB03900BE0002407E0BA
:10291000C94850F8240001A941F82400601CC4B241
:10292000032CF5DB03211E200AF0DAFB002409E06A
:1029300004F13601C8B20AF0AFFB07A941F8240040
:10294000601CC4B2062CF3DB02200AF0A5FB05468E
:10295000002410E0B948007808B9002006E0B84823
:1029600050F8240007A951F824100844B44941F84C
:102970002400601CC4B2062CECDBB04800780128AF
:102980006FD10024DBE00120A0402840002869D15D
:10299000AB4850F824004FF47A71B1EBA00F70DD12
:1029A000204604EBD0714910A4EB410199B16110AC
:1029B00001AA32F8211001F47F41B1F5805F0AD1FC
:1029C000601001A911F82000611042F821000220D6
:1029D0000DA908559CE0204604EBD0714910A4EBEA
:1029E000410151B1611001AA32F8211001F47F4177
:1029F00019B900200DA908558AE0204604EBD071D2
:102A00004910A4EB410191B9611001AA12F82110FB
:102A100010290CD1601001A931F8200000F47F408A
:102A2000611042F8210002200DA9085570E02046EF
:102A300004EBD0714910A4EB410141B9611001AA26
:102A400012F8211019B900200DA9085560E02046A0
:102A500004EBD0714910A4EB410121B14FF4807116
:102A600002E0D7E069E00121621001AB53F82220B7
:102A7000511A621043F8221002200DA9085547E0B0
:102A8000FFE76F4850F8240040F6B831B1EBA00FD3
:102A90003BDA204604EBD0714910A4EB410161B14F
:102AA000611001AA32F8211001F47F41B1F5F85FFD
:102AB00003D100200DA908552AE0204604EBD0716F
:102AC0004910A4EB410149B9611001AA12F8211083
:102AD0001F2903D100200DA9085519E0204604EB59
:102AE000D0714910A4EB410111B14FF4807100E0A5
:102AF0000121621001AB53F822201144621043F807
:102B0000221001200DA9085502E000200DA908554A
:102B100048480078002810DD0DA8005D4949095D8E
:102B200088420AD000200DA908556010424951F88A
:102B30002000611001AA42F82100601CC4B2062CDA
:102B4000FFF621AF00204049087000240BE001206F
:102B5000A040284028B90DA8005D10B101203A49D5
:102B60000870601CC4B2062CF1DB3748007830B91D
:102B70003048007818B900203449087002E001207C
:102B8000324908703048007830B90020294908706F
:102B90002A4908700FB030BD002101200AF0A0FAC8
:102BA00000240AE001AA32F8242091B204F11302B1
:102BB000D0B20AF095FA601CC4B2032CF2DB0321F8
:102BC00001200AF08DFA1B480078032807D1002065
:102BD0001D4908701749087018490870DAE7002481
:102BE00005E00DA8005D17490855601CC4B2062C0D
:102BF000F7DB002407E001A850F824000E4941F853
:102C00002400601CC4B2032CF5DB0A480078401C89
:102C10000849087009480078012805DA0748007853
:102C2000401C0649087002E0002004490870012099
:102C3000B0E7000071010020F43F01207201002084
:102C40000C4001207401002070010020730100205D
:102C500010B5002101200AF043FA1C2150200AF08F
:102C60003FFA002151200AF03BFA4FF44C51572013
:102C70000AF036FA032158200AF032FA00215920CE
:102C80000AF02EFA00215A200AF02AFA00215B20CD
:102C90000AF026FAA12152200AF022FA4FF4C0517C
:102CA00018200AF01DFA232102200AF019FA8421C3
:102CB00011200AF015FA40F2872112200AF010FACA
:102CC00041F2111114200AF00BFA41F211111520F2
:102CD0000AF006FA40F60A210C200AF001FA40F642
:102CE0000A210D200AF0FCF940F60A210E200AF014
:102CF000F7F940F202211B200AF0F2F940F20241FA
:102D00001C200AF0EDF91C2107200AF0E9F98021C6
:102D100003200AF0E5F9052119200AF0E1F9002164
:102D200021200AF0DDF9002120200AF0D9F9002144
:102D300027200AF0D5F900212C200AF0D1F9002132
:102D400022200AF0CDF900212D200AF0C9F9032133
:102D500001200AF0C5F902200149086010BD0000F9
:102D60008001002070B527480078D8B1FFF7BCFD7E
:102D700024480078A8B92448007818B1002101201F
:102D80000AF0AEF91C2103200AF0AAF900212D2037
:102D90000AF0A6F91C48007818B1032101200AF0B6
:102DA0009FF970BD1948006828BB32200AF074F9F9
:102DB000054631200AF070F9044605F0100040B1D4
:102DC00014B900F09DF81BE0102C19D100F097F811
:102DD00016E005F0080040B114B900F08FF80FE0DC
:102DE000082C0DD100F068F80AE005F0040010B1DD
:102DF00014B900F0B7F803E0042C01D100F092F808
:102E000000BFCEE770010020730100207C0100208C
:102E100010B51B480078D8B1FFF766FD1848007858
:102E2000A8B91848007818B1002101200AF058F913
:102E3000002103200AF054F910212D200AF050F946
:102E40001048007818B1002101200AF049F910BD9E
:102E50000D48006888B92E200AF01EF90446102C8F
:102E600002D100F013F808E0012C02D100F07CF848
:102E700003E0022C01D100F045F800BFE7E70000B5
:102E800070010020730100207C01002010B502A019
:102E900012F000F910BD000041573931333620637C
:102EA000656E74657220646F75626C6520636C6911
:102EB000636B200A0000000010B50948007800F09C
:102EC000010048B107A012F0E5F80548007820F0AD
:102ED000080008300249087050200DF023F910BD99
:102EE0002C010020415739313336207269676874EC
:102EF000207072657373200A0000000070477047ED
:102F00007047000010B502A012F0C4F810BD000018
:102F1000415739313336206C65667420736C6970A3
:102F2000200A000010B50948007800F0010048B1FF
:102F300007A012F0AFF80548007820F00200801CCE
:102F40000249087050200DF0EDF810BD2C01002052
:102F5000415739313336206C656674207072657361
:102F600073200A007047000010B502A012F092F81A
:102F700010BD0000415739313336207269676874DB
:102F800020736C6970200A0010B50446094804607B
:102F9000032012F0A7F801200749C1F8A00204207D
:102FA00012F0A0F800200349091F0860022012F067
:102FB00099F810BDA4824042008040422DE9F843B8
:102FC0000024884600940646817998F806009146C8
:102FD0001D46814288BF0846411C1A4668460FF0CC
:102FE000FFFA00281CBF40F2ED30BDE8F8834146EF
:102FF000304601F0DFFEC01C0127072862D2DFE85F
:1030000000F03E2D25352D2504004046009901F0A5
:103010007BFF00993046CC7101F0CCFEB0F1FF3F50
:1030200004D000284BD002284CD107E0314640465E
:10303000009A0FF0D0FB0098C77143E0414630463C
:10304000009A0FF0C8FB0098C4713BE0414630463F
:10305000009A00F053F80098C47133E041463046BE
:10306000009A00F04BF80098C7712BE041463046BB
:10307000009A00F043F80099F079C87122E03046D8
:10308000009901F041FF00984146C47101F092FEA1
:10309000B0F1FF3F03D090B1022813D107E03146D1
:1030A0004046009A0FF097FB0098C4710AE0414631
:1030B0003046009A0FF08FFB0098C77102E000982D
:1030C0000FF0F2F9002148460AF092F949460098BB
:1030D00001F01AFF0099002914BF002DBDE8F88304
:1030E000EA8889796FF00303494203EB81011144B7
:1030F0000839E9800094BDE8F88300002DE9F84F15
:103100000B46D0F800B0096800910025B0F804C063
:103110009E88176891462C46B44598BF66468179CB
:103120004FF0010E4FF000088C4532D8A1EB0C0196
:10313000002201F1010ABAF1000F2ADD3EEA010185
:103140001CBF4BF82C80012290F806C0B0F804A0F8
:10315000ACEB0A0C0CF1010C8C451AD91FFA8AFA57
:10316000D0F800C09244521C4CF82A80B0F804A059
:10317000D0F800C09244521C4CF82A8090F806C047
:10318000B0F804A0891CACEB0A0C0CF1010C8C45C6
:10319000E4D8B3F804C099798C4534D8A1EB0C017C
:1031A000002201F1010ABAF1000F2CDD3EEA010113
:1031B00003D01A6842F82C80012293F806C0B3F8B5
:1031C00004A0ACEB0A0C0CF1010C8C451BD900BF20
:1031D0001FFA8AFAD3F800C09244521C4CF82A8095
:1031E000B3F804A0D3F800C09244521C4CF82A80D3
:1031F00093F806C0B3F804A0891CACEB0A0C0CF1E0
:10320000010C8C45E4D881889A889142494638BFA0
:10321000184601F079FE002E48D00098ABF1040367
:10322000021F391F16F0010F0DD053F804CF52F8CA
:10323000040F1CEB000048EB080C40194CEB040594
:1032400041F8040F44465FEA560C1BD0D3F804A0A3
:1032500050681AEB000048EB080A45194D604AEB2C
:10326000040053F808AF52F8085F1AEB050548EB65
:103270000804281844EB080541F8080F4446BCF13F
:10328000010CE3D195B157F82600401C47F8260001
:1032900007E0761C07EB86000168491C016057F8BF
:1032A000260018B9B9F80400B042F2D2B9F8040007
:1032B00057F8201000291CBF401CA9F80400BDE8E5
:1032C000F88F00002DE9F041B4B080460E46174655
:1032D0001D4664211BA8FCF7D0FF642102A8FCF75F
:1032E000CCFF0020019002AA3146404609F04AFA7C
:1032F000710001AB1BAA02A809F0A4F918B90120BA
:1033000034B0BDE8F0811BA8019902F043F908B977
:103310000220F5E70748FCF7BBFF2860002403E024
:103320000448005D3855641C2868A042F8DC002081
:10333000E6E700005C3400202DE9F047A0B0074626
:10334000884615461E46DDF8A0904FF0000A01F0B1
:1033500093FE0AA808AB0CAA10A9009014A806F0C6
:10336000EFFB0897CDF82480144806901448049089
:103370000CA804A910AB06AACDE90109009108A97F
:1033800014A805F0FFFB8246DDE90E010844306019
:10339000002408E00C98005D28550D98005D0E99FA
:1033A00021446854641C306800EBD071B4EB610FA9
:1033B000F0DB504620B0BDE8F087000094320020DA
:1033C000CC310020F0B5AFB006460F4615460020C0
:1033D0002E9020202D90112101A8FCF74EFF2D48A2
:1033E0000068009020210BA8FCF747FF142106A8D5
:1033F000FCF743FF28213846FCF73FFF212D04D07E
:10340000412D02D001202FB0F0BD212D16D1E8B200
:103410008DF89000AC2124AA681C1154002404E00B
:10342000315D24AA601C1154641CAC42F8DB2DAB46
:103430000BAAA91C24A800F04DF815E0E8B28DF8FD
:103440004C00AC2113AA681C1154002404E0315D27
:1034500013AA601C1154641CAC42F8DB2DAB0BAA00
:10346000A91C13A800F036F806A90BA80EF0E0FA84
:10347000002405E006A8015D601C0DF80010641C26
:10348000142CF7DB2EAB3A461521684601F072FB8F
:10349000B9E70000587E01082DE9F04106460C46C8
:1034A0001546611C304605F0B1FA07466DB194F837
:1034B000400000EBD0714910A0EB410111B1032095
:1034C000207004E00220207001E0042020703846C3
:1034D000BDE8F0812DE9F04104460D4616461F4631
:1034E00001F0CAFD3B4632462946204608F0F4FC6E
:1034F00080464046BDE8F08107B5ADF53E7D002031
:10350000BA90B990B890B7901121A3A8FCF7B5FE76
:10351000FC480168A29100209A904FF48C7154A845
:10352000FCF7ABFEBE980078B690C099B6980860DC
:10353000BE984078B590C099B5984860B698402834
:103540007ED008DC70B101287BD002287AD02028F8
:1035500041F09181A1E1802875D0D02874D0D12884
:10356000F6D1FDE3B59800286FD19FEDE71B9FEDE5
:10357000E80B11F0DDFD8DED440BBE984079C117CD
:10358000539000EB117001115398A0EB0110419082
:10359000FCF7B9FF439142909DED440B53EC102B87
:1035A0009DED420B51EC100BFCF73BFF9FEDDA1B3E
:1035B0009FEDD70B4991489011F0BAFD8DED400B6E
:1035C000BE984079C117529000EB117000113D90E8
:1035D000FCF799FFCDE93E019DED400B53EC102B1C
:1035E0009DED3E0B51EC100BFCF71BFF9FEDCC1B30
:1035F0009FEDC70B4591449011F09AFD8DED3C0B6A
:10360000BE980079C117519000EB117001115198CB
:10361000A0EB01103990FCF776FFCDE93A019DED62
:103620003C0B53EC102B9DED3A0B51EC100BFCF7BF
:10363000F8FE9FEDBD1B9FEDB60B4191409005E05C
:1036400042E108E10DE1FDE3FDE300E111F070FD71
:103650008DED380BBE980079C117509000EB1170BA
:1036600000113590FCF74FFFCDE936019DED380B89
:1036700053EC102B9DED360B51EC100BFCF7D1FEEB
:103680009FEDAB1B9FEDA20BCDE93C0111F050FD6E
:103690008DED340BBE98C078C1174F9000EB1170C0
:1036A00001114F98A0EB01103190FCF72CFFCDE9F0
:1036B00032019DED340B53EC102B9DED320B51EC90
:1036C000100BFCF7AEFE9FED9C1B9FED910BCDE91F
:1036D000380111F02DFD8DED300BBE98C078C1176B
:1036E0004E9000EB117000112D90FCF70CFFCDE90E
:1036F0002E019DED300B53EC102B9DED2E0B51EC5C
:10370000100BFCF78EFE9FED8E1B9FED810BCDE91C
:10371000340111F00DFD8DED2C0BBE988078C11792
:103720004D9000EB117001114D98A0EB0110299004
:10373000FCF7E9FECDE92A019DED2C0B53EC102B93
:103740009DED2A0B51EC100BFCF76BFE9FED7E1BE1
:103750009FED6F0BCDE9300111F0EAFC8DED2C0BE4
:10376000BE988078C1174C9000EB11700011299021
:10377000FCF7C9FECDE92A019DED2C0B53EC102B73
:103780009DED2A0B51EC100BFCF74BFECDE92E0101
:103790009DED300B53EC102B9DED2E0B51EC100BCF
:1037A000FCF798FDCDE932019DED340B53EC102B65
:1037B0009DED320B51EC100BFCF78CFDCDE9360181
:1037C0009DED380B53EC102B9DED360B51EC100B8F
:1037D000FCF780FDCDE93A019DED3C0B53EC102B3D
:1037E0009DED3A0B51EC100BFCF774FDCDE93E0159
:1037F0009DED400B53EC102B9DED3E0B51EC100B4F
:10380000FCF768FD439142909DED440B53EC102B67
:103810009DED420B51EC100BFCF75CFD479146907F
:103820009DED480B53EC102B9DED460B51EC100B0E
:10383000FCF750FD4B914A909DED4A0B51EC100B5B
:10384000FCF7ABFE559154900420B990E1E30120C0
:103850000DF5417D00BDB598012801DD0120F7E798
:10386000F4E7B598B8B90020BC9009E0BC98801C7A
:10387000BE990A5C56A8BC994254BC98401CBC90A6
:10388000BC982228F2DB9DF8580108B90120DFE737
:103890002220B990DAE70120DAE7B59890B9002044
:1038A000BC9009E0BC98801CBE990A5C67A8BC99D2
:1038B0004254BC98401CBC90BC984028F2DB40208D
:1038C000B990C3E70120C3E7B59800287ED1BE9820
:1038D00080787790B998401CB990B998801CBE99AF
:1038E000085CB790B998C01C53904FF480620146B1
:1038F000B79BBE980DF0D6FAB890B89808B90120D9
:10390000A6E725E0FC7E01080000000000000000A2
:103910000000000000003040000000000000F03F08
:10392000000000000000004000000000000008400F
:1039300000000000000010400000000000001440E3
:1039400000000000000018400000000000001C40C3
:10395000B7980EF043F8401CB9990844B990B8994B
:10396000B9980844B9901FED181B1FED170B11F003
:10397000DFFB8DED3C0BB9980930BE99085CC1178F
:10398000539000EB117001115398A0EB0110399086
:10399000FCF7B9FDCDE93A019DED3C0B53EC102B42
:1039A0009DED3A0B51EC100BFCF73BFD1FED261B78
:1039B0001FED290B4191409011F0BAFB8DED380BB2
:1039C000B9980930BE99085CC11700E022E3529013
:1039D00000EB117000113590FCF795FDCDE9360133
:1039E0009DED380B53EC102B9DED360B51EC100B6D
:1039F000FCF717FD1FED361B1FED3B0BCDE93C011E
:103A000011F096FB8DED340BB9980830BE99085C27
:103A1000C117519000EB117001115198A0EB0110EA
:103A20003190FCF770FDCDE932019DED340B53EC84
:103A3000102B9DED320B51EC100BFCF7F2FC1FED3F
:103A4000461B1FED4D0BCDE9380111F071FB8DEDDB
:103A5000300BB9980830BE99085CC117509000EB44
:103A6000117000112D90FCF74EFDCDE92E019DED5A
:103A7000300B53EC102B9DED2E0B51EC100BFCF783
:103A8000D0FC1FED551B1FED5E0BCDE9340111F08D
:103A90004FFB8DED2C0BB998C01DBE99085CC1176A
:103AA0004F9000EB117001114F98A0EB011029907D
:103AB000FCF729FDCDE92A019DED2C0B53EC102BD1
:103AC0009DED2A0B51EC100BFCF7ABFC1FED661BB8
:103AD0001FED710BCDE9300111F02AFB8DED280BA4
:103AE000B998C01DBE99085CC1174E9000EB1170CB
:103AF00000112590FCF707FDCDE926019DED280B6F
:103B000053EC102B9DED260B51EC100BFCF789FCB0
:103B10001FED751B1FED820BCDE92C0111F008FB89
:103B20008DED240BB998801DBE99085CC1174D908E
:103B300000EB117001114D98A0EB01102190FCF7E2
:103B4000E2FCCDE922019DED240B53EC102B9DED01
:103B5000220B51EC100BFCF764FC1FED851B1FEDD5
:103B6000940BCDE9280111F0E3FA8DED200BB99803
:103B7000801DBE99085CC1174C9000EB11700011BC
:103B80001D90FCF7C0FCCDE91E019DED200B53EC10
:103B9000102B9DED1E0B51EC100BFCF742FC9FED22
:103BA000FE1B1FEDA50BCDE9240111F0C1FA8DED2F
:103BB0001C0BB998401DBE99085CC1174B9000EBD7
:103BC000117001114B98A0EB01101990FCF79BFCB0
:103BD000CDE91A019DED1C0B53EC102B9DED1A0B3A
:103BE00051EC100BFCF71DFC9FEDED1B1FEDB80B0E
:103BF000CDE9200111F09CFA8DED180BB998401D0C
:103C0000BE99085CC1174A9000EB11700011159025
:103C1000FCF779FCCDE916019DED180B53EC102B48
:103C20009DED160B51EC100BFCF7FBFB9FEDDE1B23
:103C30001FEDC90BCDE91C0111F07AFA8DED140BC3
:103C4000B998001DBE99085CC117499000EB11702E
:103C500001114998A0EB01101190FCF754FCCDE93B
:103C600012019DED140B53EC102B9DED120B51EC3A
:103C7000100BFCF7D6FB9FEDCE1B1FEDDB0BCDE948
:103C8000180111F055FA8DED100BB998001DBE9971
:103C9000085CC117489000EB117000110D90FCF703
:103CA00032FCCDE90E019DED100B53EC102B9DED78
:103CB0000E0B51EC100BFCF7B4FB9FEDBF1B1FED7F
:103CC000EC0BCDE9140111F033FA8DED0C0BB99822
:103CD000C01CBE99085CC117479000EB1170011120
:103CE0004798A0EB01100990FCF70DFCCDE90A0103
:103CF0009DED0C0B53EC102B9DED0A0B51EC100BB2
:103D0000FCF78FFB9FEDAE1B9FEDAF0BCDE91001D4
:103D100011F00EFA8DED080BB998C01CBE99085C25
:103D2000C117469000EB117000110590FCF7EBFBFA
:103D3000CDE906019DED080B53EC102B9DED060B14
:103D400051EC100BFCF76DFB9FEDA11B9FED9E0B43
:103D5000CDE90C0111F0ECF98DED040BB99800E000
:103D600019E2801CBE99085CC117459000EB1170E8
:103D700001114598A0EB01100190FCF7C4FBCDE9BF
:103D800002019DED040B53EC102B9DED020B51EC49
:103D9000100BFCF746FB9FED901B9FED8B0BCDE9C5
:103DA000080111F0C5F98DED040BB998801CBE997E
:103DB000085CC117449000EB117000110190FCF7F2
:103DC000A2FBCDE902019DED040B53EC102B9DED00
:103DD000020B51EC100BFCF724FBCDE906019DED25
:103DE000080B53EC102B9DED060B51EC100BFCF760
:103DF00071FACDE90A019DED0C0B53EC102B9DEDF2
:103E00000A0B51EC100BFCF765FACDE90E019DEDA4
:103E1000100B53EC102B9DED0E0B51EC100BFCF71F
:103E200059FACDE912019DED140B53EC102B9DEDC9
:103E3000120B51EC100BFCF74DFACDE916019DED7C
:103E4000180B01E0E8E0ECE053EC102B9DED160BB5
:103E500051EC100BFCF73EFACDE91A019DED1C0B5D
:103E600053EC102B9DED1A0B51EC100BFCF732FAB2
:103E7000CDE91E019DED200B53EC102B9DED1E0B8B
:103E800051EC100BFCF726FACDE922019DED240B35
:103E900053EC102B9DED220B51EC100BFCF71AFA92
:103EA000CDE926019DED280B53EC102B9DED260B43
:103EB00051EC100BFCF70EFACDE92A019DED2C0B0D
:103EC00053EC102B9DED2A0B51EC100BFCF702FA72
:103ED000CDE92E019DED300B53EC102B9DED2E0BFB
:103EE00051EC100BFCF7F6F9CDE932019DED340BE6
:103EF00053EC102B9DED320B51EC100BFCF7EAF953
:103F0000CDE936019DED380B53EC102B9DED360BB2
:103F100051EC100BFCF7DEF9CDE93A019DED3C0BBD
:103F200053EC102B9DED3A0B51EC100BFCF7D2F932
:103F3000CDE93E019DED400B53EC102B9DED3E0B6A
:103F400051EC100BFCF7C6F9439142909DED420BEA
:103F500051EC100BFCF721FB79917890B99808305F
:103F6000B990B998801CBE99085C7A90B998401CA9
:103F7000B9900020BC900BE0B999BC980844801C13
:103F8000BE990A5C7BA9BC980A54BC98401CBC90A2
:103F9000BC982128F0DB23E0000000000000204056
:103FA000000000000000224000000000000024404B
:103FB0000000000000002640000000000000284033
:103FC0000000000000002A40000000000000304017
:103FD0000000000000002C400000000000002E4007
:103FE000B9982130B9900020BC900CE0B999BC98E8
:103FF0000844801CBE990A5C0DF22E20BC994254E4
:10400000BC98401CBC90BC981428EFDBB9981430C5
:10401000B990FDE301201BE4B59808B1012017E435
:10402000F6E3B598012801DD012011E40020BC90E1
:104030000AE0BC98801CBE990A5C0DF25620BC991F
:104040004254BC98401CBC90BC980328F1DBB59846
:10405000012803D1BE984079979001E00020979005
:10406000B998001DB990B998801CBE99085CB790AA
:10407000B998C01C5390FC220146B79BBE980CF027
:1040800011FFB890B89808B9012005E4B7980DF071
:10409000A5FC401CB9990844B990B899B99808444E
:1040A000B990B998801CBE99085CB790B998C01CAB
:1040B0005390FC220146B79BBE980CF0F3FEB890DB
:1040C000B89808B901201BE4B7980DF087FC401C94
:1040D000B9990844B990B899B9980844B990B99871
:1040E000801CBE99085CB790B998C01C5390FC2204
:1040F0000146B79BBE980CF0D5FEB890B89808B9A9
:10410000012088E7B7980DF069FC401CB999084474
:10411000B990B899B9980844B990B998801CBE99DB
:10412000085CB790B998C01C5390FC220146B79B1D
:10413000BE980CF0B7FEB890B89808B901206AE7AD
:10414000B7980DF04BFC401CB9990844B990B89948
:10415000B9980844B990B998801CBE99085CB7908A
:10416000B998C01C53904FF480320146B79BBE985B
:104170000CF098FEB890B89808B901204BE7B798B2
:104180000DF02CFC401CB9990844B990B899B99825
:104190000844B99071E3B598012801DD01203AE7A0
:1041A000B998801CBE99085CB790B998C01C539010
:1041B0004FF480320146B79BBE980CF073FEB89066
:1041C000B89808B9012026E7B7980DF007FC401C05
:1041D000B9990844B990B899B9980844B990B59874
:1041E00001287DD19FEDFE1B1FED890B10F0A0FF74
:1041F0008DED3C0BB9980930BE99085CC1175390FE
:1042000000EB117001115398A0EB01103990FCF7ED
:104210007AF9CDE93A019DED3C0B53EC102B9DED65
:104220003A0B51EC100BFCF7FCF89FEDEF1B1FED68
:104230009A0B4191409010F07BFF8DED380BB998AF
:104240000930BE99085CC117529000EB1170001143
:104250003590FCF758F9CDE936019DED380B53EC5C
:10426000102B9DED360B51EC100BFCF7DAF89FED9F
:10427000E01B1FEDAB0BCDE93C0110F059FF8DEDBC
:10428000340BB9980830BE99085CC117519000EB07
:10429000117001115198A0EB01103190FCF733F926
:1042A000CDE932019DED340B53EC102B9DED320B1B
:1042B00051EC100BFCF7B5F89FEDCF1B1FEDBE0BBB
:1042C000CDE9380110F034FF8DED300BB99808308E
:1042D000BE99085CC117509000EB1170001100E00E
:1042E000C5E22D90FCF70FF9CDE92E019DED300BC5
:1042F00053EC102B9DED2E0B51EC100BFCF791F8AD
:104300009FEDBF1B1FEDD00BCDE9340110F010FF66
:104310008DED2C0BB998C01DBE99085CC1174F904C
:1043200000EB117001114F98A0EB01102990FCF7E0
:10433000EAF8CDE92A019DED2C0B53EC102B9DEDF5
:104340002A0B51EC100BFCF76CF89FEDAF1B1FED27
:10435000E20BCDE9300110F0EBFE8DED280BB998A2
:10436000C01DBE99085CC1174E9000EB1170001182
:104370002590FCF7C8F8CDE926019DED280B53ECFC
:10438000102B9DED260B51EC100BFCF74AF89FED1E
:10439000A01B1FEDF30BCDE92C0110F0C9FE8DED34
:1043A000240BB998801DBE99085CC1174D9000EB95
:1043B000117001114D98A0EB01102190FCF7A3F8AA
:1043C000CDE922019DED240B53EC102B9DED220B2A
:1043D00051EC100BFCF725F89FED8F1B9FED900B18
:1043E000CDE9280110F0A4FE8DED200BB998801DB9
:1043F000BE99085CC1174C9000EB117000111D9024
:10440000FCF781F8CDE91E019DED200B53EC102B3C
:104410009DED1E0B51EC100BFCF703F89FED821B7A
:104420009FED7F0BCDE9240110F082FE8DED1C0B7A
:10443000B998401DBE99085CC1174B9000EB1170F4
:1044400001114B98A0EB01101990FCF75CF8CDE935
:104450001A019DED1C0B53EC102B9DED1A0B51EC2A
:10446000100BFBF7DEFF9FED721B9FED6D0BCDE98F
:10447000200110F05DFE8DED180BB998401DBE991E
:10448000085CC1174A9000EB117000111590FCF701
:104490003AF8CDE916019DED180B53EC102B9DED6C
:1044A000160B51EC100BFBF7BCFF9FED631B9FED50
:1044B0005C0BCDE91C0110F03BFE8DED140BB9989F
:1044C000001DBE99085CC117499000EB11700111E5
:1044D0004998A0EB01101190FCF715F8CDE91201F5
:1044E0009DED140B53EC102B9DED120B51EC100BAA
:1044F000FBF797FF9FED521B9FED490BCDE918018C
:1045000010F016FE8DED100BB998001DBE99085CD9
:10451000C117489000EB117000110D90FBF7F3FFED
:10452000CDE90E019DED100B53EC102B9DED0E0B04
:1045300051EC100BFBF775FF9FED431B9FED380B04
:10454000CDE9140110F0F4FD8DED0C0BB998C01CF1
:10455000BE99085CC117479000EB11700111479894
:10456000A0EB01100990FBF7CEFFCDE90A019DED0C
:104570000C0B53EC102B9DED0A0B51EC100BFBF7C1
:1045800050FF9FED331B9FED260BCDE9100110F07E
:10459000CFFD8DED080BB998C01CBE99085CC11702
:1045A000469000EB117000110590FBF7ACFFCDE9D0
:1045B00006019DED080B53EC102B9DED060B51EC05
:1045C000100BFBF72EFF9FED241B9FED150BCDE984
:1045D0000C0110F0ADFD8DED040BB998801C3FE08F
:1045E0000000000000000000000000000000F03F9C
:1045F0000000000000000040000000000000084033
:104600000000000000001040000000000000144006
:1046100000000000000018400000000000001C40E6
:1046200000000000000030400000000000002040BA
:1046300000000000000022400000000000002440B4
:10464000000000000000264000000000000028409C
:104650000000000000002A400000000000002C4084
:10466000BE99085CC117459000EB11700111459887
:10467000A0EB01100190FBF746FFCDE902019DED93
:10468000040B53EC102B9DED020B51EC100BFBF7C0
:10469000C8FE9FEDE41B1FED1E0BCDE9080110F0D5
:1046A00047FD8DED040BB998801CBE99085CC117BD
:1046B000449000EB117000110190FBF724FFCDE94D
:1046C00002019DED040B53EC102B9DED020B51EC00
:1046D000100BFBF7A6FECDE906019DED080B53EC90
:1046E000102B9DED060B51EC100BFBF7F3FDCDE904
:1046F0000A019DED0C0B53EC102B9DED0A0B51ECB8
:10470000100BFBF7E7FDCDE90E019DED100B53EC0F
:10471000102B9DED0E0B51EC100BFBF7DBFDCDE9E3
:1047200012019DED140B53EC102B9DED120B51EC6F
:10473000100BFBF7CFFDCDE916019DED180B53ECE7
:10474000102B9DED160B51EC100BFBF7C3FDCDE9C3
:104750001A019DED1C0B53EC102B9DED1A0B51EC27
:10476000100BFBF7B7FDCDE91E019DED200B53ECBF
:10477000102B9DED1E0B51EC100BFBF7ABFDCDE9A3
:1047800022019DED240B53EC102B9DED220B51ECDF
:10479000100BFBF79FFDCDE926019DED280B53EC97
:1047A000102B9DED260B51EC100BFBF793FDCDE983
:1047B0002A019DED2C0B53EC102B9DED2A0B51EC97
:1047C000100BFBF787FDCDE92E019DED300B53EC6F
:1047D000102B9DED2E0B51EC100BFBF77BFDCDE963
:1047E00032019DED340B53EC102B9DED320B51EC4F
:1047F000100BFBF76FFDCDE936019DED380B53EC47
:10480000102B9DED360B51EC100BFBF763FD00E018
:1048100033E0CDE93A019DED3C0B53EC102B9DEDBF
:104820003A0B51EC100BFBF755FDCDE93E019DED28
:10483000400B53EC102B9DED3E0B51EC100BFBF796
:1048400049FD439142909DED420B51EC100BFBF75B
:104850007FFE99919890B9980830B990002211463E
:10486000989B99989A1A884104DA01200DE4002057
:104870009890999001E0012007E400BFB998801C4E
:10488000BE99085CB490C099B498C860B998C11C2E
:10489000BE98405CB390C099B3980861B998001D68
:1048A000BA900020BC901DE00020BB9010E0BB99A6
:1048B000BA9801442222BC9802FB0011BE98415CC8
:1048C000BB98C0F11F00AAAA1154BB98401CBB9012
:1048D000BB982028EBDB2021AAA8FBF7CEFCBC98D4
:1048E000401CBC90BC99B3988142DDDB2222B39975
:1048F000BA9802FB0100BA90BA99BE98405CB29097
:10490000C099B2984861BA98401CBA900020BC90F7
:1049100075E00020BB9015E0BA99BB9801443C2299
:10492000BC9802FB0011BE98425CC09800F58970EB
:10493000BC9900EB4111BB98C0F11F000A54BB9811
:10494000401CBB90BB982028E6DBC09800F589701E
:10495000BC9900EB4110539005F046FBC0990872DA
:104960000020BB9011E0BA9820303C22BC9902FB99
:104970000101BB980144BE98415CBB98C0F107009F
:10498000A8AA1154BB98401CBB90BB980828EADB2E
:10499000A8A800F021FBC09A02F51672BC9B02EB9E
:1049A000C30203C20020BB9011E0BA9800F12801B5
:1049B0003C22BC9802FB0011BB980144BE98415CAC
:1049C000BB98401CA2AA1154BB98401CBB90BB983A
:1049D0001428EADB9BAA1521A2A800F0A3F8BC9832
:1049E00000EBC00101EB0011C0981830084453904F
:1049F0009BA99A9AFBF71AFCBC98401CBC90B299F0
:104A0000BC98884285DB3C22B299BA9802FB01002F
:104A1000BA90BF99BA98884201D1002026E70120B8
:104A200024E700000000000000002E4030B50346DF
:104A30000C46002106E0585C655CA84201D00020CD
:104A400030BD491C9142F6DB0120F9E72DE9F04722
:104A500004460D4616464FF0000AD046C1463BE0DC
:104A60002046E11704EB9171C1F3870716F808009F
:104A7000203800F0FF0A3D2F08DD00242046E11712
:104A800004EB91718F1005F11000C5B207F11D0202
:104A9000D1B2521ED0B20DF02AFD05F10F00C1B205
:104AA00028460DF034FD0DF042FD4FF0000909E0FD
:104AB00009EB0A110B4A505C00F0CFF909F1010033
:104AC00000F0FF09B9F1100FF2DB08F1010000F06E
:104AD000FF0804F10800C4B216F808000028BFD18E
:104AE000BDE8F087840100200146302901DAFF206B
:104AF0007047392902DCA1F13000F9E7412901DAD8
:104B0000FF20F5E7462902DCA1F13700F0E7612933
:104B100001DAFF20ECE7662902DCA1F15700E7E7A4
:104B2000FF20E5E7F0B591B006460F461546202078
:104B300000906B4609AA39463046FEF7CBFC6B461F
:104B400001AA202109A8FEF7C5FC002403E0305D7E
:104B50002855601CC4B2152CF9DB002406E001A81E
:104B6000015D04F115002954601CC4B2042CF6DB6D
:104B700011B0F0BD2DE9F041ADF58D6D06468846CA
:104B800017461D464FF4007183A8FBF776FB4FF4E0
:104B9000007103A8FBF771FB202002900020019018
:104BA00002AB0DF22C4241463046FEF793FC02ABBD
:104BB0000DF20C4220210DF22C40FEF78BFC00245C
:104BC00004E0305D0DF24C410855641C152CF8DBF7
:104BD000002408E00DF20C40015D04F115000DF217
:104BE0004C421154641C042CF4DB03AA19210DF26D
:104BF0004C4007F0C7FD01AB83AA322103A807F0A0
:104C000021FD20B901200DF58D6DBDE8F08183A84F
:104C1000019900F0BFFC08B90220F4E70748FBF750
:104C200037FB2860002403E00448005D3855641C0D
:104C30002868A042F8DC0020E5E700005C34002092
:104C400070B485880468012D02BF2368002B0123FE
:104C500012D0AB006FF0030606EB85054FF07F4CDA
:104C600054F8054014EA0C0F06D1BCF1000F1CBF2C
:104C70004FEA1C2C5B1EF5D1DC174FF0000C03EB48
:104C800094740CE00568CCF1000603EB860655F839
:104C90002C500E442DBA46F8045C0CF1010CBCEB10
:104CA000A40FEFDB13F0030F1FD0006803F0030520
:104CB00003F0030450F82C0013F0010C03D00D4452
:104CC00005F8010C000AA4EB0C0CBCF1000F0CDD84
:104CD00001EB0C04ACF1020C04F8010C000A04F81E
:104CE000020C000ABCF1000FF2DC002A18BF1360AE
:104CF00070BC7047002812BF002941F2B8407047CD
:104D0000F8B50F46818800241646012905D10268AE
:104D10001268002A08BF012312D08B006FF0030530
:104D2000026805EB81014FF07F4C555815EA0C0FD6
:104D300006D1BCF1000F1CBF4FEA1C2C5B1EF5D145
:104D40000093B342C4BF41F2B540F8BDB919C91AC6
:104D50006A46FFF775FF0098311A00290EDD781EAC
:104D600011F0010F18BF00F8014F0099711A491096
:104D700004D0447000F8024F491EFAD10020F8BD5B
:104D80000020704702480349086000207047000077
:104D9000F41B0020E000002070B504460D460449D5
:104DA000D1F8180240210FF0A7F8002070BD0000D4
:104DB000F41B002070B490F907C091F907209445C6
:104DC0003FD183888C880122A34204BF0068096810
:104DD00003D9BCF1000F27D022E003D2BCF1000FB1
:104DE0002BD027E09D1AA61A50F8255051F82660BE
:104DF000B54204D1934224BF521C9342F2D2551EB5
:104E0000AB4202BF002070BC70479B1AA21A50F838
:104E1000230051F82210884209D9BCF1000F03D0B9
:104E200070BC6FF00100704770BC02207047BCF18D
:104E3000000F02D070BC0120704770BC4FF0FF30F3
:104E40007047BCF1010F05D1002A02BF6FF00200CC
:104E500070BC7047032070BC70472DE9FC410646CA
:104E6000354600244CE005F0C008B8F1000F09D029
:104E7000B8F1400F0AD0B8F1800F0BD0B8F1C00FD5
:104E800010D10BE0002001A908550CE00F2001A96A
:104E9000085508E0F02001A9085504E0FF2001A909
:104EA000085500E000BF00BFA806050E05F0C007CA
:104EB00037B1402F08D0802F0AD0C02F10D10BE07F
:104EC00000200DF804000CE00F200DF8040008E0AD
:104ED000F0200DF8040004E0FF200DF8040000E0CD
:104EE00000BF00BFA806050E01A9085D01210BF057
:104EF000D7FC1DF8040001210BF0D2FC601CC4B2E9
:104F0000022CB0DBBDE8FC8170B483888A79002470
:104F10009A4209D202F1010C9C4537BF41F2B540DB
:104F200041F2B54470BC7047C279CA7100228B80CF
:104F3000002B09DDD0F800C00D685CF822C045F8F0
:104F400022C0521C9342F5DC8879801A431C002B46
:104F500026DD01234FF0000C33EA0000634605D044
:104F6000D1F800C04CF822304FF0010C8D79AD1A09
:104F70006D1C854214DD00BF0D6802EB0C060CF1C0
:104F8000010C45F826300D6802EB0C06801C45F834
:104F900026308D790CF1010CAD1A6D1C8542EBDCCD
:104FA000204670BC704782880368012A01BF1868D8
:104FB00000280120704750016FF0030C0CEB8202B7
:104FC0004FF000419A5831EA02031EBF00294908F8
:104FD000401EF8D1704700002DE9F0412DED0C8BFB
:104FE00084B0074600210D460E4600200090019037
:104FF000029003906A460821384607F0C3FB00245C
:105000002CE02046FBF77FFA41EC1D0BB0EE4D1A69
:10501000F0EE6D1A9FED160B10F08AF8B0EE40BA64
:10502000F0EE60BAC4F10F011DF80100FFF75CFD5E
:105030008046FBF768FA53EC1B2BFBF7F2F941ECC7
:10504000190B28463146FBF76FFA53EC192BFBF787
:1050500041F9FBF77DFA05460E46641C102CD0DBA7
:105060002846314604B0BDEC0C8BBDE8F081000051
:105070000000000000003040012108030BF0B4BC28
:105080002DE9F04F85B09846DDF838B09246894654
:10509000070018BFB9F1000F09D0B8F1000F18BF11
:1050A000BBF1000F03D01AF0070F05D007E005B0E1
:1050B00040F6E840BDE8F08FBAF1080F04DA05B019
:1050C00040F6E540BDE8F08F387910F0020F1EBFC2
:1050D00040F6E64005B0BDE8F08F002502AE6C4614
:1050E0005FF0000005EB800159F8011009BA46F89D
:1050F000201044F82010401C0228F3DB07F11C01AB
:10510000684611F08BFE002007EB800154F8202048
:105110004B695A4044F8202056F820204A6154F840
:10512000201005EB800209BA401C48F80210022842
:10513000EADB08355545D3DBCBF800A005B00020ED
:10514000BDE8F08F002812BF002A40F6E840704703
:10515000017941F0020101710020106070470523C0
:1051600000F060B82DE9F0471E46DDF8209090462B
:105170000F46040018BF002F08D0002E18BFB9F149
:10518000000F03D018F0070F04D006E040F6E84007
:10519000BDE8F087B8F1080F03DA40F6E540BDE856
:1051A000F087207910F0020F16BF40F6E640002588
:1051B000BDE8F0875FF0000005EB800304EB8001A1
:1051C000FB584A691BBA5A40401C4A610228F3DB6B
:1051D00004F11C0104F1140011F020FE5FF0000046
:1051E00004EB800105EB80024969401C09BAB1500B
:1051F0000228F5DB08354545DCDB0020C9F80080D6
:10520000BDE8F087002812BF002A40F6E84070474A
:10521000017941F002010171002010607047042300
:10522000AFF300802DE9F0470C465FEA000C18BF91
:10523000002C04D003F006002AB9022803D040F65F
:10524000E840BDE8F087CCF80C209CF80410022858
:1052500021F006018CF804104FD0DCF81010481E25
:10526000102824BF40F6E740BDE8F0870025CCF8C1
:105270001450CCF818500029D8BF002007DD11F0D9
:10528000010004D0167845EA0665CCF81450814236
:10529000C8BF182131DDC51700EB957525F0030651
:1052A00006EB0C07861B07F1140512F80080764206
:1052B0007F6901EBC60608FA06F63E432E60461CDF
:1052C000F71706EB977525F0030702EB000907EBCC
:1052D0000C08F61B08F1140599F801907642D8F8ED
:1052E000148001EBC60609FA06F648EA06062E60A7
:1052F000DCF81050801C8542CDDC9CF8040010F0D6
:10530000010F08D103F001010CF11C022046CCF87A
:10531000084011F071FE0020BDE8F0872DE9F04F44
:10532000ADF5017D91460D4680461E46B0225A4994
:1053300050A8FAF77BFF0024202E1EBF6FF0030059
:105340000DF5017DBDE8F08F05F1190717F00F0F7E
:1053500004D007F00F00C0F11004274428BA0490CD
:1053600030BA05902A4641466E4606A8FAF75EFF17
:10537000802170194FF0000801766CB1183014F0DC
:10538000010F18BF00F8018F610805D080F8018077
:1053900000F8028F491EF9D1CDF80080CDF80480C5
:1053A000CDF80C800024CDF808800DF5A07B6E466A
:1053B0001CADCDF87080CDF87480CDF87880CDF834
:1053C0007C80B8EB171F38BF0DF5F87A17D2002094
:1053D0005FEA041101EB800255F82030B25812BA8E
:1053E0005A404AF82020401C0428F3D35A46294644
:1053F0007CA8FBF757FC641CB4EB171FE7D39DF8A0
:1054000003000024401C8DF803000DF5A07B6E46C0
:105410000DF1700A20ADCDF88080CDF88480CDF8F4
:105420008880CDF88C80B8EB171F38BF0DF5F87861
:1054300017D200205FEA041101EB800255F82030FA
:10544000B25812BA5A4048F82020401C0428F3D31E
:105450005A4629467CA8FBF725FC641CB4EB171FB1
:10546000E7D324A91CA8FBF741FE24AA49460AF168
:105470001000FBF717FC99E80F0020AC0FC424AA1A
:1054800009F110010AF11000FBF70CFC0DF5017D8C
:105490000020BDE8F08F0000A89501082DE9F0413B
:1054A00088B016468846044600256F46E068401CD2
:1054B000E0600AD1A068401CA06006D16068401C72
:1054C000606002D12068401C206007EB0511424655
:1054D0002046FBF7E7FB6D1C022DE7DB00983168E7
:1054E0004840206101987168484060610298B16845
:1054F0004840A0610398F1684840E0610498316930
:105500004840206005987169484060600698B1691C
:105510004840A0600798F1694840E06008B0BDE8E5
:10552000F08170B503460C460021002010E0165CA7
:10553000451C555D46EA0526851C555D46EA05462F
:10554000C51C555D46EA056543F82150491C001D00
:10555000A142ECDB70BD70B503461446002000226A
:1055600015E011F820509D5431F82050C5F307265E
:10557000551C5E5551F82050C5F30746951C5E55E5
:1055800051F820502D0ED61C9D55401C121DA042D6
:10559000E7DB70BD2DE9F047ADF5367D06460F46D9
:1055A0004FF000080020B59064219CA8FAF765FE32
:1055B0006422374983A8FAF739FE4FF4007103A833
:1055C000FAF75BFE28213348FAF757FE002403E080
:1055D000305D9CA90855641CBC42F9DB00BF9CA847
:1055E000FAF756FE814683A8FAF752FE8246B5A81E
:1055F00003A9534683AACDE9001049469CA811F09F
:105600001FFA05464FF6FF70854204D100200DF5C4
:10561000367DBDE8F08764219CA8FAF72EFE0024B1
:1056200004E003A8005D9CA90855641CAC42F8DBAB
:10563000022D0AD19DF80D109DF80C00303800EBBA
:10564000800001EB4000A0F13008012D03D19DF84E
:105650000C00A0F13008642183A8FAF70EFE352073
:105660008DF80C0238208DF80D02022DB7DCB8F150
:105670003A0FB4DC084810F808000649B59A885477
:1056800008460CF0BBF90020B5900120BFE70000F0
:10569000987E01085C3400205C7E0108F0B5C5B03E
:1056A00007460C46154600260020049048A103C971
:1056B000CDE9020120213DA8FAF7DFFD202135A820
:1056C000FAF7DBFD20212DA8FAF7D7FD202105A848
:1056D000FAF7D3FD40211DA8FAF7CFFD40210DA810
:1056E000FAF7CBFD3DA90120FCF7C6FF10B9012058
:1056F00045B0F0BD35A90220FCF7BEFF08B9012076
:10570000F6E720223DA91DA8FAF790FD202235A931
:1057100025A8FAF78BFD04A80DAB02AA4021009042
:105720001DA80AF007FD08B10220E1E7049840280F
:1057300001D00220DCE740210DA80FF0CBFA08B918
:105740000320D5E720220DA93DA8FAF76FFD2022FE
:105750000DF1520135A8FAF769FD40211DA8FAF7AD
:105760008CFD1E223DA91DA8FAF760FD2DAA35A9C2
:105770000F20FCF743FF08B90420B9E720222DA928
:105780000DF19200FAF752FD3E221DA900200FF004
:1057900083FA0646F0B28DF8B200300A8DF8B300F5
:1057A000202305AA40211DA80CF0CAFB04A82B4603
:1057B00005AA2146009038460CF058FC08B1052097
:1057C00096E70498844201D0052091E700208FE7F6
:1057D000010203040506070870B594B006460125CA
:1057E0000024282102A8FAF748FD0020019001209A
:1057F00007F054FE79E1BD480078C0F3800050B353
:105800004CBBBA48007820F00400B8490870F11D7C
:10581000C8B20CA9FCF730FF01AB02AA19210CA8F1
:10582000FDF750FD002004F0BDFB02AA102100206E
:10583000FFF70CF9002002F05BFE00BFAB480078D8
:10584000C0F380000028F9D0A848007820F00400B8
:10585000A64908700125A5480078C0F380000028FB
:105860007BD0012C79D1A148007820F004009F4919
:105870000870002004F096FB55235422072148208D
:105880000CF05BFE17231A46072168200CF055FE2A
:1058900057235622072178200CF04FFE09230822B7
:1058A000072198200CF049FE5A2358221C21202061
:1058B0000CF043FE2E231A461C2150200CF03DFE16
:1058C00020231A461C2160200CF037FE5C235B224B
:1058D0001C2170200CF031FE40233F221C2190201F
:1058E0000CF02BFE49231A461C21B0200CF025FE9B
:1058F000092308221C21C0200CF01FFE36231A4663
:105900002F213A200CF019FE35231A462F2178203A
:105910000CF013FE36231A462F21B6200CF00DFE94
:1059200019E072480078C0F3800020B1012007F030
:10593000B5FD012510E06D480078C0F3400020B9A6
:105940006A480078C0F3C00028B1012007F0A6FD26
:10595000012501E001E0E4E700BF64480078C0F3FE
:10596000800048B1022C07D16048007820F0040084
:105970005E49087014B070BD1CBB012D21D10025FB
:10598000002004F00FFB4F234E22102160200CF06A
:10599000D4FD09230822102180200CF0CEFD5123D4
:1059A00050221021B2200CF0C8FD0923082210213A
:1059B000D2200CF0C2FD012002F09AFD012003F07C
:1059C0000BF8012C2CD1012D2AD10025002004F048
:1059D000E9FA4F234E2210210F200CF0AEFD0923CF
:1059E000082210212F200CF0A8FD51235022102155
:1059F00060200CF0A2FD09230822102180200CF069
:105A00009CFD532352221021B8200CF096FD01205A
:105A100002F06EFD002002F0DFFF012002F0DCFF4B
:105A2000022C1DD1012D1BD10025002004F0BAFA53
:105A30005123502210211E200CF07FFD0923082243
:105A400010213E200CF079FD5323522210217020AA
:105A50000CF073FD012002F04BFD002002F0BCFFB2
:105A600022480078C0F3C00050B12048007820F0F0
:105A700008001E490870022C02DA601CC4B201251D
:105A80001A480078C0F3400050B11848007820F060
:105A9000020016490870002C02DD601EC4B2012508
:105AA0001CBB012D21D10025002004F07BFA4F23DF
:105AB0004E22102160200CF040FD09230822102105
:105AC00080200CF03AFD512350221021A8200CF028
:105AD00034FD092308221021C8200CF02EFD0120DE
